{
  "_format": "hh-sol-artifact-1",
  "contractName": "Marketplace",
  "sourceName": "contracts/Marketplace.sol",
  "abi": [
    {
      "inputs": [
        {
          "internalType": "uint256",
          "name": "_feePercent",
          "type": "uint256"
        }
      ],
      "stateMutability": "nonpayable",
      "type": "constructor"
    },
    {
      "anonymous": false,
      "inputs": [
        {
          "indexed": false,
          "internalType": "uint256",
          "name": "itemId",
          "type": "uint256"
        },
        {
          "indexed": true,
          "internalType": "address",
          "name": "nft",
          "type": "address"
        },
        {
          "indexed": false,
          "internalType": "uint256",
          "name": "tokenId",
          "type": "uint256"
        },
        {
          "indexed": false,
          "internalType": "uint256",
          "name": "price",
          "type": "uint256"
        },
        {
          "indexed": true,
          "internalType": "address",
          "name": "seller",
          "type": "address"
        },
        {
          "indexed": true,
          "internalType": "address",
          "name": "buyer",
          "type": "address"
        }
      ],
      "name": "LogBuyItem",
      "type": "event"
    },
    {
      "anonymous": false,
      "inputs": [
        {
          "indexed": false,
          "internalType": "uint256",
          "name": "_itemID",
          "type": "uint256"
        },
        {
          "indexed": false,
          "internalType": "address",
          "name": "_seller",
          "type": "address"
        },
        {
          "indexed": false,
          "internalType": "bool",
          "name": "_newStatus",
          "type": "bool"
        }
      ],
      "name": "LogChangeStatus",
      "type": "event"
    },
    {
      "anonymous": false,
      "inputs": [
        {
          "indexed": false,
          "internalType": "uint256",
          "name": "itemId",
          "type": "uint256"
        },
        {
          "indexed": true,
          "internalType": "address",
          "name": "nft",
          "type": "address"
        },
        {
          "indexed": false,
          "internalType": "uint256",
          "name": "tokenId",
          "type": "uint256"
        },
        {
          "indexed": false,
          "internalType": "uint256",
          "name": "price",
          "type": "uint256"
        },
        {
          "indexed": true,
          "internalType": "address",
          "name": "seller",
          "type": "address"
        }
      ],
      "name": "LogCreateItem",
      "type": "event"
    },
    {
      "anonymous": false,
      "inputs": [
        {
          "indexed": true,
          "internalType": "address",
          "name": "previousOwner",
          "type": "address"
        },
        {
          "indexed": true,
          "internalType": "address",
          "name": "newOwner",
          "type": "address"
        }
      ],
      "name": "OwnershipTransferred",
      "type": "event"
    },
    {
      "inputs": [
        {
          "internalType": "uint256",
          "name": "_itemId",
          "type": "uint256"
        }
      ],
      "name": "buyItem",
      "outputs": [],
      "stateMutability": "payable",
      "type": "function"
    },
    {
      "inputs": [
        {
          "internalType": "uint256",
          "name": "_itemId",
          "type": "uint256"
        },
        {
          "internalType": "bool",
          "name": "_newStatus",
          "type": "bool"
        }
      ],
      "name": "changeItemStatus",
      "outputs": [],
      "stateMutability": "nonpayable",
      "type": "function"
    },
    {
      "inputs": [],
      "name": "feePercent",
      "outputs": [
        {
          "internalType": "uint256",
          "name": "",
          "type": "uint256"
        }
      ],
      "stateMutability": "view",
      "type": "function"
    },
    {
      "inputs": [],
      "name": "getContractBalance",
      "outputs": [
        {
          "internalType": "uint256",
          "name": "",
          "type": "uint256"
        }
      ],
      "stateMutability": "view",
      "type": "function"
    },
    {
      "inputs": [],
      "name": "getItemsCount",
      "outputs": [
        {
          "internalType": "uint256",
          "name": "",
          "type": "uint256"
        }
      ],
      "stateMutability": "view",
      "type": "function"
    },
    {
      "inputs": [],
      "name": "getItemsSold",
      "outputs": [
        {
          "internalType": "uint256",
          "name": "",
          "type": "uint256"
        }
      ],
      "stateMutability": "view",
      "type": "function"
    },
    {
      "inputs": [
        {
          "internalType": "uint256",
          "name": "_itemId",
          "type": "uint256"
        }
      ],
      "name": "getTotalPrice",
      "outputs": [
        {
          "internalType": "uint256",
          "name": "",
          "type": "uint256"
        }
      ],
      "stateMutability": "view",
      "type": "function"
    },
    {
      "inputs": [
        {
          "internalType": "uint256",
          "name": "",
          "type": "uint256"
        }
      ],
      "name": "items",
      "outputs": [
        {
          "internalType": "uint256",
          "name": "itemId",
          "type": "uint256"
        },
        {
          "internalType": "contract IERC721",
          "name": "nft",
          "type": "address"
        },
        {
          "internalType": "uint256",
          "name": "tokenId",
          "type": "uint256"
        },
        {
          "internalType": "uint256",
          "name": "price",
          "type": "uint256"
        },
        {
          "internalType": "address payable",
          "name": "seller",
          "type": "address"
        },
        {
          "internalType": "bool",
          "name": "listed",
          "type": "bool"
        },
        {
          "internalType": "bool",
          "name": "sold",
          "type": "bool"
        }
      ],
      "stateMutability": "view",
      "type": "function"
    },
    {
      "inputs": [],
      "name": "itemsCount",
      "outputs": [
        {
          "internalType": "uint256",
          "name": "_value",
          "type": "uint256"
        }
      ],
      "stateMutability": "view",
      "type": "function"
    },
    {
      "inputs": [],
      "name": "itemsSold",
      "outputs": [
        {
          "internalType": "uint256",
          "name": "_value",
          "type": "uint256"
        }
      ],
      "stateMutability": "view",
      "type": "function"
    },
    {
      "inputs": [
        {
          "internalType": "contract IERC721",
          "name": "_nft",
          "type": "address"
        },
        {
          "internalType": "uint256",
          "name": "_tokenId",
          "type": "uint256"
        },
        {
          "internalType": "uint256",
          "name": "_price",
          "type": "uint256"
        }
      ],
      "name": "makeItem",
      "outputs": [],
      "stateMutability": "nonpayable",
      "type": "function"
    },
    {
      "inputs": [],
      "name": "owner",
      "outputs": [
        {
          "internalType": "address",
          "name": "",
          "type": "address"
        }
      ],
      "stateMutability": "view",
      "type": "function"
    },
    {
      "inputs": [],
      "name": "renounceOwnership",
      "outputs": [],
      "stateMutability": "nonpayable",
      "type": "function"
    },
    {
      "inputs": [
        {
          "internalType": "uint256",
          "name": "_feePercent",
          "type": "uint256"
        }
      ],
      "name": "setFeePercent",
      "outputs": [],
      "stateMutability": "nonpayable",
      "type": "function"
    },
    {
      "inputs": [
        {
          "internalType": "address",
          "name": "newOwner",
          "type": "address"
        }
      ],
      "name": "transferOwnership",
      "outputs": [],
      "stateMutability": "nonpayable",
      "type": "function"
    },
    {
      "inputs": [],
      "name": "withdraw",
      "outputs": [],
      "stateMutability": "nonpayable",
      "type": "function"
    }
  ],
  "bytecode": "0x60806040523480156200001157600080fd5b5060405162001c2838038062001c28833981810160405281019062000037919062000178565b620000576200004b6200006c60201b60201c565b6200007460201b60201c565b600180819055508060028190555050620001aa565b600033905090565b60008060009054906101000a900473ffffffffffffffffffffffffffffffffffffffff169050816000806101000a81548173ffffffffffffffffffffffffffffffffffffffff021916908373ffffffffffffffffffffffffffffffffffffffff1602179055508173ffffffffffffffffffffffffffffffffffffffff168173ffffffffffffffffffffffffffffffffffffffff167f8be0079c531659141344cd1fd0a4f28419497f9722a3daafe3b4186f6b6457e060405160405180910390a35050565b600080fd5b6000819050919050565b62000152816200013d565b81146200015e57600080fd5b50565b600081519050620001728162000147565b92915050565b60006020828403121562000191576200019062000138565b5b6000620001a18482850162000161565b91505092915050565b611a6e80620001ba6000396000f3fe6080604052600436106100f35760003560e01c8063913e0a481161008a578063e2c03ace11610059578063e2c03ace146102fa578063e7fb74c714610325578063f2fde38b14610341578063fa00afc71461036a576100f3565b8063913e0a4814610224578063bfb231d21461024f578063c4b1514114610292578063ca7dd375146102bd576100f3565b8063715018a6116100c6578063715018a61461018e5780637ce3489b146101a55780637fd6f15c146101ce5780638da5cb5b146101f9576100f3565b80633ccfd60b146100f8578063512dd0201461010f57806364d3c0381461013a5780636f9fb98a14610163575b600080fd5b34801561010457600080fd5b5061010d610393565b005b34801561011b57600080fd5b5061012461043f565b6040516101319190611040565b60405180910390f35b34801561014657600080fd5b50610161600480360381019061015c91906110c4565b610450565b005b34801561016f57600080fd5b506101786105fe565b6040516101859190611040565b60405180910390f35b34801561019a57600080fd5b506101a361060e565b005b3480156101b157600080fd5b506101cc60048036038101906101c79190611104565b610622565b005b3480156101da57600080fd5b506101e3610634565b6040516101f09190611040565b60405180910390f35b34801561020557600080fd5b5061020e61063a565b60405161021b9190611172565b60405180910390f35b34801561023057600080fd5b50610239610663565b6040516102469190611040565b60405180910390f35b34801561025b57600080fd5b5061027660048036038101906102719190611104565b61066f565b604051610289979695949392919061121c565b60405180910390f35b34801561029e57600080fd5b506102a761070b565b6040516102b49190611040565b60405180910390f35b3480156102c957600080fd5b506102e460048036038101906102df9190611104565b61071c565b6040516102f19190611040565b60405180910390f35b34801561030657600080fd5b5061030f610761565b60405161031c9190611040565b60405180910390f35b61033f600480360381019061033a9190611104565b61076d565b005b34801561034d57600080fd5b50610368600480360381019061036391906112b7565b610b42565b005b34801561037657600080fd5b50610391600480360381019061038c9190611322565b610bc5565b005b61039b610eb9565b6002600154036103e0576040517f08c379a00000000000000000000000000000000000000000000000000000000081526004016103d7906113d2565b60405180910390fd5b60026001819055506103f061063a565b73ffffffffffffffffffffffffffffffffffffffff166108fc479081150290604051600060405180830381858888f19350505050158015610435573d6000803e3d6000fd5b5060018081905550565b600061044b6003610f37565b905090565b60006005600084815260200190815260200160002090503373ffffffffffffffffffffffffffffffffffffffff168160040160009054906101000a900473ffffffffffffffffffffffffffffffffffffffff1673ffffffffffffffffffffffffffffffffffffffff16146104f9576040517f08c379a00000000000000000000000000000000000000000000000000000000081526004016104f09061143e565b60405180910390fd5b8115158160040160149054906101000a900460ff16151503610550576040517f08c379a0000000000000000000000000000000000000000000000000000000008152600401610547906114aa565b60405180910390fd5b8060040160159054906101000a900460ff16156105a2576040517f08c379a000000000000000000000000000000000000000000000000000000000815260040161059990611516565b60405180910390fd5b818160040160146101000a81548160ff0219169083151502179055507f028d01a917d5799c0927255e4c1e8db7a37f49a36605d0ee087b5545d9408d838333846040516105f193929190611536565b60405180910390a1505050565b6000610608610eb9565b47905090565b610616610eb9565b6106206000610f45565b565b61062a610eb9565b8060028190555050565b60025481565b60008060009054906101000a900473ffffffffffffffffffffffffffffffffffffffff16905090565b60048060000154905081565b60056020528060005260406000206000915090508060000154908060010160009054906101000a900473ffffffffffffffffffffffffffffffffffffffff16908060020154908060030154908060040160009054906101000a900473ffffffffffffffffffffffffffffffffffffffff16908060040160149054906101000a900460ff16908060040160159054906101000a900460ff16905087565b60006107176004610f37565b905090565b60006064600254606461072f919061159c565b600560008581526020019081526020016000206003015461075091906115d0565b61075a9190611659565b9050919050565b60038060000154905081565b6002600154036107b2576040517f08c379a00000000000000000000000000000000000000000000000000000000081526004016107a9906113d2565b60405180910390fd5b600260018190555060006107c58261071c565b905060006005600084815260200190815260200160002090506000831180156107f757506107f36003610f37565b8311155b610836576040517f08c379a000000000000000000000000000000000000000000000000000000000815260040161082d906116d6565b60405180910390fd5b81341015610879576040517f08c379a000000000000000000000000000000000000000000000000000000000815260040161087090611768565b60405180910390fd5b8060040160159054906101000a900460ff16156108cb576040517f08c379a00000000000000000000000000000000000000000000000000000000081526004016108c2906117d4565b60405180910390fd5b8060040160149054906101000a900460ff1661091c576040517f08c379a000000000000000000000000000000000000000000000000000000000815260040161091390611840565b60405180910390fd5b8060040160009054906101000a900473ffffffffffffffffffffffffffffffffffffffff1673ffffffffffffffffffffffffffffffffffffffff166108fc82600301549081150290604051600060405180830381858888f1935050505015801561098a573d6000803e3d6000fd5b5060018160040160156101000a81548160ff02191690831515021790555060008160040160146101000a81548160ff0219169083151502179055508060010160009054906101000a900473ffffffffffffffffffffffffffffffffffffffff1673ffffffffffffffffffffffffffffffffffffffff166323b872dd303384600201546040518463ffffffff1660e01b8152600401610a2a93929190611860565b600060405180830381600087803b158015610a4457600080fd5b505af1158015610a58573d6000803e3d6000fd5b50505050610a666004611009565b3373ffffffffffffffffffffffffffffffffffffffff168160040160009054906101000a900473ffffffffffffffffffffffffffffffffffffffff1673ffffffffffffffffffffffffffffffffffffffff168260010160009054906101000a900473ffffffffffffffffffffffffffffffffffffffff1673ffffffffffffffffffffffffffffffffffffffff167f179738be873fb5cb1076ebdeba2cd8886e3a9cf77d66790f0367dd0f694144848685600201548660030154604051610b2e93929190611897565b60405180910390a450506001808190555050565b610b4a610eb9565b600073ffffffffffffffffffffffffffffffffffffffff168173ffffffffffffffffffffffffffffffffffffffff1603610bb9576040517f08c379a0000000000000000000000000000000000000000000000000000000008152600401610bb090611940565b60405180910390fd5b610bc281610f45565b50565b600260015403610c0a576040517f08c379a0000000000000000000000000000000000000000000000000000000008152600401610c01906113d2565b60405180910390fd5b600260018190555060008111610c55576040517f08c379a0000000000000000000000000000000000000000000000000000000008152600401610c4c906119ac565b60405180910390fd5b610c5f6003611009565b6000610c6b6003610f37565b90508373ffffffffffffffffffffffffffffffffffffffff166323b872dd3330866040518463ffffffff1660e01b8152600401610caa93929190611860565b600060405180830381600087803b158015610cc457600080fd5b505af1158015610cd8573d6000803e3d6000fd5b505050506040518060e001604052808281526020018573ffffffffffffffffffffffffffffffffffffffff1681526020018481526020018381526020013373ffffffffffffffffffffffffffffffffffffffff16815260200160011515815260200160001515815250600560008381526020019081526020016000206000820151816000015560208201518160010160006101000a81548173ffffffffffffffffffffffffffffffffffffffff021916908373ffffffffffffffffffffffffffffffffffffffff160217905550604082015181600201556060820151816003015560808201518160040160006101000a81548173ffffffffffffffffffffffffffffffffffffffff021916908373ffffffffffffffffffffffffffffffffffffffff16021790555060a08201518160040160146101000a81548160ff02191690831515021790555060c08201518160040160156101000a81548160ff0219169083151502179055509050503373ffffffffffffffffffffffffffffffffffffffff168473ffffffffffffffffffffffffffffffffffffffff167f21d36516533c9624fcb65c141d47e8d53b4048777deaaf00a2a43355bb4e92fe838686604051610ea493929190611897565b60405180910390a35060018081905550505050565b610ec161101f565b73ffffffffffffffffffffffffffffffffffffffff16610edf61063a565b73ffffffffffffffffffffffffffffffffffffffff1614610f35576040517f08c379a0000000000000000000000000000000000000000000000000000000008152600401610f2c90611a18565b60405180910390fd5b565b600081600001549050919050565b60008060009054906101000a900473ffffffffffffffffffffffffffffffffffffffff169050816000806101000a81548173ffffffffffffffffffffffffffffffffffffffff021916908373ffffffffffffffffffffffffffffffffffffffff1602179055508173ffffffffffffffffffffffffffffffffffffffff168173ffffffffffffffffffffffffffffffffffffffff167f8be0079c531659141344cd1fd0a4f28419497f9722a3daafe3b4186f6b6457e060405160405180910390a35050565b6001816000016000828254019250508190555050565b600033905090565b6000819050919050565b61103a81611027565b82525050565b60006020820190506110556000830184611031565b92915050565b600080fd5b61106981611027565b811461107457600080fd5b50565b60008135905061108681611060565b92915050565b60008115159050919050565b6110a18161108c565b81146110ac57600080fd5b50565b6000813590506110be81611098565b92915050565b600080604083850312156110db576110da61105b565b5b60006110e985828601611077565b92505060206110fa858286016110af565b9150509250929050565b60006020828403121561111a5761111961105b565b5b600061112884828501611077565b91505092915050565b600073ffffffffffffffffffffffffffffffffffffffff82169050919050565b600061115c82611131565b9050919050565b61116c81611151565b82525050565b60006020820190506111876000830184611163565b92915050565b6000819050919050565b60006111b26111ad6111a884611131565b61118d565b611131565b9050919050565b60006111c482611197565b9050919050565b60006111d6826111b9565b9050919050565b6111e6816111cb565b82525050565b60006111f782611131565b9050919050565b611207816111ec565b82525050565b6112168161108c565b82525050565b600060e082019050611231600083018a611031565b61123e60208301896111dd565b61124b6040830188611031565b6112586060830187611031565b61126560808301866111fe565b61127260a083018561120d565b61127f60c083018461120d565b98975050505050505050565b61129481611151565b811461129f57600080fd5b50565b6000813590506112b18161128b565b92915050565b6000602082840312156112cd576112cc61105b565b5b60006112db848285016112a2565b91505092915050565b60006112ef82611151565b9050919050565b6112ff816112e4565b811461130a57600080fd5b50565b60008135905061131c816112f6565b92915050565b60008060006060848603121561133b5761133a61105b565b5b60006113498682870161130d565b935050602061135a86828701611077565b925050604061136b86828701611077565b9150509250925092565b600082825260208201905092915050565b7f5265656e7472616e637947756172643a207265656e7472616e742063616c6c00600082015250565b60006113bc601f83611375565b91506113c782611386565b602082019050919050565b600060208201905081810360008301526113eb816113af565b9050919050565b7f6f6e6c792073656c6c65722063616e206368616e676520737461747573210000600082015250565b6000611428601e83611375565b9150611433826113f2565b602082019050919050565b600060208201905081810360008301526114578161141b565b9050919050565b7f7374617475732073686f756c64206265206e6577210000000000000000000000600082015250565b6000611494601583611375565b915061149f8261145e565b602082019050919050565b600060208201905081810360008301526114c381611487565b9050919050565b7f6974656d20616c726561647920736f6c64210000000000000000000000000000600082015250565b6000611500601283611375565b915061150b826114ca565b602082019050919050565b6000602082019050818103600083015261152f816114f3565b9050919050565b600060608201905061154b6000830186611031565b6115586020830185611163565b611565604083018461120d565b949350505050565b7f4e487b7100000000000000000000000000000000000000000000000000000000600052601160045260246000fd5b60006115a782611027565b91506115b283611027565b92508282019050808211156115ca576115c961156d565b5b92915050565b60006115db82611027565b91506115e683611027565b9250817fffffffffffffffffffffffffffffffffffffffffffffffffffffffffffffffff048311821515161561161f5761161e61156d565b5b828202905092915050565b7f4e487b7100000000000000000000000000000000000000000000000000000000600052601260045260246000fd5b600061166482611027565b915061166f83611027565b92508261167f5761167e61162a565b5b828204905092915050565b7f6974656d20646f6573206e6f7420657869737400000000000000000000000000600082015250565b60006116c0601383611375565b91506116cb8261168a565b602082019050919050565b600060208201905081810360008301526116ef816116b3565b9050919050565b7f6e6f7420656e6f75676820657468657220746f20636f766572206974656d207060008201527f7269636520616e64206d61726b65742066656500000000000000000000000000602082015250565b6000611752603383611375565b915061175d826116f6565b604082019050919050565b6000602082019050818103600083015261178181611745565b9050919050565b7f6974656d20616c726561647920736f6c64000000000000000000000000000000600082015250565b60006117be601183611375565b91506117c982611788565b602082019050919050565b600060208201905081810360008301526117ed816117b1565b9050919050565b7f6974656d2073686f756c64206265206c69737465640000000000000000000000600082015250565b600061182a601583611375565b9150611835826117f4565b602082019050919050565b600060208201905081810360008301526118598161181d565b9050919050565b60006060820190506118756000830186611163565b6118826020830185611163565b61188f6040830184611031565b949350505050565b60006060820190506118ac6000830186611031565b6118b96020830185611031565b6118c66040830184611031565b949350505050565b7f4f776e61626c653a206e6577206f776e657220697320746865207a65726f206160008201527f6464726573730000000000000000000000000000000000000000000000000000602082015250565b600061192a602683611375565b9150611935826118ce565b604082019050919050565b600060208201905081810360008301526119598161191d565b9050919050565b7f5072696365206d7573742062652067726561746572207468616e207a65726f00600082015250565b6000611996601f83611375565b91506119a182611960565b602082019050919050565b600060208201905081810360008301526119c581611989565b9050919050565b7f4f776e61626c653a2063616c6c6572206973206e6f7420746865206f776e6572600082015250565b6000611a02602083611375565b9150611a0d826119cc565b602082019050919050565b60006020820190508181036000830152611a31816119f5565b905091905056fea2646970667358221220e38ce14b0aec94fa45813433716eeb2643879c6358587cf5e68d9a87f21f783364736f6c63430008100033",
  "linkReferences": {},
  "deployedLinkReferences": {}
}