{
  "_format": "hh-sol-artifact-1",
  "contractName": "NFT",
  "sourceName": "contracts/NFT.sol",
  "abi": [
    {
      "inputs": [],
      "stateMutability": "nonpayable",
      "type": "constructor"
    },
    {
      "anonymous": false,
      "inputs": [
        {
          "indexed": true,
          "internalType": "address",
          "name": "owner",
          "type": "address"
        },
        {
          "indexed": true,
          "internalType": "address",
          "name": "approved",
          "type": "address"
        },
        {
          "indexed": true,
          "internalType": "uint256",
          "name": "tokenId",
          "type": "uint256"
        }
      ],
      "name": "Approval",
      "type": "event"
    },
    {
      "anonymous": false,
      "inputs": [
        {
          "indexed": true,
          "internalType": "address",
          "name": "owner",
          "type": "address"
        },
        {
          "indexed": true,
          "internalType": "address",
          "name": "operator",
          "type": "address"
        },
        {
          "indexed": false,
          "internalType": "bool",
          "name": "approved",
          "type": "bool"
        }
      ],
      "name": "ApprovalForAll",
      "type": "event"
    },
    {
      "anonymous": false,
      "inputs": [
        {
          "indexed": false,
          "internalType": "uint256",
          "name": "_nftId",
          "type": "uint256"
        },
        {
          "indexed": false,
          "internalType": "address",
          "name": "_owner",
          "type": "address"
        },
        {
          "indexed": false,
          "internalType": "string",
          "name": "_nftURI",
          "type": "string"
        }
      ],
      "name": "LogNFTMinted",
      "type": "event"
    },
    {
      "anonymous": false,
      "inputs": [
        {
          "indexed": true,
          "internalType": "address",
          "name": "previousOwner",
          "type": "address"
        },
        {
          "indexed": true,
          "internalType": "address",
          "name": "newOwner",
          "type": "address"
        }
      ],
      "name": "OwnershipTransferred",
      "type": "event"
    },
    {
      "anonymous": false,
      "inputs": [
        {
          "indexed": true,
          "internalType": "address",
          "name": "from",
          "type": "address"
        },
        {
          "indexed": true,
          "internalType": "address",
          "name": "to",
          "type": "address"
        },
        {
          "indexed": true,
          "internalType": "uint256",
          "name": "tokenId",
          "type": "uint256"
        }
      ],
      "name": "Transfer",
      "type": "event"
    },
    {
      "inputs": [
        {
          "internalType": "address",
          "name": "to",
          "type": "address"
        },
        {
          "internalType": "uint256",
          "name": "tokenId",
          "type": "uint256"
        }
      ],
      "name": "approve",
      "outputs": [],
      "stateMutability": "nonpayable",
      "type": "function"
    },
    {
      "inputs": [
        {
          "internalType": "address",
          "name": "owner",
          "type": "address"
        }
      ],
      "name": "balanceOf",
      "outputs": [
        {
          "internalType": "uint256",
          "name": "",
          "type": "uint256"
        }
      ],
      "stateMutability": "view",
      "type": "function"
    },
    {
      "inputs": [
        {
          "internalType": "uint256",
          "name": "tokenId",
          "type": "uint256"
        }
      ],
      "name": "getApproved",
      "outputs": [
        {
          "internalType": "address",
          "name": "",
          "type": "address"
        }
      ],
      "stateMutability": "view",
      "type": "function"
    },
    {
      "inputs": [
        {
          "internalType": "address",
          "name": "owner",
          "type": "address"
        },
        {
          "internalType": "address",
          "name": "operator",
          "type": "address"
        }
      ],
      "name": "isApprovedForAll",
      "outputs": [
        {
          "internalType": "bool",
          "name": "",
          "type": "bool"
        }
      ],
      "stateMutability": "view",
      "type": "function"
    },
    {
      "inputs": [
        {
          "internalType": "string",
          "name": "_tokenURI",
          "type": "string"
        }
      ],
      "name": "mint",
      "outputs": [
        {
          "internalType": "uint256",
          "name": "",
          "type": "uint256"
        }
      ],
      "stateMutability": "nonpayable",
      "type": "function"
    },
    {
      "inputs": [],
      "name": "name",
      "outputs": [
        {
          "internalType": "string",
          "name": "",
          "type": "string"
        }
      ],
      "stateMutability": "view",
      "type": "function"
    },
    {
      "inputs": [],
      "name": "owner",
      "outputs": [
        {
          "internalType": "address",
          "name": "",
          "type": "address"
        }
      ],
      "stateMutability": "view",
      "type": "function"
    },
    {
      "inputs": [
        {
          "internalType": "uint256",
          "name": "tokenId",
          "type": "uint256"
        }
      ],
      "name": "ownerOf",
      "outputs": [
        {
          "internalType": "address",
          "name": "",
          "type": "address"
        }
      ],
      "stateMutability": "view",
      "type": "function"
    },
    {
      "inputs": [],
      "name": "renounceOwnership",
      "outputs": [],
      "stateMutability": "nonpayable",
      "type": "function"
    },
    {
      "inputs": [
        {
          "internalType": "address",
          "name": "from",
          "type": "address"
        },
        {
          "internalType": "address",
          "name": "to",
          "type": "address"
        },
        {
          "internalType": "uint256",
          "name": "tokenId",
          "type": "uint256"
        }
      ],
      "name": "safeTransferFrom",
      "outputs": [],
      "stateMutability": "nonpayable",
      "type": "function"
    },
    {
      "inputs": [
        {
          "internalType": "address",
          "name": "from",
          "type": "address"
        },
        {
          "internalType": "address",
          "name": "to",
          "type": "address"
        },
        {
          "internalType": "uint256",
          "name": "tokenId",
          "type": "uint256"
        },
        {
          "internalType": "bytes",
          "name": "data",
          "type": "bytes"
        }
      ],
      "name": "safeTransferFrom",
      "outputs": [],
      "stateMutability": "nonpayable",
      "type": "function"
    },
    {
      "inputs": [
        {
          "internalType": "address",
          "name": "operator",
          "type": "address"
        },
        {
          "internalType": "bool",
          "name": "approved",
          "type": "bool"
        }
      ],
      "name": "setApprovalForAll",
      "outputs": [],
      "stateMutability": "nonpayable",
      "type": "function"
    },
    {
      "inputs": [
        {
          "internalType": "bytes4",
          "name": "interfaceId",
          "type": "bytes4"
        }
      ],
      "name": "supportsInterface",
      "outputs": [
        {
          "internalType": "bool",
          "name": "",
          "type": "bool"
        }
      ],
      "stateMutability": "view",
      "type": "function"
    },
    {
      "inputs": [],
      "name": "symbol",
      "outputs": [
        {
          "internalType": "string",
          "name": "",
          "type": "string"
        }
      ],
      "stateMutability": "view",
      "type": "function"
    },
    {
      "inputs": [],
      "name": "tokenCount",
      "outputs": [
        {
          "internalType": "uint256",
          "name": "_value",
          "type": "uint256"
        }
      ],
      "stateMutability": "view",
      "type": "function"
    },
    {
      "inputs": [
        {
          "internalType": "uint256",
          "name": "tokenId",
          "type": "uint256"
        }
      ],
      "name": "tokenURI",
      "outputs": [
        {
          "internalType": "string",
          "name": "",
          "type": "string"
        }
      ],
      "stateMutability": "view",
      "type": "function"
    },
    {
      "inputs": [
        {
          "internalType": "address",
          "name": "from",
          "type": "address"
        },
        {
          "internalType": "address",
          "name": "to",
          "type": "address"
        },
        {
          "internalType": "uint256",
          "name": "tokenId",
          "type": "uint256"
        }
      ],
      "name": "transferFrom",
      "outputs": [],
      "stateMutability": "nonpayable",
      "type": "function"
    },
    {
      "inputs": [
        {
          "internalType": "address",
          "name": "newOwner",
          "type": "address"
        }
      ],
      "name": "transferOwnership",
      "outputs": [],
      "stateMutability": "nonpayable",
      "type": "function"
    }
  ],
  "bytecode": "0x60806040523480156200001157600080fd5b506040518060400160405280601381526020017f4e4654204c45444120436f6c6c656374696f6e000000000000000000000000008152506040518060400160405280600481526020017f4c4544410000000000000000000000000000000000000000000000000000000081525081600090816200008f919062000412565b508060019081620000a1919062000412565b505050620000c4620000b8620000ca60201b60201c565b620000d260201b60201c565b620004f9565b600033905090565b6000600760009054906101000a900473ffffffffffffffffffffffffffffffffffffffff16905081600760006101000a81548173ffffffffffffffffffffffffffffffffffffffff021916908373ffffffffffffffffffffffffffffffffffffffff1602179055508173ffffffffffffffffffffffffffffffffffffffff168173ffffffffffffffffffffffffffffffffffffffff167f8be0079c531659141344cd1fd0a4f28419497f9722a3daafe3b4186f6b6457e060405160405180910390a35050565b600081519050919050565b7f4e487b7100000000000000000000000000000000000000000000000000000000600052604160045260246000fd5b7f4e487b7100000000000000000000000000000000000000000000000000000000600052602260045260246000fd5b600060028204905060018216806200021a57607f821691505b60208210810362000230576200022f620001d2565b5b50919050565b60008190508160005260206000209050919050565b60006020601f8301049050919050565b600082821b905092915050565b6000600883026200029a7fffffffffffffffffffffffffffffffffffffffffffffffffffffffffffffffff826200025b565b620002a686836200025b565b95508019841693508086168417925050509392505050565b6000819050919050565b6000819050919050565b6000620002f3620002ed620002e784620002be565b620002c8565b620002be565b9050919050565b6000819050919050565b6200030f83620002d2565b620003276200031e82620002fa565b84845462000268565b825550505050565b600090565b6200033e6200032f565b6200034b81848462000304565b505050565b5b8181101562000373576200036760008262000334565b60018101905062000351565b5050565b601f821115620003c2576200038c8162000236565b62000397846200024b565b81016020851015620003a7578190505b620003bf620003b6856200024b565b83018262000350565b50505b505050565b600082821c905092915050565b6000620003e760001984600802620003c7565b1980831691505092915050565b6000620004028383620003d4565b9150826002028217905092915050565b6200041d8262000198565b67ffffffffffffffff811115620004395762000438620001a3565b5b62000445825462000201565b6200045282828562000377565b600060209050601f8311600181146200048a576000841562000475578287015190505b620004818582620003f4565b865550620004f1565b601f1984166200049a8662000236565b60005b82811015620004c4578489015182556001820191506020850194506020810190506200049d565b86831015620004e45784890151620004e0601f891682620003d4565b8355505b6001600288020188555050505b505050505050565b612ec780620005096000396000f3fe608060405234801561001057600080fd5b50600436106101165760003560e01c80638da5cb5b116100a2578063b88d4fde11610071578063b88d4fde146102cd578063c87b56dd146102e9578063d85d3d2714610319578063e985e9c514610349578063f2fde38b1461037957610116565b80638da5cb5b1461025757806395d89b41146102755780639f181b5e14610293578063a22cb465146102b157610116565b806323b872dd116100e957806323b872dd146101b557806342842e0e146101d15780636352211e146101ed57806370a082311461021d578063715018a61461024d57610116565b806301ffc9a71461011b57806306fdde031461014b578063081812fc14610169578063095ea7b314610199575b600080fd5b61013560048036038101906101309190611b1d565b610395565b6040516101429190611b65565b60405180910390f35b610153610477565b6040516101609190611c10565b60405180910390f35b610183600480360381019061017e9190611c68565b610509565b6040516101909190611cd6565b60405180910390f35b6101b360048036038101906101ae9190611d1d565b61054f565b005b6101cf60048036038101906101ca9190611d5d565b610666565b005b6101eb60048036038101906101e69190611d5d565b6106c6565b005b61020760048036038101906102029190611c68565b6106e6565b6040516102149190611cd6565b60405180910390f35b61023760048036038101906102329190611db0565b610797565b6040516102449190611dec565b60405180910390f35b61025561084e565b005b61025f610862565b60405161026c9190611cd6565b60405180910390f35b61027d61088c565b60405161028a9190611c10565b60405180910390f35b61029b61091e565b6040516102a89190611dec565b60405180910390f35b6102cb60048036038101906102c69190611e33565b61092a565b005b6102e760048036038101906102e29190611fa8565b610940565b005b61030360048036038101906102fe9190611c68565b6109a2565b6040516103109190611c10565b60405180910390f35b610333600480360381019061032e91906120cc565b610ab4565b6040516103409190611dec565b60405180910390f35b610363600480360381019061035e9190612115565b610b3b565b6040516103709190611b65565b60405180910390f35b610393600480360381019061038e9190611db0565b610bcf565b005b60007f80ac58cd000000000000000000000000000000000000000000000000000000007bffffffffffffffffffffffffffffffffffffffffffffffffffffffff1916827bffffffffffffffffffffffffffffffffffffffffffffffffffffffff1916148061046057507f5b5e139f000000000000000000000000000000000000000000000000000000007bffffffffffffffffffffffffffffffffffffffffffffffffffffffff1916827bffffffffffffffffffffffffffffffffffffffffffffffffffffffff1916145b80610470575061046f82610c52565b5b9050919050565b60606000805461048690612184565b80601f01602080910402602001604051908101604052809291908181526020018280546104b290612184565b80156104ff5780601f106104d4576101008083540402835291602001916104ff565b820191906000526020600020905b8154815290600101906020018083116104e257829003601f168201915b5050505050905090565b600061051482610cbc565b6004600083815260200190815260200160002060009054906101000a900473ffffffffffffffffffffffffffffffffffffffff169050919050565b600061055a826106e6565b90508073ffffffffffffffffffffffffffffffffffffffff168373ffffffffffffffffffffffffffffffffffffffff16036105ca576040517f08c379a00000000000000000000000000000000000000000000000000000000081526004016105c190612227565b60405180910390fd5b8073ffffffffffffffffffffffffffffffffffffffff166105e9610d07565b73ffffffffffffffffffffffffffffffffffffffff161480610618575061061781610612610d07565b610b3b565b5b610657576040517f08c379a000000000000000000000000000000000000000000000000000000000815260040161064e906122b9565b60405180910390fd5b6106618383610d0f565b505050565b610677610671610d07565b82610dc8565b6106b6576040517f08c379a00000000000000000000000000000000000000000000000000000000081526004016106ad9061234b565b60405180910390fd5b6106c1838383610e5d565b505050565b6106e183838360405180602001604052806000815250610940565b505050565b6000806002600084815260200190815260200160002060009054906101000a900473ffffffffffffffffffffffffffffffffffffffff169050600073ffffffffffffffffffffffffffffffffffffffff168173ffffffffffffffffffffffffffffffffffffffff160361078e576040517f08c379a0000000000000000000000000000000000000000000000000000000008152600401610785906123b7565b60405180910390fd5b80915050919050565b60008073ffffffffffffffffffffffffffffffffffffffff168273ffffffffffffffffffffffffffffffffffffffff1603610807576040517f08c379a00000000000000000000000000000000000000000000000000000000081526004016107fe90612449565b60405180910390fd5b600360008373ffffffffffffffffffffffffffffffffffffffff1673ffffffffffffffffffffffffffffffffffffffff168152602001908152602001600020549050919050565b6108566110c3565b6108606000611141565b565b6000600760009054906101000a900473ffffffffffffffffffffffffffffffffffffffff16905090565b60606001805461089b90612184565b80601f01602080910402602001604051908101604052809291908181526020018280546108c790612184565b80156109145780601f106108e957610100808354040283529160200191610914565b820191906000526020600020905b8154815290600101906020018083116108f757829003601f168201915b5050505050905090565b60088060000154905081565b61093c610935610d07565b8383611207565b5050565b61095161094b610d07565b83610dc8565b610990576040517f08c379a00000000000000000000000000000000000000000000000000000000081526004016109879061234b565b60405180910390fd5b61099c84848484611373565b50505050565b60606109ad82610cbc565b60006006600084815260200190815260200160002080546109cd90612184565b80601f01602080910402602001604051908101604052809291908181526020018280546109f990612184565b8015610a465780601f10610a1b57610100808354040283529160200191610a46565b820191906000526020600020905b815481529060010190602001808311610a2957829003601f168201915b505050505090506000610a576113cf565b90506000815103610a6c578192505050610aaf565b600082511115610aa1578082604051602001610a899291906124a5565b60405160208183030381529060405292505050610aaf565b610aaa846113e6565b925050505b919050565b6000610ac0600861144e565b610ad333610ace6008611464565b611472565b610ae6610ae06008611464565b83611490565b7feea8d2592d938425e8da4e3a45efbb4cd6c731ea44fbbdd56b783175640c5e85610b116008611464565b3384604051610b22939291906124c9565b60405180910390a1610b346008611464565b9050919050565b6000600560008473ffffffffffffffffffffffffffffffffffffffff1673ffffffffffffffffffffffffffffffffffffffff16815260200190815260200160002060008373ffffffffffffffffffffffffffffffffffffffff1673ffffffffffffffffffffffffffffffffffffffff16815260200190815260200160002060009054906101000a900460ff16905092915050565b610bd76110c3565b600073ffffffffffffffffffffffffffffffffffffffff168173ffffffffffffffffffffffffffffffffffffffff1603610c46576040517f08c379a0000000000000000000000000000000000000000000000000000000008152600401610c3d90612579565b60405180910390fd5b610c4f81611141565b50565b60007f01ffc9a7000000000000000000000000000000000000000000000000000000007bffffffffffffffffffffffffffffffffffffffffffffffffffffffff1916827bffffffffffffffffffffffffffffffffffffffffffffffffffffffff1916149050919050565b610cc5816114fd565b610d04576040517f08c379a0000000000000000000000000000000000000000000000000000000008152600401610cfb906123b7565b60405180910390fd5b50565b600033905090565b816004600083815260200190815260200160002060006101000a81548173ffffffffffffffffffffffffffffffffffffffff021916908373ffffffffffffffffffffffffffffffffffffffff160217905550808273ffffffffffffffffffffffffffffffffffffffff16610d82836106e6565b73ffffffffffffffffffffffffffffffffffffffff167f8c5be1e5ebec7d5bd14f71427d1e84f3dd0314c0f7b2291e5b200ac8c7c3b92560405160405180910390a45050565b600080610dd4836106e6565b90508073ffffffffffffffffffffffffffffffffffffffff168473ffffffffffffffffffffffffffffffffffffffff161480610e165750610e158185610b3b565b5b80610e5457508373ffffffffffffffffffffffffffffffffffffffff16610e3c84610509565b73ffffffffffffffffffffffffffffffffffffffff16145b91505092915050565b8273ffffffffffffffffffffffffffffffffffffffff16610e7d826106e6565b73ffffffffffffffffffffffffffffffffffffffff1614610ed3576040517f08c379a0000000000000000000000000000000000000000000000000000000008152600401610eca9061260b565b60405180910390fd5b600073ffffffffffffffffffffffffffffffffffffffff168273ffffffffffffffffffffffffffffffffffffffff1603610f42576040517f08c379a0000000000000000000000000000000000000000000000000000000008152600401610f399061269d565b60405180910390fd5b610f4d838383611569565b610f58600082610d0f565b6001600360008573ffffffffffffffffffffffffffffffffffffffff1673ffffffffffffffffffffffffffffffffffffffff1681526020019081526020016000206000828254610fa891906126ec565b925050819055506001600360008473ffffffffffffffffffffffffffffffffffffffff1673ffffffffffffffffffffffffffffffffffffffff1681526020019081526020016000206000828254610fff9190612720565b92505081905550816002600083815260200190815260200160002060006101000a81548173ffffffffffffffffffffffffffffffffffffffff021916908373ffffffffffffffffffffffffffffffffffffffff160217905550808273ffffffffffffffffffffffffffffffffffffffff168473ffffffffffffffffffffffffffffffffffffffff167fddf252ad1be2c89b69c2b068fc378daa952ba7f163c4a11628f55a4df523b3ef60405160405180910390a46110be83838361156e565b505050565b6110cb610d07565b73ffffffffffffffffffffffffffffffffffffffff166110e9610862565b73ffffffffffffffffffffffffffffffffffffffff161461113f576040517f08c379a0000000000000000000000000000000000000000000000000000000008152600401611136906127a0565b60405180910390fd5b565b6000600760009054906101000a900473ffffffffffffffffffffffffffffffffffffffff16905081600760006101000a81548173ffffffffffffffffffffffffffffffffffffffff021916908373ffffffffffffffffffffffffffffffffffffffff1602179055508173ffffffffffffffffffffffffffffffffffffffff168173ffffffffffffffffffffffffffffffffffffffff167f8be0079c531659141344cd1fd0a4f28419497f9722a3daafe3b4186f6b6457e060405160405180910390a35050565b8173ffffffffffffffffffffffffffffffffffffffff168373ffffffffffffffffffffffffffffffffffffffff1603611275576040517f08c379a000000000000000000000000000000000000000000000000000000000815260040161126c9061280c565b60405180910390fd5b80600560008573ffffffffffffffffffffffffffffffffffffffff1673ffffffffffffffffffffffffffffffffffffffff16815260200190815260200160002060008473ffffffffffffffffffffffffffffffffffffffff1673ffffffffffffffffffffffffffffffffffffffff16815260200190815260200160002060006101000a81548160ff0219169083151502179055508173ffffffffffffffffffffffffffffffffffffffff168373ffffffffffffffffffffffffffffffffffffffff167f17307eab39ab6107e8899845ad3d59bd9653f200f220920489ca2b5937696c31836040516113669190611b65565b60405180910390a3505050565b61137e848484610e5d565b61138a84848484611573565b6113c9576040517f08c379a00000000000000000000000000000000000000000000000000000000081526004016113c09061289e565b60405180910390fd5b50505050565b606060405180602001604052806000815250905090565b60606113f182610cbc565b60006113fb6113cf565b9050600081511161141b5760405180602001604052806000815250611446565b80611425846116fa565b6040516020016114369291906124a5565b6040516020818303038152906040525b915050919050565b6001816000016000828254019250508190555050565b600081600001549050919050565b61148c82826040518060200160405280600081525061185a565b5050565b611499826114fd565b6114d8576040517f08c379a00000000000000000000000000000000000000000000000000000000081526004016114cf90612930565b60405180910390fd5b806006600084815260200190815260200160002090816114f89190612afc565b505050565b60008073ffffffffffffffffffffffffffffffffffffffff166002600084815260200190815260200160002060009054906101000a900473ffffffffffffffffffffffffffffffffffffffff1673ffffffffffffffffffffffffffffffffffffffff1614159050919050565b505050565b505050565b60006115948473ffffffffffffffffffffffffffffffffffffffff166118b5565b156116ed578373ffffffffffffffffffffffffffffffffffffffff1663150b7a026115bd610d07565b8786866040518563ffffffff1660e01b81526004016115df9493929190612c23565b6020604051808303816000875af192505050801561161b57506040513d601f19601f820116820180604052508101906116189190612c84565b60015b61169d573d806000811461164b576040519150601f19603f3d011682016040523d82523d6000602084013e611650565b606091505b506000815103611695576040517f08c379a000000000000000000000000000000000000000000000000000000000815260040161168c9061289e565b60405180910390fd5b805181602001fd5b63150b7a0260e01b7bffffffffffffffffffffffffffffffffffffffffffffffffffffffff1916817bffffffffffffffffffffffffffffffffffffffffffffffffffffffff1916149150506116f2565b600190505b949350505050565b606060008203611741576040518060400160405280600181526020017f30000000000000000000000000000000000000000000000000000000000000008152509050611855565b600082905060005b6000821461177357808061175c90612cb1565b915050600a8261176c9190612d28565b9150611749565b60008167ffffffffffffffff81111561178f5761178e611e7d565b5b6040519080825280601f01601f1916602001820160405280156117c15781602001600182028036833780820191505090505b5090505b6000851461184e576001826117da91906126ec565b9150600a856117e99190612d59565b60306117f59190612720565b60f81b81838151811061180b5761180a612d8a565b5b60200101907effffffffffffffffffffffffffffffffffffffffffffffffffffffffffffff1916908160001a905350600a856118479190612d28565b94506117c5565b8093505050505b919050565b61186483836118d8565b6118716000848484611573565b6118b0576040517f08c379a00000000000000000000000000000000000000000000000000000000081526004016118a79061289e565b60405180910390fd5b505050565b6000808273ffffffffffffffffffffffffffffffffffffffff163b119050919050565b600073ffffffffffffffffffffffffffffffffffffffff168273ffffffffffffffffffffffffffffffffffffffff1603611947576040517f08c379a000000000000000000000000000000000000000000000000000000000815260040161193e90612e05565b60405180910390fd5b611950816114fd565b15611990576040517f08c379a000000000000000000000000000000000000000000000000000000000815260040161198790612e71565b60405180910390fd5b61199c60008383611569565b6001600360008473ffffffffffffffffffffffffffffffffffffffff1673ffffffffffffffffffffffffffffffffffffffff16815260200190815260200160002060008282546119ec9190612720565b92505081905550816002600083815260200190815260200160002060006101000a81548173ffffffffffffffffffffffffffffffffffffffff021916908373ffffffffffffffffffffffffffffffffffffffff160217905550808273ffffffffffffffffffffffffffffffffffffffff16600073ffffffffffffffffffffffffffffffffffffffff167fddf252ad1be2c89b69c2b068fc378daa952ba7f163c4a11628f55a4df523b3ef60405160405180910390a4611aad6000838361156e565b5050565b6000604051905090565b600080fd5b600080fd5b60007fffffffff0000000000000000000000000000000000000000000000000000000082169050919050565b611afa81611ac5565b8114611b0557600080fd5b50565b600081359050611b1781611af1565b92915050565b600060208284031215611b3357611b32611abb565b5b6000611b4184828501611b08565b91505092915050565b60008115159050919050565b611b5f81611b4a565b82525050565b6000602082019050611b7a6000830184611b56565b92915050565b600081519050919050565b600082825260208201905092915050565b60005b83811015611bba578082015181840152602081019050611b9f565b60008484015250505050565b6000601f19601f8301169050919050565b6000611be282611b80565b611bec8185611b8b565b9350611bfc818560208601611b9c565b611c0581611bc6565b840191505092915050565b60006020820190508181036000830152611c2a8184611bd7565b905092915050565b6000819050919050565b611c4581611c32565b8114611c5057600080fd5b50565b600081359050611c6281611c3c565b92915050565b600060208284031215611c7e57611c7d611abb565b5b6000611c8c84828501611c53565b91505092915050565b600073ffffffffffffffffffffffffffffffffffffffff82169050919050565b6000611cc082611c95565b9050919050565b611cd081611cb5565b82525050565b6000602082019050611ceb6000830184611cc7565b92915050565b611cfa81611cb5565b8114611d0557600080fd5b50565b600081359050611d1781611cf1565b92915050565b60008060408385031215611d3457611d33611abb565b5b6000611d4285828601611d08565b9250506020611d5385828601611c53565b9150509250929050565b600080600060608486031215611d7657611d75611abb565b5b6000611d8486828701611d08565b9350506020611d9586828701611d08565b9250506040611da686828701611c53565b9150509250925092565b600060208284031215611dc657611dc5611abb565b5b6000611dd484828501611d08565b91505092915050565b611de681611c32565b82525050565b6000602082019050611e016000830184611ddd565b92915050565b611e1081611b4a565b8114611e1b57600080fd5b50565b600081359050611e2d81611e07565b92915050565b60008060408385031215611e4a57611e49611abb565b5b6000611e5885828601611d08565b9250506020611e6985828601611e1e565b9150509250929050565b600080fd5b600080fd5b7f4e487b7100000000000000000000000000000000000000000000000000000000600052604160045260246000fd5b611eb582611bc6565b810181811067ffffffffffffffff82111715611ed457611ed3611e7d565b5b80604052505050565b6000611ee7611ab1565b9050611ef38282611eac565b919050565b600067ffffffffffffffff821115611f1357611f12611e7d565b5b611f1c82611bc6565b9050602081019050919050565b82818337600083830152505050565b6000611f4b611f4684611ef8565b611edd565b905082815260208101848484011115611f6757611f66611e78565b5b611f72848285611f29565b509392505050565b600082601f830112611f8f57611f8e611e73565b5b8135611f9f848260208601611f38565b91505092915050565b60008060008060808587031215611fc257611fc1611abb565b5b6000611fd087828801611d08565b9450506020611fe187828801611d08565b9350506040611ff287828801611c53565b925050606085013567ffffffffffffffff81111561201357612012611ac0565b5b61201f87828801611f7a565b91505092959194509250565b600067ffffffffffffffff82111561204657612045611e7d565b5b61204f82611bc6565b9050602081019050919050565b600061206f61206a8461202b565b611edd565b90508281526020810184848401111561208b5761208a611e78565b5b612096848285611f29565b509392505050565b600082601f8301126120b3576120b2611e73565b5b81356120c384826020860161205c565b91505092915050565b6000602082840312156120e2576120e1611abb565b5b600082013567ffffffffffffffff811115612100576120ff611ac0565b5b61210c8482850161209e565b91505092915050565b6000806040838503121561212c5761212b611abb565b5b600061213a85828601611d08565b925050602061214b85828601611d08565b9150509250929050565b7f4e487b7100000000000000000000000000000000000000000000000000000000600052602260045260246000fd5b6000600282049050600182168061219c57607f821691505b6020821081036121af576121ae612155565b5b50919050565b7f4552433732313a20617070726f76616c20746f2063757272656e74206f776e6560008201527f7200000000000000000000000000000000000000000000000000000000000000602082015250565b6000612211602183611b8b565b915061221c826121b5565b604082019050919050565b6000602082019050818103600083015261224081612204565b9050919050565b7f4552433732313a20617070726f76652063616c6c6572206973206e6f7420746f60008201527f6b656e206f776e6572206e6f7220617070726f76656420666f7220616c6c0000602082015250565b60006122a3603e83611b8b565b91506122ae82612247565b604082019050919050565b600060208201905081810360008301526122d281612296565b9050919050565b7f4552433732313a2063616c6c6572206973206e6f7420746f6b656e206f776e6560008201527f72206e6f7220617070726f766564000000000000000000000000000000000000602082015250565b6000612335602e83611b8b565b9150612340826122d9565b604082019050919050565b6000602082019050818103600083015261236481612328565b9050919050565b7f4552433732313a20696e76616c696420746f6b656e2049440000000000000000600082015250565b60006123a1601883611b8b565b91506123ac8261236b565b602082019050919050565b600060208201905081810360008301526123d081612394565b9050919050565b7f4552433732313a2061646472657373207a65726f206973206e6f74206120766160008201527f6c6964206f776e65720000000000000000000000000000000000000000000000602082015250565b6000612433602983611b8b565b915061243e826123d7565b604082019050919050565b6000602082019050818103600083015261246281612426565b9050919050565b600081905092915050565b600061247f82611b80565b6124898185612469565b9350612499818560208601611b9c565b80840191505092915050565b60006124b18285612474565b91506124bd8284612474565b91508190509392505050565b60006060820190506124de6000830186611ddd565b6124eb6020830185611cc7565b81810360408301526124fd8184611bd7565b9050949350505050565b7f4f776e61626c653a206e6577206f776e657220697320746865207a65726f206160008201527f6464726573730000000000000000000000000000000000000000000000000000602082015250565b6000612563602683611b8b565b915061256e82612507565b604082019050919050565b6000602082019050818103600083015261259281612556565b9050919050565b7f4552433732313a207472616e736665722066726f6d20696e636f72726563742060008201527f6f776e6572000000000000000000000000000000000000000000000000000000602082015250565b60006125f5602583611b8b565b915061260082612599565b604082019050919050565b60006020820190508181036000830152612624816125e8565b9050919050565b7f4552433732313a207472616e7366657220746f20746865207a65726f2061646460008201527f7265737300000000000000000000000000000000000000000000000000000000602082015250565b6000612687602483611b8b565b91506126928261262b565b604082019050919050565b600060208201905081810360008301526126b68161267a565b9050919050565b7f4e487b7100000000000000000000000000000000000000000000000000000000600052601160045260246000fd5b60006126f782611c32565b915061270283611c32565b925082820390508181111561271a576127196126bd565b5b92915050565b600061272b82611c32565b915061273683611c32565b925082820190508082111561274e5761274d6126bd565b5b92915050565b7f4f776e61626c653a2063616c6c6572206973206e6f7420746865206f776e6572600082015250565b600061278a602083611b8b565b915061279582612754565b602082019050919050565b600060208201905081810360008301526127b98161277d565b9050919050565b7f4552433732313a20617070726f766520746f2063616c6c657200000000000000600082015250565b60006127f6601983611b8b565b9150612801826127c0565b602082019050919050565b60006020820190508181036000830152612825816127e9565b9050919050565b7f4552433732313a207472616e7366657220746f206e6f6e20455243373231526560008201527f63656976657220696d706c656d656e7465720000000000000000000000000000602082015250565b6000612888603283611b8b565b91506128938261282c565b604082019050919050565b600060208201905081810360008301526128b78161287b565b9050919050565b7f45524337323155524953746f726167653a2055524920736574206f66206e6f6e60008201527f6578697374656e7420746f6b656e000000000000000000000000000000000000602082015250565b600061291a602e83611b8b565b9150612925826128be565b604082019050919050565b600060208201905081810360008301526129498161290d565b9050919050565b60008190508160005260206000209050919050565b60006020601f8301049050919050565b600082821b905092915050565b6000600883026129b27fffffffffffffffffffffffffffffffffffffffffffffffffffffffffffffffff82612975565b6129bc8683612975565b95508019841693508086168417925050509392505050565b6000819050919050565b60006129f96129f46129ef84611c32565b6129d4565b611c32565b9050919050565b6000819050919050565b612a13836129de565b612a27612a1f82612a00565b848454612982565b825550505050565b600090565b612a3c612a2f565b612a47818484612a0a565b505050565b5b81811015612a6b57612a60600082612a34565b600181019050612a4d565b5050565b601f821115612ab057612a8181612950565b612a8a84612965565b81016020851015612a99578190505b612aad612aa585612965565b830182612a4c565b50505b505050565b600082821c905092915050565b6000612ad360001984600802612ab5565b1980831691505092915050565b6000612aec8383612ac2565b9150826002028217905092915050565b612b0582611b80565b67ffffffffffffffff811115612b1e57612b1d611e7d565b5b612b288254612184565b612b33828285612a6f565b600060209050601f831160018114612b665760008415612b54578287015190505b612b5e8582612ae0565b865550612bc6565b601f198416612b7486612950565b60005b82811015612b9c57848901518255600182019150602085019450602081019050612b77565b86831015612bb95784890151612bb5601f891682612ac2565b8355505b6001600288020188555050505b505050505050565b600081519050919050565b600082825260208201905092915050565b6000612bf582612bce565b612bff8185612bd9565b9350612c0f818560208601611b9c565b612c1881611bc6565b840191505092915050565b6000608082019050612c386000830187611cc7565b612c456020830186611cc7565b612c526040830185611ddd565b8181036060830152612c648184612bea565b905095945050505050565b600081519050612c7e81611af1565b92915050565b600060208284031215612c9a57612c99611abb565b5b6000612ca884828501612c6f565b91505092915050565b6000612cbc82611c32565b91507fffffffffffffffffffffffffffffffffffffffffffffffffffffffffffffffff8203612cee57612ced6126bd565b5b600182019050919050565b7f4e487b7100000000000000000000000000000000000000000000000000000000600052601260045260246000fd5b6000612d3382611c32565b9150612d3e83611c32565b925082612d4e57612d4d612cf9565b5b828204905092915050565b6000612d6482611c32565b9150612d6f83611c32565b925082612d7f57612d7e612cf9565b5b828206905092915050565b7f4e487b7100000000000000000000000000000000000000000000000000000000600052603260045260246000fd5b7f4552433732313a206d696e7420746f20746865207a65726f2061646472657373600082015250565b6000612def602083611b8b565b9150612dfa82612db9565b602082019050919050565b60006020820190508181036000830152612e1e81612de2565b9050919050565b7f4552433732313a20746f6b656e20616c7265616479206d696e74656400000000600082015250565b6000612e5b601c83611b8b565b9150612e6682612e25565b602082019050919050565b60006020820190508181036000830152612e8a81612e4e565b905091905056fea26469706673582212209c06fe4c23545149225c32f3324a21745721ee461118ff48be5c5af85c067ab764736f6c63430008100033",
  "linkReferences": {},
  "deployedLinkReferences": {}
}