{
  "_format": "hh-sol-artifact-1",
  "contractName": "JupApesNFT",
  "sourceName": "contracts/JupApesNFT.sol",
  "abi": [
    {
      "inputs": [
        {
          "internalType": "string",
          "name": "_nameNFT",
          "type": "string"
        },
        {
          "internalType": "string",
          "name": "_symbolNFT",
          "type": "string"
        }
      ],
      "stateMutability": "nonpayable",
      "type": "constructor"
    },
    {
      "anonymous": false,
      "inputs": [
        {
          "indexed": true,
          "internalType": "address",
          "name": "owner",
          "type": "address"
        },
        {
          "indexed": true,
          "internalType": "address",
          "name": "approved",
          "type": "address"
        },
        {
          "indexed": true,
          "internalType": "uint256",
          "name": "tokenId",
          "type": "uint256"
        }
      ],
      "name": "Approval",
      "type": "event"
    },
    {
      "anonymous": false,
      "inputs": [
        {
          "indexed": true,
          "internalType": "address",
          "name": "owner",
          "type": "address"
        },
        {
          "indexed": true,
          "internalType": "address",
          "name": "operator",
          "type": "address"
        },
        {
          "indexed": false,
          "internalType": "bool",
          "name": "approved",
          "type": "bool"
        }
      ],
      "name": "ApprovalForAll",
      "type": "event"
    },
    {
      "anonymous": false,
      "inputs": [
        {
          "indexed": false,
          "internalType": "uint256",
          "name": "_nftId",
          "type": "uint256"
        },
        {
          "indexed": false,
          "internalType": "address",
          "name": "_sender",
          "type": "address"
        },
        {
          "indexed": false,
          "internalType": "address",
          "name": "_owner",
          "type": "address"
        },
        {
          "indexed": false,
          "internalType": "string",
          "name": "_nftURI",
          "type": "string"
        },
        {
          "indexed": false,
          "internalType": "uint256",
          "name": "_royaltiesPercentage",
          "type": "uint256"
        },
        {
          "indexed": false,
          "internalType": "uint256",
          "name": "_stakingRewardsPercentage",
          "type": "uint256"
        }
      ],
      "name": "LogNFTMinted",
      "type": "event"
    },
    {
      "anonymous": false,
      "inputs": [
        {
          "indexed": true,
          "internalType": "address",
          "name": "previousOwner",
          "type": "address"
        },
        {
          "indexed": true,
          "internalType": "address",
          "name": "newOwner",
          "type": "address"
        }
      ],
      "name": "OwnershipTransferred",
      "type": "event"
    },
    {
      "anonymous": false,
      "inputs": [
        {
          "indexed": false,
          "internalType": "address",
          "name": "account",
          "type": "address"
        }
      ],
      "name": "Paused",
      "type": "event"
    },
    {
      "anonymous": false,
      "inputs": [
        {
          "indexed": true,
          "internalType": "address",
          "name": "from",
          "type": "address"
        },
        {
          "indexed": true,
          "internalType": "address",
          "name": "to",
          "type": "address"
        },
        {
          "indexed": true,
          "internalType": "uint256",
          "name": "tokenId",
          "type": "uint256"
        }
      ],
      "name": "Transfer",
      "type": "event"
    },
    {
      "anonymous": false,
      "inputs": [
        {
          "indexed": false,
          "internalType": "address",
          "name": "account",
          "type": "address"
        }
      ],
      "name": "Unpaused",
      "type": "event"
    },
    {
      "inputs": [],
      "name": "CAP_VALUE",
      "outputs": [
        {
          "internalType": "uint256",
          "name": "",
          "type": "uint256"
        }
      ],
      "stateMutability": "view",
      "type": "function"
    },
    {
      "inputs": [],
      "name": "MAX_ROYALTIES_PERCENTAGE",
      "outputs": [
        {
          "internalType": "uint256",
          "name": "",
          "type": "uint256"
        }
      ],
      "stateMutability": "view",
      "type": "function"
    },
    {
      "inputs": [
        {
          "internalType": "address",
          "name": "to",
          "type": "address"
        },
        {
          "internalType": "uint256",
          "name": "tokenId",
          "type": "uint256"
        }
      ],
      "name": "approve",
      "outputs": [],
      "stateMutability": "nonpayable",
      "type": "function"
    },
    {
      "inputs": [
        {
          "internalType": "address",
          "name": "owner",
          "type": "address"
        }
      ],
      "name": "balanceOf",
      "outputs": [
        {
          "internalType": "uint256",
          "name": "",
          "type": "uint256"
        }
      ],
      "stateMutability": "view",
      "type": "function"
    },
    {
      "inputs": [
        {
          "internalType": "uint256",
          "name": "tokenId",
          "type": "uint256"
        }
      ],
      "name": "burn",
      "outputs": [],
      "stateMutability": "nonpayable",
      "type": "function"
    },
    {
      "inputs": [
        {
          "internalType": "uint256",
          "name": "tokenId",
          "type": "uint256"
        }
      ],
      "name": "getApproved",
      "outputs": [
        {
          "internalType": "address",
          "name": "",
          "type": "address"
        }
      ],
      "stateMutability": "view",
      "type": "function"
    },
    {
      "inputs": [],
      "name": "getChainID",
      "outputs": [
        {
          "internalType": "uint256",
          "name": "",
          "type": "uint256"
        }
      ],
      "stateMutability": "view",
      "type": "function"
    },
    {
      "inputs": [],
      "name": "getContractBalance",
      "outputs": [
        {
          "internalType": "uint256",
          "name": "",
          "type": "uint256"
        }
      ],
      "stateMutability": "view",
      "type": "function"
    },
    {
      "inputs": [
        {
          "internalType": "address",
          "name": "owner",
          "type": "address"
        },
        {
          "internalType": "address",
          "name": "operator",
          "type": "address"
        }
      ],
      "name": "isApprovedForAll",
      "outputs": [
        {
          "internalType": "bool",
          "name": "",
          "type": "bool"
        }
      ],
      "stateMutability": "view",
      "type": "function"
    },
    {
      "inputs": [
        {
          "internalType": "address",
          "name": "_to",
          "type": "address"
        },
        {
          "internalType": "string",
          "name": "_tokenURI",
          "type": "string"
        },
        {
          "internalType": "uint96",
          "name": "_royaltiesPercentage",
          "type": "uint96"
        },
        {
          "internalType": "uint256",
          "name": "_stakingRewardsPercentage",
          "type": "uint256"
        },
        {
          "internalType": "uint256",
          "name": "_tokenId",
          "type": "uint256"
        }
      ],
      "name": "mint",
      "outputs": [
        {
          "internalType": "uint256",
          "name": "",
          "type": "uint256"
        }
      ],
      "stateMutability": "nonpayable",
      "type": "function"
    },
    {
      "inputs": [],
      "name": "name",
      "outputs": [
        {
          "internalType": "string",
          "name": "",
          "type": "string"
        }
      ],
      "stateMutability": "view",
      "type": "function"
    },
    {
      "inputs": [],
      "name": "owner",
      "outputs": [
        {
          "internalType": "address",
          "name": "",
          "type": "address"
        }
      ],
      "stateMutability": "view",
      "type": "function"
    },
    {
      "inputs": [
        {
          "internalType": "uint256",
          "name": "tokenId",
          "type": "uint256"
        }
      ],
      "name": "ownerOf",
      "outputs": [
        {
          "internalType": "address",
          "name": "",
          "type": "address"
        }
      ],
      "stateMutability": "view",
      "type": "function"
    },
    {
      "inputs": [],
      "name": "pause",
      "outputs": [],
      "stateMutability": "nonpayable",
      "type": "function"
    },
    {
      "inputs": [],
      "name": "paused",
      "outputs": [
        {
          "internalType": "bool",
          "name": "",
          "type": "bool"
        }
      ],
      "stateMutability": "view",
      "type": "function"
    },
    {
      "inputs": [
        {
          "internalType": "address",
          "name": "redeemer",
          "type": "address"
        },
        {
          "components": [
            {
              "internalType": "uint256",
              "name": "tokenId",
              "type": "uint256"
            },
            {
              "internalType": "uint256",
              "name": "minPrice",
              "type": "uint256"
            },
            {
              "internalType": "string",
              "name": "uri",
              "type": "string"
            },
            {
              "internalType": "uint256",
              "name": "royalties",
              "type": "uint256"
            },
            {
              "internalType": "uint256",
              "name": "stakingRewards",
              "type": "uint256"
            },
            {
              "internalType": "bytes",
              "name": "signature",
              "type": "bytes"
            }
          ],
          "internalType": "struct JupApesVoucher.NFTVoucher",
          "name": "voucher",
          "type": "tuple"
        }
      ],
      "name": "redeem",
      "outputs": [
        {
          "internalType": "uint256",
          "name": "",
          "type": "uint256"
        }
      ],
      "stateMutability": "payable",
      "type": "function"
    },
    {
      "inputs": [],
      "name": "renounceOwnership",
      "outputs": [],
      "stateMutability": "nonpayable",
      "type": "function"
    },
    {
      "inputs": [
        {
          "internalType": "uint256",
          "name": "_tokenId",
          "type": "uint256"
        },
        {
          "internalType": "uint256",
          "name": "_salePrice",
          "type": "uint256"
        }
      ],
      "name": "royaltyInfo",
      "outputs": [
        {
          "internalType": "address",
          "name": "",
          "type": "address"
        },
        {
          "internalType": "uint256",
          "name": "",
          "type": "uint256"
        }
      ],
      "stateMutability": "view",
      "type": "function"
    },
    {
      "inputs": [
        {
          "internalType": "address",
          "name": "from",
          "type": "address"
        },
        {
          "internalType": "address",
          "name": "to",
          "type": "address"
        },
        {
          "internalType": "uint256",
          "name": "tokenId",
          "type": "uint256"
        }
      ],
      "name": "safeTransferFrom",
      "outputs": [],
      "stateMutability": "nonpayable",
      "type": "function"
    },
    {
      "inputs": [
        {
          "internalType": "address",
          "name": "from",
          "type": "address"
        },
        {
          "internalType": "address",
          "name": "to",
          "type": "address"
        },
        {
          "internalType": "uint256",
          "name": "tokenId",
          "type": "uint256"
        },
        {
          "internalType": "bytes",
          "name": "data",
          "type": "bytes"
        }
      ],
      "name": "safeTransferFrom",
      "outputs": [],
      "stateMutability": "nonpayable",
      "type": "function"
    },
    {
      "inputs": [
        {
          "internalType": "address",
          "name": "operator",
          "type": "address"
        },
        {
          "internalType": "bool",
          "name": "approved",
          "type": "bool"
        }
      ],
      "name": "setApprovalForAll",
      "outputs": [],
      "stateMutability": "nonpayable",
      "type": "function"
    },
    {
      "inputs": [
        {
          "internalType": "uint256",
          "name": "",
          "type": "uint256"
        }
      ],
      "name": "stakingRewardsPercentage",
      "outputs": [
        {
          "internalType": "uint256",
          "name": "",
          "type": "uint256"
        }
      ],
      "stateMutability": "view",
      "type": "function"
    },
    {
      "inputs": [
        {
          "internalType": "bytes4",
          "name": "interfaceId",
          "type": "bytes4"
        }
      ],
      "name": "supportsInterface",
      "outputs": [
        {
          "internalType": "bool",
          "name": "",
          "type": "bool"
        }
      ],
      "stateMutability": "view",
      "type": "function"
    },
    {
      "inputs": [],
      "name": "symbol",
      "outputs": [
        {
          "internalType": "string",
          "name": "",
          "type": "string"
        }
      ],
      "stateMutability": "view",
      "type": "function"
    },
    {
      "inputs": [],
      "name": "tokenCount",
      "outputs": [
        {
          "internalType": "uint256",
          "name": "",
          "type": "uint256"
        }
      ],
      "stateMutability": "view",
      "type": "function"
    },
    {
      "inputs": [
        {
          "internalType": "uint256",
          "name": "tokenId",
          "type": "uint256"
        }
      ],
      "name": "tokenURI",
      "outputs": [
        {
          "internalType": "string",
          "name": "",
          "type": "string"
        }
      ],
      "stateMutability": "view",
      "type": "function"
    },
    {
      "inputs": [
        {
          "internalType": "address",
          "name": "from",
          "type": "address"
        },
        {
          "internalType": "address",
          "name": "to",
          "type": "address"
        },
        {
          "internalType": "uint256",
          "name": "tokenId",
          "type": "uint256"
        }
      ],
      "name": "transferFrom",
      "outputs": [],
      "stateMutability": "nonpayable",
      "type": "function"
    },
    {
      "inputs": [
        {
          "internalType": "address",
          "name": "newOwner",
          "type": "address"
        }
      ],
      "name": "transferOwnership",
      "outputs": [],
      "stateMutability": "nonpayable",
      "type": "function"
    },
    {
      "inputs": [],
      "name": "unpause",
      "outputs": [],
      "stateMutability": "nonpayable",
      "type": "function"
    },
    {
      "inputs": [],
      "name": "withdraw",
      "outputs": [],
      "stateMutability": "nonpayable",
      "type": "function"
    }
  ],
  "bytecode": "0x6101406040523480156200001257600080fd5b5060405162005b5f38038062005b5f833981810160405281019062000038919062000466565b6040518060400160405280600f81526020017f4c617a794e46542d566f756368657200000000000000000000000000000000008152506040518060400160405280600181526020017f310000000000000000000000000000000000000000000000000000000000000081525083838160009081620000b7919062000736565b508060019081620000c9919062000736565b50505060008280519060200120905060008280519060200120905060007f8b73c3c69bb8fe3d512ecc4cf759cc79239f7b179b0ffacaa9a75d522b39400f90508260e081815250508161010081815250504660a0818152505062000135818484620001c960201b60201c565b608081815250503073ffffffffffffffffffffffffffffffffffffffff1660c08173ffffffffffffffffffffffffffffffffffffffff1681525050806101208181525050505050505060016008819055506000600a60006101000a81548160ff021916908315150217905550620001c1620001b56200020560201b60201c565b6200020d60201b60201c565b5050620008eb565b60008383834630604051602001620001e69594939291906200088e565b6040516020818303038152906040528051906020012090509392505050565b600033905090565b6000600a60019054906101000a900473ffffffffffffffffffffffffffffffffffffffff16905081600a60016101000a81548173ffffffffffffffffffffffffffffffffffffffff021916908373ffffffffffffffffffffffffffffffffffffffff1602179055508173ffffffffffffffffffffffffffffffffffffffff168173ffffffffffffffffffffffffffffffffffffffff167f8be0079c531659141344cd1fd0a4f28419497f9722a3daafe3b4186f6b6457e060405160405180910390a35050565b6000604051905090565b600080fd5b600080fd5b600080fd5b600080fd5b6000601f19601f8301169050919050565b7f4e487b7100000000000000000000000000000000000000000000000000000000600052604160045260246000fd5b6200033c82620002f1565b810181811067ffffffffffffffff821117156200035e576200035d62000302565b5b80604052505050565b600062000373620002d3565b905062000381828262000331565b919050565b600067ffffffffffffffff821115620003a457620003a362000302565b5b620003af82620002f1565b9050602081019050919050565b60005b83811015620003dc578082015181840152602081019050620003bf565b60008484015250505050565b6000620003ff620003f98462000386565b62000367565b9050828152602081018484840111156200041e576200041d620002ec565b5b6200042b848285620003bc565b509392505050565b600082601f8301126200044b576200044a620002e7565b5b81516200045d848260208601620003e8565b91505092915050565b6000806040838503121562000480576200047f620002dd565b5b600083015167ffffffffffffffff811115620004a157620004a0620002e2565b5b620004af8582860162000433565b925050602083015167ffffffffffffffff811115620004d357620004d2620002e2565b5b620004e18582860162000433565b9150509250929050565b600081519050919050565b7f4e487b7100000000000000000000000000000000000000000000000000000000600052602260045260246000fd5b600060028204905060018216806200053e57607f821691505b602082108103620005545762000553620004f6565b5b50919050565b60008190508160005260206000209050919050565b60006020601f8301049050919050565b600082821b905092915050565b600060088302620005be7fffffffffffffffffffffffffffffffffffffffffffffffffffffffffffffffff826200057f565b620005ca86836200057f565b95508019841693508086168417925050509392505050565b6000819050919050565b6000819050919050565b600062000617620006116200060b84620005e2565b620005ec565b620005e2565b9050919050565b6000819050919050565b6200063383620005f6565b6200064b62000642826200061e565b8484546200058c565b825550505050565b600090565b6200066262000653565b6200066f81848462000628565b505050565b5b8181101562000697576200068b60008262000658565b60018101905062000675565b5050565b601f821115620006e657620006b0816200055a565b620006bb846200056f565b81016020851015620006cb578190505b620006e3620006da856200056f565b83018262000674565b50505b505050565b600082821c905092915050565b60006200070b60001984600802620006eb565b1980831691505092915050565b6000620007268383620006f8565b9150826002028217905092915050565b6200074182620004eb565b67ffffffffffffffff8111156200075d576200075c62000302565b5b62000769825462000525565b620007768282856200069b565b600060209050601f831160018114620007ae576000841562000799578287015190505b620007a5858262000718565b86555062000815565b601f198416620007be866200055a565b60005b82811015620007e857848901518255600182019150602085019450602081019050620007c1565b8683101562000808578489015162000804601f891682620006f8565b8355505b6001600288020188555050505b505050505050565b6000819050919050565b62000832816200081d565b82525050565b6200084381620005e2565b82525050565b600073ffffffffffffffffffffffffffffffffffffffff82169050919050565b6000620008768262000849565b9050919050565b620008888162000869565b82525050565b600060a082019050620008a5600083018862000827565b620008b4602083018762000827565b620008c3604083018662000827565b620008d2606083018562000838565b620008e160808301846200087d565b9695505050505050565b60805160a05160c05160e05161010051610120516152246200093b6000396000612f4501526000612f8701526000612f6601526000612e9b01526000612ef101526000612f1a01526152246000f3fe6080604052600436106101cd5760003560e01c80636071dfb6116100f75780638da5cb5b11610095578063b88d4fde11610064578063b88d4fde1461065a578063c87b56dd14610683578063e985e9c5146106c0578063f2fde38b146106fd576101cd565b80638da5cb5b146105b057806395d89b41146105db5780639f181b5e14610606578063a22cb46514610631576101cd565b806370a08231116100d157806370a0823114610508578063715018a614610545578063751badbe1461055c5780638456cb5914610599576101cd565b80636071dfb6146104755780636352211e146104a05780636f9fb98a146104dd576101cd565b8063374c23f01161016f57806342966c681161013e57806342966c68146103c657806356340d0e146103ef578063564b81ef1461041f5780635c975abb1461044a576101cd565b8063374c23f0146103445780633ccfd60b1461036f5780633f4ba83a1461038657806342842e0e1461039d576101cd565b8063095ea7b3116101ab578063095ea7b3146102775780630becad52146102a057806323b872dd146102dd5780632a55205a14610306576101cd565b806301ffc9a7146101d257806306fdde031461020f578063081812fc1461023a575b600080fd5b3480156101de57600080fd5b506101f960048036038101906101f491906131f3565b610726565b604051610206919061323b565b60405180910390f35b34801561021b57600080fd5b50610224610738565b60405161023191906132e6565b60405180910390f35b34801561024657600080fd5b50610261600480360381019061025c919061333e565b6107ca565b60405161026e91906133ac565b60405180910390f35b34801561028357600080fd5b5061029e600480360381019061029991906133f3565b610810565b005b3480156102ac57600080fd5b506102c760048036038101906102c2919061333e565b610927565b6040516102d49190613442565b60405180910390f35b3480156102e957600080fd5b5061030460048036038101906102ff919061345d565b61093f565b005b34801561031257600080fd5b5061032d600480360381019061032891906134b0565b61099f565b60405161033b9291906134f0565b60405180910390f35b34801561035057600080fd5b50610359610b89565b6040516103669190613442565b60405180910390f35b34801561037b57600080fd5b50610384610b8f565b005b34801561039257600080fd5b5061039b610c3c565b005b3480156103a957600080fd5b506103c460048036038101906103bf919061345d565b610c4e565b005b3480156103d257600080fd5b506103ed60048036038101906103e8919061333e565b610c6e565b005b6104096004803603810190610404919061353d565b610cca565b6040516104169190613442565b60405180910390f35b34801561042b57600080fd5b50610434610f8c565b6040516104419190613442565b60405180910390f35b34801561045657600080fd5b5061045f610f99565b60405161046c919061323b565b60405180910390f35b34801561048157600080fd5b5061048a610fb0565b6040516104979190613442565b60405180910390f35b3480156104ac57600080fd5b506104c760048036038101906104c2919061333e565b610fb6565b6040516104d491906133ac565b60405180910390f35b3480156104e957600080fd5b506104f2611067565b6040516104ff9190613442565b60405180910390f35b34801561051457600080fd5b5061052f600480360381019061052a9190613599565b61106f565b60405161053c9190613442565b60405180910390f35b34801561055157600080fd5b5061055a611126565b005b34801561056857600080fd5b50610583600480360381019061057e919061373f565b61113a565b6040516105909190613442565b60405180910390f35b3480156105a557600080fd5b506105ae61138c565b005b3480156105bc57600080fd5b506105c561139e565b6040516105d291906133ac565b60405180910390f35b3480156105e757600080fd5b506105f06113c8565b6040516105fd91906132e6565b60405180910390f35b34801561061257600080fd5b5061061b61145a565b6040516106289190613442565b60405180910390f35b34801561063d57600080fd5b5061065860048036038101906106539190613802565b611460565b005b34801561066657600080fd5b50610681600480360381019061067c91906138e3565b611476565b005b34801561068f57600080fd5b506106aa60048036038101906106a5919061333e565b6114d8565b6040516106b791906132e6565b60405180910390f35b3480156106cc57600080fd5b506106e760048036038101906106e29190613966565b6114ea565b6040516106f4919061323b565b60405180910390f35b34801561070957600080fd5b50610724600480360381019061071f9190613599565b61157e565b005b600061073182611601565b9050919050565b606060008054610747906139d5565b80601f0160208091040260200160405190810160405280929190818152602001828054610773906139d5565b80156107c05780601f10610795576101008083540402835291602001916107c0565b820191906000526020600020905b8154815290600101906020018083116107a357829003601f168201915b5050505050905090565b60006107d58261167b565b6004600083815260200190815260200160002060009054906101000a900473ffffffffffffffffffffffffffffffffffffffff169050919050565b600061081b82610fb6565b90508073ffffffffffffffffffffffffffffffffffffffff168373ffffffffffffffffffffffffffffffffffffffff160361088b576040517f08c379a000000000000000000000000000000000000000000000000000000000815260040161088290613a78565b60405180910390fd5b8073ffffffffffffffffffffffffffffffffffffffff166108aa6116c6565b73ffffffffffffffffffffffffffffffffffffffff1614806108d957506108d8816108d36116c6565b6114ea565b5b610918576040517f08c379a000000000000000000000000000000000000000000000000000000000815260040161090f90613b0a565b60405180910390fd5b61092283836116ce565b505050565b600b6020528060005260406000206000915090505481565b61095061094a6116c6565b82611787565b61098f576040517f08c379a000000000000000000000000000000000000000000000000000000000815260040161098690613b9c565b60405180910390fd5b61099a83838361181c565b505050565b6000806000600760008681526020019081526020016000206040518060400160405290816000820160009054906101000a900473ffffffffffffffffffffffffffffffffffffffff1673ffffffffffffffffffffffffffffffffffffffff1673ffffffffffffffffffffffffffffffffffffffff1681526020016000820160149054906101000a90046bffffffffffffffffffffffff166bffffffffffffffffffffffff166bffffffffffffffffffffffff16815250509050600073ffffffffffffffffffffffffffffffffffffffff16816000015173ffffffffffffffffffffffffffffffffffffffff1603610b345760066040518060400160405290816000820160009054906101000a900473ffffffffffffffffffffffffffffffffffffffff1673ffffffffffffffffffffffffffffffffffffffff1673ffffffffffffffffffffffffffffffffffffffff1681526020016000820160149054906101000a90046bffffffffffffffffffffffff166bffffffffffffffffffffffff166bffffffffffffffffffffffff168152505090505b6000610b3e611a82565b6bffffffffffffffffffffffff1682602001516bffffffffffffffffffffffff1686610b6a9190613beb565b610b749190613c74565b90508160000151819350935050509250929050565b61271081565b610b97611a8c565b600260085403610bdc576040517f08c379a0000000000000000000000000000000000000000000000000000000008152600401610bd390613cf1565b60405180910390fd5b6002600881905550610bec61139e565b73ffffffffffffffffffffffffffffffffffffffff166108fc479081150290604051600060405180830381858888f19350505050158015610c31573d6000803e3d6000fd5b506001600881905550565b610c44611a8c565b610c4c611b0a565b565b610c6983838360405180602001604052806000815250611476565b505050565b610c7f610c796116c6565b82611787565b610cbe576040517f08c379a0000000000000000000000000000000000000000000000000000000008152600401610cb590613b9c565b60405180910390fd5b610cc781611b6d565b50565b6000600260085403610d11576040517f08c379a0000000000000000000000000000000000000000000000000000000008152600401610d0890613cf1565b60405180910390fd5b600260088190555082600073ffffffffffffffffffffffffffffffffffffffff168173ffffffffffffffffffffffffffffffffffffffff1603610d89576040517f08c379a0000000000000000000000000000000000000000000000000000000008152600401610d8090613d5d565b60405180910390fd5b82606001356103e8811115610dd3576040517f08c379a0000000000000000000000000000000000000000000000000000000008152600401610dca90613def565b60405180910390fd5b6000610dde85611b79565b9050610de861139e565b73ffffffffffffffffffffffffffffffffffffffff168173ffffffffffffffffffffffffffffffffffffffff1614610e55576040517f08c379a0000000000000000000000000000000000000000000000000000000008152600401610e4c90613e81565b60405180910390fd5b8460200135341015610e9c576040517f08c379a0000000000000000000000000000000000000000000000000000000008152600401610e9390613eed565b60405180910390fd5b600c6000815480929190610eaf90613f0d565b91905055508460800135600b60008760000135815260200190815260200160002081905550610ee78560000135828760600135611beb565b610ef5818660000135611d92565b610f558560000135868060400190610f0d9190613f64565b8080601f016020809104026020016040519081016040528093929190818152602001838380828437600081840152601f19601f82011690508083019250505050505050611db0565b610f748187876000013560405180602001604052806000815250611e1d565b84600001359350505050600160088190555092915050565b6000804690508091505090565b6000600a60009054906101000a900460ff16905090565b6103e881565b6000806002600084815260200190815260200160002060009054906101000a900473ffffffffffffffffffffffffffffffffffffffff169050600073ffffffffffffffffffffffffffffffffffffffff168173ffffffffffffffffffffffffffffffffffffffff160361105e576040517f08c379a000000000000000000000000000000000000000000000000000000000815260040161105590614013565b60405180910390fd5b80915050919050565b600047905090565b60008073ffffffffffffffffffffffffffffffffffffffff168273ffffffffffffffffffffffffffffffffffffffff16036110df576040517f08c379a00000000000000000000000000000000000000000000000000000000081526004016110d6906140a5565b60405180910390fd5b600360008373ffffffffffffffffffffffffffffffffffffffff1673ffffffffffffffffffffffffffffffffffffffff168152602001908152602001600020549050919050565b61112e611a8c565b6111386000611e79565b565b6000600260085403611181576040517f08c379a000000000000000000000000000000000000000000000000000000000815260040161117890613cf1565b60405180910390fd5b6002600881905550611191611f3f565b611199611a8c565b85600073ffffffffffffffffffffffffffffffffffffffff168173ffffffffffffffffffffffffffffffffffffffff1603611209576040517f08c379a000000000000000000000000000000000000000000000000000000000815260040161120090613d5d565b60405180910390fd5b846bffffffffffffffffffffffff166103e881111561125d576040517f08c379a000000000000000000000000000000000000000000000000000000000815260040161125490613def565b60405180910390fd5b612710600c54106112a3576040517f08c379a000000000000000000000000000000000000000000000000000000000815260040161129a90614111565b60405180910390fd5b600084116112e6576040517f08c379a00000000000000000000000000000000000000000000000000000000081526004016112dd906141a3565b60405180910390fd5b84600b6000868152602001908152602001600020819055507fd1d720a294683bd5060a096b1e4425ebc654eb1fdd56e3cfddb8625113d114f984338a8a8a8a604051611337969594939291906141fe565b60405180910390a1600c600081548092919061135290613f0d565b9190505550611362848988611beb565b61136c8885611d92565b6113768488611db0565b8392505050600160088190555095945050505050565b611394611a8c565b61139c611f89565b565b6000600a60019054906101000a900473ffffffffffffffffffffffffffffffffffffffff16905090565b6060600180546113d7906139d5565b80601f0160208091040260200160405190810160405280929190818152602001828054611403906139d5565b80156114505780601f1061142557610100808354040283529160200191611450565b820191906000526020600020905b81548152906001019060200180831161143357829003601f168201915b5050505050905090565b600c5481565b61147261146b6116c6565b8383611fec565b5050565b6114876114816116c6565b83611787565b6114c6576040517f08c379a00000000000000000000000000000000000000000000000000000000081526004016114bd90613b9c565b60405180910390fd5b6114d284848484611e1d565b50505050565b60606114e382612158565b9050919050565b6000600560008473ffffffffffffffffffffffffffffffffffffffff1673ffffffffffffffffffffffffffffffffffffffff16815260200190815260200160002060008373ffffffffffffffffffffffffffffffffffffffff1673ffffffffffffffffffffffffffffffffffffffff16815260200190815260200160002060009054906101000a900460ff16905092915050565b611586611a8c565b600073ffffffffffffffffffffffffffffffffffffffff168173ffffffffffffffffffffffffffffffffffffffff16036115f5576040517f08c379a00000000000000000000000000000000000000000000000000000000081526004016115ec906142d8565b60405180910390fd5b6115fe81611e79565b50565b60007f2a55205a000000000000000000000000000000000000000000000000000000007bffffffffffffffffffffffffffffffffffffffffffffffffffffffff1916827bffffffffffffffffffffffffffffffffffffffffffffffffffffffff1916148061167457506116738261226a565b5b9050919050565b6116848161234c565b6116c3576040517f08c379a00000000000000000000000000000000000000000000000000000000081526004016116ba90614013565b60405180910390fd5b50565b600033905090565b816004600083815260200190815260200160002060006101000a81548173ffffffffffffffffffffffffffffffffffffffff021916908373ffffffffffffffffffffffffffffffffffffffff160217905550808273ffffffffffffffffffffffffffffffffffffffff1661174183610fb6565b73ffffffffffffffffffffffffffffffffffffffff167f8c5be1e5ebec7d5bd14f71427d1e84f3dd0314c0f7b2291e5b200ac8c7c3b92560405160405180910390a45050565b60008061179383610fb6565b90508073ffffffffffffffffffffffffffffffffffffffff168473ffffffffffffffffffffffffffffffffffffffff1614806117d557506117d481856114ea565b5b8061181357508373ffffffffffffffffffffffffffffffffffffffff166117fb846107ca565b73ffffffffffffffffffffffffffffffffffffffff16145b91505092915050565b8273ffffffffffffffffffffffffffffffffffffffff1661183c82610fb6565b73ffffffffffffffffffffffffffffffffffffffff1614611892576040517f08c379a00000000000000000000000000000000000000000000000000000000081526004016118899061436a565b60405180910390fd5b600073ffffffffffffffffffffffffffffffffffffffff168273ffffffffffffffffffffffffffffffffffffffff1603611901576040517f08c379a00000000000000000000000000000000000000000000000000000000081526004016118f8906143fc565b60405180910390fd5b61190c8383836123b8565b6119176000826116ce565b6001600360008573ffffffffffffffffffffffffffffffffffffffff1673ffffffffffffffffffffffffffffffffffffffff1681526020019081526020016000206000828254611967919061441c565b925050819055506001600360008473ffffffffffffffffffffffffffffffffffffffff1673ffffffffffffffffffffffffffffffffffffffff16815260200190815260200160002060008282546119be9190614450565b92505081905550816002600083815260200190815260200160002060006101000a81548173ffffffffffffffffffffffffffffffffffffffff021916908373ffffffffffffffffffffffffffffffffffffffff160217905550808273ffffffffffffffffffffffffffffffffffffffff168473ffffffffffffffffffffffffffffffffffffffff167fddf252ad1be2c89b69c2b068fc378daa952ba7f163c4a11628f55a4df523b3ef60405160405180910390a4611a7d8383836123bd565b505050565b60006103e8905090565b611a946116c6565b73ffffffffffffffffffffffffffffffffffffffff16611ab261139e565b73ffffffffffffffffffffffffffffffffffffffff1614611b08576040517f08c379a0000000000000000000000000000000000000000000000000000000008152600401611aff906144d0565b60405180910390fd5b565b611b126123c2565b6000600a60006101000a81548160ff0219169083151502179055507f5db9ee0a495bf2e6ff9c91a7834c1ba4fdd244a5e8aa4e537bd38aeae4b073aa611b566116c6565b604051611b6391906133ac565b60405180910390a1565b611b768161240b565b50565b600080611b858361245e565b9050611be381848060a00190611b9b91906144f0565b8080601f016020809104026020016040519081016040528093929190818152602001838380828437600081840152601f19601f820116905080830192505050505050506124f5565b915050919050565b611bf3611a82565b6bffffffffffffffffffffffff16816bffffffffffffffffffffffff161115611c51576040517f08c379a0000000000000000000000000000000000000000000000000000000008152600401611c48906145c5565b60405180910390fd5b600073ffffffffffffffffffffffffffffffffffffffff168273ffffffffffffffffffffffffffffffffffffffff1603611cc0576040517f08c379a0000000000000000000000000000000000000000000000000000000008152600401611cb790614631565b60405180910390fd5b60405180604001604052808373ffffffffffffffffffffffffffffffffffffffff168152602001826bffffffffffffffffffffffff168152506007600085815260200190815260200160002060008201518160000160006101000a81548173ffffffffffffffffffffffffffffffffffffffff021916908373ffffffffffffffffffffffffffffffffffffffff16021790555060208201518160000160146101000a8154816bffffffffffffffffffffffff02191690836bffffffffffffffffffffffff160217905550905050505050565b611dac82826040518060200160405280600081525061251c565b5050565b611db98261234c565b611df8576040517f08c379a0000000000000000000000000000000000000000000000000000000008152600401611def906146c3565b60405180910390fd5b80600960008481526020019081526020016000209081611e189190614885565b505050565b611e2884848461181c565b611e3484848484612577565b611e73576040517f08c379a0000000000000000000000000000000000000000000000000000000008152600401611e6a906149c9565b60405180910390fd5b50505050565b6000600a60019054906101000a900473ffffffffffffffffffffffffffffffffffffffff16905081600a60016101000a81548173ffffffffffffffffffffffffffffffffffffffff021916908373ffffffffffffffffffffffffffffffffffffffff1602179055508173ffffffffffffffffffffffffffffffffffffffff168173ffffffffffffffffffffffffffffffffffffffff167f8be0079c531659141344cd1fd0a4f28419497f9722a3daafe3b4186f6b6457e060405160405180910390a35050565b611f47610f99565b15611f87576040517f08c379a0000000000000000000000000000000000000000000000000000000008152600401611f7e90614a35565b60405180910390fd5b565b611f91611f3f565b6001600a60006101000a81548160ff0219169083151502179055507f62e78cea01bee320cd4e420270b5ea74000d11b0c9f74754ebdbfc544b05a258611fd56116c6565b604051611fe291906133ac565b60405180910390a1565b8173ffffffffffffffffffffffffffffffffffffffff168373ffffffffffffffffffffffffffffffffffffffff160361205a576040517f08c379a000000000000000000000000000000000000000000000000000000000815260040161205190614aa1565b60405180910390fd5b80600560008573ffffffffffffffffffffffffffffffffffffffff1673ffffffffffffffffffffffffffffffffffffffff16815260200190815260200160002060008473ffffffffffffffffffffffffffffffffffffffff1673ffffffffffffffffffffffffffffffffffffffff16815260200190815260200160002060006101000a81548160ff0219169083151502179055508173ffffffffffffffffffffffffffffffffffffffff168373ffffffffffffffffffffffffffffffffffffffff167f17307eab39ab6107e8899845ad3d59bd9653f200f220920489ca2b5937696c318360405161214b919061323b565b60405180910390a3505050565b60606121638261167b565b6000600960008481526020019081526020016000208054612183906139d5565b80601f01602080910402602001604051908101604052809291908181526020018280546121af906139d5565b80156121fc5780601f106121d1576101008083540402835291602001916121fc565b820191906000526020600020905b8154815290600101906020018083116121df57829003601f168201915b50505050509050600061220d6126fe565b90506000815103612222578192505050612265565b60008251111561225757808260405160200161223f929190614afd565b60405160208183030381529060405292505050612265565b61226084612715565b925050505b919050565b60007f80ac58cd000000000000000000000000000000000000000000000000000000007bffffffffffffffffffffffffffffffffffffffffffffffffffffffff1916827bffffffffffffffffffffffffffffffffffffffffffffffffffffffff1916148061233557507f5b5e139f000000000000000000000000000000000000000000000000000000007bffffffffffffffffffffffffffffffffffffffffffffffffffffffff1916827bffffffffffffffffffffffffffffffffffffffffffffffffffffffff1916145b8061234557506123448261277d565b5b9050919050565b60008073ffffffffffffffffffffffffffffffffffffffff166002600084815260200190815260200160002060009054906101000a900473ffffffffffffffffffffffffffffffffffffffff1673ffffffffffffffffffffffffffffffffffffffff1614159050919050565b505050565b505050565b6123ca610f99565b612409576040517f08c379a000000000000000000000000000000000000000000000000000000000815260040161240090614b6d565b60405180910390fd5b565b612414816127e7565b6000600960008381526020019081526020016000208054612434906139d5565b90501461245b5760096000828152602001908152602001600020600061245a919061312a565b5b50565b60006124ee7f3ea757a3c4cb3b9a5497ba100a966c1e553d003161207d7d5d32402cbb9fd6018360000135846020013585806040019061249e9190613f64565b6040516124ac929190614bbd565b6040518091039020866060013587608001356040516020016124d396959493929190614bef565b60405160208183030381529060405280519060200120612904565b9050919050565b6000806000612504858561291e565b915091506125118161296f565b819250505092915050565b6125268383612b3b565b6125336000848484612577565b612572576040517f08c379a0000000000000000000000000000000000000000000000000000000008152600401612569906149c9565b60405180910390fd5b505050565b60006125988473ffffffffffffffffffffffffffffffffffffffff16612d14565b156126f1578373ffffffffffffffffffffffffffffffffffffffff1663150b7a026125c16116c6565b8786866040518563ffffffff1660e01b81526004016125e39493929190614ca5565b6020604051808303816000875af192505050801561261f57506040513d601f19601f8201168201806040525081019061261c9190614d06565b60015b6126a1573d806000811461264f576040519150601f19603f3d011682016040523d82523d6000602084013e612654565b606091505b506000815103612699576040517f08c379a0000000000000000000000000000000000000000000000000000000008152600401612690906149c9565b60405180910390fd5b805181602001fd5b63150b7a0260e01b7bffffffffffffffffffffffffffffffffffffffffffffffffffffffff1916817bffffffffffffffffffffffffffffffffffffffffffffffffffffffff1916149150506126f6565b600190505b949350505050565b606060405180602001604052806000815250905090565b60606127208261167b565b600061272a6126fe565b9050600081511161274a5760405180602001604052806000815250612775565b8061275484612d37565b604051602001612765929190614afd565b6040516020818303038152906040525b915050919050565b60007f01ffc9a7000000000000000000000000000000000000000000000000000000007bffffffffffffffffffffffffffffffffffffffffffffffffffffffff1916827bffffffffffffffffffffffffffffffffffffffffffffffffffffffff1916149050919050565b60006127f282610fb6565b9050612800816000846123b8565b61280b6000836116ce565b6001600360008373ffffffffffffffffffffffffffffffffffffffff1673ffffffffffffffffffffffffffffffffffffffff168152602001908152602001600020600082825461285b919061441c565b925050819055506002600083815260200190815260200160002060006101000a81549073ffffffffffffffffffffffffffffffffffffffff021916905581600073ffffffffffffffffffffffffffffffffffffffff168273ffffffffffffffffffffffffffffffffffffffff167fddf252ad1be2c89b69c2b068fc378daa952ba7f163c4a11628f55a4df523b3ef60405160405180910390a4612900816000846123bd565b5050565b6000612917612911612e97565b83612fb1565b9050919050565b600080604183510361295f5760008060006020860151925060408601519150606086015160001a905061295387828585612fe4565b94509450505050612968565b60006002915091505b9250929050565b6000600481111561298357612982614d33565b5b81600481111561299657612995614d33565b5b0315612b3857600160048111156129b0576129af614d33565b5b8160048111156129c3576129c2614d33565b5b03612a03576040517f08c379a00000000000000000000000000000000000000000000000000000000081526004016129fa90614dae565b60405180910390fd5b60026004811115612a1757612a16614d33565b5b816004811115612a2a57612a29614d33565b5b03612a6a576040517f08c379a0000000000000000000000000000000000000000000000000000000008152600401612a6190614e1a565b60405180910390fd5b60036004811115612a7e57612a7d614d33565b5b816004811115612a9157612a90614d33565b5b03612ad1576040517f08c379a0000000000000000000000000000000000000000000000000000000008152600401612ac890614eac565b60405180910390fd5b600480811115612ae457612ae3614d33565b5b816004811115612af757612af6614d33565b5b03612b37576040517f08c379a0000000000000000000000000000000000000000000000000000000008152600401612b2e90614f3e565b60405180910390fd5b5b50565b600073ffffffffffffffffffffffffffffffffffffffff168273ffffffffffffffffffffffffffffffffffffffff1603612baa576040517f08c379a0000000000000000000000000000000000000000000000000000000008152600401612ba190614faa565b60405180910390fd5b612bb38161234c565b15612bf3576040517f08c379a0000000000000000000000000000000000000000000000000000000008152600401612bea90615016565b60405180910390fd5b612bff600083836123b8565b6001600360008473ffffffffffffffffffffffffffffffffffffffff1673ffffffffffffffffffffffffffffffffffffffff1681526020019081526020016000206000828254612c4f9190614450565b92505081905550816002600083815260200190815260200160002060006101000a81548173ffffffffffffffffffffffffffffffffffffffff021916908373ffffffffffffffffffffffffffffffffffffffff160217905550808273ffffffffffffffffffffffffffffffffffffffff16600073ffffffffffffffffffffffffffffffffffffffff167fddf252ad1be2c89b69c2b068fc378daa952ba7f163c4a11628f55a4df523b3ef60405160405180910390a4612d10600083836123bd565b5050565b6000808273ffffffffffffffffffffffffffffffffffffffff163b119050919050565b606060008203612d7e576040518060400160405280600181526020017f30000000000000000000000000000000000000000000000000000000000000008152509050612e92565b600082905060005b60008214612db0578080612d9990613f0d565b915050600a82612da99190613c74565b9150612d86565b60008167ffffffffffffffff811115612dcc57612dcb6135d0565b5b6040519080825280601f01601f191660200182016040528015612dfe5781602001600182028036833780820191505090505b5090505b60008514612e8b57600182612e17919061441c565b9150600a85612e269190615036565b6030612e329190614450565b60f81b818381518110612e4857612e47615067565b5b60200101907effffffffffffffffffffffffffffffffffffffffffffffffffffffffffffff1916908160001a905350600a85612e849190613c74565b9450612e02565b8093505050505b919050565b60007f000000000000000000000000000000000000000000000000000000000000000073ffffffffffffffffffffffffffffffffffffffff163073ffffffffffffffffffffffffffffffffffffffff16148015612f1357507f000000000000000000000000000000000000000000000000000000000000000046145b15612f40577f00000000000000000000000000000000000000000000000000000000000000009050612fae565b612fab7f00000000000000000000000000000000000000000000000000000000000000007f00000000000000000000000000000000000000000000000000000000000000007f00000000000000000000000000000000000000000000000000000000000000006130f0565b90505b90565b60008282604051602001612fc6929190615103565b60405160208183030381529060405280519060200120905092915050565b6000807f7fffffffffffffffffffffffffffffff5d576e7357a4501ddfe92f46681b20a08360001c111561301f5760006003915091506130e7565b601b8560ff16141580156130375750601c8560ff1614155b156130495760006004915091506130e7565b60006001878787876040516000815260200160405260405161306e9493929190615156565b6020604051602081039080840390855afa158015613090573d6000803e3d6000fd5b505050602060405103519050600073ffffffffffffffffffffffffffffffffffffffff168173ffffffffffffffffffffffffffffffffffffffff16036130de576000600192509250506130e7565b80600092509250505b94509492505050565b6000838383463060405160200161310b95949392919061519b565b6040516020818303038152906040528051906020012090509392505050565b508054613136906139d5565b6000825580601f106131485750613167565b601f016020900490600052602060002090810190613166919061316a565b5b50565b5b8082111561318357600081600090555060010161316b565b5090565b6000604051905090565b600080fd5b600080fd5b60007fffffffff0000000000000000000000000000000000000000000000000000000082169050919050565b6131d08161319b565b81146131db57600080fd5b50565b6000813590506131ed816131c7565b92915050565b60006020828403121561320957613208613191565b5b6000613217848285016131de565b91505092915050565b60008115159050919050565b61323581613220565b82525050565b6000602082019050613250600083018461322c565b92915050565b600081519050919050565b600082825260208201905092915050565b60005b83811015613290578082015181840152602081019050613275565b60008484015250505050565b6000601f19601f8301169050919050565b60006132b882613256565b6132c28185613261565b93506132d2818560208601613272565b6132db8161329c565b840191505092915050565b6000602082019050818103600083015261330081846132ad565b905092915050565b6000819050919050565b61331b81613308565b811461332657600080fd5b50565b60008135905061333881613312565b92915050565b60006020828403121561335457613353613191565b5b600061336284828501613329565b91505092915050565b600073ffffffffffffffffffffffffffffffffffffffff82169050919050565b60006133968261336b565b9050919050565b6133a68161338b565b82525050565b60006020820190506133c1600083018461339d565b92915050565b6133d08161338b565b81146133db57600080fd5b50565b6000813590506133ed816133c7565b92915050565b6000806040838503121561340a57613409613191565b5b6000613418858286016133de565b925050602061342985828601613329565b9150509250929050565b61343c81613308565b82525050565b60006020820190506134576000830184613433565b92915050565b60008060006060848603121561347657613475613191565b5b6000613484868287016133de565b9350506020613495868287016133de565b92505060406134a686828701613329565b9150509250925092565b600080604083850312156134c7576134c6613191565b5b60006134d585828601613329565b92505060206134e685828601613329565b9150509250929050565b6000604082019050613505600083018561339d565b6135126020830184613433565b9392505050565b600080fd5b600060c0828403121561353457613533613519565b5b81905092915050565b6000806040838503121561355457613553613191565b5b6000613562858286016133de565b925050602083013567ffffffffffffffff81111561358357613582613196565b5b61358f8582860161351e565b9150509250929050565b6000602082840312156135af576135ae613191565b5b60006135bd848285016133de565b91505092915050565b600080fd5b600080fd5b7f4e487b7100000000000000000000000000000000000000000000000000000000600052604160045260246000fd5b6136088261329c565b810181811067ffffffffffffffff82111715613627576136266135d0565b5b80604052505050565b600061363a613187565b905061364682826135ff565b919050565b600067ffffffffffffffff821115613666576136656135d0565b5b61366f8261329c565b9050602081019050919050565b82818337600083830152505050565b600061369e6136998461364b565b613630565b9050828152602081018484840111156136ba576136b96135cb565b5b6136c584828561367c565b509392505050565b600082601f8301126136e2576136e16135c6565b5b81356136f284826020860161368b565b91505092915050565b60006bffffffffffffffffffffffff82169050919050565b61371c816136fb565b811461372757600080fd5b50565b60008135905061373981613713565b92915050565b600080600080600060a0868803121561375b5761375a613191565b5b6000613769888289016133de565b955050602086013567ffffffffffffffff81111561378a57613789613196565b5b613796888289016136cd565b94505060406137a78882890161372a565b93505060606137b888828901613329565b92505060806137c988828901613329565b9150509295509295909350565b6137df81613220565b81146137ea57600080fd5b50565b6000813590506137fc816137d6565b92915050565b6000806040838503121561381957613818613191565b5b6000613827858286016133de565b9250506020613838858286016137ed565b9150509250929050565b600067ffffffffffffffff82111561385d5761385c6135d0565b5b6138668261329c565b9050602081019050919050565b600061388661388184613842565b613630565b9050828152602081018484840111156138a2576138a16135cb565b5b6138ad84828561367c565b509392505050565b600082601f8301126138ca576138c96135c6565b5b81356138da848260208601613873565b91505092915050565b600080600080608085870312156138fd576138fc613191565b5b600061390b878288016133de565b945050602061391c878288016133de565b935050604061392d87828801613329565b925050606085013567ffffffffffffffff81111561394e5761394d613196565b5b61395a878288016138b5565b91505092959194509250565b6000806040838503121561397d5761397c613191565b5b600061398b858286016133de565b925050602061399c858286016133de565b9150509250929050565b7f4e487b7100000000000000000000000000000000000000000000000000000000600052602260045260246000fd5b600060028204905060018216806139ed57607f821691505b602082108103613a00576139ff6139a6565b5b50919050565b7f4552433732313a20617070726f76616c20746f2063757272656e74206f776e6560008201527f7200000000000000000000000000000000000000000000000000000000000000602082015250565b6000613a62602183613261565b9150613a6d82613a06565b604082019050919050565b60006020820190508181036000830152613a9181613a55565b9050919050565b7f4552433732313a20617070726f76652063616c6c6572206973206e6f7420746f60008201527f6b656e206f776e6572206e6f7220617070726f76656420666f7220616c6c0000602082015250565b6000613af4603e83613261565b9150613aff82613a98565b604082019050919050565b60006020820190508181036000830152613b2381613ae7565b9050919050565b7f4552433732313a2063616c6c6572206973206e6f7420746f6b656e206f776e6560008201527f72206e6f7220617070726f766564000000000000000000000000000000000000602082015250565b6000613b86602e83613261565b9150613b9182613b2a565b604082019050919050565b60006020820190508181036000830152613bb581613b79565b9050919050565b7f4e487b7100000000000000000000000000000000000000000000000000000000600052601160045260246000fd5b6000613bf682613308565b9150613c0183613308565b9250817fffffffffffffffffffffffffffffffffffffffffffffffffffffffffffffffff0483118215151615613c3a57613c39613bbc565b5b828202905092915050565b7f4e487b7100000000000000000000000000000000000000000000000000000000600052601260045260246000fd5b6000613c7f82613308565b9150613c8a83613308565b925082613c9a57613c99613c45565b5b828204905092915050565b7f5265656e7472616e637947756172643a207265656e7472616e742063616c6c00600082015250565b6000613cdb601f83613261565b9150613ce682613ca5565b602082019050919050565b60006020820190508181036000830152613d0a81613cce565b9050919050565b7f526563656976657220697320746865207a65726f206164647265737300000000600082015250565b6000613d47601c83613261565b9150613d5282613d11565b602082019050919050565b60006020820190508181036000830152613d7681613d3a565b9050919050565b7f526f79616c746965732070657263656e746167652073686f756c64206265206560008201527f7175616c206f72206c657373207468616e203130302500000000000000000000602082015250565b6000613dd9603683613261565b9150613de482613d7d565b604082019050919050565b60006020820190508181036000830152613e0881613dcc565b9050919050565b7f5369676e617475726520696e76616c6964206f7220756e617574686f72697a6560008201527f6400000000000000000000000000000000000000000000000000000000000000602082015250565b6000613e6b602183613261565b9150613e7682613e0f565b604082019050919050565b60006020820190508181036000830152613e9a81613e5e565b9050919050565b7f496e73756666696369656e742066756e647320746f2072656465656d00000000600082015250565b6000613ed7601c83613261565b9150613ee282613ea1565b602082019050919050565b60006020820190508181036000830152613f0681613eca565b9050919050565b6000613f1882613308565b91507fffffffffffffffffffffffffffffffffffffffffffffffffffffffffffffffff8203613f4a57613f49613bbc565b5b600182019050919050565b600080fd5b600080fd5b600080fd5b60008083356001602003843603038112613f8157613f80613f55565b5b80840192508235915067ffffffffffffffff821115613fa357613fa2613f5a565b5b602083019250600182023603831315613fbf57613fbe613f5f565b5b509250929050565b7f4552433732313a20696e76616c696420746f6b656e2049440000000000000000600082015250565b6000613ffd601883613261565b915061400882613fc7565b602082019050919050565b6000602082019050818103600083015261402c81613ff0565b9050919050565b7f4552433732313a2061646472657373207a65726f206973206e6f74206120766160008201527f6c6964206f776e65720000000000000000000000000000000000000000000000602082015250565b600061408f602983613261565b915061409a82614033565b604082019050919050565b600060208201905081810360008301526140be81614082565b9050919050565b7f4e465473206172652063617070656420746f2031302c30303021000000000000600082015250565b60006140fb601a83613261565b9150614106826140c5565b602082019050919050565b6000602082019050818103600083015261412a816140ee565b9050919050565b7f746f6b656e49642073686f756c642062652067726561746572207468616e207a60008201527f65726f2100000000000000000000000000000000000000000000000000000000602082015250565b600061418d602483613261565b915061419882614131565b604082019050919050565b600060208201905081810360008301526141bc81614180565b9050919050565b6000819050919050565b60006141e86141e36141de846136fb565b6141c3565b613308565b9050919050565b6141f8816141cd565b82525050565b600060c0820190506142136000830189613433565b614220602083018861339d565b61422d604083018761339d565b818103606083015261423f81866132ad565b905061424e60808301856141ef565b61425b60a0830184613433565b979650505050505050565b7f4f776e61626c653a206e6577206f776e657220697320746865207a65726f206160008201527f6464726573730000000000000000000000000000000000000000000000000000602082015250565b60006142c2602683613261565b91506142cd82614266565b604082019050919050565b600060208201905081810360008301526142f1816142b5565b9050919050565b7f4552433732313a207472616e736665722066726f6d20696e636f72726563742060008201527f6f776e6572000000000000000000000000000000000000000000000000000000602082015250565b6000614354602583613261565b915061435f826142f8565b604082019050919050565b6000602082019050818103600083015261438381614347565b9050919050565b7f4552433732313a207472616e7366657220746f20746865207a65726f2061646460008201527f7265737300000000000000000000000000000000000000000000000000000000602082015250565b60006143e6602483613261565b91506143f18261438a565b604082019050919050565b60006020820190508181036000830152614415816143d9565b9050919050565b600061442782613308565b915061443283613308565b925082820390508181111561444a57614449613bbc565b5b92915050565b600061445b82613308565b915061446683613308565b925082820190508082111561447e5761447d613bbc565b5b92915050565b7f4f776e61626c653a2063616c6c6572206973206e6f7420746865206f776e6572600082015250565b60006144ba602083613261565b91506144c582614484565b602082019050919050565b600060208201905081810360008301526144e9816144ad565b9050919050565b6000808335600160200384360303811261450d5761450c613f55565b5b80840192508235915067ffffffffffffffff82111561452f5761452e613f5a565b5b60208301925060018202360383131561454b5761454a613f5f565b5b509250929050565b7f455243323938313a20726f79616c7479206665652077696c6c2065786365656460008201527f2073616c65507269636500000000000000000000000000000000000000000000602082015250565b60006145af602a83613261565b91506145ba82614553565b604082019050919050565b600060208201905081810360008301526145de816145a2565b9050919050565b7f455243323938313a20496e76616c696420706172616d65746572730000000000600082015250565b600061461b601b83613261565b9150614626826145e5565b602082019050919050565b6000602082019050818103600083015261464a8161460e565b9050919050565b7f45524337323155524953746f726167653a2055524920736574206f66206e6f6e60008201527f6578697374656e7420746f6b656e000000000000000000000000000000000000602082015250565b60006146ad602e83613261565b91506146b882614651565b604082019050919050565b600060208201905081810360008301526146dc816146a0565b9050919050565b60008190508160005260206000209050919050565b60006020601f8301049050919050565b600082821b905092915050565b6000600883026147457fffffffffffffffffffffffffffffffffffffffffffffffffffffffffffffffff82614708565b61474f8683614708565b95508019841693508086168417925050509392505050565b600061478261477d61477884613308565b6141c3565b613308565b9050919050565b6000819050919050565b61479c83614767565b6147b06147a882614789565b848454614715565b825550505050565b600090565b6147c56147b8565b6147d0818484614793565b505050565b5b818110156147f4576147e96000826147bd565b6001810190506147d6565b5050565b601f8211156148395761480a816146e3565b614813846146f8565b81016020851015614822578190505b61483661482e856146f8565b8301826147d5565b50505b505050565b600082821c905092915050565b600061485c6000198460080261483e565b1980831691505092915050565b6000614875838361484b565b9150826002028217905092915050565b61488e82613256565b67ffffffffffffffff8111156148a7576148a66135d0565b5b6148b182546139d5565b6148bc8282856147f8565b600060209050601f8311600181146148ef57600084156148dd578287015190505b6148e78582614869565b86555061494f565b601f1984166148fd866146e3565b60005b8281101561492557848901518255600182019150602085019450602081019050614900565b86831015614942578489015161493e601f89168261484b565b8355505b6001600288020188555050505b505050505050565b7f4552433732313a207472616e7366657220746f206e6f6e20455243373231526560008201527f63656976657220696d706c656d656e7465720000000000000000000000000000602082015250565b60006149b3603283613261565b91506149be82614957565b604082019050919050565b600060208201905081810360008301526149e2816149a6565b9050919050565b7f5061757361626c653a2070617573656400000000000000000000000000000000600082015250565b6000614a1f601083613261565b9150614a2a826149e9565b602082019050919050565b60006020820190508181036000830152614a4e81614a12565b9050919050565b7f4552433732313a20617070726f766520746f2063616c6c657200000000000000600082015250565b6000614a8b601983613261565b9150614a9682614a55565b602082019050919050565b60006020820190508181036000830152614aba81614a7e565b9050919050565b600081905092915050565b6000614ad782613256565b614ae18185614ac1565b9350614af1818560208601613272565b80840191505092915050565b6000614b098285614acc565b9150614b158284614acc565b91508190509392505050565b7f5061757361626c653a206e6f7420706175736564000000000000000000000000600082015250565b6000614b57601483613261565b9150614b6282614b21565b602082019050919050565b60006020820190508181036000830152614b8681614b4a565b9050919050565b600081905092915050565b6000614ba48385614b8d565b9350614bb183858461367c565b82840190509392505050565b6000614bca828486614b98565b91508190509392505050565b6000819050919050565b614be981614bd6565b82525050565b600060c082019050614c046000830189614be0565b614c116020830188613433565b614c1e6040830187613433565b614c2b6060830186614be0565b614c386080830185613433565b614c4560a0830184613433565b979650505050505050565b600081519050919050565b600082825260208201905092915050565b6000614c7782614c50565b614c818185614c5b565b9350614c91818560208601613272565b614c9a8161329c565b840191505092915050565b6000608082019050614cba600083018761339d565b614cc7602083018661339d565b614cd46040830185613433565b8181036060830152614ce68184614c6c565b905095945050505050565b600081519050614d00816131c7565b92915050565b600060208284031215614d1c57614d1b613191565b5b6000614d2a84828501614cf1565b91505092915050565b7f4e487b7100000000000000000000000000000000000000000000000000000000600052602160045260246000fd5b7f45434453413a20696e76616c6964207369676e61747572650000000000000000600082015250565b6000614d98601883613261565b9150614da382614d62565b602082019050919050565b60006020820190508181036000830152614dc781614d8b565b9050919050565b7f45434453413a20696e76616c6964207369676e6174757265206c656e67746800600082015250565b6000614e04601f83613261565b9150614e0f82614dce565b602082019050919050565b60006020820190508181036000830152614e3381614df7565b9050919050565b7f45434453413a20696e76616c6964207369676e6174757265202773272076616c60008201527f7565000000000000000000000000000000000000000000000000000000000000602082015250565b6000614e96602283613261565b9150614ea182614e3a565b604082019050919050565b60006020820190508181036000830152614ec581614e89565b9050919050565b7f45434453413a20696e76616c6964207369676e6174757265202776272076616c60008201527f7565000000000000000000000000000000000000000000000000000000000000602082015250565b6000614f28602283613261565b9150614f3382614ecc565b604082019050919050565b60006020820190508181036000830152614f5781614f1b565b9050919050565b7f4552433732313a206d696e7420746f20746865207a65726f2061646472657373600082015250565b6000614f94602083613261565b9150614f9f82614f5e565b602082019050919050565b60006020820190508181036000830152614fc381614f87565b9050919050565b7f4552433732313a20746f6b656e20616c7265616479206d696e74656400000000600082015250565b6000615000601c83613261565b915061500b82614fca565b602082019050919050565b6000602082019050818103600083015261502f81614ff3565b9050919050565b600061504182613308565b915061504c83613308565b92508261505c5761505b613c45565b5b828206905092915050565b7f4e487b7100000000000000000000000000000000000000000000000000000000600052603260045260246000fd5b7f1901000000000000000000000000000000000000000000000000000000000000600082015250565b60006150cc600283614ac1565b91506150d782615096565b600282019050919050565b6000819050919050565b6150fd6150f882614bd6565b6150e2565b82525050565b600061510e826150bf565b915061511a82856150ec565b60208201915061512a82846150ec565b6020820191508190509392505050565b600060ff82169050919050565b6151508161513a565b82525050565b600060808201905061516b6000830187614be0565b6151786020830186615147565b6151856040830185614be0565b6151926060830184614be0565b95945050505050565b600060a0820190506151b06000830188614be0565b6151bd6020830187614be0565b6151ca6040830186614be0565b6151d76060830185613433565b6151e4608083018461339d565b969550505050505056fea26469706673582212206d0f009253ba0ffefc3cc7caedcc8f2db7e6f3ca44384f835302fd88581e5a6164736f6c63430008100033",
  "linkReferences": {},
  "deployedLinkReferences": {}
}