{
  "_format": "hh-sol-artifact-1",
  "contractName": "LedaNFT",
  "sourceName": "contracts/LedaNFT.sol",
  "abi": [
    {
      "inputs": [
        {
          "internalType": "string",
          "name": "name",
          "type": "string"
        },
        {
          "internalType": "string",
          "name": "symbol",
          "type": "string"
        }
      ],
      "stateMutability": "nonpayable",
      "type": "constructor"
    },
    {
      "anonymous": false,
      "inputs": [
        {
          "indexed": true,
          "internalType": "address",
          "name": "owner",
          "type": "address"
        },
        {
          "indexed": true,
          "internalType": "address",
          "name": "approved",
          "type": "address"
        },
        {
          "indexed": true,
          "internalType": "uint256",
          "name": "tokenId",
          "type": "uint256"
        }
      ],
      "name": "Approval",
      "type": "event"
    },
    {
      "anonymous": false,
      "inputs": [
        {
          "indexed": true,
          "internalType": "address",
          "name": "owner",
          "type": "address"
        },
        {
          "indexed": true,
          "internalType": "address",
          "name": "operator",
          "type": "address"
        },
        {
          "indexed": false,
          "internalType": "bool",
          "name": "approved",
          "type": "bool"
        }
      ],
      "name": "ApprovalForAll",
      "type": "event"
    },
    {
      "anonymous": false,
      "inputs": [
        {
          "indexed": false,
          "internalType": "uint256",
          "name": "_nftId",
          "type": "uint256"
        },
        {
          "indexed": false,
          "internalType": "address",
          "name": "_owner",
          "type": "address"
        },
        {
          "indexed": false,
          "internalType": "string",
          "name": "_nftURI",
          "type": "string"
        },
        {
          "indexed": false,
          "internalType": "uint256",
          "name": "_royalties",
          "type": "uint256"
        }
      ],
      "name": "LogNFTMinted",
      "type": "event"
    },
    {
      "anonymous": false,
      "inputs": [
        {
          "indexed": true,
          "internalType": "address",
          "name": "previousOwner",
          "type": "address"
        },
        {
          "indexed": true,
          "internalType": "address",
          "name": "newOwner",
          "type": "address"
        }
      ],
      "name": "OwnershipTransferred",
      "type": "event"
    },
    {
      "anonymous": false,
      "inputs": [
        {
          "indexed": false,
          "internalType": "address",
          "name": "account",
          "type": "address"
        }
      ],
      "name": "Paused",
      "type": "event"
    },
    {
      "anonymous": false,
      "inputs": [
        {
          "indexed": true,
          "internalType": "address",
          "name": "from",
          "type": "address"
        },
        {
          "indexed": true,
          "internalType": "address",
          "name": "to",
          "type": "address"
        },
        {
          "indexed": true,
          "internalType": "uint256",
          "name": "tokenId",
          "type": "uint256"
        }
      ],
      "name": "Transfer",
      "type": "event"
    },
    {
      "anonymous": false,
      "inputs": [
        {
          "indexed": false,
          "internalType": "address",
          "name": "account",
          "type": "address"
        }
      ],
      "name": "Unpaused",
      "type": "event"
    },
    {
      "inputs": [
        {
          "internalType": "address",
          "name": "to",
          "type": "address"
        },
        {
          "internalType": "uint256",
          "name": "tokenId",
          "type": "uint256"
        }
      ],
      "name": "approve",
      "outputs": [],
      "stateMutability": "nonpayable",
      "type": "function"
    },
    {
      "inputs": [
        {
          "internalType": "address",
          "name": "owner",
          "type": "address"
        }
      ],
      "name": "balanceOf",
      "outputs": [
        {
          "internalType": "uint256",
          "name": "",
          "type": "uint256"
        }
      ],
      "stateMutability": "view",
      "type": "function"
    },
    {
      "inputs": [
        {
          "internalType": "uint256",
          "name": "tokenId",
          "type": "uint256"
        }
      ],
      "name": "burn",
      "outputs": [],
      "stateMutability": "nonpayable",
      "type": "function"
    },
    {
      "inputs": [
        {
          "internalType": "uint256",
          "name": "tokenId",
          "type": "uint256"
        }
      ],
      "name": "getApproved",
      "outputs": [
        {
          "internalType": "address",
          "name": "",
          "type": "address"
        }
      ],
      "stateMutability": "view",
      "type": "function"
    },
    {
      "inputs": [],
      "name": "getChainID",
      "outputs": [
        {
          "internalType": "uint256",
          "name": "",
          "type": "uint256"
        }
      ],
      "stateMutability": "view",
      "type": "function"
    },
    {
      "inputs": [],
      "name": "getContractBalance",
      "outputs": [
        {
          "internalType": "uint256",
          "name": "",
          "type": "uint256"
        }
      ],
      "stateMutability": "view",
      "type": "function"
    },
    {
      "inputs": [
        {
          "internalType": "address",
          "name": "owner",
          "type": "address"
        },
        {
          "internalType": "address",
          "name": "operator",
          "type": "address"
        }
      ],
      "name": "isApprovedForAll",
      "outputs": [
        {
          "internalType": "bool",
          "name": "",
          "type": "bool"
        }
      ],
      "stateMutability": "view",
      "type": "function"
    },
    {
      "inputs": [],
      "name": "lazyMintingFee",
      "outputs": [
        {
          "internalType": "uint256",
          "name": "",
          "type": "uint256"
        }
      ],
      "stateMutability": "view",
      "type": "function"
    },
    {
      "inputs": [],
      "name": "maxCreatorRoyalties",
      "outputs": [
        {
          "internalType": "uint256",
          "name": "",
          "type": "uint256"
        }
      ],
      "stateMutability": "view",
      "type": "function"
    },
    {
      "inputs": [
        {
          "internalType": "string",
          "name": "_tokenURI",
          "type": "string"
        },
        {
          "internalType": "uint96",
          "name": "_royaltiesPercentage",
          "type": "uint96"
        }
      ],
      "name": "mint",
      "outputs": [
        {
          "internalType": "uint256",
          "name": "",
          "type": "uint256"
        }
      ],
      "stateMutability": "nonpayable",
      "type": "function"
    },
    {
      "inputs": [],
      "name": "name",
      "outputs": [
        {
          "internalType": "string",
          "name": "",
          "type": "string"
        }
      ],
      "stateMutability": "view",
      "type": "function"
    },
    {
      "inputs": [],
      "name": "owner",
      "outputs": [
        {
          "internalType": "address",
          "name": "",
          "type": "address"
        }
      ],
      "stateMutability": "view",
      "type": "function"
    },
    {
      "inputs": [
        {
          "internalType": "uint256",
          "name": "tokenId",
          "type": "uint256"
        }
      ],
      "name": "ownerOf",
      "outputs": [
        {
          "internalType": "address",
          "name": "",
          "type": "address"
        }
      ],
      "stateMutability": "view",
      "type": "function"
    },
    {
      "inputs": [],
      "name": "pause",
      "outputs": [],
      "stateMutability": "nonpayable",
      "type": "function"
    },
    {
      "inputs": [],
      "name": "paused",
      "outputs": [
        {
          "internalType": "bool",
          "name": "",
          "type": "bool"
        }
      ],
      "stateMutability": "view",
      "type": "function"
    },
    {
      "inputs": [
        {
          "internalType": "address",
          "name": "redeemer",
          "type": "address"
        },
        {
          "components": [
            {
              "internalType": "uint256",
              "name": "minPrice",
              "type": "uint256"
            },
            {
              "internalType": "string",
              "name": "uri",
              "type": "string"
            },
            {
              "internalType": "address",
              "name": "creator",
              "type": "address"
            },
            {
              "internalType": "uint96",
              "name": "royalties",
              "type": "uint96"
            },
            {
              "internalType": "bytes",
              "name": "signature",
              "type": "bytes"
            }
          ],
          "internalType": "struct LedaNFT.NFTVoucher",
          "name": "voucher",
          "type": "tuple"
        }
      ],
      "name": "redeem",
      "outputs": [
        {
          "internalType": "uint256",
          "name": "",
          "type": "uint256"
        }
      ],
      "stateMutability": "payable",
      "type": "function"
    },
    {
      "inputs": [],
      "name": "renounceOwnership",
      "outputs": [],
      "stateMutability": "nonpayable",
      "type": "function"
    },
    {
      "inputs": [
        {
          "internalType": "uint256",
          "name": "_tokenId",
          "type": "uint256"
        },
        {
          "internalType": "uint256",
          "name": "_salePrice",
          "type": "uint256"
        }
      ],
      "name": "royaltyInfo",
      "outputs": [
        {
          "internalType": "address",
          "name": "",
          "type": "address"
        },
        {
          "internalType": "uint256",
          "name": "",
          "type": "uint256"
        }
      ],
      "stateMutability": "view",
      "type": "function"
    },
    {
      "inputs": [
        {
          "internalType": "address",
          "name": "from",
          "type": "address"
        },
        {
          "internalType": "address",
          "name": "to",
          "type": "address"
        },
        {
          "internalType": "uint256",
          "name": "tokenId",
          "type": "uint256"
        }
      ],
      "name": "safeTransferFrom",
      "outputs": [],
      "stateMutability": "nonpayable",
      "type": "function"
    },
    {
      "inputs": [
        {
          "internalType": "address",
          "name": "from",
          "type": "address"
        },
        {
          "internalType": "address",
          "name": "to",
          "type": "address"
        },
        {
          "internalType": "uint256",
          "name": "tokenId",
          "type": "uint256"
        },
        {
          "internalType": "bytes",
          "name": "data",
          "type": "bytes"
        }
      ],
      "name": "safeTransferFrom",
      "outputs": [],
      "stateMutability": "nonpayable",
      "type": "function"
    },
    {
      "inputs": [
        {
          "internalType": "address",
          "name": "operator",
          "type": "address"
        },
        {
          "internalType": "bool",
          "name": "approved",
          "type": "bool"
        }
      ],
      "name": "setApprovalForAll",
      "outputs": [],
      "stateMutability": "nonpayable",
      "type": "function"
    },
    {
      "inputs": [
        {
          "internalType": "uint256",
          "name": "_lazyMintingFee",
          "type": "uint256"
        }
      ],
      "name": "setLazyMintingFee",
      "outputs": [],
      "stateMutability": "nonpayable",
      "type": "function"
    },
    {
      "inputs": [
        {
          "internalType": "uint256",
          "name": "_maxCreatorRoyalties",
          "type": "uint256"
        }
      ],
      "name": "setMaxCreatorRoyalties",
      "outputs": [],
      "stateMutability": "nonpayable",
      "type": "function"
    },
    {
      "inputs": [
        {
          "internalType": "bytes4",
          "name": "interfaceId",
          "type": "bytes4"
        }
      ],
      "name": "supportsInterface",
      "outputs": [
        {
          "internalType": "bool",
          "name": "",
          "type": "bool"
        }
      ],
      "stateMutability": "view",
      "type": "function"
    },
    {
      "inputs": [],
      "name": "symbol",
      "outputs": [
        {
          "internalType": "string",
          "name": "",
          "type": "string"
        }
      ],
      "stateMutability": "view",
      "type": "function"
    },
    {
      "inputs": [
        {
          "internalType": "uint256",
          "name": "index",
          "type": "uint256"
        }
      ],
      "name": "tokenByIndex",
      "outputs": [
        {
          "internalType": "uint256",
          "name": "",
          "type": "uint256"
        }
      ],
      "stateMutability": "view",
      "type": "function"
    },
    {
      "inputs": [],
      "name": "tokenCount",
      "outputs": [
        {
          "internalType": "uint256",
          "name": "_value",
          "type": "uint256"
        }
      ],
      "stateMutability": "view",
      "type": "function"
    },
    {
      "inputs": [
        {
          "internalType": "address",
          "name": "owner",
          "type": "address"
        },
        {
          "internalType": "uint256",
          "name": "index",
          "type": "uint256"
        }
      ],
      "name": "tokenOfOwnerByIndex",
      "outputs": [
        {
          "internalType": "uint256",
          "name": "",
          "type": "uint256"
        }
      ],
      "stateMutability": "view",
      "type": "function"
    },
    {
      "inputs": [
        {
          "internalType": "uint256",
          "name": "tokenId",
          "type": "uint256"
        }
      ],
      "name": "tokenURI",
      "outputs": [
        {
          "internalType": "string",
          "name": "",
          "type": "string"
        }
      ],
      "stateMutability": "view",
      "type": "function"
    },
    {
      "inputs": [],
      "name": "totalSupply",
      "outputs": [
        {
          "internalType": "uint256",
          "name": "",
          "type": "uint256"
        }
      ],
      "stateMutability": "view",
      "type": "function"
    },
    {
      "inputs": [
        {
          "internalType": "address",
          "name": "from",
          "type": "address"
        },
        {
          "internalType": "address",
          "name": "to",
          "type": "address"
        },
        {
          "internalType": "uint256",
          "name": "tokenId",
          "type": "uint256"
        }
      ],
      "name": "transferFrom",
      "outputs": [],
      "stateMutability": "nonpayable",
      "type": "function"
    },
    {
      "inputs": [
        {
          "internalType": "address",
          "name": "newOwner",
          "type": "address"
        }
      ],
      "name": "transferOwnership",
      "outputs": [],
      "stateMutability": "nonpayable",
      "type": "function"
    },
    {
      "inputs": [],
      "name": "unpause",
      "outputs": [],
      "stateMutability": "nonpayable",
      "type": "function"
    },
    {
      "inputs": [],
      "name": "withdraw",
      "outputs": [],
      "stateMutability": "nonpayable",
      "type": "function"
    }
  ],
  "bytecode": "0x6101406040523480156200001257600080fd5b506040516200636438038062006364833981810160405281019062000038919062000476565b6040518060400160405280601081526020017f4c617a794c6564612d566f7563686572000000000000000000000000000000008152506040518060400160405280600181526020017f310000000000000000000000000000000000000000000000000000000000000081525083838160009081620000b7919062000746565b508060019081620000c9919062000746565b50505060008280519060200120905060008280519060200120905060007f8b73c3c69bb8fe3d512ecc4cf759cc79239f7b179b0ffacaa9a75d522b39400f90508260e081815250508161010081815250504660a0818152505062000135818484620001d960201b60201c565b608081815250503073ffffffffffffffffffffffffffffffffffffffff1660c08173ffffffffffffffffffffffffffffffffffffffff1681525050806101208181525050505050505060016008819055506000600e60006101000a81548160ff021916908315150217905550620001c1620001b56200021560201b60201c565b6200021d60201b60201c565b606460118190555060326012819055505050620008fb565b60008383834630604051602001620001f69594939291906200089e565b6040516020818303038152906040528051906020012090509392505050565b600033905090565b6000600e60019054906101000a900473ffffffffffffffffffffffffffffffffffffffff16905081600e60016101000a81548173ffffffffffffffffffffffffffffffffffffffff021916908373ffffffffffffffffffffffffffffffffffffffff1602179055508173ffffffffffffffffffffffffffffffffffffffff168173ffffffffffffffffffffffffffffffffffffffff167f8be0079c531659141344cd1fd0a4f28419497f9722a3daafe3b4186f6b6457e060405160405180910390a35050565b6000604051905090565b600080fd5b600080fd5b600080fd5b600080fd5b6000601f19601f8301169050919050565b7f4e487b7100000000000000000000000000000000000000000000000000000000600052604160045260246000fd5b6200034c8262000301565b810181811067ffffffffffffffff821117156200036e576200036d62000312565b5b80604052505050565b600062000383620002e3565b905062000391828262000341565b919050565b600067ffffffffffffffff821115620003b457620003b362000312565b5b620003bf8262000301565b9050602081019050919050565b60005b83811015620003ec578082015181840152602081019050620003cf565b60008484015250505050565b60006200040f620004098462000396565b62000377565b9050828152602081018484840111156200042e576200042d620002fc565b5b6200043b848285620003cc565b509392505050565b600082601f8301126200045b576200045a620002f7565b5b81516200046d848260208601620003f8565b91505092915050565b6000806040838503121562000490576200048f620002ed565b5b600083015167ffffffffffffffff811115620004b157620004b0620002f2565b5b620004bf8582860162000443565b925050602083015167ffffffffffffffff811115620004e357620004e2620002f2565b5b620004f18582860162000443565b9150509250929050565b600081519050919050565b7f4e487b7100000000000000000000000000000000000000000000000000000000600052602260045260246000fd5b600060028204905060018216806200054e57607f821691505b60208210810362000564576200056362000506565b5b50919050565b60008190508160005260206000209050919050565b60006020601f8301049050919050565b600082821b905092915050565b600060088302620005ce7fffffffffffffffffffffffffffffffffffffffffffffffffffffffffffffffff826200058f565b620005da86836200058f565b95508019841693508086168417925050509392505050565b6000819050919050565b6000819050919050565b600062000627620006216200061b84620005f2565b620005fc565b620005f2565b9050919050565b6000819050919050565b620006438362000606565b6200065b62000652826200062e565b8484546200059c565b825550505050565b600090565b6200067262000663565b6200067f81848462000638565b505050565b5b81811015620006a7576200069b60008262000668565b60018101905062000685565b5050565b601f821115620006f657620006c0816200056a565b620006cb846200057f565b81016020851015620006db578190505b620006f3620006ea856200057f565b83018262000684565b50505b505050565b600082821c905092915050565b60006200071b60001984600802620006fb565b1980831691505092915050565b600062000736838362000708565b9150826002028217905092915050565b6200075182620004fb565b67ffffffffffffffff8111156200076d576200076c62000312565b5b62000779825462000535565b62000786828285620006ab565b600060209050601f831160018114620007be5760008415620007a9578287015190505b620007b5858262000728565b86555062000825565b601f198416620007ce866200056a565b60005b82811015620007f857848901518255600182019150602085019450602081019050620007d1565b8683101562000818578489015162000814601f89168262000708565b8355505b6001600288020188555050505b505050505050565b6000819050919050565b62000842816200082d565b82525050565b6200085381620005f2565b82525050565b600073ffffffffffffffffffffffffffffffffffffffff82169050919050565b6000620008868262000859565b9050919050565b620008988162000879565b82525050565b600060a082019050620008b5600083018862000837565b620008c4602083018762000837565b620008d3604083018662000837565b620008e2606083018562000848565b620008f160808301846200088d565b9695505050505050565b60805160a05160c05160e0516101005161012051615a196200094b600039600061345d0152600061349f0152600061347e015260006133b301526000613409015260006134320152615a196000f3fe6080604052600436106101f95760003560e01c80636352211e1161010d57806397adec68116100a0578063b88d4fde1161006f578063b88d4fde14610703578063c87b56dd1461072c578063cbbb20a414610769578063e985e9c5146107a6578063f2fde38b146107e3576101f9565b806397adec68146106545780639f181b5e14610684578063a22cb465146106af578063a8af6677146106d8576101f9565b80637e554ba0116100dc5780637e554ba0146105be5780638456cb59146105e75780638da5cb5b146105fe57806395d89b4114610629576101f9565b80636352211e146105025780636f9fb98a1461053f57806370a082311461056a578063715018a6146105a7576101f9565b80633ccfd60b1161019057806342966c681161015f57806342966c681461041d57806344cedfef146104465780634f6ccce71461046f578063564b81ef146104ac5780635c975abb146104d7576101f9565b80633ccfd60b1461039b5780633f4ba83a146103b25780633fb4b693146103c957806342842e0e146103f4576101f9565b806318160ddd116101cc57806318160ddd146102cc57806323b872dd146102f75780632a55205a146103205780632f745c591461035e576101f9565b806301ffc9a7146101fe57806306fdde031461023b578063081812fc14610266578063095ea7b3146102a3575b600080fd5b34801561020a57600080fd5b50610225600480360381019061022091906138e4565b61080c565b604051610232919061392c565b60405180910390f35b34801561024757600080fd5b5061025061081e565b60405161025d91906139d7565b60405180910390f35b34801561027257600080fd5b5061028d60048036038101906102889190613a2f565b6108b0565b60405161029a9190613a9d565b60405180910390f35b3480156102af57600080fd5b506102ca60048036038101906102c59190613ae4565b6108f6565b005b3480156102d857600080fd5b506102e1610a0d565b6040516102ee9190613b33565b60405180910390f35b34801561030357600080fd5b5061031e60048036038101906103199190613b4e565b610a1a565b005b34801561032c57600080fd5b5061034760048036038101906103429190613ba1565b610a7a565b604051610355929190613be1565b60405180910390f35b34801561036a57600080fd5b5061038560048036038101906103809190613ae4565b610c64565b6040516103929190613b33565b60405180910390f35b3480156103a757600080fd5b506103b0610d09565b005b3480156103be57600080fd5b506103c7610db6565b005b3480156103d557600080fd5b506103de610dc8565b6040516103eb9190613b33565b60405180910390f35b34801561040057600080fd5b5061041b60048036038101906104169190613b4e565b610dce565b005b34801561042957600080fd5b50610444600480360381019061043f9190613a2f565b610dee565b005b34801561045257600080fd5b5061046d60048036038101906104689190613a2f565b610e4a565b005b34801561047b57600080fd5b5061049660048036038101906104919190613a2f565b610e5c565b6040516104a39190613b33565b60405180910390f35b3480156104b857600080fd5b506104c1610ecd565b6040516104ce9190613b33565b60405180910390f35b3480156104e357600080fd5b506104ec610eda565b6040516104f9919061392c565b60405180910390f35b34801561050e57600080fd5b5061052960048036038101906105249190613a2f565b610ef1565b6040516105369190613a9d565b60405180910390f35b34801561054b57600080fd5b50610554610fa2565b6040516105619190613b33565b60405180910390f35b34801561057657600080fd5b50610591600480360381019061058c9190613c0a565b610fb2565b60405161059e9190613b33565b60405180910390f35b3480156105b357600080fd5b506105bc611069565b005b3480156105ca57600080fd5b506105e560048036038101906105e09190613a2f565b61107d565b005b3480156105f357600080fd5b506105fc61108f565b005b34801561060a57600080fd5b506106136110a1565b6040516106209190613a9d565b60405180910390f35b34801561063557600080fd5b5061063e6110cb565b60405161064b91906139d7565b60405180910390f35b61066e60048036038101906106699190613c5b565b61115d565b60405161067b9190613b33565b60405180910390f35b34801561069057600080fd5b50610699611491565b6040516106a69190613b33565b60405180910390f35b3480156106bb57600080fd5b506106d660048036038101906106d19190613ce3565b61149d565b005b3480156106e457600080fd5b506106ed6114b3565b6040516106fa9190613b33565b60405180910390f35b34801561070f57600080fd5b5061072a60048036038101906107259190613e58565b6114b9565b005b34801561073857600080fd5b50610753600480360381019061074e9190613a2f565b61151b565b60405161076091906139d7565b60405180910390f35b34801561077557600080fd5b50610790600480360381019061078b9190613fc0565b61152d565b60405161079d9190613b33565b60405180910390f35b3480156107b257600080fd5b506107cd60048036038101906107c8919061401c565b611626565b6040516107da919061392c565b60405180910390f35b3480156107ef57600080fd5b5061080a60048036038101906108059190613c0a565b6116ba565b005b60006108178261173d565b9050919050565b60606000805461082d9061408b565b80601f01602080910402602001604051908101604052809291908181526020018280546108599061408b565b80156108a65780601f1061087b576101008083540402835291602001916108a6565b820191906000526020600020905b81548152906001019060200180831161088957829003601f168201915b5050505050905090565b60006108bb826117b7565b6004600083815260200190815260200160002060009054906101000a900473ffffffffffffffffffffffffffffffffffffffff169050919050565b600061090182610ef1565b90508073ffffffffffffffffffffffffffffffffffffffff168373ffffffffffffffffffffffffffffffffffffffff1603610971576040517f08c379a00000000000000000000000000000000000000000000000000000000081526004016109689061412e565b60405180910390fd5b8073ffffffffffffffffffffffffffffffffffffffff16610990611802565b73ffffffffffffffffffffffffffffffffffffffff1614806109bf57506109be816109b9611802565b611626565b5b6109fe576040517f08c379a00000000000000000000000000000000000000000000000000000000081526004016109f5906141c0565b60405180910390fd5b610a08838361180a565b505050565b6000600b80549050905090565b610a2b610a25611802565b826118c3565b610a6a576040517f08c379a0000000000000000000000000000000000000000000000000000000008152600401610a6190614252565b60405180910390fd5b610a75838383611958565b505050565b6000806000600760008681526020019081526020016000206040518060400160405290816000820160009054906101000a900473ffffffffffffffffffffffffffffffffffffffff1673ffffffffffffffffffffffffffffffffffffffff1673ffffffffffffffffffffffffffffffffffffffff1681526020016000820160149054906101000a90046bffffffffffffffffffffffff166bffffffffffffffffffffffff166bffffffffffffffffffffffff16815250509050600073ffffffffffffffffffffffffffffffffffffffff16816000015173ffffffffffffffffffffffffffffffffffffffff1603610c0f5760066040518060400160405290816000820160009054906101000a900473ffffffffffffffffffffffffffffffffffffffff1673ffffffffffffffffffffffffffffffffffffffff1673ffffffffffffffffffffffffffffffffffffffff1681526020016000820160149054906101000a90046bffffffffffffffffffffffff166bffffffffffffffffffffffff166bffffffffffffffffffffffff168152505090505b6000610c19611bbe565b6bffffffffffffffffffffffff1682602001516bffffffffffffffffffffffff1686610c4591906142a1565b610c4f919061432a565b90508160000151819350935050509250929050565b6000610c6f83610fb2565b8210610cb0576040517f08c379a0000000000000000000000000000000000000000000000000000000008152600401610ca7906143cd565b60405180910390fd5b600960008473ffffffffffffffffffffffffffffffffffffffff1673ffffffffffffffffffffffffffffffffffffffff168152602001908152602001600020600083815260200190815260200160002054905092915050565b610d11611bc8565b600260085403610d56576040517f08c379a0000000000000000000000000000000000000000000000000000000008152600401610d4d90614439565b60405180910390fd5b6002600881905550610d666110a1565b73ffffffffffffffffffffffffffffffffffffffff166108fc479081150290604051600060405180830381858888f19350505050158015610dab573d6000803e3d6000fd5b506001600881905550565b610dbe611bc8565b610dc6611c46565b565b60115481565b610de9838383604051806020016040528060008152506114b9565b505050565b610dff610df9611802565b826118c3565b610e3e576040517f08c379a0000000000000000000000000000000000000000000000000000000008152600401610e3590614252565b60405180910390fd5b610e4781611ca9565b50565b610e52611bc8565b8060128190555050565b6000610e66610a0d565b8210610ea7576040517f08c379a0000000000000000000000000000000000000000000000000000000008152600401610e9e906144cb565b60405180910390fd5b600b8281548110610ebb57610eba6144eb565b5b90600052602060002001549050919050565b6000804690508091505090565b6000600e60009054906101000a900460ff16905090565b6000806002600084815260200190815260200160002060009054906101000a900473ffffffffffffffffffffffffffffffffffffffff169050600073ffffffffffffffffffffffffffffffffffffffff168173ffffffffffffffffffffffffffffffffffffffff1603610f99576040517f08c379a0000000000000000000000000000000000000000000000000000000008152600401610f9090614566565b60405180910390fd5b80915050919050565b6000610fac611bc8565b47905090565b60008073ffffffffffffffffffffffffffffffffffffffff168273ffffffffffffffffffffffffffffffffffffffff1603611022576040517f08c379a0000000000000000000000000000000000000000000000000000000008152600401611019906145f8565b60405180910390fd5b600360008373ffffffffffffffffffffffffffffffffffffffff1673ffffffffffffffffffffffffffffffffffffffff168152602001908152602001600020549050919050565b611071611bc8565b61107b6000611cb5565b565b611085611bc8565b8060118190555050565b611097611bc8565b61109f611d7b565b565b6000600e60019054906101000a900473ffffffffffffffffffffffffffffffffffffffff16905090565b6060600180546110da9061408b565b80601f01602080910402602001604051908101604052809291908181526020018280546111069061408b565b80156111535780601f1061112857610100808354040283529160200191611153565b820191906000526020600020905b81548152906001019060200180831161113657829003601f168201915b5050505050905090565b60006002600854036111a4576040517f08c379a000000000000000000000000000000000000000000000000000000000815260040161119b90614439565b60405180910390fd5b6002600881905550600f60008380608001906111c09190614627565b6040516111ce9291906146ba565b6040518091039020815260200190815260200160002060009054906101000a900460ff1615611232576040517f08c379a00000000000000000000000000000000000000000000000000000000081526004016112299061471f565b60405180910390fd5b8160000135341015611279576040517f08c379a00000000000000000000000000000000000000000000000000000000081526004016112709061478b565b60405180910390fd5b600061128483611dde565b90508260400160208101906112999190613c0a565b73ffffffffffffffffffffffffffffffffffffffff168173ffffffffffffffffffffffffffffffffffffffff1614611306576040517f08c379a00000000000000000000000000000000000000000000000000000000081526004016112fd9061481d565b60405180910390fd5b6001600f600085806080019061131c9190614627565b60405161132a9291906146ba565b6040518091039020815260200190815260200160002060006101000a81548160ff0219169083151502179055506000806113c98386806020019061136e919061483d565b8080601f016020809104026020016040519081016040528093929190818152602001838380828437600081840152601f19601f820116905080830192505050505050508760600160208101906113c491906148a0565b611e50565b915091508161140d576040517f08c379a000000000000000000000000000000000000000000000000000000000815260040161140490614919565b60405180910390fd5b61142883878360405180602001604052806000815250611eed565b600061143334611f49565b90508373ffffffffffffffffffffffffffffffffffffffff166108fc829081150290604051600060405180830381858888f1935050505015801561147b573d6000803e3d6000fd5b5081945050505050600160088190555092915050565b60108060000154905081565b6114af6114a8611802565b8383611f7d565b5050565b60125481565b6114ca6114c4611802565b836118c3565b611509576040517f08c379a000000000000000000000000000000000000000000000000000000000815260040161150090614252565b60405180910390fd5b61151584848484611eed565b50505050565b6060611526826120e9565b9050919050565b60006115376121fb565b60026008540361157c576040517f08c379a000000000000000000000000000000000000000000000000000000000815260040161157390614439565b60405180910390fd5b6002600881905550600080611592338686611e50565b91509150816115d6576040517f08c379a00000000000000000000000000000000000000000000000000000000081526004016115cd90614985565b60405180910390fd5b7f0a87c421f7b51fcf9008064b31bb04f137ea9ec7c7a7d2dca02ae6380ef2a9148133878760405161160b94939291906149e0565b60405180910390a18092505050600160088190555092915050565b6000600560008473ffffffffffffffffffffffffffffffffffffffff1673ffffffffffffffffffffffffffffffffffffffff16815260200190815260200160002060008373ffffffffffffffffffffffffffffffffffffffff1673ffffffffffffffffffffffffffffffffffffffff16815260200190815260200160002060009054906101000a900460ff16905092915050565b6116c2611bc8565b600073ffffffffffffffffffffffffffffffffffffffff168173ffffffffffffffffffffffffffffffffffffffff1603611731576040517f08c379a000000000000000000000000000000000000000000000000000000000815260040161172890614a9e565b60405180910390fd5b61173a81611cb5565b50565b60007f780e9d63000000000000000000000000000000000000000000000000000000007bffffffffffffffffffffffffffffffffffffffffffffffffffffffff1916827bffffffffffffffffffffffffffffffffffffffffffffffffffffffff191614806117b057506117af82612245565b5b9050919050565b6117c0816122bf565b6117ff576040517f08c379a00000000000000000000000000000000000000000000000000000000081526004016117f690614566565b60405180910390fd5b50565b600033905090565b816004600083815260200190815260200160002060006101000a81548173ffffffffffffffffffffffffffffffffffffffff021916908373ffffffffffffffffffffffffffffffffffffffff160217905550808273ffffffffffffffffffffffffffffffffffffffff1661187d83610ef1565b73ffffffffffffffffffffffffffffffffffffffff167f8c5be1e5ebec7d5bd14f71427d1e84f3dd0314c0f7b2291e5b200ac8c7c3b92560405160405180910390a45050565b6000806118cf83610ef1565b90508073ffffffffffffffffffffffffffffffffffffffff168473ffffffffffffffffffffffffffffffffffffffff16148061191157506119108185611626565b5b8061194f57508373ffffffffffffffffffffffffffffffffffffffff16611937846108b0565b73ffffffffffffffffffffffffffffffffffffffff16145b91505092915050565b8273ffffffffffffffffffffffffffffffffffffffff1661197882610ef1565b73ffffffffffffffffffffffffffffffffffffffff16146119ce576040517f08c379a00000000000000000000000000000000000000000000000000000000081526004016119c590614b30565b60405180910390fd5b600073ffffffffffffffffffffffffffffffffffffffff168273ffffffffffffffffffffffffffffffffffffffff1603611a3d576040517f08c379a0000000000000000000000000000000000000000000000000000000008152600401611a3490614bc2565b60405180910390fd5b611a4883838361232b565b611a5360008261180a565b6001600360008573ffffffffffffffffffffffffffffffffffffffff1673ffffffffffffffffffffffffffffffffffffffff1681526020019081526020016000206000828254611aa39190614be2565b925050819055506001600360008473ffffffffffffffffffffffffffffffffffffffff1673ffffffffffffffffffffffffffffffffffffffff1681526020019081526020016000206000828254611afa9190614c16565b92505081905550816002600083815260200190815260200160002060006101000a81548173ffffffffffffffffffffffffffffffffffffffff021916908373ffffffffffffffffffffffffffffffffffffffff160217905550808273ffffffffffffffffffffffffffffffffffffffff168473ffffffffffffffffffffffffffffffffffffffff167fddf252ad1be2c89b69c2b068fc378daa952ba7f163c4a11628f55a4df523b3ef60405160405180910390a4611bb9838383612343565b505050565b60006103e8905090565b611bd0611802565b73ffffffffffffffffffffffffffffffffffffffff16611bee6110a1565b73ffffffffffffffffffffffffffffffffffffffff1614611c44576040517f08c379a0000000000000000000000000000000000000000000000000000000008152600401611c3b90614c96565b60405180910390fd5b565b611c4e612348565b6000600e60006101000a81548160ff0219169083151502179055507f5db9ee0a495bf2e6ff9c91a7834c1ba4fdd244a5e8aa4e537bd38aeae4b073aa611c92611802565b604051611c9f9190613a9d565b60405180910390a1565b611cb281612391565b50565b6000600e60019054906101000a900473ffffffffffffffffffffffffffffffffffffffff16905081600e60016101000a81548173ffffffffffffffffffffffffffffffffffffffff021916908373ffffffffffffffffffffffffffffffffffffffff1602179055508173ffffffffffffffffffffffffffffffffffffffff168173ffffffffffffffffffffffffffffffffffffffff167f8be0079c531659141344cd1fd0a4f28419497f9722a3daafe3b4186f6b6457e060405160405180910390a35050565b611d836121fb565b6001600e60006101000a81548160ff0219169083151502179055507f62e78cea01bee320cd4e420270b5ea74000d11b0c9f74754ebdbfc544b05a258611dc7611802565b604051611dd49190613a9d565b60405180910390a1565b600080611dea836123e4565b9050611e4881848060800190611e009190614627565b8080601f016020809104026020016040519081016040528093929190818152602001838380828437600081840152601f19601f82011690508083019250505050505050612491565b915050919050565b600080601154836bffffffffffffffffffffffff161115611ea6576040517f08c379a0000000000000000000000000000000000000000000000000000000008152600401611e9d90614d28565b60405180910390fd5b611eb060106124b8565b6000611ebc60106124ce565b9050611ec98187866124dc565b611ed38682612683565b611edd81866126a1565b6001819250925050935093915050565b611ef8848484611958565b611f048484848461270e565b611f43576040517f08c379a0000000000000000000000000000000000000000000000000000000008152600401611f3a90614dba565b60405180910390fd5b50505050565b6000806103e860125484611f5d91906142a1565b611f67919061432a565b90508083611f759190614be2565b915050919050565b8173ffffffffffffffffffffffffffffffffffffffff168373ffffffffffffffffffffffffffffffffffffffff1603611feb576040517f08c379a0000000000000000000000000000000000000000000000000000000008152600401611fe290614e26565b60405180910390fd5b80600560008573ffffffffffffffffffffffffffffffffffffffff1673ffffffffffffffffffffffffffffffffffffffff16815260200190815260200160002060008473ffffffffffffffffffffffffffffffffffffffff1673ffffffffffffffffffffffffffffffffffffffff16815260200190815260200160002060006101000a81548160ff0219169083151502179055508173ffffffffffffffffffffffffffffffffffffffff168373ffffffffffffffffffffffffffffffffffffffff167f17307eab39ab6107e8899845ad3d59bd9653f200f220920489ca2b5937696c31836040516120dc919061392c565b60405180910390a3505050565b60606120f4826117b7565b6000600d600084815260200190815260200160002080546121149061408b565b80601f01602080910402602001604051908101604052809291908181526020018280546121409061408b565b801561218d5780601f106121625761010080835404028352916020019161218d565b820191906000526020600020905b81548152906001019060200180831161217057829003601f168201915b50505050509050600061219e612895565b905060008151036121b35781925050506121f6565b6000825111156121e85780826040516020016121d0929190614e82565b604051602081830303815290604052925050506121f6565b6121f1846128ac565b925050505b919050565b612203610eda565b15612243576040517f08c379a000000000000000000000000000000000000000000000000000000000815260040161223a90614ef2565b60405180910390fd5b565b60007f2a55205a000000000000000000000000000000000000000000000000000000007bffffffffffffffffffffffffffffffffffffffffffffffffffffffff1916827bffffffffffffffffffffffffffffffffffffffffffffffffffffffff191614806122b857506122b782612914565b5b9050919050565b60008073ffffffffffffffffffffffffffffffffffffffff166002600084815260200190815260200160002060009054906101000a900473ffffffffffffffffffffffffffffffffffffffff1673ffffffffffffffffffffffffffffffffffffffff1614159050919050565b6123336121fb565b61233e8383836129f6565b505050565b505050565b612350610eda565b61238f576040517f08c379a000000000000000000000000000000000000000000000000000000000815260040161238690614f5e565b60405180910390fd5b565b61239a81612b08565b6000600d600083815260200190815260200160002080546123ba9061408b565b9050146123e157600d600082815260200190815260200160002060006123e0919061381b565b5b50565b600061248a7f39a8e02ac0fe4bc78f74b0662ddd419d8e03ed49bd0eb02fec603b7bfb6f8dac836000013584806020019061241f919061483d565b60405161242d9291906146ba565b60405180910390208560400160208101906124489190613c0a565b86606001602081019061245b91906148a0565b60405160200161246f959493929190614fa6565b60405160208183030381529060405280519060200120612c25565b9050919050565b60008060006124a08585612c3f565b915091506124ad81612c90565b819250505092915050565b6001816000016000828254019250508190555050565b600081600001549050919050565b6124e4611bbe565b6bffffffffffffffffffffffff16816bffffffffffffffffffffffff161115612542576040517f08c379a00000000000000000000000000000000000000000000000000000000081526004016125399061506b565b60405180910390fd5b600073ffffffffffffffffffffffffffffffffffffffff168273ffffffffffffffffffffffffffffffffffffffff16036125b1576040517f08c379a00000000000000000000000000000000000000000000000000000000081526004016125a8906150d7565b60405180910390fd5b60405180604001604052808373ffffffffffffffffffffffffffffffffffffffff168152602001826bffffffffffffffffffffffff168152506007600085815260200190815260200160002060008201518160000160006101000a81548173ffffffffffffffffffffffffffffffffffffffff021916908373ffffffffffffffffffffffffffffffffffffffff16021790555060208201518160000160146101000a8154816bffffffffffffffffffffffff02191690836bffffffffffffffffffffffff160217905550905050505050565b61269d828260405180602001604052806000815250612e5c565b5050565b6126aa826122bf565b6126e9576040517f08c379a00000000000000000000000000000000000000000000000000000000081526004016126e090615169565b60405180910390fd5b80600d60008481526020019081526020016000209081612709919061532b565b505050565b600061272f8473ffffffffffffffffffffffffffffffffffffffff16612eb7565b15612888578373ffffffffffffffffffffffffffffffffffffffff1663150b7a02612758611802565b8786866040518563ffffffff1660e01b815260040161277a9493929190615452565b6020604051808303816000875af19250505080156127b657506040513d601f19601f820116820180604052508101906127b391906154b3565b60015b612838573d80600081146127e6576040519150601f19603f3d011682016040523d82523d6000602084013e6127eb565b606091505b506000815103612830576040517f08c379a000000000000000000000000000000000000000000000000000000000815260040161282790614dba565b60405180910390fd5b805181602001fd5b63150b7a0260e01b7bffffffffffffffffffffffffffffffffffffffffffffffffffffffff1916817bffffffffffffffffffffffffffffffffffffffffffffffffffffffff19161491505061288d565b600190505b949350505050565b606060405180602001604052806000815250905090565b60606128b7826117b7565b60006128c1612895565b905060008151116128e1576040518060200160405280600081525061290c565b806128eb84612eda565b6040516020016128fc929190614e82565b6040516020818303038152906040525b915050919050565b60007f80ac58cd000000000000000000000000000000000000000000000000000000007bffffffffffffffffffffffffffffffffffffffffffffffffffffffff1916827bffffffffffffffffffffffffffffffffffffffffffffffffffffffff191614806129df57507f5b5e139f000000000000000000000000000000000000000000000000000000007bffffffffffffffffffffffffffffffffffffffffffffffffffffffff1916827bffffffffffffffffffffffffffffffffffffffffffffffffffffffff1916145b806129ef57506129ee8261303a565b5b9050919050565b612a018383836130a4565b600073ffffffffffffffffffffffffffffffffffffffff168373ffffffffffffffffffffffffffffffffffffffff1603612a4357612a3e816130a9565b612a82565b8173ffffffffffffffffffffffffffffffffffffffff168373ffffffffffffffffffffffffffffffffffffffff1614612a8157612a8083826130f2565b5b5b600073ffffffffffffffffffffffffffffffffffffffff168273ffffffffffffffffffffffffffffffffffffffff1603612ac457612abf8161325f565b612b03565b8273ffffffffffffffffffffffffffffffffffffffff168273ffffffffffffffffffffffffffffffffffffffff1614612b0257612b018282613330565b5b5b505050565b6000612b1382610ef1565b9050612b218160008461232b565b612b2c60008361180a565b6001600360008373ffffffffffffffffffffffffffffffffffffffff1673ffffffffffffffffffffffffffffffffffffffff1681526020019081526020016000206000828254612b7c9190614be2565b925050819055506002600083815260200190815260200160002060006101000a81549073ffffffffffffffffffffffffffffffffffffffff021916905581600073ffffffffffffffffffffffffffffffffffffffff168273ffffffffffffffffffffffffffffffffffffffff167fddf252ad1be2c89b69c2b068fc378daa952ba7f163c4a11628f55a4df523b3ef60405160405180910390a4612c2181600084612343565b5050565b6000612c38612c326133af565b836134c9565b9050919050565b6000806041835103612c805760008060006020860151925060408601519150606086015160001a9050612c74878285856134fc565b94509450505050612c89565b60006002915091505b9250929050565b60006004811115612ca457612ca36154e0565b5b816004811115612cb757612cb66154e0565b5b0315612e595760016004811115612cd157612cd06154e0565b5b816004811115612ce457612ce36154e0565b5b03612d24576040517f08c379a0000000000000000000000000000000000000000000000000000000008152600401612d1b9061555b565b60405180910390fd5b60026004811115612d3857612d376154e0565b5b816004811115612d4b57612d4a6154e0565b5b03612d8b576040517f08c379a0000000000000000000000000000000000000000000000000000000008152600401612d82906155c7565b60405180910390fd5b60036004811115612d9f57612d9e6154e0565b5b816004811115612db257612db16154e0565b5b03612df2576040517f08c379a0000000000000000000000000000000000000000000000000000000008152600401612de990615659565b60405180910390fd5b600480811115612e0557612e046154e0565b5b816004811115612e1857612e176154e0565b5b03612e58576040517f08c379a0000000000000000000000000000000000000000000000000000000008152600401612e4f906156eb565b60405180910390fd5b5b50565b612e668383613608565b612e73600084848461270e565b612eb2576040517f08c379a0000000000000000000000000000000000000000000000000000000008152600401612ea990614dba565b60405180910390fd5b505050565b6000808273ffffffffffffffffffffffffffffffffffffffff163b119050919050565b606060008203612f21576040518060400160405280600181526020017f30000000000000000000000000000000000000000000000000000000000000008152509050613035565b600082905060005b60008214612f53578080612f3c9061570b565b915050600a82612f4c919061432a565b9150612f29565b60008167ffffffffffffffff811115612f6f57612f6e613d2d565b5b6040519080825280601f01601f191660200182016040528015612fa15781602001600182028036833780820191505090505b5090505b6000851461302e57600182612fba9190614be2565b9150600a85612fc99190615753565b6030612fd59190614c16565b60f81b818381518110612feb57612fea6144eb565b5b60200101907effffffffffffffffffffffffffffffffffffffffffffffffffffffffffffff1916908160001a905350600a85613027919061432a565b9450612fa5565b8093505050505b919050565b60007f01ffc9a7000000000000000000000000000000000000000000000000000000007bffffffffffffffffffffffffffffffffffffffffffffffffffffffff1916827bffffffffffffffffffffffffffffffffffffffffffffffffffffffff1916149050919050565b505050565b600b80549050600c600083815260200190815260200160002081905550600b81908060018154018082558091505060019003906000526020600020016000909190919091505550565b600060016130ff84610fb2565b6131099190614be2565b90506000600a60008481526020019081526020016000205490508181146131ee576000600960008673ffffffffffffffffffffffffffffffffffffffff1673ffffffffffffffffffffffffffffffffffffffff168152602001908152602001600020600084815260200190815260200160002054905080600960008773ffffffffffffffffffffffffffffffffffffffff1673ffffffffffffffffffffffffffffffffffffffff16815260200190815260200160002060008481526020019081526020016000208190555081600a600083815260200190815260200160002081905550505b600a600084815260200190815260200160002060009055600960008573ffffffffffffffffffffffffffffffffffffffff1673ffffffffffffffffffffffffffffffffffffffff16815260200190815260200160002060008381526020019081526020016000206000905550505050565b60006001600b805490506132739190614be2565b90506000600c60008481526020019081526020016000205490506000600b83815481106132a3576132a26144eb565b5b9060005260206000200154905080600b83815481106132c5576132c46144eb565b5b906000526020600020018190555081600c600083815260200190815260200160002081905550600c600085815260200190815260200160002060009055600b80548061331457613313615784565b5b6001900381819060005260206000200160009055905550505050565b600061333b83610fb2565b905081600960008573ffffffffffffffffffffffffffffffffffffffff1673ffffffffffffffffffffffffffffffffffffffff16815260200190815260200160002060008381526020019081526020016000208190555080600a600084815260200190815260200160002081905550505050565b60007f000000000000000000000000000000000000000000000000000000000000000073ffffffffffffffffffffffffffffffffffffffff163073ffffffffffffffffffffffffffffffffffffffff1614801561342b57507f000000000000000000000000000000000000000000000000000000000000000046145b15613458577f000000000000000000000000000000000000000000000000000000000000000090506134c6565b6134c37f00000000000000000000000000000000000000000000000000000000000000007f00000000000000000000000000000000000000000000000000000000000000007f00000000000000000000000000000000000000000000000000000000000000006137e1565b90505b90565b600082826040516020016134de929190615820565b60405160208183030381529060405280519060200120905092915050565b6000807f7fffffffffffffffffffffffffffffff5d576e7357a4501ddfe92f46681b20a08360001c11156135375760006003915091506135ff565b601b8560ff161415801561354f5750601c8560ff1614155b156135615760006004915091506135ff565b6000600187878787604051600081526020016040526040516135869493929190615873565b6020604051602081039080840390855afa1580156135a8573d6000803e3d6000fd5b505050602060405103519050600073ffffffffffffffffffffffffffffffffffffffff168173ffffffffffffffffffffffffffffffffffffffff16036135f6576000600192509250506135ff565b80600092509250505b94509492505050565b600073ffffffffffffffffffffffffffffffffffffffff168273ffffffffffffffffffffffffffffffffffffffff1603613677576040517f08c379a000000000000000000000000000000000000000000000000000000000815260040161366e90615904565b60405180910390fd5b613680816122bf565b156136c0576040517f08c379a00000000000000000000000000000000000000000000000000000000081526004016136b790615970565b60405180910390fd5b6136cc6000838361232b565b6001600360008473ffffffffffffffffffffffffffffffffffffffff1673ffffffffffffffffffffffffffffffffffffffff168152602001908152602001600020600082825461371c9190614c16565b92505081905550816002600083815260200190815260200160002060006101000a81548173ffffffffffffffffffffffffffffffffffffffff021916908373ffffffffffffffffffffffffffffffffffffffff160217905550808273ffffffffffffffffffffffffffffffffffffffff16600073ffffffffffffffffffffffffffffffffffffffff167fddf252ad1be2c89b69c2b068fc378daa952ba7f163c4a11628f55a4df523b3ef60405160405180910390a46137dd60008383612343565b5050565b600083838346306040516020016137fc959493929190615990565b6040516020818303038152906040528051906020012090509392505050565b5080546138279061408b565b6000825580601f106138395750613858565b601f016020900490600052602060002090810190613857919061385b565b5b50565b5b8082111561387457600081600090555060010161385c565b5090565b6000604051905090565b600080fd5b600080fd5b60007fffffffff0000000000000000000000000000000000000000000000000000000082169050919050565b6138c18161388c565b81146138cc57600080fd5b50565b6000813590506138de816138b8565b92915050565b6000602082840312156138fa576138f9613882565b5b6000613908848285016138cf565b91505092915050565b60008115159050919050565b61392681613911565b82525050565b6000602082019050613941600083018461391d565b92915050565b600081519050919050565b600082825260208201905092915050565b60005b83811015613981578082015181840152602081019050613966565b60008484015250505050565b6000601f19601f8301169050919050565b60006139a982613947565b6139b38185613952565b93506139c3818560208601613963565b6139cc8161398d565b840191505092915050565b600060208201905081810360008301526139f1818461399e565b905092915050565b6000819050919050565b613a0c816139f9565b8114613a1757600080fd5b50565b600081359050613a2981613a03565b92915050565b600060208284031215613a4557613a44613882565b5b6000613a5384828501613a1a565b91505092915050565b600073ffffffffffffffffffffffffffffffffffffffff82169050919050565b6000613a8782613a5c565b9050919050565b613a9781613a7c565b82525050565b6000602082019050613ab26000830184613a8e565b92915050565b613ac181613a7c565b8114613acc57600080fd5b50565b600081359050613ade81613ab8565b92915050565b60008060408385031215613afb57613afa613882565b5b6000613b0985828601613acf565b9250506020613b1a85828601613a1a565b9150509250929050565b613b2d816139f9565b82525050565b6000602082019050613b486000830184613b24565b92915050565b600080600060608486031215613b6757613b66613882565b5b6000613b7586828701613acf565b9350506020613b8686828701613acf565b9250506040613b9786828701613a1a565b9150509250925092565b60008060408385031215613bb857613bb7613882565b5b6000613bc685828601613a1a565b9250506020613bd785828601613a1a565b9150509250929050565b6000604082019050613bf66000830185613a8e565b613c036020830184613b24565b9392505050565b600060208284031215613c2057613c1f613882565b5b6000613c2e84828501613acf565b91505092915050565b600080fd5b600060a08284031215613c5257613c51613c37565b5b81905092915050565b60008060408385031215613c7257613c71613882565b5b6000613c8085828601613acf565b925050602083013567ffffffffffffffff811115613ca157613ca0613887565b5b613cad85828601613c3c565b9150509250929050565b613cc081613911565b8114613ccb57600080fd5b50565b600081359050613cdd81613cb7565b92915050565b60008060408385031215613cfa57613cf9613882565b5b6000613d0885828601613acf565b9250506020613d1985828601613cce565b9150509250929050565b600080fd5b600080fd5b7f4e487b7100000000000000000000000000000000000000000000000000000000600052604160045260246000fd5b613d658261398d565b810181811067ffffffffffffffff82111715613d8457613d83613d2d565b5b80604052505050565b6000613d97613878565b9050613da38282613d5c565b919050565b600067ffffffffffffffff821115613dc357613dc2613d2d565b5b613dcc8261398d565b9050602081019050919050565b82818337600083830152505050565b6000613dfb613df684613da8565b613d8d565b905082815260208101848484011115613e1757613e16613d28565b5b613e22848285613dd9565b509392505050565b600082601f830112613e3f57613e3e613d23565b5b8135613e4f848260208601613de8565b91505092915050565b60008060008060808587031215613e7257613e71613882565b5b6000613e8087828801613acf565b9450506020613e9187828801613acf565b9350506040613ea287828801613a1a565b925050606085013567ffffffffffffffff811115613ec357613ec2613887565b5b613ecf87828801613e2a565b91505092959194509250565b600067ffffffffffffffff821115613ef657613ef5613d2d565b5b613eff8261398d565b9050602081019050919050565b6000613f1f613f1a84613edb565b613d8d565b905082815260208101848484011115613f3b57613f3a613d28565b5b613f46848285613dd9565b509392505050565b600082601f830112613f6357613f62613d23565b5b8135613f73848260208601613f0c565b91505092915050565b60006bffffffffffffffffffffffff82169050919050565b613f9d81613f7c565b8114613fa857600080fd5b50565b600081359050613fba81613f94565b92915050565b60008060408385031215613fd757613fd6613882565b5b600083013567ffffffffffffffff811115613ff557613ff4613887565b5b61400185828601613f4e565b925050602061401285828601613fab565b9150509250929050565b6000806040838503121561403357614032613882565b5b600061404185828601613acf565b925050602061405285828601613acf565b9150509250929050565b7f4e487b7100000000000000000000000000000000000000000000000000000000600052602260045260246000fd5b600060028204905060018216806140a357607f821691505b6020821081036140b6576140b561405c565b5b50919050565b7f4552433732313a20617070726f76616c20746f2063757272656e74206f776e6560008201527f7200000000000000000000000000000000000000000000000000000000000000602082015250565b6000614118602183613952565b9150614123826140bc565b604082019050919050565b600060208201905081810360008301526141478161410b565b9050919050565b7f4552433732313a20617070726f76652063616c6c6572206973206e6f7420746f60008201527f6b656e206f776e6572206e6f7220617070726f76656420666f7220616c6c0000602082015250565b60006141aa603e83613952565b91506141b58261414e565b604082019050919050565b600060208201905081810360008301526141d98161419d565b9050919050565b7f4552433732313a2063616c6c6572206973206e6f7420746f6b656e206f776e6560008201527f72206e6f7220617070726f766564000000000000000000000000000000000000602082015250565b600061423c602e83613952565b9150614247826141e0565b604082019050919050565b6000602082019050818103600083015261426b8161422f565b9050919050565b7f4e487b7100000000000000000000000000000000000000000000000000000000600052601160045260246000fd5b60006142ac826139f9565b91506142b7836139f9565b9250817fffffffffffffffffffffffffffffffffffffffffffffffffffffffffffffffff04831182151516156142f0576142ef614272565b5b828202905092915050565b7f4e487b7100000000000000000000000000000000000000000000000000000000600052601260045260246000fd5b6000614335826139f9565b9150614340836139f9565b9250826143505761434f6142fb565b5b828204905092915050565b7f455243373231456e756d657261626c653a206f776e657220696e646578206f7560008201527f74206f6620626f756e6473000000000000000000000000000000000000000000602082015250565b60006143b7602b83613952565b91506143c28261435b565b604082019050919050565b600060208201905081810360008301526143e6816143aa565b9050919050565b7f5265656e7472616e637947756172643a207265656e7472616e742063616c6c00600082015250565b6000614423601f83613952565b915061442e826143ed565b602082019050919050565b6000602082019050818103600083015261445281614416565b9050919050565b7f455243373231456e756d657261626c653a20676c6f62616c20696e646578206f60008201527f7574206f6620626f756e64730000000000000000000000000000000000000000602082015250565b60006144b5602c83613952565b91506144c082614459565b604082019050919050565b600060208201905081810360008301526144e4816144a8565b9050919050565b7f4e487b7100000000000000000000000000000000000000000000000000000000600052603260045260246000fd5b7f4552433732313a20696e76616c696420746f6b656e2049440000000000000000600082015250565b6000614550601883613952565b915061455b8261451a565b602082019050919050565b6000602082019050818103600083015261457f81614543565b9050919050565b7f4552433732313a2061646472657373207a65726f206973206e6f74206120766160008201527f6c6964206f776e65720000000000000000000000000000000000000000000000602082015250565b60006145e2602983613952565b91506145ed82614586565b604082019050919050565b60006020820190508181036000830152614611816145d5565b9050919050565b600080fd5b600080fd5b600080fd5b6000808335600160200384360303811261464457614643614618565b5b80840192508235915067ffffffffffffffff8211156146665761466561461d565b5b60208301925060018202360383131561468257614681614622565b5b509250929050565b600081905092915050565b60006146a1838561468a565b93506146ae838584613dd9565b82840190509392505050565b60006146c7828486614695565b91508190509392505050565b7f54686520766f756368657220686173206265656e2072656465656d6564210000600082015250565b6000614709601e83613952565b9150614714826146d3565b602082019050919050565b60006020820190508181036000830152614738816146fc565b9050919050565b7f496e73756666696369656e742066756e647320746f2072656465656d00000000600082015250565b6000614775601c83613952565b91506147808261473f565b602082019050919050565b600060208201905081810360008301526147a481614768565b9050919050565b7f5369676e617475726520696e76616c6964206f7220756e617574686f72697a6560008201527f6400000000000000000000000000000000000000000000000000000000000000602082015250565b6000614807602183613952565b9150614812826147ab565b604082019050919050565b60006020820190508181036000830152614836816147fa565b9050919050565b6000808335600160200384360303811261485a57614859614618565b5b80840192508235915067ffffffffffffffff82111561487c5761487b61461d565b5b60208301925060018202360383131561489857614897614622565b5b509250929050565b6000602082840312156148b6576148b5613882565b5b60006148c484828501613fab565b91505092915050565b7f4c617a79206d696e74696e67206661696c656421000000000000000000000000600082015250565b6000614903601483613952565b915061490e826148cd565b602082019050919050565b60006020820190508181036000830152614932816148f6565b9050919050565b7f4d696e74696e67206661696c6564210000000000000000000000000000000000600082015250565b600061496f600f83613952565b915061497a82614939565b602082019050919050565b6000602082019050818103600083015261499e81614962565b9050919050565b6000819050919050565b60006149ca6149c56149c084613f7c565b6149a5565b6139f9565b9050919050565b6149da816149af565b82525050565b60006080820190506149f56000830187613b24565b614a026020830186613a8e565b8181036040830152614a14818561399e565b9050614a2360608301846149d1565b95945050505050565b7f4f776e61626c653a206e6577206f776e657220697320746865207a65726f206160008201527f6464726573730000000000000000000000000000000000000000000000000000602082015250565b6000614a88602683613952565b9150614a9382614a2c565b604082019050919050565b60006020820190508181036000830152614ab781614a7b565b9050919050565b7f4552433732313a207472616e736665722066726f6d20696e636f72726563742060008201527f6f776e6572000000000000000000000000000000000000000000000000000000602082015250565b6000614b1a602583613952565b9150614b2582614abe565b604082019050919050565b60006020820190508181036000830152614b4981614b0d565b9050919050565b7f4552433732313a207472616e7366657220746f20746865207a65726f2061646460008201527f7265737300000000000000000000000000000000000000000000000000000000602082015250565b6000614bac602483613952565b9150614bb782614b50565b604082019050919050565b60006020820190508181036000830152614bdb81614b9f565b9050919050565b6000614bed826139f9565b9150614bf8836139f9565b9250828203905081811115614c1057614c0f614272565b5b92915050565b6000614c21826139f9565b9150614c2c836139f9565b9250828201905080821115614c4457614c43614272565b5b92915050565b7f4f776e61626c653a2063616c6c6572206973206e6f7420746865206f776e6572600082015250565b6000614c80602083613952565b9150614c8b82614c4a565b602082019050919050565b60006020820190508181036000830152614caf81614c73565b9050919050565b7f526f79616c746965732070657263656e7461676520657863656564732074686560008201527f206d6178696d756d2076616c7565210000000000000000000000000000000000602082015250565b6000614d12602f83613952565b9150614d1d82614cb6565b604082019050919050565b60006020820190508181036000830152614d4181614d05565b9050919050565b7f4552433732313a207472616e7366657220746f206e6f6e20455243373231526560008201527f63656976657220696d706c656d656e7465720000000000000000000000000000602082015250565b6000614da4603283613952565b9150614daf82614d48565b604082019050919050565b60006020820190508181036000830152614dd381614d97565b9050919050565b7f4552433732313a20617070726f766520746f2063616c6c657200000000000000600082015250565b6000614e10601983613952565b9150614e1b82614dda565b602082019050919050565b60006020820190508181036000830152614e3f81614e03565b9050919050565b600081905092915050565b6000614e5c82613947565b614e668185614e46565b9350614e76818560208601613963565b80840191505092915050565b6000614e8e8285614e51565b9150614e9a8284614e51565b91508190509392505050565b7f5061757361626c653a2070617573656400000000000000000000000000000000600082015250565b6000614edc601083613952565b9150614ee782614ea6565b602082019050919050565b60006020820190508181036000830152614f0b81614ecf565b9050919050565b7f5061757361626c653a206e6f7420706175736564000000000000000000000000600082015250565b6000614f48601483613952565b9150614f5382614f12565b602082019050919050565b60006020820190508181036000830152614f7781614f3b565b9050919050565b6000819050919050565b614f9181614f7e565b82525050565b614fa081613f7c565b82525050565b600060a082019050614fbb6000830188614f88565b614fc86020830187613b24565b614fd56040830186614f88565b614fe26060830185613a8e565b614fef6080830184614f97565b9695505050505050565b7f455243323938313a20726f79616c7479206665652077696c6c2065786365656460008201527f2073616c65507269636500000000000000000000000000000000000000000000602082015250565b6000615055602a83613952565b915061506082614ff9565b604082019050919050565b6000602082019050818103600083015261508481615048565b9050919050565b7f455243323938313a20496e76616c696420706172616d65746572730000000000600082015250565b60006150c1601b83613952565b91506150cc8261508b565b602082019050919050565b600060208201905081810360008301526150f0816150b4565b9050919050565b7f45524337323155524953746f726167653a2055524920736574206f66206e6f6e60008201527f6578697374656e7420746f6b656e000000000000000000000000000000000000602082015250565b6000615153602e83613952565b915061515e826150f7565b604082019050919050565b6000602082019050818103600083015261518281615146565b9050919050565b60008190508160005260206000209050919050565b60006020601f8301049050919050565b600082821b905092915050565b6000600883026151eb7fffffffffffffffffffffffffffffffffffffffffffffffffffffffffffffffff826151ae565b6151f586836151ae565b95508019841693508086168417925050509392505050565b600061522861522361521e846139f9565b6149a5565b6139f9565b9050919050565b6000819050919050565b6152428361520d565b61525661524e8261522f565b8484546151bb565b825550505050565b600090565b61526b61525e565b615276818484615239565b505050565b5b8181101561529a5761528f600082615263565b60018101905061527c565b5050565b601f8211156152df576152b081615189565b6152b98461519e565b810160208510156152c8578190505b6152dc6152d48561519e565b83018261527b565b50505b505050565b600082821c905092915050565b6000615302600019846008026152e4565b1980831691505092915050565b600061531b83836152f1565b9150826002028217905092915050565b61533482613947565b67ffffffffffffffff81111561534d5761534c613d2d565b5b615357825461408b565b61536282828561529e565b600060209050601f8311600181146153955760008415615383578287015190505b61538d858261530f565b8655506153f5565b601f1984166153a386615189565b60005b828110156153cb578489015182556001820191506020850194506020810190506153a6565b868310156153e857848901516153e4601f8916826152f1565b8355505b6001600288020188555050505b505050505050565b600081519050919050565b600082825260208201905092915050565b6000615424826153fd565b61542e8185615408565b935061543e818560208601613963565b6154478161398d565b840191505092915050565b60006080820190506154676000830187613a8e565b6154746020830186613a8e565b6154816040830185613b24565b81810360608301526154938184615419565b905095945050505050565b6000815190506154ad816138b8565b92915050565b6000602082840312156154c9576154c8613882565b5b60006154d78482850161549e565b91505092915050565b7f4e487b7100000000000000000000000000000000000000000000000000000000600052602160045260246000fd5b7f45434453413a20696e76616c6964207369676e61747572650000000000000000600082015250565b6000615545601883613952565b91506155508261550f565b602082019050919050565b6000602082019050818103600083015261557481615538565b9050919050565b7f45434453413a20696e76616c6964207369676e6174757265206c656e67746800600082015250565b60006155b1601f83613952565b91506155bc8261557b565b602082019050919050565b600060208201905081810360008301526155e0816155a4565b9050919050565b7f45434453413a20696e76616c6964207369676e6174757265202773272076616c60008201527f7565000000000000000000000000000000000000000000000000000000000000602082015250565b6000615643602283613952565b915061564e826155e7565b604082019050919050565b6000602082019050818103600083015261567281615636565b9050919050565b7f45434453413a20696e76616c6964207369676e6174757265202776272076616c60008201527f7565000000000000000000000000000000000000000000000000000000000000602082015250565b60006156d5602283613952565b91506156e082615679565b604082019050919050565b60006020820190508181036000830152615704816156c8565b9050919050565b6000615716826139f9565b91507fffffffffffffffffffffffffffffffffffffffffffffffffffffffffffffffff820361574857615747614272565b5b600182019050919050565b600061575e826139f9565b9150615769836139f9565b925082615779576157786142fb565b5b828206905092915050565b7f4e487b7100000000000000000000000000000000000000000000000000000000600052603160045260246000fd5b7f1901000000000000000000000000000000000000000000000000000000000000600082015250565b60006157e9600283614e46565b91506157f4826157b3565b600282019050919050565b6000819050919050565b61581a61581582614f7e565b6157ff565b82525050565b600061582b826157dc565b91506158378285615809565b6020820191506158478284615809565b6020820191508190509392505050565b600060ff82169050919050565b61586d81615857565b82525050565b60006080820190506158886000830187614f88565b6158956020830186615864565b6158a26040830185614f88565b6158af6060830184614f88565b95945050505050565b7f4552433732313a206d696e7420746f20746865207a65726f2061646472657373600082015250565b60006158ee602083613952565b91506158f9826158b8565b602082019050919050565b6000602082019050818103600083015261591d816158e1565b9050919050565b7f4552433732313a20746f6b656e20616c7265616479206d696e74656400000000600082015250565b600061595a601c83613952565b915061596582615924565b602082019050919050565b600060208201905081810360008301526159898161594d565b9050919050565b600060a0820190506159a56000830188614f88565b6159b26020830187614f88565b6159bf6040830186614f88565b6159cc6060830185613b24565b6159d96080830184613a8e565b969550505050505056fea2646970667358221220336a671948eb119f22d95a6a7e8fcb9bb14eaabf01fd8bdef9123577189c731164736f6c63430008100033",
  "linkReferences": {},
  "deployedLinkReferences": {}
}