{
  "_format": "hh-sol-artifact-1",
  "contractName": "LedaNFT",
  "sourceName": "contracts/LedaNFT.sol",
  "abi": [
    {
      "inputs": [
        {
          "internalType": "string",
          "name": "_nameLeda",
          "type": "string"
        },
        {
          "internalType": "string",
          "name": "_symbolLeda",
          "type": "string"
        }
      ],
      "stateMutability": "nonpayable",
      "type": "constructor"
    },
    {
      "anonymous": false,
      "inputs": [
        {
          "indexed": true,
          "internalType": "address",
          "name": "owner",
          "type": "address"
        },
        {
          "indexed": true,
          "internalType": "address",
          "name": "approved",
          "type": "address"
        },
        {
          "indexed": true,
          "internalType": "uint256",
          "name": "tokenId",
          "type": "uint256"
        }
      ],
      "name": "Approval",
      "type": "event"
    },
    {
      "anonymous": false,
      "inputs": [
        {
          "indexed": true,
          "internalType": "address",
          "name": "owner",
          "type": "address"
        },
        {
          "indexed": true,
          "internalType": "address",
          "name": "operator",
          "type": "address"
        },
        {
          "indexed": false,
          "internalType": "bool",
          "name": "approved",
          "type": "bool"
        }
      ],
      "name": "ApprovalForAll",
      "type": "event"
    },
    {
      "anonymous": false,
      "inputs": [
        {
          "indexed": false,
          "internalType": "uint256",
          "name": "_nftId",
          "type": "uint256"
        },
        {
          "indexed": false,
          "internalType": "address",
          "name": "_owner",
          "type": "address"
        },
        {
          "indexed": false,
          "internalType": "string",
          "name": "_nftURI",
          "type": "string"
        },
        {
          "indexed": false,
          "internalType": "uint256",
          "name": "_royalties",
          "type": "uint256"
        }
      ],
      "name": "LogNFTMinted",
      "type": "event"
    },
    {
      "anonymous": false,
      "inputs": [
        {
          "indexed": false,
          "internalType": "uint256",
          "name": "newLazyMintingFee",
          "type": "uint256"
        }
      ],
      "name": "LogSetLazyMintingFee",
      "type": "event"
    },
    {
      "anonymous": false,
      "inputs": [
        {
          "indexed": false,
          "internalType": "uint256",
          "name": "newMaxCreatorRoyalties",
          "type": "uint256"
        }
      ],
      "name": "LogSetMaxCreatorRoyalties",
      "type": "event"
    },
    {
      "anonymous": false,
      "inputs": [
        {
          "indexed": true,
          "internalType": "address",
          "name": "previousOwner",
          "type": "address"
        },
        {
          "indexed": true,
          "internalType": "address",
          "name": "newOwner",
          "type": "address"
        }
      ],
      "name": "OwnershipTransferred",
      "type": "event"
    },
    {
      "anonymous": false,
      "inputs": [
        {
          "indexed": false,
          "internalType": "address",
          "name": "account",
          "type": "address"
        }
      ],
      "name": "Paused",
      "type": "event"
    },
    {
      "anonymous": false,
      "inputs": [
        {
          "indexed": true,
          "internalType": "address",
          "name": "from",
          "type": "address"
        },
        {
          "indexed": true,
          "internalType": "address",
          "name": "to",
          "type": "address"
        },
        {
          "indexed": true,
          "internalType": "uint256",
          "name": "tokenId",
          "type": "uint256"
        }
      ],
      "name": "Transfer",
      "type": "event"
    },
    {
      "anonymous": false,
      "inputs": [
        {
          "indexed": false,
          "internalType": "address",
          "name": "account",
          "type": "address"
        }
      ],
      "name": "Unpaused",
      "type": "event"
    },
    {
      "inputs": [
        {
          "internalType": "address",
          "name": "to",
          "type": "address"
        },
        {
          "internalType": "uint256",
          "name": "tokenId",
          "type": "uint256"
        }
      ],
      "name": "approve",
      "outputs": [],
      "stateMutability": "nonpayable",
      "type": "function"
    },
    {
      "inputs": [
        {
          "internalType": "address",
          "name": "owner",
          "type": "address"
        }
      ],
      "name": "balanceOf",
      "outputs": [
        {
          "internalType": "uint256",
          "name": "",
          "type": "uint256"
        }
      ],
      "stateMutability": "view",
      "type": "function"
    },
    {
      "inputs": [
        {
          "internalType": "uint256",
          "name": "tokenId",
          "type": "uint256"
        }
      ],
      "name": "burn",
      "outputs": [],
      "stateMutability": "nonpayable",
      "type": "function"
    },
    {
      "inputs": [
        {
          "internalType": "uint256",
          "name": "tokenId",
          "type": "uint256"
        }
      ],
      "name": "getApproved",
      "outputs": [
        {
          "internalType": "address",
          "name": "",
          "type": "address"
        }
      ],
      "stateMutability": "view",
      "type": "function"
    },
    {
      "inputs": [],
      "name": "getChainID",
      "outputs": [
        {
          "internalType": "uint256",
          "name": "",
          "type": "uint256"
        }
      ],
      "stateMutability": "view",
      "type": "function"
    },
    {
      "inputs": [],
      "name": "getContractBalance",
      "outputs": [
        {
          "internalType": "uint256",
          "name": "",
          "type": "uint256"
        }
      ],
      "stateMutability": "view",
      "type": "function"
    },
    {
      "inputs": [
        {
          "internalType": "address",
          "name": "owner",
          "type": "address"
        },
        {
          "internalType": "address",
          "name": "operator",
          "type": "address"
        }
      ],
      "name": "isApprovedForAll",
      "outputs": [
        {
          "internalType": "bool",
          "name": "",
          "type": "bool"
        }
      ],
      "stateMutability": "view",
      "type": "function"
    },
    {
      "inputs": [],
      "name": "lazyMintingFee",
      "outputs": [
        {
          "internalType": "uint256",
          "name": "",
          "type": "uint256"
        }
      ],
      "stateMutability": "view",
      "type": "function"
    },
    {
      "inputs": [],
      "name": "maxCreatorRoyalties",
      "outputs": [
        {
          "internalType": "uint256",
          "name": "",
          "type": "uint256"
        }
      ],
      "stateMutability": "view",
      "type": "function"
    },
    {
      "inputs": [
        {
          "internalType": "string",
          "name": "_tokenURI",
          "type": "string"
        },
        {
          "internalType": "uint96",
          "name": "_royaltiesPercentage",
          "type": "uint96"
        }
      ],
      "name": "mint",
      "outputs": [
        {
          "internalType": "uint256",
          "name": "",
          "type": "uint256"
        }
      ],
      "stateMutability": "nonpayable",
      "type": "function"
    },
    {
      "inputs": [],
      "name": "name",
      "outputs": [
        {
          "internalType": "string",
          "name": "",
          "type": "string"
        }
      ],
      "stateMutability": "view",
      "type": "function"
    },
    {
      "inputs": [],
      "name": "owner",
      "outputs": [
        {
          "internalType": "address",
          "name": "",
          "type": "address"
        }
      ],
      "stateMutability": "view",
      "type": "function"
    },
    {
      "inputs": [
        {
          "internalType": "uint256",
          "name": "tokenId",
          "type": "uint256"
        }
      ],
      "name": "ownerOf",
      "outputs": [
        {
          "internalType": "address",
          "name": "",
          "type": "address"
        }
      ],
      "stateMutability": "view",
      "type": "function"
    },
    {
      "inputs": [],
      "name": "pause",
      "outputs": [],
      "stateMutability": "nonpayable",
      "type": "function"
    },
    {
      "inputs": [],
      "name": "paused",
      "outputs": [
        {
          "internalType": "bool",
          "name": "",
          "type": "bool"
        }
      ],
      "stateMutability": "view",
      "type": "function"
    },
    {
      "inputs": [
        {
          "internalType": "address",
          "name": "redeemer",
          "type": "address"
        },
        {
          "components": [
            {
              "internalType": "uint256",
              "name": "minPrice",
              "type": "uint256"
            },
            {
              "internalType": "string",
              "name": "uri",
              "type": "string"
            },
            {
              "internalType": "address",
              "name": "creator",
              "type": "address"
            },
            {
              "internalType": "uint96",
              "name": "royalties",
              "type": "uint96"
            },
            {
              "internalType": "bytes",
              "name": "signature",
              "type": "bytes"
            }
          ],
          "internalType": "struct LedaNFT.NFTVoucher",
          "name": "voucher",
          "type": "tuple"
        }
      ],
      "name": "redeem",
      "outputs": [
        {
          "internalType": "uint256",
          "name": "",
          "type": "uint256"
        }
      ],
      "stateMutability": "payable",
      "type": "function"
    },
    {
      "inputs": [],
      "name": "renounceOwnership",
      "outputs": [],
      "stateMutability": "nonpayable",
      "type": "function"
    },
    {
      "inputs": [
        {
          "internalType": "uint256",
          "name": "_tokenId",
          "type": "uint256"
        },
        {
          "internalType": "uint256",
          "name": "_salePrice",
          "type": "uint256"
        }
      ],
      "name": "royaltyInfo",
      "outputs": [
        {
          "internalType": "address",
          "name": "",
          "type": "address"
        },
        {
          "internalType": "uint256",
          "name": "",
          "type": "uint256"
        }
      ],
      "stateMutability": "view",
      "type": "function"
    },
    {
      "inputs": [
        {
          "internalType": "address",
          "name": "from",
          "type": "address"
        },
        {
          "internalType": "address",
          "name": "to",
          "type": "address"
        },
        {
          "internalType": "uint256",
          "name": "tokenId",
          "type": "uint256"
        }
      ],
      "name": "safeTransferFrom",
      "outputs": [],
      "stateMutability": "nonpayable",
      "type": "function"
    },
    {
      "inputs": [
        {
          "internalType": "address",
          "name": "from",
          "type": "address"
        },
        {
          "internalType": "address",
          "name": "to",
          "type": "address"
        },
        {
          "internalType": "uint256",
          "name": "tokenId",
          "type": "uint256"
        },
        {
          "internalType": "bytes",
          "name": "data",
          "type": "bytes"
        }
      ],
      "name": "safeTransferFrom",
      "outputs": [],
      "stateMutability": "nonpayable",
      "type": "function"
    },
    {
      "inputs": [
        {
          "internalType": "address",
          "name": "operator",
          "type": "address"
        },
        {
          "internalType": "bool",
          "name": "approved",
          "type": "bool"
        }
      ],
      "name": "setApprovalForAll",
      "outputs": [],
      "stateMutability": "nonpayable",
      "type": "function"
    },
    {
      "inputs": [
        {
          "internalType": "uint256",
          "name": "_lazyMintingFee",
          "type": "uint256"
        }
      ],
      "name": "setLazyMintingFee",
      "outputs": [],
      "stateMutability": "nonpayable",
      "type": "function"
    },
    {
      "inputs": [
        {
          "internalType": "uint256",
          "name": "_maxCreatorRoyalties",
          "type": "uint256"
        }
      ],
      "name": "setMaxCreatorRoyalties",
      "outputs": [],
      "stateMutability": "nonpayable",
      "type": "function"
    },
    {
      "inputs": [
        {
          "internalType": "bytes4",
          "name": "interfaceId",
          "type": "bytes4"
        }
      ],
      "name": "supportsInterface",
      "outputs": [
        {
          "internalType": "bool",
          "name": "",
          "type": "bool"
        }
      ],
      "stateMutability": "view",
      "type": "function"
    },
    {
      "inputs": [],
      "name": "symbol",
      "outputs": [
        {
          "internalType": "string",
          "name": "",
          "type": "string"
        }
      ],
      "stateMutability": "view",
      "type": "function"
    },
    {
      "inputs": [
        {
          "internalType": "uint256",
          "name": "index",
          "type": "uint256"
        }
      ],
      "name": "tokenByIndex",
      "outputs": [
        {
          "internalType": "uint256",
          "name": "",
          "type": "uint256"
        }
      ],
      "stateMutability": "view",
      "type": "function"
    },
    {
      "inputs": [],
      "name": "tokenCount",
      "outputs": [
        {
          "internalType": "uint256",
          "name": "_value",
          "type": "uint256"
        }
      ],
      "stateMutability": "view",
      "type": "function"
    },
    {
      "inputs": [
        {
          "internalType": "address",
          "name": "owner",
          "type": "address"
        },
        {
          "internalType": "uint256",
          "name": "index",
          "type": "uint256"
        }
      ],
      "name": "tokenOfOwnerByIndex",
      "outputs": [
        {
          "internalType": "uint256",
          "name": "",
          "type": "uint256"
        }
      ],
      "stateMutability": "view",
      "type": "function"
    },
    {
      "inputs": [
        {
          "internalType": "uint256",
          "name": "tokenId",
          "type": "uint256"
        }
      ],
      "name": "tokenURI",
      "outputs": [
        {
          "internalType": "string",
          "name": "",
          "type": "string"
        }
      ],
      "stateMutability": "view",
      "type": "function"
    },
    {
      "inputs": [],
      "name": "totalSupply",
      "outputs": [
        {
          "internalType": "uint256",
          "name": "",
          "type": "uint256"
        }
      ],
      "stateMutability": "view",
      "type": "function"
    },
    {
      "inputs": [
        {
          "internalType": "address",
          "name": "from",
          "type": "address"
        },
        {
          "internalType": "address",
          "name": "to",
          "type": "address"
        },
        {
          "internalType": "uint256",
          "name": "tokenId",
          "type": "uint256"
        }
      ],
      "name": "transferFrom",
      "outputs": [],
      "stateMutability": "nonpayable",
      "type": "function"
    },
    {
      "inputs": [
        {
          "internalType": "address",
          "name": "newOwner",
          "type": "address"
        }
      ],
      "name": "transferOwnership",
      "outputs": [],
      "stateMutability": "nonpayable",
      "type": "function"
    },
    {
      "inputs": [],
      "name": "unpause",
      "outputs": [],
      "stateMutability": "nonpayable",
      "type": "function"
    },
    {
      "inputs": [],
      "name": "withdraw",
      "outputs": [],
      "stateMutability": "nonpayable",
      "type": "function"
    }
  ],
  "bytecode": "0x6101406040523480156200001257600080fd5b506040516200683f3803806200683f833981810160405281019062000038919062000476565b6040518060400160405280601081526020017f4c617a794c6564612d566f7563686572000000000000000000000000000000008152506040518060400160405280600181526020017f310000000000000000000000000000000000000000000000000000000000000081525083838160009081620000b7919062000746565b508060019081620000c9919062000746565b50505060008280519060200120905060008280519060200120905060007f8b73c3c69bb8fe3d512ecc4cf759cc79239f7b179b0ffacaa9a75d522b39400f90508260e081815250508161010081815250504660a0818152505062000135818484620001d960201b60201c565b608081815250503073ffffffffffffffffffffffffffffffffffffffff1660c08173ffffffffffffffffffffffffffffffffffffffff1681525050806101208181525050505050505060016008819055506000600e60006101000a81548160ff021916908315150217905550620001c1620001b56200021560201b60201c565b6200021d60201b60201c565b606460118190555060326012819055505050620008fb565b60008383834630604051602001620001f69594939291906200089e565b6040516020818303038152906040528051906020012090509392505050565b600033905090565b6000600e60019054906101000a900473ffffffffffffffffffffffffffffffffffffffff16905081600e60016101000a81548173ffffffffffffffffffffffffffffffffffffffff021916908373ffffffffffffffffffffffffffffffffffffffff1602179055508173ffffffffffffffffffffffffffffffffffffffff168173ffffffffffffffffffffffffffffffffffffffff167f8be0079c531659141344cd1fd0a4f28419497f9722a3daafe3b4186f6b6457e060405160405180910390a35050565b6000604051905090565b600080fd5b600080fd5b600080fd5b600080fd5b6000601f19601f8301169050919050565b7f4e487b7100000000000000000000000000000000000000000000000000000000600052604160045260246000fd5b6200034c8262000301565b810181811067ffffffffffffffff821117156200036e576200036d62000312565b5b80604052505050565b600062000383620002e3565b905062000391828262000341565b919050565b600067ffffffffffffffff821115620003b457620003b362000312565b5b620003bf8262000301565b9050602081019050919050565b60005b83811015620003ec578082015181840152602081019050620003cf565b60008484015250505050565b60006200040f620004098462000396565b62000377565b9050828152602081018484840111156200042e576200042d620002fc565b5b6200043b848285620003cc565b509392505050565b600082601f8301126200045b576200045a620002f7565b5b81516200046d848260208601620003f8565b91505092915050565b6000806040838503121562000490576200048f620002ed565b5b600083015167ffffffffffffffff811115620004b157620004b0620002f2565b5b620004bf8582860162000443565b925050602083015167ffffffffffffffff811115620004e357620004e2620002f2565b5b620004f18582860162000443565b9150509250929050565b600081519050919050565b7f4e487b7100000000000000000000000000000000000000000000000000000000600052602260045260246000fd5b600060028204905060018216806200054e57607f821691505b60208210810362000564576200056362000506565b5b50919050565b60008190508160005260206000209050919050565b60006020601f8301049050919050565b600082821b905092915050565b600060088302620005ce7fffffffffffffffffffffffffffffffffffffffffffffffffffffffffffffffff826200058f565b620005da86836200058f565b95508019841693508086168417925050509392505050565b6000819050919050565b6000819050919050565b600062000627620006216200061b84620005f2565b620005fc565b620005f2565b9050919050565b6000819050919050565b620006438362000606565b6200065b62000652826200062e565b8484546200059c565b825550505050565b600090565b6200067262000663565b6200067f81848462000638565b505050565b5b81811015620006a7576200069b60008262000668565b60018101905062000685565b5050565b601f821115620006f657620006c0816200056a565b620006cb846200057f565b81016020851015620006db578190505b620006f3620006ea856200057f565b83018262000684565b50505b505050565b600082821c905092915050565b60006200071b60001984600802620006fb565b1980831691505092915050565b600062000736838362000708565b9150826002028217905092915050565b6200075182620004fb565b67ffffffffffffffff8111156200076d576200076c62000312565b5b62000779825462000535565b62000786828285620006ab565b600060209050601f831160018114620007be5760008415620007a9578287015190505b620007b5858262000728565b86555062000825565b601f198416620007ce866200056a565b60005b82811015620007f857848901518255600182019150602085019450602081019050620007d1565b8683101562000818578489015162000814601f89168262000708565b8355505b6001600288020188555050505b505050505050565b6000819050919050565b62000842816200082d565b82525050565b6200085381620005f2565b82525050565b600073ffffffffffffffffffffffffffffffffffffffff82169050919050565b6000620008868262000859565b9050919050565b620008988162000879565b82525050565b600060a082019050620008b5600083018862000837565b620008c4602083018762000837565b620008d3604083018662000837565b620008e2606083018562000848565b620008f160808301846200088d565b9695505050505050565b60805160a05160c05160e0516101005161012051615ef46200094b60003960006136aa015260006136ec015260006136cb01526000613600015260006136560152600061367f0152615ef46000f3fe6080604052600436106101f95760003560e01c80636352211e1161010d57806397adec68116100a0578063b88d4fde1161006f578063b88d4fde14610703578063c87b56dd1461072c578063cbbb20a414610769578063e985e9c5146107a6578063f2fde38b146107e3576101f9565b806397adec68146106545780639f181b5e14610684578063a22cb465146106af578063a8af6677146106d8576101f9565b80637e554ba0116100dc5780637e554ba0146105be5780638456cb59146105e75780638da5cb5b146105fe57806395d89b4114610629576101f9565b80636352211e146105025780636f9fb98a1461053f57806370a082311461056a578063715018a6146105a7576101f9565b80633ccfd60b1161019057806342966c681161015f57806342966c681461041d57806344cedfef146104465780634f6ccce71461046f578063564b81ef146104ac5780635c975abb146104d7576101f9565b80633ccfd60b1461039b5780633f4ba83a146103b25780633fb4b693146103c957806342842e0e146103f4576101f9565b806318160ddd116101cc57806318160ddd146102cc57806323b872dd146102f75780632a55205a146103205780632f745c591461035e576101f9565b806301ffc9a7146101fe57806306fdde031461023b578063081812fc14610266578063095ea7b3146102a3575b600080fd5b34801561020a57600080fd5b5061022560048036038101906102209190613b31565b61080c565b6040516102329190613b79565b60405180910390f35b34801561024757600080fd5b5061025061081e565b60405161025d9190613c24565b60405180910390f35b34801561027257600080fd5b5061028d60048036038101906102889190613c7c565b6108b0565b60405161029a9190613cea565b60405180910390f35b3480156102af57600080fd5b506102ca60048036038101906102c59190613d31565b6108f6565b005b3480156102d857600080fd5b506102e1610a0d565b6040516102ee9190613d80565b60405180910390f35b34801561030357600080fd5b5061031e60048036038101906103199190613d9b565b610a1a565b005b34801561032c57600080fd5b5061034760048036038101906103429190613dee565b610a7a565b604051610355929190613e2e565b60405180910390f35b34801561036a57600080fd5b5061038560048036038101906103809190613d31565b610c64565b6040516103929190613d80565b60405180910390f35b3480156103a757600080fd5b506103b0610d09565b005b3480156103be57600080fd5b506103c7610db6565b005b3480156103d557600080fd5b506103de610dc8565b6040516103eb9190613d80565b60405180910390f35b34801561040057600080fd5b5061041b60048036038101906104169190613d9b565b610dce565b005b34801561042957600080fd5b50610444600480360381019061043f9190613c7c565b610dee565b005b34801561045257600080fd5b5061046d60048036038101906104689190613c7c565b610e4a565b005b34801561047b57600080fd5b5061049660048036038101906104919190613c7c565b610ed8565b6040516104a39190613d80565b60405180910390f35b3480156104b857600080fd5b506104c1610f49565b6040516104ce9190613d80565b60405180910390f35b3480156104e357600080fd5b506104ec610f56565b6040516104f99190613b79565b60405180910390f35b34801561050e57600080fd5b5061052960048036038101906105249190613c7c565b610f6d565b6040516105369190613cea565b60405180910390f35b34801561054b57600080fd5b5061055461101e565b6040516105619190613d80565b60405180910390f35b34801561057657600080fd5b50610591600480360381019061058c9190613e57565b61102e565b60405161059e9190613d80565b60405180910390f35b3480156105b357600080fd5b506105bc6110e5565b005b3480156105ca57600080fd5b506105e560048036038101906105e09190613c7c565b6110f9565b005b3480156105f357600080fd5b506105fc611187565b005b34801561060a57600080fd5b50610613611199565b6040516106209190613cea565b60405180910390f35b34801561063557600080fd5b5061063e6111c3565b60405161064b9190613c24565b60405180910390f35b61066e60048036038101906106699190613ea8565b611255565b60405161067b9190613d80565b60405180910390f35b34801561069057600080fd5b506106996116de565b6040516106a69190613d80565b60405180910390f35b3480156106bb57600080fd5b506106d660048036038101906106d19190613f30565b6116ea565b005b3480156106e457600080fd5b506106ed611700565b6040516106fa9190613d80565b60405180910390f35b34801561070f57600080fd5b5061072a600480360381019061072591906140a5565b611706565b005b34801561073857600080fd5b50610753600480360381019061074e9190613c7c565b611768565b6040516107609190613c24565b60405180910390f35b34801561077557600080fd5b50610790600480360381019061078b919061420d565b61177a565b60405161079d9190613d80565b60405180910390f35b3480156107b257600080fd5b506107cd60048036038101906107c89190614269565b611873565b6040516107da9190613b79565b60405180910390f35b3480156107ef57600080fd5b5061080a60048036038101906108059190613e57565b611907565b005b60006108178261198a565b9050919050565b60606000805461082d906142d8565b80601f0160208091040260200160405190810160405280929190818152602001828054610859906142d8565b80156108a65780601f1061087b576101008083540402835291602001916108a6565b820191906000526020600020905b81548152906001019060200180831161088957829003601f168201915b5050505050905090565b60006108bb82611a04565b6004600083815260200190815260200160002060009054906101000a900473ffffffffffffffffffffffffffffffffffffffff169050919050565b600061090182610f6d565b90508073ffffffffffffffffffffffffffffffffffffffff168373ffffffffffffffffffffffffffffffffffffffff1603610971576040517f08c379a00000000000000000000000000000000000000000000000000000000081526004016109689061437b565b60405180910390fd5b8073ffffffffffffffffffffffffffffffffffffffff16610990611a4f565b73ffffffffffffffffffffffffffffffffffffffff1614806109bf57506109be816109b9611a4f565b611873565b5b6109fe576040517f08c379a00000000000000000000000000000000000000000000000000000000081526004016109f59061440d565b60405180910390fd5b610a088383611a57565b505050565b6000600b80549050905090565b610a2b610a25611a4f565b82611b10565b610a6a576040517f08c379a0000000000000000000000000000000000000000000000000000000008152600401610a619061449f565b60405180910390fd5b610a75838383611ba5565b505050565b6000806000600760008681526020019081526020016000206040518060400160405290816000820160009054906101000a900473ffffffffffffffffffffffffffffffffffffffff1673ffffffffffffffffffffffffffffffffffffffff1673ffffffffffffffffffffffffffffffffffffffff1681526020016000820160149054906101000a90046bffffffffffffffffffffffff166bffffffffffffffffffffffff166bffffffffffffffffffffffff16815250509050600073ffffffffffffffffffffffffffffffffffffffff16816000015173ffffffffffffffffffffffffffffffffffffffff1603610c0f5760066040518060400160405290816000820160009054906101000a900473ffffffffffffffffffffffffffffffffffffffff1673ffffffffffffffffffffffffffffffffffffffff1673ffffffffffffffffffffffffffffffffffffffff1681526020016000820160149054906101000a90046bffffffffffffffffffffffff166bffffffffffffffffffffffff166bffffffffffffffffffffffff168152505090505b6000610c19611e0b565b6bffffffffffffffffffffffff1682602001516bffffffffffffffffffffffff1686610c4591906144ee565b610c4f9190614577565b90508160000151819350935050509250929050565b6000610c6f8361102e565b8210610cb0576040517f08c379a0000000000000000000000000000000000000000000000000000000008152600401610ca79061461a565b60405180910390fd5b600960008473ffffffffffffffffffffffffffffffffffffffff1673ffffffffffffffffffffffffffffffffffffffff168152602001908152602001600020600083815260200190815260200160002054905092915050565b610d11611e15565b600260085403610d56576040517f08c379a0000000000000000000000000000000000000000000000000000000008152600401610d4d90614686565b60405180910390fd5b6002600881905550610d66611199565b73ffffffffffffffffffffffffffffffffffffffff166108fc479081150290604051600060405180830381858888f19350505050158015610dab573d6000803e3d6000fd5b506001600881905550565b610dbe611e15565b610dc6611e93565b565b60115481565b610de983838360405180602001604052806000815250611706565b505050565b610dff610df9611a4f565b82611b10565b610e3e576040517f08c379a0000000000000000000000000000000000000000000000000000000008152600401610e359061449f565b60405180910390fd5b610e4781611ef6565b50565b610e52611e15565b6103e8811115610e97576040517f08c379a0000000000000000000000000000000000000000000000000000000008152600401610e8e90614718565b60405180910390fd5b806012819055507f1d278f82ce6aac5c91f9e1147b812b522a282c3714dca17edfde23351fa93cf081604051610ecd9190613d80565b60405180910390a150565b6000610ee2610a0d565b8210610f23576040517f08c379a0000000000000000000000000000000000000000000000000000000008152600401610f1a906147aa565b60405180910390fd5b600b8281548110610f3757610f366147ca565b5b90600052602060002001549050919050565b6000804690508091505090565b6000600e60009054906101000a900460ff16905090565b6000806002600084815260200190815260200160002060009054906101000a900473ffffffffffffffffffffffffffffffffffffffff169050600073ffffffffffffffffffffffffffffffffffffffff168173ffffffffffffffffffffffffffffffffffffffff1603611015576040517f08c379a000000000000000000000000000000000000000000000000000000000815260040161100c90614845565b60405180910390fd5b80915050919050565b6000611028611e15565b47905090565b60008073ffffffffffffffffffffffffffffffffffffffff168273ffffffffffffffffffffffffffffffffffffffff160361109e576040517f08c379a0000000000000000000000000000000000000000000000000000000008152600401611095906148d7565b60405180910390fd5b600360008373ffffffffffffffffffffffffffffffffffffffff1673ffffffffffffffffffffffffffffffffffffffff168152602001908152602001600020549050919050565b6110ed611e15565b6110f76000611f02565b565b611101611e15565b6103e8811115611146576040517f08c379a000000000000000000000000000000000000000000000000000000000815260040161113d90614969565b60405180910390fd5b806011819055507fe709c7c84243a82d4b3b75e03acfde540688cbb37e60f18da71950604fb7ca888160405161117c9190613d80565b60405180910390a150565b61118f611e15565b611197611fc8565b565b6000600e60019054906101000a900473ffffffffffffffffffffffffffffffffffffffff16905090565b6060600180546111d2906142d8565b80601f01602080910402602001604051908101604052809291908181526020018280546111fe906142d8565b801561124b5780601f106112205761010080835404028352916020019161124b565b820191906000526020600020905b81548152906001019060200180831161122e57829003601f168201915b5050505050905090565b600060026008540361129c576040517f08c379a000000000000000000000000000000000000000000000000000000000815260040161129390614686565b60405180910390fd5b6002600881905550600f60008380608001906112b89190614998565b6040516112c6929190614a2b565b6040518091039020815260200190815260200160002060009054906101000a900460ff161561132a576040517f08c379a000000000000000000000000000000000000000000000000000000000815260040161132190614a90565b60405180910390fd5b600073ffffffffffffffffffffffffffffffffffffffff168373ffffffffffffffffffffffffffffffffffffffff1603611399576040517f08c379a000000000000000000000000000000000000000000000000000000000815260040161139090614afc565b60405180910390fd5b6011548260600160208101906113af9190614b1c565b6bffffffffffffffffffffffff1611156113fe576040517f08c379a00000000000000000000000000000000000000000000000000000000081526004016113f590614bbb565b60405180910390fd5b600073ffffffffffffffffffffffffffffffffffffffff168260400160208101906114299190613e57565b73ffffffffffffffffffffffffffffffffffffffff160361147f576040517f08c379a000000000000000000000000000000000000000000000000000000000815260040161147690614c27565b60405180910390fd5b34826000013511156114c6576040517f08c379a00000000000000000000000000000000000000000000000000000000081526004016114bd90614c93565b60405180910390fd5b60006114d18361202b565b90508260400160208101906114e69190613e57565b73ffffffffffffffffffffffffffffffffffffffff168173ffffffffffffffffffffffffffffffffffffffff1614611553576040517f08c379a000000000000000000000000000000000000000000000000000000000815260040161154a90614d25565b60405180910390fd5b6001600f60008580608001906115699190614998565b604051611577929190614a2b565b6040518091039020815260200190815260200160002060006101000a81548160ff021916908315150217905550600080611616838680602001906115bb9190614d45565b8080601f016020809104026020016040519081016040528093929190818152602001838380828437600081840152601f19601f820116905080830192505050505050508760600160208101906116119190614b1c565b61209d565b915091508161165a576040517f08c379a000000000000000000000000000000000000000000000000000000000815260040161165190614df4565b60405180910390fd5b6116758387836040518060200160405280600081525061213a565b600061168034612196565b90508373ffffffffffffffffffffffffffffffffffffffff166108fc829081150290604051600060405180830381858888f193505050501580156116c8573d6000803e3d6000fd5b5081945050505050600160088190555092915050565b60108060000154905081565b6116fc6116f5611a4f565b83836121ca565b5050565b60125481565b611717611711611a4f565b83611b10565b611756576040517f08c379a000000000000000000000000000000000000000000000000000000000815260040161174d9061449f565b60405180910390fd5b6117628484848461213a565b50505050565b606061177382612336565b9050919050565b6000611784612448565b6002600854036117c9576040517f08c379a00000000000000000000000000000000000000000000000000000000081526004016117c090614686565b60405180910390fd5b60026008819055506000806117df33868661209d565b9150915081611823576040517f08c379a000000000000000000000000000000000000000000000000000000000815260040161181a90614e60565b60405180910390fd5b7f0a87c421f7b51fcf9008064b31bb04f137ea9ec7c7a7d2dca02ae6380ef2a914813387876040516118589493929190614ebb565b60405180910390a18092505050600160088190555092915050565b6000600560008473ffffffffffffffffffffffffffffffffffffffff1673ffffffffffffffffffffffffffffffffffffffff16815260200190815260200160002060008373ffffffffffffffffffffffffffffffffffffffff1673ffffffffffffffffffffffffffffffffffffffff16815260200190815260200160002060009054906101000a900460ff16905092915050565b61190f611e15565b600073ffffffffffffffffffffffffffffffffffffffff168173ffffffffffffffffffffffffffffffffffffffff160361197e576040517f08c379a000000000000000000000000000000000000000000000000000000000815260040161197590614f79565b60405180910390fd5b61198781611f02565b50565b60007f780e9d63000000000000000000000000000000000000000000000000000000007bffffffffffffffffffffffffffffffffffffffffffffffffffffffff1916827bffffffffffffffffffffffffffffffffffffffffffffffffffffffff191614806119fd57506119fc82612492565b5b9050919050565b611a0d8161250c565b611a4c576040517f08c379a0000000000000000000000000000000000000000000000000000000008152600401611a4390614845565b60405180910390fd5b50565b600033905090565b816004600083815260200190815260200160002060006101000a81548173ffffffffffffffffffffffffffffffffffffffff021916908373ffffffffffffffffffffffffffffffffffffffff160217905550808273ffffffffffffffffffffffffffffffffffffffff16611aca83610f6d565b73ffffffffffffffffffffffffffffffffffffffff167f8c5be1e5ebec7d5bd14f71427d1e84f3dd0314c0f7b2291e5b200ac8c7c3b92560405160405180910390a45050565b600080611b1c83610f6d565b90508073ffffffffffffffffffffffffffffffffffffffff168473ffffffffffffffffffffffffffffffffffffffff161480611b5e5750611b5d8185611873565b5b80611b9c57508373ffffffffffffffffffffffffffffffffffffffff16611b84846108b0565b73ffffffffffffffffffffffffffffffffffffffff16145b91505092915050565b8273ffffffffffffffffffffffffffffffffffffffff16611bc582610f6d565b73ffffffffffffffffffffffffffffffffffffffff1614611c1b576040517f08c379a0000000000000000000000000000000000000000000000000000000008152600401611c129061500b565b60405180910390fd5b600073ffffffffffffffffffffffffffffffffffffffff168273ffffffffffffffffffffffffffffffffffffffff1603611c8a576040517f08c379a0000000000000000000000000000000000000000000000000000000008152600401611c819061509d565b60405180910390fd5b611c95838383612578565b611ca0600082611a57565b6001600360008573ffffffffffffffffffffffffffffffffffffffff1673ffffffffffffffffffffffffffffffffffffffff1681526020019081526020016000206000828254611cf091906150bd565b925050819055506001600360008473ffffffffffffffffffffffffffffffffffffffff1673ffffffffffffffffffffffffffffffffffffffff1681526020019081526020016000206000828254611d4791906150f1565b92505081905550816002600083815260200190815260200160002060006101000a81548173ffffffffffffffffffffffffffffffffffffffff021916908373ffffffffffffffffffffffffffffffffffffffff160217905550808273ffffffffffffffffffffffffffffffffffffffff168473ffffffffffffffffffffffffffffffffffffffff167fddf252ad1be2c89b69c2b068fc378daa952ba7f163c4a11628f55a4df523b3ef60405160405180910390a4611e06838383612590565b505050565b60006103e8905090565b611e1d611a4f565b73ffffffffffffffffffffffffffffffffffffffff16611e3b611199565b73ffffffffffffffffffffffffffffffffffffffff1614611e91576040517f08c379a0000000000000000000000000000000000000000000000000000000008152600401611e8890615171565b60405180910390fd5b565b611e9b612595565b6000600e60006101000a81548160ff0219169083151502179055507f5db9ee0a495bf2e6ff9c91a7834c1ba4fdd244a5e8aa4e537bd38aeae4b073aa611edf611a4f565b604051611eec9190613cea565b60405180910390a1565b611eff816125de565b50565b6000600e60019054906101000a900473ffffffffffffffffffffffffffffffffffffffff16905081600e60016101000a81548173ffffffffffffffffffffffffffffffffffffffff021916908373ffffffffffffffffffffffffffffffffffffffff1602179055508173ffffffffffffffffffffffffffffffffffffffff168173ffffffffffffffffffffffffffffffffffffffff167f8be0079c531659141344cd1fd0a4f28419497f9722a3daafe3b4186f6b6457e060405160405180910390a35050565b611fd0612448565b6001600e60006101000a81548160ff0219169083151502179055507f62e78cea01bee320cd4e420270b5ea74000d11b0c9f74754ebdbfc544b05a258612014611a4f565b6040516120219190613cea565b60405180910390a1565b60008061203783612631565b90506120958184806080019061204d9190614998565b8080601f016020809104026020016040519081016040528093929190818152602001838380828437600081840152601f19601f820116905080830192505050505050506126de565b915050919050565b600080601154836bffffffffffffffffffffffff1611156120f3576040517f08c379a00000000000000000000000000000000000000000000000000000000081526004016120ea90615203565b60405180910390fd5b6120fd6010612705565b6000612109601061271b565b9050612116818786612729565b61212086826128d0565b61212a81866128ee565b6001819250925050935093915050565b612145848484611ba5565b6121518484848461295b565b612190576040517f08c379a000000000000000000000000000000000000000000000000000000000815260040161218790615295565b60405180910390fd5b50505050565b6000806103e8601254846121aa91906144ee565b6121b49190614577565b905080836121c291906150bd565b915050919050565b8173ffffffffffffffffffffffffffffffffffffffff168373ffffffffffffffffffffffffffffffffffffffff1603612238576040517f08c379a000000000000000000000000000000000000000000000000000000000815260040161222f90615301565b60405180910390fd5b80600560008573ffffffffffffffffffffffffffffffffffffffff1673ffffffffffffffffffffffffffffffffffffffff16815260200190815260200160002060008473ffffffffffffffffffffffffffffffffffffffff1673ffffffffffffffffffffffffffffffffffffffff16815260200190815260200160002060006101000a81548160ff0219169083151502179055508173ffffffffffffffffffffffffffffffffffffffff168373ffffffffffffffffffffffffffffffffffffffff167f17307eab39ab6107e8899845ad3d59bd9653f200f220920489ca2b5937696c31836040516123299190613b79565b60405180910390a3505050565b606061234182611a04565b6000600d60008481526020019081526020016000208054612361906142d8565b80601f016020809104026020016040519081016040528092919081815260200182805461238d906142d8565b80156123da5780601f106123af576101008083540402835291602001916123da565b820191906000526020600020905b8154815290600101906020018083116123bd57829003601f168201915b5050505050905060006123eb612ae2565b90506000815103612400578192505050612443565b60008251111561243557808260405160200161241d92919061535d565b60405160208183030381529060405292505050612443565b61243e84612af9565b925050505b919050565b612450610f56565b15612490576040517f08c379a0000000000000000000000000000000000000000000000000000000008152600401612487906153cd565b60405180910390fd5b565b60007f2a55205a000000000000000000000000000000000000000000000000000000007bffffffffffffffffffffffffffffffffffffffffffffffffffffffff1916827bffffffffffffffffffffffffffffffffffffffffffffffffffffffff19161480612505575061250482612b61565b5b9050919050565b60008073ffffffffffffffffffffffffffffffffffffffff166002600084815260200190815260200160002060009054906101000a900473ffffffffffffffffffffffffffffffffffffffff1673ffffffffffffffffffffffffffffffffffffffff1614159050919050565b612580612448565b61258b838383612c43565b505050565b505050565b61259d610f56565b6125dc576040517f08c379a00000000000000000000000000000000000000000000000000000000081526004016125d390615439565b60405180910390fd5b565b6125e781612d55565b6000600d60008381526020019081526020016000208054612607906142d8565b90501461262e57600d6000828152602001908152602001600020600061262d9190613a68565b5b50565b60006126d77f39a8e02ac0fe4bc78f74b0662ddd419d8e03ed49bd0eb02fec603b7bfb6f8dac836000013584806020019061266c9190614d45565b60405161267a929190614a2b565b60405180910390208560400160208101906126959190613e57565b8660600160208101906126a89190614b1c565b6040516020016126bc959493929190615481565b60405160208183030381529060405280519060200120612e72565b9050919050565b60008060006126ed8585612e8c565b915091506126fa81612edd565b819250505092915050565b6001816000016000828254019250508190555050565b600081600001549050919050565b612731611e0b565b6bffffffffffffffffffffffff16816bffffffffffffffffffffffff16111561278f576040517f08c379a000000000000000000000000000000000000000000000000000000000815260040161278690615546565b60405180910390fd5b600073ffffffffffffffffffffffffffffffffffffffff168273ffffffffffffffffffffffffffffffffffffffff16036127fe576040517f08c379a00000000000000000000000000000000000000000000000000000000081526004016127f5906155b2565b60405180910390fd5b60405180604001604052808373ffffffffffffffffffffffffffffffffffffffff168152602001826bffffffffffffffffffffffff168152506007600085815260200190815260200160002060008201518160000160006101000a81548173ffffffffffffffffffffffffffffffffffffffff021916908373ffffffffffffffffffffffffffffffffffffffff16021790555060208201518160000160146101000a8154816bffffffffffffffffffffffff02191690836bffffffffffffffffffffffff160217905550905050505050565b6128ea8282604051806020016040528060008152506130a9565b5050565b6128f78261250c565b612936576040517f08c379a000000000000000000000000000000000000000000000000000000000815260040161292d90615644565b60405180910390fd5b80600d600084815260200190815260200160002090816129569190615806565b505050565b600061297c8473ffffffffffffffffffffffffffffffffffffffff16613104565b15612ad5578373ffffffffffffffffffffffffffffffffffffffff1663150b7a026129a5611a4f565b8786866040518563ffffffff1660e01b81526004016129c7949392919061592d565b6020604051808303816000875af1925050508015612a0357506040513d601f19601f82011682018060405250810190612a00919061598e565b60015b612a85573d8060008114612a33576040519150601f19603f3d011682016040523d82523d6000602084013e612a38565b606091505b506000815103612a7d576040517f08c379a0000000000000000000000000000000000000000000000000000000008152600401612a7490615295565b60405180910390fd5b805181602001fd5b63150b7a0260e01b7bffffffffffffffffffffffffffffffffffffffffffffffffffffffff1916817bffffffffffffffffffffffffffffffffffffffffffffffffffffffff191614915050612ada565b600190505b949350505050565b606060405180602001604052806000815250905090565b6060612b0482611a04565b6000612b0e612ae2565b90506000815111612b2e5760405180602001604052806000815250612b59565b80612b3884613127565b604051602001612b4992919061535d565b6040516020818303038152906040525b915050919050565b60007f80ac58cd000000000000000000000000000000000000000000000000000000007bffffffffffffffffffffffffffffffffffffffffffffffffffffffff1916827bffffffffffffffffffffffffffffffffffffffffffffffffffffffff19161480612c2c57507f5b5e139f000000000000000000000000000000000000000000000000000000007bffffffffffffffffffffffffffffffffffffffffffffffffffffffff1916827bffffffffffffffffffffffffffffffffffffffffffffffffffffffff1916145b80612c3c5750612c3b82613287565b5b9050919050565b612c4e8383836132f1565b600073ffffffffffffffffffffffffffffffffffffffff168373ffffffffffffffffffffffffffffffffffffffff1603612c9057612c8b816132f6565b612ccf565b8173ffffffffffffffffffffffffffffffffffffffff168373ffffffffffffffffffffffffffffffffffffffff1614612cce57612ccd838261333f565b5b5b600073ffffffffffffffffffffffffffffffffffffffff168273ffffffffffffffffffffffffffffffffffffffff1603612d1157612d0c816134ac565b612d50565b8273ffffffffffffffffffffffffffffffffffffffff168273ffffffffffffffffffffffffffffffffffffffff1614612d4f57612d4e828261357d565b5b5b505050565b6000612d6082610f6d565b9050612d6e81600084612578565b612d79600083611a57565b6001600360008373ffffffffffffffffffffffffffffffffffffffff1673ffffffffffffffffffffffffffffffffffffffff1681526020019081526020016000206000828254612dc991906150bd565b925050819055506002600083815260200190815260200160002060006101000a81549073ffffffffffffffffffffffffffffffffffffffff021916905581600073ffffffffffffffffffffffffffffffffffffffff168273ffffffffffffffffffffffffffffffffffffffff167fddf252ad1be2c89b69c2b068fc378daa952ba7f163c4a11628f55a4df523b3ef60405160405180910390a4612e6e81600084612590565b5050565b6000612e85612e7f6135fc565b83613716565b9050919050565b6000806041835103612ecd5760008060006020860151925060408601519150606086015160001a9050612ec187828585613749565b94509450505050612ed6565b60006002915091505b9250929050565b60006004811115612ef157612ef06159bb565b5b816004811115612f0457612f036159bb565b5b03156130a65760016004811115612f1e57612f1d6159bb565b5b816004811115612f3157612f306159bb565b5b03612f71576040517f08c379a0000000000000000000000000000000000000000000000000000000008152600401612f6890615a36565b60405180910390fd5b60026004811115612f8557612f846159bb565b5b816004811115612f9857612f976159bb565b5b03612fd8576040517f08c379a0000000000000000000000000000000000000000000000000000000008152600401612fcf90615aa2565b60405180910390fd5b60036004811115612fec57612feb6159bb565b5b816004811115612fff57612ffe6159bb565b5b0361303f576040517f08c379a000000000000000000000000000000000000000000000000000000000815260040161303690615b34565b60405180910390fd5b600480811115613052576130516159bb565b5b816004811115613065576130646159bb565b5b036130a5576040517f08c379a000000000000000000000000000000000000000000000000000000000815260040161309c90615bc6565b60405180910390fd5b5b50565b6130b38383613855565b6130c0600084848461295b565b6130ff576040517f08c379a00000000000000000000000000000000000000000000000000000000081526004016130f690615295565b60405180910390fd5b505050565b6000808273ffffffffffffffffffffffffffffffffffffffff163b119050919050565b60606000820361316e576040518060400160405280600181526020017f30000000000000000000000000000000000000000000000000000000000000008152509050613282565b600082905060005b600082146131a057808061318990615be6565b915050600a826131999190614577565b9150613176565b60008167ffffffffffffffff8111156131bc576131bb613f7a565b5b6040519080825280601f01601f1916602001820160405280156131ee5781602001600182028036833780820191505090505b5090505b6000851461327b5760018261320791906150bd565b9150600a856132169190615c2e565b603061322291906150f1565b60f81b818381518110613238576132376147ca565b5b60200101907effffffffffffffffffffffffffffffffffffffffffffffffffffffffffffff1916908160001a905350600a856132749190614577565b94506131f2565b8093505050505b919050565b60007f01ffc9a7000000000000000000000000000000000000000000000000000000007bffffffffffffffffffffffffffffffffffffffffffffffffffffffff1916827bffffffffffffffffffffffffffffffffffffffffffffffffffffffff1916149050919050565b505050565b600b80549050600c600083815260200190815260200160002081905550600b81908060018154018082558091505060019003906000526020600020016000909190919091505550565b6000600161334c8461102e565b61335691906150bd565b90506000600a600084815260200190815260200160002054905081811461343b576000600960008673ffffffffffffffffffffffffffffffffffffffff1673ffffffffffffffffffffffffffffffffffffffff168152602001908152602001600020600084815260200190815260200160002054905080600960008773ffffffffffffffffffffffffffffffffffffffff1673ffffffffffffffffffffffffffffffffffffffff16815260200190815260200160002060008481526020019081526020016000208190555081600a600083815260200190815260200160002081905550505b600a600084815260200190815260200160002060009055600960008573ffffffffffffffffffffffffffffffffffffffff1673ffffffffffffffffffffffffffffffffffffffff16815260200190815260200160002060008381526020019081526020016000206000905550505050565b60006001600b805490506134c091906150bd565b90506000600c60008481526020019081526020016000205490506000600b83815481106134f0576134ef6147ca565b5b9060005260206000200154905080600b8381548110613512576135116147ca565b5b906000526020600020018190555081600c600083815260200190815260200160002081905550600c600085815260200190815260200160002060009055600b80548061356157613560615c5f565b5b6001900381819060005260206000200160009055905550505050565b60006135888361102e565b905081600960008573ffffffffffffffffffffffffffffffffffffffff1673ffffffffffffffffffffffffffffffffffffffff16815260200190815260200160002060008381526020019081526020016000208190555080600a600084815260200190815260200160002081905550505050565b60007f000000000000000000000000000000000000000000000000000000000000000073ffffffffffffffffffffffffffffffffffffffff163073ffffffffffffffffffffffffffffffffffffffff1614801561367857507f000000000000000000000000000000000000000000000000000000000000000046145b156136a5577f00000000000000000000000000000000000000000000000000000000000000009050613713565b6137107f00000000000000000000000000000000000000000000000000000000000000007f00000000000000000000000000000000000000000000000000000000000000007f0000000000000000000000000000000000000000000000000000000000000000613a2e565b90505b90565b6000828260405160200161372b929190615cfb565b60405160208183030381529060405280519060200120905092915050565b6000807f7fffffffffffffffffffffffffffffff5d576e7357a4501ddfe92f46681b20a08360001c111561378457600060039150915061384c565b601b8560ff161415801561379c5750601c8560ff1614155b156137ae57600060049150915061384c565b6000600187878787604051600081526020016040526040516137d39493929190615d4e565b6020604051602081039080840390855afa1580156137f5573d6000803e3d6000fd5b505050602060405103519050600073ffffffffffffffffffffffffffffffffffffffff168173ffffffffffffffffffffffffffffffffffffffff16036138435760006001925092505061384c565b80600092509250505b94509492505050565b600073ffffffffffffffffffffffffffffffffffffffff168273ffffffffffffffffffffffffffffffffffffffff16036138c4576040517f08c379a00000000000000000000000000000000000000000000000000000000081526004016138bb90615ddf565b60405180910390fd5b6138cd8161250c565b1561390d576040517f08c379a000000000000000000000000000000000000000000000000000000000815260040161390490615e4b565b60405180910390fd5b61391960008383612578565b6001600360008473ffffffffffffffffffffffffffffffffffffffff1673ffffffffffffffffffffffffffffffffffffffff168152602001908152602001600020600082825461396991906150f1565b92505081905550816002600083815260200190815260200160002060006101000a81548173ffffffffffffffffffffffffffffffffffffffff021916908373ffffffffffffffffffffffffffffffffffffffff160217905550808273ffffffffffffffffffffffffffffffffffffffff16600073ffffffffffffffffffffffffffffffffffffffff167fddf252ad1be2c89b69c2b068fc378daa952ba7f163c4a11628f55a4df523b3ef60405160405180910390a4613a2a60008383612590565b5050565b60008383834630604051602001613a49959493929190615e6b565b6040516020818303038152906040528051906020012090509392505050565b508054613a74906142d8565b6000825580601f10613a865750613aa5565b601f016020900490600052602060002090810190613aa49190613aa8565b5b50565b5b80821115613ac1576000816000905550600101613aa9565b5090565b6000604051905090565b600080fd5b600080fd5b60007fffffffff0000000000000000000000000000000000000000000000000000000082169050919050565b613b0e81613ad9565b8114613b1957600080fd5b50565b600081359050613b2b81613b05565b92915050565b600060208284031215613b4757613b46613acf565b5b6000613b5584828501613b1c565b91505092915050565b60008115159050919050565b613b7381613b5e565b82525050565b6000602082019050613b8e6000830184613b6a565b92915050565b600081519050919050565b600082825260208201905092915050565b60005b83811015613bce578082015181840152602081019050613bb3565b60008484015250505050565b6000601f19601f8301169050919050565b6000613bf682613b94565b613c008185613b9f565b9350613c10818560208601613bb0565b613c1981613bda565b840191505092915050565b60006020820190508181036000830152613c3e8184613beb565b905092915050565b6000819050919050565b613c5981613c46565b8114613c6457600080fd5b50565b600081359050613c7681613c50565b92915050565b600060208284031215613c9257613c91613acf565b5b6000613ca084828501613c67565b91505092915050565b600073ffffffffffffffffffffffffffffffffffffffff82169050919050565b6000613cd482613ca9565b9050919050565b613ce481613cc9565b82525050565b6000602082019050613cff6000830184613cdb565b92915050565b613d0e81613cc9565b8114613d1957600080fd5b50565b600081359050613d2b81613d05565b92915050565b60008060408385031215613d4857613d47613acf565b5b6000613d5685828601613d1c565b9250506020613d6785828601613c67565b9150509250929050565b613d7a81613c46565b82525050565b6000602082019050613d956000830184613d71565b92915050565b600080600060608486031215613db457613db3613acf565b5b6000613dc286828701613d1c565b9350506020613dd386828701613d1c565b9250506040613de486828701613c67565b9150509250925092565b60008060408385031215613e0557613e04613acf565b5b6000613e1385828601613c67565b9250506020613e2485828601613c67565b9150509250929050565b6000604082019050613e436000830185613cdb565b613e506020830184613d71565b9392505050565b600060208284031215613e6d57613e6c613acf565b5b6000613e7b84828501613d1c565b91505092915050565b600080fd5b600060a08284031215613e9f57613e9e613e84565b5b81905092915050565b60008060408385031215613ebf57613ebe613acf565b5b6000613ecd85828601613d1c565b925050602083013567ffffffffffffffff811115613eee57613eed613ad4565b5b613efa85828601613e89565b9150509250929050565b613f0d81613b5e565b8114613f1857600080fd5b50565b600081359050613f2a81613f04565b92915050565b60008060408385031215613f4757613f46613acf565b5b6000613f5585828601613d1c565b9250506020613f6685828601613f1b565b9150509250929050565b600080fd5b600080fd5b7f4e487b7100000000000000000000000000000000000000000000000000000000600052604160045260246000fd5b613fb282613bda565b810181811067ffffffffffffffff82111715613fd157613fd0613f7a565b5b80604052505050565b6000613fe4613ac5565b9050613ff08282613fa9565b919050565b600067ffffffffffffffff8211156140105761400f613f7a565b5b61401982613bda565b9050602081019050919050565b82818337600083830152505050565b600061404861404384613ff5565b613fda565b90508281526020810184848401111561406457614063613f75565b5b61406f848285614026565b509392505050565b600082601f83011261408c5761408b613f70565b5b813561409c848260208601614035565b91505092915050565b600080600080608085870312156140bf576140be613acf565b5b60006140cd87828801613d1c565b94505060206140de87828801613d1c565b93505060406140ef87828801613c67565b925050606085013567ffffffffffffffff8111156141105761410f613ad4565b5b61411c87828801614077565b91505092959194509250565b600067ffffffffffffffff82111561414357614142613f7a565b5b61414c82613bda565b9050602081019050919050565b600061416c61416784614128565b613fda565b90508281526020810184848401111561418857614187613f75565b5b614193848285614026565b509392505050565b600082601f8301126141b0576141af613f70565b5b81356141c0848260208601614159565b91505092915050565b60006bffffffffffffffffffffffff82169050919050565b6141ea816141c9565b81146141f557600080fd5b50565b600081359050614207816141e1565b92915050565b6000806040838503121561422457614223613acf565b5b600083013567ffffffffffffffff81111561424257614241613ad4565b5b61424e8582860161419b565b925050602061425f858286016141f8565b9150509250929050565b600080604083850312156142805761427f613acf565b5b600061428e85828601613d1c565b925050602061429f85828601613d1c565b9150509250929050565b7f4e487b7100000000000000000000000000000000000000000000000000000000600052602260045260246000fd5b600060028204905060018216806142f057607f821691505b602082108103614303576143026142a9565b5b50919050565b7f4552433732313a20617070726f76616c20746f2063757272656e74206f776e6560008201527f7200000000000000000000000000000000000000000000000000000000000000602082015250565b6000614365602183613b9f565b915061437082614309565b604082019050919050565b6000602082019050818103600083015261439481614358565b9050919050565b7f4552433732313a20617070726f76652063616c6c6572206973206e6f7420746f60008201527f6b656e206f776e6572206e6f7220617070726f76656420666f7220616c6c0000602082015250565b60006143f7603e83613b9f565b91506144028261439b565b604082019050919050565b60006020820190508181036000830152614426816143ea565b9050919050565b7f4552433732313a2063616c6c6572206973206e6f7420746f6b656e206f776e6560008201527f72206e6f7220617070726f766564000000000000000000000000000000000000602082015250565b6000614489602e83613b9f565b91506144948261442d565b604082019050919050565b600060208201905081810360008301526144b88161447c565b9050919050565b7f4e487b7100000000000000000000000000000000000000000000000000000000600052601160045260246000fd5b60006144f982613c46565b915061450483613c46565b9250817fffffffffffffffffffffffffffffffffffffffffffffffffffffffffffffffff048311821515161561453d5761453c6144bf565b5b828202905092915050565b7f4e487b7100000000000000000000000000000000000000000000000000000000600052601260045260246000fd5b600061458282613c46565b915061458d83613c46565b92508261459d5761459c614548565b5b828204905092915050565b7f455243373231456e756d657261626c653a206f776e657220696e646578206f7560008201527f74206f6620626f756e6473000000000000000000000000000000000000000000602082015250565b6000614604602b83613b9f565b915061460f826145a8565b604082019050919050565b60006020820190508181036000830152614633816145f7565b9050919050565b7f5265656e7472616e637947756172643a207265656e7472616e742063616c6c00600082015250565b6000614670601f83613b9f565b915061467b8261463a565b602082019050919050565b6000602082019050818103600083015261469f81614663565b9050919050565b7f4c617a79204d696e74696e6720466565732063616e6e6f74206265206772656160008201527f746572207468616e203130302500000000000000000000000000000000000000602082015250565b6000614702602d83613b9f565b915061470d826146a6565b604082019050919050565b60006020820190508181036000830152614731816146f5565b9050919050565b7f455243373231456e756d657261626c653a20676c6f62616c20696e646578206f60008201527f7574206f6620626f756e64730000000000000000000000000000000000000000602082015250565b6000614794602c83613b9f565b915061479f82614738565b604082019050919050565b600060208201905081810360008301526147c381614787565b9050919050565b7f4e487b7100000000000000000000000000000000000000000000000000000000600052603260045260246000fd5b7f4552433732313a20696e76616c696420746f6b656e2049440000000000000000600082015250565b600061482f601883613b9f565b915061483a826147f9565b602082019050919050565b6000602082019050818103600083015261485e81614822565b9050919050565b7f4552433732313a2061646472657373207a65726f206973206e6f74206120766160008201527f6c6964206f776e65720000000000000000000000000000000000000000000000602082015250565b60006148c1602983613b9f565b91506148cc82614865565b604082019050919050565b600060208201905081810360008301526148f0816148b4565b9050919050565b7f43726561746f7220726f79616c746965732063616e6e6f74206265206772656160008201527f746572207468616e203130302500000000000000000000000000000000000000602082015250565b6000614953602d83613b9f565b915061495e826148f7565b604082019050919050565b6000602082019050818103600083015261498281614946565b9050919050565b600080fd5b600080fd5b600080fd5b600080833560016020038436030381126149b5576149b4614989565b5b80840192508235915067ffffffffffffffff8211156149d7576149d661498e565b5b6020830192506001820236038313156149f3576149f2614993565b5b509250929050565b600081905092915050565b6000614a1283856149fb565b9350614a1f838584614026565b82840190509392505050565b6000614a38828486614a06565b91508190509392505050565b7f54686520766f756368657220686173206265656e2072656465656d6564210000600082015250565b6000614a7a601e83613b9f565b9150614a8582614a44565b602082019050919050565b60006020820190508181036000830152614aa981614a6d565b9050919050565b7f52656465656d657220697320746865207a65726f206164647265737321000000600082015250565b6000614ae6601d83613b9f565b9150614af182614ab0565b602082019050919050565b60006020820190508181036000830152614b1581614ad9565b9050919050565b600060208284031215614b3257614b31613acf565b5b6000614b40848285016141f8565b91505092915050565b7f526f79616c746965732065786365656420746865206d61782063726561746f7260008201527f20726f79616c746965732070657263656e746167650000000000000000000000602082015250565b6000614ba5603583613b9f565b9150614bb082614b49565b604082019050919050565b60006020820190508181036000830152614bd481614b98565b9050919050565b7f43726561746f7220697320746865207a65726f20616464726573732100000000600082015250565b6000614c11601c83613b9f565b9150614c1c82614bdb565b602082019050919050565b60006020820190508181036000830152614c4081614c04565b9050919050565b7f496e73756666696369656e742066756e647320746f2072656465656d00000000600082015250565b6000614c7d601c83613b9f565b9150614c8882614c47565b602082019050919050565b60006020820190508181036000830152614cac81614c70565b9050919050565b7f5369676e617475726520696e76616c6964206f7220756e617574686f72697a6560008201527f6400000000000000000000000000000000000000000000000000000000000000602082015250565b6000614d0f602183613b9f565b9150614d1a82614cb3565b604082019050919050565b60006020820190508181036000830152614d3e81614d02565b9050919050565b60008083356001602003843603038112614d6257614d61614989565b5b80840192508235915067ffffffffffffffff821115614d8457614d8361498e565b5b602083019250600182023603831315614da057614d9f614993565b5b509250929050565b7f4c617a79206d696e74696e67206661696c656421000000000000000000000000600082015250565b6000614dde601483613b9f565b9150614de982614da8565b602082019050919050565b60006020820190508181036000830152614e0d81614dd1565b9050919050565b7f4d696e74696e67206661696c6564210000000000000000000000000000000000600082015250565b6000614e4a600f83613b9f565b9150614e5582614e14565b602082019050919050565b60006020820190508181036000830152614e7981614e3d565b9050919050565b6000819050919050565b6000614ea5614ea0614e9b846141c9565b614e80565b613c46565b9050919050565b614eb581614e8a565b82525050565b6000608082019050614ed06000830187613d71565b614edd6020830186613cdb565b8181036040830152614eef8185613beb565b9050614efe6060830184614eac565b95945050505050565b7f4f776e61626c653a206e6577206f776e657220697320746865207a65726f206160008201527f6464726573730000000000000000000000000000000000000000000000000000602082015250565b6000614f63602683613b9f565b9150614f6e82614f07565b604082019050919050565b60006020820190508181036000830152614f9281614f56565b9050919050565b7f4552433732313a207472616e736665722066726f6d20696e636f72726563742060008201527f6f776e6572000000000000000000000000000000000000000000000000000000602082015250565b6000614ff5602583613b9f565b915061500082614f99565b604082019050919050565b6000602082019050818103600083015261502481614fe8565b9050919050565b7f4552433732313a207472616e7366657220746f20746865207a65726f2061646460008201527f7265737300000000000000000000000000000000000000000000000000000000602082015250565b6000615087602483613b9f565b91506150928261502b565b604082019050919050565b600060208201905081810360008301526150b68161507a565b9050919050565b60006150c882613c46565b91506150d383613c46565b92508282039050818111156150eb576150ea6144bf565b5b92915050565b60006150fc82613c46565b915061510783613c46565b925082820190508082111561511f5761511e6144bf565b5b92915050565b7f4f776e61626c653a2063616c6c6572206973206e6f7420746865206f776e6572600082015250565b600061515b602083613b9f565b915061516682615125565b602082019050919050565b6000602082019050818103600083015261518a8161514e565b9050919050565b7f526f79616c746965732070657263656e7461676520657863656564732074686560008201527f206d6178696d756d2076616c7565210000000000000000000000000000000000602082015250565b60006151ed602f83613b9f565b91506151f882615191565b604082019050919050565b6000602082019050818103600083015261521c816151e0565b9050919050565b7f4552433732313a207472616e7366657220746f206e6f6e20455243373231526560008201527f63656976657220696d706c656d656e7465720000000000000000000000000000602082015250565b600061527f603283613b9f565b915061528a82615223565b604082019050919050565b600060208201905081810360008301526152ae81615272565b9050919050565b7f4552433732313a20617070726f766520746f2063616c6c657200000000000000600082015250565b60006152eb601983613b9f565b91506152f6826152b5565b602082019050919050565b6000602082019050818103600083015261531a816152de565b9050919050565b600081905092915050565b600061533782613b94565b6153418185615321565b9350615351818560208601613bb0565b80840191505092915050565b6000615369828561532c565b9150615375828461532c565b91508190509392505050565b7f5061757361626c653a2070617573656400000000000000000000000000000000600082015250565b60006153b7601083613b9f565b91506153c282615381565b602082019050919050565b600060208201905081810360008301526153e6816153aa565b9050919050565b7f5061757361626c653a206e6f7420706175736564000000000000000000000000600082015250565b6000615423601483613b9f565b915061542e826153ed565b602082019050919050565b6000602082019050818103600083015261545281615416565b9050919050565b6000819050919050565b61546c81615459565b82525050565b61547b816141c9565b82525050565b600060a0820190506154966000830188615463565b6154a36020830187613d71565b6154b06040830186615463565b6154bd6060830185613cdb565b6154ca6080830184615472565b9695505050505050565b7f455243323938313a20726f79616c7479206665652077696c6c2065786365656460008201527f2073616c65507269636500000000000000000000000000000000000000000000602082015250565b6000615530602a83613b9f565b915061553b826154d4565b604082019050919050565b6000602082019050818103600083015261555f81615523565b9050919050565b7f455243323938313a20496e76616c696420706172616d65746572730000000000600082015250565b600061559c601b83613b9f565b91506155a782615566565b602082019050919050565b600060208201905081810360008301526155cb8161558f565b9050919050565b7f45524337323155524953746f726167653a2055524920736574206f66206e6f6e60008201527f6578697374656e7420746f6b656e000000000000000000000000000000000000602082015250565b600061562e602e83613b9f565b9150615639826155d2565b604082019050919050565b6000602082019050818103600083015261565d81615621565b9050919050565b60008190508160005260206000209050919050565b60006020601f8301049050919050565b600082821b905092915050565b6000600883026156c67fffffffffffffffffffffffffffffffffffffffffffffffffffffffffffffffff82615689565b6156d08683615689565b95508019841693508086168417925050509392505050565b60006157036156fe6156f984613c46565b614e80565b613c46565b9050919050565b6000819050919050565b61571d836156e8565b6157316157298261570a565b848454615696565b825550505050565b600090565b615746615739565b615751818484615714565b505050565b5b818110156157755761576a60008261573e565b600181019050615757565b5050565b601f8211156157ba5761578b81615664565b61579484615679565b810160208510156157a3578190505b6157b76157af85615679565b830182615756565b50505b505050565b600082821c905092915050565b60006157dd600019846008026157bf565b1980831691505092915050565b60006157f683836157cc565b9150826002028217905092915050565b61580f82613b94565b67ffffffffffffffff81111561582857615827613f7a565b5b61583282546142d8565b61583d828285615779565b600060209050601f831160018114615870576000841561585e578287015190505b61586885826157ea565b8655506158d0565b601f19841661587e86615664565b60005b828110156158a657848901518255600182019150602085019450602081019050615881565b868310156158c357848901516158bf601f8916826157cc565b8355505b6001600288020188555050505b505050505050565b600081519050919050565b600082825260208201905092915050565b60006158ff826158d8565b61590981856158e3565b9350615919818560208601613bb0565b61592281613bda565b840191505092915050565b60006080820190506159426000830187613cdb565b61594f6020830186613cdb565b61595c6040830185613d71565b818103606083015261596e81846158f4565b905095945050505050565b60008151905061598881613b05565b92915050565b6000602082840312156159a4576159a3613acf565b5b60006159b284828501615979565b91505092915050565b7f4e487b7100000000000000000000000000000000000000000000000000000000600052602160045260246000fd5b7f45434453413a20696e76616c6964207369676e61747572650000000000000000600082015250565b6000615a20601883613b9f565b9150615a2b826159ea565b602082019050919050565b60006020820190508181036000830152615a4f81615a13565b9050919050565b7f45434453413a20696e76616c6964207369676e6174757265206c656e67746800600082015250565b6000615a8c601f83613b9f565b9150615a9782615a56565b602082019050919050565b60006020820190508181036000830152615abb81615a7f565b9050919050565b7f45434453413a20696e76616c6964207369676e6174757265202773272076616c60008201527f7565000000000000000000000000000000000000000000000000000000000000602082015250565b6000615b1e602283613b9f565b9150615b2982615ac2565b604082019050919050565b60006020820190508181036000830152615b4d81615b11565b9050919050565b7f45434453413a20696e76616c6964207369676e6174757265202776272076616c60008201527f7565000000000000000000000000000000000000000000000000000000000000602082015250565b6000615bb0602283613b9f565b9150615bbb82615b54565b604082019050919050565b60006020820190508181036000830152615bdf81615ba3565b9050919050565b6000615bf182613c46565b91507fffffffffffffffffffffffffffffffffffffffffffffffffffffffffffffffff8203615c2357615c226144bf565b5b600182019050919050565b6000615c3982613c46565b9150615c4483613c46565b925082615c5457615c53614548565b5b828206905092915050565b7f4e487b7100000000000000000000000000000000000000000000000000000000600052603160045260246000fd5b7f1901000000000000000000000000000000000000000000000000000000000000600082015250565b6000615cc4600283615321565b9150615ccf82615c8e565b600282019050919050565b6000819050919050565b615cf5615cf082615459565b615cda565b82525050565b6000615d0682615cb7565b9150615d128285615ce4565b602082019150615d228284615ce4565b6020820191508190509392505050565b600060ff82169050919050565b615d4881615d32565b82525050565b6000608082019050615d636000830187615463565b615d706020830186615d3f565b615d7d6040830185615463565b615d8a6060830184615463565b95945050505050565b7f4552433732313a206d696e7420746f20746865207a65726f2061646472657373600082015250565b6000615dc9602083613b9f565b9150615dd482615d93565b602082019050919050565b60006020820190508181036000830152615df881615dbc565b9050919050565b7f4552433732313a20746f6b656e20616c7265616479206d696e74656400000000600082015250565b6000615e35601c83613b9f565b9150615e4082615dff565b602082019050919050565b60006020820190508181036000830152615e6481615e28565b9050919050565b600060a082019050615e806000830188615463565b615e8d6020830187615463565b615e9a6040830186615463565b615ea76060830185613d71565b615eb46080830184613cdb565b969550505050505056fea2646970667358221220fe8a9b32a3840238e2f0286aad91b434c399632eff31c3d421c009734f84949664736f6c63430008100033",
  "linkReferences": {},
  "deployedLinkReferences": {}
}