{
  "_format": "hh-sol-artifact-1",
  "contractName": "Marketplace",
  "sourceName": "contracts/Marketplace.sol",
  "abi": [
    {
      "anonymous": false,
      "inputs": [
        {
          "indexed": false,
          "internalType": "address",
          "name": "previousAdmin",
          "type": "address"
        },
        {
          "indexed": false,
          "internalType": "address",
          "name": "newAdmin",
          "type": "address"
        }
      ],
      "name": "AdminChanged",
      "type": "event"
    },
    {
      "anonymous": false,
      "inputs": [
        {
          "indexed": true,
          "internalType": "address",
          "name": "beacon",
          "type": "address"
        }
      ],
      "name": "BeaconUpgraded",
      "type": "event"
    },
    {
      "anonymous": false,
      "inputs": [
        {
          "indexed": false,
          "internalType": "uint8",
          "name": "version",
          "type": "uint8"
        }
      ],
      "name": "Initialized",
      "type": "event"
    },
    {
      "anonymous": false,
      "inputs": [
        {
          "indexed": false,
          "internalType": "uint256",
          "name": "_itemId",
          "type": "uint256"
        },
        {
          "indexed": true,
          "internalType": "address",
          "name": "_nft",
          "type": "address"
        },
        {
          "indexed": false,
          "internalType": "uint256",
          "name": "_tokenId",
          "type": "uint256"
        },
        {
          "indexed": false,
          "internalType": "uint256",
          "name": "_price",
          "type": "uint256"
        },
        {
          "indexed": true,
          "internalType": "address",
          "name": "_seller",
          "type": "address"
        },
        {
          "indexed": true,
          "internalType": "address",
          "name": "_buyer",
          "type": "address"
        }
      ],
      "name": "LogBuyItem",
      "type": "event"
    },
    {
      "anonymous": false,
      "inputs": [
        {
          "indexed": false,
          "internalType": "uint256",
          "name": "_itemId",
          "type": "uint256"
        },
        {
          "indexed": false,
          "internalType": "address",
          "name": "_sender",
          "type": "address"
        },
        {
          "indexed": false,
          "internalType": "uint256",
          "name": "_newPrice",
          "type": "uint256"
        }
      ],
      "name": "LogChangePrice",
      "type": "event"
    },
    {
      "anonymous": false,
      "inputs": [
        {
          "indexed": false,
          "internalType": "uint256",
          "name": "_itemID",
          "type": "uint256"
        },
        {
          "indexed": false,
          "internalType": "address",
          "name": "_seller",
          "type": "address"
        },
        {
          "indexed": false,
          "internalType": "enum Marketplace.item_status",
          "name": "_newStatus",
          "type": "uint8"
        }
      ],
      "name": "LogChangeStatus",
      "type": "event"
    },
    {
      "anonymous": false,
      "inputs": [
        {
          "indexed": false,
          "internalType": "uint256",
          "name": "_itemId",
          "type": "uint256"
        },
        {
          "indexed": true,
          "internalType": "address",
          "name": "_nft",
          "type": "address"
        },
        {
          "indexed": false,
          "internalType": "uint256",
          "name": "_tokenId",
          "type": "uint256"
        },
        {
          "indexed": false,
          "internalType": "uint256",
          "name": "_price",
          "type": "uint256"
        },
        {
          "indexed": true,
          "internalType": "address",
          "name": "_seller",
          "type": "address"
        },
        {
          "indexed": false,
          "internalType": "address",
          "name": "_creator",
          "type": "address"
        }
      ],
      "name": "LogCreateItem",
      "type": "event"
    },
    {
      "anonymous": false,
      "inputs": [
        {
          "indexed": false,
          "internalType": "uint256",
          "name": "_feePercentage",
          "type": "uint256"
        }
      ],
      "name": "LogSetFeePercentage",
      "type": "event"
    },
    {
      "anonymous": false,
      "inputs": [
        {
          "indexed": false,
          "internalType": "uint256",
          "name": "_listingFeePercentage",
          "type": "uint256"
        }
      ],
      "name": "LogSettListingFeesPercentage",
      "type": "event"
    },
    {
      "anonymous": false,
      "inputs": [
        {
          "indexed": true,
          "internalType": "address",
          "name": "previousOwner",
          "type": "address"
        },
        {
          "indexed": true,
          "internalType": "address",
          "name": "newOwner",
          "type": "address"
        }
      ],
      "name": "OwnershipTransferred",
      "type": "event"
    },
    {
      "anonymous": false,
      "inputs": [
        {
          "indexed": false,
          "internalType": "address",
          "name": "account",
          "type": "address"
        }
      ],
      "name": "Paused",
      "type": "event"
    },
    {
      "anonymous": false,
      "inputs": [
        {
          "indexed": false,
          "internalType": "address",
          "name": "account",
          "type": "address"
        }
      ],
      "name": "Unpaused",
      "type": "event"
    },
    {
      "anonymous": false,
      "inputs": [
        {
          "indexed": true,
          "internalType": "address",
          "name": "implementation",
          "type": "address"
        }
      ],
      "name": "Upgraded",
      "type": "event"
    },
    {
      "inputs": [
        {
          "internalType": "uint256",
          "name": "_itemId",
          "type": "uint256"
        }
      ],
      "name": "buyItem",
      "outputs": [],
      "stateMutability": "payable",
      "type": "function"
    },
    {
      "inputs": [
        {
          "internalType": "uint256",
          "name": "_itemId",
          "type": "uint256"
        },
        {
          "internalType": "enum Marketplace.item_status",
          "name": "_newStatus",
          "type": "uint8"
        }
      ],
      "name": "changeItemStatus",
      "outputs": [
        {
          "internalType": "bool",
          "name": "",
          "type": "bool"
        }
      ],
      "stateMutability": "nonpayable",
      "type": "function"
    },
    {
      "inputs": [],
      "name": "feePercentage",
      "outputs": [
        {
          "internalType": "uint256",
          "name": "",
          "type": "uint256"
        }
      ],
      "stateMutability": "view",
      "type": "function"
    },
    {
      "inputs": [],
      "name": "getContractBalance",
      "outputs": [
        {
          "internalType": "uint256",
          "name": "",
          "type": "uint256"
        }
      ],
      "stateMutability": "view",
      "type": "function"
    },
    {
      "inputs": [],
      "name": "getItemsCount",
      "outputs": [
        {
          "internalType": "uint256",
          "name": "",
          "type": "uint256"
        }
      ],
      "stateMutability": "view",
      "type": "function"
    },
    {
      "inputs": [],
      "name": "getItemsSold",
      "outputs": [
        {
          "internalType": "uint256",
          "name": "",
          "type": "uint256"
        }
      ],
      "stateMutability": "view",
      "type": "function"
    },
    {
      "inputs": [
        {
          "internalType": "uint256",
          "name": "_itemId",
          "type": "uint256"
        },
        {
          "internalType": "uint256",
          "name": "_newPrice",
          "type": "uint256"
        }
      ],
      "name": "getListedAgain",
      "outputs": [],
      "stateMutability": "nonpayable",
      "type": "function"
    },
    {
      "inputs": [
        {
          "internalType": "uint256",
          "name": "_price",
          "type": "uint256"
        }
      ],
      "name": "getListingFees",
      "outputs": [
        {
          "internalType": "uint256",
          "name": "",
          "type": "uint256"
        }
      ],
      "stateMutability": "view",
      "type": "function"
    },
    {
      "inputs": [
        {
          "internalType": "uint256",
          "name": "_feePercentage",
          "type": "uint256"
        }
      ],
      "name": "initialize",
      "outputs": [],
      "stateMutability": "nonpayable",
      "type": "function"
    },
    {
      "inputs": [
        {
          "internalType": "uint256",
          "name": "",
          "type": "uint256"
        }
      ],
      "name": "items",
      "outputs": [
        {
          "internalType": "uint256",
          "name": "itemId",
          "type": "uint256"
        },
        {
          "internalType": "address",
          "name": "nftAddress",
          "type": "address"
        },
        {
          "internalType": "uint256",
          "name": "tokenId",
          "type": "uint256"
        },
        {
          "internalType": "uint256",
          "name": "price",
          "type": "uint256"
        },
        {
          "internalType": "address payable",
          "name": "seller",
          "type": "address"
        },
        {
          "internalType": "address payable",
          "name": "creator",
          "type": "address"
        },
        {
          "internalType": "uint256",
          "name": "creatorRoyalties",
          "type": "uint256"
        },
        {
          "internalType": "enum Marketplace.item_status",
          "name": "status",
          "type": "uint8"
        }
      ],
      "stateMutability": "view",
      "type": "function"
    },
    {
      "inputs": [],
      "name": "listingFeePercentage",
      "outputs": [
        {
          "internalType": "uint256",
          "name": "",
          "type": "uint256"
        }
      ],
      "stateMutability": "view",
      "type": "function"
    },
    {
      "inputs": [
        {
          "internalType": "address",
          "name": "_nft",
          "type": "address"
        },
        {
          "internalType": "uint256",
          "name": "_tokenId",
          "type": "uint256"
        },
        {
          "internalType": "uint256",
          "name": "_price",
          "type": "uint256"
        }
      ],
      "name": "makeItem",
      "outputs": [
        {
          "internalType": "uint256",
          "name": "",
          "type": "uint256"
        }
      ],
      "stateMutability": "payable",
      "type": "function"
    },
    {
      "inputs": [
        {
          "internalType": "address",
          "name": "",
          "type": "address"
        },
        {
          "internalType": "address",
          "name": "",
          "type": "address"
        },
        {
          "internalType": "uint256",
          "name": "",
          "type": "uint256"
        },
        {
          "internalType": "bytes",
          "name": "",
          "type": "bytes"
        }
      ],
      "name": "onERC721Received",
      "outputs": [
        {
          "internalType": "bytes4",
          "name": "",
          "type": "bytes4"
        }
      ],
      "stateMutability": "nonpayable",
      "type": "function"
    },
    {
      "inputs": [],
      "name": "owner",
      "outputs": [
        {
          "internalType": "address",
          "name": "",
          "type": "address"
        }
      ],
      "stateMutability": "view",
      "type": "function"
    },
    {
      "inputs": [],
      "name": "pause",
      "outputs": [],
      "stateMutability": "nonpayable",
      "type": "function"
    },
    {
      "inputs": [],
      "name": "paused",
      "outputs": [
        {
          "internalType": "bool",
          "name": "",
          "type": "bool"
        }
      ],
      "stateMutability": "view",
      "type": "function"
    },
    {
      "inputs": [],
      "name": "proxiableUUID",
      "outputs": [
        {
          "internalType": "bytes32",
          "name": "",
          "type": "bytes32"
        }
      ],
      "stateMutability": "view",
      "type": "function"
    },
    {
      "inputs": [],
      "name": "renounceOwnership",
      "outputs": [],
      "stateMutability": "nonpayable",
      "type": "function"
    },
    {
      "inputs": [
        {
          "internalType": "uint256",
          "name": "_feePercentage",
          "type": "uint256"
        }
      ],
      "name": "setFeePercentage",
      "outputs": [],
      "stateMutability": "nonpayable",
      "type": "function"
    },
    {
      "inputs": [
        {
          "internalType": "uint256",
          "name": "_listingFeePercentage",
          "type": "uint256"
        }
      ],
      "name": "setListingFeesPercentage",
      "outputs": [],
      "stateMutability": "nonpayable",
      "type": "function"
    },
    {
      "inputs": [
        {
          "internalType": "address",
          "name": "newOwner",
          "type": "address"
        }
      ],
      "name": "transferOwnership",
      "outputs": [],
      "stateMutability": "nonpayable",
      "type": "function"
    },
    {
      "inputs": [],
      "name": "unpause",
      "outputs": [],
      "stateMutability": "nonpayable",
      "type": "function"
    },
    {
      "inputs": [
        {
          "internalType": "address",
          "name": "newImplementation",
          "type": "address"
        }
      ],
      "name": "upgradeTo",
      "outputs": [],
      "stateMutability": "nonpayable",
      "type": "function"
    },
    {
      "inputs": [
        {
          "internalType": "address",
          "name": "newImplementation",
          "type": "address"
        },
        {
          "internalType": "bytes",
          "name": "data",
          "type": "bytes"
        }
      ],
      "name": "upgradeToAndCall",
      "outputs": [],
      "stateMutability": "payable",
      "type": "function"
    },
    {
      "inputs": [],
      "name": "withdraw",
      "outputs": [],
      "stateMutability": "nonpayable",
      "type": "function"
    }
  ],
  "bytecode": "0x60a06040523073ffffffffffffffffffffffffffffffffffffffff1660809073ffffffffffffffffffffffffffffffffffffffff1681525034801561004357600080fd5b5060805161412061007b6000396000818161059501528181610623015281816107df0152818161086d015261092f01526141206000f3fe6080604052600436106101665760003560e01c80638456cb59116100d1578063c4b151411161008a578063e7fb74c711610064578063e7fb74c7146104da578063f2fde38b146104f6578063fa00afc71461051f578063fe4b84df1461054f57610166565b8063c4b1514114610449578063c528183c14610474578063e75e0ba7146104b157610166565b80638456cb59146103325780638da5cb5b146103495780639df844b914610374578063a001ecdd146103b1578063ae06c1b7146103dc578063bfb231d21461040557610166565b8063512dd02011610123578063512dd0201461024657806352d1902d146102715780635c975abb1461029c5780636f9fb98a146102c7578063715018a6146102f257806378abd6ae1461030957610166565b80630888de391461016b578063150b7a02146101965780633659cfe6146101d35780633ccfd60b146101fc5780633f4ba83a146102135780634f1ef2861461022a575b600080fd5b34801561017757600080fd5b50610180610578565b60405161018d91906127ab565b60405180910390f35b3480156101a257600080fd5b506101bd60048036038101906101b891906129aa565b61057f565b6040516101ca9190612a68565b60405180910390f35b3480156101df57600080fd5b506101fa60048036038101906101f59190612a83565b610593565b005b34801561020857600080fd5b5061021161071b565b005b34801561021f57600080fd5b506102286107cb565b005b610244600480360381019061023f9190612ab0565b6107dd565b005b34801561025257600080fd5b5061025b610919565b60405161026891906127ab565b60405180910390f35b34801561027d57600080fd5b5061028661092b565b6040516102939190612b25565b60405180910390f35b3480156102a857600080fd5b506102b16109e4565b6040516102be9190612b5b565b60405180910390f35b3480156102d357600080fd5b506102dc6109fb565b6040516102e991906127ab565b60405180910390f35b3480156102fe57600080fd5b50610307610a0b565b005b34801561031557600080fd5b50610330600480360381019061032b9190612b76565b610a1f565b005b34801561033e57600080fd5b50610347610a69565b005b34801561035557600080fd5b5061035e610a7b565b60405161036b9190612bb2565b60405180910390f35b34801561038057600080fd5b5061039b60048036038101906103969190612b76565b610aa5565b6040516103a891906127ab565b60405180910390f35b3480156103bd57600080fd5b506103c6610aca565b6040516103d391906127ab565b60405180910390f35b3480156103e857600080fd5b5061040360048036038101906103fe9190612b76565b610ad1565b005b34801561041157600080fd5b5061042c60048036038101906104279190612b76565b610b1b565b604051610440989796959493929190612c65565b60405180910390f35b34801561045557600080fd5b5061045e610bd1565b60405161046b91906127ab565b60405180910390f35b34801561048057600080fd5b5061049b60048036038101906104969190612d08565b610be3565b6040516104a89190612b5b565b60405180910390f35b3480156104bd57600080fd5b506104d860048036038101906104d39190612d48565b610dee565b005b6104f460048036038101906104ef9190612b76565b610e85565b005b34801561050257600080fd5b5061051d60048036038101906105189190612a83565b61134a565b005b61053960048036038101906105349190612d88565b6113cd565b60405161054691906127ab565b60405180910390f35b34801561055b57600080fd5b5061057660048036038101906105719190612b76565b611a01565b005b6101625481565b600063150b7a0260e01b9050949350505050565b7f000000000000000000000000000000000000000000000000000000000000000073ffffffffffffffffffffffffffffffffffffffff163073ffffffffffffffffffffffffffffffffffffffff1603610621576040517f08c379a000000000000000000000000000000000000000000000000000000000815260040161061890612e5e565b60405180910390fd5b7f000000000000000000000000000000000000000000000000000000000000000073ffffffffffffffffffffffffffffffffffffffff16610660611b69565b73ffffffffffffffffffffffffffffffffffffffff16146106b6576040517f08c379a00000000000000000000000000000000000000000000000000000000081526004016106ad90612ef0565b60405180910390fd5b6106bf81611bc0565b61071881600067ffffffffffffffff8111156106de576106dd61287f565b5b6040519080825280601f01601f1916602001820160405280156107105781602001600182028036833780820191505090505b506000611bcb565b50565b610723611d39565b600261012d5403610769576040517f08c379a000000000000000000000000000000000000000000000000000000000815260040161076090612f5c565b60405180910390fd5b600261012d8190555061077a610a7b565b73ffffffffffffffffffffffffffffffffffffffff166108fc479081150290604051600060405180830381858888f193505050501580156107bf573d6000803e3d6000fd5b50600161012d81905550565b6107d3611d39565b6107db611db7565b565b7f000000000000000000000000000000000000000000000000000000000000000073ffffffffffffffffffffffffffffffffffffffff163073ffffffffffffffffffffffffffffffffffffffff160361086b576040517f08c379a000000000000000000000000000000000000000000000000000000000815260040161086290612e5e565b60405180910390fd5b7f000000000000000000000000000000000000000000000000000000000000000073ffffffffffffffffffffffffffffffffffffffff166108aa611b69565b73ffffffffffffffffffffffffffffffffffffffff1614610900576040517f08c379a00000000000000000000000000000000000000000000000000000000081526004016108f790612ef0565b60405180910390fd5b61090982611bc0565b61091582826001611bcb565b5050565b600061092661015f611e1a565b905090565b60007f000000000000000000000000000000000000000000000000000000000000000073ffffffffffffffffffffffffffffffffffffffff163073ffffffffffffffffffffffffffffffffffffffff16146109bb576040517f08c379a00000000000000000000000000000000000000000000000000000000081526004016109b290612fee565b60405180910390fd5b7f360894a13ba1a3210667c828492db98dca3e2076cc3735a920a3ca505d382bbc60001b905090565b600060c960009054906101000a900460ff16905090565b6000610a05611d39565b47905090565b610a13611d39565b610a1d6000611e28565b565b610a27611d39565b80610162819055507ff4708f5477c5761ced4a90a84f1b43c94e1474e88179e2cbaef898ad8427365481604051610a5e91906127ab565b60405180910390a150565b610a71611d39565b610a79611eee565b565b6000609760009054906101000a900473ffffffffffffffffffffffffffffffffffffffff16905090565b60006103e86101625483610ab9919061303d565b610ac391906130c6565b9050919050565b6101615481565b610ad9611d39565b80610161819055507f3d03775d53d1fc3c9907ff0f9965de49744fbf933aa7ce8e129e2d1ea18caff181604051610b1091906127ab565b60405180910390a150565b6101636020528060005260406000206000915090508060000154908060010160009054906101000a900473ffffffffffffffffffffffffffffffffffffffff16908060020154908060030154908060040160009054906101000a900473ffffffffffffffffffffffffffffffffffffffff16908060050160009054906101000a900473ffffffffffffffffffffffffffffffffffffffff16908060060154908060070160009054906101000a900460ff16905088565b6000610bde610160611e1a565b905090565b600080610163600085815260200190815260200160002090503373ffffffffffffffffffffffffffffffffffffffff168160040160009054906101000a900473ffffffffffffffffffffffffffffffffffffffff1673ffffffffffffffffffffffffffffffffffffffff1614610c8e576040517f08c379a0000000000000000000000000000000000000000000000000000000008152600401610c8590613143565b60405180910390fd5b826002811115610ca157610ca0612bee565b5b8160070160009054906101000a900460ff166002811115610cc557610cc4612bee565b5b03610d05576040517f08c379a0000000000000000000000000000000000000000000000000000000008152600401610cfc906131af565b60405180910390fd5b600280811115610d1857610d17612bee565b5b8160070160009054906101000a900460ff166002811115610d3c57610d3b612bee565b5b03610d7c576040517f08c379a0000000000000000000000000000000000000000000000000000000008152600401610d739061321b565b60405180910390fd5b828160070160006101000a81548160ff02191690836002811115610da357610da2612bee565b5b02179055507fc1e3195802cae45d0816192af3f9b877c549a8ff1b446fc13048021fd1f933b8843385604051610ddb9392919061323b565b60405180910390a1600191505092915050565b610df88282611f51565b610e37576040517f08c379a0000000000000000000000000000000000000000000000000000000008152600401610e2e906132be565b60405180910390fd5b610e42826001610be3565b610e81576040517f08c379a0000000000000000000000000000000000000000000000000000000008152600401610e789061332a565b60405180910390fd5b5050565b600261012d5403610ecb576040517f08c379a0000000000000000000000000000000000000000000000000000000008152600401610ec290612f5c565b60405180910390fd5b600261012d81905550610edc61213a565b600061016360008381526020019081526020016000209050600082118015610f0e5750610f0a61015f611e1a565b8211155b610f4d576040517f08c379a0000000000000000000000000000000000000000000000000000000008152600401610f4490613396565b60405180910390fd5b8060030154341015610f94576040517f08c379a0000000000000000000000000000000000000000000000000000000008152600401610f8b90613428565b60405180910390fd5b60016002811115610fa857610fa7612bee565b5b8160070160009054906101000a900460ff166002811115610fcc57610fcb612bee565b5b1461100c576040517f08c379a000000000000000000000000000000000000000000000000000000000815260040161100390613494565b60405180910390fd5b6000808260010160009054906101000a900473ffffffffffffffffffffffffffffffffffffffff16905061103f81612184565b156110ca578073ffffffffffffffffffffffffffffffffffffffff16632a55205a8460020154346040518363ffffffff1660e01b81526004016110839291906134b4565b6040805180830381865afa15801561109f573d6000803e3d6000fd5b505050506040513d601f19601f820116820180604052508101906110c39190613507565b9050809250505b81836006018190555060006110e3348560060154612213565b90508360050160009054906101000a900473ffffffffffffffffffffffffffffffffffffffff1673ffffffffffffffffffffffffffffffffffffffff166108fc85600601549081150290604051600060405180830381858888f19350505050158015611153573d6000803e3d6000fd5b508360040160009054906101000a900473ffffffffffffffffffffffffffffffffffffffff1673ffffffffffffffffffffffffffffffffffffffff166108fc829081150290604051600060405180830381858888f193505050501580156111be573d6000803e3d6000fd5b5060028460070160006101000a81548160ff021916908360028111156111e7576111e6612bee565b5b02179055506111f7610160612254565b3373ffffffffffffffffffffffffffffffffffffffff168460040160009054906101000a900473ffffffffffffffffffffffffffffffffffffffff1673ffffffffffffffffffffffffffffffffffffffff168560010160009054906101000a900473ffffffffffffffffffffffffffffffffffffffff1673ffffffffffffffffffffffffffffffffffffffff167f179738be873fb5cb1076ebdeba2cd8886e3a9cf77d66790f0367dd0f6941448488886002015489600301546040516112bf93929190613547565b60405180910390a48173ffffffffffffffffffffffffffffffffffffffff166342842e0e303387600201546040518463ffffffff1660e01b81526004016113089392919061357e565b600060405180830381600087803b15801561132257600080fd5b505af1158015611336573d6000803e3d6000fd5b5050505050505050600161012d8190555050565b611352611d39565b600073ffffffffffffffffffffffffffffffffffffffff168173ffffffffffffffffffffffffffffffffffffffff16036113c1576040517f08c379a00000000000000000000000000000000000000000000000000000000081526004016113b890613627565b60405180910390fd5b6113ca81611e28565b50565b60006113d761213a565b600261012d540361141d576040517f08c379a000000000000000000000000000000000000000000000000000000000815260040161141490612f5c565b60405180910390fd5b600261012d81905550600073ffffffffffffffffffffffffffffffffffffffff168473ffffffffffffffffffffffffffffffffffffffff1603611495576040517f08c379a000000000000000000000000000000000000000000000000000000000815260040161148c90613693565b60405180910390fd5b600083116114d8576040517f08c379a00000000000000000000000000000000000000000000000000000000081526004016114cf90613725565b60405180910390fd5b3373ffffffffffffffffffffffffffffffffffffffff168473ffffffffffffffffffffffffffffffffffffffff16636352211e856040518263ffffffff1660e01b815260040161152891906127ab565b602060405180830381865afa158015611545573d6000803e3d6000fd5b505050506040513d601f19601f820116820180604052508101906115699190613745565b73ffffffffffffffffffffffffffffffffffffffff16146115bf576040517f08c379a00000000000000000000000000000000000000000000000000000000081526004016115b6906137be565b60405180910390fd5b346115c983610aa5565b111561160a576040517f08c379a00000000000000000000000000000000000000000000000000000000081526004016116019061382a565b60405180910390fd5b61161561015f612254565b600061162261015f611e1a565b90506000806000905061163487612184565b15611730578673ffffffffffffffffffffffffffffffffffffffff16632a55205a87876040518363ffffffff1660e01b81526004016116749291906134b4565b6040805180830381865afa158015611690573d6000803e3d6000fd5b505050506040513d601f19601f820116820180604052508101906116b49190613507565b8092508193505050600073ffffffffffffffffffffffffffffffffffffffff168273ffffffffffffffffffffffffffffffffffffffff160361172b576040517f08c379a000000000000000000000000000000000000000000000000000000000815260040161172290613896565b60405180910390fd5b611734565b3391505b6040518061010001604052808481526020018873ffffffffffffffffffffffffffffffffffffffff1681526020018781526020018681526020013373ffffffffffffffffffffffffffffffffffffffff1681526020018373ffffffffffffffffffffffffffffffffffffffff168152602001828152602001600160028111156117c0576117bf612bee565b5b81525061016360008581526020019081526020016000206000820151816000015560208201518160010160006101000a81548173ffffffffffffffffffffffffffffffffffffffff021916908373ffffffffffffffffffffffffffffffffffffffff160217905550604082015181600201556060820151816003015560808201518160040160006101000a81548173ffffffffffffffffffffffffffffffffffffffff021916908373ffffffffffffffffffffffffffffffffffffffff16021790555060a08201518160050160006101000a81548173ffffffffffffffffffffffffffffffffffffffff021916908373ffffffffffffffffffffffffffffffffffffffff16021790555060c0820151816006015560e08201518160070160006101000a81548160ff021916908360028111156118ff576118fe612bee565b5b02179055509050503373ffffffffffffffffffffffffffffffffffffffff168773ffffffffffffffffffffffffffffffffffffffff167fd87a6fff1d9137a29fab37cfdaf8519abc902ca48438125a02baf96a5d52307f8589898760405161196a94939291906138b6565b60405180910390a38673ffffffffffffffffffffffffffffffffffffffff166342842e0e3330896040518463ffffffff1660e01b81526004016119af9392919061357e565b600060405180830381600087803b1580156119c957600080fd5b505af11580156119dd573d6000803e3d6000fd5b505050506119ec61015f611e1a565b9350505050600161012d819055509392505050565b60008060019054906101000a900460ff16159050808015611a325750600160008054906101000a900460ff1660ff16105b80611a5f5750611a413061226a565b158015611a5e5750600160008054906101000a900460ff1660ff16145b5b611a9e576040517f08c379a0000000000000000000000000000000000000000000000000000000008152600401611a959061396d565b60405180910390fd5b60016000806101000a81548160ff021916908360ff1602179055508015611adb576001600060016101000a81548160ff0219169083151502179055505b611ae361228d565b611aeb6122de565b611af3612337565b611afb612390565b81610161819055506000610162819055508015611b655760008060016101000a81548160ff0219169083151502179055507f7f26b83ff96e1f2b6a682f133852f6798a09c465da95921460cefb38474024986001604051611b5c91906139df565b60405180910390a15b5050565b6000611b977f360894a13ba1a3210667c828492db98dca3e2076cc3735a920a3ca505d382bbc60001b6123e1565b60000160009054906101000a900473ffffffffffffffffffffffffffffffffffffffff16905090565b611bc8611d39565b50565b611bf77f4910fdfa16fed3260ed0e7147f7cc6da11a60208b5b9406d12a635614ffd914360001b6123eb565b60000160009054906101000a900460ff1615611c1b57611c16836123f5565b611d34565b8273ffffffffffffffffffffffffffffffffffffffff166352d1902d6040518163ffffffff1660e01b8152600401602060405180830381865afa925050508015611c8357506040513d601f19601f82011682018060405250810190611c809190613a26565b60015b611cc2576040517f08c379a0000000000000000000000000000000000000000000000000000000008152600401611cb990613ac5565b60405180910390fd5b7f360894a13ba1a3210667c828492db98dca3e2076cc3735a920a3ca505d382bbc60001b8114611d27576040517f08c379a0000000000000000000000000000000000000000000000000000000008152600401611d1e90613b57565b60405180910390fd5b50611d338383836124ae565b5b505050565b611d416124da565b73ffffffffffffffffffffffffffffffffffffffff16611d5f610a7b565b73ffffffffffffffffffffffffffffffffffffffff1614611db5576040517f08c379a0000000000000000000000000000000000000000000000000000000008152600401611dac90613bc3565b60405180910390fd5b565b611dbf6124e2565b600060c960006101000a81548160ff0219169083151502179055507f5db9ee0a495bf2e6ff9c91a7834c1ba4fdd244a5e8aa4e537bd38aeae4b073aa611e036124da565b604051611e109190612bb2565b60405180910390a1565b600081600001549050919050565b6000609760009054906101000a900473ffffffffffffffffffffffffffffffffffffffff16905081609760006101000a81548173ffffffffffffffffffffffffffffffffffffffff021916908373ffffffffffffffffffffffffffffffffffffffff1602179055508173ffffffffffffffffffffffffffffffffffffffff168173ffffffffffffffffffffffffffffffffffffffff167f8be0079c531659141344cd1fd0a4f28419497f9722a3daafe3b4186f6b6457e060405160405180910390a35050565b611ef661213a565b600160c960006101000a81548160ff0219169083151502179055507f62e78cea01bee320cd4e420270b5ea74000d11b0c9f74754ebdbfc544b05a258611f3a6124da565b604051611f479190612bb2565b60405180910390a1565b600080610163600085815260200190815260200160002090503373ffffffffffffffffffffffffffffffffffffffff168160040160009054906101000a900473ffffffffffffffffffffffffffffffffffffffff1673ffffffffffffffffffffffffffffffffffffffff1614611ffc576040517f08c379a0000000000000000000000000000000000000000000000000000000008152600401611ff390613143565b60405180910390fd5b60028081111561200f5761200e612bee565b5b8160070160009054906101000a900460ff16600281111561203357612032612bee565b5b03612073576040517f08c379a000000000000000000000000000000000000000000000000000000000815260040161206a9061321b565b60405180910390fd5b6000600281111561208757612086612bee565b5b8160070160009054906101000a900460ff1660028111156120ab576120aa612bee565b5b146120eb576040517f08c379a00000000000000000000000000000000000000000000000000000000081526004016120e290613c2f565b60405180910390fd5b8281600301819055507f6dcfb5ae8812d5ad1c251689041fb4e36cb7183b13472c2ffdc1e1eb42bf418684338560405161212793929190613c4f565b60405180910390a1600191505092915050565b6121426109e4565b15612182576040517f08c379a000000000000000000000000000000000000000000000000000000000815260040161217990613cd2565b60405180910390fd5b565b6000808273ffffffffffffffffffffffffffffffffffffffff166301ffc9a7632a55205a60e01b6040518263ffffffff1660e01b81526004016121c79190612a68565b602060405180830381865afa1580156121e4573d6000803e3d6000fd5b505050506040513d601f19601f820116820180604052508101906122089190613d1e565b905080915050919050565b6000806103e86101615485612228919061303d565b61223291906130c6565b905082816122409190613d4b565b8461224b9190613d7f565b91505092915050565b6001816000016000828254019250508190555050565b6000808273ffffffffffffffffffffffffffffffffffffffff163b119050919050565b600060019054906101000a900460ff166122dc576040517f08c379a00000000000000000000000000000000000000000000000000000000081526004016122d390613e25565b60405180910390fd5b565b600060019054906101000a900460ff1661232d576040517f08c379a000000000000000000000000000000000000000000000000000000000815260040161232490613e25565b60405180910390fd5b61233561252b565b565b600060019054906101000a900460ff16612386576040517f08c379a000000000000000000000000000000000000000000000000000000000815260040161237d90613e25565b60405180910390fd5b61238e61258c565b565b600060019054906101000a900460ff166123df576040517f08c379a00000000000000000000000000000000000000000000000000000000081526004016123d690613e25565b60405180910390fd5b565b6000819050919050565b6000819050919050565b6123fe8161226a565b61243d576040517f08c379a000000000000000000000000000000000000000000000000000000000815260040161243490613eb7565b60405180910390fd5b8061246a7f360894a13ba1a3210667c828492db98dca3e2076cc3735a920a3ca505d382bbc60001b6123e1565b60000160006101000a81548173ffffffffffffffffffffffffffffffffffffffff021916908373ffffffffffffffffffffffffffffffffffffffff16021790555050565b6124b7836125f8565b6000825111806124c45750805b156124d5576124d38383612647565b505b505050565b600033905090565b6124ea6109e4565b612529576040517f08c379a000000000000000000000000000000000000000000000000000000000815260040161252090613f23565b60405180910390fd5b565b600060019054906101000a900460ff1661257a576040517f08c379a000000000000000000000000000000000000000000000000000000000815260040161257190613e25565b60405180910390fd5b61258a6125856124da565b611e28565b565b600060019054906101000a900460ff166125db576040517f08c379a00000000000000000000000000000000000000000000000000000000081526004016125d290613e25565b60405180910390fd5b600060c960006101000a81548160ff021916908315150217905550565b612601816123f5565b8073ffffffffffffffffffffffffffffffffffffffff167fbc7cd75a20ee27fd9adebab32041f755214dbc6bffa90cc0225b39da2e5c2d3b60405160405180910390a250565b60606126528361226a565b612691576040517f08c379a000000000000000000000000000000000000000000000000000000000815260040161268890613fb5565b60405180910390fd5b6000808473ffffffffffffffffffffffffffffffffffffffff16846040516126b99190614046565b600060405180830381855af49150503d80600081146126f4576040519150601f19603f3d011682016040523d82523d6000602084013e6126f9565b606091505b509150915061272182826040518060600160405280602781526020016140c46027913961272b565b9250505092915050565b6060831561273b5782905061278b565b60008351111561274e5782518084602001fd5b816040517f08c379a000000000000000000000000000000000000000000000000000000000815260040161278291906140a1565b60405180910390fd5b9392505050565b6000819050919050565b6127a581612792565b82525050565b60006020820190506127c0600083018461279c565b92915050565b6000604051905090565b600080fd5b600080fd5b600073ffffffffffffffffffffffffffffffffffffffff82169050919050565b6000612805826127da565b9050919050565b612815816127fa565b811461282057600080fd5b50565b6000813590506128328161280c565b92915050565b61284181612792565b811461284c57600080fd5b50565b60008135905061285e81612838565b92915050565b600080fd5b600080fd5b6000601f19601f8301169050919050565b7f4e487b7100000000000000000000000000000000000000000000000000000000600052604160045260246000fd5b6128b78261286e565b810181811067ffffffffffffffff821117156128d6576128d561287f565b5b80604052505050565b60006128e96127c6565b90506128f582826128ae565b919050565b600067ffffffffffffffff8211156129155761291461287f565b5b61291e8261286e565b9050602081019050919050565b82818337600083830152505050565b600061294d612948846128fa565b6128df565b90508281526020810184848401111561296957612968612869565b5b61297484828561292b565b509392505050565b600082601f83011261299157612990612864565b5b81356129a184826020860161293a565b91505092915050565b600080600080608085870312156129c4576129c36127d0565b5b60006129d287828801612823565b94505060206129e387828801612823565b93505060406129f48782880161284f565b925050606085013567ffffffffffffffff811115612a1557612a146127d5565b5b612a218782880161297c565b91505092959194509250565b60007fffffffff0000000000000000000000000000000000000000000000000000000082169050919050565b612a6281612a2d565b82525050565b6000602082019050612a7d6000830184612a59565b92915050565b600060208284031215612a9957612a986127d0565b5b6000612aa784828501612823565b91505092915050565b60008060408385031215612ac757612ac66127d0565b5b6000612ad585828601612823565b925050602083013567ffffffffffffffff811115612af657612af56127d5565b5b612b028582860161297c565b9150509250929050565b6000819050919050565b612b1f81612b0c565b82525050565b6000602082019050612b3a6000830184612b16565b92915050565b60008115159050919050565b612b5581612b40565b82525050565b6000602082019050612b706000830184612b4c565b92915050565b600060208284031215612b8c57612b8b6127d0565b5b6000612b9a8482850161284f565b91505092915050565b612bac816127fa565b82525050565b6000602082019050612bc76000830184612ba3565b92915050565b6000612bd8826127da565b9050919050565b612be881612bcd565b82525050565b7f4e487b7100000000000000000000000000000000000000000000000000000000600052602160045260246000fd5b60038110612c2e57612c2d612bee565b5b50565b6000819050612c3f82612c1d565b919050565b6000612c4f82612c31565b9050919050565b612c5f81612c44565b82525050565b600061010082019050612c7b600083018b61279c565b612c88602083018a612ba3565b612c95604083018961279c565b612ca2606083018861279c565b612caf6080830187612bdf565b612cbc60a0830186612bdf565b612cc960c083018561279c565b612cd660e0830184612c56565b9998505050505050505050565b60038110612cf057600080fd5b50565b600081359050612d0281612ce3565b92915050565b60008060408385031215612d1f57612d1e6127d0565b5b6000612d2d8582860161284f565b9250506020612d3e85828601612cf3565b9150509250929050565b60008060408385031215612d5f57612d5e6127d0565b5b6000612d6d8582860161284f565b9250506020612d7e8582860161284f565b9150509250929050565b600080600060608486031215612da157612da06127d0565b5b6000612daf86828701612823565b9350506020612dc08682870161284f565b9250506040612dd18682870161284f565b9150509250925092565b600082825260208201905092915050565b7f46756e6374696f6e206d7573742062652063616c6c6564207468726f7567682060008201527f64656c656761746563616c6c0000000000000000000000000000000000000000602082015250565b6000612e48602c83612ddb565b9150612e5382612dec565b604082019050919050565b60006020820190508181036000830152612e7781612e3b565b9050919050565b7f46756e6374696f6e206d7573742062652063616c6c6564207468726f7567682060008201527f6163746976652070726f78790000000000000000000000000000000000000000602082015250565b6000612eda602c83612ddb565b9150612ee582612e7e565b604082019050919050565b60006020820190508181036000830152612f0981612ecd565b9050919050565b7f5265656e7472616e637947756172643a207265656e7472616e742063616c6c00600082015250565b6000612f46601f83612ddb565b9150612f5182612f10565b602082019050919050565b60006020820190508181036000830152612f7581612f39565b9050919050565b7f555550535570677261646561626c653a206d757374206e6f742062652063616c60008201527f6c6564207468726f7567682064656c656761746563616c6c0000000000000000602082015250565b6000612fd8603883612ddb565b9150612fe382612f7c565b604082019050919050565b6000602082019050818103600083015261300781612fcb565b9050919050565b7f4e487b7100000000000000000000000000000000000000000000000000000000600052601160045260246000fd5b600061304882612792565b915061305383612792565b9250817fffffffffffffffffffffffffffffffffffffffffffffffffffffffffffffffff048311821515161561308c5761308b61300e565b5b828202905092915050565b7f4e487b7100000000000000000000000000000000000000000000000000000000600052601260045260246000fd5b60006130d182612792565b91506130dc83612792565b9250826130ec576130eb613097565b5b828204905092915050565b7f6f6e6c792073656c6c65722063616e206368616e676520737461747573210000600082015250565b600061312d601e83612ddb565b9150613138826130f7565b602082019050919050565b6000602082019050818103600083015261315c81613120565b9050919050565b7f7374617475732073686f756c64206265206e6577210000000000000000000000600082015250565b6000613199601583612ddb565b91506131a482613163565b602082019050919050565b600060208201905081810360008301526131c88161318c565b9050919050565b7f6974656d20616c726561647920736f6c64210000000000000000000000000000600082015250565b6000613205601283612ddb565b9150613210826131cf565b602082019050919050565b60006020820190508181036000830152613234816131f8565b9050919050565b6000606082019050613250600083018661279c565b61325d6020830185612ba3565b61326a6040830184612c56565b949350505050565b7f536574206e6577207072696365206661696c6564210000000000000000000000600082015250565b60006132a8601583612ddb565b91506132b382613272565b602082019050919050565b600060208201905081810360008301526132d78161329b565b9050919050565b7f536574206e6577206974656d20737461747573206661696c6564210000000000600082015250565b6000613314601b83612ddb565b915061331f826132de565b602082019050919050565b6000602082019050818103600083015261334381613307565b9050919050565b7f6974656d20646f6573206e6f7420657869737400000000000000000000000000600082015250565b6000613380601383612ddb565b915061338b8261334a565b602082019050919050565b600060208201905081810360008301526133af81613373565b9050919050565b7f6e6f7420656e6f75676820657468657220746f20636f766572206974656d207060008201527f7269636520616e64206d61726b65742066656500000000000000000000000000602082015250565b6000613412603383612ddb565b915061341d826133b6565b604082019050919050565b6000602082019050818103600083015261344181613405565b9050919050565b7f6974656d2073686f756c64206265206c69737465640000000000000000000000600082015250565b600061347e601583612ddb565b915061348982613448565b602082019050919050565b600060208201905081810360008301526134ad81613471565b9050919050565b60006040820190506134c9600083018561279c565b6134d6602083018461279c565b9392505050565b6000815190506134ec8161280c565b92915050565b60008151905061350181612838565b92915050565b6000806040838503121561351e5761351d6127d0565b5b600061352c858286016134dd565b925050602061353d858286016134f2565b9150509250929050565b600060608201905061355c600083018661279c565b613569602083018561279c565b613576604083018461279c565b949350505050565b60006060820190506135936000830186612ba3565b6135a06020830185612ba3565b6135ad604083018461279c565b949350505050565b7f4f776e61626c653a206e6577206f776e657220697320746865207a65726f206160008201527f6464726573730000000000000000000000000000000000000000000000000000602082015250565b6000613611602683612ddb565b915061361c826135b5565b604082019050919050565b6000602082019050818103600083015261364081613604565b9050919050565b7f5a65726f2061646472657373206973206e6f7420616c6c6f7765642100000000600082015250565b600061367d601c83612ddb565b915061368882613647565b602082019050919050565b600060208201905081810360008301526136ac81613670565b9050919050565b7f546f6b656e2069642073686f756c642062652067726561746572207468616e2060008201527f7a65726f21000000000000000000000000000000000000000000000000000000602082015250565b600061370f602583612ddb565b915061371a826136b3565b604082019050919050565b6000602082019050818103600083015261373e81613702565b9050919050565b60006020828403121561375b5761375a6127d0565b5b6000613769848285016134dd565b91505092915050565b7f4f6e6c79206f776e65722063616e206c69737420697473204e46542100000000600082015250565b60006137a8601c83612ddb565b91506137b382613772565b602082019050919050565b600060208201905081810360008301526137d78161379b565b9050919050565b7f53686f756c6420706179206c697374696e672066656573210000000000000000600082015250565b6000613814601883612ddb565b915061381f826137de565b602082019050919050565b6000602082019050818103600083015261384381613807565b9050919050565b7f43726561746f72206973207a65726f2061646472657373210000000000000000600082015250565b6000613880601883612ddb565b915061388b8261384a565b602082019050919050565b600060208201905081810360008301526138af81613873565b9050919050565b60006080820190506138cb600083018761279c565b6138d8602083018661279c565b6138e5604083018561279c565b6138f26060830184612ba3565b95945050505050565b7f496e697469616c697a61626c653a20636f6e747261637420697320616c72656160008201527f647920696e697469616c697a6564000000000000000000000000000000000000602082015250565b6000613957602e83612ddb565b9150613962826138fb565b604082019050919050565b600060208201905081810360008301526139868161394a565b9050919050565b6000819050919050565b600060ff82169050919050565b6000819050919050565b60006139c96139c46139bf8461398d565b6139a4565b613997565b9050919050565b6139d9816139ae565b82525050565b60006020820190506139f460008301846139d0565b92915050565b613a0381612b0c565b8114613a0e57600080fd5b50565b600081519050613a20816139fa565b92915050565b600060208284031215613a3c57613a3b6127d0565b5b6000613a4a84828501613a11565b91505092915050565b7f45524331393637557067726164653a206e657720696d706c656d656e7461746960008201527f6f6e206973206e6f742055555053000000000000000000000000000000000000602082015250565b6000613aaf602e83612ddb565b9150613aba82613a53565b604082019050919050565b60006020820190508181036000830152613ade81613aa2565b9050919050565b7f45524331393637557067726164653a20756e737570706f727465642070726f7860008201527f6961626c65555549440000000000000000000000000000000000000000000000602082015250565b6000613b41602983612ddb565b9150613b4c82613ae5565b604082019050919050565b60006020820190508181036000830152613b7081613b34565b9050919050565b7f4f776e61626c653a2063616c6c6572206973206e6f7420746865206f776e6572600082015250565b6000613bad602083612ddb565b9150613bb882613b77565b602082019050919050565b60006020820190508181036000830152613bdc81613ba0565b9050919050565b7f6974656d2073686f756c64206e6f74206265206c697374656400000000000000600082015250565b6000613c19601983612ddb565b9150613c2482613be3565b602082019050919050565b60006020820190508181036000830152613c4881613c0c565b9050919050565b6000606082019050613c64600083018661279c565b613c716020830185612ba3565b613c7e604083018461279c565b949350505050565b7f5061757361626c653a2070617573656400000000000000000000000000000000600082015250565b6000613cbc601083612ddb565b9150613cc782613c86565b602082019050919050565b60006020820190508181036000830152613ceb81613caf565b9050919050565b613cfb81612b40565b8114613d0657600080fd5b50565b600081519050613d1881613cf2565b92915050565b600060208284031215613d3457613d336127d0565b5b6000613d4284828501613d09565b91505092915050565b6000613d5682612792565b9150613d6183612792565b9250828201905080821115613d7957613d7861300e565b5b92915050565b6000613d8a82612792565b9150613d9583612792565b9250828203905081811115613dad57613dac61300e565b5b92915050565b7f496e697469616c697a61626c653a20636f6e7472616374206973206e6f74206960008201527f6e697469616c697a696e67000000000000000000000000000000000000000000602082015250565b6000613e0f602b83612ddb565b9150613e1a82613db3565b604082019050919050565b60006020820190508181036000830152613e3e81613e02565b9050919050565b7f455243313936373a206e657720696d706c656d656e746174696f6e206973206e60008201527f6f74206120636f6e747261637400000000000000000000000000000000000000602082015250565b6000613ea1602d83612ddb565b9150613eac82613e45565b604082019050919050565b60006020820190508181036000830152613ed081613e94565b9050919050565b7f5061757361626c653a206e6f7420706175736564000000000000000000000000600082015250565b6000613f0d601483612ddb565b9150613f1882613ed7565b602082019050919050565b60006020820190508181036000830152613f3c81613f00565b9050919050565b7f416464726573733a2064656c65676174652063616c6c20746f206e6f6e2d636f60008201527f6e74726163740000000000000000000000000000000000000000000000000000602082015250565b6000613f9f602683612ddb565b9150613faa82613f43565b604082019050919050565b60006020820190508181036000830152613fce81613f92565b9050919050565b600081519050919050565b600081905092915050565b60005b83811015614009578082015181840152602081019050613fee565b60008484015250505050565b600061402082613fd5565b61402a8185613fe0565b935061403a818560208601613feb565b80840191505092915050565b60006140528284614015565b915081905092915050565b600081519050919050565b60006140738261405d565b61407d8185612ddb565b935061408d818560208601613feb565b6140968161286e565b840191505092915050565b600060208201905081810360008301526140bb8184614068565b90509291505056fe416464726573733a206c6f772d6c6576656c2064656c65676174652063616c6c206661696c6564a26469706673582212208531df609261f768ba7ea362343a869fe4124cd96f8698e6c56d6274f073b14864736f6c63430008100033",
  "linkReferences": {},
  "deployedLinkReferences": {}
}