{
  "_format": "hh-sol-artifact-1",
  "contractName": "ApesNFT",
  "sourceName": "contracts/ApesNFT.sol",
  "abi": [
    {
      "inputs": [
        {
          "internalType": "string",
          "name": "_name",
          "type": "string"
        },
        {
          "internalType": "string",
          "name": "_symbol",
          "type": "string"
        },
        {
          "internalType": "uint256",
          "name": "_royaltyPercentage",
          "type": "uint256"
        }
      ],
      "stateMutability": "nonpayable",
      "type": "constructor"
    },
    {
      "anonymous": false,
      "inputs": [
        {
          "indexed": true,
          "internalType": "address",
          "name": "owner",
          "type": "address"
        },
        {
          "indexed": true,
          "internalType": "address",
          "name": "approved",
          "type": "address"
        },
        {
          "indexed": true,
          "internalType": "uint256",
          "name": "tokenId",
          "type": "uint256"
        }
      ],
      "name": "Approval",
      "type": "event"
    },
    {
      "anonymous": false,
      "inputs": [
        {
          "indexed": true,
          "internalType": "address",
          "name": "owner",
          "type": "address"
        },
        {
          "indexed": true,
          "internalType": "address",
          "name": "operator",
          "type": "address"
        },
        {
          "indexed": false,
          "internalType": "bool",
          "name": "approved",
          "type": "bool"
        }
      ],
      "name": "ApprovalForAll",
      "type": "event"
    },
    {
      "anonymous": false,
      "inputs": [
        {
          "indexed": false,
          "internalType": "uint256",
          "name": "_nftId",
          "type": "uint256"
        },
        {
          "indexed": false,
          "internalType": "address",
          "name": "_owner",
          "type": "address"
        },
        {
          "indexed": false,
          "internalType": "string",
          "name": "_nftURI",
          "type": "string"
        }
      ],
      "name": "LogNFTMinted",
      "type": "event"
    },
    {
      "anonymous": false,
      "inputs": [
        {
          "indexed": true,
          "internalType": "address",
          "name": "previousOwner",
          "type": "address"
        },
        {
          "indexed": true,
          "internalType": "address",
          "name": "newOwner",
          "type": "address"
        }
      ],
      "name": "OwnershipTransferred",
      "type": "event"
    },
    {
      "anonymous": false,
      "inputs": [
        {
          "indexed": false,
          "internalType": "address",
          "name": "account",
          "type": "address"
        }
      ],
      "name": "Paused",
      "type": "event"
    },
    {
      "anonymous": false,
      "inputs": [
        {
          "indexed": true,
          "internalType": "address",
          "name": "from",
          "type": "address"
        },
        {
          "indexed": true,
          "internalType": "address",
          "name": "to",
          "type": "address"
        },
        {
          "indexed": true,
          "internalType": "uint256",
          "name": "tokenId",
          "type": "uint256"
        }
      ],
      "name": "Transfer",
      "type": "event"
    },
    {
      "anonymous": false,
      "inputs": [
        {
          "indexed": false,
          "internalType": "address",
          "name": "account",
          "type": "address"
        }
      ],
      "name": "Unpaused",
      "type": "event"
    },
    {
      "inputs": [],
      "name": "MAX_ROYALTIES_PERCENTAGE",
      "outputs": [
        {
          "internalType": "uint256",
          "name": "",
          "type": "uint256"
        }
      ],
      "stateMutability": "view",
      "type": "function"
    },
    {
      "inputs": [
        {
          "internalType": "address",
          "name": "to",
          "type": "address"
        },
        {
          "internalType": "uint256",
          "name": "tokenId",
          "type": "uint256"
        }
      ],
      "name": "approve",
      "outputs": [],
      "stateMutability": "nonpayable",
      "type": "function"
    },
    {
      "inputs": [
        {
          "internalType": "address",
          "name": "owner",
          "type": "address"
        }
      ],
      "name": "balanceOf",
      "outputs": [
        {
          "internalType": "uint256",
          "name": "",
          "type": "uint256"
        }
      ],
      "stateMutability": "view",
      "type": "function"
    },
    {
      "inputs": [
        {
          "internalType": "uint256",
          "name": "_nftId",
          "type": "uint256"
        }
      ],
      "name": "getApeAttributes",
      "outputs": [
        {
          "components": [
            {
              "internalType": "uint256",
              "name": "idAttribute",
              "type": "uint256"
            },
            {
              "internalType": "uint256",
              "name": "value",
              "type": "uint256"
            }
          ],
          "internalType": "struct ApesNFT.Attributes[]",
          "name": "",
          "type": "tuple[]"
        }
      ],
      "stateMutability": "view",
      "type": "function"
    },
    {
      "inputs": [
        {
          "internalType": "uint256",
          "name": "tokenId",
          "type": "uint256"
        }
      ],
      "name": "getApproved",
      "outputs": [
        {
          "internalType": "address",
          "name": "",
          "type": "address"
        }
      ],
      "stateMutability": "view",
      "type": "function"
    },
    {
      "inputs": [],
      "name": "getCurrentTokenId",
      "outputs": [
        {
          "internalType": "uint256",
          "name": "",
          "type": "uint256"
        }
      ],
      "stateMutability": "view",
      "type": "function"
    },
    {
      "inputs": [
        {
          "internalType": "address",
          "name": "owner",
          "type": "address"
        },
        {
          "internalType": "address",
          "name": "operator",
          "type": "address"
        }
      ],
      "name": "isApprovedForAll",
      "outputs": [
        {
          "internalType": "bool",
          "name": "",
          "type": "bool"
        }
      ],
      "stateMutability": "view",
      "type": "function"
    },
    {
      "inputs": [
        {
          "internalType": "string",
          "name": "_tokenURI",
          "type": "string"
        },
        {
          "components": [
            {
              "internalType": "uint256",
              "name": "idAttribute",
              "type": "uint256"
            },
            {
              "internalType": "uint256",
              "name": "value",
              "type": "uint256"
            }
          ],
          "internalType": "struct ApesNFT.Attributes[]",
          "name": "_attributes",
          "type": "tuple[]"
        }
      ],
      "name": "mint",
      "outputs": [
        {
          "internalType": "uint256",
          "name": "",
          "type": "uint256"
        }
      ],
      "stateMutability": "nonpayable",
      "type": "function"
    },
    {
      "inputs": [],
      "name": "name",
      "outputs": [
        {
          "internalType": "string",
          "name": "",
          "type": "string"
        }
      ],
      "stateMutability": "view",
      "type": "function"
    },
    {
      "inputs": [
        {
          "internalType": "uint256",
          "name": "",
          "type": "uint256"
        },
        {
          "internalType": "uint256",
          "name": "",
          "type": "uint256"
        }
      ],
      "name": "onChainData",
      "outputs": [
        {
          "internalType": "uint256",
          "name": "idAttribute",
          "type": "uint256"
        },
        {
          "internalType": "uint256",
          "name": "value",
          "type": "uint256"
        }
      ],
      "stateMutability": "view",
      "type": "function"
    },
    {
      "inputs": [],
      "name": "owner",
      "outputs": [
        {
          "internalType": "address",
          "name": "",
          "type": "address"
        }
      ],
      "stateMutability": "view",
      "type": "function"
    },
    {
      "inputs": [
        {
          "internalType": "uint256",
          "name": "tokenId",
          "type": "uint256"
        }
      ],
      "name": "ownerOf",
      "outputs": [
        {
          "internalType": "address",
          "name": "",
          "type": "address"
        }
      ],
      "stateMutability": "view",
      "type": "function"
    },
    {
      "inputs": [],
      "name": "pause",
      "outputs": [],
      "stateMutability": "nonpayable",
      "type": "function"
    },
    {
      "inputs": [],
      "name": "paused",
      "outputs": [
        {
          "internalType": "bool",
          "name": "",
          "type": "bool"
        }
      ],
      "stateMutability": "view",
      "type": "function"
    },
    {
      "inputs": [],
      "name": "renounceOwnership",
      "outputs": [],
      "stateMutability": "nonpayable",
      "type": "function"
    },
    {
      "inputs": [],
      "name": "royaltyPercentage",
      "outputs": [
        {
          "internalType": "uint256",
          "name": "",
          "type": "uint256"
        }
      ],
      "stateMutability": "view",
      "type": "function"
    },
    {
      "inputs": [
        {
          "internalType": "address",
          "name": "from",
          "type": "address"
        },
        {
          "internalType": "address",
          "name": "to",
          "type": "address"
        },
        {
          "internalType": "uint256",
          "name": "tokenId",
          "type": "uint256"
        }
      ],
      "name": "safeTransferFrom",
      "outputs": [],
      "stateMutability": "nonpayable",
      "type": "function"
    },
    {
      "inputs": [
        {
          "internalType": "address",
          "name": "from",
          "type": "address"
        },
        {
          "internalType": "address",
          "name": "to",
          "type": "address"
        },
        {
          "internalType": "uint256",
          "name": "tokenId",
          "type": "uint256"
        },
        {
          "internalType": "bytes",
          "name": "data",
          "type": "bytes"
        }
      ],
      "name": "safeTransferFrom",
      "outputs": [],
      "stateMutability": "nonpayable",
      "type": "function"
    },
    {
      "inputs": [
        {
          "internalType": "address",
          "name": "operator",
          "type": "address"
        },
        {
          "internalType": "bool",
          "name": "approved",
          "type": "bool"
        }
      ],
      "name": "setApprovalForAll",
      "outputs": [],
      "stateMutability": "nonpayable",
      "type": "function"
    },
    {
      "inputs": [
        {
          "internalType": "uint256",
          "name": "_royaltyPercentage",
          "type": "uint256"
        }
      ],
      "name": "setRoyaltyPercentage",
      "outputs": [],
      "stateMutability": "nonpayable",
      "type": "function"
    },
    {
      "inputs": [
        {
          "internalType": "bytes4",
          "name": "interfaceId",
          "type": "bytes4"
        }
      ],
      "name": "supportsInterface",
      "outputs": [
        {
          "internalType": "bool",
          "name": "",
          "type": "bool"
        }
      ],
      "stateMutability": "view",
      "type": "function"
    },
    {
      "inputs": [],
      "name": "symbol",
      "outputs": [
        {
          "internalType": "string",
          "name": "",
          "type": "string"
        }
      ],
      "stateMutability": "view",
      "type": "function"
    },
    {
      "inputs": [
        {
          "internalType": "uint256",
          "name": "index",
          "type": "uint256"
        }
      ],
      "name": "tokenByIndex",
      "outputs": [
        {
          "internalType": "uint256",
          "name": "",
          "type": "uint256"
        }
      ],
      "stateMutability": "view",
      "type": "function"
    },
    {
      "inputs": [
        {
          "internalType": "address",
          "name": "owner",
          "type": "address"
        },
        {
          "internalType": "uint256",
          "name": "index",
          "type": "uint256"
        }
      ],
      "name": "tokenOfOwnerByIndex",
      "outputs": [
        {
          "internalType": "uint256",
          "name": "",
          "type": "uint256"
        }
      ],
      "stateMutability": "view",
      "type": "function"
    },
    {
      "inputs": [
        {
          "internalType": "uint256",
          "name": "tokenId",
          "type": "uint256"
        }
      ],
      "name": "tokenURI",
      "outputs": [
        {
          "internalType": "string",
          "name": "",
          "type": "string"
        }
      ],
      "stateMutability": "view",
      "type": "function"
    },
    {
      "inputs": [],
      "name": "totalSupply",
      "outputs": [
        {
          "internalType": "uint256",
          "name": "",
          "type": "uint256"
        }
      ],
      "stateMutability": "view",
      "type": "function"
    },
    {
      "inputs": [
        {
          "internalType": "address",
          "name": "from",
          "type": "address"
        },
        {
          "internalType": "address",
          "name": "to",
          "type": "address"
        },
        {
          "internalType": "uint256",
          "name": "tokenId",
          "type": "uint256"
        }
      ],
      "name": "transferFrom",
      "outputs": [],
      "stateMutability": "nonpayable",
      "type": "function"
    },
    {
      "inputs": [
        {
          "internalType": "address",
          "name": "newOwner",
          "type": "address"
        }
      ],
      "name": "transferOwnership",
      "outputs": [],
      "stateMutability": "nonpayable",
      "type": "function"
    },
    {
      "inputs": [],
      "name": "unpause",
      "outputs": [],
      "stateMutability": "nonpayable",
      "type": "function"
    }
  ],
  "bytecode": "0x60806040523480156200001157600080fd5b506040516200497f3803806200497f83398181016040528101906200003791906200038f565b828281600090816200004a91906200066a565b5080600190816200005c91906200066a565b5050506000600b60006101000a81548160ff0219169083151502179055506200009a6200008e620000f360201b60201c565b620000fb60201b60201c565b80600a811115620000e2576040517f08c379a0000000000000000000000000000000000000000000000000000000008152600401620000d990620007d8565b60405180910390fd5b81600e8190555050505050620007fa565b600033905090565b6000600b60019054906101000a900473ffffffffffffffffffffffffffffffffffffffff16905081600b60016101000a81548173ffffffffffffffffffffffffffffffffffffffff021916908373ffffffffffffffffffffffffffffffffffffffff1602179055508173ffffffffffffffffffffffffffffffffffffffff168173ffffffffffffffffffffffffffffffffffffffff167f8be0079c531659141344cd1fd0a4f28419497f9722a3daafe3b4186f6b6457e060405160405180910390a35050565b6000604051905090565b600080fd5b600080fd5b600080fd5b600080fd5b6000601f19601f8301169050919050565b7f4e487b7100000000000000000000000000000000000000000000000000000000600052604160045260246000fd5b6200022a82620001df565b810181811067ffffffffffffffff821117156200024c576200024b620001f0565b5b80604052505050565b600062000261620001c1565b90506200026f82826200021f565b919050565b600067ffffffffffffffff821115620002925762000291620001f0565b5b6200029d82620001df565b9050602081019050919050565b60005b83811015620002ca578082015181840152602081019050620002ad565b60008484015250505050565b6000620002ed620002e78462000274565b62000255565b9050828152602081018484840111156200030c576200030b620001da565b5b62000319848285620002aa565b509392505050565b600082601f830112620003395762000338620001d5565b5b81516200034b848260208601620002d6565b91505092915050565b6000819050919050565b620003698162000354565b81146200037557600080fd5b50565b60008151905062000389816200035e565b92915050565b600080600060608486031215620003ab57620003aa620001cb565b5b600084015167ffffffffffffffff811115620003cc57620003cb620001d0565b5b620003da8682870162000321565b935050602084015167ffffffffffffffff811115620003fe57620003fd620001d0565b5b6200040c8682870162000321565b92505060406200041f8682870162000378565b9150509250925092565b600081519050919050565b7f4e487b7100000000000000000000000000000000000000000000000000000000600052602260045260246000fd5b600060028204905060018216806200047c57607f821691505b60208210810362000492576200049162000434565b5b50919050565b60008190508160005260206000209050919050565b60006020601f8301049050919050565b600082821b905092915050565b600060088302620004fc7fffffffffffffffffffffffffffffffffffffffffffffffffffffffffffffffff82620004bd565b620005088683620004bd565b95508019841693508086168417925050509392505050565b6000819050919050565b60006200054b620005456200053f8462000354565b62000520565b62000354565b9050919050565b6000819050919050565b62000567836200052a565b6200057f620005768262000552565b848454620004ca565b825550505050565b600090565b6200059662000587565b620005a38184846200055c565b505050565b5b81811015620005cb57620005bf6000826200058c565b600181019050620005a9565b5050565b601f8211156200061a57620005e48162000498565b620005ef84620004ad565b81016020851015620005ff578190505b620006176200060e85620004ad565b830182620005a8565b50505b505050565b600082821c905092915050565b60006200063f600019846008026200061f565b1980831691505092915050565b60006200065a83836200062c565b9150826002028217905092915050565b620006758262000429565b67ffffffffffffffff811115620006915762000690620001f0565b5b6200069d825462000463565b620006aa828285620005cf565b600060209050601f831160018114620006e25760008415620006cd578287015190505b620006d985826200064c565b86555062000749565b601f198416620006f28662000498565b60005b828110156200071c57848901518255600182019150602085019450602081019050620006f5565b868310156200073c578489015162000738601f8916826200062c565b8355505b6001600288020188555050505b505050505050565b600082825260208201905092915050565b7f526f79616c746965732070657263656e746167652073686f756c64206265206560008201527f7175616c206f72206c65737373207468616e2031302500000000000000000000602082015250565b6000620007c060368362000751565b9150620007cd8262000762565b604082019050919050565b60006020820190508181036000830152620007f381620007b1565b9050919050565b614175806200080a6000396000f3fe608060405234801561001057600080fd5b50600436106101cf5760003560e01c80636071dfb6116101045780638da5cb5b116100a2578063b88d4fde11610071578063b88d4fde1461051f578063c87b56dd1461053b578063e985e9c51461056b578063f2fde38b1461059b576101cf565b80638da5cb5b1461049757806395d89b41146104b5578063a22cb465146104d3578063afb38b97146104ef576101cf565b806370a08231116100de57806370a0823114610435578063715018a6146104655780638456cb591461046f5780638a71bb2d14610479576101cf565b80636071dfb6146103cb57806361ba27da146103e95780636352211e14610405576101cf565b806323b872dd1161017157806342842e0e1161014b57806342842e0e146103435780634f6ccce71461035f578063561892361461038f5780635c975abb146103ad576101cf565b806323b872dd146102ed5780632f745c59146103095780633f4ba83a14610339576101cf565b8063095ea7b3116101ad578063095ea7b31461025257806313b6546f1461026e57806318160ddd1461029f5780631cc9201a146102bd576101cf565b806301ffc9a7146101d457806306fdde0314610204578063081812fc14610222575b600080fd5b6101ee60048036038101906101e991906127de565b6105b7565b6040516101fb9190612826565b60405180910390f35b61020c6105c9565b60405161021991906128d1565b60405180910390f35b61023c60048036038101906102379190612929565b61065b565b6040516102499190612997565b60405180910390f35b61026c600480360381019061026791906129de565b6106a1565b005b61028860048036038101906102839190612a1e565b6107b8565b604051610296929190612a6d565b60405180910390f35b6102a76107f9565b6040516102b49190612a96565b60405180910390f35b6102d760048036038101906102d29190612929565b610806565b6040516102e49190612b9e565b60405180910390f35b61030760048036038101906103029190612bc0565b61088c565b005b610323600480360381019061031e91906129de565b6108ec565b6040516103309190612a96565b60405180910390f35b610341610991565b005b61035d60048036038101906103589190612bc0565b6109a3565b005b61037960048036038101906103749190612929565b6109c3565b6040516103869190612a96565b60405180910390f35b610397610a34565b6040516103a49190612a96565b60405180910390f35b6103b5610a45565b6040516103c29190612826565b60405180910390f35b6103d3610a5c565b6040516103e09190612a96565b60405180910390f35b61040360048036038101906103fe9190612929565b610a61565b005b61041f600480360381019061041a9190612929565b610ab9565b60405161042c9190612997565b60405180910390f35b61044f600480360381019061044a9190612c13565b610b6a565b60405161045c9190612a96565b60405180910390f35b61046d610c21565b005b610477610c35565b005b610481610c47565b60405161048e9190612a96565b60405180910390f35b61049f610c4d565b6040516104ac9190612997565b60405180910390f35b6104bd610c77565b6040516104ca91906128d1565b60405180910390f35b6104ed60048036038101906104e89190612c6c565b610d09565b005b61050960048036038101906105049190612efe565b610d1f565b6040516105169190612a96565b60405180910390f35b61053960048036038101906105349190613017565b610eda565b005b61055560048036038101906105509190612929565b610f3c565b60405161056291906128d1565b60405180910390f35b6105856004803603810190610580919061309a565b610f4e565b6040516105929190612826565b60405180910390f35b6105b560048036038101906105b09190612c13565b610fe2565b005b60006105c282611065565b9050919050565b6060600080546105d890613109565b80601f016020809104026020016040519081016040528092919081815260200182805461060490613109565b80156106515780601f1061062657610100808354040283529160200191610651565b820191906000526020600020905b81548152906001019060200180831161063457829003601f168201915b5050505050905090565b6000610666826110df565b6004600083815260200190815260200160002060009054906101000a900473ffffffffffffffffffffffffffffffffffffffff169050919050565b60006106ac82610ab9565b90508073ffffffffffffffffffffffffffffffffffffffff168373ffffffffffffffffffffffffffffffffffffffff160361071c576040517f08c379a0000000000000000000000000000000000000000000000000000000008152600401610713906131ac565b60405180910390fd5b8073ffffffffffffffffffffffffffffffffffffffff1661073b61112a565b73ffffffffffffffffffffffffffffffffffffffff16148061076a57506107698161076461112a565b610f4e565b5b6107a9576040517f08c379a00000000000000000000000000000000000000000000000000000000081526004016107a09061323e565b60405180910390fd5b6107b38383611132565b505050565b600f60205281600052604060002081815481106107d457600080fd5b9060005260206000209060020201600091509150508060000154908060010154905082565b6000600880549050905090565b6060600f6000838152602001908152602001600020805480602002602001604051908101604052809291908181526020016000905b828210156108815783829060005260206000209060020201604051806040016040529081600082015481526020016001820154815250508152602001906001019061083b565b505050509050919050565b61089d61089761112a565b826111eb565b6108dc576040517f08c379a00000000000000000000000000000000000000000000000000000000081526004016108d3906132d0565b60405180910390fd5b6108e7838383611280565b505050565b60006108f783610b6a565b8210610938576040517f08c379a000000000000000000000000000000000000000000000000000000000815260040161092f90613362565b60405180910390fd5b600660008473ffffffffffffffffffffffffffffffffffffffff1673ffffffffffffffffffffffffffffffffffffffff168152602001908152602001600020600083815260200190815260200160002054905092915050565b6109996114e6565b6109a1611564565b565b6109be83838360405180602001604052806000815250610eda565b505050565b60006109cd6107f9565b8210610a0e576040517f08c379a0000000000000000000000000000000000000000000000000000000008152600401610a05906133f4565b60405180910390fd5b60088281548110610a2257610a21613414565b5b90600052602060002001549050919050565b6000610a40600c6115c7565b905090565b6000600b60009054906101000a900460ff16905090565b600a81565b610a696114e6565b80600a811115610aae576040517f08c379a0000000000000000000000000000000000000000000000000000000008152600401610aa5906134b5565b60405180910390fd5b81600e819055505050565b6000806002600084815260200190815260200160002060009054906101000a900473ffffffffffffffffffffffffffffffffffffffff169050600073ffffffffffffffffffffffffffffffffffffffff168173ffffffffffffffffffffffffffffffffffffffff1603610b61576040517f08c379a0000000000000000000000000000000000000000000000000000000008152600401610b5890613521565b60405180910390fd5b80915050919050565b60008073ffffffffffffffffffffffffffffffffffffffff168273ffffffffffffffffffffffffffffffffffffffff1603610bda576040517f08c379a0000000000000000000000000000000000000000000000000000000008152600401610bd1906135b3565b60405180910390fd5b600360008373ffffffffffffffffffffffffffffffffffffffff1673ffffffffffffffffffffffffffffffffffffffff168152602001908152602001600020549050919050565b610c296114e6565b610c3360006115d5565b565b610c3d6114e6565b610c4561169b565b565b600e5481565b6000600b60019054906101000a900473ffffffffffffffffffffffffffffffffffffffff16905090565b606060018054610c8690613109565b80601f0160208091040260200160405190810160405280929190818152602001828054610cb290613109565b8015610cff5780601f10610cd457610100808354040283529160200191610cff565b820191906000526020600020905b815481529060010190602001808311610ce257829003601f168201915b5050505050905090565b610d1b610d1461112a565b83836116fe565b5050565b6000610d296114e6565b612710610d36600c6115c7565b10610d76576040517f08c379a0000000000000000000000000000000000000000000000000000000008152600401610d6d9061361f565b60405180910390fd5b610d80600c61186a565b6000610d8c600c6115c7565b9050610d983382611880565b610da2818561189e565b60008351905060005b81811015610e5857600d6040518060400160405280878481518110610dd357610dd2613414565b5b6020026020010151600001518152602001878481518110610df757610df6613414565b5b6020026020010151602001518152509080600181540180825580915050600190039060005260206000209060020201600090919091909150600082015181600001556020820151816001015550508080610e509061366e565b915050610dab565b50600d600f6000848152602001908152602001600020908054610e7c9291906126bb565b50600d6000610e8b9190612727565b7feea8d2592d938425e8da4e3a45efbb4cd6c731ea44fbbdd56b783175640c5e85610eb6600c6115c7565b3387604051610ec7939291906136b6565b60405180910390a1819250505092915050565b610eeb610ee561112a565b836111eb565b610f2a576040517f08c379a0000000000000000000000000000000000000000000000000000000008152600401610f21906132d0565b60405180910390fd5b610f368484848461190b565b50505050565b6060610f4782611967565b9050919050565b6000600560008473ffffffffffffffffffffffffffffffffffffffff1673ffffffffffffffffffffffffffffffffffffffff16815260200190815260200160002060008373ffffffffffffffffffffffffffffffffffffffff1673ffffffffffffffffffffffffffffffffffffffff16815260200190815260200160002060009054906101000a900460ff16905092915050565b610fea6114e6565b600073ffffffffffffffffffffffffffffffffffffffff168173ffffffffffffffffffffffffffffffffffffffff1603611059576040517f08c379a000000000000000000000000000000000000000000000000000000000815260040161105090613766565b60405180910390fd5b611062816115d5565b50565b60007f780e9d63000000000000000000000000000000000000000000000000000000007bffffffffffffffffffffffffffffffffffffffffffffffffffffffff1916827bffffffffffffffffffffffffffffffffffffffffffffffffffffffff191614806110d857506110d782611a79565b5b9050919050565b6110e881611b5b565b611127576040517f08c379a000000000000000000000000000000000000000000000000000000000815260040161111e90613521565b60405180910390fd5b50565b600033905090565b816004600083815260200190815260200160002060006101000a81548173ffffffffffffffffffffffffffffffffffffffff021916908373ffffffffffffffffffffffffffffffffffffffff160217905550808273ffffffffffffffffffffffffffffffffffffffff166111a583610ab9565b73ffffffffffffffffffffffffffffffffffffffff167f8c5be1e5ebec7d5bd14f71427d1e84f3dd0314c0f7b2291e5b200ac8c7c3b92560405160405180910390a45050565b6000806111f783610ab9565b90508073ffffffffffffffffffffffffffffffffffffffff168473ffffffffffffffffffffffffffffffffffffffff16148061123957506112388185610f4e565b5b8061127757508373ffffffffffffffffffffffffffffffffffffffff1661125f8461065b565b73ffffffffffffffffffffffffffffffffffffffff16145b91505092915050565b8273ffffffffffffffffffffffffffffffffffffffff166112a082610ab9565b73ffffffffffffffffffffffffffffffffffffffff16146112f6576040517f08c379a00000000000000000000000000000000000000000000000000000000081526004016112ed906137f8565b60405180910390fd5b600073ffffffffffffffffffffffffffffffffffffffff168273ffffffffffffffffffffffffffffffffffffffff1603611365576040517f08c379a000000000000000000000000000000000000000000000000000000000815260040161135c9061388a565b60405180910390fd5b611370838383611bc7565b61137b600082611132565b6001600360008573ffffffffffffffffffffffffffffffffffffffff1673ffffffffffffffffffffffffffffffffffffffff16815260200190815260200160002060008282546113cb91906138aa565b925050819055506001600360008473ffffffffffffffffffffffffffffffffffffffff1673ffffffffffffffffffffffffffffffffffffffff168152602001908152602001600020600082825461142291906138de565b92505081905550816002600083815260200190815260200160002060006101000a81548173ffffffffffffffffffffffffffffffffffffffff021916908373ffffffffffffffffffffffffffffffffffffffff160217905550808273ffffffffffffffffffffffffffffffffffffffff168473ffffffffffffffffffffffffffffffffffffffff167fddf252ad1be2c89b69c2b068fc378daa952ba7f163c4a11628f55a4df523b3ef60405160405180910390a46114e1838383611bdf565b505050565b6114ee61112a565b73ffffffffffffffffffffffffffffffffffffffff1661150c610c4d565b73ffffffffffffffffffffffffffffffffffffffff1614611562576040517f08c379a00000000000000000000000000000000000000000000000000000000081526004016115599061395e565b60405180910390fd5b565b61156c611be4565b6000600b60006101000a81548160ff0219169083151502179055507f5db9ee0a495bf2e6ff9c91a7834c1ba4fdd244a5e8aa4e537bd38aeae4b073aa6115b061112a565b6040516115bd9190612997565b60405180910390a1565b600081600001549050919050565b6000600b60019054906101000a900473ffffffffffffffffffffffffffffffffffffffff16905081600b60016101000a81548173ffffffffffffffffffffffffffffffffffffffff021916908373ffffffffffffffffffffffffffffffffffffffff1602179055508173ffffffffffffffffffffffffffffffffffffffff168173ffffffffffffffffffffffffffffffffffffffff167f8be0079c531659141344cd1fd0a4f28419497f9722a3daafe3b4186f6b6457e060405160405180910390a35050565b6116a3611c2d565b6001600b60006101000a81548160ff0219169083151502179055507f62e78cea01bee320cd4e420270b5ea74000d11b0c9f74754ebdbfc544b05a2586116e761112a565b6040516116f49190612997565b60405180910390a1565b8173ffffffffffffffffffffffffffffffffffffffff168373ffffffffffffffffffffffffffffffffffffffff160361176c576040517f08c379a0000000000000000000000000000000000000000000000000000000008152600401611763906139ca565b60405180910390fd5b80600560008573ffffffffffffffffffffffffffffffffffffffff1673ffffffffffffffffffffffffffffffffffffffff16815260200190815260200160002060008473ffffffffffffffffffffffffffffffffffffffff1673ffffffffffffffffffffffffffffffffffffffff16815260200190815260200160002060006101000a81548160ff0219169083151502179055508173ffffffffffffffffffffffffffffffffffffffff168373ffffffffffffffffffffffffffffffffffffffff167f17307eab39ab6107e8899845ad3d59bd9653f200f220920489ca2b5937696c318360405161185d9190612826565b60405180910390a3505050565b6001816000016000828254019250508190555050565b61189a828260405180602001604052806000815250611c77565b5050565b6118a782611b5b565b6118e6576040517f08c379a00000000000000000000000000000000000000000000000000000000081526004016118dd90613a5c565b60405180910390fd5b80600a600084815260200190815260200160002090816119069190613c28565b505050565b611916848484611280565b61192284848484611cd2565b611961576040517f08c379a000000000000000000000000000000000000000000000000000000000815260040161195890613d6c565b60405180910390fd5b50505050565b6060611972826110df565b6000600a6000848152602001908152602001600020805461199290613109565b80601f01602080910402602001604051908101604052809291908181526020018280546119be90613109565b8015611a0b5780601f106119e057610100808354040283529160200191611a0b565b820191906000526020600020905b8154815290600101906020018083116119ee57829003601f168201915b505050505090506000611a1c611e59565b90506000815103611a31578192505050611a74565b600082511115611a66578082604051602001611a4e929190613dc8565b60405160208183030381529060405292505050611a74565b611a6f84611e70565b925050505b919050565b60007f80ac58cd000000000000000000000000000000000000000000000000000000007bffffffffffffffffffffffffffffffffffffffffffffffffffffffff1916827bffffffffffffffffffffffffffffffffffffffffffffffffffffffff19161480611b4457507f5b5e139f000000000000000000000000000000000000000000000000000000007bffffffffffffffffffffffffffffffffffffffffffffffffffffffff1916827bffffffffffffffffffffffffffffffffffffffffffffffffffffffff1916145b80611b545750611b5382611ed8565b5b9050919050565b60008073ffffffffffffffffffffffffffffffffffffffff166002600084815260200190815260200160002060009054906101000a900473ffffffffffffffffffffffffffffffffffffffff1673ffffffffffffffffffffffffffffffffffffffff1614159050919050565b611bcf611c2d565b611bda838383611f42565b505050565b505050565b611bec610a45565b611c2b576040517f08c379a0000000000000000000000000000000000000000000000000000000008152600401611c2290613e38565b60405180910390fd5b565b611c35610a45565b15611c75576040517f08c379a0000000000000000000000000000000000000000000000000000000008152600401611c6c90613ea4565b60405180910390fd5b565b611c818383612054565b611c8e6000848484611cd2565b611ccd576040517f08c379a0000000000000000000000000000000000000000000000000000000008152600401611cc490613d6c565b60405180910390fd5b505050565b6000611cf38473ffffffffffffffffffffffffffffffffffffffff1661222d565b15611e4c578373ffffffffffffffffffffffffffffffffffffffff1663150b7a02611d1c61112a565b8786866040518563ffffffff1660e01b8152600401611d3e9493929190613f19565b6020604051808303816000875af1925050508015611d7a57506040513d601f19601f82011682018060405250810190611d779190613f7a565b60015b611dfc573d8060008114611daa576040519150601f19603f3d011682016040523d82523d6000602084013e611daf565b606091505b506000815103611df4576040517f08c379a0000000000000000000000000000000000000000000000000000000008152600401611deb90613d6c565b60405180910390fd5b805181602001fd5b63150b7a0260e01b7bffffffffffffffffffffffffffffffffffffffffffffffffffffffff1916817bffffffffffffffffffffffffffffffffffffffffffffffffffffffff191614915050611e51565b600190505b949350505050565b606060405180602001604052806000815250905090565b6060611e7b826110df565b6000611e85611e59565b90506000815111611ea55760405180602001604052806000815250611ed0565b80611eaf84612250565b604051602001611ec0929190613dc8565b6040516020818303038152906040525b915050919050565b60007f01ffc9a7000000000000000000000000000000000000000000000000000000007bffffffffffffffffffffffffffffffffffffffffffffffffffffffff1916827bffffffffffffffffffffffffffffffffffffffffffffffffffffffff1916149050919050565b611f4d8383836123b0565b600073ffffffffffffffffffffffffffffffffffffffff168373ffffffffffffffffffffffffffffffffffffffff1603611f8f57611f8a816123b5565b611fce565b8173ffffffffffffffffffffffffffffffffffffffff168373ffffffffffffffffffffffffffffffffffffffff1614611fcd57611fcc83826123fe565b5b5b600073ffffffffffffffffffffffffffffffffffffffff168273ffffffffffffffffffffffffffffffffffffffff16036120105761200b8161256b565b61204f565b8273ffffffffffffffffffffffffffffffffffffffff168273ffffffffffffffffffffffffffffffffffffffff161461204e5761204d828261263c565b5b5b505050565b600073ffffffffffffffffffffffffffffffffffffffff168273ffffffffffffffffffffffffffffffffffffffff16036120c3576040517f08c379a00000000000000000000000000000000000000000000000000000000081526004016120ba90613ff3565b60405180910390fd5b6120cc81611b5b565b1561210c576040517f08c379a00000000000000000000000000000000000000000000000000000000081526004016121039061405f565b60405180910390fd5b61211860008383611bc7565b6001600360008473ffffffffffffffffffffffffffffffffffffffff1673ffffffffffffffffffffffffffffffffffffffff168152602001908152602001600020600082825461216891906138de565b92505081905550816002600083815260200190815260200160002060006101000a81548173ffffffffffffffffffffffffffffffffffffffff021916908373ffffffffffffffffffffffffffffffffffffffff160217905550808273ffffffffffffffffffffffffffffffffffffffff16600073ffffffffffffffffffffffffffffffffffffffff167fddf252ad1be2c89b69c2b068fc378daa952ba7f163c4a11628f55a4df523b3ef60405160405180910390a461222960008383611bdf565b5050565b6000808273ffffffffffffffffffffffffffffffffffffffff163b119050919050565b606060008203612297576040518060400160405280600181526020017f300000000000000000000000000000000000000000000000000000000000000081525090506123ab565b600082905060005b600082146122c95780806122b29061366e565b915050600a826122c291906140ae565b915061229f565b60008167ffffffffffffffff8111156122e5576122e4612cb6565b5b6040519080825280601f01601f1916602001820160405280156123175781602001600182028036833780820191505090505b5090505b600085146123a45760018261233091906138aa565b9150600a8561233f91906140df565b603061234b91906138de565b60f81b81838151811061236157612360613414565b5b60200101907effffffffffffffffffffffffffffffffffffffffffffffffffffffffffffff1916908160001a905350600a8561239d91906140ae565b945061231b565b8093505050505b919050565b505050565b6008805490506009600083815260200190815260200160002081905550600881908060018154018082558091505060019003906000526020600020016000909190919091505550565b6000600161240b84610b6a565b61241591906138aa565b90506000600760008481526020019081526020016000205490508181146124fa576000600660008673ffffffffffffffffffffffffffffffffffffffff1673ffffffffffffffffffffffffffffffffffffffff168152602001908152602001600020600084815260200190815260200160002054905080600660008773ffffffffffffffffffffffffffffffffffffffff1673ffffffffffffffffffffffffffffffffffffffff168152602001908152602001600020600084815260200190815260200160002081905550816007600083815260200190815260200160002081905550505b6007600084815260200190815260200160002060009055600660008573ffffffffffffffffffffffffffffffffffffffff1673ffffffffffffffffffffffffffffffffffffffff16815260200190815260200160002060008381526020019081526020016000206000905550505050565b6000600160088054905061257f91906138aa565b90506000600960008481526020019081526020016000205490506000600883815481106125af576125ae613414565b5b9060005260206000200154905080600883815481106125d1576125d0613414565b5b9060005260206000200181905550816009600083815260200190815260200160002081905550600960008581526020019081526020016000206000905560088054806126205761261f614110565b5b6001900381819060005260206000200160009055905550505050565b600061264783610b6a565b905081600660008573ffffffffffffffffffffffffffffffffffffffff1673ffffffffffffffffffffffffffffffffffffffff168152602001908152602001600020600083815260200190815260200160002081905550806007600084815260200190815260200160002081905550505050565b8280548282559060005260206000209060020281019282156127165760005260206000209160020282015b8281111561271557828260008201548160000155600182015481600101555050916002019190600201906126e6565b5b509050612723919061274b565b5090565b5080546000825560020290600052602060002090810190612748919061274b565b50565b5b8082111561276e5760008082016000905560018201600090555060020161274c565b5090565b6000604051905090565b600080fd5b600080fd5b60007fffffffff0000000000000000000000000000000000000000000000000000000082169050919050565b6127bb81612786565b81146127c657600080fd5b50565b6000813590506127d8816127b2565b92915050565b6000602082840312156127f4576127f361277c565b5b6000612802848285016127c9565b91505092915050565b60008115159050919050565b6128208161280b565b82525050565b600060208201905061283b6000830184612817565b92915050565b600081519050919050565b600082825260208201905092915050565b60005b8381101561287b578082015181840152602081019050612860565b60008484015250505050565b6000601f19601f8301169050919050565b60006128a382612841565b6128ad818561284c565b93506128bd81856020860161285d565b6128c681612887565b840191505092915050565b600060208201905081810360008301526128eb8184612898565b905092915050565b6000819050919050565b612906816128f3565b811461291157600080fd5b50565b600081359050612923816128fd565b92915050565b60006020828403121561293f5761293e61277c565b5b600061294d84828501612914565b91505092915050565b600073ffffffffffffffffffffffffffffffffffffffff82169050919050565b600061298182612956565b9050919050565b61299181612976565b82525050565b60006020820190506129ac6000830184612988565b92915050565b6129bb81612976565b81146129c657600080fd5b50565b6000813590506129d8816129b2565b92915050565b600080604083850312156129f5576129f461277c565b5b6000612a03858286016129c9565b9250506020612a1485828601612914565b9150509250929050565b60008060408385031215612a3557612a3461277c565b5b6000612a4385828601612914565b9250506020612a5485828601612914565b9150509250929050565b612a67816128f3565b82525050565b6000604082019050612a826000830185612a5e565b612a8f6020830184612a5e565b9392505050565b6000602082019050612aab6000830184612a5e565b92915050565b600081519050919050565b600082825260208201905092915050565b6000819050602082019050919050565b612ae6816128f3565b82525050565b604082016000820151612b026000850182612add565b506020820151612b156020850182612add565b50505050565b6000612b278383612aec565b60408301905092915050565b6000602082019050919050565b6000612b4b82612ab1565b612b558185612abc565b9350612b6083612acd565b8060005b83811015612b91578151612b788882612b1b565b9750612b8383612b33565b925050600181019050612b64565b5085935050505092915050565b60006020820190508181036000830152612bb88184612b40565b905092915050565b600080600060608486031215612bd957612bd861277c565b5b6000612be7868287016129c9565b9350506020612bf8868287016129c9565b9250506040612c0986828701612914565b9150509250925092565b600060208284031215612c2957612c2861277c565b5b6000612c37848285016129c9565b91505092915050565b612c498161280b565b8114612c5457600080fd5b50565b600081359050612c6681612c40565b92915050565b60008060408385031215612c8357612c8261277c565b5b6000612c91858286016129c9565b9250506020612ca285828601612c57565b9150509250929050565b600080fd5b600080fd5b7f4e487b7100000000000000000000000000000000000000000000000000000000600052604160045260246000fd5b612cee82612887565b810181811067ffffffffffffffff82111715612d0d57612d0c612cb6565b5b80604052505050565b6000612d20612772565b9050612d2c8282612ce5565b919050565b600067ffffffffffffffff821115612d4c57612d4b612cb6565b5b612d5582612887565b9050602081019050919050565b82818337600083830152505050565b6000612d84612d7f84612d31565b612d16565b905082815260208101848484011115612da057612d9f612cb1565b5b612dab848285612d62565b509392505050565b600082601f830112612dc857612dc7612cac565b5b8135612dd8848260208601612d71565b91505092915050565b600067ffffffffffffffff821115612dfc57612dfb612cb6565b5b602082029050602081019050919050565b600080fd5b600080fd5b600060408284031215612e2d57612e2c612e12565b5b612e376040612d16565b90506000612e4784828501612914565b6000830152506020612e5b84828501612914565b60208301525092915050565b6000612e7a612e7584612de1565b612d16565b90508083825260208201905060408402830185811115612e9d57612e9c612e0d565b5b835b81811015612ec65780612eb28882612e17565b845260208401935050604081019050612e9f565b5050509392505050565b600082601f830112612ee557612ee4612cac565b5b8135612ef5848260208601612e67565b91505092915050565b60008060408385031215612f1557612f1461277c565b5b600083013567ffffffffffffffff811115612f3357612f32612781565b5b612f3f85828601612db3565b925050602083013567ffffffffffffffff811115612f6057612f5f612781565b5b612f6c85828601612ed0565b9150509250929050565b600067ffffffffffffffff821115612f9157612f90612cb6565b5b612f9a82612887565b9050602081019050919050565b6000612fba612fb584612f76565b612d16565b905082815260208101848484011115612fd657612fd5612cb1565b5b612fe1848285612d62565b509392505050565b600082601f830112612ffe57612ffd612cac565b5b813561300e848260208601612fa7565b91505092915050565b600080600080608085870312156130315761303061277c565b5b600061303f878288016129c9565b9450506020613050878288016129c9565b935050604061306187828801612914565b925050606085013567ffffffffffffffff81111561308257613081612781565b5b61308e87828801612fe9565b91505092959194509250565b600080604083850312156130b1576130b061277c565b5b60006130bf858286016129c9565b92505060206130d0858286016129c9565b9150509250929050565b7f4e487b7100000000000000000000000000000000000000000000000000000000600052602260045260246000fd5b6000600282049050600182168061312157607f821691505b602082108103613134576131336130da565b5b50919050565b7f4552433732313a20617070726f76616c20746f2063757272656e74206f776e6560008201527f7200000000000000000000000000000000000000000000000000000000000000602082015250565b600061319660218361284c565b91506131a18261313a565b604082019050919050565b600060208201905081810360008301526131c581613189565b9050919050565b7f4552433732313a20617070726f76652063616c6c6572206973206e6f7420746f60008201527f6b656e206f776e6572206e6f7220617070726f76656420666f7220616c6c0000602082015250565b6000613228603e8361284c565b9150613233826131cc565b604082019050919050565b600060208201905081810360008301526132578161321b565b9050919050565b7f4552433732313a2063616c6c6572206973206e6f7420746f6b656e206f776e6560008201527f72206e6f7220617070726f766564000000000000000000000000000000000000602082015250565b60006132ba602e8361284c565b91506132c58261325e565b604082019050919050565b600060208201905081810360008301526132e9816132ad565b9050919050565b7f455243373231456e756d657261626c653a206f776e657220696e646578206f7560008201527f74206f6620626f756e6473000000000000000000000000000000000000000000602082015250565b600061334c602b8361284c565b9150613357826132f0565b604082019050919050565b6000602082019050818103600083015261337b8161333f565b9050919050565b7f455243373231456e756d657261626c653a20676c6f62616c20696e646578206f60008201527f7574206f6620626f756e64730000000000000000000000000000000000000000602082015250565b60006133de602c8361284c565b91506133e982613382565b604082019050919050565b6000602082019050818103600083015261340d816133d1565b9050919050565b7f4e487b7100000000000000000000000000000000000000000000000000000000600052603260045260246000fd5b7f526f79616c746965732070657263656e746167652073686f756c64206265206560008201527f7175616c206f72206c65737373207468616e2031302500000000000000000000602082015250565b600061349f60368361284c565b91506134aa82613443565b604082019050919050565b600060208201905081810360008301526134ce81613492565b9050919050565b7f4552433732313a20696e76616c696420746f6b656e2049440000000000000000600082015250565b600061350b60188361284c565b9150613516826134d5565b602082019050919050565b6000602082019050818103600083015261353a816134fe565b9050919050565b7f4552433732313a2061646472657373207a65726f206973206e6f74206120766160008201527f6c6964206f776e65720000000000000000000000000000000000000000000000602082015250565b600061359d60298361284c565b91506135a882613541565b604082019050919050565b600060208201905081810360008301526135cc81613590565b9050919050565b7f4e465473206172652063617070656420746f2031302c30303021000000000000600082015250565b6000613609601a8361284c565b9150613614826135d3565b602082019050919050565b60006020820190508181036000830152613638816135fc565b9050919050565b7f4e487b7100000000000000000000000000000000000000000000000000000000600052601160045260246000fd5b6000613679826128f3565b91507fffffffffffffffffffffffffffffffffffffffffffffffffffffffffffffffff82036136ab576136aa61363f565b5b600182019050919050565b60006060820190506136cb6000830186612a5e565b6136d86020830185612988565b81810360408301526136ea8184612898565b9050949350505050565b7f4f776e61626c653a206e6577206f776e657220697320746865207a65726f206160008201527f6464726573730000000000000000000000000000000000000000000000000000602082015250565b600061375060268361284c565b915061375b826136f4565b604082019050919050565b6000602082019050818103600083015261377f81613743565b9050919050565b7f4552433732313a207472616e736665722066726f6d20696e636f72726563742060008201527f6f776e6572000000000000000000000000000000000000000000000000000000602082015250565b60006137e260258361284c565b91506137ed82613786565b604082019050919050565b60006020820190508181036000830152613811816137d5565b9050919050565b7f4552433732313a207472616e7366657220746f20746865207a65726f2061646460008201527f7265737300000000000000000000000000000000000000000000000000000000602082015250565b600061387460248361284c565b915061387f82613818565b604082019050919050565b600060208201905081810360008301526138a381613867565b9050919050565b60006138b5826128f3565b91506138c0836128f3565b92508282039050818111156138d8576138d761363f565b5b92915050565b60006138e9826128f3565b91506138f4836128f3565b925082820190508082111561390c5761390b61363f565b5b92915050565b7f4f776e61626c653a2063616c6c6572206973206e6f7420746865206f776e6572600082015250565b600061394860208361284c565b915061395382613912565b602082019050919050565b600060208201905081810360008301526139778161393b565b9050919050565b7f4552433732313a20617070726f766520746f2063616c6c657200000000000000600082015250565b60006139b460198361284c565b91506139bf8261397e565b602082019050919050565b600060208201905081810360008301526139e3816139a7565b9050919050565b7f45524337323155524953746f726167653a2055524920736574206f66206e6f6e60008201527f6578697374656e7420746f6b656e000000000000000000000000000000000000602082015250565b6000613a46602e8361284c565b9150613a51826139ea565b604082019050919050565b60006020820190508181036000830152613a7581613a39565b9050919050565b60008190508160005260206000209050919050565b60006020601f8301049050919050565b600082821b905092915050565b600060088302613ade7fffffffffffffffffffffffffffffffffffffffffffffffffffffffffffffffff82613aa1565b613ae88683613aa1565b95508019841693508086168417925050509392505050565b6000819050919050565b6000613b25613b20613b1b846128f3565b613b00565b6128f3565b9050919050565b6000819050919050565b613b3f83613b0a565b613b53613b4b82613b2c565b848454613aae565b825550505050565b600090565b613b68613b5b565b613b73818484613b36565b505050565b5b81811015613b9757613b8c600082613b60565b600181019050613b79565b5050565b601f821115613bdc57613bad81613a7c565b613bb684613a91565b81016020851015613bc5578190505b613bd9613bd185613a91565b830182613b78565b50505b505050565b600082821c905092915050565b6000613bff60001984600802613be1565b1980831691505092915050565b6000613c188383613bee565b9150826002028217905092915050565b613c3182612841565b67ffffffffffffffff811115613c4a57613c49612cb6565b5b613c548254613109565b613c5f828285613b9b565b600060209050601f831160018114613c925760008415613c80578287015190505b613c8a8582613c0c565b865550613cf2565b601f198416613ca086613a7c565b60005b82811015613cc857848901518255600182019150602085019450602081019050613ca3565b86831015613ce55784890151613ce1601f891682613bee565b8355505b6001600288020188555050505b505050505050565b7f4552433732313a207472616e7366657220746f206e6f6e20455243373231526560008201527f63656976657220696d706c656d656e7465720000000000000000000000000000602082015250565b6000613d5660328361284c565b9150613d6182613cfa565b604082019050919050565b60006020820190508181036000830152613d8581613d49565b9050919050565b600081905092915050565b6000613da282612841565b613dac8185613d8c565b9350613dbc81856020860161285d565b80840191505092915050565b6000613dd48285613d97565b9150613de08284613d97565b91508190509392505050565b7f5061757361626c653a206e6f7420706175736564000000000000000000000000600082015250565b6000613e2260148361284c565b9150613e2d82613dec565b602082019050919050565b60006020820190508181036000830152613e5181613e15565b9050919050565b7f5061757361626c653a2070617573656400000000000000000000000000000000600082015250565b6000613e8e60108361284c565b9150613e9982613e58565b602082019050919050565b60006020820190508181036000830152613ebd81613e81565b9050919050565b600081519050919050565b600082825260208201905092915050565b6000613eeb82613ec4565b613ef58185613ecf565b9350613f0581856020860161285d565b613f0e81612887565b840191505092915050565b6000608082019050613f2e6000830187612988565b613f3b6020830186612988565b613f486040830185612a5e565b8181036060830152613f5a8184613ee0565b905095945050505050565b600081519050613f74816127b2565b92915050565b600060208284031215613f9057613f8f61277c565b5b6000613f9e84828501613f65565b91505092915050565b7f4552433732313a206d696e7420746f20746865207a65726f2061646472657373600082015250565b6000613fdd60208361284c565b9150613fe882613fa7565b602082019050919050565b6000602082019050818103600083015261400c81613fd0565b9050919050565b7f4552433732313a20746f6b656e20616c7265616479206d696e74656400000000600082015250565b6000614049601c8361284c565b915061405482614013565b602082019050919050565b600060208201905081810360008301526140788161403c565b9050919050565b7f4e487b7100000000000000000000000000000000000000000000000000000000600052601260045260246000fd5b60006140b9826128f3565b91506140c4836128f3565b9250826140d4576140d361407f565b5b828204905092915050565b60006140ea826128f3565b91506140f5836128f3565b9250826141055761410461407f565b5b828206905092915050565b7f4e487b7100000000000000000000000000000000000000000000000000000000600052603160045260246000fdfea2646970667358221220ace68a7aa0861080ec7c9ad53c8c9f588ee4b9dcc399f4a589ba77e629d6ffbe64736f6c63430008100033",
  "linkReferences": {},
  "deployedLinkReferences": {}
}