{
  "_format": "hh-sol-artifact-1",
  "contractName": "ApesNFT",
  "sourceName": "contracts/ApesNFT.sol",
  "abi": [
    {
      "inputs": [
        {
          "internalType": "string",
          "name": "_name",
          "type": "string"
        },
        {
          "internalType": "string",
          "name": "_symbol",
          "type": "string"
        },
        {
          "internalType": "uint256",
          "name": "_royaltyPercentage",
          "type": "uint256"
        }
      ],
      "stateMutability": "nonpayable",
      "type": "constructor"
    },
    {
      "anonymous": false,
      "inputs": [
        {
          "indexed": true,
          "internalType": "address",
          "name": "owner",
          "type": "address"
        },
        {
          "indexed": true,
          "internalType": "address",
          "name": "approved",
          "type": "address"
        },
        {
          "indexed": true,
          "internalType": "uint256",
          "name": "tokenId",
          "type": "uint256"
        }
      ],
      "name": "Approval",
      "type": "event"
    },
    {
      "anonymous": false,
      "inputs": [
        {
          "indexed": true,
          "internalType": "address",
          "name": "owner",
          "type": "address"
        },
        {
          "indexed": true,
          "internalType": "address",
          "name": "operator",
          "type": "address"
        },
        {
          "indexed": false,
          "internalType": "bool",
          "name": "approved",
          "type": "bool"
        }
      ],
      "name": "ApprovalForAll",
      "type": "event"
    },
    {
      "anonymous": false,
      "inputs": [
        {
          "indexed": false,
          "internalType": "uint256",
          "name": "_idNFT",
          "type": "uint256"
        },
        {
          "indexed": false,
          "internalType": "address",
          "name": "_owner",
          "type": "address"
        }
      ],
      "name": "LogGetCreator",
      "type": "event"
    },
    {
      "anonymous": false,
      "inputs": [
        {
          "indexed": false,
          "internalType": "uint256",
          "name": "_nftId",
          "type": "uint256"
        },
        {
          "indexed": false,
          "internalType": "address",
          "name": "_owner",
          "type": "address"
        },
        {
          "indexed": false,
          "internalType": "string",
          "name": "_nftURI",
          "type": "string"
        }
      ],
      "name": "LogNFTMinted",
      "type": "event"
    },
    {
      "anonymous": false,
      "inputs": [
        {
          "indexed": true,
          "internalType": "address",
          "name": "previousOwner",
          "type": "address"
        },
        {
          "indexed": true,
          "internalType": "address",
          "name": "newOwner",
          "type": "address"
        }
      ],
      "name": "OwnershipTransferred",
      "type": "event"
    },
    {
      "anonymous": false,
      "inputs": [
        {
          "indexed": false,
          "internalType": "address",
          "name": "account",
          "type": "address"
        }
      ],
      "name": "Paused",
      "type": "event"
    },
    {
      "anonymous": false,
      "inputs": [
        {
          "indexed": true,
          "internalType": "address",
          "name": "from",
          "type": "address"
        },
        {
          "indexed": true,
          "internalType": "address",
          "name": "to",
          "type": "address"
        },
        {
          "indexed": true,
          "internalType": "uint256",
          "name": "tokenId",
          "type": "uint256"
        }
      ],
      "name": "Transfer",
      "type": "event"
    },
    {
      "anonymous": false,
      "inputs": [
        {
          "indexed": false,
          "internalType": "address",
          "name": "account",
          "type": "address"
        }
      ],
      "name": "Unpaused",
      "type": "event"
    },
    {
      "inputs": [],
      "name": "MAX_ROYALTIES_PERCENTAGE",
      "outputs": [
        {
          "internalType": "uint256",
          "name": "",
          "type": "uint256"
        }
      ],
      "stateMutability": "view",
      "type": "function"
    },
    {
      "inputs": [
        {
          "internalType": "address",
          "name": "to",
          "type": "address"
        },
        {
          "internalType": "uint256",
          "name": "tokenId",
          "type": "uint256"
        }
      ],
      "name": "approve",
      "outputs": [],
      "stateMutability": "nonpayable",
      "type": "function"
    },
    {
      "inputs": [
        {
          "internalType": "address",
          "name": "owner",
          "type": "address"
        }
      ],
      "name": "balanceOf",
      "outputs": [
        {
          "internalType": "uint256",
          "name": "",
          "type": "uint256"
        }
      ],
      "stateMutability": "view",
      "type": "function"
    },
    {
      "inputs": [
        {
          "internalType": "uint256",
          "name": "_nftId",
          "type": "uint256"
        }
      ],
      "name": "getApeAttributes",
      "outputs": [
        {
          "components": [
            {
              "internalType": "uint256",
              "name": "idAttribute",
              "type": "uint256"
            },
            {
              "internalType": "uint256",
              "name": "value",
              "type": "uint256"
            }
          ],
          "internalType": "struct ApesNFT.Attributes[]",
          "name": "",
          "type": "tuple[]"
        }
      ],
      "stateMutability": "view",
      "type": "function"
    },
    {
      "inputs": [
        {
          "internalType": "uint256",
          "name": "tokenId",
          "type": "uint256"
        }
      ],
      "name": "getApproved",
      "outputs": [
        {
          "internalType": "address",
          "name": "",
          "type": "address"
        }
      ],
      "stateMutability": "view",
      "type": "function"
    },
    {
      "inputs": [
        {
          "internalType": "uint256",
          "name": "idNFT",
          "type": "uint256"
        }
      ],
      "name": "getCreator",
      "outputs": [
        {
          "internalType": "address",
          "name": "",
          "type": "address"
        }
      ],
      "stateMutability": "nonpayable",
      "type": "function"
    },
    {
      "inputs": [],
      "name": "getCurrentTokenId",
      "outputs": [
        {
          "internalType": "uint256",
          "name": "",
          "type": "uint256"
        }
      ],
      "stateMutability": "view",
      "type": "function"
    },
    {
      "inputs": [
        {
          "internalType": "address",
          "name": "owner",
          "type": "address"
        },
        {
          "internalType": "address",
          "name": "operator",
          "type": "address"
        }
      ],
      "name": "isApprovedForAll",
      "outputs": [
        {
          "internalType": "bool",
          "name": "",
          "type": "bool"
        }
      ],
      "stateMutability": "view",
      "type": "function"
    },
    {
      "inputs": [
        {
          "internalType": "string",
          "name": "_tokenURI",
          "type": "string"
        },
        {
          "components": [
            {
              "internalType": "uint256",
              "name": "idAttribute",
              "type": "uint256"
            },
            {
              "internalType": "uint256",
              "name": "value",
              "type": "uint256"
            }
          ],
          "internalType": "struct ApesNFT.Attributes[]",
          "name": "_attributes",
          "type": "tuple[]"
        }
      ],
      "name": "mint",
      "outputs": [
        {
          "internalType": "uint256",
          "name": "",
          "type": "uint256"
        }
      ],
      "stateMutability": "nonpayable",
      "type": "function"
    },
    {
      "inputs": [],
      "name": "name",
      "outputs": [
        {
          "internalType": "string",
          "name": "",
          "type": "string"
        }
      ],
      "stateMutability": "view",
      "type": "function"
    },
    {
      "inputs": [
        {
          "internalType": "uint256",
          "name": "",
          "type": "uint256"
        },
        {
          "internalType": "uint256",
          "name": "",
          "type": "uint256"
        }
      ],
      "name": "onChainData",
      "outputs": [
        {
          "internalType": "uint256",
          "name": "idAttribute",
          "type": "uint256"
        },
        {
          "internalType": "uint256",
          "name": "value",
          "type": "uint256"
        }
      ],
      "stateMutability": "view",
      "type": "function"
    },
    {
      "inputs": [],
      "name": "owner",
      "outputs": [
        {
          "internalType": "address",
          "name": "",
          "type": "address"
        }
      ],
      "stateMutability": "view",
      "type": "function"
    },
    {
      "inputs": [
        {
          "internalType": "uint256",
          "name": "tokenId",
          "type": "uint256"
        }
      ],
      "name": "ownerOf",
      "outputs": [
        {
          "internalType": "address",
          "name": "",
          "type": "address"
        }
      ],
      "stateMutability": "view",
      "type": "function"
    },
    {
      "inputs": [],
      "name": "pause",
      "outputs": [],
      "stateMutability": "nonpayable",
      "type": "function"
    },
    {
      "inputs": [],
      "name": "paused",
      "outputs": [
        {
          "internalType": "bool",
          "name": "",
          "type": "bool"
        }
      ],
      "stateMutability": "view",
      "type": "function"
    },
    {
      "inputs": [],
      "name": "renounceOwnership",
      "outputs": [],
      "stateMutability": "nonpayable",
      "type": "function"
    },
    {
      "inputs": [],
      "name": "royaltyPercentage",
      "outputs": [
        {
          "internalType": "uint256",
          "name": "",
          "type": "uint256"
        }
      ],
      "stateMutability": "view",
      "type": "function"
    },
    {
      "inputs": [
        {
          "internalType": "address",
          "name": "from",
          "type": "address"
        },
        {
          "internalType": "address",
          "name": "to",
          "type": "address"
        },
        {
          "internalType": "uint256",
          "name": "tokenId",
          "type": "uint256"
        }
      ],
      "name": "safeTransferFrom",
      "outputs": [],
      "stateMutability": "nonpayable",
      "type": "function"
    },
    {
      "inputs": [
        {
          "internalType": "address",
          "name": "from",
          "type": "address"
        },
        {
          "internalType": "address",
          "name": "to",
          "type": "address"
        },
        {
          "internalType": "uint256",
          "name": "tokenId",
          "type": "uint256"
        },
        {
          "internalType": "bytes",
          "name": "data",
          "type": "bytes"
        }
      ],
      "name": "safeTransferFrom",
      "outputs": [],
      "stateMutability": "nonpayable",
      "type": "function"
    },
    {
      "inputs": [
        {
          "internalType": "address",
          "name": "operator",
          "type": "address"
        },
        {
          "internalType": "bool",
          "name": "approved",
          "type": "bool"
        }
      ],
      "name": "setApprovalForAll",
      "outputs": [],
      "stateMutability": "nonpayable",
      "type": "function"
    },
    {
      "inputs": [
        {
          "internalType": "uint256",
          "name": "_royaltyPercentage",
          "type": "uint256"
        }
      ],
      "name": "setRoyaltyPercentage",
      "outputs": [],
      "stateMutability": "nonpayable",
      "type": "function"
    },
    {
      "inputs": [
        {
          "internalType": "bytes4",
          "name": "interfaceId",
          "type": "bytes4"
        }
      ],
      "name": "supportsInterface",
      "outputs": [
        {
          "internalType": "bool",
          "name": "",
          "type": "bool"
        }
      ],
      "stateMutability": "view",
      "type": "function"
    },
    {
      "inputs": [],
      "name": "symbol",
      "outputs": [
        {
          "internalType": "string",
          "name": "",
          "type": "string"
        }
      ],
      "stateMutability": "view",
      "type": "function"
    },
    {
      "inputs": [
        {
          "internalType": "uint256",
          "name": "index",
          "type": "uint256"
        }
      ],
      "name": "tokenByIndex",
      "outputs": [
        {
          "internalType": "uint256",
          "name": "",
          "type": "uint256"
        }
      ],
      "stateMutability": "view",
      "type": "function"
    },
    {
      "inputs": [
        {
          "internalType": "address",
          "name": "owner",
          "type": "address"
        },
        {
          "internalType": "uint256",
          "name": "index",
          "type": "uint256"
        }
      ],
      "name": "tokenOfOwnerByIndex",
      "outputs": [
        {
          "internalType": "uint256",
          "name": "",
          "type": "uint256"
        }
      ],
      "stateMutability": "view",
      "type": "function"
    },
    {
      "inputs": [
        {
          "internalType": "uint256",
          "name": "tokenId",
          "type": "uint256"
        }
      ],
      "name": "tokenURI",
      "outputs": [
        {
          "internalType": "string",
          "name": "",
          "type": "string"
        }
      ],
      "stateMutability": "view",
      "type": "function"
    },
    {
      "inputs": [],
      "name": "totalSupply",
      "outputs": [
        {
          "internalType": "uint256",
          "name": "",
          "type": "uint256"
        }
      ],
      "stateMutability": "view",
      "type": "function"
    },
    {
      "inputs": [
        {
          "internalType": "address",
          "name": "from",
          "type": "address"
        },
        {
          "internalType": "address",
          "name": "to",
          "type": "address"
        },
        {
          "internalType": "uint256",
          "name": "tokenId",
          "type": "uint256"
        }
      ],
      "name": "transferFrom",
      "outputs": [],
      "stateMutability": "nonpayable",
      "type": "function"
    },
    {
      "inputs": [
        {
          "internalType": "address",
          "name": "newOwner",
          "type": "address"
        }
      ],
      "name": "transferOwnership",
      "outputs": [],
      "stateMutability": "nonpayable",
      "type": "function"
    },
    {
      "inputs": [],
      "name": "unpause",
      "outputs": [],
      "stateMutability": "nonpayable",
      "type": "function"
    }
  ],
  "bytecode": "0x60806040523480156200001157600080fd5b5060405162004a3c38038062004a3c83398181016040528101906200003791906200038f565b828281600090816200004a91906200066a565b5080600190816200005c91906200066a565b5050506000600b60006101000a81548160ff0219169083151502179055506200009a6200008e620000f360201b60201c565b620000fb60201b60201c565b80600a811115620000e2576040517f08c379a0000000000000000000000000000000000000000000000000000000008152600401620000d990620007d8565b60405180910390fd5b81600e8190555050505050620007fa565b600033905090565b6000600b60019054906101000a900473ffffffffffffffffffffffffffffffffffffffff16905081600b60016101000a81548173ffffffffffffffffffffffffffffffffffffffff021916908373ffffffffffffffffffffffffffffffffffffffff1602179055508173ffffffffffffffffffffffffffffffffffffffff168173ffffffffffffffffffffffffffffffffffffffff167f8be0079c531659141344cd1fd0a4f28419497f9722a3daafe3b4186f6b6457e060405160405180910390a35050565b6000604051905090565b600080fd5b600080fd5b600080fd5b600080fd5b6000601f19601f8301169050919050565b7f4e487b7100000000000000000000000000000000000000000000000000000000600052604160045260246000fd5b6200022a82620001df565b810181811067ffffffffffffffff821117156200024c576200024b620001f0565b5b80604052505050565b600062000261620001c1565b90506200026f82826200021f565b919050565b600067ffffffffffffffff821115620002925762000291620001f0565b5b6200029d82620001df565b9050602081019050919050565b60005b83811015620002ca578082015181840152602081019050620002ad565b60008484015250505050565b6000620002ed620002e78462000274565b62000255565b9050828152602081018484840111156200030c576200030b620001da565b5b62000319848285620002aa565b509392505050565b600082601f830112620003395762000338620001d5565b5b81516200034b848260208601620002d6565b91505092915050565b6000819050919050565b620003698162000354565b81146200037557600080fd5b50565b60008151905062000389816200035e565b92915050565b600080600060608486031215620003ab57620003aa620001cb565b5b600084015167ffffffffffffffff811115620003cc57620003cb620001d0565b5b620003da8682870162000321565b935050602084015167ffffffffffffffff811115620003fe57620003fd620001d0565b5b6200040c8682870162000321565b92505060406200041f8682870162000378565b9150509250925092565b600081519050919050565b7f4e487b7100000000000000000000000000000000000000000000000000000000600052602260045260246000fd5b600060028204905060018216806200047c57607f821691505b60208210810362000492576200049162000434565b5b50919050565b60008190508160005260206000209050919050565b60006020601f8301049050919050565b600082821b905092915050565b600060088302620004fc7fffffffffffffffffffffffffffffffffffffffffffffffffffffffffffffffff82620004bd565b620005088683620004bd565b95508019841693508086168417925050509392505050565b6000819050919050565b60006200054b620005456200053f8462000354565b62000520565b62000354565b9050919050565b6000819050919050565b62000567836200052a565b6200057f620005768262000552565b848454620004ca565b825550505050565b600090565b6200059662000587565b620005a38184846200055c565b505050565b5b81811015620005cb57620005bf6000826200058c565b600181019050620005a9565b5050565b601f8211156200061a57620005e48162000498565b620005ef84620004ad565b81016020851015620005ff578190505b620006176200060e85620004ad565b830182620005a8565b50505b505050565b600082821c905092915050565b60006200063f600019846008026200061f565b1980831691505092915050565b60006200065a83836200062c565b9150826002028217905092915050565b620006758262000429565b67ffffffffffffffff811115620006915762000690620001f0565b5b6200069d825462000463565b620006aa828285620005cf565b600060209050601f831160018114620006e25760008415620006cd578287015190505b620006d985826200064c565b86555062000749565b601f198416620006f28662000498565b60005b828110156200071c57848901518255600182019150602085019450602081019050620006f5565b868310156200073c578489015162000738601f8916826200062c565b8355505b6001600288020188555050505b505050505050565b600082825260208201905092915050565b7f526f79616c746965732070657263656e746167652073686f756c64206265206560008201527f7175616c206f72206c65737373207468616e2031302500000000000000000000602082015250565b6000620007c060368362000751565b9150620007cd8262000762565b604082019050919050565b60006020820190508181036000830152620007f381620007b1565b9050919050565b614232806200080a6000396000f3fe608060405234801561001057600080fd5b50600436106101da5760003560e01c806361ba27da1161010457806395d89b41116100a2578063c87b56dd11610071578063c87b56dd14610546578063d48e638a14610576578063e985e9c5146105a6578063f2fde38b146105d6576101da565b806395d89b41146104c0578063a22cb465146104de578063afb38b97146104fa578063b88d4fde1461052a576101da565b8063715018a6116100de578063715018a6146104705780638456cb591461047a5780638a71bb2d146104845780638da5cb5b146104a2576101da565b806361ba27da146103f45780636352211e1461041057806370a0823114610440576101da565b806323b872dd1161017c5780634f6ccce71161014b5780634f6ccce71461036a578063561892361461039a5780635c975abb146103b85780636071dfb6146103d6576101da565b806323b872dd146102f85780632f745c59146103145780633f4ba83a1461034457806342842e0e1461034e576101da565b8063095ea7b3116101b8578063095ea7b31461025d57806313b6546f1461027957806318160ddd146102aa5780631cc9201a146102c8576101da565b806301ffc9a7146101df57806306fdde031461020f578063081812fc1461022d575b600080fd5b6101f960048036038101906101f49190612872565b6105f2565b60405161020691906128ba565b60405180910390f35b610217610604565b6040516102249190612965565b60405180910390f35b610247600480360381019061024291906129bd565b610696565b6040516102549190612a2b565b60405180910390f35b61027760048036038101906102729190612a72565b6106dc565b005b610293600480360381019061028e9190612ab2565b6107f3565b6040516102a1929190612b01565b60405180910390f35b6102b2610834565b6040516102bf9190612b2a565b60405180910390f35b6102e260048036038101906102dd91906129bd565b610841565b6040516102ef9190612c32565b60405180910390f35b610312600480360381019061030d9190612c54565b6108c7565b005b61032e60048036038101906103299190612a72565b610927565b60405161033b9190612b2a565b60405180910390f35b61034c6109cc565b005b61036860048036038101906103639190612c54565b6109de565b005b610384600480360381019061037f91906129bd565b6109fe565b6040516103919190612b2a565b60405180910390f35b6103a2610a6f565b6040516103af9190612b2a565b60405180910390f35b6103c0610a80565b6040516103cd91906128ba565b60405180910390f35b6103de610a97565b6040516103eb9190612b2a565b60405180910390f35b61040e600480360381019061040991906129bd565b610a9c565b005b61042a600480360381019061042591906129bd565b610af4565b6040516104379190612a2b565b60405180910390f35b61045a60048036038101906104559190612ca7565b610ba5565b6040516104679190612b2a565b60405180910390f35b610478610c5c565b005b610482610c70565b005b61048c610c82565b6040516104999190612b2a565b60405180910390f35b6104aa610c88565b6040516104b79190612a2b565b60405180910390f35b6104c8610cb2565b6040516104d59190612965565b60405180910390f35b6104f860048036038101906104f39190612d00565b610d44565b005b610514600480360381019061050f9190612f92565b610d5a565b6040516105219190612b2a565b60405180910390f35b610544600480360381019061053f91906130ab565b610f1d565b005b610560600480360381019061055b91906129bd565b610f7f565b60405161056d9190612965565b60405180910390f35b610590600480360381019061058b91906129bd565b610f91565b60405161059d9190612a2b565b60405180910390f35b6105c060048036038101906105bb919061312e565b610fe2565b6040516105cd91906128ba565b60405180910390f35b6105f060048036038101906105eb9190612ca7565b611076565b005b60006105fd826110f9565b9050919050565b6060600080546106139061319d565b80601f016020809104026020016040519081016040528092919081815260200182805461063f9061319d565b801561068c5780601f106106615761010080835404028352916020019161068c565b820191906000526020600020905b81548152906001019060200180831161066f57829003601f168201915b5050505050905090565b60006106a182611173565b6004600083815260200190815260200160002060009054906101000a900473ffffffffffffffffffffffffffffffffffffffff169050919050565b60006106e782610af4565b90508073ffffffffffffffffffffffffffffffffffffffff168373ffffffffffffffffffffffffffffffffffffffff1603610757576040517f08c379a000000000000000000000000000000000000000000000000000000000815260040161074e90613240565b60405180910390fd5b8073ffffffffffffffffffffffffffffffffffffffff166107766111be565b73ffffffffffffffffffffffffffffffffffffffff1614806107a557506107a48161079f6111be565b610fe2565b5b6107e4576040517f08c379a00000000000000000000000000000000000000000000000000000000081526004016107db906132d2565b60405180910390fd5b6107ee83836111c6565b505050565b600f602052816000526040600020818154811061080f57600080fd5b9060005260206000209060020201600091509150508060000154908060010154905082565b6000600880549050905090565b6060600f6000838152602001908152602001600020805480602002602001604051908101604052809291908181526020016000905b828210156108bc57838290600052602060002090600202016040518060400160405290816000820154815260200160018201548152505081526020019060010190610876565b505050509050919050565b6108d86108d26111be565b8261127f565b610917576040517f08c379a000000000000000000000000000000000000000000000000000000000815260040161090e90613364565b60405180910390fd5b610922838383611314565b505050565b600061093283610ba5565b8210610973576040517f08c379a000000000000000000000000000000000000000000000000000000000815260040161096a906133f6565b60405180910390fd5b600660008473ffffffffffffffffffffffffffffffffffffffff1673ffffffffffffffffffffffffffffffffffffffff168152602001908152602001600020600083815260200190815260200160002054905092915050565b6109d461157a565b6109dc6115f8565b565b6109f983838360405180602001604052806000815250610f1d565b505050565b6000610a08610834565b8210610a49576040517f08c379a0000000000000000000000000000000000000000000000000000000008152600401610a4090613488565b60405180910390fd5b60088281548110610a5d57610a5c6134a8565b5b90600052602060002001549050919050565b6000610a7b600c61165b565b905090565b6000600b60009054906101000a900460ff16905090565b600a81565b610aa461157a565b80600a811115610ae9576040517f08c379a0000000000000000000000000000000000000000000000000000000008152600401610ae090613549565b60405180910390fd5b81600e819055505050565b6000806002600084815260200190815260200160002060009054906101000a900473ffffffffffffffffffffffffffffffffffffffff169050600073ffffffffffffffffffffffffffffffffffffffff168173ffffffffffffffffffffffffffffffffffffffff1603610b9c576040517f08c379a0000000000000000000000000000000000000000000000000000000008152600401610b93906135b5565b60405180910390fd5b80915050919050565b60008073ffffffffffffffffffffffffffffffffffffffff168273ffffffffffffffffffffffffffffffffffffffff1603610c15576040517f08c379a0000000000000000000000000000000000000000000000000000000008152600401610c0c90613647565b60405180910390fd5b600360008373ffffffffffffffffffffffffffffffffffffffff1673ffffffffffffffffffffffffffffffffffffffff168152602001908152602001600020549050919050565b610c6461157a565b610c6e6000611669565b565b610c7861157a565b610c8061172f565b565b600e5481565b6000600b60019054906101000a900473ffffffffffffffffffffffffffffffffffffffff16905090565b606060018054610cc19061319d565b80601f0160208091040260200160405190810160405280929190818152602001828054610ced9061319d565b8015610d3a5780601f10610d0f57610100808354040283529160200191610d3a565b820191906000526020600020905b815481529060010190602001808311610d1d57829003601f168201915b5050505050905090565b610d56610d4f6111be565b8383611792565b5050565b6000610d646118fe565b610d6c61157a565b612710610d79600c61165b565b10610db9576040517f08c379a0000000000000000000000000000000000000000000000000000000008152600401610db0906136b3565b60405180910390fd5b610dc3600c611948565b6000610dcf600c61165b565b9050610ddb338261195e565b610de5818561197c565b60008351905060005b81811015610e9b57600d6040518060400160405280878481518110610e1657610e156134a8565b5b6020026020010151600001518152602001878481518110610e3a57610e396134a8565b5b6020026020010151602001518152509080600181540180825580915050600190039060005260206000209060020201600090919091909150600082015181600001556020820151816001015550508080610e9390613702565b915050610dee565b50600d600f6000848152602001908152602001600020908054610ebf92919061274f565b50600d6000610ece91906127bb565b7feea8d2592d938425e8da4e3a45efbb4cd6c731ea44fbbdd56b783175640c5e85610ef9600c61165b565b3387604051610f0a9392919061374a565b60405180910390a1819250505092915050565b610f2e610f286111be565b8361127f565b610f6d576040517f08c379a0000000000000000000000000000000000000000000000000000000008152600401610f6490613364565b60405180910390fd5b610f79848484846119e9565b50505050565b6060610f8a82611a45565b9050919050565b60007fa5c2fceffdcdeef0cbad381503da5c775e75d4d6af71880f05b2f99e9880b91c82610fbd610c88565b604051610fcb929190613788565b60405180910390a1610fdb610c88565b9050919050565b6000600560008473ffffffffffffffffffffffffffffffffffffffff1673ffffffffffffffffffffffffffffffffffffffff16815260200190815260200160002060008373ffffffffffffffffffffffffffffffffffffffff1673ffffffffffffffffffffffffffffffffffffffff16815260200190815260200160002060009054906101000a900460ff16905092915050565b61107e61157a565b600073ffffffffffffffffffffffffffffffffffffffff168173ffffffffffffffffffffffffffffffffffffffff16036110ed576040517f08c379a00000000000000000000000000000000000000000000000000000000081526004016110e490613823565b60405180910390fd5b6110f681611669565b50565b60007f780e9d63000000000000000000000000000000000000000000000000000000007bffffffffffffffffffffffffffffffffffffffffffffffffffffffff1916827bffffffffffffffffffffffffffffffffffffffffffffffffffffffff1916148061116c575061116b82611b57565b5b9050919050565b61117c81611c39565b6111bb576040517f08c379a00000000000000000000000000000000000000000000000000000000081526004016111b2906135b5565b60405180910390fd5b50565b600033905090565b816004600083815260200190815260200160002060006101000a81548173ffffffffffffffffffffffffffffffffffffffff021916908373ffffffffffffffffffffffffffffffffffffffff160217905550808273ffffffffffffffffffffffffffffffffffffffff1661123983610af4565b73ffffffffffffffffffffffffffffffffffffffff167f8c5be1e5ebec7d5bd14f71427d1e84f3dd0314c0f7b2291e5b200ac8c7c3b92560405160405180910390a45050565b60008061128b83610af4565b90508073ffffffffffffffffffffffffffffffffffffffff168473ffffffffffffffffffffffffffffffffffffffff1614806112cd57506112cc8185610fe2565b5b8061130b57508373ffffffffffffffffffffffffffffffffffffffff166112f384610696565b73ffffffffffffffffffffffffffffffffffffffff16145b91505092915050565b8273ffffffffffffffffffffffffffffffffffffffff1661133482610af4565b73ffffffffffffffffffffffffffffffffffffffff161461138a576040517f08c379a0000000000000000000000000000000000000000000000000000000008152600401611381906138b5565b60405180910390fd5b600073ffffffffffffffffffffffffffffffffffffffff168273ffffffffffffffffffffffffffffffffffffffff16036113f9576040517f08c379a00000000000000000000000000000000000000000000000000000000081526004016113f090613947565b60405180910390fd5b611404838383611ca5565b61140f6000826111c6565b6001600360008573ffffffffffffffffffffffffffffffffffffffff1673ffffffffffffffffffffffffffffffffffffffff168152602001908152602001600020600082825461145f9190613967565b925050819055506001600360008473ffffffffffffffffffffffffffffffffffffffff1673ffffffffffffffffffffffffffffffffffffffff16815260200190815260200160002060008282546114b6919061399b565b92505081905550816002600083815260200190815260200160002060006101000a81548173ffffffffffffffffffffffffffffffffffffffff021916908373ffffffffffffffffffffffffffffffffffffffff160217905550808273ffffffffffffffffffffffffffffffffffffffff168473ffffffffffffffffffffffffffffffffffffffff167fddf252ad1be2c89b69c2b068fc378daa952ba7f163c4a11628f55a4df523b3ef60405160405180910390a4611575838383611cbd565b505050565b6115826111be565b73ffffffffffffffffffffffffffffffffffffffff166115a0610c88565b73ffffffffffffffffffffffffffffffffffffffff16146115f6576040517f08c379a00000000000000000000000000000000000000000000000000000000081526004016115ed90613a1b565b60405180910390fd5b565b611600611cc2565b6000600b60006101000a81548160ff0219169083151502179055507f5db9ee0a495bf2e6ff9c91a7834c1ba4fdd244a5e8aa4e537bd38aeae4b073aa6116446111be565b6040516116519190612a2b565b60405180910390a1565b600081600001549050919050565b6000600b60019054906101000a900473ffffffffffffffffffffffffffffffffffffffff16905081600b60016101000a81548173ffffffffffffffffffffffffffffffffffffffff021916908373ffffffffffffffffffffffffffffffffffffffff1602179055508173ffffffffffffffffffffffffffffffffffffffff168173ffffffffffffffffffffffffffffffffffffffff167f8be0079c531659141344cd1fd0a4f28419497f9722a3daafe3b4186f6b6457e060405160405180910390a35050565b6117376118fe565b6001600b60006101000a81548160ff0219169083151502179055507f62e78cea01bee320cd4e420270b5ea74000d11b0c9f74754ebdbfc544b05a25861177b6111be565b6040516117889190612a2b565b60405180910390a1565b8173ffffffffffffffffffffffffffffffffffffffff168373ffffffffffffffffffffffffffffffffffffffff1603611800576040517f08c379a00000000000000000000000000000000000000000000000000000000081526004016117f790613a87565b60405180910390fd5b80600560008573ffffffffffffffffffffffffffffffffffffffff1673ffffffffffffffffffffffffffffffffffffffff16815260200190815260200160002060008473ffffffffffffffffffffffffffffffffffffffff1673ffffffffffffffffffffffffffffffffffffffff16815260200190815260200160002060006101000a81548160ff0219169083151502179055508173ffffffffffffffffffffffffffffffffffffffff168373ffffffffffffffffffffffffffffffffffffffff167f17307eab39ab6107e8899845ad3d59bd9653f200f220920489ca2b5937696c31836040516118f191906128ba565b60405180910390a3505050565b611906610a80565b15611946576040517f08c379a000000000000000000000000000000000000000000000000000000000815260040161193d90613af3565b60405180910390fd5b565b6001816000016000828254019250508190555050565b611978828260405180602001604052806000815250611d0b565b5050565b61198582611c39565b6119c4576040517f08c379a00000000000000000000000000000000000000000000000000000000081526004016119bb90613b85565b60405180910390fd5b80600a600084815260200190815260200160002090816119e49190613d51565b505050565b6119f4848484611314565b611a0084848484611d66565b611a3f576040517f08c379a0000000000000000000000000000000000000000000000000000000008152600401611a3690613e95565b60405180910390fd5b50505050565b6060611a5082611173565b6000600a60008481526020019081526020016000208054611a709061319d565b80601f0160208091040260200160405190810160405280929190818152602001828054611a9c9061319d565b8015611ae95780601f10611abe57610100808354040283529160200191611ae9565b820191906000526020600020905b815481529060010190602001808311611acc57829003601f168201915b505050505090506000611afa611eed565b90506000815103611b0f578192505050611b52565b600082511115611b44578082604051602001611b2c929190613ef1565b60405160208183030381529060405292505050611b52565b611b4d84611f04565b925050505b919050565b60007f80ac58cd000000000000000000000000000000000000000000000000000000007bffffffffffffffffffffffffffffffffffffffffffffffffffffffff1916827bffffffffffffffffffffffffffffffffffffffffffffffffffffffff19161480611c2257507f5b5e139f000000000000000000000000000000000000000000000000000000007bffffffffffffffffffffffffffffffffffffffffffffffffffffffff1916827bffffffffffffffffffffffffffffffffffffffffffffffffffffffff1916145b80611c325750611c3182611f6c565b5b9050919050565b60008073ffffffffffffffffffffffffffffffffffffffff166002600084815260200190815260200160002060009054906101000a900473ffffffffffffffffffffffffffffffffffffffff1673ffffffffffffffffffffffffffffffffffffffff1614159050919050565b611cad6118fe565b611cb8838383611fd6565b505050565b505050565b611cca610a80565b611d09576040517f08c379a0000000000000000000000000000000000000000000000000000000008152600401611d0090613f61565b60405180910390fd5b565b611d1583836120e8565b611d226000848484611d66565b611d61576040517f08c379a0000000000000000000000000000000000000000000000000000000008152600401611d5890613e95565b60405180910390fd5b505050565b6000611d878473ffffffffffffffffffffffffffffffffffffffff166122c1565b15611ee0578373ffffffffffffffffffffffffffffffffffffffff1663150b7a02611db06111be565b8786866040518563ffffffff1660e01b8152600401611dd29493929190613fd6565b6020604051808303816000875af1925050508015611e0e57506040513d601f19601f82011682018060405250810190611e0b9190614037565b60015b611e90573d8060008114611e3e576040519150601f19603f3d011682016040523d82523d6000602084013e611e43565b606091505b506000815103611e88576040517f08c379a0000000000000000000000000000000000000000000000000000000008152600401611e7f90613e95565b60405180910390fd5b805181602001fd5b63150b7a0260e01b7bffffffffffffffffffffffffffffffffffffffffffffffffffffffff1916817bffffffffffffffffffffffffffffffffffffffffffffffffffffffff191614915050611ee5565b600190505b949350505050565b606060405180602001604052806000815250905090565b6060611f0f82611173565b6000611f19611eed565b90506000815111611f395760405180602001604052806000815250611f64565b80611f43846122e4565b604051602001611f54929190613ef1565b6040516020818303038152906040525b915050919050565b60007f01ffc9a7000000000000000000000000000000000000000000000000000000007bffffffffffffffffffffffffffffffffffffffffffffffffffffffff1916827bffffffffffffffffffffffffffffffffffffffffffffffffffffffff1916149050919050565b611fe1838383612444565b600073ffffffffffffffffffffffffffffffffffffffff168373ffffffffffffffffffffffffffffffffffffffff16036120235761201e81612449565b612062565b8173ffffffffffffffffffffffffffffffffffffffff168373ffffffffffffffffffffffffffffffffffffffff1614612061576120608382612492565b5b5b600073ffffffffffffffffffffffffffffffffffffffff168273ffffffffffffffffffffffffffffffffffffffff16036120a45761209f816125ff565b6120e3565b8273ffffffffffffffffffffffffffffffffffffffff168273ffffffffffffffffffffffffffffffffffffffff16146120e2576120e182826126d0565b5b5b505050565b600073ffffffffffffffffffffffffffffffffffffffff168273ffffffffffffffffffffffffffffffffffffffff1603612157576040517f08c379a000000000000000000000000000000000000000000000000000000000815260040161214e906140b0565b60405180910390fd5b61216081611c39565b156121a0576040517f08c379a00000000000000000000000000000000000000000000000000000000081526004016121979061411c565b60405180910390fd5b6121ac60008383611ca5565b6001600360008473ffffffffffffffffffffffffffffffffffffffff1673ffffffffffffffffffffffffffffffffffffffff16815260200190815260200160002060008282546121fc919061399b565b92505081905550816002600083815260200190815260200160002060006101000a81548173ffffffffffffffffffffffffffffffffffffffff021916908373ffffffffffffffffffffffffffffffffffffffff160217905550808273ffffffffffffffffffffffffffffffffffffffff16600073ffffffffffffffffffffffffffffffffffffffff167fddf252ad1be2c89b69c2b068fc378daa952ba7f163c4a11628f55a4df523b3ef60405160405180910390a46122bd60008383611cbd565b5050565b6000808273ffffffffffffffffffffffffffffffffffffffff163b119050919050565b60606000820361232b576040518060400160405280600181526020017f3000000000000000000000000000000000000000000000000000000000000000815250905061243f565b600082905060005b6000821461235d57808061234690613702565b915050600a82612356919061416b565b9150612333565b60008167ffffffffffffffff81111561237957612378612d4a565b5b6040519080825280601f01601f1916602001820160405280156123ab5781602001600182028036833780820191505090505b5090505b60008514612438576001826123c49190613967565b9150600a856123d3919061419c565b60306123df919061399b565b60f81b8183815181106123f5576123f46134a8565b5b60200101907effffffffffffffffffffffffffffffffffffffffffffffffffffffffffffff1916908160001a905350600a85612431919061416b565b94506123af565b8093505050505b919050565b505050565b6008805490506009600083815260200190815260200160002081905550600881908060018154018082558091505060019003906000526020600020016000909190919091505550565b6000600161249f84610ba5565b6124a99190613967565b905060006007600084815260200190815260200160002054905081811461258e576000600660008673ffffffffffffffffffffffffffffffffffffffff1673ffffffffffffffffffffffffffffffffffffffff168152602001908152602001600020600084815260200190815260200160002054905080600660008773ffffffffffffffffffffffffffffffffffffffff1673ffffffffffffffffffffffffffffffffffffffff168152602001908152602001600020600084815260200190815260200160002081905550816007600083815260200190815260200160002081905550505b6007600084815260200190815260200160002060009055600660008573ffffffffffffffffffffffffffffffffffffffff1673ffffffffffffffffffffffffffffffffffffffff16815260200190815260200160002060008381526020019081526020016000206000905550505050565b600060016008805490506126139190613967565b9050600060096000848152602001908152602001600020549050600060088381548110612643576126426134a8565b5b906000526020600020015490508060088381548110612665576126646134a8565b5b9060005260206000200181905550816009600083815260200190815260200160002081905550600960008581526020019081526020016000206000905560088054806126b4576126b36141cd565b5b6001900381819060005260206000200160009055905550505050565b60006126db83610ba5565b905081600660008573ffffffffffffffffffffffffffffffffffffffff1673ffffffffffffffffffffffffffffffffffffffff168152602001908152602001600020600083815260200190815260200160002081905550806007600084815260200190815260200160002081905550505050565b8280548282559060005260206000209060020281019282156127aa5760005260206000209160020282015b828111156127a9578282600082015481600001556001820154816001015550509160020191906002019061277a565b5b5090506127b791906127df565b5090565b50805460008255600202906000526020600020908101906127dc91906127df565b50565b5b80821115612802576000808201600090556001820160009055506002016127e0565b5090565b6000604051905090565b600080fd5b600080fd5b60007fffffffff0000000000000000000000000000000000000000000000000000000082169050919050565b61284f8161281a565b811461285a57600080fd5b50565b60008135905061286c81612846565b92915050565b60006020828403121561288857612887612810565b5b60006128968482850161285d565b91505092915050565b60008115159050919050565b6128b48161289f565b82525050565b60006020820190506128cf60008301846128ab565b92915050565b600081519050919050565b600082825260208201905092915050565b60005b8381101561290f5780820151818401526020810190506128f4565b60008484015250505050565b6000601f19601f8301169050919050565b6000612937826128d5565b61294181856128e0565b93506129518185602086016128f1565b61295a8161291b565b840191505092915050565b6000602082019050818103600083015261297f818461292c565b905092915050565b6000819050919050565b61299a81612987565b81146129a557600080fd5b50565b6000813590506129b781612991565b92915050565b6000602082840312156129d3576129d2612810565b5b60006129e1848285016129a8565b91505092915050565b600073ffffffffffffffffffffffffffffffffffffffff82169050919050565b6000612a15826129ea565b9050919050565b612a2581612a0a565b82525050565b6000602082019050612a406000830184612a1c565b92915050565b612a4f81612a0a565b8114612a5a57600080fd5b50565b600081359050612a6c81612a46565b92915050565b60008060408385031215612a8957612a88612810565b5b6000612a9785828601612a5d565b9250506020612aa8858286016129a8565b9150509250929050565b60008060408385031215612ac957612ac8612810565b5b6000612ad7858286016129a8565b9250506020612ae8858286016129a8565b9150509250929050565b612afb81612987565b82525050565b6000604082019050612b166000830185612af2565b612b236020830184612af2565b9392505050565b6000602082019050612b3f6000830184612af2565b92915050565b600081519050919050565b600082825260208201905092915050565b6000819050602082019050919050565b612b7a81612987565b82525050565b604082016000820151612b966000850182612b71565b506020820151612ba96020850182612b71565b50505050565b6000612bbb8383612b80565b60408301905092915050565b6000602082019050919050565b6000612bdf82612b45565b612be98185612b50565b9350612bf483612b61565b8060005b83811015612c25578151612c0c8882612baf565b9750612c1783612bc7565b925050600181019050612bf8565b5085935050505092915050565b60006020820190508181036000830152612c4c8184612bd4565b905092915050565b600080600060608486031215612c6d57612c6c612810565b5b6000612c7b86828701612a5d565b9350506020612c8c86828701612a5d565b9250506040612c9d868287016129a8565b9150509250925092565b600060208284031215612cbd57612cbc612810565b5b6000612ccb84828501612a5d565b91505092915050565b612cdd8161289f565b8114612ce857600080fd5b50565b600081359050612cfa81612cd4565b92915050565b60008060408385031215612d1757612d16612810565b5b6000612d2585828601612a5d565b9250506020612d3685828601612ceb565b9150509250929050565b600080fd5b600080fd5b7f4e487b7100000000000000000000000000000000000000000000000000000000600052604160045260246000fd5b612d828261291b565b810181811067ffffffffffffffff82111715612da157612da0612d4a565b5b80604052505050565b6000612db4612806565b9050612dc08282612d79565b919050565b600067ffffffffffffffff821115612de057612ddf612d4a565b5b612de98261291b565b9050602081019050919050565b82818337600083830152505050565b6000612e18612e1384612dc5565b612daa565b905082815260208101848484011115612e3457612e33612d45565b5b612e3f848285612df6565b509392505050565b600082601f830112612e5c57612e5b612d40565b5b8135612e6c848260208601612e05565b91505092915050565b600067ffffffffffffffff821115612e9057612e8f612d4a565b5b602082029050602081019050919050565b600080fd5b600080fd5b600060408284031215612ec157612ec0612ea6565b5b612ecb6040612daa565b90506000612edb848285016129a8565b6000830152506020612eef848285016129a8565b60208301525092915050565b6000612f0e612f0984612e75565b612daa565b90508083825260208201905060408402830185811115612f3157612f30612ea1565b5b835b81811015612f5a5780612f468882612eab565b845260208401935050604081019050612f33565b5050509392505050565b600082601f830112612f7957612f78612d40565b5b8135612f89848260208601612efb565b91505092915050565b60008060408385031215612fa957612fa8612810565b5b600083013567ffffffffffffffff811115612fc757612fc6612815565b5b612fd385828601612e47565b925050602083013567ffffffffffffffff811115612ff457612ff3612815565b5b61300085828601612f64565b9150509250929050565b600067ffffffffffffffff82111561302557613024612d4a565b5b61302e8261291b565b9050602081019050919050565b600061304e6130498461300a565b612daa565b90508281526020810184848401111561306a57613069612d45565b5b613075848285612df6565b509392505050565b600082601f83011261309257613091612d40565b5b81356130a284826020860161303b565b91505092915050565b600080600080608085870312156130c5576130c4612810565b5b60006130d387828801612a5d565b94505060206130e487828801612a5d565b93505060406130f5878288016129a8565b925050606085013567ffffffffffffffff81111561311657613115612815565b5b6131228782880161307d565b91505092959194509250565b6000806040838503121561314557613144612810565b5b600061315385828601612a5d565b925050602061316485828601612a5d565b9150509250929050565b7f4e487b7100000000000000000000000000000000000000000000000000000000600052602260045260246000fd5b600060028204905060018216806131b557607f821691505b6020821081036131c8576131c761316e565b5b50919050565b7f4552433732313a20617070726f76616c20746f2063757272656e74206f776e6560008201527f7200000000000000000000000000000000000000000000000000000000000000602082015250565b600061322a6021836128e0565b9150613235826131ce565b604082019050919050565b600060208201905081810360008301526132598161321d565b9050919050565b7f4552433732313a20617070726f76652063616c6c6572206973206e6f7420746f60008201527f6b656e206f776e6572206e6f7220617070726f76656420666f7220616c6c0000602082015250565b60006132bc603e836128e0565b91506132c782613260565b604082019050919050565b600060208201905081810360008301526132eb816132af565b9050919050565b7f4552433732313a2063616c6c6572206973206e6f7420746f6b656e206f776e6560008201527f72206e6f7220617070726f766564000000000000000000000000000000000000602082015250565b600061334e602e836128e0565b9150613359826132f2565b604082019050919050565b6000602082019050818103600083015261337d81613341565b9050919050565b7f455243373231456e756d657261626c653a206f776e657220696e646578206f7560008201527f74206f6620626f756e6473000000000000000000000000000000000000000000602082015250565b60006133e0602b836128e0565b91506133eb82613384565b604082019050919050565b6000602082019050818103600083015261340f816133d3565b9050919050565b7f455243373231456e756d657261626c653a20676c6f62616c20696e646578206f60008201527f7574206f6620626f756e64730000000000000000000000000000000000000000602082015250565b6000613472602c836128e0565b915061347d82613416565b604082019050919050565b600060208201905081810360008301526134a181613465565b9050919050565b7f4e487b7100000000000000000000000000000000000000000000000000000000600052603260045260246000fd5b7f526f79616c746965732070657263656e746167652073686f756c64206265206560008201527f7175616c206f72206c65737373207468616e2031302500000000000000000000602082015250565b60006135336036836128e0565b915061353e826134d7565b604082019050919050565b6000602082019050818103600083015261356281613526565b9050919050565b7f4552433732313a20696e76616c696420746f6b656e2049440000000000000000600082015250565b600061359f6018836128e0565b91506135aa82613569565b602082019050919050565b600060208201905081810360008301526135ce81613592565b9050919050565b7f4552433732313a2061646472657373207a65726f206973206e6f74206120766160008201527f6c6964206f776e65720000000000000000000000000000000000000000000000602082015250565b60006136316029836128e0565b915061363c826135d5565b604082019050919050565b6000602082019050818103600083015261366081613624565b9050919050565b7f4e465473206172652063617070656420746f2031302c30303021000000000000600082015250565b600061369d601a836128e0565b91506136a882613667565b602082019050919050565b600060208201905081810360008301526136cc81613690565b9050919050565b7f4e487b7100000000000000000000000000000000000000000000000000000000600052601160045260246000fd5b600061370d82612987565b91507fffffffffffffffffffffffffffffffffffffffffffffffffffffffffffffffff820361373f5761373e6136d3565b5b600182019050919050565b600060608201905061375f6000830186612af2565b61376c6020830185612a1c565b818103604083015261377e818461292c565b9050949350505050565b600060408201905061379d6000830185612af2565b6137aa6020830184612a1c565b9392505050565b7f4f776e61626c653a206e6577206f776e657220697320746865207a65726f206160008201527f6464726573730000000000000000000000000000000000000000000000000000602082015250565b600061380d6026836128e0565b9150613818826137b1565b604082019050919050565b6000602082019050818103600083015261383c81613800565b9050919050565b7f4552433732313a207472616e736665722066726f6d20696e636f72726563742060008201527f6f776e6572000000000000000000000000000000000000000000000000000000602082015250565b600061389f6025836128e0565b91506138aa82613843565b604082019050919050565b600060208201905081810360008301526138ce81613892565b9050919050565b7f4552433732313a207472616e7366657220746f20746865207a65726f2061646460008201527f7265737300000000000000000000000000000000000000000000000000000000602082015250565b60006139316024836128e0565b915061393c826138d5565b604082019050919050565b6000602082019050818103600083015261396081613924565b9050919050565b600061397282612987565b915061397d83612987565b9250828203905081811115613995576139946136d3565b5b92915050565b60006139a682612987565b91506139b183612987565b92508282019050808211156139c9576139c86136d3565b5b92915050565b7f4f776e61626c653a2063616c6c6572206973206e6f7420746865206f776e6572600082015250565b6000613a056020836128e0565b9150613a10826139cf565b602082019050919050565b60006020820190508181036000830152613a34816139f8565b9050919050565b7f4552433732313a20617070726f766520746f2063616c6c657200000000000000600082015250565b6000613a716019836128e0565b9150613a7c82613a3b565b602082019050919050565b60006020820190508181036000830152613aa081613a64565b9050919050565b7f5061757361626c653a2070617573656400000000000000000000000000000000600082015250565b6000613add6010836128e0565b9150613ae882613aa7565b602082019050919050565b60006020820190508181036000830152613b0c81613ad0565b9050919050565b7f45524337323155524953746f726167653a2055524920736574206f66206e6f6e60008201527f6578697374656e7420746f6b656e000000000000000000000000000000000000602082015250565b6000613b6f602e836128e0565b9150613b7a82613b13565b604082019050919050565b60006020820190508181036000830152613b9e81613b62565b9050919050565b60008190508160005260206000209050919050565b60006020601f8301049050919050565b600082821b905092915050565b600060088302613c077fffffffffffffffffffffffffffffffffffffffffffffffffffffffffffffffff82613bca565b613c118683613bca565b95508019841693508086168417925050509392505050565b6000819050919050565b6000613c4e613c49613c4484612987565b613c29565b612987565b9050919050565b6000819050919050565b613c6883613c33565b613c7c613c7482613c55565b848454613bd7565b825550505050565b600090565b613c91613c84565b613c9c818484613c5f565b505050565b5b81811015613cc057613cb5600082613c89565b600181019050613ca2565b5050565b601f821115613d0557613cd681613ba5565b613cdf84613bba565b81016020851015613cee578190505b613d02613cfa85613bba565b830182613ca1565b50505b505050565b600082821c905092915050565b6000613d2860001984600802613d0a565b1980831691505092915050565b6000613d418383613d17565b9150826002028217905092915050565b613d5a826128d5565b67ffffffffffffffff811115613d7357613d72612d4a565b5b613d7d825461319d565b613d88828285613cc4565b600060209050601f831160018114613dbb5760008415613da9578287015190505b613db38582613d35565b865550613e1b565b601f198416613dc986613ba5565b60005b82811015613df157848901518255600182019150602085019450602081019050613dcc565b86831015613e0e5784890151613e0a601f891682613d17565b8355505b6001600288020188555050505b505050505050565b7f4552433732313a207472616e7366657220746f206e6f6e20455243373231526560008201527f63656976657220696d706c656d656e7465720000000000000000000000000000602082015250565b6000613e7f6032836128e0565b9150613e8a82613e23565b604082019050919050565b60006020820190508181036000830152613eae81613e72565b9050919050565b600081905092915050565b6000613ecb826128d5565b613ed58185613eb5565b9350613ee58185602086016128f1565b80840191505092915050565b6000613efd8285613ec0565b9150613f098284613ec0565b91508190509392505050565b7f5061757361626c653a206e6f7420706175736564000000000000000000000000600082015250565b6000613f4b6014836128e0565b9150613f5682613f15565b602082019050919050565b60006020820190508181036000830152613f7a81613f3e565b9050919050565b600081519050919050565b600082825260208201905092915050565b6000613fa882613f81565b613fb28185613f8c565b9350613fc28185602086016128f1565b613fcb8161291b565b840191505092915050565b6000608082019050613feb6000830187612a1c565b613ff86020830186612a1c565b6140056040830185612af2565b81810360608301526140178184613f9d565b905095945050505050565b60008151905061403181612846565b92915050565b60006020828403121561404d5761404c612810565b5b600061405b84828501614022565b91505092915050565b7f4552433732313a206d696e7420746f20746865207a65726f2061646472657373600082015250565b600061409a6020836128e0565b91506140a582614064565b602082019050919050565b600060208201905081810360008301526140c98161408d565b9050919050565b7f4552433732313a20746f6b656e20616c7265616479206d696e74656400000000600082015250565b6000614106601c836128e0565b9150614111826140d0565b602082019050919050565b60006020820190508181036000830152614135816140f9565b9050919050565b7f4e487b7100000000000000000000000000000000000000000000000000000000600052601260045260246000fd5b600061417682612987565b915061418183612987565b9250826141915761419061413c565b5b828204905092915050565b60006141a782612987565b91506141b283612987565b9250826141c2576141c161413c565b5b828206905092915050565b7f4e487b7100000000000000000000000000000000000000000000000000000000600052603160045260246000fdfea26469706673582212204eb6b9e8d02d2aa8088551843913e86df17d630fcf7429ea816df83553cdbcb964736f6c63430008100033",
  "linkReferences": {},
  "deployedLinkReferences": {}
}