{
  "_format": "hh-sol-artifact-1",
  "contractName": "LedaNFT",
  "sourceName": "contracts/LedaNFT.sol",
  "abi": [
    {
      "inputs": [
        {
          "internalType": "string",
          "name": "_name",
          "type": "string"
        },
        {
          "internalType": "string",
          "name": "_symbol",
          "type": "string"
        }
      ],
      "stateMutability": "nonpayable",
      "type": "constructor"
    },
    {
      "anonymous": false,
      "inputs": [
        {
          "indexed": true,
          "internalType": "address",
          "name": "owner",
          "type": "address"
        },
        {
          "indexed": true,
          "internalType": "address",
          "name": "approved",
          "type": "address"
        },
        {
          "indexed": true,
          "internalType": "uint256",
          "name": "tokenId",
          "type": "uint256"
        }
      ],
      "name": "Approval",
      "type": "event"
    },
    {
      "anonymous": false,
      "inputs": [
        {
          "indexed": true,
          "internalType": "address",
          "name": "owner",
          "type": "address"
        },
        {
          "indexed": true,
          "internalType": "address",
          "name": "operator",
          "type": "address"
        },
        {
          "indexed": false,
          "internalType": "bool",
          "name": "approved",
          "type": "bool"
        }
      ],
      "name": "ApprovalForAll",
      "type": "event"
    },
    {
      "anonymous": false,
      "inputs": [
        {
          "indexed": false,
          "internalType": "uint256",
          "name": "_nftId",
          "type": "uint256"
        },
        {
          "indexed": false,
          "internalType": "address",
          "name": "_owner",
          "type": "address"
        },
        {
          "indexed": false,
          "internalType": "string",
          "name": "_nftURI",
          "type": "string"
        },
        {
          "indexed": false,
          "internalType": "uint256",
          "name": "_royalties",
          "type": "uint256"
        }
      ],
      "name": "LogNFTMinted",
      "type": "event"
    },
    {
      "anonymous": false,
      "inputs": [
        {
          "indexed": true,
          "internalType": "address",
          "name": "previousOwner",
          "type": "address"
        },
        {
          "indexed": true,
          "internalType": "address",
          "name": "newOwner",
          "type": "address"
        }
      ],
      "name": "OwnershipTransferred",
      "type": "event"
    },
    {
      "anonymous": false,
      "inputs": [
        {
          "indexed": true,
          "internalType": "address",
          "name": "from",
          "type": "address"
        },
        {
          "indexed": true,
          "internalType": "address",
          "name": "to",
          "type": "address"
        },
        {
          "indexed": true,
          "internalType": "uint256",
          "name": "tokenId",
          "type": "uint256"
        }
      ],
      "name": "Transfer",
      "type": "event"
    },
    {
      "inputs": [
        {
          "internalType": "address",
          "name": "to",
          "type": "address"
        },
        {
          "internalType": "uint256",
          "name": "tokenId",
          "type": "uint256"
        }
      ],
      "name": "approve",
      "outputs": [],
      "stateMutability": "nonpayable",
      "type": "function"
    },
    {
      "inputs": [
        {
          "internalType": "address",
          "name": "owner",
          "type": "address"
        }
      ],
      "name": "balanceOf",
      "outputs": [
        {
          "internalType": "uint256",
          "name": "",
          "type": "uint256"
        }
      ],
      "stateMutability": "view",
      "type": "function"
    },
    {
      "inputs": [
        {
          "internalType": "uint256",
          "name": "",
          "type": "uint256"
        }
      ],
      "name": "creatorInfo",
      "outputs": [
        {
          "internalType": "address",
          "name": "creator",
          "type": "address"
        },
        {
          "internalType": "uint256",
          "name": "royalties",
          "type": "uint256"
        }
      ],
      "stateMutability": "view",
      "type": "function"
    },
    {
      "inputs": [
        {
          "internalType": "uint256",
          "name": "tokenId",
          "type": "uint256"
        }
      ],
      "name": "getApproved",
      "outputs": [
        {
          "internalType": "address",
          "name": "",
          "type": "address"
        }
      ],
      "stateMutability": "view",
      "type": "function"
    },
    {
      "inputs": [
        {
          "internalType": "address",
          "name": "owner",
          "type": "address"
        },
        {
          "internalType": "address",
          "name": "operator",
          "type": "address"
        }
      ],
      "name": "isApprovedForAll",
      "outputs": [
        {
          "internalType": "bool",
          "name": "",
          "type": "bool"
        }
      ],
      "stateMutability": "view",
      "type": "function"
    },
    {
      "inputs": [],
      "name": "maxCreatorRoyalties",
      "outputs": [
        {
          "internalType": "uint256",
          "name": "",
          "type": "uint256"
        }
      ],
      "stateMutability": "view",
      "type": "function"
    },
    {
      "inputs": [
        {
          "internalType": "string",
          "name": "_tokenURI",
          "type": "string"
        },
        {
          "internalType": "uint256",
          "name": "_royaltiesPercentage",
          "type": "uint256"
        }
      ],
      "name": "mint",
      "outputs": [
        {
          "internalType": "uint256",
          "name": "",
          "type": "uint256"
        }
      ],
      "stateMutability": "nonpayable",
      "type": "function"
    },
    {
      "inputs": [],
      "name": "name",
      "outputs": [
        {
          "internalType": "string",
          "name": "",
          "type": "string"
        }
      ],
      "stateMutability": "view",
      "type": "function"
    },
    {
      "inputs": [],
      "name": "owner",
      "outputs": [
        {
          "internalType": "address",
          "name": "",
          "type": "address"
        }
      ],
      "stateMutability": "view",
      "type": "function"
    },
    {
      "inputs": [
        {
          "internalType": "uint256",
          "name": "tokenId",
          "type": "uint256"
        }
      ],
      "name": "ownerOf",
      "outputs": [
        {
          "internalType": "address",
          "name": "",
          "type": "address"
        }
      ],
      "stateMutability": "view",
      "type": "function"
    },
    {
      "inputs": [],
      "name": "renounceOwnership",
      "outputs": [],
      "stateMutability": "nonpayable",
      "type": "function"
    },
    {
      "inputs": [
        {
          "internalType": "address",
          "name": "from",
          "type": "address"
        },
        {
          "internalType": "address",
          "name": "to",
          "type": "address"
        },
        {
          "internalType": "uint256",
          "name": "tokenId",
          "type": "uint256"
        }
      ],
      "name": "safeTransferFrom",
      "outputs": [],
      "stateMutability": "nonpayable",
      "type": "function"
    },
    {
      "inputs": [
        {
          "internalType": "address",
          "name": "from",
          "type": "address"
        },
        {
          "internalType": "address",
          "name": "to",
          "type": "address"
        },
        {
          "internalType": "uint256",
          "name": "tokenId",
          "type": "uint256"
        },
        {
          "internalType": "bytes",
          "name": "data",
          "type": "bytes"
        }
      ],
      "name": "safeTransferFrom",
      "outputs": [],
      "stateMutability": "nonpayable",
      "type": "function"
    },
    {
      "inputs": [
        {
          "internalType": "address",
          "name": "operator",
          "type": "address"
        },
        {
          "internalType": "bool",
          "name": "approved",
          "type": "bool"
        }
      ],
      "name": "setApprovalForAll",
      "outputs": [],
      "stateMutability": "nonpayable",
      "type": "function"
    },
    {
      "inputs": [
        {
          "internalType": "uint256",
          "name": "_maxCreatorRoyalties",
          "type": "uint256"
        }
      ],
      "name": "setMaxCreatorRoyalties",
      "outputs": [],
      "stateMutability": "nonpayable",
      "type": "function"
    },
    {
      "inputs": [
        {
          "internalType": "bytes4",
          "name": "interfaceId",
          "type": "bytes4"
        }
      ],
      "name": "supportsInterface",
      "outputs": [
        {
          "internalType": "bool",
          "name": "",
          "type": "bool"
        }
      ],
      "stateMutability": "view",
      "type": "function"
    },
    {
      "inputs": [],
      "name": "symbol",
      "outputs": [
        {
          "internalType": "string",
          "name": "",
          "type": "string"
        }
      ],
      "stateMutability": "view",
      "type": "function"
    },
    {
      "inputs": [],
      "name": "tokenCount",
      "outputs": [
        {
          "internalType": "uint256",
          "name": "_value",
          "type": "uint256"
        }
      ],
      "stateMutability": "view",
      "type": "function"
    },
    {
      "inputs": [
        {
          "internalType": "uint256",
          "name": "tokenId",
          "type": "uint256"
        }
      ],
      "name": "tokenURI",
      "outputs": [
        {
          "internalType": "string",
          "name": "",
          "type": "string"
        }
      ],
      "stateMutability": "view",
      "type": "function"
    },
    {
      "inputs": [
        {
          "internalType": "address",
          "name": "from",
          "type": "address"
        },
        {
          "internalType": "address",
          "name": "to",
          "type": "address"
        },
        {
          "internalType": "uint256",
          "name": "tokenId",
          "type": "uint256"
        }
      ],
      "name": "transferFrom",
      "outputs": [],
      "stateMutability": "nonpayable",
      "type": "function"
    },
    {
      "inputs": [
        {
          "internalType": "address",
          "name": "newOwner",
          "type": "address"
        }
      ],
      "name": "transferOwnership",
      "outputs": [],
      "stateMutability": "nonpayable",
      "type": "function"
    }
  ],
  "bytecode": "0x60806040523480156200001157600080fd5b5060405162003807380380620038078339818101604052810190620000379190620002f0565b818181600090816200004a9190620005c0565b5080600190816200005c9190620005c0565b5050506200007f620000736200008f60201b60201c565b6200009760201b60201c565b600a6008819055505050620006a7565b600033905090565b6000600760009054906101000a900473ffffffffffffffffffffffffffffffffffffffff16905081600760006101000a81548173ffffffffffffffffffffffffffffffffffffffff021916908373ffffffffffffffffffffffffffffffffffffffff1602179055508173ffffffffffffffffffffffffffffffffffffffff168173ffffffffffffffffffffffffffffffffffffffff167f8be0079c531659141344cd1fd0a4f28419497f9722a3daafe3b4186f6b6457e060405160405180910390a35050565b6000604051905090565b600080fd5b600080fd5b600080fd5b600080fd5b6000601f19601f8301169050919050565b7f4e487b7100000000000000000000000000000000000000000000000000000000600052604160045260246000fd5b620001c6826200017b565b810181811067ffffffffffffffff82111715620001e857620001e76200018c565b5b80604052505050565b6000620001fd6200015d565b90506200020b8282620001bb565b919050565b600067ffffffffffffffff8211156200022e576200022d6200018c565b5b62000239826200017b565b9050602081019050919050565b60005b838110156200026657808201518184015260208101905062000249565b60008484015250505050565b600062000289620002838462000210565b620001f1565b905082815260208101848484011115620002a857620002a762000176565b5b620002b584828562000246565b509392505050565b600082601f830112620002d557620002d462000171565b5b8151620002e784826020860162000272565b91505092915050565b600080604083850312156200030a576200030962000167565b5b600083015167ffffffffffffffff8111156200032b576200032a6200016c565b5b6200033985828601620002bd565b925050602083015167ffffffffffffffff8111156200035d576200035c6200016c565b5b6200036b85828601620002bd565b9150509250929050565b600081519050919050565b7f4e487b7100000000000000000000000000000000000000000000000000000000600052602260045260246000fd5b60006002820490506001821680620003c857607f821691505b602082108103620003de57620003dd62000380565b5b50919050565b60008190508160005260206000209050919050565b60006020601f8301049050919050565b600082821b905092915050565b600060088302620004487fffffffffffffffffffffffffffffffffffffffffffffffffffffffffffffffff8262000409565b62000454868362000409565b95508019841693508086168417925050509392505050565b6000819050919050565b6000819050919050565b6000620004a16200049b62000495846200046c565b62000476565b6200046c565b9050919050565b6000819050919050565b620004bd8362000480565b620004d5620004cc82620004a8565b84845462000416565b825550505050565b600090565b620004ec620004dd565b620004f9818484620004b2565b505050565b5b81811015620005215762000515600082620004e2565b600181019050620004ff565b5050565b601f82111562000570576200053a81620003e4565b6200054584620003f9565b8101602085101562000555578190505b6200056d6200056485620003f9565b830182620004fe565b50505b505050565b600082821c905092915050565b6000620005956000198460080262000575565b1980831691505092915050565b6000620005b0838362000582565b9150826002028217905092915050565b620005cb8262000375565b67ffffffffffffffff811115620005e757620005e66200018c565b5b620005f38254620003af565b6200060082828562000525565b600060209050601f83116001811462000638576000841562000623578287015190505b6200062f8582620005a2565b8655506200069f565b601f1984166200064886620003e4565b60005b8281101562000672578489015182556001820191506020850194506020810190506200064b565b868310156200069257848901516200068e601f89168262000582565b8355505b6001600288020188555050505b505050505050565b61315080620006b76000396000f3fe608060405234801561001057600080fd5b50600436106101375760003560e01c8063715018a6116100b85780639f181b5e1161007c5780639f181b5e1461034f578063a22cb4651461036d578063b88d4fde14610389578063c87b56dd146103a5578063e985e9c5146103d5578063f2fde38b1461040557610137565b8063715018a6146102bc57806378b0a24e146102c65780637e554ba0146102f75780638da5cb5b1461031357806395d89b411461033157610137565b806323b872dd116100ff57806323b872dd146102065780633fb4b6931461022257806342842e0e146102405780636352211e1461025c57806370a082311461028c57610137565b806301ffc9a71461013c578063056b01ce1461016c57806306fdde031461019c578063081812fc146101ba578063095ea7b3146101ea575b600080fd5b61015660048036038101906101519190611cca565b610421565b6040516101639190611d12565b60405180910390f35b61018660048036038101906101819190611ea9565b610503565b6040516101939190611f14565b60405180910390f35b6101a461064f565b6040516101b19190611fae565b60405180910390f35b6101d460048036038101906101cf9190611fd0565b6106e1565b6040516101e1919061203e565b60405180910390f35b61020460048036038101906101ff9190612085565b610727565b005b610220600480360381019061021b91906120c5565b61083e565b005b61022a61089e565b6040516102379190611f14565b60405180910390f35b61025a600480360381019061025591906120c5565b6108a4565b005b61027660048036038101906102719190611fd0565b6108c4565b604051610283919061203e565b60405180910390f35b6102a660048036038101906102a19190612118565b610975565b6040516102b39190611f14565b60405180910390f35b6102c4610a2c565b005b6102e060048036038101906102db9190611fd0565b610a40565b6040516102ee929190612145565b60405180910390f35b610311600480360381019061030c9190611fd0565b610a84565b005b61031b610a96565b604051610328919061203e565b60405180910390f35b610339610ac0565b6040516103469190611fae565b60405180910390f35b610357610b52565b6040516103649190611f14565b60405180910390f35b6103876004803603810190610382919061219a565b610b5e565b005b6103a3600480360381019061039e919061227b565b610b74565b005b6103bf60048036038101906103ba9190611fd0565b610bd6565b6040516103cc9190611fae565b60405180910390f35b6103ef60048036038101906103ea91906122fe565b610ce8565b6040516103fc9190611d12565b60405180910390f35b61041f600480360381019061041a9190612118565b610d7c565b005b60007f80ac58cd000000000000000000000000000000000000000000000000000000007bffffffffffffffffffffffffffffffffffffffffffffffffffffffff1916827bffffffffffffffffffffffffffffffffffffffffffffffffffffffff191614806104ec57507f5b5e139f000000000000000000000000000000000000000000000000000000007bffffffffffffffffffffffffffffffffffffffffffffffffffffffff1916827bffffffffffffffffffffffffffffffffffffffffffffffffffffffff1916145b806104fc57506104fb82610dff565b5b9050919050565b600060085482111561054a576040517f08c379a0000000000000000000000000000000000000000000000000000000008152600401610541906123b0565b60405180910390fd5b610554600a610e69565b6000610560600a610e7f565b905061056c3382610e8d565b6105768185610eab565b60405180604001604052803373ffffffffffffffffffffffffffffffffffffffff168152602001848152506009600083815260200190815260200160002060008201518160000160006101000a81548173ffffffffffffffffffffffffffffffffffffffff021916908373ffffffffffffffffffffffffffffffffffffffff160217905550602082015181600101559050507f0a87c421f7b51fcf9008064b31bb04f137ea9ec7c7a7d2dca02ae6380ef2a9148133868660405161063d94939291906123d0565b60405180910390a18091505092915050565b60606000805461065e9061244b565b80601f016020809104026020016040519081016040528092919081815260200182805461068a9061244b565b80156106d75780601f106106ac576101008083540402835291602001916106d7565b820191906000526020600020905b8154815290600101906020018083116106ba57829003601f168201915b5050505050905090565b60006106ec82610f18565b6004600083815260200190815260200160002060009054906101000a900473ffffffffffffffffffffffffffffffffffffffff169050919050565b6000610732826108c4565b90508073ffffffffffffffffffffffffffffffffffffffff168373ffffffffffffffffffffffffffffffffffffffff16036107a2576040517f08c379a0000000000000000000000000000000000000000000000000000000008152600401610799906124ee565b60405180910390fd5b8073ffffffffffffffffffffffffffffffffffffffff166107c1610f63565b73ffffffffffffffffffffffffffffffffffffffff1614806107f057506107ef816107ea610f63565b610ce8565b5b61082f576040517f08c379a000000000000000000000000000000000000000000000000000000000815260040161082690612580565b60405180910390fd5b6108398383610f6b565b505050565b61084f610849610f63565b82611024565b61088e576040517f08c379a000000000000000000000000000000000000000000000000000000000815260040161088590612612565b60405180910390fd5b6108998383836110b9565b505050565b60085481565b6108bf83838360405180602001604052806000815250610b74565b505050565b6000806002600084815260200190815260200160002060009054906101000a900473ffffffffffffffffffffffffffffffffffffffff169050600073ffffffffffffffffffffffffffffffffffffffff168173ffffffffffffffffffffffffffffffffffffffff160361096c576040517f08c379a00000000000000000000000000000000000000000000000000000000081526004016109639061267e565b60405180910390fd5b80915050919050565b60008073ffffffffffffffffffffffffffffffffffffffff168273ffffffffffffffffffffffffffffffffffffffff16036109e5576040517f08c379a00000000000000000000000000000000000000000000000000000000081526004016109dc90612710565b60405180910390fd5b600360008373ffffffffffffffffffffffffffffffffffffffff1673ffffffffffffffffffffffffffffffffffffffff168152602001908152602001600020549050919050565b610a3461131f565b610a3e600061139d565b565b60096020528060005260406000206000915090508060000160009054906101000a900473ffffffffffffffffffffffffffffffffffffffff16908060010154905082565b610a8c61131f565b8060088190555050565b6000600760009054906101000a900473ffffffffffffffffffffffffffffffffffffffff16905090565b606060018054610acf9061244b565b80601f0160208091040260200160405190810160405280929190818152602001828054610afb9061244b565b8015610b485780601f10610b1d57610100808354040283529160200191610b48565b820191906000526020600020905b815481529060010190602001808311610b2b57829003601f168201915b5050505050905090565b600a8060000154905081565b610b70610b69610f63565b8383611463565b5050565b610b85610b7f610f63565b83611024565b610bc4576040517f08c379a0000000000000000000000000000000000000000000000000000000008152600401610bbb90612612565b60405180910390fd5b610bd0848484846115cf565b50505050565b6060610be182610f18565b6000600660008481526020019081526020016000208054610c019061244b565b80601f0160208091040260200160405190810160405280929190818152602001828054610c2d9061244b565b8015610c7a5780601f10610c4f57610100808354040283529160200191610c7a565b820191906000526020600020905b815481529060010190602001808311610c5d57829003601f168201915b505050505090506000610c8b61162b565b90506000815103610ca0578192505050610ce3565b600082511115610cd5578082604051602001610cbd92919061276c565b60405160208183030381529060405292505050610ce3565b610cde84611642565b925050505b919050565b6000600560008473ffffffffffffffffffffffffffffffffffffffff1673ffffffffffffffffffffffffffffffffffffffff16815260200190815260200160002060008373ffffffffffffffffffffffffffffffffffffffff1673ffffffffffffffffffffffffffffffffffffffff16815260200190815260200160002060009054906101000a900460ff16905092915050565b610d8461131f565b600073ffffffffffffffffffffffffffffffffffffffff168173ffffffffffffffffffffffffffffffffffffffff1603610df3576040517f08c379a0000000000000000000000000000000000000000000000000000000008152600401610dea90612802565b60405180910390fd5b610dfc8161139d565b50565b60007f01ffc9a7000000000000000000000000000000000000000000000000000000007bffffffffffffffffffffffffffffffffffffffffffffffffffffffff1916827bffffffffffffffffffffffffffffffffffffffffffffffffffffffff1916149050919050565b6001816000016000828254019250508190555050565b600081600001549050919050565b610ea78282604051806020016040528060008152506116aa565b5050565b610eb482611705565b610ef3576040517f08c379a0000000000000000000000000000000000000000000000000000000008152600401610eea90612894565b60405180910390fd5b80600660008481526020019081526020016000209081610f139190612a60565b505050565b610f2181611705565b610f60576040517f08c379a0000000000000000000000000000000000000000000000000000000008152600401610f579061267e565b60405180910390fd5b50565b600033905090565b816004600083815260200190815260200160002060006101000a81548173ffffffffffffffffffffffffffffffffffffffff021916908373ffffffffffffffffffffffffffffffffffffffff160217905550808273ffffffffffffffffffffffffffffffffffffffff16610fde836108c4565b73ffffffffffffffffffffffffffffffffffffffff167f8c5be1e5ebec7d5bd14f71427d1e84f3dd0314c0f7b2291e5b200ac8c7c3b92560405160405180910390a45050565b600080611030836108c4565b90508073ffffffffffffffffffffffffffffffffffffffff168473ffffffffffffffffffffffffffffffffffffffff16148061107257506110718185610ce8565b5b806110b057508373ffffffffffffffffffffffffffffffffffffffff16611098846106e1565b73ffffffffffffffffffffffffffffffffffffffff16145b91505092915050565b8273ffffffffffffffffffffffffffffffffffffffff166110d9826108c4565b73ffffffffffffffffffffffffffffffffffffffff161461112f576040517f08c379a000000000000000000000000000000000000000000000000000000000815260040161112690612ba4565b60405180910390fd5b600073ffffffffffffffffffffffffffffffffffffffff168273ffffffffffffffffffffffffffffffffffffffff160361119e576040517f08c379a000000000000000000000000000000000000000000000000000000000815260040161119590612c36565b60405180910390fd5b6111a9838383611771565b6111b4600082610f6b565b6001600360008573ffffffffffffffffffffffffffffffffffffffff1673ffffffffffffffffffffffffffffffffffffffff16815260200190815260200160002060008282546112049190612c85565b925050819055506001600360008473ffffffffffffffffffffffffffffffffffffffff1673ffffffffffffffffffffffffffffffffffffffff168152602001908152602001600020600082825461125b9190612cb9565b92505081905550816002600083815260200190815260200160002060006101000a81548173ffffffffffffffffffffffffffffffffffffffff021916908373ffffffffffffffffffffffffffffffffffffffff160217905550808273ffffffffffffffffffffffffffffffffffffffff168473ffffffffffffffffffffffffffffffffffffffff167fddf252ad1be2c89b69c2b068fc378daa952ba7f163c4a11628f55a4df523b3ef60405160405180910390a461131a838383611776565b505050565b611327610f63565b73ffffffffffffffffffffffffffffffffffffffff16611345610a96565b73ffffffffffffffffffffffffffffffffffffffff161461139b576040517f08c379a000000000000000000000000000000000000000000000000000000000815260040161139290612d39565b60405180910390fd5b565b6000600760009054906101000a900473ffffffffffffffffffffffffffffffffffffffff16905081600760006101000a81548173ffffffffffffffffffffffffffffffffffffffff021916908373ffffffffffffffffffffffffffffffffffffffff1602179055508173ffffffffffffffffffffffffffffffffffffffff168173ffffffffffffffffffffffffffffffffffffffff167f8be0079c531659141344cd1fd0a4f28419497f9722a3daafe3b4186f6b6457e060405160405180910390a35050565b8173ffffffffffffffffffffffffffffffffffffffff168373ffffffffffffffffffffffffffffffffffffffff16036114d1576040517f08c379a00000000000000000000000000000000000000000000000000000000081526004016114c890612da5565b60405180910390fd5b80600560008573ffffffffffffffffffffffffffffffffffffffff1673ffffffffffffffffffffffffffffffffffffffff16815260200190815260200160002060008473ffffffffffffffffffffffffffffffffffffffff1673ffffffffffffffffffffffffffffffffffffffff16815260200190815260200160002060006101000a81548160ff0219169083151502179055508173ffffffffffffffffffffffffffffffffffffffff168373ffffffffffffffffffffffffffffffffffffffff167f17307eab39ab6107e8899845ad3d59bd9653f200f220920489ca2b5937696c31836040516115c29190611d12565b60405180910390a3505050565b6115da8484846110b9565b6115e68484848461177b565b611625576040517f08c379a000000000000000000000000000000000000000000000000000000000815260040161161c90612e37565b60405180910390fd5b50505050565b606060405180602001604052806000815250905090565b606061164d82610f18565b600061165761162b565b9050600081511161167757604051806020016040528060008152506116a2565b8061168184611902565b60405160200161169292919061276c565b6040516020818303038152906040525b915050919050565b6116b48383611a62565b6116c1600084848461177b565b611700576040517f08c379a00000000000000000000000000000000000000000000000000000000081526004016116f790612e37565b60405180910390fd5b505050565b60008073ffffffffffffffffffffffffffffffffffffffff166002600084815260200190815260200160002060009054906101000a900473ffffffffffffffffffffffffffffffffffffffff1673ffffffffffffffffffffffffffffffffffffffff1614159050919050565b505050565b505050565b600061179c8473ffffffffffffffffffffffffffffffffffffffff16611c3b565b156118f5578373ffffffffffffffffffffffffffffffffffffffff1663150b7a026117c5610f63565b8786866040518563ffffffff1660e01b81526004016117e79493929190612eac565b6020604051808303816000875af192505050801561182357506040513d601f19601f820116820180604052508101906118209190612f0d565b60015b6118a5573d8060008114611853576040519150601f19603f3d011682016040523d82523d6000602084013e611858565b606091505b50600081510361189d576040517f08c379a000000000000000000000000000000000000000000000000000000000815260040161189490612e37565b60405180910390fd5b805181602001fd5b63150b7a0260e01b7bffffffffffffffffffffffffffffffffffffffffffffffffffffffff1916817bffffffffffffffffffffffffffffffffffffffffffffffffffffffff1916149150506118fa565b600190505b949350505050565b606060008203611949576040518060400160405280600181526020017f30000000000000000000000000000000000000000000000000000000000000008152509050611a5d565b600082905060005b6000821461197b57808061196490612f3a565b915050600a826119749190612fb1565b9150611951565b60008167ffffffffffffffff81111561199757611996611d48565b5b6040519080825280601f01601f1916602001820160405280156119c95781602001600182028036833780820191505090505b5090505b60008514611a56576001826119e29190612c85565b9150600a856119f19190612fe2565b60306119fd9190612cb9565b60f81b818381518110611a1357611a12613013565b5b60200101907effffffffffffffffffffffffffffffffffffffffffffffffffffffffffffff1916908160001a905350600a85611a4f9190612fb1565b94506119cd565b8093505050505b919050565b600073ffffffffffffffffffffffffffffffffffffffff168273ffffffffffffffffffffffffffffffffffffffff1603611ad1576040517f08c379a0000000000000000000000000000000000000000000000000000000008152600401611ac89061308e565b60405180910390fd5b611ada81611705565b15611b1a576040517f08c379a0000000000000000000000000000000000000000000000000000000008152600401611b11906130fa565b60405180910390fd5b611b2660008383611771565b6001600360008473ffffffffffffffffffffffffffffffffffffffff1673ffffffffffffffffffffffffffffffffffffffff1681526020019081526020016000206000828254611b769190612cb9565b92505081905550816002600083815260200190815260200160002060006101000a81548173ffffffffffffffffffffffffffffffffffffffff021916908373ffffffffffffffffffffffffffffffffffffffff160217905550808273ffffffffffffffffffffffffffffffffffffffff16600073ffffffffffffffffffffffffffffffffffffffff167fddf252ad1be2c89b69c2b068fc378daa952ba7f163c4a11628f55a4df523b3ef60405160405180910390a4611c3760008383611776565b5050565b6000808273ffffffffffffffffffffffffffffffffffffffff163b119050919050565b6000604051905090565b600080fd5b600080fd5b60007fffffffff0000000000000000000000000000000000000000000000000000000082169050919050565b611ca781611c72565b8114611cb257600080fd5b50565b600081359050611cc481611c9e565b92915050565b600060208284031215611ce057611cdf611c68565b5b6000611cee84828501611cb5565b91505092915050565b60008115159050919050565b611d0c81611cf7565b82525050565b6000602082019050611d276000830184611d03565b92915050565b600080fd5b600080fd5b6000601f19601f8301169050919050565b7f4e487b7100000000000000000000000000000000000000000000000000000000600052604160045260246000fd5b611d8082611d37565b810181811067ffffffffffffffff82111715611d9f57611d9e611d48565b5b80604052505050565b6000611db2611c5e565b9050611dbe8282611d77565b919050565b600067ffffffffffffffff821115611dde57611ddd611d48565b5b611de782611d37565b9050602081019050919050565b82818337600083830152505050565b6000611e16611e1184611dc3565b611da8565b905082815260208101848484011115611e3257611e31611d32565b5b611e3d848285611df4565b509392505050565b600082601f830112611e5a57611e59611d2d565b5b8135611e6a848260208601611e03565b91505092915050565b6000819050919050565b611e8681611e73565b8114611e9157600080fd5b50565b600081359050611ea381611e7d565b92915050565b60008060408385031215611ec057611ebf611c68565b5b600083013567ffffffffffffffff811115611ede57611edd611c6d565b5b611eea85828601611e45565b9250506020611efb85828601611e94565b9150509250929050565b611f0e81611e73565b82525050565b6000602082019050611f296000830184611f05565b92915050565b600081519050919050565b600082825260208201905092915050565b60005b83811015611f69578082015181840152602081019050611f4e565b60008484015250505050565b6000611f8082611f2f565b611f8a8185611f3a565b9350611f9a818560208601611f4b565b611fa381611d37565b840191505092915050565b60006020820190508181036000830152611fc88184611f75565b905092915050565b600060208284031215611fe657611fe5611c68565b5b6000611ff484828501611e94565b91505092915050565b600073ffffffffffffffffffffffffffffffffffffffff82169050919050565b600061202882611ffd565b9050919050565b6120388161201d565b82525050565b6000602082019050612053600083018461202f565b92915050565b6120628161201d565b811461206d57600080fd5b50565b60008135905061207f81612059565b92915050565b6000806040838503121561209c5761209b611c68565b5b60006120aa85828601612070565b92505060206120bb85828601611e94565b9150509250929050565b6000806000606084860312156120de576120dd611c68565b5b60006120ec86828701612070565b93505060206120fd86828701612070565b925050604061210e86828701611e94565b9150509250925092565b60006020828403121561212e5761212d611c68565b5b600061213c84828501612070565b91505092915050565b600060408201905061215a600083018561202f565b6121676020830184611f05565b9392505050565b61217781611cf7565b811461218257600080fd5b50565b6000813590506121948161216e565b92915050565b600080604083850312156121b1576121b0611c68565b5b60006121bf85828601612070565b92505060206121d085828601612185565b9150509250929050565b600067ffffffffffffffff8211156121f5576121f4611d48565b5b6121fe82611d37565b9050602081019050919050565b600061221e612219846121da565b611da8565b90508281526020810184848401111561223a57612239611d32565b5b612245848285611df4565b509392505050565b600082601f83011261226257612261611d2d565b5b813561227284826020860161220b565b91505092915050565b6000806000806080858703121561229557612294611c68565b5b60006122a387828801612070565b94505060206122b487828801612070565b93505060406122c587828801611e94565b925050606085013567ffffffffffffffff8111156122e6576122e5611c6d565b5b6122f28782880161224d565b91505092959194509250565b6000806040838503121561231557612314611c68565b5b600061232385828601612070565b925050602061233485828601612070565b9150509250929050565b7f526f79616c746965732070657263656e7461676520657863656564732074686560008201527f206d6178696d756d2076616c7565210000000000000000000000000000000000602082015250565b600061239a602f83611f3a565b91506123a58261233e565b604082019050919050565b600060208201905081810360008301526123c98161238d565b9050919050565b60006080820190506123e56000830187611f05565b6123f2602083018661202f565b81810360408301526124048185611f75565b90506124136060830184611f05565b95945050505050565b7f4e487b7100000000000000000000000000000000000000000000000000000000600052602260045260246000fd5b6000600282049050600182168061246357607f821691505b6020821081036124765761247561241c565b5b50919050565b7f4552433732313a20617070726f76616c20746f2063757272656e74206f776e6560008201527f7200000000000000000000000000000000000000000000000000000000000000602082015250565b60006124d8602183611f3a565b91506124e38261247c565b604082019050919050565b60006020820190508181036000830152612507816124cb565b9050919050565b7f4552433732313a20617070726f76652063616c6c6572206973206e6f7420746f60008201527f6b656e206f776e6572206e6f7220617070726f76656420666f7220616c6c0000602082015250565b600061256a603e83611f3a565b91506125758261250e565b604082019050919050565b600060208201905081810360008301526125998161255d565b9050919050565b7f4552433732313a2063616c6c6572206973206e6f7420746f6b656e206f776e6560008201527f72206e6f7220617070726f766564000000000000000000000000000000000000602082015250565b60006125fc602e83611f3a565b9150612607826125a0565b604082019050919050565b6000602082019050818103600083015261262b816125ef565b9050919050565b7f4552433732313a20696e76616c696420746f6b656e2049440000000000000000600082015250565b6000612668601883611f3a565b915061267382612632565b602082019050919050565b600060208201905081810360008301526126978161265b565b9050919050565b7f4552433732313a2061646472657373207a65726f206973206e6f74206120766160008201527f6c6964206f776e65720000000000000000000000000000000000000000000000602082015250565b60006126fa602983611f3a565b91506127058261269e565b604082019050919050565b60006020820190508181036000830152612729816126ed565b9050919050565b600081905092915050565b600061274682611f2f565b6127508185612730565b9350612760818560208601611f4b565b80840191505092915050565b6000612778828561273b565b9150612784828461273b565b91508190509392505050565b7f4f776e61626c653a206e6577206f776e657220697320746865207a65726f206160008201527f6464726573730000000000000000000000000000000000000000000000000000602082015250565b60006127ec602683611f3a565b91506127f782612790565b604082019050919050565b6000602082019050818103600083015261281b816127df565b9050919050565b7f45524337323155524953746f726167653a2055524920736574206f66206e6f6e60008201527f6578697374656e7420746f6b656e000000000000000000000000000000000000602082015250565b600061287e602e83611f3a565b915061288982612822565b604082019050919050565b600060208201905081810360008301526128ad81612871565b9050919050565b60008190508160005260206000209050919050565b60006020601f8301049050919050565b600082821b905092915050565b6000600883026129167fffffffffffffffffffffffffffffffffffffffffffffffffffffffffffffffff826128d9565b61292086836128d9565b95508019841693508086168417925050509392505050565b6000819050919050565b600061295d61295861295384611e73565b612938565b611e73565b9050919050565b6000819050919050565b61297783612942565b61298b61298382612964565b8484546128e6565b825550505050565b600090565b6129a0612993565b6129ab81848461296e565b505050565b5b818110156129cf576129c4600082612998565b6001810190506129b1565b5050565b601f821115612a14576129e5816128b4565b6129ee846128c9565b810160208510156129fd578190505b612a11612a09856128c9565b8301826129b0565b50505b505050565b600082821c905092915050565b6000612a3760001984600802612a19565b1980831691505092915050565b6000612a508383612a26565b9150826002028217905092915050565b612a6982611f2f565b67ffffffffffffffff811115612a8257612a81611d48565b5b612a8c825461244b565b612a978282856129d3565b600060209050601f831160018114612aca5760008415612ab8578287015190505b612ac28582612a44565b865550612b2a565b601f198416612ad8866128b4565b60005b82811015612b0057848901518255600182019150602085019450602081019050612adb565b86831015612b1d5784890151612b19601f891682612a26565b8355505b6001600288020188555050505b505050505050565b7f4552433732313a207472616e736665722066726f6d20696e636f72726563742060008201527f6f776e6572000000000000000000000000000000000000000000000000000000602082015250565b6000612b8e602583611f3a565b9150612b9982612b32565b604082019050919050565b60006020820190508181036000830152612bbd81612b81565b9050919050565b7f4552433732313a207472616e7366657220746f20746865207a65726f2061646460008201527f7265737300000000000000000000000000000000000000000000000000000000602082015250565b6000612c20602483611f3a565b9150612c2b82612bc4565b604082019050919050565b60006020820190508181036000830152612c4f81612c13565b9050919050565b7f4e487b7100000000000000000000000000000000000000000000000000000000600052601160045260246000fd5b6000612c9082611e73565b9150612c9b83611e73565b9250828203905081811115612cb357612cb2612c56565b5b92915050565b6000612cc482611e73565b9150612ccf83611e73565b9250828201905080821115612ce757612ce6612c56565b5b92915050565b7f4f776e61626c653a2063616c6c6572206973206e6f7420746865206f776e6572600082015250565b6000612d23602083611f3a565b9150612d2e82612ced565b602082019050919050565b60006020820190508181036000830152612d5281612d16565b9050919050565b7f4552433732313a20617070726f766520746f2063616c6c657200000000000000600082015250565b6000612d8f601983611f3a565b9150612d9a82612d59565b602082019050919050565b60006020820190508181036000830152612dbe81612d82565b9050919050565b7f4552433732313a207472616e7366657220746f206e6f6e20455243373231526560008201527f63656976657220696d706c656d656e7465720000000000000000000000000000602082015250565b6000612e21603283611f3a565b9150612e2c82612dc5565b604082019050919050565b60006020820190508181036000830152612e5081612e14565b9050919050565b600081519050919050565b600082825260208201905092915050565b6000612e7e82612e57565b612e888185612e62565b9350612e98818560208601611f4b565b612ea181611d37565b840191505092915050565b6000608082019050612ec1600083018761202f565b612ece602083018661202f565b612edb6040830185611f05565b8181036060830152612eed8184612e73565b905095945050505050565b600081519050612f0781611c9e565b92915050565b600060208284031215612f2357612f22611c68565b5b6000612f3184828501612ef8565b91505092915050565b6000612f4582611e73565b91507fffffffffffffffffffffffffffffffffffffffffffffffffffffffffffffffff8203612f7757612f76612c56565b5b600182019050919050565b7f4e487b7100000000000000000000000000000000000000000000000000000000600052601260045260246000fd5b6000612fbc82611e73565b9150612fc783611e73565b925082612fd757612fd6612f82565b5b828204905092915050565b6000612fed82611e73565b9150612ff883611e73565b92508261300857613007612f82565b5b828206905092915050565b7f4e487b7100000000000000000000000000000000000000000000000000000000600052603260045260246000fd5b7f4552433732313a206d696e7420746f20746865207a65726f2061646472657373600082015250565b6000613078602083611f3a565b915061308382613042565b602082019050919050565b600060208201905081810360008301526130a78161306b565b9050919050565b7f4552433732313a20746f6b656e20616c7265616479206d696e74656400000000600082015250565b60006130e4601c83611f3a565b91506130ef826130ae565b602082019050919050565b60006020820190508181036000830152613113816130d7565b905091905056fea2646970667358221220587e4fee2c63d14646711e30a9531ba040fa59732e5d66c88b93bae836e96f4264736f6c63430008100033",
  "linkReferences": {},
  "deployedLinkReferences": {}
}