{
  "_format": "hh-sol-artifact-1",
  "contractName": "LedaNFT",
  "sourceName": "contracts/LedaNFT.sol",
  "abi": [
    {
      "inputs": [
        {
          "internalType": "string",
          "name": "_name",
          "type": "string"
        },
        {
          "internalType": "string",
          "name": "_symbol",
          "type": "string"
        }
      ],
      "stateMutability": "nonpayable",
      "type": "constructor"
    },
    {
      "anonymous": false,
      "inputs": [
        {
          "indexed": true,
          "internalType": "address",
          "name": "owner",
          "type": "address"
        },
        {
          "indexed": true,
          "internalType": "address",
          "name": "approved",
          "type": "address"
        },
        {
          "indexed": true,
          "internalType": "uint256",
          "name": "tokenId",
          "type": "uint256"
        }
      ],
      "name": "Approval",
      "type": "event"
    },
    {
      "anonymous": false,
      "inputs": [
        {
          "indexed": true,
          "internalType": "address",
          "name": "owner",
          "type": "address"
        },
        {
          "indexed": true,
          "internalType": "address",
          "name": "operator",
          "type": "address"
        },
        {
          "indexed": false,
          "internalType": "bool",
          "name": "approved",
          "type": "bool"
        }
      ],
      "name": "ApprovalForAll",
      "type": "event"
    },
    {
      "anonymous": false,
      "inputs": [
        {
          "indexed": false,
          "internalType": "uint256",
          "name": "_nftId",
          "type": "uint256"
        },
        {
          "indexed": false,
          "internalType": "address",
          "name": "_owner",
          "type": "address"
        },
        {
          "indexed": false,
          "internalType": "string",
          "name": "_nftURI",
          "type": "string"
        },
        {
          "indexed": false,
          "internalType": "uint256",
          "name": "_royalties",
          "type": "uint256"
        }
      ],
      "name": "LogNFTMinted",
      "type": "event"
    },
    {
      "anonymous": false,
      "inputs": [
        {
          "indexed": true,
          "internalType": "address",
          "name": "previousOwner",
          "type": "address"
        },
        {
          "indexed": true,
          "internalType": "address",
          "name": "newOwner",
          "type": "address"
        }
      ],
      "name": "OwnershipTransferred",
      "type": "event"
    },
    {
      "anonymous": false,
      "inputs": [
        {
          "indexed": false,
          "internalType": "address",
          "name": "account",
          "type": "address"
        }
      ],
      "name": "Paused",
      "type": "event"
    },
    {
      "anonymous": false,
      "inputs": [
        {
          "indexed": true,
          "internalType": "address",
          "name": "from",
          "type": "address"
        },
        {
          "indexed": true,
          "internalType": "address",
          "name": "to",
          "type": "address"
        },
        {
          "indexed": true,
          "internalType": "uint256",
          "name": "tokenId",
          "type": "uint256"
        }
      ],
      "name": "Transfer",
      "type": "event"
    },
    {
      "anonymous": false,
      "inputs": [
        {
          "indexed": false,
          "internalType": "address",
          "name": "account",
          "type": "address"
        }
      ],
      "name": "Unpaused",
      "type": "event"
    },
    {
      "inputs": [
        {
          "internalType": "address",
          "name": "to",
          "type": "address"
        },
        {
          "internalType": "uint256",
          "name": "tokenId",
          "type": "uint256"
        }
      ],
      "name": "approve",
      "outputs": [],
      "stateMutability": "nonpayable",
      "type": "function"
    },
    {
      "inputs": [
        {
          "internalType": "address",
          "name": "owner",
          "type": "address"
        }
      ],
      "name": "balanceOf",
      "outputs": [
        {
          "internalType": "uint256",
          "name": "",
          "type": "uint256"
        }
      ],
      "stateMutability": "view",
      "type": "function"
    },
    {
      "inputs": [
        {
          "internalType": "uint256",
          "name": "",
          "type": "uint256"
        }
      ],
      "name": "creatorInfo",
      "outputs": [
        {
          "internalType": "address",
          "name": "creator",
          "type": "address"
        },
        {
          "internalType": "uint256",
          "name": "royalties",
          "type": "uint256"
        }
      ],
      "stateMutability": "view",
      "type": "function"
    },
    {
      "inputs": [
        {
          "internalType": "uint256",
          "name": "tokenId",
          "type": "uint256"
        }
      ],
      "name": "getApproved",
      "outputs": [
        {
          "internalType": "address",
          "name": "",
          "type": "address"
        }
      ],
      "stateMutability": "view",
      "type": "function"
    },
    {
      "inputs": [
        {
          "internalType": "address",
          "name": "owner",
          "type": "address"
        },
        {
          "internalType": "address",
          "name": "operator",
          "type": "address"
        }
      ],
      "name": "isApprovedForAll",
      "outputs": [
        {
          "internalType": "bool",
          "name": "",
          "type": "bool"
        }
      ],
      "stateMutability": "view",
      "type": "function"
    },
    {
      "inputs": [],
      "name": "maxCreatorRoyalties",
      "outputs": [
        {
          "internalType": "uint256",
          "name": "",
          "type": "uint256"
        }
      ],
      "stateMutability": "view",
      "type": "function"
    },
    {
      "inputs": [
        {
          "internalType": "string",
          "name": "_tokenURI",
          "type": "string"
        },
        {
          "internalType": "uint256",
          "name": "_royaltiesPercentage",
          "type": "uint256"
        }
      ],
      "name": "mint",
      "outputs": [
        {
          "internalType": "uint256",
          "name": "",
          "type": "uint256"
        }
      ],
      "stateMutability": "nonpayable",
      "type": "function"
    },
    {
      "inputs": [],
      "name": "name",
      "outputs": [
        {
          "internalType": "string",
          "name": "",
          "type": "string"
        }
      ],
      "stateMutability": "view",
      "type": "function"
    },
    {
      "inputs": [],
      "name": "owner",
      "outputs": [
        {
          "internalType": "address",
          "name": "",
          "type": "address"
        }
      ],
      "stateMutability": "view",
      "type": "function"
    },
    {
      "inputs": [
        {
          "internalType": "uint256",
          "name": "tokenId",
          "type": "uint256"
        }
      ],
      "name": "ownerOf",
      "outputs": [
        {
          "internalType": "address",
          "name": "",
          "type": "address"
        }
      ],
      "stateMutability": "view",
      "type": "function"
    },
    {
      "inputs": [],
      "name": "pause",
      "outputs": [],
      "stateMutability": "nonpayable",
      "type": "function"
    },
    {
      "inputs": [],
      "name": "paused",
      "outputs": [
        {
          "internalType": "bool",
          "name": "",
          "type": "bool"
        }
      ],
      "stateMutability": "view",
      "type": "function"
    },
    {
      "inputs": [],
      "name": "renounceOwnership",
      "outputs": [],
      "stateMutability": "nonpayable",
      "type": "function"
    },
    {
      "inputs": [
        {
          "internalType": "address",
          "name": "from",
          "type": "address"
        },
        {
          "internalType": "address",
          "name": "to",
          "type": "address"
        },
        {
          "internalType": "uint256",
          "name": "tokenId",
          "type": "uint256"
        }
      ],
      "name": "safeTransferFrom",
      "outputs": [],
      "stateMutability": "nonpayable",
      "type": "function"
    },
    {
      "inputs": [
        {
          "internalType": "address",
          "name": "from",
          "type": "address"
        },
        {
          "internalType": "address",
          "name": "to",
          "type": "address"
        },
        {
          "internalType": "uint256",
          "name": "tokenId",
          "type": "uint256"
        },
        {
          "internalType": "bytes",
          "name": "data",
          "type": "bytes"
        }
      ],
      "name": "safeTransferFrom",
      "outputs": [],
      "stateMutability": "nonpayable",
      "type": "function"
    },
    {
      "inputs": [
        {
          "internalType": "address",
          "name": "operator",
          "type": "address"
        },
        {
          "internalType": "bool",
          "name": "approved",
          "type": "bool"
        }
      ],
      "name": "setApprovalForAll",
      "outputs": [],
      "stateMutability": "nonpayable",
      "type": "function"
    },
    {
      "inputs": [
        {
          "internalType": "uint256",
          "name": "_maxCreatorRoyalties",
          "type": "uint256"
        }
      ],
      "name": "setMaxCreatorRoyalties",
      "outputs": [],
      "stateMutability": "nonpayable",
      "type": "function"
    },
    {
      "inputs": [
        {
          "internalType": "bytes4",
          "name": "interfaceId",
          "type": "bytes4"
        }
      ],
      "name": "supportsInterface",
      "outputs": [
        {
          "internalType": "bool",
          "name": "",
          "type": "bool"
        }
      ],
      "stateMutability": "view",
      "type": "function"
    },
    {
      "inputs": [],
      "name": "symbol",
      "outputs": [
        {
          "internalType": "string",
          "name": "",
          "type": "string"
        }
      ],
      "stateMutability": "view",
      "type": "function"
    },
    {
      "inputs": [
        {
          "internalType": "uint256",
          "name": "index",
          "type": "uint256"
        }
      ],
      "name": "tokenByIndex",
      "outputs": [
        {
          "internalType": "uint256",
          "name": "",
          "type": "uint256"
        }
      ],
      "stateMutability": "view",
      "type": "function"
    },
    {
      "inputs": [
        {
          "internalType": "address",
          "name": "owner",
          "type": "address"
        },
        {
          "internalType": "uint256",
          "name": "index",
          "type": "uint256"
        }
      ],
      "name": "tokenOfOwnerByIndex",
      "outputs": [
        {
          "internalType": "uint256",
          "name": "",
          "type": "uint256"
        }
      ],
      "stateMutability": "view",
      "type": "function"
    },
    {
      "inputs": [
        {
          "internalType": "uint256",
          "name": "tokenId",
          "type": "uint256"
        }
      ],
      "name": "tokenURI",
      "outputs": [
        {
          "internalType": "string",
          "name": "",
          "type": "string"
        }
      ],
      "stateMutability": "view",
      "type": "function"
    },
    {
      "inputs": [],
      "name": "totalSupply",
      "outputs": [
        {
          "internalType": "uint256",
          "name": "",
          "type": "uint256"
        }
      ],
      "stateMutability": "view",
      "type": "function"
    },
    {
      "inputs": [
        {
          "internalType": "address",
          "name": "from",
          "type": "address"
        },
        {
          "internalType": "address",
          "name": "to",
          "type": "address"
        },
        {
          "internalType": "uint256",
          "name": "tokenId",
          "type": "uint256"
        }
      ],
      "name": "transferFrom",
      "outputs": [],
      "stateMutability": "nonpayable",
      "type": "function"
    },
    {
      "inputs": [
        {
          "internalType": "address",
          "name": "newOwner",
          "type": "address"
        }
      ],
      "name": "transferOwnership",
      "outputs": [],
      "stateMutability": "nonpayable",
      "type": "function"
    },
    {
      "inputs": [],
      "name": "unpause",
      "outputs": [],
      "stateMutability": "nonpayable",
      "type": "function"
    }
  ],
  "bytecode": "0x60806040523480156200001157600080fd5b50604051620042af380380620042af83398181016040528101906200003791906200030b565b818181600090816200004a9190620005db565b5080600190816200005c9190620005db565b5050506000600b60006101000a81548160ff0219169083151502179055506200009a6200008e620000aa60201b60201c565b620000b260201b60201c565b600a600d819055505050620006c2565b600033905090565b6000600b60019054906101000a900473ffffffffffffffffffffffffffffffffffffffff16905081600b60016101000a81548173ffffffffffffffffffffffffffffffffffffffff021916908373ffffffffffffffffffffffffffffffffffffffff1602179055508173ffffffffffffffffffffffffffffffffffffffff168173ffffffffffffffffffffffffffffffffffffffff167f8be0079c531659141344cd1fd0a4f28419497f9722a3daafe3b4186f6b6457e060405160405180910390a35050565b6000604051905090565b600080fd5b600080fd5b600080fd5b600080fd5b6000601f19601f8301169050919050565b7f4e487b7100000000000000000000000000000000000000000000000000000000600052604160045260246000fd5b620001e18262000196565b810181811067ffffffffffffffff82111715620002035762000202620001a7565b5b80604052505050565b60006200021862000178565b9050620002268282620001d6565b919050565b600067ffffffffffffffff821115620002495762000248620001a7565b5b620002548262000196565b9050602081019050919050565b60005b838110156200028157808201518184015260208101905062000264565b60008484015250505050565b6000620002a46200029e846200022b565b6200020c565b905082815260208101848484011115620002c357620002c262000191565b5b620002d084828562000261565b509392505050565b600082601f830112620002f057620002ef6200018c565b5b8151620003028482602086016200028d565b91505092915050565b6000806040838503121562000325576200032462000182565b5b600083015167ffffffffffffffff81111562000346576200034562000187565b5b6200035485828601620002d8565b925050602083015167ffffffffffffffff81111562000378576200037762000187565b5b6200038685828601620002d8565b9150509250929050565b600081519050919050565b7f4e487b7100000000000000000000000000000000000000000000000000000000600052602260045260246000fd5b60006002820490506001821680620003e357607f821691505b602082108103620003f957620003f86200039b565b5b50919050565b60008190508160005260206000209050919050565b60006020601f8301049050919050565b600082821b905092915050565b600060088302620004637fffffffffffffffffffffffffffffffffffffffffffffffffffffffffffffffff8262000424565b6200046f868362000424565b95508019841693508086168417925050509392505050565b6000819050919050565b6000819050919050565b6000620004bc620004b6620004b08462000487565b62000491565b62000487565b9050919050565b6000819050919050565b620004d8836200049b565b620004f0620004e782620004c3565b84845462000431565b825550505050565b600090565b62000507620004f8565b62000514818484620004cd565b505050565b5b818110156200053c5762000530600082620004fd565b6001810190506200051a565b5050565b601f8211156200058b576200055581620003ff565b620005608462000414565b8101602085101562000570578190505b620005886200057f8562000414565b83018262000519565b50505b505050565b600082821c905092915050565b6000620005b06000198460080262000590565b1980831691505092915050565b6000620005cb83836200059d565b9150826002028217905092915050565b620005e68262000390565b67ffffffffffffffff811115620006025762000601620001a7565b5b6200060e8254620003ca565b6200061b82828562000540565b600060209050601f8311600181146200065357600084156200063e578287015190505b6200064a8582620005bd565b865550620006ba565b601f1984166200066386620003ff565b60005b828110156200068d5784890151825560018201915060208501945060208101905062000666565b86831015620006ad5784890151620006a9601f8916826200059d565b8355505b6001600288020188555050505b505050505050565b613bdd80620006d26000396000f3fe608060405234801561001057600080fd5b506004361061018e5760003560e01c80636352211e116100de5780638da5cb5b11610097578063b88d4fde11610071578063b88d4fde14610472578063c87b56dd1461048e578063e985e9c5146104be578063f2fde38b146104ee5761018e565b80638da5cb5b1461041a57806395d89b4114610438578063a22cb465146104565761018e565b80636352211e1461035957806370a0823114610389578063715018a6146103b957806378b0a24e146103c35780637e554ba0146103f45780638456cb59146104105761018e565b806323b872dd1161014b5780633fb4b693116101255780633fb4b693146102d157806342842e0e146102ef5780634f6ccce71461030b5780635c975abb1461033b5761018e565b806323b872dd1461027b5780632f745c59146102975780633f4ba83a146102c75761018e565b806301ffc9a714610193578063056b01ce146101c357806306fdde03146101f3578063081812fc14610211578063095ea7b31461024157806318160ddd1461025d575b600080fd5b6101ad60048036038101906101a8919061252c565b61050a565b6040516101ba9190612574565b60405180910390f35b6101dd60048036038101906101d8919061270b565b61051c565b6040516101ea9190612776565b60405180910390f35b6101fb610668565b6040516102089190612810565b60405180910390f35b61022b60048036038101906102269190612832565b6106fa565b60405161023891906128a0565b60405180910390f35b61025b600480360381019061025691906128e7565b610740565b005b610265610857565b6040516102729190612776565b60405180910390f35b61029560048036038101906102909190612927565b610864565b005b6102b160048036038101906102ac91906128e7565b6108c4565b6040516102be9190612776565b60405180910390f35b6102cf610969565b005b6102d961097b565b6040516102e69190612776565b60405180910390f35b61030960048036038101906103049190612927565b610981565b005b61032560048036038101906103209190612832565b6109a1565b6040516103329190612776565b60405180910390f35b610343610a12565b6040516103509190612574565b60405180910390f35b610373600480360381019061036e9190612832565b610a29565b60405161038091906128a0565b60405180910390f35b6103a3600480360381019061039e919061297a565b610ada565b6040516103b09190612776565b60405180910390f35b6103c1610b91565b005b6103dd60048036038101906103d89190612832565b610ba5565b6040516103eb9291906129a7565b60405180910390f35b61040e60048036038101906104099190612832565b610be9565b005b610418610bfb565b005b610422610c0d565b60405161042f91906128a0565b60405180910390f35b610440610c37565b60405161044d9190612810565b60405180910390f35b610470600480360381019061046b91906129fc565b610cc9565b005b61048c60048036038101906104879190612add565b610cdf565b005b6104a860048036038101906104a39190612832565b610d41565b6040516104b59190612810565b60405180910390f35b6104d860048036038101906104d39190612b60565b610d53565b6040516104e59190612574565b60405180910390f35b6105086004803603810190610503919061297a565b610de7565b005b600061051582610e6a565b9050919050565b6000600d54821115610563576040517f08c379a000000000000000000000000000000000000000000000000000000000815260040161055a90612c12565b60405180910390fd5b61056d600c610ee4565b6000610579600c610efa565b90506105853382610f08565b61058f8185610f26565b60405180604001604052803373ffffffffffffffffffffffffffffffffffffffff16815260200184815250600e600083815260200190815260200160002060008201518160000160006101000a81548173ffffffffffffffffffffffffffffffffffffffff021916908373ffffffffffffffffffffffffffffffffffffffff160217905550602082015181600101559050507f0a87c421f7b51fcf9008064b31bb04f137ea9ec7c7a7d2dca02ae6380ef2a914813386866040516106569493929190612c32565b60405180910390a18091505092915050565b60606000805461067790612cad565b80601f01602080910402602001604051908101604052809291908181526020018280546106a390612cad565b80156106f05780601f106106c5576101008083540402835291602001916106f0565b820191906000526020600020905b8154815290600101906020018083116106d357829003601f168201915b5050505050905090565b600061070582610f93565b6004600083815260200190815260200160002060009054906101000a900473ffffffffffffffffffffffffffffffffffffffff169050919050565b600061074b82610a29565b90508073ffffffffffffffffffffffffffffffffffffffff168373ffffffffffffffffffffffffffffffffffffffff16036107bb576040517f08c379a00000000000000000000000000000000000000000000000000000000081526004016107b290612d50565b60405180910390fd5b8073ffffffffffffffffffffffffffffffffffffffff166107da610fde565b73ffffffffffffffffffffffffffffffffffffffff161480610809575061080881610803610fde565b610d53565b5b610848576040517f08c379a000000000000000000000000000000000000000000000000000000000815260040161083f90612de2565b60405180910390fd5b6108528383610fe6565b505050565b6000600880549050905090565b61087561086f610fde565b8261109f565b6108b4576040517f08c379a00000000000000000000000000000000000000000000000000000000081526004016108ab90612e74565b60405180910390fd5b6108bf838383611134565b505050565b60006108cf83610ada565b8210610910576040517f08c379a000000000000000000000000000000000000000000000000000000000815260040161090790612f06565b60405180910390fd5b600660008473ffffffffffffffffffffffffffffffffffffffff1673ffffffffffffffffffffffffffffffffffffffff168152602001908152602001600020600083815260200190815260200160002054905092915050565b61097161139a565b610979611418565b565b600d5481565b61099c83838360405180602001604052806000815250610cdf565b505050565b60006109ab610857565b82106109ec576040517f08c379a00000000000000000000000000000000000000000000000000000000081526004016109e390612f98565b60405180910390fd5b60088281548110610a00576109ff612fb8565b5b90600052602060002001549050919050565b6000600b60009054906101000a900460ff16905090565b6000806002600084815260200190815260200160002060009054906101000a900473ffffffffffffffffffffffffffffffffffffffff169050600073ffffffffffffffffffffffffffffffffffffffff168173ffffffffffffffffffffffffffffffffffffffff1603610ad1576040517f08c379a0000000000000000000000000000000000000000000000000000000008152600401610ac890613033565b60405180910390fd5b80915050919050565b60008073ffffffffffffffffffffffffffffffffffffffff168273ffffffffffffffffffffffffffffffffffffffff1603610b4a576040517f08c379a0000000000000000000000000000000000000000000000000000000008152600401610b41906130c5565b60405180910390fd5b600360008373ffffffffffffffffffffffffffffffffffffffff1673ffffffffffffffffffffffffffffffffffffffff168152602001908152602001600020549050919050565b610b9961139a565b610ba3600061147b565b565b600e6020528060005260406000206000915090508060000160009054906101000a900473ffffffffffffffffffffffffffffffffffffffff16908060010154905082565b610bf161139a565b80600d8190555050565b610c0361139a565b610c0b611541565b565b6000600b60019054906101000a900473ffffffffffffffffffffffffffffffffffffffff16905090565b606060018054610c4690612cad565b80601f0160208091040260200160405190810160405280929190818152602001828054610c7290612cad565b8015610cbf5780601f10610c9457610100808354040283529160200191610cbf565b820191906000526020600020905b815481529060010190602001808311610ca257829003601f168201915b5050505050905090565b610cdb610cd4610fde565b83836115a4565b5050565b610cf0610cea610fde565b8361109f565b610d2f576040517f08c379a0000000000000000000000000000000000000000000000000000000008152600401610d2690612e74565b60405180910390fd5b610d3b84848484611710565b50505050565b6060610d4c8261176c565b9050919050565b6000600560008473ffffffffffffffffffffffffffffffffffffffff1673ffffffffffffffffffffffffffffffffffffffff16815260200190815260200160002060008373ffffffffffffffffffffffffffffffffffffffff1673ffffffffffffffffffffffffffffffffffffffff16815260200190815260200160002060009054906101000a900460ff16905092915050565b610def61139a565b600073ffffffffffffffffffffffffffffffffffffffff168173ffffffffffffffffffffffffffffffffffffffff1603610e5e576040517f08c379a0000000000000000000000000000000000000000000000000000000008152600401610e5590613157565b60405180910390fd5b610e678161147b565b50565b60007f780e9d63000000000000000000000000000000000000000000000000000000007bffffffffffffffffffffffffffffffffffffffffffffffffffffffff1916827bffffffffffffffffffffffffffffffffffffffffffffffffffffffff19161480610edd5750610edc8261187e565b5b9050919050565b6001816000016000828254019250508190555050565b600081600001549050919050565b610f22828260405180602001604052806000815250611960565b5050565b610f2f826119bb565b610f6e576040517f08c379a0000000000000000000000000000000000000000000000000000000008152600401610f65906131e9565b60405180910390fd5b80600a60008481526020019081526020016000209081610f8e91906133b5565b505050565b610f9c816119bb565b610fdb576040517f08c379a0000000000000000000000000000000000000000000000000000000008152600401610fd290613033565b60405180910390fd5b50565b600033905090565b816004600083815260200190815260200160002060006101000a81548173ffffffffffffffffffffffffffffffffffffffff021916908373ffffffffffffffffffffffffffffffffffffffff160217905550808273ffffffffffffffffffffffffffffffffffffffff1661105983610a29565b73ffffffffffffffffffffffffffffffffffffffff167f8c5be1e5ebec7d5bd14f71427d1e84f3dd0314c0f7b2291e5b200ac8c7c3b92560405160405180910390a45050565b6000806110ab83610a29565b90508073ffffffffffffffffffffffffffffffffffffffff168473ffffffffffffffffffffffffffffffffffffffff1614806110ed57506110ec8185610d53565b5b8061112b57508373ffffffffffffffffffffffffffffffffffffffff16611113846106fa565b73ffffffffffffffffffffffffffffffffffffffff16145b91505092915050565b8273ffffffffffffffffffffffffffffffffffffffff1661115482610a29565b73ffffffffffffffffffffffffffffffffffffffff16146111aa576040517f08c379a00000000000000000000000000000000000000000000000000000000081526004016111a1906134f9565b60405180910390fd5b600073ffffffffffffffffffffffffffffffffffffffff168273ffffffffffffffffffffffffffffffffffffffff1603611219576040517f08c379a00000000000000000000000000000000000000000000000000000000081526004016112109061358b565b60405180910390fd5b611224838383611a27565b61122f600082610fe6565b6001600360008573ffffffffffffffffffffffffffffffffffffffff1673ffffffffffffffffffffffffffffffffffffffff168152602001908152602001600020600082825461127f91906135da565b925050819055506001600360008473ffffffffffffffffffffffffffffffffffffffff1673ffffffffffffffffffffffffffffffffffffffff16815260200190815260200160002060008282546112d6919061360e565b92505081905550816002600083815260200190815260200160002060006101000a81548173ffffffffffffffffffffffffffffffffffffffff021916908373ffffffffffffffffffffffffffffffffffffffff160217905550808273ffffffffffffffffffffffffffffffffffffffff168473ffffffffffffffffffffffffffffffffffffffff167fddf252ad1be2c89b69c2b068fc378daa952ba7f163c4a11628f55a4df523b3ef60405160405180910390a4611395838383611a3f565b505050565b6113a2610fde565b73ffffffffffffffffffffffffffffffffffffffff166113c0610c0d565b73ffffffffffffffffffffffffffffffffffffffff1614611416576040517f08c379a000000000000000000000000000000000000000000000000000000000815260040161140d9061368e565b60405180910390fd5b565b611420611a44565b6000600b60006101000a81548160ff0219169083151502179055507f5db9ee0a495bf2e6ff9c91a7834c1ba4fdd244a5e8aa4e537bd38aeae4b073aa611464610fde565b60405161147191906128a0565b60405180910390a1565b6000600b60019054906101000a900473ffffffffffffffffffffffffffffffffffffffff16905081600b60016101000a81548173ffffffffffffffffffffffffffffffffffffffff021916908373ffffffffffffffffffffffffffffffffffffffff1602179055508173ffffffffffffffffffffffffffffffffffffffff168173ffffffffffffffffffffffffffffffffffffffff167f8be0079c531659141344cd1fd0a4f28419497f9722a3daafe3b4186f6b6457e060405160405180910390a35050565b611549611a8d565b6001600b60006101000a81548160ff0219169083151502179055507f62e78cea01bee320cd4e420270b5ea74000d11b0c9f74754ebdbfc544b05a25861158d610fde565b60405161159a91906128a0565b60405180910390a1565b8173ffffffffffffffffffffffffffffffffffffffff168373ffffffffffffffffffffffffffffffffffffffff1603611612576040517f08c379a0000000000000000000000000000000000000000000000000000000008152600401611609906136fa565b60405180910390fd5b80600560008573ffffffffffffffffffffffffffffffffffffffff1673ffffffffffffffffffffffffffffffffffffffff16815260200190815260200160002060008473ffffffffffffffffffffffffffffffffffffffff1673ffffffffffffffffffffffffffffffffffffffff16815260200190815260200160002060006101000a81548160ff0219169083151502179055508173ffffffffffffffffffffffffffffffffffffffff168373ffffffffffffffffffffffffffffffffffffffff167f17307eab39ab6107e8899845ad3d59bd9653f200f220920489ca2b5937696c31836040516117039190612574565b60405180910390a3505050565b61171b848484611134565b61172784848484611ad7565b611766576040517f08c379a000000000000000000000000000000000000000000000000000000000815260040161175d9061378c565b60405180910390fd5b50505050565b606061177782610f93565b6000600a6000848152602001908152602001600020805461179790612cad565b80601f01602080910402602001604051908101604052809291908181526020018280546117c390612cad565b80156118105780601f106117e557610100808354040283529160200191611810565b820191906000526020600020905b8154815290600101906020018083116117f357829003601f168201915b505050505090506000611821611c5e565b90506000815103611836578192505050611879565b60008251111561186b5780826040516020016118539291906137e8565b60405160208183030381529060405292505050611879565b61187484611c75565b925050505b919050565b60007f80ac58cd000000000000000000000000000000000000000000000000000000007bffffffffffffffffffffffffffffffffffffffffffffffffffffffff1916827bffffffffffffffffffffffffffffffffffffffffffffffffffffffff1916148061194957507f5b5e139f000000000000000000000000000000000000000000000000000000007bffffffffffffffffffffffffffffffffffffffffffffffffffffffff1916827bffffffffffffffffffffffffffffffffffffffffffffffffffffffff1916145b80611959575061195882611cdd565b5b9050919050565b61196a8383611d47565b6119776000848484611ad7565b6119b6576040517f08c379a00000000000000000000000000000000000000000000000000000000081526004016119ad9061378c565b60405180910390fd5b505050565b60008073ffffffffffffffffffffffffffffffffffffffff166002600084815260200190815260200160002060009054906101000a900473ffffffffffffffffffffffffffffffffffffffff1673ffffffffffffffffffffffffffffffffffffffff1614159050919050565b611a2f611a8d565b611a3a838383611f20565b505050565b505050565b611a4c610a12565b611a8b576040517f08c379a0000000000000000000000000000000000000000000000000000000008152600401611a8290613858565b60405180910390fd5b565b611a95610a12565b15611ad5576040517f08c379a0000000000000000000000000000000000000000000000000000000008152600401611acc906138c4565b60405180910390fd5b565b6000611af88473ffffffffffffffffffffffffffffffffffffffff16612032565b15611c51578373ffffffffffffffffffffffffffffffffffffffff1663150b7a02611b21610fde565b8786866040518563ffffffff1660e01b8152600401611b439493929190613939565b6020604051808303816000875af1925050508015611b7f57506040513d601f19601f82011682018060405250810190611b7c919061399a565b60015b611c01573d8060008114611baf576040519150601f19603f3d011682016040523d82523d6000602084013e611bb4565b606091505b506000815103611bf9576040517f08c379a0000000000000000000000000000000000000000000000000000000008152600401611bf09061378c565b60405180910390fd5b805181602001fd5b63150b7a0260e01b7bffffffffffffffffffffffffffffffffffffffffffffffffffffffff1916817bffffffffffffffffffffffffffffffffffffffffffffffffffffffff191614915050611c56565b600190505b949350505050565b606060405180602001604052806000815250905090565b6060611c8082610f93565b6000611c8a611c5e565b90506000815111611caa5760405180602001604052806000815250611cd5565b80611cb484612055565b604051602001611cc59291906137e8565b6040516020818303038152906040525b915050919050565b60007f01ffc9a7000000000000000000000000000000000000000000000000000000007bffffffffffffffffffffffffffffffffffffffffffffffffffffffff1916827bffffffffffffffffffffffffffffffffffffffffffffffffffffffff1916149050919050565b600073ffffffffffffffffffffffffffffffffffffffff168273ffffffffffffffffffffffffffffffffffffffff1603611db6576040517f08c379a0000000000000000000000000000000000000000000000000000000008152600401611dad90613a13565b60405180910390fd5b611dbf816119bb565b15611dff576040517f08c379a0000000000000000000000000000000000000000000000000000000008152600401611df690613a7f565b60405180910390fd5b611e0b60008383611a27565b6001600360008473ffffffffffffffffffffffffffffffffffffffff1673ffffffffffffffffffffffffffffffffffffffff1681526020019081526020016000206000828254611e5b919061360e565b92505081905550816002600083815260200190815260200160002060006101000a81548173ffffffffffffffffffffffffffffffffffffffff021916908373ffffffffffffffffffffffffffffffffffffffff160217905550808273ffffffffffffffffffffffffffffffffffffffff16600073ffffffffffffffffffffffffffffffffffffffff167fddf252ad1be2c89b69c2b068fc378daa952ba7f163c4a11628f55a4df523b3ef60405160405180910390a4611f1c60008383611a3f565b5050565b611f2b8383836121b5565b600073ffffffffffffffffffffffffffffffffffffffff168373ffffffffffffffffffffffffffffffffffffffff1603611f6d57611f68816121ba565b611fac565b8173ffffffffffffffffffffffffffffffffffffffff168373ffffffffffffffffffffffffffffffffffffffff1614611fab57611faa8382612203565b5b5b600073ffffffffffffffffffffffffffffffffffffffff168273ffffffffffffffffffffffffffffffffffffffff1603611fee57611fe981612370565b61202d565b8273ffffffffffffffffffffffffffffffffffffffff168273ffffffffffffffffffffffffffffffffffffffff161461202c5761202b8282612441565b5b5b505050565b6000808273ffffffffffffffffffffffffffffffffffffffff163b119050919050565b60606000820361209c576040518060400160405280600181526020017f300000000000000000000000000000000000000000000000000000000000000081525090506121b0565b600082905060005b600082146120ce5780806120b790613a9f565b915050600a826120c79190613b16565b91506120a4565b60008167ffffffffffffffff8111156120ea576120e96125aa565b5b6040519080825280601f01601f19166020018201604052801561211c5781602001600182028036833780820191505090505b5090505b600085146121a95760018261213591906135da565b9150600a856121449190613b47565b6030612150919061360e565b60f81b81838151811061216657612165612fb8565b5b60200101907effffffffffffffffffffffffffffffffffffffffffffffffffffffffffffff1916908160001a905350600a856121a29190613b16565b9450612120565b8093505050505b919050565b505050565b6008805490506009600083815260200190815260200160002081905550600881908060018154018082558091505060019003906000526020600020016000909190919091505550565b6000600161221084610ada565b61221a91906135da565b90506000600760008481526020019081526020016000205490508181146122ff576000600660008673ffffffffffffffffffffffffffffffffffffffff1673ffffffffffffffffffffffffffffffffffffffff168152602001908152602001600020600084815260200190815260200160002054905080600660008773ffffffffffffffffffffffffffffffffffffffff1673ffffffffffffffffffffffffffffffffffffffff168152602001908152602001600020600084815260200190815260200160002081905550816007600083815260200190815260200160002081905550505b6007600084815260200190815260200160002060009055600660008573ffffffffffffffffffffffffffffffffffffffff1673ffffffffffffffffffffffffffffffffffffffff16815260200190815260200160002060008381526020019081526020016000206000905550505050565b6000600160088054905061238491906135da565b90506000600960008481526020019081526020016000205490506000600883815481106123b4576123b3612fb8565b5b9060005260206000200154905080600883815481106123d6576123d5612fb8565b5b90600052602060002001819055508160096000838152602001908152602001600020819055506009600085815260200190815260200160002060009055600880548061242557612424613b78565b5b6001900381819060005260206000200160009055905550505050565b600061244c83610ada565b905081600660008573ffffffffffffffffffffffffffffffffffffffff1673ffffffffffffffffffffffffffffffffffffffff168152602001908152602001600020600083815260200190815260200160002081905550806007600084815260200190815260200160002081905550505050565b6000604051905090565b600080fd5b600080fd5b60007fffffffff0000000000000000000000000000000000000000000000000000000082169050919050565b612509816124d4565b811461251457600080fd5b50565b60008135905061252681612500565b92915050565b600060208284031215612542576125416124ca565b5b600061255084828501612517565b91505092915050565b60008115159050919050565b61256e81612559565b82525050565b60006020820190506125896000830184612565565b92915050565b600080fd5b600080fd5b6000601f19601f8301169050919050565b7f4e487b7100000000000000000000000000000000000000000000000000000000600052604160045260246000fd5b6125e282612599565b810181811067ffffffffffffffff82111715612601576126006125aa565b5b80604052505050565b60006126146124c0565b905061262082826125d9565b919050565b600067ffffffffffffffff8211156126405761263f6125aa565b5b61264982612599565b9050602081019050919050565b82818337600083830152505050565b600061267861267384612625565b61260a565b90508281526020810184848401111561269457612693612594565b5b61269f848285612656565b509392505050565b600082601f8301126126bc576126bb61258f565b5b81356126cc848260208601612665565b91505092915050565b6000819050919050565b6126e8816126d5565b81146126f357600080fd5b50565b600081359050612705816126df565b92915050565b60008060408385031215612722576127216124ca565b5b600083013567ffffffffffffffff8111156127405761273f6124cf565b5b61274c858286016126a7565b925050602061275d858286016126f6565b9150509250929050565b612770816126d5565b82525050565b600060208201905061278b6000830184612767565b92915050565b600081519050919050565b600082825260208201905092915050565b60005b838110156127cb5780820151818401526020810190506127b0565b60008484015250505050565b60006127e282612791565b6127ec818561279c565b93506127fc8185602086016127ad565b61280581612599565b840191505092915050565b6000602082019050818103600083015261282a81846127d7565b905092915050565b600060208284031215612848576128476124ca565b5b6000612856848285016126f6565b91505092915050565b600073ffffffffffffffffffffffffffffffffffffffff82169050919050565b600061288a8261285f565b9050919050565b61289a8161287f565b82525050565b60006020820190506128b56000830184612891565b92915050565b6128c48161287f565b81146128cf57600080fd5b50565b6000813590506128e1816128bb565b92915050565b600080604083850312156128fe576128fd6124ca565b5b600061290c858286016128d2565b925050602061291d858286016126f6565b9150509250929050565b6000806000606084860312156129405761293f6124ca565b5b600061294e868287016128d2565b935050602061295f868287016128d2565b9250506040612970868287016126f6565b9150509250925092565b6000602082840312156129905761298f6124ca565b5b600061299e848285016128d2565b91505092915050565b60006040820190506129bc6000830185612891565b6129c96020830184612767565b9392505050565b6129d981612559565b81146129e457600080fd5b50565b6000813590506129f6816129d0565b92915050565b60008060408385031215612a1357612a126124ca565b5b6000612a21858286016128d2565b9250506020612a32858286016129e7565b9150509250929050565b600067ffffffffffffffff821115612a5757612a566125aa565b5b612a6082612599565b9050602081019050919050565b6000612a80612a7b84612a3c565b61260a565b905082815260208101848484011115612a9c57612a9b612594565b5b612aa7848285612656565b509392505050565b600082601f830112612ac457612ac361258f565b5b8135612ad4848260208601612a6d565b91505092915050565b60008060008060808587031215612af757612af66124ca565b5b6000612b05878288016128d2565b9450506020612b16878288016128d2565b9350506040612b27878288016126f6565b925050606085013567ffffffffffffffff811115612b4857612b476124cf565b5b612b5487828801612aaf565b91505092959194509250565b60008060408385031215612b7757612b766124ca565b5b6000612b85858286016128d2565b9250506020612b96858286016128d2565b9150509250929050565b7f526f79616c746965732070657263656e7461676520657863656564732074686560008201527f206d6178696d756d2076616c7565210000000000000000000000000000000000602082015250565b6000612bfc602f8361279c565b9150612c0782612ba0565b604082019050919050565b60006020820190508181036000830152612c2b81612bef565b9050919050565b6000608082019050612c476000830187612767565b612c546020830186612891565b8181036040830152612c6681856127d7565b9050612c756060830184612767565b95945050505050565b7f4e487b7100000000000000000000000000000000000000000000000000000000600052602260045260246000fd5b60006002820490506001821680612cc557607f821691505b602082108103612cd857612cd7612c7e565b5b50919050565b7f4552433732313a20617070726f76616c20746f2063757272656e74206f776e6560008201527f7200000000000000000000000000000000000000000000000000000000000000602082015250565b6000612d3a60218361279c565b9150612d4582612cde565b604082019050919050565b60006020820190508181036000830152612d6981612d2d565b9050919050565b7f4552433732313a20617070726f76652063616c6c6572206973206e6f7420746f60008201527f6b656e206f776e6572206e6f7220617070726f76656420666f7220616c6c0000602082015250565b6000612dcc603e8361279c565b9150612dd782612d70565b604082019050919050565b60006020820190508181036000830152612dfb81612dbf565b9050919050565b7f4552433732313a2063616c6c6572206973206e6f7420746f6b656e206f776e6560008201527f72206e6f7220617070726f766564000000000000000000000000000000000000602082015250565b6000612e5e602e8361279c565b9150612e6982612e02565b604082019050919050565b60006020820190508181036000830152612e8d81612e51565b9050919050565b7f455243373231456e756d657261626c653a206f776e657220696e646578206f7560008201527f74206f6620626f756e6473000000000000000000000000000000000000000000602082015250565b6000612ef0602b8361279c565b9150612efb82612e94565b604082019050919050565b60006020820190508181036000830152612f1f81612ee3565b9050919050565b7f455243373231456e756d657261626c653a20676c6f62616c20696e646578206f60008201527f7574206f6620626f756e64730000000000000000000000000000000000000000602082015250565b6000612f82602c8361279c565b9150612f8d82612f26565b604082019050919050565b60006020820190508181036000830152612fb181612f75565b9050919050565b7f4e487b7100000000000000000000000000000000000000000000000000000000600052603260045260246000fd5b7f4552433732313a20696e76616c696420746f6b656e2049440000000000000000600082015250565b600061301d60188361279c565b915061302882612fe7565b602082019050919050565b6000602082019050818103600083015261304c81613010565b9050919050565b7f4552433732313a2061646472657373207a65726f206973206e6f74206120766160008201527f6c6964206f776e65720000000000000000000000000000000000000000000000602082015250565b60006130af60298361279c565b91506130ba82613053565b604082019050919050565b600060208201905081810360008301526130de816130a2565b9050919050565b7f4f776e61626c653a206e6577206f776e657220697320746865207a65726f206160008201527f6464726573730000000000000000000000000000000000000000000000000000602082015250565b600061314160268361279c565b915061314c826130e5565b604082019050919050565b6000602082019050818103600083015261317081613134565b9050919050565b7f45524337323155524953746f726167653a2055524920736574206f66206e6f6e60008201527f6578697374656e7420746f6b656e000000000000000000000000000000000000602082015250565b60006131d3602e8361279c565b91506131de82613177565b604082019050919050565b60006020820190508181036000830152613202816131c6565b9050919050565b60008190508160005260206000209050919050565b60006020601f8301049050919050565b600082821b905092915050565b60006008830261326b7fffffffffffffffffffffffffffffffffffffffffffffffffffffffffffffffff8261322e565b613275868361322e565b95508019841693508086168417925050509392505050565b6000819050919050565b60006132b26132ad6132a8846126d5565b61328d565b6126d5565b9050919050565b6000819050919050565b6132cc83613297565b6132e06132d8826132b9565b84845461323b565b825550505050565b600090565b6132f56132e8565b6133008184846132c3565b505050565b5b81811015613324576133196000826132ed565b600181019050613306565b5050565b601f8211156133695761333a81613209565b6133438461321e565b81016020851015613352578190505b61336661335e8561321e565b830182613305565b50505b505050565b600082821c905092915050565b600061338c6000198460080261336e565b1980831691505092915050565b60006133a5838361337b565b9150826002028217905092915050565b6133be82612791565b67ffffffffffffffff8111156133d7576133d66125aa565b5b6133e18254612cad565b6133ec828285613328565b600060209050601f83116001811461341f576000841561340d578287015190505b6134178582613399565b86555061347f565b601f19841661342d86613209565b60005b8281101561345557848901518255600182019150602085019450602081019050613430565b86831015613472578489015161346e601f89168261337b565b8355505b6001600288020188555050505b505050505050565b7f4552433732313a207472616e736665722066726f6d20696e636f72726563742060008201527f6f776e6572000000000000000000000000000000000000000000000000000000602082015250565b60006134e360258361279c565b91506134ee82613487565b604082019050919050565b60006020820190508181036000830152613512816134d6565b9050919050565b7f4552433732313a207472616e7366657220746f20746865207a65726f2061646460008201527f7265737300000000000000000000000000000000000000000000000000000000602082015250565b600061357560248361279c565b915061358082613519565b604082019050919050565b600060208201905081810360008301526135a481613568565b9050919050565b7f4e487b7100000000000000000000000000000000000000000000000000000000600052601160045260246000fd5b60006135e5826126d5565b91506135f0836126d5565b9250828203905081811115613608576136076135ab565b5b92915050565b6000613619826126d5565b9150613624836126d5565b925082820190508082111561363c5761363b6135ab565b5b92915050565b7f4f776e61626c653a2063616c6c6572206973206e6f7420746865206f776e6572600082015250565b600061367860208361279c565b915061368382613642565b602082019050919050565b600060208201905081810360008301526136a78161366b565b9050919050565b7f4552433732313a20617070726f766520746f2063616c6c657200000000000000600082015250565b60006136e460198361279c565b91506136ef826136ae565b602082019050919050565b60006020820190508181036000830152613713816136d7565b9050919050565b7f4552433732313a207472616e7366657220746f206e6f6e20455243373231526560008201527f63656976657220696d706c656d656e7465720000000000000000000000000000602082015250565b600061377660328361279c565b91506137818261371a565b604082019050919050565b600060208201905081810360008301526137a581613769565b9050919050565b600081905092915050565b60006137c282612791565b6137cc81856137ac565b93506137dc8185602086016127ad565b80840191505092915050565b60006137f482856137b7565b915061380082846137b7565b91508190509392505050565b7f5061757361626c653a206e6f7420706175736564000000000000000000000000600082015250565b600061384260148361279c565b915061384d8261380c565b602082019050919050565b6000602082019050818103600083015261387181613835565b9050919050565b7f5061757361626c653a2070617573656400000000000000000000000000000000600082015250565b60006138ae60108361279c565b91506138b982613878565b602082019050919050565b600060208201905081810360008301526138dd816138a1565b9050919050565b600081519050919050565b600082825260208201905092915050565b600061390b826138e4565b61391581856138ef565b93506139258185602086016127ad565b61392e81612599565b840191505092915050565b600060808201905061394e6000830187612891565b61395b6020830186612891565b6139686040830185612767565b818103606083015261397a8184613900565b905095945050505050565b60008151905061399481612500565b92915050565b6000602082840312156139b0576139af6124ca565b5b60006139be84828501613985565b91505092915050565b7f4552433732313a206d696e7420746f20746865207a65726f2061646472657373600082015250565b60006139fd60208361279c565b9150613a08826139c7565b602082019050919050565b60006020820190508181036000830152613a2c816139f0565b9050919050565b7f4552433732313a20746f6b656e20616c7265616479206d696e74656400000000600082015250565b6000613a69601c8361279c565b9150613a7482613a33565b602082019050919050565b60006020820190508181036000830152613a9881613a5c565b9050919050565b6000613aaa826126d5565b91507fffffffffffffffffffffffffffffffffffffffffffffffffffffffffffffffff8203613adc57613adb6135ab565b5b600182019050919050565b7f4e487b7100000000000000000000000000000000000000000000000000000000600052601260045260246000fd5b6000613b21826126d5565b9150613b2c836126d5565b925082613b3c57613b3b613ae7565b5b828204905092915050565b6000613b52826126d5565b9150613b5d836126d5565b925082613b6d57613b6c613ae7565b5b828206905092915050565b7f4e487b7100000000000000000000000000000000000000000000000000000000600052603160045260246000fdfea2646970667358221220e69c837f73c19765ad108fdf94811d0d440c402d4caa1cc701c1e95fb5f4535364736f6c63430008100033",
  "linkReferences": {},
  "deployedLinkReferences": {}
}