{
  "_format": "hh-sol-artifact-1",
  "contractName": "LedaNFT",
  "sourceName": "contracts/LedaNFT.sol",
  "abi": [
    {
      "inputs": [
        {
          "internalType": "string",
          "name": "_name",
          "type": "string"
        },
        {
          "internalType": "string",
          "name": "_symbol",
          "type": "string"
        }
      ],
      "stateMutability": "nonpayable",
      "type": "constructor"
    },
    {
      "anonymous": false,
      "inputs": [
        {
          "indexed": true,
          "internalType": "address",
          "name": "owner",
          "type": "address"
        },
        {
          "indexed": true,
          "internalType": "address",
          "name": "approved",
          "type": "address"
        },
        {
          "indexed": true,
          "internalType": "uint256",
          "name": "tokenId",
          "type": "uint256"
        }
      ],
      "name": "Approval",
      "type": "event"
    },
    {
      "anonymous": false,
      "inputs": [
        {
          "indexed": true,
          "internalType": "address",
          "name": "owner",
          "type": "address"
        },
        {
          "indexed": true,
          "internalType": "address",
          "name": "operator",
          "type": "address"
        },
        {
          "indexed": false,
          "internalType": "bool",
          "name": "approved",
          "type": "bool"
        }
      ],
      "name": "ApprovalForAll",
      "type": "event"
    },
    {
      "anonymous": false,
      "inputs": [
        {
          "indexed": false,
          "internalType": "uint256",
          "name": "_idNFT",
          "type": "uint256"
        },
        {
          "indexed": false,
          "internalType": "address",
          "name": "_owner",
          "type": "address"
        },
        {
          "indexed": false,
          "internalType": "uint256",
          "name": "royalties",
          "type": "uint256"
        }
      ],
      "name": "LogGetCreator",
      "type": "event"
    },
    {
      "anonymous": false,
      "inputs": [
        {
          "indexed": false,
          "internalType": "uint256",
          "name": "_nftId",
          "type": "uint256"
        },
        {
          "indexed": false,
          "internalType": "address",
          "name": "_owner",
          "type": "address"
        },
        {
          "indexed": false,
          "internalType": "string",
          "name": "_nftURI",
          "type": "string"
        },
        {
          "indexed": false,
          "internalType": "uint256",
          "name": "_royalties",
          "type": "uint256"
        }
      ],
      "name": "LogNFTMinted",
      "type": "event"
    },
    {
      "anonymous": false,
      "inputs": [
        {
          "indexed": true,
          "internalType": "address",
          "name": "previousOwner",
          "type": "address"
        },
        {
          "indexed": true,
          "internalType": "address",
          "name": "newOwner",
          "type": "address"
        }
      ],
      "name": "OwnershipTransferred",
      "type": "event"
    },
    {
      "anonymous": false,
      "inputs": [
        {
          "indexed": false,
          "internalType": "address",
          "name": "account",
          "type": "address"
        }
      ],
      "name": "Paused",
      "type": "event"
    },
    {
      "anonymous": false,
      "inputs": [
        {
          "indexed": true,
          "internalType": "address",
          "name": "from",
          "type": "address"
        },
        {
          "indexed": true,
          "internalType": "address",
          "name": "to",
          "type": "address"
        },
        {
          "indexed": true,
          "internalType": "uint256",
          "name": "tokenId",
          "type": "uint256"
        }
      ],
      "name": "Transfer",
      "type": "event"
    },
    {
      "anonymous": false,
      "inputs": [
        {
          "indexed": false,
          "internalType": "address",
          "name": "account",
          "type": "address"
        }
      ],
      "name": "Unpaused",
      "type": "event"
    },
    {
      "inputs": [
        {
          "internalType": "address",
          "name": "to",
          "type": "address"
        },
        {
          "internalType": "uint256",
          "name": "tokenId",
          "type": "uint256"
        }
      ],
      "name": "approve",
      "outputs": [],
      "stateMutability": "nonpayable",
      "type": "function"
    },
    {
      "inputs": [
        {
          "internalType": "address",
          "name": "owner",
          "type": "address"
        }
      ],
      "name": "balanceOf",
      "outputs": [
        {
          "internalType": "uint256",
          "name": "",
          "type": "uint256"
        }
      ],
      "stateMutability": "view",
      "type": "function"
    },
    {
      "inputs": [
        {
          "internalType": "uint256",
          "name": "",
          "type": "uint256"
        }
      ],
      "name": "creatorInfo",
      "outputs": [
        {
          "internalType": "address",
          "name": "creator",
          "type": "address"
        },
        {
          "internalType": "uint256",
          "name": "royalties",
          "type": "uint256"
        }
      ],
      "stateMutability": "view",
      "type": "function"
    },
    {
      "inputs": [
        {
          "internalType": "uint256",
          "name": "tokenId",
          "type": "uint256"
        }
      ],
      "name": "getApproved",
      "outputs": [
        {
          "internalType": "address",
          "name": "",
          "type": "address"
        }
      ],
      "stateMutability": "view",
      "type": "function"
    },
    {
      "inputs": [
        {
          "internalType": "uint256",
          "name": "idNFT",
          "type": "uint256"
        }
      ],
      "name": "getCreatorAndRoyalties",
      "outputs": [
        {
          "internalType": "address",
          "name": "",
          "type": "address"
        },
        {
          "internalType": "uint256",
          "name": "",
          "type": "uint256"
        }
      ],
      "stateMutability": "nonpayable",
      "type": "function"
    },
    {
      "inputs": [
        {
          "internalType": "address",
          "name": "owner",
          "type": "address"
        },
        {
          "internalType": "address",
          "name": "operator",
          "type": "address"
        }
      ],
      "name": "isApprovedForAll",
      "outputs": [
        {
          "internalType": "bool",
          "name": "",
          "type": "bool"
        }
      ],
      "stateMutability": "view",
      "type": "function"
    },
    {
      "inputs": [],
      "name": "maxCreatorRoyalties",
      "outputs": [
        {
          "internalType": "uint256",
          "name": "",
          "type": "uint256"
        }
      ],
      "stateMutability": "view",
      "type": "function"
    },
    {
      "inputs": [
        {
          "internalType": "string",
          "name": "_tokenURI",
          "type": "string"
        },
        {
          "internalType": "uint256",
          "name": "_royaltiesPercentage",
          "type": "uint256"
        }
      ],
      "name": "mint",
      "outputs": [
        {
          "internalType": "uint256",
          "name": "",
          "type": "uint256"
        }
      ],
      "stateMutability": "nonpayable",
      "type": "function"
    },
    {
      "inputs": [],
      "name": "name",
      "outputs": [
        {
          "internalType": "string",
          "name": "",
          "type": "string"
        }
      ],
      "stateMutability": "view",
      "type": "function"
    },
    {
      "inputs": [],
      "name": "owner",
      "outputs": [
        {
          "internalType": "address",
          "name": "",
          "type": "address"
        }
      ],
      "stateMutability": "view",
      "type": "function"
    },
    {
      "inputs": [
        {
          "internalType": "uint256",
          "name": "tokenId",
          "type": "uint256"
        }
      ],
      "name": "ownerOf",
      "outputs": [
        {
          "internalType": "address",
          "name": "",
          "type": "address"
        }
      ],
      "stateMutability": "view",
      "type": "function"
    },
    {
      "inputs": [],
      "name": "pause",
      "outputs": [],
      "stateMutability": "nonpayable",
      "type": "function"
    },
    {
      "inputs": [],
      "name": "paused",
      "outputs": [
        {
          "internalType": "bool",
          "name": "",
          "type": "bool"
        }
      ],
      "stateMutability": "view",
      "type": "function"
    },
    {
      "inputs": [],
      "name": "renounceOwnership",
      "outputs": [],
      "stateMutability": "nonpayable",
      "type": "function"
    },
    {
      "inputs": [
        {
          "internalType": "address",
          "name": "from",
          "type": "address"
        },
        {
          "internalType": "address",
          "name": "to",
          "type": "address"
        },
        {
          "internalType": "uint256",
          "name": "tokenId",
          "type": "uint256"
        }
      ],
      "name": "safeTransferFrom",
      "outputs": [],
      "stateMutability": "nonpayable",
      "type": "function"
    },
    {
      "inputs": [
        {
          "internalType": "address",
          "name": "from",
          "type": "address"
        },
        {
          "internalType": "address",
          "name": "to",
          "type": "address"
        },
        {
          "internalType": "uint256",
          "name": "tokenId",
          "type": "uint256"
        },
        {
          "internalType": "bytes",
          "name": "data",
          "type": "bytes"
        }
      ],
      "name": "safeTransferFrom",
      "outputs": [],
      "stateMutability": "nonpayable",
      "type": "function"
    },
    {
      "inputs": [
        {
          "internalType": "address",
          "name": "operator",
          "type": "address"
        },
        {
          "internalType": "bool",
          "name": "approved",
          "type": "bool"
        }
      ],
      "name": "setApprovalForAll",
      "outputs": [],
      "stateMutability": "nonpayable",
      "type": "function"
    },
    {
      "inputs": [
        {
          "internalType": "uint256",
          "name": "_maxCreatorRoyalties",
          "type": "uint256"
        }
      ],
      "name": "setMaxCreatorRoyalties",
      "outputs": [],
      "stateMutability": "nonpayable",
      "type": "function"
    },
    {
      "inputs": [
        {
          "internalType": "bytes4",
          "name": "interfaceId",
          "type": "bytes4"
        }
      ],
      "name": "supportsInterface",
      "outputs": [
        {
          "internalType": "bool",
          "name": "",
          "type": "bool"
        }
      ],
      "stateMutability": "view",
      "type": "function"
    },
    {
      "inputs": [],
      "name": "symbol",
      "outputs": [
        {
          "internalType": "string",
          "name": "",
          "type": "string"
        }
      ],
      "stateMutability": "view",
      "type": "function"
    },
    {
      "inputs": [
        {
          "internalType": "uint256",
          "name": "index",
          "type": "uint256"
        }
      ],
      "name": "tokenByIndex",
      "outputs": [
        {
          "internalType": "uint256",
          "name": "",
          "type": "uint256"
        }
      ],
      "stateMutability": "view",
      "type": "function"
    },
    {
      "inputs": [],
      "name": "tokenCount",
      "outputs": [
        {
          "internalType": "uint256",
          "name": "_value",
          "type": "uint256"
        }
      ],
      "stateMutability": "view",
      "type": "function"
    },
    {
      "inputs": [
        {
          "internalType": "address",
          "name": "owner",
          "type": "address"
        },
        {
          "internalType": "uint256",
          "name": "index",
          "type": "uint256"
        }
      ],
      "name": "tokenOfOwnerByIndex",
      "outputs": [
        {
          "internalType": "uint256",
          "name": "",
          "type": "uint256"
        }
      ],
      "stateMutability": "view",
      "type": "function"
    },
    {
      "inputs": [
        {
          "internalType": "uint256",
          "name": "tokenId",
          "type": "uint256"
        }
      ],
      "name": "tokenURI",
      "outputs": [
        {
          "internalType": "string",
          "name": "",
          "type": "string"
        }
      ],
      "stateMutability": "view",
      "type": "function"
    },
    {
      "inputs": [],
      "name": "totalSupply",
      "outputs": [
        {
          "internalType": "uint256",
          "name": "",
          "type": "uint256"
        }
      ],
      "stateMutability": "view",
      "type": "function"
    },
    {
      "inputs": [
        {
          "internalType": "address",
          "name": "from",
          "type": "address"
        },
        {
          "internalType": "address",
          "name": "to",
          "type": "address"
        },
        {
          "internalType": "uint256",
          "name": "tokenId",
          "type": "uint256"
        }
      ],
      "name": "transferFrom",
      "outputs": [],
      "stateMutability": "nonpayable",
      "type": "function"
    },
    {
      "inputs": [
        {
          "internalType": "address",
          "name": "newOwner",
          "type": "address"
        }
      ],
      "name": "transferOwnership",
      "outputs": [],
      "stateMutability": "nonpayable",
      "type": "function"
    },
    {
      "inputs": [],
      "name": "unpause",
      "outputs": [],
      "stateMutability": "nonpayable",
      "type": "function"
    }
  ],
  "bytecode": "0x60806040523480156200001157600080fd5b50604051620044603803806200446083398181016040528101906200003791906200030b565b818181600090816200004a9190620005db565b5080600190816200005c9190620005db565b5050506000600b60006101000a81548160ff0219169083151502179055506200009a6200008e620000aa60201b60201c565b620000b260201b60201c565b6064600d819055505050620006c2565b600033905090565b6000600b60019054906101000a900473ffffffffffffffffffffffffffffffffffffffff16905081600b60016101000a81548173ffffffffffffffffffffffffffffffffffffffff021916908373ffffffffffffffffffffffffffffffffffffffff1602179055508173ffffffffffffffffffffffffffffffffffffffff168173ffffffffffffffffffffffffffffffffffffffff167f8be0079c531659141344cd1fd0a4f28419497f9722a3daafe3b4186f6b6457e060405160405180910390a35050565b6000604051905090565b600080fd5b600080fd5b600080fd5b600080fd5b6000601f19601f8301169050919050565b7f4e487b7100000000000000000000000000000000000000000000000000000000600052604160045260246000fd5b620001e18262000196565b810181811067ffffffffffffffff82111715620002035762000202620001a7565b5b80604052505050565b60006200021862000178565b9050620002268282620001d6565b919050565b600067ffffffffffffffff821115620002495762000248620001a7565b5b620002548262000196565b9050602081019050919050565b60005b838110156200028157808201518184015260208101905062000264565b60008484015250505050565b6000620002a46200029e846200022b565b6200020c565b905082815260208101848484011115620002c357620002c262000191565b5b620002d084828562000261565b509392505050565b600082601f830112620002f057620002ef6200018c565b5b8151620003028482602086016200028d565b91505092915050565b6000806040838503121562000325576200032462000182565b5b600083015167ffffffffffffffff81111562000346576200034562000187565b5b6200035485828601620002d8565b925050602083015167ffffffffffffffff81111562000378576200037762000187565b5b6200038685828601620002d8565b9150509250929050565b600081519050919050565b7f4e487b7100000000000000000000000000000000000000000000000000000000600052602260045260246000fd5b60006002820490506001821680620003e357607f821691505b602082108103620003f957620003f86200039b565b5b50919050565b60008190508160005260206000209050919050565b60006020601f8301049050919050565b600082821b905092915050565b600060088302620004637fffffffffffffffffffffffffffffffffffffffffffffffffffffffffffffffff8262000424565b6200046f868362000424565b95508019841693508086168417925050509392505050565b6000819050919050565b6000819050919050565b6000620004bc620004b6620004b08462000487565b62000491565b62000487565b9050919050565b6000819050919050565b620004d8836200049b565b620004f0620004e782620004c3565b84845462000431565b825550505050565b600090565b62000507620004f8565b62000514818484620004cd565b505050565b5b818110156200053c5762000530600082620004fd565b6001810190506200051a565b5050565b601f8211156200058b576200055581620003ff565b620005608462000414565b8101602085101562000570578190505b620005886200057f8562000414565b83018262000519565b50505b505050565b600082821c905092915050565b6000620005b06000198460080262000590565b1980831691505092915050565b6000620005cb83836200059d565b9150826002028217905092915050565b620005e68262000390565b67ffffffffffffffff811115620006025762000601620001a7565b5b6200060e8254620003ca565b6200061b82828562000540565b600060209050601f8311600181146200065357600084156200063e578287015190505b6200064a8582620005bd565b865550620006ba565b601f1984166200066386620003ff565b60005b828110156200068d5784890151825560018201915060208501945060208101905062000666565b86831015620006ad5784890151620006a9601f8916826200059d565b8355505b6001600288020188555050505b505050505050565b613d8e80620006d26000396000f3fe608060405234801561001057600080fd5b50600436106101c45760003560e01c806370a08231116100f95780639f181b5e11610097578063b88d4fde11610071578063b88d4fde146104f7578063c87b56dd14610513578063e985e9c514610543578063f2fde38b14610573576101c4565b80639f181b5e1461048c578063a22cb465146104aa578063b561f03e146104c6576101c4565b80637e554ba0116100d35780637e554ba01461042a5780638456cb59146104465780638da5cb5b1461045057806395d89b411461046e576101c4565b806370a08231146103bf578063715018a6146103ef57806378b0a24e146103f9576101c4565b80632f745c591161016657806342842e0e1161014057806342842e0e146103255780634f6ccce7146103415780635c975abb146103715780636352211e1461038f576101c4565b80632f745c59146102cd5780633f4ba83a146102fd5780633fb4b69314610307576101c4565b8063081812fc116101a2578063081812fc14610247578063095ea7b31461027757806318160ddd1461029357806323b872dd146102b1576101c4565b806301ffc9a7146101c9578063056b01ce146101f957806306fdde0314610229575b600080fd5b6101e360048036038101906101de91906126a6565b61058f565b6040516101f091906126ee565b60405180910390f35b610213600480360381019061020e9190612885565b6105a1565b60405161022091906128f0565b60405180910390f35b6102316106f5565b60405161023e919061298a565b60405180910390f35b610261600480360381019061025c91906129ac565b610787565b60405161026e9190612a1a565b60405180910390f35b610291600480360381019061028c9190612a61565b6107cd565b005b61029b6108e4565b6040516102a891906128f0565b60405180910390f35b6102cb60048036038101906102c69190612aa1565b6108f1565b005b6102e760048036038101906102e29190612a61565b610951565b6040516102f491906128f0565b60405180910390f35b6103056109f6565b005b61030f610a08565b60405161031c91906128f0565b60405180910390f35b61033f600480360381019061033a9190612aa1565b610a0e565b005b61035b600480360381019061035691906129ac565b610a2e565b60405161036891906128f0565b60405180910390f35b610379610a9f565b60405161038691906126ee565b60405180910390f35b6103a960048036038101906103a491906129ac565b610ab6565b6040516103b69190612a1a565b60405180910390f35b6103d960048036038101906103d49190612af4565b610b67565b6040516103e691906128f0565b60405180910390f35b6103f7610c1e565b005b610413600480360381019061040e91906129ac565b610c32565b604051610421929190612b21565b60405180910390f35b610444600480360381019061043f91906129ac565b610c76565b005b61044e610c88565b005b610458610c9a565b6040516104659190612a1a565b60405180910390f35b610476610cc4565b604051610483919061298a565b60405180910390f35b610494610d56565b6040516104a191906128f0565b60405180910390f35b6104c460048036038101906104bf9190612b76565b610d62565b005b6104e060048036038101906104db91906129ac565b610d78565b6040516104ee929190612b21565b60405180910390f35b610511600480360381019061050c9190612c57565b610e59565b005b61052d600480360381019061052891906129ac565b610ebb565b60405161053a919061298a565b60405180910390f35b61055d60048036038101906105589190612cda565b610ecd565b60405161056a91906126ee565b60405180910390f35b61058d60048036038101906105889190612af4565b610f61565b005b600061059a82610fe4565b9050919050565b60006105ab61105e565b600d548211156105f0576040517f08c379a00000000000000000000000000000000000000000000000000000000081526004016105e790612d8c565b60405180910390fd5b6105fa600c6110a8565b6000610606600c6110be565b905061061233826110cc565b61061c81856110ea565b60405180604001604052803373ffffffffffffffffffffffffffffffffffffffff16815260200184815250600e600083815260200190815260200160002060008201518160000160006101000a81548173ffffffffffffffffffffffffffffffffffffffff021916908373ffffffffffffffffffffffffffffffffffffffff160217905550602082015181600101559050507f0a87c421f7b51fcf9008064b31bb04f137ea9ec7c7a7d2dca02ae6380ef2a914813386866040516106e39493929190612dac565b60405180910390a18091505092915050565b60606000805461070490612e27565b80601f016020809104026020016040519081016040528092919081815260200182805461073090612e27565b801561077d5780601f106107525761010080835404028352916020019161077d565b820191906000526020600020905b81548152906001019060200180831161076057829003601f168201915b5050505050905090565b600061079282611157565b6004600083815260200190815260200160002060009054906101000a900473ffffffffffffffffffffffffffffffffffffffff169050919050565b60006107d882610ab6565b90508073ffffffffffffffffffffffffffffffffffffffff168373ffffffffffffffffffffffffffffffffffffffff1603610848576040517f08c379a000000000000000000000000000000000000000000000000000000000815260040161083f90612eca565b60405180910390fd5b8073ffffffffffffffffffffffffffffffffffffffff166108676111a2565b73ffffffffffffffffffffffffffffffffffffffff1614806108965750610895816108906111a2565b610ecd565b5b6108d5576040517f08c379a00000000000000000000000000000000000000000000000000000000081526004016108cc90612f5c565b60405180910390fd5b6108df83836111aa565b505050565b6000600880549050905090565b6109026108fc6111a2565b82611263565b610941576040517f08c379a000000000000000000000000000000000000000000000000000000000815260040161093890612fee565b60405180910390fd5b61094c8383836112f8565b505050565b600061095c83610b67565b821061099d576040517f08c379a000000000000000000000000000000000000000000000000000000000815260040161099490613080565b60405180910390fd5b600660008473ffffffffffffffffffffffffffffffffffffffff1673ffffffffffffffffffffffffffffffffffffffff168152602001908152602001600020600083815260200190815260200160002054905092915050565b6109fe61155e565b610a066115dc565b565b600d5481565b610a2983838360405180602001604052806000815250610e59565b505050565b6000610a386108e4565b8210610a79576040517f08c379a0000000000000000000000000000000000000000000000000000000008152600401610a7090613112565b60405180910390fd5b60088281548110610a8d57610a8c613132565b5b90600052602060002001549050919050565b6000600b60009054906101000a900460ff16905090565b6000806002600084815260200190815260200160002060009054906101000a900473ffffffffffffffffffffffffffffffffffffffff169050600073ffffffffffffffffffffffffffffffffffffffff168173ffffffffffffffffffffffffffffffffffffffff1603610b5e576040517f08c379a0000000000000000000000000000000000000000000000000000000008152600401610b55906131ad565b60405180910390fd5b80915050919050565b60008073ffffffffffffffffffffffffffffffffffffffff168273ffffffffffffffffffffffffffffffffffffffff1603610bd7576040517f08c379a0000000000000000000000000000000000000000000000000000000008152600401610bce9061323f565b60405180910390fd5b600360008373ffffffffffffffffffffffffffffffffffffffff1673ffffffffffffffffffffffffffffffffffffffff168152602001908152602001600020549050919050565b610c2661155e565b610c30600061163f565b565b600e6020528060005260406000206000915090508060000160009054906101000a900473ffffffffffffffffffffffffffffffffffffffff16908060010154905082565b610c7e61155e565b80600d8190555050565b610c9061155e565b610c98611705565b565b6000600b60019054906101000a900473ffffffffffffffffffffffffffffffffffffffff16905090565b606060018054610cd390612e27565b80601f0160208091040260200160405190810160405280929190818152602001828054610cff90612e27565b8015610d4c5780601f10610d2157610100808354040283529160200191610d4c565b820191906000526020600020905b815481529060010190602001808311610d2f57829003601f168201915b5050505050905090565b600c8060000154905081565b610d74610d6d6111a2565b8383611768565b5050565b6000807f81af20f71001dbcc140abad4506021122ff22268b0cbce57a533e0b10cba4fc083600e600086815260200190815260200160002060000160009054906101000a900473ffffffffffffffffffffffffffffffffffffffff16600e600087815260200190815260200160002060010154604051610dfa9392919061325f565b60405180910390a1600e600084815260200190815260200160002060000160009054906101000a900473ffffffffffffffffffffffffffffffffffffffff16600e60008581526020019081526020016000206001015491509150915091565b610e6a610e646111a2565b83611263565b610ea9576040517f08c379a0000000000000000000000000000000000000000000000000000000008152600401610ea090612fee565b60405180910390fd5b610eb5848484846118d4565b50505050565b6060610ec682611930565b9050919050565b6000600560008473ffffffffffffffffffffffffffffffffffffffff1673ffffffffffffffffffffffffffffffffffffffff16815260200190815260200160002060008373ffffffffffffffffffffffffffffffffffffffff1673ffffffffffffffffffffffffffffffffffffffff16815260200190815260200160002060009054906101000a900460ff16905092915050565b610f6961155e565b600073ffffffffffffffffffffffffffffffffffffffff168173ffffffffffffffffffffffffffffffffffffffff1603610fd8576040517f08c379a0000000000000000000000000000000000000000000000000000000008152600401610fcf90613308565b60405180910390fd5b610fe18161163f565b50565b60007f780e9d63000000000000000000000000000000000000000000000000000000007bffffffffffffffffffffffffffffffffffffffffffffffffffffffff1916827bffffffffffffffffffffffffffffffffffffffffffffffffffffffff19161480611057575061105682611a42565b5b9050919050565b611066610a9f565b156110a6576040517f08c379a000000000000000000000000000000000000000000000000000000000815260040161109d90613374565b60405180910390fd5b565b6001816000016000828254019250508190555050565b600081600001549050919050565b6110e6828260405180602001604052806000815250611b24565b5050565b6110f382611b7f565b611132576040517f08c379a000000000000000000000000000000000000000000000000000000000815260040161112990613406565b60405180910390fd5b80600a6000848152602001908152602001600020908161115291906135d2565b505050565b61116081611b7f565b61119f576040517f08c379a0000000000000000000000000000000000000000000000000000000008152600401611196906131ad565b60405180910390fd5b50565b600033905090565b816004600083815260200190815260200160002060006101000a81548173ffffffffffffffffffffffffffffffffffffffff021916908373ffffffffffffffffffffffffffffffffffffffff160217905550808273ffffffffffffffffffffffffffffffffffffffff1661121d83610ab6565b73ffffffffffffffffffffffffffffffffffffffff167f8c5be1e5ebec7d5bd14f71427d1e84f3dd0314c0f7b2291e5b200ac8c7c3b92560405160405180910390a45050565b60008061126f83610ab6565b90508073ffffffffffffffffffffffffffffffffffffffff168473ffffffffffffffffffffffffffffffffffffffff1614806112b157506112b08185610ecd565b5b806112ef57508373ffffffffffffffffffffffffffffffffffffffff166112d784610787565b73ffffffffffffffffffffffffffffffffffffffff16145b91505092915050565b8273ffffffffffffffffffffffffffffffffffffffff1661131882610ab6565b73ffffffffffffffffffffffffffffffffffffffff161461136e576040517f08c379a000000000000000000000000000000000000000000000000000000000815260040161136590613716565b60405180910390fd5b600073ffffffffffffffffffffffffffffffffffffffff168273ffffffffffffffffffffffffffffffffffffffff16036113dd576040517f08c379a00000000000000000000000000000000000000000000000000000000081526004016113d4906137a8565b60405180910390fd5b6113e8838383611beb565b6113f36000826111aa565b6001600360008573ffffffffffffffffffffffffffffffffffffffff1673ffffffffffffffffffffffffffffffffffffffff168152602001908152602001600020600082825461144391906137f7565b925050819055506001600360008473ffffffffffffffffffffffffffffffffffffffff1673ffffffffffffffffffffffffffffffffffffffff168152602001908152602001600020600082825461149a919061382b565b92505081905550816002600083815260200190815260200160002060006101000a81548173ffffffffffffffffffffffffffffffffffffffff021916908373ffffffffffffffffffffffffffffffffffffffff160217905550808273ffffffffffffffffffffffffffffffffffffffff168473ffffffffffffffffffffffffffffffffffffffff167fddf252ad1be2c89b69c2b068fc378daa952ba7f163c4a11628f55a4df523b3ef60405160405180910390a4611559838383611c03565b505050565b6115666111a2565b73ffffffffffffffffffffffffffffffffffffffff16611584610c9a565b73ffffffffffffffffffffffffffffffffffffffff16146115da576040517f08c379a00000000000000000000000000000000000000000000000000000000081526004016115d1906138ab565b60405180910390fd5b565b6115e4611c08565b6000600b60006101000a81548160ff0219169083151502179055507f5db9ee0a495bf2e6ff9c91a7834c1ba4fdd244a5e8aa4e537bd38aeae4b073aa6116286111a2565b6040516116359190612a1a565b60405180910390a1565b6000600b60019054906101000a900473ffffffffffffffffffffffffffffffffffffffff16905081600b60016101000a81548173ffffffffffffffffffffffffffffffffffffffff021916908373ffffffffffffffffffffffffffffffffffffffff1602179055508173ffffffffffffffffffffffffffffffffffffffff168173ffffffffffffffffffffffffffffffffffffffff167f8be0079c531659141344cd1fd0a4f28419497f9722a3daafe3b4186f6b6457e060405160405180910390a35050565b61170d61105e565b6001600b60006101000a81548160ff0219169083151502179055507f62e78cea01bee320cd4e420270b5ea74000d11b0c9f74754ebdbfc544b05a2586117516111a2565b60405161175e9190612a1a565b60405180910390a1565b8173ffffffffffffffffffffffffffffffffffffffff168373ffffffffffffffffffffffffffffffffffffffff16036117d6576040517f08c379a00000000000000000000000000000000000000000000000000000000081526004016117cd90613917565b60405180910390fd5b80600560008573ffffffffffffffffffffffffffffffffffffffff1673ffffffffffffffffffffffffffffffffffffffff16815260200190815260200160002060008473ffffffffffffffffffffffffffffffffffffffff1673ffffffffffffffffffffffffffffffffffffffff16815260200190815260200160002060006101000a81548160ff0219169083151502179055508173ffffffffffffffffffffffffffffffffffffffff168373ffffffffffffffffffffffffffffffffffffffff167f17307eab39ab6107e8899845ad3d59bd9653f200f220920489ca2b5937696c31836040516118c791906126ee565b60405180910390a3505050565b6118df8484846112f8565b6118eb84848484611c51565b61192a576040517f08c379a0000000000000000000000000000000000000000000000000000000008152600401611921906139a9565b60405180910390fd5b50505050565b606061193b82611157565b6000600a6000848152602001908152602001600020805461195b90612e27565b80601f016020809104026020016040519081016040528092919081815260200182805461198790612e27565b80156119d45780601f106119a9576101008083540402835291602001916119d4565b820191906000526020600020905b8154815290600101906020018083116119b757829003601f168201915b5050505050905060006119e5611dd8565b905060008151036119fa578192505050611a3d565b600082511115611a2f578082604051602001611a17929190613a05565b60405160208183030381529060405292505050611a3d565b611a3884611def565b925050505b919050565b60007f80ac58cd000000000000000000000000000000000000000000000000000000007bffffffffffffffffffffffffffffffffffffffffffffffffffffffff1916827bffffffffffffffffffffffffffffffffffffffffffffffffffffffff19161480611b0d57507f5b5e139f000000000000000000000000000000000000000000000000000000007bffffffffffffffffffffffffffffffffffffffffffffffffffffffff1916827bffffffffffffffffffffffffffffffffffffffffffffffffffffffff1916145b80611b1d5750611b1c82611e57565b5b9050919050565b611b2e8383611ec1565b611b3b6000848484611c51565b611b7a576040517f08c379a0000000000000000000000000000000000000000000000000000000008152600401611b71906139a9565b60405180910390fd5b505050565b60008073ffffffffffffffffffffffffffffffffffffffff166002600084815260200190815260200160002060009054906101000a900473ffffffffffffffffffffffffffffffffffffffff1673ffffffffffffffffffffffffffffffffffffffff1614159050919050565b611bf361105e565b611bfe83838361209a565b505050565b505050565b611c10610a9f565b611c4f576040517f08c379a0000000000000000000000000000000000000000000000000000000008152600401611c4690613a75565b60405180910390fd5b565b6000611c728473ffffffffffffffffffffffffffffffffffffffff166121ac565b15611dcb578373ffffffffffffffffffffffffffffffffffffffff1663150b7a02611c9b6111a2565b8786866040518563ffffffff1660e01b8152600401611cbd9493929190613aea565b6020604051808303816000875af1925050508015611cf957506040513d601f19601f82011682018060405250810190611cf69190613b4b565b60015b611d7b573d8060008114611d29576040519150601f19603f3d011682016040523d82523d6000602084013e611d2e565b606091505b506000815103611d73576040517f08c379a0000000000000000000000000000000000000000000000000000000008152600401611d6a906139a9565b60405180910390fd5b805181602001fd5b63150b7a0260e01b7bffffffffffffffffffffffffffffffffffffffffffffffffffffffff1916817bffffffffffffffffffffffffffffffffffffffffffffffffffffffff191614915050611dd0565b600190505b949350505050565b606060405180602001604052806000815250905090565b6060611dfa82611157565b6000611e04611dd8565b90506000815111611e245760405180602001604052806000815250611e4f565b80611e2e846121cf565b604051602001611e3f929190613a05565b6040516020818303038152906040525b915050919050565b60007f01ffc9a7000000000000000000000000000000000000000000000000000000007bffffffffffffffffffffffffffffffffffffffffffffffffffffffff1916827bffffffffffffffffffffffffffffffffffffffffffffffffffffffff1916149050919050565b600073ffffffffffffffffffffffffffffffffffffffff168273ffffffffffffffffffffffffffffffffffffffff1603611f30576040517f08c379a0000000000000000000000000000000000000000000000000000000008152600401611f2790613bc4565b60405180910390fd5b611f3981611b7f565b15611f79576040517f08c379a0000000000000000000000000000000000000000000000000000000008152600401611f7090613c30565b60405180910390fd5b611f8560008383611beb565b6001600360008473ffffffffffffffffffffffffffffffffffffffff1673ffffffffffffffffffffffffffffffffffffffff1681526020019081526020016000206000828254611fd5919061382b565b92505081905550816002600083815260200190815260200160002060006101000a81548173ffffffffffffffffffffffffffffffffffffffff021916908373ffffffffffffffffffffffffffffffffffffffff160217905550808273ffffffffffffffffffffffffffffffffffffffff16600073ffffffffffffffffffffffffffffffffffffffff167fddf252ad1be2c89b69c2b068fc378daa952ba7f163c4a11628f55a4df523b3ef60405160405180910390a461209660008383611c03565b5050565b6120a583838361232f565b600073ffffffffffffffffffffffffffffffffffffffff168373ffffffffffffffffffffffffffffffffffffffff16036120e7576120e281612334565b612126565b8173ffffffffffffffffffffffffffffffffffffffff168373ffffffffffffffffffffffffffffffffffffffff161461212557612124838261237d565b5b5b600073ffffffffffffffffffffffffffffffffffffffff168273ffffffffffffffffffffffffffffffffffffffff160361216857612163816124ea565b6121a7565b8273ffffffffffffffffffffffffffffffffffffffff168273ffffffffffffffffffffffffffffffffffffffff16146121a6576121a582826125bb565b5b5b505050565b6000808273ffffffffffffffffffffffffffffffffffffffff163b119050919050565b606060008203612216576040518060400160405280600181526020017f3000000000000000000000000000000000000000000000000000000000000000815250905061232a565b600082905060005b6000821461224857808061223190613c50565b915050600a826122419190613cc7565b915061221e565b60008167ffffffffffffffff81111561226457612263612724565b5b6040519080825280601f01601f1916602001820160405280156122965781602001600182028036833780820191505090505b5090505b60008514612323576001826122af91906137f7565b9150600a856122be9190613cf8565b60306122ca919061382b565b60f81b8183815181106122e0576122df613132565b5b60200101907effffffffffffffffffffffffffffffffffffffffffffffffffffffffffffff1916908160001a905350600a8561231c9190613cc7565b945061229a565b8093505050505b919050565b505050565b6008805490506009600083815260200190815260200160002081905550600881908060018154018082558091505060019003906000526020600020016000909190919091505550565b6000600161238a84610b67565b61239491906137f7565b9050600060076000848152602001908152602001600020549050818114612479576000600660008673ffffffffffffffffffffffffffffffffffffffff1673ffffffffffffffffffffffffffffffffffffffff168152602001908152602001600020600084815260200190815260200160002054905080600660008773ffffffffffffffffffffffffffffffffffffffff1673ffffffffffffffffffffffffffffffffffffffff168152602001908152602001600020600084815260200190815260200160002081905550816007600083815260200190815260200160002081905550505b6007600084815260200190815260200160002060009055600660008573ffffffffffffffffffffffffffffffffffffffff1673ffffffffffffffffffffffffffffffffffffffff16815260200190815260200160002060008381526020019081526020016000206000905550505050565b600060016008805490506124fe91906137f7565b905060006009600084815260200190815260200160002054905060006008838154811061252e5761252d613132565b5b9060005260206000200154905080600883815481106125505761254f613132565b5b90600052602060002001819055508160096000838152602001908152602001600020819055506009600085815260200190815260200160002060009055600880548061259f5761259e613d29565b5b6001900381819060005260206000200160009055905550505050565b60006125c683610b67565b905081600660008573ffffffffffffffffffffffffffffffffffffffff1673ffffffffffffffffffffffffffffffffffffffff168152602001908152602001600020600083815260200190815260200160002081905550806007600084815260200190815260200160002081905550505050565b6000604051905090565b600080fd5b600080fd5b60007fffffffff0000000000000000000000000000000000000000000000000000000082169050919050565b6126838161264e565b811461268e57600080fd5b50565b6000813590506126a08161267a565b92915050565b6000602082840312156126bc576126bb612644565b5b60006126ca84828501612691565b91505092915050565b60008115159050919050565b6126e8816126d3565b82525050565b600060208201905061270360008301846126df565b92915050565b600080fd5b600080fd5b6000601f19601f8301169050919050565b7f4e487b7100000000000000000000000000000000000000000000000000000000600052604160045260246000fd5b61275c82612713565b810181811067ffffffffffffffff8211171561277b5761277a612724565b5b80604052505050565b600061278e61263a565b905061279a8282612753565b919050565b600067ffffffffffffffff8211156127ba576127b9612724565b5b6127c382612713565b9050602081019050919050565b82818337600083830152505050565b60006127f26127ed8461279f565b612784565b90508281526020810184848401111561280e5761280d61270e565b5b6128198482856127d0565b509392505050565b600082601f83011261283657612835612709565b5b81356128468482602086016127df565b91505092915050565b6000819050919050565b6128628161284f565b811461286d57600080fd5b50565b60008135905061287f81612859565b92915050565b6000806040838503121561289c5761289b612644565b5b600083013567ffffffffffffffff8111156128ba576128b9612649565b5b6128c685828601612821565b92505060206128d785828601612870565b9150509250929050565b6128ea8161284f565b82525050565b600060208201905061290560008301846128e1565b92915050565b600081519050919050565b600082825260208201905092915050565b60005b8381101561294557808201518184015260208101905061292a565b60008484015250505050565b600061295c8261290b565b6129668185612916565b9350612976818560208601612927565b61297f81612713565b840191505092915050565b600060208201905081810360008301526129a48184612951565b905092915050565b6000602082840312156129c2576129c1612644565b5b60006129d084828501612870565b91505092915050565b600073ffffffffffffffffffffffffffffffffffffffff82169050919050565b6000612a04826129d9565b9050919050565b612a14816129f9565b82525050565b6000602082019050612a2f6000830184612a0b565b92915050565b612a3e816129f9565b8114612a4957600080fd5b50565b600081359050612a5b81612a35565b92915050565b60008060408385031215612a7857612a77612644565b5b6000612a8685828601612a4c565b9250506020612a9785828601612870565b9150509250929050565b600080600060608486031215612aba57612ab9612644565b5b6000612ac886828701612a4c565b9350506020612ad986828701612a4c565b9250506040612aea86828701612870565b9150509250925092565b600060208284031215612b0a57612b09612644565b5b6000612b1884828501612a4c565b91505092915050565b6000604082019050612b366000830185612a0b565b612b4360208301846128e1565b9392505050565b612b53816126d3565b8114612b5e57600080fd5b50565b600081359050612b7081612b4a565b92915050565b60008060408385031215612b8d57612b8c612644565b5b6000612b9b85828601612a4c565b9250506020612bac85828601612b61565b9150509250929050565b600067ffffffffffffffff821115612bd157612bd0612724565b5b612bda82612713565b9050602081019050919050565b6000612bfa612bf584612bb6565b612784565b905082815260208101848484011115612c1657612c1561270e565b5b612c218482856127d0565b509392505050565b600082601f830112612c3e57612c3d612709565b5b8135612c4e848260208601612be7565b91505092915050565b60008060008060808587031215612c7157612c70612644565b5b6000612c7f87828801612a4c565b9450506020612c9087828801612a4c565b9350506040612ca187828801612870565b925050606085013567ffffffffffffffff811115612cc257612cc1612649565b5b612cce87828801612c29565b91505092959194509250565b60008060408385031215612cf157612cf0612644565b5b6000612cff85828601612a4c565b9250506020612d1085828601612a4c565b9150509250929050565b7f526f79616c746965732070657263656e7461676520657863656564732074686560008201527f206d6178696d756d2076616c7565210000000000000000000000000000000000602082015250565b6000612d76602f83612916565b9150612d8182612d1a565b604082019050919050565b60006020820190508181036000830152612da581612d69565b9050919050565b6000608082019050612dc160008301876128e1565b612dce6020830186612a0b565b8181036040830152612de08185612951565b9050612def60608301846128e1565b95945050505050565b7f4e487b7100000000000000000000000000000000000000000000000000000000600052602260045260246000fd5b60006002820490506001821680612e3f57607f821691505b602082108103612e5257612e51612df8565b5b50919050565b7f4552433732313a20617070726f76616c20746f2063757272656e74206f776e6560008201527f7200000000000000000000000000000000000000000000000000000000000000602082015250565b6000612eb4602183612916565b9150612ebf82612e58565b604082019050919050565b60006020820190508181036000830152612ee381612ea7565b9050919050565b7f4552433732313a20617070726f76652063616c6c6572206973206e6f7420746f60008201527f6b656e206f776e6572206e6f7220617070726f76656420666f7220616c6c0000602082015250565b6000612f46603e83612916565b9150612f5182612eea565b604082019050919050565b60006020820190508181036000830152612f7581612f39565b9050919050565b7f4552433732313a2063616c6c6572206973206e6f7420746f6b656e206f776e6560008201527f72206e6f7220617070726f766564000000000000000000000000000000000000602082015250565b6000612fd8602e83612916565b9150612fe382612f7c565b604082019050919050565b6000602082019050818103600083015261300781612fcb565b9050919050565b7f455243373231456e756d657261626c653a206f776e657220696e646578206f7560008201527f74206f6620626f756e6473000000000000000000000000000000000000000000602082015250565b600061306a602b83612916565b91506130758261300e565b604082019050919050565b600060208201905081810360008301526130998161305d565b9050919050565b7f455243373231456e756d657261626c653a20676c6f62616c20696e646578206f60008201527f7574206f6620626f756e64730000000000000000000000000000000000000000602082015250565b60006130fc602c83612916565b9150613107826130a0565b604082019050919050565b6000602082019050818103600083015261312b816130ef565b9050919050565b7f4e487b7100000000000000000000000000000000000000000000000000000000600052603260045260246000fd5b7f4552433732313a20696e76616c696420746f6b656e2049440000000000000000600082015250565b6000613197601883612916565b91506131a282613161565b602082019050919050565b600060208201905081810360008301526131c68161318a565b9050919050565b7f4552433732313a2061646472657373207a65726f206973206e6f74206120766160008201527f6c6964206f776e65720000000000000000000000000000000000000000000000602082015250565b6000613229602983612916565b9150613234826131cd565b604082019050919050565b600060208201905081810360008301526132588161321c565b9050919050565b600060608201905061327460008301866128e1565b6132816020830185612a0b565b61328e60408301846128e1565b949350505050565b7f4f776e61626c653a206e6577206f776e657220697320746865207a65726f206160008201527f6464726573730000000000000000000000000000000000000000000000000000602082015250565b60006132f2602683612916565b91506132fd82613296565b604082019050919050565b60006020820190508181036000830152613321816132e5565b9050919050565b7f5061757361626c653a2070617573656400000000000000000000000000000000600082015250565b600061335e601083612916565b915061336982613328565b602082019050919050565b6000602082019050818103600083015261338d81613351565b9050919050565b7f45524337323155524953746f726167653a2055524920736574206f66206e6f6e60008201527f6578697374656e7420746f6b656e000000000000000000000000000000000000602082015250565b60006133f0602e83612916565b91506133fb82613394565b604082019050919050565b6000602082019050818103600083015261341f816133e3565b9050919050565b60008190508160005260206000209050919050565b60006020601f8301049050919050565b600082821b905092915050565b6000600883026134887fffffffffffffffffffffffffffffffffffffffffffffffffffffffffffffffff8261344b565b613492868361344b565b95508019841693508086168417925050509392505050565b6000819050919050565b60006134cf6134ca6134c58461284f565b6134aa565b61284f565b9050919050565b6000819050919050565b6134e9836134b4565b6134fd6134f5826134d6565b848454613458565b825550505050565b600090565b613512613505565b61351d8184846134e0565b505050565b5b818110156135415761353660008261350a565b600181019050613523565b5050565b601f8211156135865761355781613426565b6135608461343b565b8101602085101561356f578190505b61358361357b8561343b565b830182613522565b50505b505050565b600082821c905092915050565b60006135a96000198460080261358b565b1980831691505092915050565b60006135c28383613598565b9150826002028217905092915050565b6135db8261290b565b67ffffffffffffffff8111156135f4576135f3612724565b5b6135fe8254612e27565b613609828285613545565b600060209050601f83116001811461363c576000841561362a578287015190505b61363485826135b6565b86555061369c565b601f19841661364a86613426565b60005b828110156136725784890151825560018201915060208501945060208101905061364d565b8683101561368f578489015161368b601f891682613598565b8355505b6001600288020188555050505b505050505050565b7f4552433732313a207472616e736665722066726f6d20696e636f72726563742060008201527f6f776e6572000000000000000000000000000000000000000000000000000000602082015250565b6000613700602583612916565b915061370b826136a4565b604082019050919050565b6000602082019050818103600083015261372f816136f3565b9050919050565b7f4552433732313a207472616e7366657220746f20746865207a65726f2061646460008201527f7265737300000000000000000000000000000000000000000000000000000000602082015250565b6000613792602483612916565b915061379d82613736565b604082019050919050565b600060208201905081810360008301526137c181613785565b9050919050565b7f4e487b7100000000000000000000000000000000000000000000000000000000600052601160045260246000fd5b60006138028261284f565b915061380d8361284f565b9250828203905081811115613825576138246137c8565b5b92915050565b60006138368261284f565b91506138418361284f565b9250828201905080821115613859576138586137c8565b5b92915050565b7f4f776e61626c653a2063616c6c6572206973206e6f7420746865206f776e6572600082015250565b6000613895602083612916565b91506138a08261385f565b602082019050919050565b600060208201905081810360008301526138c481613888565b9050919050565b7f4552433732313a20617070726f766520746f2063616c6c657200000000000000600082015250565b6000613901601983612916565b915061390c826138cb565b602082019050919050565b60006020820190508181036000830152613930816138f4565b9050919050565b7f4552433732313a207472616e7366657220746f206e6f6e20455243373231526560008201527f63656976657220696d706c656d656e7465720000000000000000000000000000602082015250565b6000613993603283612916565b915061399e82613937565b604082019050919050565b600060208201905081810360008301526139c281613986565b9050919050565b600081905092915050565b60006139df8261290b565b6139e981856139c9565b93506139f9818560208601612927565b80840191505092915050565b6000613a1182856139d4565b9150613a1d82846139d4565b91508190509392505050565b7f5061757361626c653a206e6f7420706175736564000000000000000000000000600082015250565b6000613a5f601483612916565b9150613a6a82613a29565b602082019050919050565b60006020820190508181036000830152613a8e81613a52565b9050919050565b600081519050919050565b600082825260208201905092915050565b6000613abc82613a95565b613ac68185613aa0565b9350613ad6818560208601612927565b613adf81612713565b840191505092915050565b6000608082019050613aff6000830187612a0b565b613b0c6020830186612a0b565b613b1960408301856128e1565b8181036060830152613b2b8184613ab1565b905095945050505050565b600081519050613b458161267a565b92915050565b600060208284031215613b6157613b60612644565b5b6000613b6f84828501613b36565b91505092915050565b7f4552433732313a206d696e7420746f20746865207a65726f2061646472657373600082015250565b6000613bae602083612916565b9150613bb982613b78565b602082019050919050565b60006020820190508181036000830152613bdd81613ba1565b9050919050565b7f4552433732313a20746f6b656e20616c7265616479206d696e74656400000000600082015250565b6000613c1a601c83612916565b9150613c2582613be4565b602082019050919050565b60006020820190508181036000830152613c4981613c0d565b9050919050565b6000613c5b8261284f565b91507fffffffffffffffffffffffffffffffffffffffffffffffffffffffffffffffff8203613c8d57613c8c6137c8565b5b600182019050919050565b7f4e487b7100000000000000000000000000000000000000000000000000000000600052601260045260246000fd5b6000613cd28261284f565b9150613cdd8361284f565b925082613ced57613cec613c98565b5b828204905092915050565b6000613d038261284f565b9150613d0e8361284f565b925082613d1e57613d1d613c98565b5b828206905092915050565b7f4e487b7100000000000000000000000000000000000000000000000000000000600052603160045260246000fdfea26469706673582212200ce9736fce556274e39b6c70ed072050ab73fa105e56a6be5306335394feafbd64736f6c63430008100033",
  "linkReferences": {},
  "deployedLinkReferences": {}
}