{
  "_format": "hh-sol-artifact-1",
  "contractName": "LedaNFT",
  "sourceName": "contracts/LedaNFT.sol",
  "abi": [
    {
      "inputs": [
        {
          "internalType": "string",
          "name": "name",
          "type": "string"
        },
        {
          "internalType": "string",
          "name": "symbol",
          "type": "string"
        }
      ],
      "stateMutability": "nonpayable",
      "type": "constructor"
    },
    {
      "anonymous": false,
      "inputs": [
        {
          "indexed": true,
          "internalType": "address",
          "name": "owner",
          "type": "address"
        },
        {
          "indexed": true,
          "internalType": "address",
          "name": "approved",
          "type": "address"
        },
        {
          "indexed": true,
          "internalType": "uint256",
          "name": "tokenId",
          "type": "uint256"
        }
      ],
      "name": "Approval",
      "type": "event"
    },
    {
      "anonymous": false,
      "inputs": [
        {
          "indexed": true,
          "internalType": "address",
          "name": "owner",
          "type": "address"
        },
        {
          "indexed": true,
          "internalType": "address",
          "name": "operator",
          "type": "address"
        },
        {
          "indexed": false,
          "internalType": "bool",
          "name": "approved",
          "type": "bool"
        }
      ],
      "name": "ApprovalForAll",
      "type": "event"
    },
    {
      "anonymous": false,
      "inputs": [
        {
          "indexed": false,
          "internalType": "uint256",
          "name": "_idNFT",
          "type": "uint256"
        },
        {
          "indexed": false,
          "internalType": "address",
          "name": "_owner",
          "type": "address"
        },
        {
          "indexed": false,
          "internalType": "uint256",
          "name": "royalties",
          "type": "uint256"
        }
      ],
      "name": "LogGetCreator",
      "type": "event"
    },
    {
      "anonymous": false,
      "inputs": [
        {
          "indexed": false,
          "internalType": "uint256",
          "name": "_nftId",
          "type": "uint256"
        },
        {
          "indexed": false,
          "internalType": "address",
          "name": "_owner",
          "type": "address"
        },
        {
          "indexed": false,
          "internalType": "string",
          "name": "_nftURI",
          "type": "string"
        },
        {
          "indexed": false,
          "internalType": "uint256",
          "name": "_royalties",
          "type": "uint256"
        }
      ],
      "name": "LogNFTMinted",
      "type": "event"
    },
    {
      "anonymous": false,
      "inputs": [
        {
          "indexed": true,
          "internalType": "address",
          "name": "previousOwner",
          "type": "address"
        },
        {
          "indexed": true,
          "internalType": "address",
          "name": "newOwner",
          "type": "address"
        }
      ],
      "name": "OwnershipTransferred",
      "type": "event"
    },
    {
      "anonymous": false,
      "inputs": [
        {
          "indexed": false,
          "internalType": "address",
          "name": "account",
          "type": "address"
        }
      ],
      "name": "Paused",
      "type": "event"
    },
    {
      "anonymous": false,
      "inputs": [
        {
          "indexed": true,
          "internalType": "address",
          "name": "from",
          "type": "address"
        },
        {
          "indexed": true,
          "internalType": "address",
          "name": "to",
          "type": "address"
        },
        {
          "indexed": true,
          "internalType": "uint256",
          "name": "tokenId",
          "type": "uint256"
        }
      ],
      "name": "Transfer",
      "type": "event"
    },
    {
      "anonymous": false,
      "inputs": [
        {
          "indexed": false,
          "internalType": "address",
          "name": "account",
          "type": "address"
        }
      ],
      "name": "Unpaused",
      "type": "event"
    },
    {
      "inputs": [
        {
          "internalType": "address",
          "name": "to",
          "type": "address"
        },
        {
          "internalType": "uint256",
          "name": "tokenId",
          "type": "uint256"
        }
      ],
      "name": "approve",
      "outputs": [],
      "stateMutability": "nonpayable",
      "type": "function"
    },
    {
      "inputs": [
        {
          "internalType": "address",
          "name": "owner",
          "type": "address"
        }
      ],
      "name": "balanceOf",
      "outputs": [
        {
          "internalType": "uint256",
          "name": "",
          "type": "uint256"
        }
      ],
      "stateMutability": "view",
      "type": "function"
    },
    {
      "inputs": [
        {
          "internalType": "uint256",
          "name": "",
          "type": "uint256"
        }
      ],
      "name": "creatorInfo",
      "outputs": [
        {
          "internalType": "address",
          "name": "creator",
          "type": "address"
        },
        {
          "internalType": "uint256",
          "name": "royalties",
          "type": "uint256"
        }
      ],
      "stateMutability": "view",
      "type": "function"
    },
    {
      "inputs": [
        {
          "internalType": "uint256",
          "name": "tokenId",
          "type": "uint256"
        }
      ],
      "name": "getApproved",
      "outputs": [
        {
          "internalType": "address",
          "name": "",
          "type": "address"
        }
      ],
      "stateMutability": "view",
      "type": "function"
    },
    {
      "inputs": [
        {
          "internalType": "uint256",
          "name": "idNFT",
          "type": "uint256"
        }
      ],
      "name": "getCreatorAndRoyalties",
      "outputs": [
        {
          "internalType": "address",
          "name": "",
          "type": "address"
        },
        {
          "internalType": "uint256",
          "name": "",
          "type": "uint256"
        }
      ],
      "stateMutability": "nonpayable",
      "type": "function"
    },
    {
      "inputs": [
        {
          "internalType": "address",
          "name": "owner",
          "type": "address"
        },
        {
          "internalType": "address",
          "name": "operator",
          "type": "address"
        }
      ],
      "name": "isApprovedForAll",
      "outputs": [
        {
          "internalType": "bool",
          "name": "",
          "type": "bool"
        }
      ],
      "stateMutability": "view",
      "type": "function"
    },
    {
      "inputs": [],
      "name": "maxCreatorRoyalties",
      "outputs": [
        {
          "internalType": "uint256",
          "name": "",
          "type": "uint256"
        }
      ],
      "stateMutability": "view",
      "type": "function"
    },
    {
      "inputs": [
        {
          "internalType": "string",
          "name": "_tokenURI",
          "type": "string"
        },
        {
          "internalType": "uint256",
          "name": "_royaltiesPercentage",
          "type": "uint256"
        }
      ],
      "name": "mint",
      "outputs": [
        {
          "internalType": "uint256",
          "name": "",
          "type": "uint256"
        }
      ],
      "stateMutability": "nonpayable",
      "type": "function"
    },
    {
      "inputs": [],
      "name": "name",
      "outputs": [
        {
          "internalType": "string",
          "name": "",
          "type": "string"
        }
      ],
      "stateMutability": "view",
      "type": "function"
    },
    {
      "inputs": [],
      "name": "owner",
      "outputs": [
        {
          "internalType": "address",
          "name": "",
          "type": "address"
        }
      ],
      "stateMutability": "view",
      "type": "function"
    },
    {
      "inputs": [
        {
          "internalType": "uint256",
          "name": "tokenId",
          "type": "uint256"
        }
      ],
      "name": "ownerOf",
      "outputs": [
        {
          "internalType": "address",
          "name": "",
          "type": "address"
        }
      ],
      "stateMutability": "view",
      "type": "function"
    },
    {
      "inputs": [],
      "name": "pause",
      "outputs": [],
      "stateMutability": "nonpayable",
      "type": "function"
    },
    {
      "inputs": [],
      "name": "paused",
      "outputs": [
        {
          "internalType": "bool",
          "name": "",
          "type": "bool"
        }
      ],
      "stateMutability": "view",
      "type": "function"
    },
    {
      "inputs": [],
      "name": "renounceOwnership",
      "outputs": [],
      "stateMutability": "nonpayable",
      "type": "function"
    },
    {
      "inputs": [
        {
          "internalType": "address",
          "name": "from",
          "type": "address"
        },
        {
          "internalType": "address",
          "name": "to",
          "type": "address"
        },
        {
          "internalType": "uint256",
          "name": "tokenId",
          "type": "uint256"
        }
      ],
      "name": "safeTransferFrom",
      "outputs": [],
      "stateMutability": "nonpayable",
      "type": "function"
    },
    {
      "inputs": [
        {
          "internalType": "address",
          "name": "from",
          "type": "address"
        },
        {
          "internalType": "address",
          "name": "to",
          "type": "address"
        },
        {
          "internalType": "uint256",
          "name": "tokenId",
          "type": "uint256"
        },
        {
          "internalType": "bytes",
          "name": "data",
          "type": "bytes"
        }
      ],
      "name": "safeTransferFrom",
      "outputs": [],
      "stateMutability": "nonpayable",
      "type": "function"
    },
    {
      "inputs": [
        {
          "internalType": "address",
          "name": "operator",
          "type": "address"
        },
        {
          "internalType": "bool",
          "name": "approved",
          "type": "bool"
        }
      ],
      "name": "setApprovalForAll",
      "outputs": [],
      "stateMutability": "nonpayable",
      "type": "function"
    },
    {
      "inputs": [
        {
          "internalType": "uint256",
          "name": "_maxCreatorRoyalties",
          "type": "uint256"
        }
      ],
      "name": "setMaxCreatorRoyalties",
      "outputs": [],
      "stateMutability": "nonpayable",
      "type": "function"
    },
    {
      "inputs": [
        {
          "internalType": "bytes4",
          "name": "interfaceId",
          "type": "bytes4"
        }
      ],
      "name": "supportsInterface",
      "outputs": [
        {
          "internalType": "bool",
          "name": "",
          "type": "bool"
        }
      ],
      "stateMutability": "view",
      "type": "function"
    },
    {
      "inputs": [],
      "name": "symbol",
      "outputs": [
        {
          "internalType": "string",
          "name": "",
          "type": "string"
        }
      ],
      "stateMutability": "view",
      "type": "function"
    },
    {
      "inputs": [
        {
          "internalType": "uint256",
          "name": "index",
          "type": "uint256"
        }
      ],
      "name": "tokenByIndex",
      "outputs": [
        {
          "internalType": "uint256",
          "name": "",
          "type": "uint256"
        }
      ],
      "stateMutability": "view",
      "type": "function"
    },
    {
      "inputs": [],
      "name": "tokenCount",
      "outputs": [
        {
          "internalType": "uint256",
          "name": "_value",
          "type": "uint256"
        }
      ],
      "stateMutability": "view",
      "type": "function"
    },
    {
      "inputs": [
        {
          "internalType": "address",
          "name": "owner",
          "type": "address"
        },
        {
          "internalType": "uint256",
          "name": "index",
          "type": "uint256"
        }
      ],
      "name": "tokenOfOwnerByIndex",
      "outputs": [
        {
          "internalType": "uint256",
          "name": "",
          "type": "uint256"
        }
      ],
      "stateMutability": "view",
      "type": "function"
    },
    {
      "inputs": [
        {
          "internalType": "uint256",
          "name": "tokenId",
          "type": "uint256"
        }
      ],
      "name": "tokenURI",
      "outputs": [
        {
          "internalType": "string",
          "name": "",
          "type": "string"
        }
      ],
      "stateMutability": "view",
      "type": "function"
    },
    {
      "inputs": [],
      "name": "totalSupply",
      "outputs": [
        {
          "internalType": "uint256",
          "name": "",
          "type": "uint256"
        }
      ],
      "stateMutability": "view",
      "type": "function"
    },
    {
      "inputs": [
        {
          "internalType": "address",
          "name": "from",
          "type": "address"
        },
        {
          "internalType": "address",
          "name": "to",
          "type": "address"
        },
        {
          "internalType": "uint256",
          "name": "tokenId",
          "type": "uint256"
        }
      ],
      "name": "transferFrom",
      "outputs": [],
      "stateMutability": "nonpayable",
      "type": "function"
    },
    {
      "inputs": [
        {
          "internalType": "address",
          "name": "newOwner",
          "type": "address"
        }
      ],
      "name": "transferOwnership",
      "outputs": [],
      "stateMutability": "nonpayable",
      "type": "function"
    },
    {
      "inputs": [],
      "name": "unpause",
      "outputs": [],
      "stateMutability": "nonpayable",
      "type": "function"
    }
  ],
  "bytecode": "0x60806040523480156200001157600080fd5b506040516200452938038062004529833981810160405281019062000037919062000313565b818181600090816200004a9190620005e3565b5080600190816200005c9190620005e3565b50505060016006819055506000600c60006101000a81548160ff021916908315150217905550620000a262000096620000b260201b60201c565b620000ba60201b60201c565b6064600e819055505050620006ca565b600033905090565b6000600c60019054906101000a900473ffffffffffffffffffffffffffffffffffffffff16905081600c60016101000a81548173ffffffffffffffffffffffffffffffffffffffff021916908373ffffffffffffffffffffffffffffffffffffffff1602179055508173ffffffffffffffffffffffffffffffffffffffff168173ffffffffffffffffffffffffffffffffffffffff167f8be0079c531659141344cd1fd0a4f28419497f9722a3daafe3b4186f6b6457e060405160405180910390a35050565b6000604051905090565b600080fd5b600080fd5b600080fd5b600080fd5b6000601f19601f8301169050919050565b7f4e487b7100000000000000000000000000000000000000000000000000000000600052604160045260246000fd5b620001e9826200019e565b810181811067ffffffffffffffff821117156200020b576200020a620001af565b5b80604052505050565b60006200022062000180565b90506200022e8282620001de565b919050565b600067ffffffffffffffff821115620002515762000250620001af565b5b6200025c826200019e565b9050602081019050919050565b60005b83811015620002895780820151818401526020810190506200026c565b60008484015250505050565b6000620002ac620002a68462000233565b62000214565b905082815260208101848484011115620002cb57620002ca62000199565b5b620002d884828562000269565b509392505050565b600082601f830112620002f857620002f762000194565b5b81516200030a84826020860162000295565b91505092915050565b600080604083850312156200032d576200032c6200018a565b5b600083015167ffffffffffffffff8111156200034e576200034d6200018f565b5b6200035c85828601620002e0565b925050602083015167ffffffffffffffff81111562000380576200037f6200018f565b5b6200038e85828601620002e0565b9150509250929050565b600081519050919050565b7f4e487b7100000000000000000000000000000000000000000000000000000000600052602260045260246000fd5b60006002820490506001821680620003eb57607f821691505b602082108103620004015762000400620003a3565b5b50919050565b60008190508160005260206000209050919050565b60006020601f8301049050919050565b600082821b905092915050565b6000600883026200046b7fffffffffffffffffffffffffffffffffffffffffffffffffffffffffffffffff826200042c565b6200047786836200042c565b95508019841693508086168417925050509392505050565b6000819050919050565b6000819050919050565b6000620004c4620004be620004b8846200048f565b62000499565b6200048f565b9050919050565b6000819050919050565b620004e083620004a3565b620004f8620004ef82620004cb565b84845462000439565b825550505050565b600090565b6200050f62000500565b6200051c818484620004d5565b505050565b5b8181101562000544576200053860008262000505565b60018101905062000522565b5050565b601f82111562000593576200055d8162000407565b62000568846200041c565b8101602085101562000578578190505b6200059062000587856200041c565b83018262000521565b50505b505050565b600082821c905092915050565b6000620005b86000198460080262000598565b1980831691505092915050565b6000620005d38383620005a5565b9150826002028217905092915050565b620005ee8262000398565b67ffffffffffffffff8111156200060a5762000609620001af565b5b620006168254620003d2565b6200062382828562000548565b600060209050601f8311600181146200065b576000841562000646578287015190505b620006528582620005c5565b865550620006c2565b601f1984166200066b8662000407565b60005b8281101562000695578489015182556001820191506020850194506020810190506200066e565b86831015620006b55784890151620006b1601f891682620005a5565b8355505b6001600288020188555050505b505050505050565b613e4f80620006da6000396000f3fe608060405234801561001057600080fd5b50600436106101c45760003560e01c806370a08231116100f95780639f181b5e11610097578063b88d4fde11610071578063b88d4fde146104f7578063c87b56dd14610513578063e985e9c514610543578063f2fde38b14610573576101c4565b80639f181b5e1461048c578063a22cb465146104aa578063b561f03e146104c6576101c4565b80637e554ba0116100d35780637e554ba01461042a5780638456cb59146104465780638da5cb5b1461045057806395d89b411461046e576101c4565b806370a08231146103bf578063715018a6146103ef57806378b0a24e146103f9576101c4565b80632f745c591161016657806342842e0e1161014057806342842e0e146103255780634f6ccce7146103415780635c975abb146103715780636352211e1461038f576101c4565b80632f745c59146102cd5780633f4ba83a146102fd5780633fb4b69314610307576101c4565b8063081812fc116101a2578063081812fc14610247578063095ea7b31461027757806318160ddd1461029357806323b872dd146102b1576101c4565b806301ffc9a7146101c9578063056b01ce146101f957806306fdde0314610229575b600080fd5b6101e360048036038101906101de91906126fb565b61058f565b6040516101f09190612743565b60405180910390f35b610213600480360381019061020e91906128da565b6105a1565b6040516102209190612945565b60405180910390f35b61023161074a565b60405161023e91906129df565b60405180910390f35b610261600480360381019061025c9190612a01565b6107dc565b60405161026e9190612a6f565b60405180910390f35b610291600480360381019061028c9190612ab6565b610822565b005b61029b610939565b6040516102a89190612945565b60405180910390f35b6102cb60048036038101906102c69190612af6565b610946565b005b6102e760048036038101906102e29190612ab6565b6109a6565b6040516102f49190612945565b60405180910390f35b610305610a4b565b005b61030f610a5d565b60405161031c9190612945565b60405180910390f35b61033f600480360381019061033a9190612af6565b610a63565b005b61035b60048036038101906103569190612a01565b610a83565b6040516103689190612945565b60405180910390f35b610379610af4565b6040516103869190612743565b60405180910390f35b6103a960048036038101906103a49190612a01565b610b0b565b6040516103b69190612a6f565b60405180910390f35b6103d960048036038101906103d49190612b49565b610bbc565b6040516103e69190612945565b60405180910390f35b6103f7610c73565b005b610413600480360381019061040e9190612a01565b610c87565b604051610421929190612b76565b60405180910390f35b610444600480360381019061043f9190612a01565b610ccb565b005b61044e610cdd565b005b610458610cef565b6040516104659190612a6f565b60405180910390f35b610476610d19565b60405161048391906129df565b60405180910390f35b610494610dab565b6040516104a19190612945565b60405180910390f35b6104c460048036038101906104bf9190612bcb565b610db7565b005b6104e060048036038101906104db9190612a01565b610dcd565b6040516104ee929190612b76565b60405180910390f35b610511600480360381019061050c9190612cac565b610eae565b005b61052d60048036038101906105289190612a01565b610f10565b60405161053a91906129df565b60405180910390f35b61055d60048036038101906105589190612d2f565b610f22565b60405161056a9190612743565b60405180910390f35b61058d60048036038101906105889190612b49565b610fb6565b005b600061059a82611039565b9050919050565b60006105ab6110b3565b6002600654036105f0576040517f08c379a00000000000000000000000000000000000000000000000000000000081526004016105e790612dbb565b60405180910390fd5b6002600681905550600e5482111561063d576040517f08c379a000000000000000000000000000000000000000000000000000000000815260040161063490612e4d565b60405180910390fd5b610647600d6110fd565b6000610653600d611113565b905060405180604001604052803373ffffffffffffffffffffffffffffffffffffffff16815260200184815250600f600083815260200190815260200160002060008201518160000160006101000a81548173ffffffffffffffffffffffffffffffffffffffff021916908373ffffffffffffffffffffffffffffffffffffffff160217905550602082015181600101559050506106f13382611121565b6106fb818561113f565b7f0a87c421f7b51fcf9008064b31bb04f137ea9ec7c7a7d2dca02ae6380ef2a914813386866040516107309493929190612e6d565b60405180910390a180915050600160068190555092915050565b60606000805461075990612ee8565b80601f016020809104026020016040519081016040528092919081815260200182805461078590612ee8565b80156107d25780601f106107a7576101008083540402835291602001916107d2565b820191906000526020600020905b8154815290600101906020018083116107b557829003601f168201915b5050505050905090565b60006107e7826111ac565b6004600083815260200190815260200160002060009054906101000a900473ffffffffffffffffffffffffffffffffffffffff169050919050565b600061082d82610b0b565b90508073ffffffffffffffffffffffffffffffffffffffff168373ffffffffffffffffffffffffffffffffffffffff160361089d576040517f08c379a000000000000000000000000000000000000000000000000000000000815260040161089490612f8b565b60405180910390fd5b8073ffffffffffffffffffffffffffffffffffffffff166108bc6111f7565b73ffffffffffffffffffffffffffffffffffffffff1614806108eb57506108ea816108e56111f7565b610f22565b5b61092a576040517f08c379a00000000000000000000000000000000000000000000000000000000081526004016109219061301d565b60405180910390fd5b61093483836111ff565b505050565b6000600980549050905090565b6109576109516111f7565b826112b8565b610996576040517f08c379a000000000000000000000000000000000000000000000000000000000815260040161098d906130af565b60405180910390fd5b6109a183838361134d565b505050565b60006109b183610bbc565b82106109f2576040517f08c379a00000000000000000000000000000000000000000000000000000000081526004016109e990613141565b60405180910390fd5b600760008473ffffffffffffffffffffffffffffffffffffffff1673ffffffffffffffffffffffffffffffffffffffff168152602001908152602001600020600083815260200190815260200160002054905092915050565b610a536115b3565b610a5b611631565b565b600e5481565b610a7e83838360405180602001604052806000815250610eae565b505050565b6000610a8d610939565b8210610ace576040517f08c379a0000000000000000000000000000000000000000000000000000000008152600401610ac5906131d3565b60405180910390fd5b60098281548110610ae257610ae16131f3565b5b90600052602060002001549050919050565b6000600c60009054906101000a900460ff16905090565b6000806002600084815260200190815260200160002060009054906101000a900473ffffffffffffffffffffffffffffffffffffffff169050600073ffffffffffffffffffffffffffffffffffffffff168173ffffffffffffffffffffffffffffffffffffffff1603610bb3576040517f08c379a0000000000000000000000000000000000000000000000000000000008152600401610baa9061326e565b60405180910390fd5b80915050919050565b60008073ffffffffffffffffffffffffffffffffffffffff168273ffffffffffffffffffffffffffffffffffffffff1603610c2c576040517f08c379a0000000000000000000000000000000000000000000000000000000008152600401610c2390613300565b60405180910390fd5b600360008373ffffffffffffffffffffffffffffffffffffffff1673ffffffffffffffffffffffffffffffffffffffff168152602001908152602001600020549050919050565b610c7b6115b3565b610c856000611694565b565b600f6020528060005260406000206000915090508060000160009054906101000a900473ffffffffffffffffffffffffffffffffffffffff16908060010154905082565b610cd36115b3565b80600e8190555050565b610ce56115b3565b610ced61175a565b565b6000600c60019054906101000a900473ffffffffffffffffffffffffffffffffffffffff16905090565b606060018054610d2890612ee8565b80601f0160208091040260200160405190810160405280929190818152602001828054610d5490612ee8565b8015610da15780601f10610d7657610100808354040283529160200191610da1565b820191906000526020600020905b815481529060010190602001808311610d8457829003601f168201915b5050505050905090565b600d8060000154905081565b610dc9610dc26111f7565b83836117bd565b5050565b6000807f81af20f71001dbcc140abad4506021122ff22268b0cbce57a533e0b10cba4fc083600f600086815260200190815260200160002060000160009054906101000a900473ffffffffffffffffffffffffffffffffffffffff16600f600087815260200190815260200160002060010154604051610e4f93929190613320565b60405180910390a1600f600084815260200190815260200160002060000160009054906101000a900473ffffffffffffffffffffffffffffffffffffffff16600f60008581526020019081526020016000206001015491509150915091565b610ebf610eb96111f7565b836112b8565b610efe576040517f08c379a0000000000000000000000000000000000000000000000000000000008152600401610ef5906130af565b60405180910390fd5b610f0a84848484611929565b50505050565b6060610f1b82611985565b9050919050565b6000600560008473ffffffffffffffffffffffffffffffffffffffff1673ffffffffffffffffffffffffffffffffffffffff16815260200190815260200160002060008373ffffffffffffffffffffffffffffffffffffffff1673ffffffffffffffffffffffffffffffffffffffff16815260200190815260200160002060009054906101000a900460ff16905092915050565b610fbe6115b3565b600073ffffffffffffffffffffffffffffffffffffffff168173ffffffffffffffffffffffffffffffffffffffff160361102d576040517f08c379a0000000000000000000000000000000000000000000000000000000008152600401611024906133c9565b60405180910390fd5b61103681611694565b50565b60007f780e9d63000000000000000000000000000000000000000000000000000000007bffffffffffffffffffffffffffffffffffffffffffffffffffffffff1916827bffffffffffffffffffffffffffffffffffffffffffffffffffffffff191614806110ac57506110ab82611a97565b5b9050919050565b6110bb610af4565b156110fb576040517f08c379a00000000000000000000000000000000000000000000000000000000081526004016110f290613435565b60405180910390fd5b565b6001816000016000828254019250508190555050565b600081600001549050919050565b61113b828260405180602001604052806000815250611b79565b5050565b61114882611bd4565b611187576040517f08c379a000000000000000000000000000000000000000000000000000000000815260040161117e906134c7565b60405180910390fd5b80600b600084815260200190815260200160002090816111a79190613693565b505050565b6111b581611bd4565b6111f4576040517f08c379a00000000000000000000000000000000000000000000000000000000081526004016111eb9061326e565b60405180910390fd5b50565b600033905090565b816004600083815260200190815260200160002060006101000a81548173ffffffffffffffffffffffffffffffffffffffff021916908373ffffffffffffffffffffffffffffffffffffffff160217905550808273ffffffffffffffffffffffffffffffffffffffff1661127283610b0b565b73ffffffffffffffffffffffffffffffffffffffff167f8c5be1e5ebec7d5bd14f71427d1e84f3dd0314c0f7b2291e5b200ac8c7c3b92560405160405180910390a45050565b6000806112c483610b0b565b90508073ffffffffffffffffffffffffffffffffffffffff168473ffffffffffffffffffffffffffffffffffffffff16148061130657506113058185610f22565b5b8061134457508373ffffffffffffffffffffffffffffffffffffffff1661132c846107dc565b73ffffffffffffffffffffffffffffffffffffffff16145b91505092915050565b8273ffffffffffffffffffffffffffffffffffffffff1661136d82610b0b565b73ffffffffffffffffffffffffffffffffffffffff16146113c3576040517f08c379a00000000000000000000000000000000000000000000000000000000081526004016113ba906137d7565b60405180910390fd5b600073ffffffffffffffffffffffffffffffffffffffff168273ffffffffffffffffffffffffffffffffffffffff1603611432576040517f08c379a000000000000000000000000000000000000000000000000000000000815260040161142990613869565b60405180910390fd5b61143d838383611c40565b6114486000826111ff565b6001600360008573ffffffffffffffffffffffffffffffffffffffff1673ffffffffffffffffffffffffffffffffffffffff168152602001908152602001600020600082825461149891906138b8565b925050819055506001600360008473ffffffffffffffffffffffffffffffffffffffff1673ffffffffffffffffffffffffffffffffffffffff16815260200190815260200160002060008282546114ef91906138ec565b92505081905550816002600083815260200190815260200160002060006101000a81548173ffffffffffffffffffffffffffffffffffffffff021916908373ffffffffffffffffffffffffffffffffffffffff160217905550808273ffffffffffffffffffffffffffffffffffffffff168473ffffffffffffffffffffffffffffffffffffffff167fddf252ad1be2c89b69c2b068fc378daa952ba7f163c4a11628f55a4df523b3ef60405160405180910390a46115ae838383611c58565b505050565b6115bb6111f7565b73ffffffffffffffffffffffffffffffffffffffff166115d9610cef565b73ffffffffffffffffffffffffffffffffffffffff161461162f576040517f08c379a00000000000000000000000000000000000000000000000000000000081526004016116269061396c565b60405180910390fd5b565b611639611c5d565b6000600c60006101000a81548160ff0219169083151502179055507f5db9ee0a495bf2e6ff9c91a7834c1ba4fdd244a5e8aa4e537bd38aeae4b073aa61167d6111f7565b60405161168a9190612a6f565b60405180910390a1565b6000600c60019054906101000a900473ffffffffffffffffffffffffffffffffffffffff16905081600c60016101000a81548173ffffffffffffffffffffffffffffffffffffffff021916908373ffffffffffffffffffffffffffffffffffffffff1602179055508173ffffffffffffffffffffffffffffffffffffffff168173ffffffffffffffffffffffffffffffffffffffff167f8be0079c531659141344cd1fd0a4f28419497f9722a3daafe3b4186f6b6457e060405160405180910390a35050565b6117626110b3565b6001600c60006101000a81548160ff0219169083151502179055507f62e78cea01bee320cd4e420270b5ea74000d11b0c9f74754ebdbfc544b05a2586117a66111f7565b6040516117b39190612a6f565b60405180910390a1565b8173ffffffffffffffffffffffffffffffffffffffff168373ffffffffffffffffffffffffffffffffffffffff160361182b576040517f08c379a0000000000000000000000000000000000000000000000000000000008152600401611822906139d8565b60405180910390fd5b80600560008573ffffffffffffffffffffffffffffffffffffffff1673ffffffffffffffffffffffffffffffffffffffff16815260200190815260200160002060008473ffffffffffffffffffffffffffffffffffffffff1673ffffffffffffffffffffffffffffffffffffffff16815260200190815260200160002060006101000a81548160ff0219169083151502179055508173ffffffffffffffffffffffffffffffffffffffff168373ffffffffffffffffffffffffffffffffffffffff167f17307eab39ab6107e8899845ad3d59bd9653f200f220920489ca2b5937696c318360405161191c9190612743565b60405180910390a3505050565b61193484848461134d565b61194084848484611ca6565b61197f576040517f08c379a000000000000000000000000000000000000000000000000000000000815260040161197690613a6a565b60405180910390fd5b50505050565b6060611990826111ac565b6000600b600084815260200190815260200160002080546119b090612ee8565b80601f01602080910402602001604051908101604052809291908181526020018280546119dc90612ee8565b8015611a295780601f106119fe57610100808354040283529160200191611a29565b820191906000526020600020905b815481529060010190602001808311611a0c57829003601f168201915b505050505090506000611a3a611e2d565b90506000815103611a4f578192505050611a92565b600082511115611a84578082604051602001611a6c929190613ac6565b60405160208183030381529060405292505050611a92565b611a8d84611e44565b925050505b919050565b60007f80ac58cd000000000000000000000000000000000000000000000000000000007bffffffffffffffffffffffffffffffffffffffffffffffffffffffff1916827bffffffffffffffffffffffffffffffffffffffffffffffffffffffff19161480611b6257507f5b5e139f000000000000000000000000000000000000000000000000000000007bffffffffffffffffffffffffffffffffffffffffffffffffffffffff1916827bffffffffffffffffffffffffffffffffffffffffffffffffffffffff1916145b80611b725750611b7182611eac565b5b9050919050565b611b838383611f16565b611b906000848484611ca6565b611bcf576040517f08c379a0000000000000000000000000000000000000000000000000000000008152600401611bc690613a6a565b60405180910390fd5b505050565b60008073ffffffffffffffffffffffffffffffffffffffff166002600084815260200190815260200160002060009054906101000a900473ffffffffffffffffffffffffffffffffffffffff1673ffffffffffffffffffffffffffffffffffffffff1614159050919050565b611c486110b3565b611c538383836120ef565b505050565b505050565b611c65610af4565b611ca4576040517f08c379a0000000000000000000000000000000000000000000000000000000008152600401611c9b90613b36565b60405180910390fd5b565b6000611cc78473ffffffffffffffffffffffffffffffffffffffff16612201565b15611e20578373ffffffffffffffffffffffffffffffffffffffff1663150b7a02611cf06111f7565b8786866040518563ffffffff1660e01b8152600401611d129493929190613bab565b6020604051808303816000875af1925050508015611d4e57506040513d601f19601f82011682018060405250810190611d4b9190613c0c565b60015b611dd0573d8060008114611d7e576040519150601f19603f3d011682016040523d82523d6000602084013e611d83565b606091505b506000815103611dc8576040517f08c379a0000000000000000000000000000000000000000000000000000000008152600401611dbf90613a6a565b60405180910390fd5b805181602001fd5b63150b7a0260e01b7bffffffffffffffffffffffffffffffffffffffffffffffffffffffff1916817bffffffffffffffffffffffffffffffffffffffffffffffffffffffff191614915050611e25565b600190505b949350505050565b606060405180602001604052806000815250905090565b6060611e4f826111ac565b6000611e59611e2d565b90506000815111611e795760405180602001604052806000815250611ea4565b80611e8384612224565b604051602001611e94929190613ac6565b6040516020818303038152906040525b915050919050565b60007f01ffc9a7000000000000000000000000000000000000000000000000000000007bffffffffffffffffffffffffffffffffffffffffffffffffffffffff1916827bffffffffffffffffffffffffffffffffffffffffffffffffffffffff1916149050919050565b600073ffffffffffffffffffffffffffffffffffffffff168273ffffffffffffffffffffffffffffffffffffffff1603611f85576040517f08c379a0000000000000000000000000000000000000000000000000000000008152600401611f7c90613c85565b60405180910390fd5b611f8e81611bd4565b15611fce576040517f08c379a0000000000000000000000000000000000000000000000000000000008152600401611fc590613cf1565b60405180910390fd5b611fda60008383611c40565b6001600360008473ffffffffffffffffffffffffffffffffffffffff1673ffffffffffffffffffffffffffffffffffffffff168152602001908152602001600020600082825461202a91906138ec565b92505081905550816002600083815260200190815260200160002060006101000a81548173ffffffffffffffffffffffffffffffffffffffff021916908373ffffffffffffffffffffffffffffffffffffffff160217905550808273ffffffffffffffffffffffffffffffffffffffff16600073ffffffffffffffffffffffffffffffffffffffff167fddf252ad1be2c89b69c2b068fc378daa952ba7f163c4a11628f55a4df523b3ef60405160405180910390a46120eb60008383611c58565b5050565b6120fa838383612384565b600073ffffffffffffffffffffffffffffffffffffffff168373ffffffffffffffffffffffffffffffffffffffff160361213c5761213781612389565b61217b565b8173ffffffffffffffffffffffffffffffffffffffff168373ffffffffffffffffffffffffffffffffffffffff161461217a5761217983826123d2565b5b5b600073ffffffffffffffffffffffffffffffffffffffff168273ffffffffffffffffffffffffffffffffffffffff16036121bd576121b88161253f565b6121fc565b8273ffffffffffffffffffffffffffffffffffffffff168273ffffffffffffffffffffffffffffffffffffffff16146121fb576121fa8282612610565b5b5b505050565b6000808273ffffffffffffffffffffffffffffffffffffffff163b119050919050565b60606000820361226b576040518060400160405280600181526020017f3000000000000000000000000000000000000000000000000000000000000000815250905061237f565b600082905060005b6000821461229d57808061228690613d11565b915050600a826122969190613d88565b9150612273565b60008167ffffffffffffffff8111156122b9576122b8612779565b5b6040519080825280601f01601f1916602001820160405280156122eb5781602001600182028036833780820191505090505b5090505b600085146123785760018261230491906138b8565b9150600a856123139190613db9565b603061231f91906138ec565b60f81b818381518110612335576123346131f3565b5b60200101907effffffffffffffffffffffffffffffffffffffffffffffffffffffffffffff1916908160001a905350600a856123719190613d88565b94506122ef565b8093505050505b919050565b505050565b600980549050600a600083815260200190815260200160002081905550600981908060018154018082558091505060019003906000526020600020016000909190919091505550565b600060016123df84610bbc565b6123e991906138b8565b90506000600860008481526020019081526020016000205490508181146124ce576000600760008673ffffffffffffffffffffffffffffffffffffffff1673ffffffffffffffffffffffffffffffffffffffff168152602001908152602001600020600084815260200190815260200160002054905080600760008773ffffffffffffffffffffffffffffffffffffffff1673ffffffffffffffffffffffffffffffffffffffff168152602001908152602001600020600084815260200190815260200160002081905550816008600083815260200190815260200160002081905550505b6008600084815260200190815260200160002060009055600760008573ffffffffffffffffffffffffffffffffffffffff1673ffffffffffffffffffffffffffffffffffffffff16815260200190815260200160002060008381526020019081526020016000206000905550505050565b6000600160098054905061255391906138b8565b90506000600a6000848152602001908152602001600020549050600060098381548110612583576125826131f3565b5b9060005260206000200154905080600983815481106125a5576125a46131f3565b5b906000526020600020018190555081600a600083815260200190815260200160002081905550600a60008581526020019081526020016000206000905560098054806125f4576125f3613dea565b5b6001900381819060005260206000200160009055905550505050565b600061261b83610bbc565b905081600760008573ffffffffffffffffffffffffffffffffffffffff1673ffffffffffffffffffffffffffffffffffffffff168152602001908152602001600020600083815260200190815260200160002081905550806008600084815260200190815260200160002081905550505050565b6000604051905090565b600080fd5b600080fd5b60007fffffffff0000000000000000000000000000000000000000000000000000000082169050919050565b6126d8816126a3565b81146126e357600080fd5b50565b6000813590506126f5816126cf565b92915050565b60006020828403121561271157612710612699565b5b600061271f848285016126e6565b91505092915050565b60008115159050919050565b61273d81612728565b82525050565b60006020820190506127586000830184612734565b92915050565b600080fd5b600080fd5b6000601f19601f8301169050919050565b7f4e487b7100000000000000000000000000000000000000000000000000000000600052604160045260246000fd5b6127b182612768565b810181811067ffffffffffffffff821117156127d0576127cf612779565b5b80604052505050565b60006127e361268f565b90506127ef82826127a8565b919050565b600067ffffffffffffffff82111561280f5761280e612779565b5b61281882612768565b9050602081019050919050565b82818337600083830152505050565b6000612847612842846127f4565b6127d9565b90508281526020810184848401111561286357612862612763565b5b61286e848285612825565b509392505050565b600082601f83011261288b5761288a61275e565b5b813561289b848260208601612834565b91505092915050565b6000819050919050565b6128b7816128a4565b81146128c257600080fd5b50565b6000813590506128d4816128ae565b92915050565b600080604083850312156128f1576128f0612699565b5b600083013567ffffffffffffffff81111561290f5761290e61269e565b5b61291b85828601612876565b925050602061292c858286016128c5565b9150509250929050565b61293f816128a4565b82525050565b600060208201905061295a6000830184612936565b92915050565b600081519050919050565b600082825260208201905092915050565b60005b8381101561299a57808201518184015260208101905061297f565b60008484015250505050565b60006129b182612960565b6129bb818561296b565b93506129cb81856020860161297c565b6129d481612768565b840191505092915050565b600060208201905081810360008301526129f981846129a6565b905092915050565b600060208284031215612a1757612a16612699565b5b6000612a25848285016128c5565b91505092915050565b600073ffffffffffffffffffffffffffffffffffffffff82169050919050565b6000612a5982612a2e565b9050919050565b612a6981612a4e565b82525050565b6000602082019050612a846000830184612a60565b92915050565b612a9381612a4e565b8114612a9e57600080fd5b50565b600081359050612ab081612a8a565b92915050565b60008060408385031215612acd57612acc612699565b5b6000612adb85828601612aa1565b9250506020612aec858286016128c5565b9150509250929050565b600080600060608486031215612b0f57612b0e612699565b5b6000612b1d86828701612aa1565b9350506020612b2e86828701612aa1565b9250506040612b3f868287016128c5565b9150509250925092565b600060208284031215612b5f57612b5e612699565b5b6000612b6d84828501612aa1565b91505092915050565b6000604082019050612b8b6000830185612a60565b612b986020830184612936565b9392505050565b612ba881612728565b8114612bb357600080fd5b50565b600081359050612bc581612b9f565b92915050565b60008060408385031215612be257612be1612699565b5b6000612bf085828601612aa1565b9250506020612c0185828601612bb6565b9150509250929050565b600067ffffffffffffffff821115612c2657612c25612779565b5b612c2f82612768565b9050602081019050919050565b6000612c4f612c4a84612c0b565b6127d9565b905082815260208101848484011115612c6b57612c6a612763565b5b612c76848285612825565b509392505050565b600082601f830112612c9357612c9261275e565b5b8135612ca3848260208601612c3c565b91505092915050565b60008060008060808587031215612cc657612cc5612699565b5b6000612cd487828801612aa1565b9450506020612ce587828801612aa1565b9350506040612cf6878288016128c5565b925050606085013567ffffffffffffffff811115612d1757612d1661269e565b5b612d2387828801612c7e565b91505092959194509250565b60008060408385031215612d4657612d45612699565b5b6000612d5485828601612aa1565b9250506020612d6585828601612aa1565b9150509250929050565b7f5265656e7472616e637947756172643a207265656e7472616e742063616c6c00600082015250565b6000612da5601f8361296b565b9150612db082612d6f565b602082019050919050565b60006020820190508181036000830152612dd481612d98565b9050919050565b7f526f79616c746965732070657263656e7461676520657863656564732074686560008201527f206d6178696d756d2076616c7565210000000000000000000000000000000000602082015250565b6000612e37602f8361296b565b9150612e4282612ddb565b604082019050919050565b60006020820190508181036000830152612e6681612e2a565b9050919050565b6000608082019050612e826000830187612936565b612e8f6020830186612a60565b8181036040830152612ea181856129a6565b9050612eb06060830184612936565b95945050505050565b7f4e487b7100000000000000000000000000000000000000000000000000000000600052602260045260246000fd5b60006002820490506001821680612f0057607f821691505b602082108103612f1357612f12612eb9565b5b50919050565b7f4552433732313a20617070726f76616c20746f2063757272656e74206f776e6560008201527f7200000000000000000000000000000000000000000000000000000000000000602082015250565b6000612f7560218361296b565b9150612f8082612f19565b604082019050919050565b60006020820190508181036000830152612fa481612f68565b9050919050565b7f4552433732313a20617070726f76652063616c6c6572206973206e6f7420746f60008201527f6b656e206f776e6572206e6f7220617070726f76656420666f7220616c6c0000602082015250565b6000613007603e8361296b565b915061301282612fab565b604082019050919050565b6000602082019050818103600083015261303681612ffa565b9050919050565b7f4552433732313a2063616c6c6572206973206e6f7420746f6b656e206f776e6560008201527f72206e6f7220617070726f766564000000000000000000000000000000000000602082015250565b6000613099602e8361296b565b91506130a48261303d565b604082019050919050565b600060208201905081810360008301526130c88161308c565b9050919050565b7f455243373231456e756d657261626c653a206f776e657220696e646578206f7560008201527f74206f6620626f756e6473000000000000000000000000000000000000000000602082015250565b600061312b602b8361296b565b9150613136826130cf565b604082019050919050565b6000602082019050818103600083015261315a8161311e565b9050919050565b7f455243373231456e756d657261626c653a20676c6f62616c20696e646578206f60008201527f7574206f6620626f756e64730000000000000000000000000000000000000000602082015250565b60006131bd602c8361296b565b91506131c882613161565b604082019050919050565b600060208201905081810360008301526131ec816131b0565b9050919050565b7f4e487b7100000000000000000000000000000000000000000000000000000000600052603260045260246000fd5b7f4552433732313a20696e76616c696420746f6b656e2049440000000000000000600082015250565b600061325860188361296b565b915061326382613222565b602082019050919050565b600060208201905081810360008301526132878161324b565b9050919050565b7f4552433732313a2061646472657373207a65726f206973206e6f74206120766160008201527f6c6964206f776e65720000000000000000000000000000000000000000000000602082015250565b60006132ea60298361296b565b91506132f58261328e565b604082019050919050565b60006020820190508181036000830152613319816132dd565b9050919050565b60006060820190506133356000830186612936565b6133426020830185612a60565b61334f6040830184612936565b949350505050565b7f4f776e61626c653a206e6577206f776e657220697320746865207a65726f206160008201527f6464726573730000000000000000000000000000000000000000000000000000602082015250565b60006133b360268361296b565b91506133be82613357565b604082019050919050565b600060208201905081810360008301526133e2816133a6565b9050919050565b7f5061757361626c653a2070617573656400000000000000000000000000000000600082015250565b600061341f60108361296b565b915061342a826133e9565b602082019050919050565b6000602082019050818103600083015261344e81613412565b9050919050565b7f45524337323155524953746f726167653a2055524920736574206f66206e6f6e60008201527f6578697374656e7420746f6b656e000000000000000000000000000000000000602082015250565b60006134b1602e8361296b565b91506134bc82613455565b604082019050919050565b600060208201905081810360008301526134e0816134a4565b9050919050565b60008190508160005260206000209050919050565b60006020601f8301049050919050565b600082821b905092915050565b6000600883026135497fffffffffffffffffffffffffffffffffffffffffffffffffffffffffffffffff8261350c565b613553868361350c565b95508019841693508086168417925050509392505050565b6000819050919050565b600061359061358b613586846128a4565b61356b565b6128a4565b9050919050565b6000819050919050565b6135aa83613575565b6135be6135b682613597565b848454613519565b825550505050565b600090565b6135d36135c6565b6135de8184846135a1565b505050565b5b81811015613602576135f76000826135cb565b6001810190506135e4565b5050565b601f82111561364757613618816134e7565b613621846134fc565b81016020851015613630578190505b61364461363c856134fc565b8301826135e3565b50505b505050565b600082821c905092915050565b600061366a6000198460080261364c565b1980831691505092915050565b60006136838383613659565b9150826002028217905092915050565b61369c82612960565b67ffffffffffffffff8111156136b5576136b4612779565b5b6136bf8254612ee8565b6136ca828285613606565b600060209050601f8311600181146136fd57600084156136eb578287015190505b6136f58582613677565b86555061375d565b601f19841661370b866134e7565b60005b828110156137335784890151825560018201915060208501945060208101905061370e565b86831015613750578489015161374c601f891682613659565b8355505b6001600288020188555050505b505050505050565b7f4552433732313a207472616e736665722066726f6d20696e636f72726563742060008201527f6f776e6572000000000000000000000000000000000000000000000000000000602082015250565b60006137c160258361296b565b91506137cc82613765565b604082019050919050565b600060208201905081810360008301526137f0816137b4565b9050919050565b7f4552433732313a207472616e7366657220746f20746865207a65726f2061646460008201527f7265737300000000000000000000000000000000000000000000000000000000602082015250565b600061385360248361296b565b915061385e826137f7565b604082019050919050565b6000602082019050818103600083015261388281613846565b9050919050565b7f4e487b7100000000000000000000000000000000000000000000000000000000600052601160045260246000fd5b60006138c3826128a4565b91506138ce836128a4565b92508282039050818111156138e6576138e5613889565b5b92915050565b60006138f7826128a4565b9150613902836128a4565b925082820190508082111561391a57613919613889565b5b92915050565b7f4f776e61626c653a2063616c6c6572206973206e6f7420746865206f776e6572600082015250565b600061395660208361296b565b915061396182613920565b602082019050919050565b6000602082019050818103600083015261398581613949565b9050919050565b7f4552433732313a20617070726f766520746f2063616c6c657200000000000000600082015250565b60006139c260198361296b565b91506139cd8261398c565b602082019050919050565b600060208201905081810360008301526139f1816139b5565b9050919050565b7f4552433732313a207472616e7366657220746f206e6f6e20455243373231526560008201527f63656976657220696d706c656d656e7465720000000000000000000000000000602082015250565b6000613a5460328361296b565b9150613a5f826139f8565b604082019050919050565b60006020820190508181036000830152613a8381613a47565b9050919050565b600081905092915050565b6000613aa082612960565b613aaa8185613a8a565b9350613aba81856020860161297c565b80840191505092915050565b6000613ad28285613a95565b9150613ade8284613a95565b91508190509392505050565b7f5061757361626c653a206e6f7420706175736564000000000000000000000000600082015250565b6000613b2060148361296b565b9150613b2b82613aea565b602082019050919050565b60006020820190508181036000830152613b4f81613b13565b9050919050565b600081519050919050565b600082825260208201905092915050565b6000613b7d82613b56565b613b878185613b61565b9350613b9781856020860161297c565b613ba081612768565b840191505092915050565b6000608082019050613bc06000830187612a60565b613bcd6020830186612a60565b613bda6040830185612936565b8181036060830152613bec8184613b72565b905095945050505050565b600081519050613c06816126cf565b92915050565b600060208284031215613c2257613c21612699565b5b6000613c3084828501613bf7565b91505092915050565b7f4552433732313a206d696e7420746f20746865207a65726f2061646472657373600082015250565b6000613c6f60208361296b565b9150613c7a82613c39565b602082019050919050565b60006020820190508181036000830152613c9e81613c62565b9050919050565b7f4552433732313a20746f6b656e20616c7265616479206d696e74656400000000600082015250565b6000613cdb601c8361296b565b9150613ce682613ca5565b602082019050919050565b60006020820190508181036000830152613d0a81613cce565b9050919050565b6000613d1c826128a4565b91507fffffffffffffffffffffffffffffffffffffffffffffffffffffffffffffffff8203613d4e57613d4d613889565b5b600182019050919050565b7f4e487b7100000000000000000000000000000000000000000000000000000000600052601260045260246000fd5b6000613d93826128a4565b9150613d9e836128a4565b925082613dae57613dad613d59565b5b828204905092915050565b6000613dc4826128a4565b9150613dcf836128a4565b925082613ddf57613dde613d59565b5b828206905092915050565b7f4e487b7100000000000000000000000000000000000000000000000000000000600052603160045260246000fdfea26469706673582212206a46738a17fc48718e40a1a22a584bce4399523bf210ab0a0358127fd24a267d64736f6c63430008100033",
  "linkReferences": {},
  "deployedLinkReferences": {}
}