{
  "_format": "hh-sol-artifact-1",
  "contractName": "Marketplace",
  "sourceName": "contracts/Marketplace.sol",
  "abi": [
    {
      "inputs": [
        {
          "internalType": "uint256",
          "name": "_feePercent",
          "type": "uint256"
        }
      ],
      "stateMutability": "nonpayable",
      "type": "constructor"
    },
    {
      "anonymous": false,
      "inputs": [
        {
          "indexed": false,
          "internalType": "uint256",
          "name": "itemId",
          "type": "uint256"
        },
        {
          "indexed": true,
          "internalType": "address",
          "name": "nft",
          "type": "address"
        },
        {
          "indexed": false,
          "internalType": "uint256",
          "name": "tokenId",
          "type": "uint256"
        },
        {
          "indexed": false,
          "internalType": "uint256",
          "name": "price",
          "type": "uint256"
        },
        {
          "indexed": true,
          "internalType": "address",
          "name": "seller",
          "type": "address"
        },
        {
          "indexed": true,
          "internalType": "address",
          "name": "buyer",
          "type": "address"
        }
      ],
      "name": "LogBuyItem",
      "type": "event"
    },
    {
      "anonymous": false,
      "inputs": [
        {
          "indexed": false,
          "internalType": "uint256",
          "name": "_itemID",
          "type": "uint256"
        },
        {
          "indexed": false,
          "internalType": "address",
          "name": "_seller",
          "type": "address"
        },
        {
          "indexed": false,
          "internalType": "enum Marketplace.item_status",
          "name": "_newStatus",
          "type": "uint8"
        }
      ],
      "name": "LogChangeStatus",
      "type": "event"
    },
    {
      "anonymous": false,
      "inputs": [
        {
          "indexed": false,
          "internalType": "uint256",
          "name": "itemId",
          "type": "uint256"
        },
        {
          "indexed": true,
          "internalType": "address",
          "name": "nft",
          "type": "address"
        },
        {
          "indexed": false,
          "internalType": "uint256",
          "name": "tokenId",
          "type": "uint256"
        },
        {
          "indexed": false,
          "internalType": "uint256",
          "name": "price",
          "type": "uint256"
        },
        {
          "indexed": true,
          "internalType": "address",
          "name": "seller",
          "type": "address"
        }
      ],
      "name": "LogCreateItem",
      "type": "event"
    },
    {
      "anonymous": false,
      "inputs": [
        {
          "indexed": true,
          "internalType": "address",
          "name": "previousOwner",
          "type": "address"
        },
        {
          "indexed": true,
          "internalType": "address",
          "name": "newOwner",
          "type": "address"
        }
      ],
      "name": "OwnershipTransferred",
      "type": "event"
    },
    {
      "inputs": [
        {
          "internalType": "uint256",
          "name": "_itemId",
          "type": "uint256"
        }
      ],
      "name": "buyItem",
      "outputs": [],
      "stateMutability": "payable",
      "type": "function"
    },
    {
      "inputs": [
        {
          "internalType": "uint256",
          "name": "_itemId",
          "type": "uint256"
        },
        {
          "internalType": "enum Marketplace.item_status",
          "name": "_newStatus",
          "type": "uint8"
        }
      ],
      "name": "changeItemStatus",
      "outputs": [],
      "stateMutability": "nonpayable",
      "type": "function"
    },
    {
      "inputs": [],
      "name": "feePercent",
      "outputs": [
        {
          "internalType": "uint256",
          "name": "",
          "type": "uint256"
        }
      ],
      "stateMutability": "view",
      "type": "function"
    },
    {
      "inputs": [],
      "name": "getContractBalance",
      "outputs": [
        {
          "internalType": "uint256",
          "name": "",
          "type": "uint256"
        }
      ],
      "stateMutability": "view",
      "type": "function"
    },
    {
      "inputs": [],
      "name": "getItemsCount",
      "outputs": [
        {
          "internalType": "uint256",
          "name": "",
          "type": "uint256"
        }
      ],
      "stateMutability": "view",
      "type": "function"
    },
    {
      "inputs": [],
      "name": "getItemsSold",
      "outputs": [
        {
          "internalType": "uint256",
          "name": "",
          "type": "uint256"
        }
      ],
      "stateMutability": "view",
      "type": "function"
    },
    {
      "inputs": [
        {
          "internalType": "uint256",
          "name": "_itemId",
          "type": "uint256"
        }
      ],
      "name": "getTotalPrice",
      "outputs": [
        {
          "internalType": "uint256",
          "name": "",
          "type": "uint256"
        }
      ],
      "stateMutability": "view",
      "type": "function"
    },
    {
      "inputs": [
        {
          "internalType": "uint256",
          "name": "",
          "type": "uint256"
        }
      ],
      "name": "items",
      "outputs": [
        {
          "internalType": "uint256",
          "name": "itemId",
          "type": "uint256"
        },
        {
          "internalType": "address",
          "name": "nftAddress",
          "type": "address"
        },
        {
          "internalType": "uint256",
          "name": "tokenId",
          "type": "uint256"
        },
        {
          "internalType": "uint256",
          "name": "price",
          "type": "uint256"
        },
        {
          "internalType": "address payable",
          "name": "seller",
          "type": "address"
        },
        {
          "internalType": "enum Marketplace.item_status",
          "name": "status",
          "type": "uint8"
        }
      ],
      "stateMutability": "view",
      "type": "function"
    },
    {
      "inputs": [],
      "name": "itemsCount",
      "outputs": [
        {
          "internalType": "uint256",
          "name": "_value",
          "type": "uint256"
        }
      ],
      "stateMutability": "view",
      "type": "function"
    },
    {
      "inputs": [],
      "name": "itemsSold",
      "outputs": [
        {
          "internalType": "uint256",
          "name": "_value",
          "type": "uint256"
        }
      ],
      "stateMutability": "view",
      "type": "function"
    },
    {
      "inputs": [
        {
          "internalType": "address",
          "name": "_nft",
          "type": "address"
        },
        {
          "internalType": "uint256",
          "name": "_tokenId",
          "type": "uint256"
        },
        {
          "internalType": "uint256",
          "name": "_price",
          "type": "uint256"
        }
      ],
      "name": "makeItem",
      "outputs": [],
      "stateMutability": "nonpayable",
      "type": "function"
    },
    {
      "inputs": [],
      "name": "owner",
      "outputs": [
        {
          "internalType": "address",
          "name": "",
          "type": "address"
        }
      ],
      "stateMutability": "view",
      "type": "function"
    },
    {
      "inputs": [],
      "name": "renounceOwnership",
      "outputs": [],
      "stateMutability": "nonpayable",
      "type": "function"
    },
    {
      "inputs": [
        {
          "internalType": "uint256",
          "name": "_feePercent",
          "type": "uint256"
        }
      ],
      "name": "setFeePercent",
      "outputs": [],
      "stateMutability": "nonpayable",
      "type": "function"
    },
    {
      "inputs": [
        {
          "internalType": "address",
          "name": "newOwner",
          "type": "address"
        }
      ],
      "name": "transferOwnership",
      "outputs": [],
      "stateMutability": "nonpayable",
      "type": "function"
    },
    {
      "inputs": [],
      "name": "withdraw",
      "outputs": [],
      "stateMutability": "nonpayable",
      "type": "function"
    }
  ],
  "bytecode": "0x60806040523480156200001157600080fd5b5060405162001c4f38038062001c4f833981810160405281019062000037919062000178565b620000576200004b6200006c60201b60201c565b6200007460201b60201c565b600180819055508060028190555050620001aa565b600033905090565b60008060009054906101000a900473ffffffffffffffffffffffffffffffffffffffff169050816000806101000a81548173ffffffffffffffffffffffffffffffffffffffff021916908373ffffffffffffffffffffffffffffffffffffffff1602179055508173ffffffffffffffffffffffffffffffffffffffff168173ffffffffffffffffffffffffffffffffffffffff167f8be0079c531659141344cd1fd0a4f28419497f9722a3daafe3b4186f6b6457e060405160405180910390a35050565b600080fd5b6000819050919050565b62000152816200013d565b81146200015e57600080fd5b50565b600081519050620001728162000147565b92915050565b60006020828403121562000191576200019062000138565b5b6000620001a18482850162000161565b91505092915050565b611a9580620001ba6000396000f3fe6080604052600436106100f35760003560e01c8063bfb231d21161008a578063e2c03ace11610059578063e2c03ace146102f9578063e7fb74c714610324578063f2fde38b14610340578063fa00afc714610369576100f3565b8063bfb231d214610226578063c4b1514114610268578063c528183c14610293578063ca7dd375146102bc576100f3565b80637ce3489b116100c65780637ce3489b1461017c5780637fd6f15c146101a55780638da5cb5b146101d0578063913e0a48146101fb576100f3565b80633ccfd60b146100f8578063512dd0201461010f5780636f9fb98a1461013a578063715018a614610165575b600080fd5b34801561010457600080fd5b5061010d610392565b005b34801561011b57600080fd5b5061012461043e565b60405161013191906110bd565b60405180910390f35b34801561014657600080fd5b5061014f61044f565b60405161015c91906110bd565b60405180910390f35b34801561017157600080fd5b5061017a61045f565b005b34801561018857600080fd5b506101a3600480360381019061019e9190611109565b610473565b005b3480156101b157600080fd5b506101ba610485565b6040516101c791906110bd565b60405180910390f35b3480156101dc57600080fd5b506101e561048b565b6040516101f29190611177565b60405180910390f35b34801561020757600080fd5b506102106104b4565b60405161021d91906110bd565b60405180910390f35b34801561023257600080fd5b5061024d60048036038101906102489190611109565b6104c0565b60405161025f9695949392919061122a565b60405180910390f35b34801561027457600080fd5b5061027d610549565b60405161028a91906110bd565b60405180910390f35b34801561029f57600080fd5b506102ba60048036038101906102b591906112b0565b61055a565b005b3480156102c857600080fd5b506102e360048036038101906102de9190611109565b61075d565b6040516102f091906110bd565b60405180910390f35b34801561030557600080fd5b5061030e6107a2565b60405161031b91906110bd565b60405180910390f35b61033e60048036038101906103399190611109565b6107ae565b005b34801561034c57600080fd5b506103676004803603810190610362919061131c565b610bc8565b005b34801561037557600080fd5b50610390600480360381019061038b9190611349565b610c4b565b005b61039a610f36565b6002600154036103df576040517f08c379a00000000000000000000000000000000000000000000000000000000081526004016103d6906113f9565b60405180910390fd5b60026001819055506103ef61048b565b73ffffffffffffffffffffffffffffffffffffffff166108fc479081150290604051600060405180830381858888f19350505050158015610434573d6000803e3d6000fd5b5060018081905550565b600061044a6003610fb4565b905090565b6000610459610f36565b47905090565b610467610f36565b6104716000610fc2565b565b61047b610f36565b8060028190555050565b60025481565b60008060009054906101000a900473ffffffffffffffffffffffffffffffffffffffff16905090565b60048060000154905081565b60056020528060005260406000206000915090508060000154908060010160009054906101000a900473ffffffffffffffffffffffffffffffffffffffff16908060020154908060030154908060040160009054906101000a900473ffffffffffffffffffffffffffffffffffffffff16908060040160149054906101000a900460ff16905086565b60006105556004610fb4565b905090565b60006005600084815260200190815260200160002090503373ffffffffffffffffffffffffffffffffffffffff168160040160009054906101000a900473ffffffffffffffffffffffffffffffffffffffff1673ffffffffffffffffffffffffffffffffffffffff1614610603576040517f08c379a00000000000000000000000000000000000000000000000000000000081526004016105fa90611465565b60405180910390fd5b816002811115610616576106156111b3565b5b8160040160149054906101000a900460ff16600281111561063a576106396111b3565b5b0361067a576040517f08c379a0000000000000000000000000000000000000000000000000000000008152600401610671906114d1565b60405180910390fd5b60028081111561068d5761068c6111b3565b5b8160040160149054906101000a900460ff1660028111156106b1576106b06111b3565b5b036106f1576040517f08c379a00000000000000000000000000000000000000000000000000000000081526004016106e89061153d565b60405180910390fd5b818160040160146101000a81548160ff02191690836002811115610718576107176111b3565b5b02179055507fc1e3195802cae45d0816192af3f9b877c549a8ff1b446fc13048021fd1f933b88333846040516107509392919061155d565b60405180910390a1505050565b60006064600254606461077091906115c3565b600560008581526020019081526020016000206003015461079191906115f7565b61079b9190611680565b9050919050565b60038060000154905081565b6002600154036107f3576040517f08c379a00000000000000000000000000000000000000000000000000000000081526004016107ea906113f9565b60405180910390fd5b600260018190555060006108068261075d565b9050600060056000848152602001908152602001600020905060008311801561083857506108346003610fb4565b8311155b610877576040517f08c379a000000000000000000000000000000000000000000000000000000000815260040161086e906116fd565b60405180910390fd5b813410156108ba576040517f08c379a00000000000000000000000000000000000000000000000000000000081526004016108b19061178f565b60405180910390fd5b6002808111156108cd576108cc6111b3565b5b8160040160149054906101000a900460ff1660028111156108f1576108f06111b3565b5b03610931576040517f08c379a0000000000000000000000000000000000000000000000000000000008152600401610928906117fb565b60405180910390fd5b60006002811115610945576109446111b3565b5b8160040160149054906101000a900460ff166002811115610969576109686111b3565b5b146109a9576040517f08c379a00000000000000000000000000000000000000000000000000000000081526004016109a090611867565b60405180910390fd5b8060040160009054906101000a900473ffffffffffffffffffffffffffffffffffffffff1673ffffffffffffffffffffffffffffffffffffffff166108fc82600301549081150290604051600060405180830381858888f19350505050158015610a17573d6000803e3d6000fd5b5060028160040160146101000a81548160ff02191690836002811115610a4057610a3f6111b3565b5b021790555060008160010160009054906101000a900473ffffffffffffffffffffffffffffffffffffffff1690508073ffffffffffffffffffffffffffffffffffffffff166323b872dd303385600201546040518463ffffffff1660e01b8152600401610aaf93929190611887565b600060405180830381600087803b158015610ac957600080fd5b505af1158015610add573d6000803e3d6000fd5b50505050610aeb6004611086565b3373ffffffffffffffffffffffffffffffffffffffff168260040160009054906101000a900473ffffffffffffffffffffffffffffffffffffffff1673ffffffffffffffffffffffffffffffffffffffff168360010160009054906101000a900473ffffffffffffffffffffffffffffffffffffffff1673ffffffffffffffffffffffffffffffffffffffff167f179738be873fb5cb1076ebdeba2cd8886e3a9cf77d66790f0367dd0f694144848786600201548760030154604051610bb3939291906118be565b60405180910390a45050506001808190555050565b610bd0610f36565b600073ffffffffffffffffffffffffffffffffffffffff168173ffffffffffffffffffffffffffffffffffffffff1603610c3f576040517f08c379a0000000000000000000000000000000000000000000000000000000008152600401610c3690611967565b60405180910390fd5b610c4881610fc2565b50565b600260015403610c90576040517f08c379a0000000000000000000000000000000000000000000000000000000008152600401610c87906113f9565b60405180910390fd5b600260018190555060008111610cdb576040517f08c379a0000000000000000000000000000000000000000000000000000000008152600401610cd2906119d3565b60405180910390fd5b610ce56003611086565b6000610cf16003610fb4565b90508373ffffffffffffffffffffffffffffffffffffffff166323b872dd3330866040518463ffffffff1660e01b8152600401610d3093929190611887565b600060405180830381600087803b158015610d4a57600080fd5b505af1158015610d5e573d6000803e3d6000fd5b505050506040518060c001604052808281526020018573ffffffffffffffffffffffffffffffffffffffff1681526020018481526020018381526020013373ffffffffffffffffffffffffffffffffffffffff16815260200160016002811115610dcb57610dca6111b3565b5b815250600560008381526020019081526020016000206000820151816000015560208201518160010160006101000a81548173ffffffffffffffffffffffffffffffffffffffff021916908373ffffffffffffffffffffffffffffffffffffffff160217905550604082015181600201556060820151816003015560808201518160040160006101000a81548173ffffffffffffffffffffffffffffffffffffffff021916908373ffffffffffffffffffffffffffffffffffffffff16021790555060a08201518160040160146101000a81548160ff02191690836002811115610eb857610eb76111b3565b5b02179055509050503373ffffffffffffffffffffffffffffffffffffffff168473ffffffffffffffffffffffffffffffffffffffff167f21d36516533c9624fcb65c141d47e8d53b4048777deaaf00a2a43355bb4e92fe838686604051610f21939291906118be565b60405180910390a35060018081905550505050565b610f3e61109c565b73ffffffffffffffffffffffffffffffffffffffff16610f5c61048b565b73ffffffffffffffffffffffffffffffffffffffff1614610fb2576040517f08c379a0000000000000000000000000000000000000000000000000000000008152600401610fa990611a3f565b60405180910390fd5b565b600081600001549050919050565b60008060009054906101000a900473ffffffffffffffffffffffffffffffffffffffff169050816000806101000a81548173ffffffffffffffffffffffffffffffffffffffff021916908373ffffffffffffffffffffffffffffffffffffffff1602179055508173ffffffffffffffffffffffffffffffffffffffff168173ffffffffffffffffffffffffffffffffffffffff167f8be0079c531659141344cd1fd0a4f28419497f9722a3daafe3b4186f6b6457e060405160405180910390a35050565b6001816000016000828254019250508190555050565b600033905090565b6000819050919050565b6110b7816110a4565b82525050565b60006020820190506110d260008301846110ae565b92915050565b600080fd5b6110e6816110a4565b81146110f157600080fd5b50565b600081359050611103816110dd565b92915050565b60006020828403121561111f5761111e6110d8565b5b600061112d848285016110f4565b91505092915050565b600073ffffffffffffffffffffffffffffffffffffffff82169050919050565b600061116182611136565b9050919050565b61117181611156565b82525050565b600060208201905061118c6000830184611168565b92915050565b600061119d82611136565b9050919050565b6111ad81611192565b82525050565b7f4e487b7100000000000000000000000000000000000000000000000000000000600052602160045260246000fd5b600381106111f3576111f26111b3565b5b50565b6000819050611204826111e2565b919050565b6000611214826111f6565b9050919050565b61122481611209565b82525050565b600060c08201905061123f60008301896110ae565b61124c6020830188611168565b61125960408301876110ae565b61126660608301866110ae565b61127360808301856111a4565b61128060a083018461121b565b979650505050505050565b6003811061129857600080fd5b50565b6000813590506112aa8161128b565b92915050565b600080604083850312156112c7576112c66110d8565b5b60006112d5858286016110f4565b92505060206112e68582860161129b565b9150509250929050565b6112f981611156565b811461130457600080fd5b50565b600081359050611316816112f0565b92915050565b600060208284031215611332576113316110d8565b5b600061134084828501611307565b91505092915050565b600080600060608486031215611362576113616110d8565b5b600061137086828701611307565b9350506020611381868287016110f4565b9250506040611392868287016110f4565b9150509250925092565b600082825260208201905092915050565b7f5265656e7472616e637947756172643a207265656e7472616e742063616c6c00600082015250565b60006113e3601f8361139c565b91506113ee826113ad565b602082019050919050565b60006020820190508181036000830152611412816113d6565b9050919050565b7f6f6e6c792073656c6c65722063616e206368616e676520737461747573210000600082015250565b600061144f601e8361139c565b915061145a82611419565b602082019050919050565b6000602082019050818103600083015261147e81611442565b9050919050565b7f7374617475732073686f756c64206265206e6577210000000000000000000000600082015250565b60006114bb60158361139c565b91506114c682611485565b602082019050919050565b600060208201905081810360008301526114ea816114ae565b9050919050565b7f6974656d20616c726561647920736f6c64210000000000000000000000000000600082015250565b600061152760128361139c565b9150611532826114f1565b602082019050919050565b600060208201905081810360008301526115568161151a565b9050919050565b600060608201905061157260008301866110ae565b61157f6020830185611168565b61158c604083018461121b565b949350505050565b7f4e487b7100000000000000000000000000000000000000000000000000000000600052601160045260246000fd5b60006115ce826110a4565b91506115d9836110a4565b92508282019050808211156115f1576115f0611594565b5b92915050565b6000611602826110a4565b915061160d836110a4565b9250817fffffffffffffffffffffffffffffffffffffffffffffffffffffffffffffffff048311821515161561164657611645611594565b5b828202905092915050565b7f4e487b7100000000000000000000000000000000000000000000000000000000600052601260045260246000fd5b600061168b826110a4565b9150611696836110a4565b9250826116a6576116a5611651565b5b828204905092915050565b7f6974656d20646f6573206e6f7420657869737400000000000000000000000000600082015250565b60006116e760138361139c565b91506116f2826116b1565b602082019050919050565b60006020820190508181036000830152611716816116da565b9050919050565b7f6e6f7420656e6f75676820657468657220746f20636f766572206974656d207060008201527f7269636520616e64206d61726b65742066656500000000000000000000000000602082015250565b600061177960338361139c565b91506117848261171d565b604082019050919050565b600060208201905081810360008301526117a88161176c565b9050919050565b7f6974656d20616c726561647920736f6c64000000000000000000000000000000600082015250565b60006117e560118361139c565b91506117f0826117af565b602082019050919050565b60006020820190508181036000830152611814816117d8565b9050919050565b7f6974656d2073686f756c64206265206c69737465640000000000000000000000600082015250565b600061185160158361139c565b915061185c8261181b565b602082019050919050565b6000602082019050818103600083015261188081611844565b9050919050565b600060608201905061189c6000830186611168565b6118a96020830185611168565b6118b660408301846110ae565b949350505050565b60006060820190506118d360008301866110ae565b6118e060208301856110ae565b6118ed60408301846110ae565b949350505050565b7f4f776e61626c653a206e6577206f776e657220697320746865207a65726f206160008201527f6464726573730000000000000000000000000000000000000000000000000000602082015250565b600061195160268361139c565b915061195c826118f5565b604082019050919050565b6000602082019050818103600083015261198081611944565b9050919050565b7f5072696365206d7573742062652067726561746572207468616e207a65726f00600082015250565b60006119bd601f8361139c565b91506119c882611987565b602082019050919050565b600060208201905081810360008301526119ec816119b0565b9050919050565b7f4f776e61626c653a2063616c6c6572206973206e6f7420746865206f776e6572600082015250565b6000611a2960208361139c565b9150611a34826119f3565b602082019050919050565b60006020820190508181036000830152611a5881611a1c565b905091905056fea264697066735822122025a68d944483fc682a8c7c7e852f81df0acfbd42f7ce7cf45d599dbee5ebe77564736f6c63430008100033",
  "linkReferences": {},
  "deployedLinkReferences": {}
}