{
  "_format": "hh-sol-artifact-1",
  "contractName": "Marketplace",
  "sourceName": "contracts/Marketplace.sol",
  "abi": [
    {
      "inputs": [
        {
          "internalType": "uint256",
          "name": "_feePercent",
          "type": "uint256"
        }
      ],
      "stateMutability": "nonpayable",
      "type": "constructor"
    },
    {
      "anonymous": false,
      "inputs": [
        {
          "indexed": false,
          "internalType": "uint256",
          "name": "_itemId",
          "type": "uint256"
        },
        {
          "indexed": true,
          "internalType": "address",
          "name": "_nft",
          "type": "address"
        },
        {
          "indexed": false,
          "internalType": "uint256",
          "name": "_tokenId",
          "type": "uint256"
        },
        {
          "indexed": false,
          "internalType": "uint256",
          "name": "_price",
          "type": "uint256"
        },
        {
          "indexed": true,
          "internalType": "address",
          "name": "_seller",
          "type": "address"
        },
        {
          "indexed": true,
          "internalType": "address",
          "name": "_buyer",
          "type": "address"
        }
      ],
      "name": "LogBuyItem",
      "type": "event"
    },
    {
      "anonymous": false,
      "inputs": [
        {
          "indexed": false,
          "internalType": "uint256",
          "name": "_itemID",
          "type": "uint256"
        },
        {
          "indexed": false,
          "internalType": "address",
          "name": "_seller",
          "type": "address"
        },
        {
          "indexed": false,
          "internalType": "enum Marketplace.item_status",
          "name": "_newStatus",
          "type": "uint8"
        }
      ],
      "name": "LogChangeStatus",
      "type": "event"
    },
    {
      "anonymous": false,
      "inputs": [
        {
          "indexed": false,
          "internalType": "uint256",
          "name": "_itemId",
          "type": "uint256"
        },
        {
          "indexed": true,
          "internalType": "address",
          "name": "_nft",
          "type": "address"
        },
        {
          "indexed": false,
          "internalType": "uint256",
          "name": "_tokenId",
          "type": "uint256"
        },
        {
          "indexed": false,
          "internalType": "uint256",
          "name": "_price",
          "type": "uint256"
        },
        {
          "indexed": true,
          "internalType": "address",
          "name": "_seller",
          "type": "address"
        },
        {
          "indexed": false,
          "internalType": "address",
          "name": "_creator",
          "type": "address"
        }
      ],
      "name": "LogCreateItem",
      "type": "event"
    },
    {
      "anonymous": false,
      "inputs": [
        {
          "indexed": true,
          "internalType": "address",
          "name": "previousOwner",
          "type": "address"
        },
        {
          "indexed": true,
          "internalType": "address",
          "name": "newOwner",
          "type": "address"
        }
      ],
      "name": "OwnershipTransferred",
      "type": "event"
    },
    {
      "anonymous": false,
      "inputs": [
        {
          "indexed": false,
          "internalType": "address",
          "name": "account",
          "type": "address"
        }
      ],
      "name": "Paused",
      "type": "event"
    },
    {
      "anonymous": false,
      "inputs": [
        {
          "indexed": false,
          "internalType": "address",
          "name": "account",
          "type": "address"
        }
      ],
      "name": "Unpaused",
      "type": "event"
    },
    {
      "inputs": [
        {
          "internalType": "uint256",
          "name": "_itemId",
          "type": "uint256"
        }
      ],
      "name": "buyItem",
      "outputs": [],
      "stateMutability": "payable",
      "type": "function"
    },
    {
      "inputs": [
        {
          "internalType": "uint256",
          "name": "_itemId",
          "type": "uint256"
        },
        {
          "internalType": "enum Marketplace.item_status",
          "name": "_newStatus",
          "type": "uint8"
        }
      ],
      "name": "changeItemStatus",
      "outputs": [],
      "stateMutability": "nonpayable",
      "type": "function"
    },
    {
      "inputs": [],
      "name": "feePercent",
      "outputs": [
        {
          "internalType": "uint256",
          "name": "",
          "type": "uint256"
        }
      ],
      "stateMutability": "view",
      "type": "function"
    },
    {
      "inputs": [],
      "name": "getContractBalance",
      "outputs": [
        {
          "internalType": "uint256",
          "name": "",
          "type": "uint256"
        }
      ],
      "stateMutability": "view",
      "type": "function"
    },
    {
      "inputs": [],
      "name": "getItemsCount",
      "outputs": [
        {
          "internalType": "uint256",
          "name": "",
          "type": "uint256"
        }
      ],
      "stateMutability": "view",
      "type": "function"
    },
    {
      "inputs": [],
      "name": "getItemsSold",
      "outputs": [
        {
          "internalType": "uint256",
          "name": "",
          "type": "uint256"
        }
      ],
      "stateMutability": "view",
      "type": "function"
    },
    {
      "inputs": [
        {
          "internalType": "uint256",
          "name": "",
          "type": "uint256"
        }
      ],
      "name": "items",
      "outputs": [
        {
          "internalType": "uint256",
          "name": "itemId",
          "type": "uint256"
        },
        {
          "internalType": "address",
          "name": "nftAddress",
          "type": "address"
        },
        {
          "internalType": "uint256",
          "name": "tokenId",
          "type": "uint256"
        },
        {
          "internalType": "uint256",
          "name": "price",
          "type": "uint256"
        },
        {
          "internalType": "address payable",
          "name": "seller",
          "type": "address"
        },
        {
          "internalType": "address payable",
          "name": "creator",
          "type": "address"
        },
        {
          "internalType": "uint256",
          "name": "creatorRoyaltiesPercent",
          "type": "uint256"
        },
        {
          "internalType": "enum Marketplace.item_status",
          "name": "status",
          "type": "uint8"
        }
      ],
      "stateMutability": "view",
      "type": "function"
    },
    {
      "inputs": [],
      "name": "itemsCount",
      "outputs": [
        {
          "internalType": "uint256",
          "name": "_value",
          "type": "uint256"
        }
      ],
      "stateMutability": "view",
      "type": "function"
    },
    {
      "inputs": [],
      "name": "itemsSold",
      "outputs": [
        {
          "internalType": "uint256",
          "name": "_value",
          "type": "uint256"
        }
      ],
      "stateMutability": "view",
      "type": "function"
    },
    {
      "inputs": [],
      "name": "listingFeePercent",
      "outputs": [
        {
          "internalType": "uint256",
          "name": "",
          "type": "uint256"
        }
      ],
      "stateMutability": "view",
      "type": "function"
    },
    {
      "inputs": [
        {
          "internalType": "address",
          "name": "_nft",
          "type": "address"
        },
        {
          "internalType": "uint256",
          "name": "_tokenId",
          "type": "uint256"
        },
        {
          "internalType": "uint256",
          "name": "_price",
          "type": "uint256"
        }
      ],
      "name": "makeItem",
      "outputs": [
        {
          "internalType": "uint256",
          "name": "",
          "type": "uint256"
        }
      ],
      "stateMutability": "payable",
      "type": "function"
    },
    {
      "inputs": [],
      "name": "owner",
      "outputs": [
        {
          "internalType": "address",
          "name": "",
          "type": "address"
        }
      ],
      "stateMutability": "view",
      "type": "function"
    },
    {
      "inputs": [],
      "name": "pause",
      "outputs": [],
      "stateMutability": "nonpayable",
      "type": "function"
    },
    {
      "inputs": [],
      "name": "paused",
      "outputs": [
        {
          "internalType": "bool",
          "name": "",
          "type": "bool"
        }
      ],
      "stateMutability": "view",
      "type": "function"
    },
    {
      "inputs": [],
      "name": "renounceOwnership",
      "outputs": [],
      "stateMutability": "nonpayable",
      "type": "function"
    },
    {
      "inputs": [
        {
          "internalType": "uint256",
          "name": "_feePercent",
          "type": "uint256"
        }
      ],
      "name": "setFeePercent",
      "outputs": [],
      "stateMutability": "nonpayable",
      "type": "function"
    },
    {
      "inputs": [
        {
          "internalType": "uint256",
          "name": "_listingFeePercent",
          "type": "uint256"
        }
      ],
      "name": "setListingFeesPercent",
      "outputs": [],
      "stateMutability": "nonpayable",
      "type": "function"
    },
    {
      "inputs": [
        {
          "internalType": "address",
          "name": "newOwner",
          "type": "address"
        }
      ],
      "name": "transferOwnership",
      "outputs": [],
      "stateMutability": "nonpayable",
      "type": "function"
    },
    {
      "inputs": [],
      "name": "unpause",
      "outputs": [],
      "stateMutability": "nonpayable",
      "type": "function"
    },
    {
      "inputs": [],
      "name": "withdraw",
      "outputs": [],
      "stateMutability": "nonpayable",
      "type": "function"
    }
  ],
  "bytecode": "0x60806040523480156200001157600080fd5b50604051620022ff380380620022ff83398181016040528101906200003791906200019b565b620000576200004b6200008f60201b60201c565b6200009760201b60201c565b600180819055506000600260006101000a81548160ff02191690831515021790555080600381905550600060048190555050620001cd565b600033905090565b60008060009054906101000a900473ffffffffffffffffffffffffffffffffffffffff169050816000806101000a81548173ffffffffffffffffffffffffffffffffffffffff021916908373ffffffffffffffffffffffffffffffffffffffff1602179055508173ffffffffffffffffffffffffffffffffffffffff168173ffffffffffffffffffffffffffffffffffffffff167f8be0079c531659141344cd1fd0a4f28419497f9722a3daafe3b4186f6b6457e060405160405180910390a35050565b600080fd5b6000819050919050565b620001758162000160565b81146200018157600080fd5b50565b60008151905062000195816200016a565b92915050565b600060208284031215620001b457620001b36200015b565b5b6000620001c48482850162000184565b91505092915050565b61212280620001dd6000396000f3fe60806040526004361061011f5760003560e01c80638da5cb5b116100a0578063c528183c11610064578063c528183c1461036e578063e2c03ace14610397578063e7fb74c7146103c2578063f2fde38b146103de578063fa00afc7146104075761011f565b80638da5cb5b14610280578063913e0a48146102ab578063bfb231d2146102d6578063c03577881461031a578063c4b15141146103435761011f565b80636f9fb98a116100e75780636f9fb98a146101d3578063715018a6146101fe5780637ce3489b146102155780637fd6f15c1461023e5780638456cb59146102695761011f565b80633ccfd60b146101245780633f4ba83a1461013b578063512dd020146101525780635c975abb1461017d5780636151ff2e146101a8575b600080fd5b34801561013057600080fd5b50610139610437565b005b34801561014757600080fd5b506101506104e3565b005b34801561015e57600080fd5b506101676104f5565b60405161017491906115dc565b60405180910390f35b34801561018957600080fd5b50610192610506565b60405161019f9190611612565b60405180910390f35b3480156101b457600080fd5b506101bd61051d565b6040516101ca91906115dc565b60405180910390f35b3480156101df57600080fd5b506101e8610523565b6040516101f591906115dc565b60405180910390f35b34801561020a57600080fd5b50610213610533565b005b34801561022157600080fd5b5061023c6004803603810190610237919061165e565b610547565b005b34801561024a57600080fd5b50610253610559565b60405161026091906115dc565b60405180910390f35b34801561027557600080fd5b5061027e61055f565b005b34801561028c57600080fd5b50610295610571565b6040516102a291906116cc565b60405180910390f35b3480156102b757600080fd5b506102c061059a565b6040516102cd91906115dc565b60405180910390f35b3480156102e257600080fd5b506102fd60048036038101906102f8919061165e565b6105a6565b60405161031198979695949392919061177f565b60405180910390f35b34801561032657600080fd5b50610341600480360381019061033c919061165e565b61065b565b005b34801561034f57600080fd5b5061035861066d565b60405161036591906115dc565b60405180910390f35b34801561037a57600080fd5b5061039560048036038101906103909190611822565b61067e565b005b3480156103a357600080fd5b506103ac610881565b6040516103b991906115dc565b60405180910390f35b6103dc60048036038101906103d7919061165e565b61088d565b005b3480156103ea57600080fd5b506104056004803603810190610400919061188e565b610cbe565b005b610421600480360381019061041c91906118bb565b610d41565b60405161042e91906115dc565b60405180910390f35b61043f61119d565b600260015403610484576040517f08c379a000000000000000000000000000000000000000000000000000000000815260040161047b9061196b565b60405180910390fd5b6002600181905550610494610571565b73ffffffffffffffffffffffffffffffffffffffff166108fc479081150290604051600060405180830381858888f193505050501580156104d9573d6000803e3d6000fd5b5060018081905550565b6104eb61119d565b6104f361121b565b565b6000610501600561127e565b905090565b6000600260009054906101000a900460ff16905090565b60045481565b600061052d61119d565b47905090565b61053b61119d565b610545600061128c565b565b61054f61119d565b8060038190555050565b60035481565b61056761119d565b61056f611350565b565b60008060009054906101000a900473ffffffffffffffffffffffffffffffffffffffff16905090565b60068060000154905081565b60076020528060005260406000206000915090508060000154908060010160009054906101000a900473ffffffffffffffffffffffffffffffffffffffff16908060020154908060030154908060040160009054906101000a900473ffffffffffffffffffffffffffffffffffffffff16908060050160009054906101000a900473ffffffffffffffffffffffffffffffffffffffff16908060060154908060070160009054906101000a900460ff16905088565b61066361119d565b8060048190555050565b6000610679600661127e565b905090565b60006007600084815260200190815260200160002090503373ffffffffffffffffffffffffffffffffffffffff168160040160009054906101000a900473ffffffffffffffffffffffffffffffffffffffff1673ffffffffffffffffffffffffffffffffffffffff1614610727576040517f08c379a000000000000000000000000000000000000000000000000000000000815260040161071e906119d7565b60405180910390fd5b81600281111561073a57610739611708565b5b8160070160009054906101000a900460ff16600281111561075e5761075d611708565b5b0361079e576040517f08c379a000000000000000000000000000000000000000000000000000000000815260040161079590611a43565b60405180910390fd5b6002808111156107b1576107b0611708565b5b8160070160009054906101000a900460ff1660028111156107d5576107d4611708565b5b03610815576040517f08c379a000000000000000000000000000000000000000000000000000000000815260040161080c90611aaf565b60405180910390fd5b818160070160006101000a81548160ff0219169083600281111561083c5761083b611708565b5b02179055507fc1e3195802cae45d0816192af3f9b877c549a8ff1b446fc13048021fd1f933b883338460405161087493929190611acf565b60405180910390a1505050565b60058060000154905081565b6108956113b3565b6002600154036108da576040517f08c379a00000000000000000000000000000000000000000000000000000000081526004016108d19061196b565b60405180910390fd5b60026001819055506000600760008381526020019081526020016000209050600082118015610912575061090e600561127e565b8211155b610951576040517f08c379a000000000000000000000000000000000000000000000000000000000815260040161094890611b52565b60405180910390fd5b8060030154341015610998576040517f08c379a000000000000000000000000000000000000000000000000000000000815260040161098f90611be4565b60405180910390fd5b600060028111156109ac576109ab611708565b5b8160070160009054906101000a900460ff1660028111156109d0576109cf611708565b5b14610a10576040517f08c379a0000000000000000000000000000000000000000000000000000000008152600401610a0790611c50565b60405180910390fd5b600080610a218484600601546113fd565b91509150610a2e82611476565b610a3781611476565b8260050160009054906101000a900473ffffffffffffffffffffffffffffffffffffffff1673ffffffffffffffffffffffffffffffffffffffff166108fc829081150290604051600060405180830381858888f19350505050158015610aa1573d6000803e3d6000fd5b508260040160009054906101000a900473ffffffffffffffffffffffffffffffffffffffff1673ffffffffffffffffffffffffffffffffffffffff166108fc839081150290604051600060405180830381858888f19350505050158015610b0c573d6000803e3d6000fd5b5060028360070160006101000a81548160ff02191690836002811115610b3557610b34611708565b5b021790555060008360010160009054906101000a900473ffffffffffffffffffffffffffffffffffffffff1690508073ffffffffffffffffffffffffffffffffffffffff166323b872dd303387600201546040518463ffffffff1660e01b8152600401610ba493929190611c70565b600060405180830381600087803b158015610bbe57600080fd5b505af1158015610bd2573d6000803e3d6000fd5b50505050610be0600661150f565b3373ffffffffffffffffffffffffffffffffffffffff168460040160009054906101000a900473ffffffffffffffffffffffffffffffffffffffff1673ffffffffffffffffffffffffffffffffffffffff168560010160009054906101000a900473ffffffffffffffffffffffffffffffffffffffff1673ffffffffffffffffffffffffffffffffffffffff167f179738be873fb5cb1076ebdeba2cd8886e3a9cf77d66790f0367dd0f694144848888600201548960030154604051610ca893929190611ca7565b60405180910390a4505050506001808190555050565b610cc661119d565b600073ffffffffffffffffffffffffffffffffffffffff168173ffffffffffffffffffffffffffffffffffffffff1603610d35576040517f08c379a0000000000000000000000000000000000000000000000000000000008152600401610d2c90611d50565b60405180910390fd5b610d3e8161128c565b50565b6000610d4b6113b3565b600260015403610d90576040517f08c379a0000000000000000000000000000000000000000000000000000000008152600401610d879061196b565b60405180910390fd5b60026001819055506000610da383611525565b905034811115610de8576040517f08c379a0000000000000000000000000000000000000000000000000000000008152600401610ddf90611dbc565b60405180910390fd5b610df2600561150f565b6000610dfe600561127e565b90508573ffffffffffffffffffffffffffffffffffffffff166323b872dd3330886040518463ffffffff1660e01b8152600401610e3d93929190611c70565b600060405180830381600087803b158015610e5757600080fd5b505af1158015610e6b573d6000803e3d6000fd5b505050506000821115610ec0573073ffffffffffffffffffffffffffffffffffffffff166108fc839081150290604051600060405180830381858888f19350505050158015610ebe573d6000803e3d6000fd5b505b6000808773ffffffffffffffffffffffffffffffffffffffff1663b561f03e886040518263ffffffff1660e01b8152600401610efc91906115dc565b60408051808303816000875af1158015610f1a573d6000803e3d6000fd5b505050506040513d601f19601f82011682018060405250810190610f3e9190611e06565b915091506040518061010001604052808481526020018973ffffffffffffffffffffffffffffffffffffffff1681526020018881526020018781526020013373ffffffffffffffffffffffffffffffffffffffff1681526020018373ffffffffffffffffffffffffffffffffffffffff16815260200182815260200160016002811115610fce57610fcd611708565b5b815250600760008581526020019081526020016000206000820151816000015560208201518160010160006101000a81548173ffffffffffffffffffffffffffffffffffffffff021916908373ffffffffffffffffffffffffffffffffffffffff160217905550604082015181600201556060820151816003015560808201518160040160006101000a81548173ffffffffffffffffffffffffffffffffffffffff021916908373ffffffffffffffffffffffffffffffffffffffff16021790555060a08201518160050160006101000a81548173ffffffffffffffffffffffffffffffffffffffff021916908373ffffffffffffffffffffffffffffffffffffffff16021790555060c0820151816006015560e08201518160070160006101000a81548160ff0219169083600281111561110c5761110b611708565b5b02179055509050503373ffffffffffffffffffffffffffffffffffffffff168873ffffffffffffffffffffffffffffffffffffffff167fd87a6fff1d9137a29fab37cfdaf8519abc902ca48438125a02baf96a5d52307f858a8a876040516111779493929190611e46565b60405180910390a3611189600561127e565b945050505050600180819055509392505050565b6111a5611549565b73ffffffffffffffffffffffffffffffffffffffff166111c3610571565b73ffffffffffffffffffffffffffffffffffffffff1614611219576040517f08c379a000000000000000000000000000000000000000000000000000000000815260040161121090611ed7565b60405180910390fd5b565b611223611551565b6000600260006101000a81548160ff0219169083151502179055507f5db9ee0a495bf2e6ff9c91a7834c1ba4fdd244a5e8aa4e537bd38aeae4b073aa611267611549565b60405161127491906116cc565b60405180910390a1565b600081600001549050919050565b60008060009054906101000a900473ffffffffffffffffffffffffffffffffffffffff169050816000806101000a81548173ffffffffffffffffffffffffffffffffffffffff021916908373ffffffffffffffffffffffffffffffffffffffff1602179055508173ffffffffffffffffffffffffffffffffffffffff168173ffffffffffffffffffffffffffffffffffffffff167f8be0079c531659141344cd1fd0a4f28419497f9722a3daafe3b4186f6b6457e060405160405180910390a35050565b6113586113b3565b6001600260006101000a81548160ff0219169083151502179055507f62e78cea01bee320cd4e420270b5ea74000d11b0c9f74754ebdbfc544b05a25861139c611549565b6040516113a991906116cc565b60405180910390a1565b6113bb610506565b156113fb576040517f08c379a00000000000000000000000000000000000000000000000000000000081526004016113f290611f43565b60405180910390fd5b565b600080600080600760008781526020019081526020016000206003015490506103e8858261142b9190611f92565b611435919061201b565b92506103e8600354826114489190611f92565b611452919061201b565b9150828282611461919061204c565b61146b919061204c565b935050509250929050565b61150c8160405160240161148a91906115dc565b6040516020818303038152906040527ff82c50f1000000000000000000000000000000000000000000000000000000007bffffffffffffffffffffffffffffffffffffffffffffffffffffffff19166020820180517bffffffffffffffffffffffffffffffffffffffffffffffffffffffff838183161783525050505061159a565b50565b6001816000016000828254019250508190555050565b60006103e8600454836115389190611f92565b611542919061201b565b9050919050565b600033905090565b611559610506565b611598576040517f08c379a000000000000000000000000000000000000000000000000000000000815260040161158f906120cc565b60405180910390fd5b565b60008151905060006a636f6e736f6c652e6c6f679050602083016000808483855afa5050505050565b6000819050919050565b6115d6816115c3565b82525050565b60006020820190506115f160008301846115cd565b92915050565b60008115159050919050565b61160c816115f7565b82525050565b60006020820190506116276000830184611603565b92915050565b600080fd5b61163b816115c3565b811461164657600080fd5b50565b60008135905061165881611632565b92915050565b6000602082840312156116745761167361162d565b5b600061168284828501611649565b91505092915050565b600073ffffffffffffffffffffffffffffffffffffffff82169050919050565b60006116b68261168b565b9050919050565b6116c6816116ab565b82525050565b60006020820190506116e160008301846116bd565b92915050565b60006116f28261168b565b9050919050565b611702816116e7565b82525050565b7f4e487b7100000000000000000000000000000000000000000000000000000000600052602160045260246000fd5b6003811061174857611747611708565b5b50565b600081905061175982611737565b919050565b60006117698261174b565b9050919050565b6117798161175e565b82525050565b600061010082019050611795600083018b6115cd565b6117a2602083018a6116bd565b6117af60408301896115cd565b6117bc60608301886115cd565b6117c960808301876116f9565b6117d660a08301866116f9565b6117e360c08301856115cd565b6117f060e0830184611770565b9998505050505050505050565b6003811061180a57600080fd5b50565b60008135905061181c816117fd565b92915050565b600080604083850312156118395761183861162d565b5b600061184785828601611649565b92505060206118588582860161180d565b9150509250929050565b61186b816116ab565b811461187657600080fd5b50565b60008135905061188881611862565b92915050565b6000602082840312156118a4576118a361162d565b5b60006118b284828501611879565b91505092915050565b6000806000606084860312156118d4576118d361162d565b5b60006118e286828701611879565b93505060206118f386828701611649565b925050604061190486828701611649565b9150509250925092565b600082825260208201905092915050565b7f5265656e7472616e637947756172643a207265656e7472616e742063616c6c00600082015250565b6000611955601f8361190e565b91506119608261191f565b602082019050919050565b6000602082019050818103600083015261198481611948565b9050919050565b7f6f6e6c792073656c6c65722063616e206368616e676520737461747573210000600082015250565b60006119c1601e8361190e565b91506119cc8261198b565b602082019050919050565b600060208201905081810360008301526119f0816119b4565b9050919050565b7f7374617475732073686f756c64206265206e6577210000000000000000000000600082015250565b6000611a2d60158361190e565b9150611a38826119f7565b602082019050919050565b60006020820190508181036000830152611a5c81611a20565b9050919050565b7f6974656d20616c726561647920736f6c64210000000000000000000000000000600082015250565b6000611a9960128361190e565b9150611aa482611a63565b602082019050919050565b60006020820190508181036000830152611ac881611a8c565b9050919050565b6000606082019050611ae460008301866115cd565b611af160208301856116bd565b611afe6040830184611770565b949350505050565b7f6974656d20646f6573206e6f7420657869737400000000000000000000000000600082015250565b6000611b3c60138361190e565b9150611b4782611b06565b602082019050919050565b60006020820190508181036000830152611b6b81611b2f565b9050919050565b7f6e6f7420656e6f75676820657468657220746f20636f766572206974656d207060008201527f7269636520616e64206d61726b65742066656500000000000000000000000000602082015250565b6000611bce60338361190e565b9150611bd982611b72565b604082019050919050565b60006020820190508181036000830152611bfd81611bc1565b9050919050565b7f6974656d2073686f756c64206265206c69737465640000000000000000000000600082015250565b6000611c3a60158361190e565b9150611c4582611c04565b602082019050919050565b60006020820190508181036000830152611c6981611c2d565b9050919050565b6000606082019050611c8560008301866116bd565b611c9260208301856116bd565b611c9f60408301846115cd565b949350505050565b6000606082019050611cbc60008301866115cd565b611cc960208301856115cd565b611cd660408301846115cd565b949350505050565b7f4f776e61626c653a206e6577206f776e657220697320746865207a65726f206160008201527f6464726573730000000000000000000000000000000000000000000000000000602082015250565b6000611d3a60268361190e565b9150611d4582611cde565b604082019050919050565b60006020820190508181036000830152611d6981611d2d565b9050919050565b7f53686f756c6420706179206c697374696e672066656573210000000000000000600082015250565b6000611da660188361190e565b9150611db182611d70565b602082019050919050565b60006020820190508181036000830152611dd581611d99565b9050919050565b600081519050611deb81611862565b92915050565b600081519050611e0081611632565b92915050565b60008060408385031215611e1d57611e1c61162d565b5b6000611e2b85828601611ddc565b9250506020611e3c85828601611df1565b9150509250929050565b6000608082019050611e5b60008301876115cd565b611e6860208301866115cd565b611e7560408301856115cd565b611e8260608301846116bd565b95945050505050565b7f4f776e61626c653a2063616c6c6572206973206e6f7420746865206f776e6572600082015250565b6000611ec160208361190e565b9150611ecc82611e8b565b602082019050919050565b60006020820190508181036000830152611ef081611eb4565b9050919050565b7f5061757361626c653a2070617573656400000000000000000000000000000000600082015250565b6000611f2d60108361190e565b9150611f3882611ef7565b602082019050919050565b60006020820190508181036000830152611f5c81611f20565b9050919050565b7f4e487b7100000000000000000000000000000000000000000000000000000000600052601160045260246000fd5b6000611f9d826115c3565b9150611fa8836115c3565b9250817fffffffffffffffffffffffffffffffffffffffffffffffffffffffffffffffff0483118215151615611fe157611fe0611f63565b5b828202905092915050565b7f4e487b7100000000000000000000000000000000000000000000000000000000600052601260045260246000fd5b6000612026826115c3565b9150612031836115c3565b92508261204157612040611fec565b5b828204905092915050565b6000612057826115c3565b9150612062836115c3565b925082820390508181111561207a57612079611f63565b5b92915050565b7f5061757361626c653a206e6f7420706175736564000000000000000000000000600082015250565b60006120b660148361190e565b91506120c182612080565b602082019050919050565b600060208201905081810360008301526120e5816120a9565b905091905056fea2646970667358221220ad67eb670141a1122f22427abf03b8772680a5cbd0d5f8e5f1225cde71c3cb2b64736f6c63430008100033",
  "linkReferences": {},
  "deployedLinkReferences": {}
}