{
  "_format": "hh-sol-artifact-1",
  "contractName": "Marketplace",
  "sourceName": "contracts/Marketplace.sol",
  "abi": [
    {
      "inputs": [
        {
          "internalType": "uint256",
          "name": "_feePercentage",
          "type": "uint256"
        }
      ],
      "stateMutability": "nonpayable",
      "type": "constructor"
    },
    {
      "anonymous": false,
      "inputs": [
        {
          "indexed": false,
          "internalType": "uint256",
          "name": "_itemId",
          "type": "uint256"
        },
        {
          "indexed": true,
          "internalType": "address",
          "name": "_nft",
          "type": "address"
        },
        {
          "indexed": false,
          "internalType": "uint256",
          "name": "_tokenId",
          "type": "uint256"
        },
        {
          "indexed": false,
          "internalType": "uint256",
          "name": "_price",
          "type": "uint256"
        },
        {
          "indexed": true,
          "internalType": "address",
          "name": "_seller",
          "type": "address"
        },
        {
          "indexed": true,
          "internalType": "address",
          "name": "_buyer",
          "type": "address"
        }
      ],
      "name": "LogBuyItem",
      "type": "event"
    },
    {
      "anonymous": false,
      "inputs": [
        {
          "indexed": false,
          "internalType": "uint256",
          "name": "_itemId",
          "type": "uint256"
        },
        {
          "indexed": false,
          "internalType": "address",
          "name": "_sender",
          "type": "address"
        },
        {
          "indexed": false,
          "internalType": "uint256",
          "name": "_newPrice",
          "type": "uint256"
        }
      ],
      "name": "LogChangePrice",
      "type": "event"
    },
    {
      "anonymous": false,
      "inputs": [
        {
          "indexed": false,
          "internalType": "uint256",
          "name": "_itemID",
          "type": "uint256"
        },
        {
          "indexed": false,
          "internalType": "address",
          "name": "_seller",
          "type": "address"
        },
        {
          "indexed": false,
          "internalType": "enum Marketplace.item_status",
          "name": "_newStatus",
          "type": "uint8"
        }
      ],
      "name": "LogChangeStatus",
      "type": "event"
    },
    {
      "anonymous": false,
      "inputs": [
        {
          "indexed": false,
          "internalType": "uint256",
          "name": "_itemId",
          "type": "uint256"
        },
        {
          "indexed": true,
          "internalType": "address",
          "name": "_nft",
          "type": "address"
        },
        {
          "indexed": false,
          "internalType": "uint256",
          "name": "_tokenId",
          "type": "uint256"
        },
        {
          "indexed": false,
          "internalType": "uint256",
          "name": "_price",
          "type": "uint256"
        },
        {
          "indexed": true,
          "internalType": "address",
          "name": "_seller",
          "type": "address"
        },
        {
          "indexed": false,
          "internalType": "address",
          "name": "_creator",
          "type": "address"
        }
      ],
      "name": "LogCreateItem",
      "type": "event"
    },
    {
      "anonymous": false,
      "inputs": [
        {
          "indexed": true,
          "internalType": "address",
          "name": "previousOwner",
          "type": "address"
        },
        {
          "indexed": true,
          "internalType": "address",
          "name": "newOwner",
          "type": "address"
        }
      ],
      "name": "OwnershipTransferred",
      "type": "event"
    },
    {
      "anonymous": false,
      "inputs": [
        {
          "indexed": false,
          "internalType": "address",
          "name": "account",
          "type": "address"
        }
      ],
      "name": "Paused",
      "type": "event"
    },
    {
      "anonymous": false,
      "inputs": [
        {
          "indexed": false,
          "internalType": "address",
          "name": "account",
          "type": "address"
        }
      ],
      "name": "Unpaused",
      "type": "event"
    },
    {
      "inputs": [
        {
          "internalType": "uint256",
          "name": "_itemId",
          "type": "uint256"
        }
      ],
      "name": "buyItem",
      "outputs": [],
      "stateMutability": "payable",
      "type": "function"
    },
    {
      "inputs": [
        {
          "internalType": "uint256",
          "name": "_itemId",
          "type": "uint256"
        },
        {
          "internalType": "uint256",
          "name": "_newPrice",
          "type": "uint256"
        }
      ],
      "name": "changeItemPrice",
      "outputs": [],
      "stateMutability": "nonpayable",
      "type": "function"
    },
    {
      "inputs": [
        {
          "internalType": "uint256",
          "name": "_itemId",
          "type": "uint256"
        },
        {
          "internalType": "enum Marketplace.item_status",
          "name": "_newStatus",
          "type": "uint8"
        }
      ],
      "name": "changeItemStatus",
      "outputs": [],
      "stateMutability": "nonpayable",
      "type": "function"
    },
    {
      "inputs": [],
      "name": "feePercentage",
      "outputs": [
        {
          "internalType": "uint256",
          "name": "",
          "type": "uint256"
        }
      ],
      "stateMutability": "view",
      "type": "function"
    },
    {
      "inputs": [],
      "name": "getContractBalance",
      "outputs": [
        {
          "internalType": "uint256",
          "name": "",
          "type": "uint256"
        }
      ],
      "stateMutability": "view",
      "type": "function"
    },
    {
      "inputs": [],
      "name": "getItemsCount",
      "outputs": [
        {
          "internalType": "uint256",
          "name": "",
          "type": "uint256"
        }
      ],
      "stateMutability": "view",
      "type": "function"
    },
    {
      "inputs": [],
      "name": "getItemsSold",
      "outputs": [
        {
          "internalType": "uint256",
          "name": "",
          "type": "uint256"
        }
      ],
      "stateMutability": "view",
      "type": "function"
    },
    {
      "inputs": [
        {
          "internalType": "uint256",
          "name": "_price",
          "type": "uint256"
        }
      ],
      "name": "getListingFees",
      "outputs": [
        {
          "internalType": "uint256",
          "name": "",
          "type": "uint256"
        }
      ],
      "stateMutability": "view",
      "type": "function"
    },
    {
      "inputs": [
        {
          "internalType": "uint256",
          "name": "",
          "type": "uint256"
        }
      ],
      "name": "items",
      "outputs": [
        {
          "internalType": "uint256",
          "name": "itemId",
          "type": "uint256"
        },
        {
          "internalType": "address",
          "name": "nftAddress",
          "type": "address"
        },
        {
          "internalType": "uint256",
          "name": "tokenId",
          "type": "uint256"
        },
        {
          "internalType": "uint256",
          "name": "price",
          "type": "uint256"
        },
        {
          "internalType": "address payable",
          "name": "seller",
          "type": "address"
        },
        {
          "internalType": "address payable",
          "name": "creator",
          "type": "address"
        },
        {
          "internalType": "uint256",
          "name": "creatorRoyaltiesPercentage",
          "type": "uint256"
        },
        {
          "internalType": "enum Marketplace.item_status",
          "name": "status",
          "type": "uint8"
        }
      ],
      "stateMutability": "view",
      "type": "function"
    },
    {
      "inputs": [],
      "name": "itemsCount",
      "outputs": [
        {
          "internalType": "uint256",
          "name": "_value",
          "type": "uint256"
        }
      ],
      "stateMutability": "view",
      "type": "function"
    },
    {
      "inputs": [],
      "name": "itemsSold",
      "outputs": [
        {
          "internalType": "uint256",
          "name": "_value",
          "type": "uint256"
        }
      ],
      "stateMutability": "view",
      "type": "function"
    },
    {
      "inputs": [],
      "name": "listingFeePercentage",
      "outputs": [
        {
          "internalType": "uint256",
          "name": "",
          "type": "uint256"
        }
      ],
      "stateMutability": "view",
      "type": "function"
    },
    {
      "inputs": [
        {
          "internalType": "address",
          "name": "_nft",
          "type": "address"
        },
        {
          "internalType": "uint256",
          "name": "_tokenId",
          "type": "uint256"
        },
        {
          "internalType": "uint256",
          "name": "_price",
          "type": "uint256"
        }
      ],
      "name": "makeItem",
      "outputs": [
        {
          "internalType": "uint256",
          "name": "",
          "type": "uint256"
        }
      ],
      "stateMutability": "payable",
      "type": "function"
    },
    {
      "inputs": [
        {
          "internalType": "address",
          "name": "",
          "type": "address"
        },
        {
          "internalType": "address",
          "name": "",
          "type": "address"
        },
        {
          "internalType": "uint256",
          "name": "",
          "type": "uint256"
        },
        {
          "internalType": "bytes",
          "name": "",
          "type": "bytes"
        }
      ],
      "name": "onERC721Received",
      "outputs": [
        {
          "internalType": "bytes4",
          "name": "",
          "type": "bytes4"
        }
      ],
      "stateMutability": "nonpayable",
      "type": "function"
    },
    {
      "inputs": [],
      "name": "owner",
      "outputs": [
        {
          "internalType": "address",
          "name": "",
          "type": "address"
        }
      ],
      "stateMutability": "view",
      "type": "function"
    },
    {
      "inputs": [],
      "name": "pause",
      "outputs": [],
      "stateMutability": "nonpayable",
      "type": "function"
    },
    {
      "inputs": [],
      "name": "paused",
      "outputs": [
        {
          "internalType": "bool",
          "name": "",
          "type": "bool"
        }
      ],
      "stateMutability": "view",
      "type": "function"
    },
    {
      "inputs": [],
      "name": "renounceOwnership",
      "outputs": [],
      "stateMutability": "nonpayable",
      "type": "function"
    },
    {
      "inputs": [
        {
          "internalType": "uint256",
          "name": "_feePercentage",
          "type": "uint256"
        }
      ],
      "name": "setFeePercentage",
      "outputs": [],
      "stateMutability": "nonpayable",
      "type": "function"
    },
    {
      "inputs": [
        {
          "internalType": "uint256",
          "name": "_listingFeePercentage",
          "type": "uint256"
        }
      ],
      "name": "setListingFeesPercentage",
      "outputs": [],
      "stateMutability": "nonpayable",
      "type": "function"
    },
    {
      "inputs": [
        {
          "internalType": "address",
          "name": "newOwner",
          "type": "address"
        }
      ],
      "name": "transferOwnership",
      "outputs": [],
      "stateMutability": "nonpayable",
      "type": "function"
    },
    {
      "inputs": [],
      "name": "unpause",
      "outputs": [],
      "stateMutability": "nonpayable",
      "type": "function"
    },
    {
      "inputs": [],
      "name": "withdraw",
      "outputs": [],
      "stateMutability": "nonpayable",
      "type": "function"
    }
  ],
  "bytecode": "0x60806040523480156200001157600080fd5b50604051620027383803806200273883398181016040528101906200003791906200019b565b620000576200004b6200008f60201b60201c565b6200009760201b60201c565b600180819055506000600260006101000a81548160ff02191690831515021790555080600381905550600060048190555050620001cd565b600033905090565b60008060009054906101000a900473ffffffffffffffffffffffffffffffffffffffff169050816000806101000a81548173ffffffffffffffffffffffffffffffffffffffff021916908373ffffffffffffffffffffffffffffffffffffffff1602179055508173ffffffffffffffffffffffffffffffffffffffff168173ffffffffffffffffffffffffffffffffffffffff167f8be0079c531659141344cd1fd0a4f28419497f9722a3daafe3b4186f6b6457e060405160405180910390a35050565b600080fd5b6000819050919050565b620001758162000160565b81146200018157600080fd5b50565b60008151905062000195816200016a565b92915050565b600060208284031215620001b457620001b36200015b565b5b6000620001c48482850162000184565b91505092915050565b61255b80620001dd6000396000f3fe6080604052600436106101405760003560e01c8063913e0a48116100b6578063c4b151411161006f578063c4b1514114610407578063c528183c14610432578063e2c03ace1461045b578063e7fb74c714610486578063f2fde38b146104a2578063fa00afc7146104cb57610140565b8063913e0a48146102de5780639df844b914610309578063a001ecdd14610346578063a7b1942414610371578063ae06c1b71461039a578063bfb231d2146103c357610140565b80635c975abb116101085780635c975abb146102065780636f9fb98a14610231578063715018a61461025c57806378abd6ae146102735780638456cb591461029c5780638da5cb5b146102b357610140565b80630888de3914610145578063150b7a02146101705780633ccfd60b146101ad5780633f4ba83a146101c4578063512dd020146101db575b600080fd5b34801561015157600080fd5b5061015a6104fb565b6040516101679190611770565b60405180910390f35b34801561017c57600080fd5b506101976004803603810190610192919061196f565b610501565b6040516101a49190611a2d565b60405180910390f35b3480156101b957600080fd5b506101c2610515565b005b3480156101d057600080fd5b506101d96105c1565b005b3480156101e757600080fd5b506101f06105d3565b6040516101fd9190611770565b60405180910390f35b34801561021257600080fd5b5061021b6105e4565b6040516102289190611a63565b60405180910390f35b34801561023d57600080fd5b506102466105fb565b6040516102539190611770565b60405180910390f35b34801561026857600080fd5b5061027161060b565b005b34801561027f57600080fd5b5061029a60048036038101906102959190611a7e565b61061f565b005b3480156102a857600080fd5b506102b1610631565b005b3480156102bf57600080fd5b506102c8610643565b6040516102d59190611aba565b60405180910390f35b3480156102ea57600080fd5b506102f361066c565b6040516103009190611770565b60405180910390f35b34801561031557600080fd5b50610330600480360381019061032b9190611a7e565b610678565b60405161033d9190611770565b60405180910390f35b34801561035257600080fd5b5061035b61069c565b6040516103689190611770565b60405180910390f35b34801561037d57600080fd5b5061039860048036038101906103939190611ad5565b6106a2565b005b3480156103a657600080fd5b506103c160048036038101906103bc9190611a7e565b610883565b005b3480156103cf57600080fd5b506103ea60048036038101906103e59190611a7e565b610895565b6040516103fe989796959493929190611bad565b60405180910390f35b34801561041357600080fd5b5061041c61094a565b6040516104299190611770565b60405180910390f35b34801561043e57600080fd5b5061045960048036038101906104549190611c50565b61095b565b005b34801561046757600080fd5b50610470610b5e565b60405161047d9190611770565b60405180910390f35b6104a0600480360381019061049b9190611a7e565b610b6a565b005b3480156104ae57600080fd5b506104c960048036038101906104c49190611c90565b610f89565b005b6104e560048036038101906104e09190611cbd565b61100c565b6040516104f29190611770565b60405180910390f35b60045481565b600063150b7a0260e01b9050949350505050565b61051d611417565b600260015403610562576040517f08c379a000000000000000000000000000000000000000000000000000000000815260040161055990611d6d565b60405180910390fd5b6002600181905550610572610643565b73ffffffffffffffffffffffffffffffffffffffff166108fc479081150290604051600060405180830381858888f193505050501580156105b7573d6000803e3d6000fd5b5060018081905550565b6105c9611417565b6105d1611495565b565b60006105df60056114f8565b905090565b6000600260009054906101000a900460ff16905090565b6000610605611417565b47905090565b610613611417565b61061d6000611506565b565b610627611417565b8060048190555050565b610639611417565b6106416115ca565b565b60008060009054906101000a900473ffffffffffffffffffffffffffffffffffffffff16905090565b60068060000154905081565b60006103e86004548361068b9190611dbc565b6106959190611e45565b9050919050565b60035481565b60006007600084815260200190815260200160002090503373ffffffffffffffffffffffffffffffffffffffff168160040160009054906101000a900473ffffffffffffffffffffffffffffffffffffffff1673ffffffffffffffffffffffffffffffffffffffff161461074b576040517f08c379a000000000000000000000000000000000000000000000000000000000815260040161074290611ec2565b60405180910390fd5b60028081111561075e5761075d611b36565b5b8160070160009054906101000a900460ff16600281111561078257610781611b36565b5b036107c2576040517f08c379a00000000000000000000000000000000000000000000000000000000081526004016107b990611f2e565b60405180910390fd5b600060028111156107d6576107d5611b36565b5b8160070160009054906101000a900460ff1660028111156107fa576107f9611b36565b5b1461083a576040517f08c379a000000000000000000000000000000000000000000000000000000000815260040161083190611f9a565b60405180910390fd5b8181600301819055507f6dcfb5ae8812d5ad1c251689041fb4e36cb7183b13472c2ffdc1e1eb42bf418683338460405161087693929190611fba565b60405180910390a1505050565b61088b611417565b8060038190555050565b60076020528060005260406000206000915090508060000154908060010160009054906101000a900473ffffffffffffffffffffffffffffffffffffffff16908060020154908060030154908060040160009054906101000a900473ffffffffffffffffffffffffffffffffffffffff16908060050160009054906101000a900473ffffffffffffffffffffffffffffffffffffffff16908060060154908060070160009054906101000a900460ff16905088565b600061095660066114f8565b905090565b60006007600084815260200190815260200160002090503373ffffffffffffffffffffffffffffffffffffffff168160040160009054906101000a900473ffffffffffffffffffffffffffffffffffffffff1673ffffffffffffffffffffffffffffffffffffffff1614610a04576040517f08c379a00000000000000000000000000000000000000000000000000000000081526004016109fb90611ec2565b60405180910390fd5b816002811115610a1757610a16611b36565b5b8160070160009054906101000a900460ff166002811115610a3b57610a3a611b36565b5b03610a7b576040517f08c379a0000000000000000000000000000000000000000000000000000000008152600401610a729061203d565b60405180910390fd5b600280811115610a8e57610a8d611b36565b5b8160070160009054906101000a900460ff166002811115610ab257610ab1611b36565b5b03610af2576040517f08c379a0000000000000000000000000000000000000000000000000000000008152600401610ae990611f2e565b60405180910390fd5b818160070160006101000a81548160ff02191690836002811115610b1957610b18611b36565b5b02179055507fc1e3195802cae45d0816192af3f9b877c549a8ff1b446fc13048021fd1f933b8833384604051610b519392919061205d565b60405180910390a1505050565b60058060000154905081565b610b7261162d565b600260015403610bb7576040517f08c379a0000000000000000000000000000000000000000000000000000000008152600401610bae90611d6d565b60405180910390fd5b60026001819055506000600760008381526020019081526020016000209050600082118015610bef5750610beb60056114f8565b8211155b610c2e576040517f08c379a0000000000000000000000000000000000000000000000000000000008152600401610c25906120e0565b60405180910390fd5b8060030154341015610c75576040517f08c379a0000000000000000000000000000000000000000000000000000000008152600401610c6c90612172565b60405180910390fd5b60016002811115610c8957610c88611b36565b5b8160070160009054906101000a900460ff166002811115610cad57610cac611b36565b5b14610ced576040517f08c379a0000000000000000000000000000000000000000000000000000000008152600401610ce490611f9a565b60405180910390fd5b600080610cfe848460060154611677565b915091508260050160009054906101000a900473ffffffffffffffffffffffffffffffffffffffff1673ffffffffffffffffffffffffffffffffffffffff166108fc829081150290604051600060405180830381858888f19350505050158015610d6c573d6000803e3d6000fd5b508260040160009054906101000a900473ffffffffffffffffffffffffffffffffffffffff1673ffffffffffffffffffffffffffffffffffffffff166108fc839081150290604051600060405180830381858888f19350505050158015610dd7573d6000803e3d6000fd5b5060028360070160006101000a81548160ff02191690836002811115610e0057610dff611b36565b5b021790555060008360010160009054906101000a900473ffffffffffffffffffffffffffffffffffffffff1690508073ffffffffffffffffffffffffffffffffffffffff166342842e0e303387600201546040518463ffffffff1660e01b8152600401610e6f93929190612192565b600060405180830381600087803b158015610e8957600080fd5b505af1158015610e9d573d6000803e3d6000fd5b50505050610eab60066116f0565b3373ffffffffffffffffffffffffffffffffffffffff168460040160009054906101000a900473ffffffffffffffffffffffffffffffffffffffff1673ffffffffffffffffffffffffffffffffffffffff168560010160009054906101000a900473ffffffffffffffffffffffffffffffffffffffff1673ffffffffffffffffffffffffffffffffffffffff167f179738be873fb5cb1076ebdeba2cd8886e3a9cf77d66790f0367dd0f694144848888600201548960030154604051610f73939291906121c9565b60405180910390a4505050506001808190555050565b610f91611417565b600073ffffffffffffffffffffffffffffffffffffffff168173ffffffffffffffffffffffffffffffffffffffff1603611000576040517f08c379a0000000000000000000000000000000000000000000000000000000008152600401610ff790612272565b60405180910390fd5b61100981611506565b50565b600061101661162d565b60026001540361105b576040517f08c379a000000000000000000000000000000000000000000000000000000000815260040161105290611d6d565b60405180910390fd5b6002600181905550600061106e83610678565b9050348111156110b3576040517f08c379a00000000000000000000000000000000000000000000000000000000081526004016110aa906122de565b60405180910390fd5b6110bd60056116f0565b60006110c960056114f8565b90508573ffffffffffffffffffffffffffffffffffffffff166342842e0e3330886040518463ffffffff1660e01b815260040161110893929190612192565b600060405180830381600087803b15801561112257600080fd5b505af1158015611136573d6000803e3d6000fd5b505050506000808773ffffffffffffffffffffffffffffffffffffffff1663b561f03e886040518263ffffffff1660e01b81526004016111769190611770565b60408051808303816000875af1158015611194573d6000803e3d6000fd5b505050506040513d601f19601f820116820180604052508101906111b89190612328565b915091506040518061010001604052808481526020018973ffffffffffffffffffffffffffffffffffffffff1681526020018881526020018781526020013373ffffffffffffffffffffffffffffffffffffffff1681526020018373ffffffffffffffffffffffffffffffffffffffff1681526020018281526020016001600281111561124857611247611b36565b5b815250600760008581526020019081526020016000206000820151816000015560208201518160010160006101000a81548173ffffffffffffffffffffffffffffffffffffffff021916908373ffffffffffffffffffffffffffffffffffffffff160217905550604082015181600201556060820151816003015560808201518160040160006101000a81548173ffffffffffffffffffffffffffffffffffffffff021916908373ffffffffffffffffffffffffffffffffffffffff16021790555060a08201518160050160006101000a81548173ffffffffffffffffffffffffffffffffffffffff021916908373ffffffffffffffffffffffffffffffffffffffff16021790555060c0820151816006015560e08201518160070160006101000a81548160ff0219169083600281111561138657611385611b36565b5b02179055509050503373ffffffffffffffffffffffffffffffffffffffff168873ffffffffffffffffffffffffffffffffffffffff167fd87a6fff1d9137a29fab37cfdaf8519abc902ca48438125a02baf96a5d52307f858a8a876040516113f19493929190612368565b60405180910390a361140360056114f8565b945050505050600180819055509392505050565b61141f611706565b73ffffffffffffffffffffffffffffffffffffffff1661143d610643565b73ffffffffffffffffffffffffffffffffffffffff1614611493576040517f08c379a000000000000000000000000000000000000000000000000000000000815260040161148a906123f9565b60405180910390fd5b565b61149d61170e565b6000600260006101000a81548160ff0219169083151502179055507f5db9ee0a495bf2e6ff9c91a7834c1ba4fdd244a5e8aa4e537bd38aeae4b073aa6114e1611706565b6040516114ee9190611aba565b60405180910390a1565b600081600001549050919050565b60008060009054906101000a900473ffffffffffffffffffffffffffffffffffffffff169050816000806101000a81548173ffffffffffffffffffffffffffffffffffffffff021916908373ffffffffffffffffffffffffffffffffffffffff1602179055508173ffffffffffffffffffffffffffffffffffffffff168173ffffffffffffffffffffffffffffffffffffffff167f8be0079c531659141344cd1fd0a4f28419497f9722a3daafe3b4186f6b6457e060405160405180910390a35050565b6115d261162d565b6001600260006101000a81548160ff0219169083151502179055507f62e78cea01bee320cd4e420270b5ea74000d11b0c9f74754ebdbfc544b05a258611616611706565b6040516116239190611aba565b60405180910390a1565b6116356105e4565b15611675576040517f08c379a000000000000000000000000000000000000000000000000000000000815260040161166c90612465565b60405180910390fd5b565b600080600080600760008781526020019081526020016000206003015490506103e885826116a59190611dbc565b6116af9190611e45565b92506103e8600354826116c29190611dbc565b6116cc9190611e45565b91508282826116db9190612485565b6116e59190612485565b935050509250929050565b6001816000016000828254019250508190555050565b600033905090565b6117166105e4565b611755576040517f08c379a000000000000000000000000000000000000000000000000000000000815260040161174c90612505565b60405180910390fd5b565b6000819050919050565b61176a81611757565b82525050565b60006020820190506117856000830184611761565b92915050565b6000604051905090565b600080fd5b600080fd5b600073ffffffffffffffffffffffffffffffffffffffff82169050919050565b60006117ca8261179f565b9050919050565b6117da816117bf565b81146117e557600080fd5b50565b6000813590506117f7816117d1565b92915050565b61180681611757565b811461181157600080fd5b50565b600081359050611823816117fd565b92915050565b600080fd5b600080fd5b6000601f19601f8301169050919050565b7f4e487b7100000000000000000000000000000000000000000000000000000000600052604160045260246000fd5b61187c82611833565b810181811067ffffffffffffffff8211171561189b5761189a611844565b5b80604052505050565b60006118ae61178b565b90506118ba8282611873565b919050565b600067ffffffffffffffff8211156118da576118d9611844565b5b6118e382611833565b9050602081019050919050565b82818337600083830152505050565b600061191261190d846118bf565b6118a4565b90508281526020810184848401111561192e5761192d61182e565b5b6119398482856118f0565b509392505050565b600082601f83011261195657611955611829565b5b81356119668482602086016118ff565b91505092915050565b6000806000806080858703121561198957611988611795565b5b6000611997878288016117e8565b94505060206119a8878288016117e8565b93505060406119b987828801611814565b925050606085013567ffffffffffffffff8111156119da576119d961179a565b5b6119e687828801611941565b91505092959194509250565b60007fffffffff0000000000000000000000000000000000000000000000000000000082169050919050565b611a27816119f2565b82525050565b6000602082019050611a426000830184611a1e565b92915050565b60008115159050919050565b611a5d81611a48565b82525050565b6000602082019050611a786000830184611a54565b92915050565b600060208284031215611a9457611a93611795565b5b6000611aa284828501611814565b91505092915050565b611ab4816117bf565b82525050565b6000602082019050611acf6000830184611aab565b92915050565b60008060408385031215611aec57611aeb611795565b5b6000611afa85828601611814565b9250506020611b0b85828601611814565b9150509250929050565b6000611b208261179f565b9050919050565b611b3081611b15565b82525050565b7f4e487b7100000000000000000000000000000000000000000000000000000000600052602160045260246000fd5b60038110611b7657611b75611b36565b5b50565b6000819050611b8782611b65565b919050565b6000611b9782611b79565b9050919050565b611ba781611b8c565b82525050565b600061010082019050611bc3600083018b611761565b611bd0602083018a611aab565b611bdd6040830189611761565b611bea6060830188611761565b611bf76080830187611b27565b611c0460a0830186611b27565b611c1160c0830185611761565b611c1e60e0830184611b9e565b9998505050505050505050565b60038110611c3857600080fd5b50565b600081359050611c4a81611c2b565b92915050565b60008060408385031215611c6757611c66611795565b5b6000611c7585828601611814565b9250506020611c8685828601611c3b565b9150509250929050565b600060208284031215611ca657611ca5611795565b5b6000611cb4848285016117e8565b91505092915050565b600080600060608486031215611cd657611cd5611795565b5b6000611ce4868287016117e8565b9350506020611cf586828701611814565b9250506040611d0686828701611814565b9150509250925092565b600082825260208201905092915050565b7f5265656e7472616e637947756172643a207265656e7472616e742063616c6c00600082015250565b6000611d57601f83611d10565b9150611d6282611d21565b602082019050919050565b60006020820190508181036000830152611d8681611d4a565b9050919050565b7f4e487b7100000000000000000000000000000000000000000000000000000000600052601160045260246000fd5b6000611dc782611757565b9150611dd283611757565b9250817fffffffffffffffffffffffffffffffffffffffffffffffffffffffffffffffff0483118215151615611e0b57611e0a611d8d565b5b828202905092915050565b7f4e487b7100000000000000000000000000000000000000000000000000000000600052601260045260246000fd5b6000611e5082611757565b9150611e5b83611757565b925082611e6b57611e6a611e16565b5b828204905092915050565b7f6f6e6c792073656c6c65722063616e206368616e676520737461747573210000600082015250565b6000611eac601e83611d10565b9150611eb782611e76565b602082019050919050565b60006020820190508181036000830152611edb81611e9f565b9050919050565b7f6974656d20616c726561647920736f6c64210000000000000000000000000000600082015250565b6000611f18601283611d10565b9150611f2382611ee2565b602082019050919050565b60006020820190508181036000830152611f4781611f0b565b9050919050565b7f6974656d2073686f756c64206265206c69737465640000000000000000000000600082015250565b6000611f84601583611d10565b9150611f8f82611f4e565b602082019050919050565b60006020820190508181036000830152611fb381611f77565b9050919050565b6000606082019050611fcf6000830186611761565b611fdc6020830185611aab565b611fe96040830184611761565b949350505050565b7f7374617475732073686f756c64206265206e6577210000000000000000000000600082015250565b6000612027601583611d10565b915061203282611ff1565b602082019050919050565b600060208201905081810360008301526120568161201a565b9050919050565b60006060820190506120726000830186611761565b61207f6020830185611aab565b61208c6040830184611b9e565b949350505050565b7f6974656d20646f6573206e6f7420657869737400000000000000000000000000600082015250565b60006120ca601383611d10565b91506120d582612094565b602082019050919050565b600060208201905081810360008301526120f9816120bd565b9050919050565b7f6e6f7420656e6f75676820657468657220746f20636f766572206974656d207060008201527f7269636520616e64206d61726b65742066656500000000000000000000000000602082015250565b600061215c603383611d10565b915061216782612100565b604082019050919050565b6000602082019050818103600083015261218b8161214f565b9050919050565b60006060820190506121a76000830186611aab565b6121b46020830185611aab565b6121c16040830184611761565b949350505050565b60006060820190506121de6000830186611761565b6121eb6020830185611761565b6121f86040830184611761565b949350505050565b7f4f776e61626c653a206e6577206f776e657220697320746865207a65726f206160008201527f6464726573730000000000000000000000000000000000000000000000000000602082015250565b600061225c602683611d10565b915061226782612200565b604082019050919050565b6000602082019050818103600083015261228b8161224f565b9050919050565b7f53686f756c6420706179206c697374696e672066656573210000000000000000600082015250565b60006122c8601883611d10565b91506122d382612292565b602082019050919050565b600060208201905081810360008301526122f7816122bb565b9050919050565b60008151905061230d816117d1565b92915050565b600081519050612322816117fd565b92915050565b6000806040838503121561233f5761233e611795565b5b600061234d858286016122fe565b925050602061235e85828601612313565b9150509250929050565b600060808201905061237d6000830187611761565b61238a6020830186611761565b6123976040830185611761565b6123a46060830184611aab565b95945050505050565b7f4f776e61626c653a2063616c6c6572206973206e6f7420746865206f776e6572600082015250565b60006123e3602083611d10565b91506123ee826123ad565b602082019050919050565b60006020820190508181036000830152612412816123d6565b9050919050565b7f5061757361626c653a2070617573656400000000000000000000000000000000600082015250565b600061244f601083611d10565b915061245a82612419565b602082019050919050565b6000602082019050818103600083015261247e81612442565b9050919050565b600061249082611757565b915061249b83611757565b92508282039050818111156124b3576124b2611d8d565b5b92915050565b7f5061757361626c653a206e6f7420706175736564000000000000000000000000600082015250565b60006124ef601483611d10565b91506124fa826124b9565b602082019050919050565b6000602082019050818103600083015261251e816124e2565b905091905056fea2646970667358221220e3be46c1037328cdc15dcb52ca75c78074be35cd9fe4f52a242c3f8c179472ca64736f6c63430008100033",
  "linkReferences": {},
  "deployedLinkReferences": {}
}