{
  "_format": "hh-sol-artifact-1",
  "contractName": "Marketplace",
  "sourceName": "contracts/Marketplace.sol",
  "abi": [
    {
      "inputs": [
        {
          "internalType": "uint256",
          "name": "_feePercentage",
          "type": "uint256"
        }
      ],
      "stateMutability": "nonpayable",
      "type": "constructor"
    },
    {
      "anonymous": false,
      "inputs": [
        {
          "indexed": false,
          "internalType": "uint256",
          "name": "_itemId",
          "type": "uint256"
        },
        {
          "indexed": true,
          "internalType": "address",
          "name": "_nft",
          "type": "address"
        },
        {
          "indexed": false,
          "internalType": "uint256",
          "name": "_tokenId",
          "type": "uint256"
        },
        {
          "indexed": false,
          "internalType": "uint256",
          "name": "_price",
          "type": "uint256"
        },
        {
          "indexed": true,
          "internalType": "address",
          "name": "_seller",
          "type": "address"
        },
        {
          "indexed": true,
          "internalType": "address",
          "name": "_buyer",
          "type": "address"
        }
      ],
      "name": "LogBuyItem",
      "type": "event"
    },
    {
      "anonymous": false,
      "inputs": [
        {
          "indexed": false,
          "internalType": "uint256",
          "name": "_itemID",
          "type": "uint256"
        },
        {
          "indexed": false,
          "internalType": "address",
          "name": "_seller",
          "type": "address"
        },
        {
          "indexed": false,
          "internalType": "enum Marketplace.item_status",
          "name": "_newStatus",
          "type": "uint8"
        }
      ],
      "name": "LogChangeStatus",
      "type": "event"
    },
    {
      "anonymous": false,
      "inputs": [
        {
          "indexed": false,
          "internalType": "uint256",
          "name": "_itemId",
          "type": "uint256"
        },
        {
          "indexed": true,
          "internalType": "address",
          "name": "_nft",
          "type": "address"
        },
        {
          "indexed": false,
          "internalType": "uint256",
          "name": "_tokenId",
          "type": "uint256"
        },
        {
          "indexed": false,
          "internalType": "uint256",
          "name": "_price",
          "type": "uint256"
        },
        {
          "indexed": true,
          "internalType": "address",
          "name": "_seller",
          "type": "address"
        },
        {
          "indexed": false,
          "internalType": "address",
          "name": "_creator",
          "type": "address"
        }
      ],
      "name": "LogCreateItem",
      "type": "event"
    },
    {
      "anonymous": false,
      "inputs": [
        {
          "indexed": true,
          "internalType": "address",
          "name": "previousOwner",
          "type": "address"
        },
        {
          "indexed": true,
          "internalType": "address",
          "name": "newOwner",
          "type": "address"
        }
      ],
      "name": "OwnershipTransferred",
      "type": "event"
    },
    {
      "anonymous": false,
      "inputs": [
        {
          "indexed": false,
          "internalType": "address",
          "name": "account",
          "type": "address"
        }
      ],
      "name": "Paused",
      "type": "event"
    },
    {
      "anonymous": false,
      "inputs": [
        {
          "indexed": false,
          "internalType": "address",
          "name": "account",
          "type": "address"
        }
      ],
      "name": "Unpaused",
      "type": "event"
    },
    {
      "inputs": [
        {
          "internalType": "uint256",
          "name": "_itemId",
          "type": "uint256"
        }
      ],
      "name": "buyItem",
      "outputs": [],
      "stateMutability": "payable",
      "type": "function"
    },
    {
      "inputs": [
        {
          "internalType": "uint256",
          "name": "_itemId",
          "type": "uint256"
        },
        {
          "internalType": "enum Marketplace.item_status",
          "name": "_newStatus",
          "type": "uint8"
        }
      ],
      "name": "changeItemStatus",
      "outputs": [],
      "stateMutability": "nonpayable",
      "type": "function"
    },
    {
      "inputs": [],
      "name": "feePercentage",
      "outputs": [
        {
          "internalType": "uint256",
          "name": "",
          "type": "uint256"
        }
      ],
      "stateMutability": "view",
      "type": "function"
    },
    {
      "inputs": [],
      "name": "getContractBalance",
      "outputs": [
        {
          "internalType": "uint256",
          "name": "",
          "type": "uint256"
        }
      ],
      "stateMutability": "view",
      "type": "function"
    },
    {
      "inputs": [],
      "name": "getItemsCount",
      "outputs": [
        {
          "internalType": "uint256",
          "name": "",
          "type": "uint256"
        }
      ],
      "stateMutability": "view",
      "type": "function"
    },
    {
      "inputs": [],
      "name": "getItemsSold",
      "outputs": [
        {
          "internalType": "uint256",
          "name": "",
          "type": "uint256"
        }
      ],
      "stateMutability": "view",
      "type": "function"
    },
    {
      "inputs": [
        {
          "internalType": "uint256",
          "name": "_price",
          "type": "uint256"
        }
      ],
      "name": "getListingFees",
      "outputs": [
        {
          "internalType": "uint256",
          "name": "",
          "type": "uint256"
        }
      ],
      "stateMutability": "view",
      "type": "function"
    },
    {
      "inputs": [
        {
          "internalType": "uint256",
          "name": "",
          "type": "uint256"
        }
      ],
      "name": "items",
      "outputs": [
        {
          "internalType": "uint256",
          "name": "itemId",
          "type": "uint256"
        },
        {
          "internalType": "address",
          "name": "nftAddress",
          "type": "address"
        },
        {
          "internalType": "uint256",
          "name": "tokenId",
          "type": "uint256"
        },
        {
          "internalType": "uint256",
          "name": "price",
          "type": "uint256"
        },
        {
          "internalType": "address payable",
          "name": "seller",
          "type": "address"
        },
        {
          "internalType": "address payable",
          "name": "creator",
          "type": "address"
        },
        {
          "internalType": "uint256",
          "name": "creatorRoyaltiesPercentage",
          "type": "uint256"
        },
        {
          "internalType": "enum Marketplace.item_status",
          "name": "status",
          "type": "uint8"
        }
      ],
      "stateMutability": "view",
      "type": "function"
    },
    {
      "inputs": [],
      "name": "itemsCount",
      "outputs": [
        {
          "internalType": "uint256",
          "name": "_value",
          "type": "uint256"
        }
      ],
      "stateMutability": "view",
      "type": "function"
    },
    {
      "inputs": [],
      "name": "itemsSold",
      "outputs": [
        {
          "internalType": "uint256",
          "name": "_value",
          "type": "uint256"
        }
      ],
      "stateMutability": "view",
      "type": "function"
    },
    {
      "inputs": [],
      "name": "listingFeePercentage",
      "outputs": [
        {
          "internalType": "uint256",
          "name": "",
          "type": "uint256"
        }
      ],
      "stateMutability": "view",
      "type": "function"
    },
    {
      "inputs": [
        {
          "internalType": "address",
          "name": "_nft",
          "type": "address"
        },
        {
          "internalType": "uint256",
          "name": "_tokenId",
          "type": "uint256"
        },
        {
          "internalType": "uint256",
          "name": "_price",
          "type": "uint256"
        }
      ],
      "name": "makeItem",
      "outputs": [
        {
          "internalType": "uint256",
          "name": "",
          "type": "uint256"
        }
      ],
      "stateMutability": "payable",
      "type": "function"
    },
    {
      "inputs": [
        {
          "internalType": "address",
          "name": "",
          "type": "address"
        },
        {
          "internalType": "address",
          "name": "",
          "type": "address"
        },
        {
          "internalType": "uint256",
          "name": "",
          "type": "uint256"
        },
        {
          "internalType": "bytes",
          "name": "",
          "type": "bytes"
        }
      ],
      "name": "onERC721Received",
      "outputs": [
        {
          "internalType": "bytes4",
          "name": "",
          "type": "bytes4"
        }
      ],
      "stateMutability": "nonpayable",
      "type": "function"
    },
    {
      "inputs": [],
      "name": "owner",
      "outputs": [
        {
          "internalType": "address",
          "name": "",
          "type": "address"
        }
      ],
      "stateMutability": "view",
      "type": "function"
    },
    {
      "inputs": [],
      "name": "pause",
      "outputs": [],
      "stateMutability": "nonpayable",
      "type": "function"
    },
    {
      "inputs": [],
      "name": "paused",
      "outputs": [
        {
          "internalType": "bool",
          "name": "",
          "type": "bool"
        }
      ],
      "stateMutability": "view",
      "type": "function"
    },
    {
      "inputs": [],
      "name": "renounceOwnership",
      "outputs": [],
      "stateMutability": "nonpayable",
      "type": "function"
    },
    {
      "inputs": [
        {
          "internalType": "uint256",
          "name": "_feePercentage",
          "type": "uint256"
        }
      ],
      "name": "setFeePercentage",
      "outputs": [],
      "stateMutability": "nonpayable",
      "type": "function"
    },
    {
      "inputs": [
        {
          "internalType": "uint256",
          "name": "_listingFeePercentage",
          "type": "uint256"
        }
      ],
      "name": "setListingFeesPercentage",
      "outputs": [],
      "stateMutability": "nonpayable",
      "type": "function"
    },
    {
      "inputs": [
        {
          "internalType": "address",
          "name": "newOwner",
          "type": "address"
        }
      ],
      "name": "transferOwnership",
      "outputs": [],
      "stateMutability": "nonpayable",
      "type": "function"
    },
    {
      "inputs": [],
      "name": "unpause",
      "outputs": [],
      "stateMutability": "nonpayable",
      "type": "function"
    },
    {
      "inputs": [],
      "name": "withdraw",
      "outputs": [],
      "stateMutability": "nonpayable",
      "type": "function"
    }
  ],
  "bytecode": "0x60806040523480156200001157600080fd5b50604051620024ac380380620024ac83398181016040528101906200003791906200019b565b620000576200004b6200008f60201b60201c565b6200009760201b60201c565b600180819055506000600260006101000a81548160ff02191690831515021790555080600381905550600060048190555050620001cd565b600033905090565b60008060009054906101000a900473ffffffffffffffffffffffffffffffffffffffff169050816000806101000a81548173ffffffffffffffffffffffffffffffffffffffff021916908373ffffffffffffffffffffffffffffffffffffffff1602179055508173ffffffffffffffffffffffffffffffffffffffff168173ffffffffffffffffffffffffffffffffffffffff167f8be0079c531659141344cd1fd0a4f28419497f9722a3daafe3b4186f6b6457e060405160405180910390a35050565b600080fd5b6000819050919050565b620001758162000160565b81146200018157600080fd5b50565b60008151905062000195816200016a565b92915050565b600060208284031215620001b457620001b36200015b565b5b6000620001c48482850162000184565b91505092915050565b6122cf80620001dd6000396000f3fe6080604052600436106101355760003560e01c8063913e0a48116100ab578063c4b151411161006f578063c4b15141146103d3578063c528183c146103fe578063e2c03ace14610427578063e7fb74c714610452578063f2fde38b1461046e578063fa00afc71461049757610135565b8063913e0a48146102d35780639df844b9146102fe578063a001ecdd1461033b578063ae06c1b714610366578063bfb231d21461038f57610135565b80635c975abb116100fd5780635c975abb146101fb5780636f9fb98a14610226578063715018a61461025157806378abd6ae146102685780638456cb59146102915780638da5cb5b146102a857610135565b80630888de391461013a578063150b7a02146101655780633ccfd60b146101a25780633f4ba83a146101b9578063512dd020146101d0575b600080fd5b34801561014657600080fd5b5061014f6104c7565b60405161015c919061155b565b60405180910390f35b34801561017157600080fd5b5061018c6004803603810190610187919061175a565b6104cd565b6040516101999190611818565b60405180910390f35b3480156101ae57600080fd5b506101b76104e1565b005b3480156101c557600080fd5b506101ce61058d565b005b3480156101dc57600080fd5b506101e561059f565b6040516101f2919061155b565b60405180910390f35b34801561020757600080fd5b506102106105b0565b60405161021d919061184e565b60405180910390f35b34801561023257600080fd5b5061023b6105c7565b604051610248919061155b565b60405180910390f35b34801561025d57600080fd5b506102666105d7565b005b34801561027457600080fd5b5061028f600480360381019061028a9190611869565b6105eb565b005b34801561029d57600080fd5b506102a66105fd565b005b3480156102b457600080fd5b506102bd61060f565b6040516102ca91906118a5565b60405180910390f35b3480156102df57600080fd5b506102e8610638565b6040516102f5919061155b565b60405180910390f35b34801561030a57600080fd5b5061032560048036038101906103209190611869565b610644565b604051610332919061155b565b60405180910390f35b34801561034757600080fd5b50610350610668565b60405161035d919061155b565b60405180910390f35b34801561037257600080fd5b5061038d60048036038101906103889190611869565b61066e565b005b34801561039b57600080fd5b506103b660048036038101906103b19190611869565b610680565b6040516103ca989796959493929190611958565b60405180910390f35b3480156103df57600080fd5b506103e8610735565b6040516103f5919061155b565b60405180910390f35b34801561040a57600080fd5b50610425600480360381019061042091906119fb565b610746565b005b34801561043357600080fd5b5061043c610949565b604051610449919061155b565b60405180910390f35b61046c60048036038101906104679190611869565b610955565b005b34801561047a57600080fd5b5061049560048036038101906104909190611a3b565b610d74565b005b6104b160048036038101906104ac9190611a68565b610df7565b6040516104be919061155b565b60405180910390f35b60045481565b600063150b7a0260e01b9050949350505050565b6104e9611202565b60026001540361052e576040517f08c379a000000000000000000000000000000000000000000000000000000000815260040161052590611b18565b60405180910390fd5b600260018190555061053e61060f565b73ffffffffffffffffffffffffffffffffffffffff166108fc479081150290604051600060405180830381858888f19350505050158015610583573d6000803e3d6000fd5b5060018081905550565b610595611202565b61059d611280565b565b60006105ab60056112e3565b905090565b6000600260009054906101000a900460ff16905090565b60006105d1611202565b47905090565b6105df611202565b6105e960006112f1565b565b6105f3611202565b8060048190555050565b610605611202565b61060d6113b5565b565b60008060009054906101000a900473ffffffffffffffffffffffffffffffffffffffff16905090565b60068060000154905081565b60006103e8600454836106579190611b67565b6106619190611bf0565b9050919050565b60035481565b610676611202565b8060038190555050565b60076020528060005260406000206000915090508060000154908060010160009054906101000a900473ffffffffffffffffffffffffffffffffffffffff16908060020154908060030154908060040160009054906101000a900473ffffffffffffffffffffffffffffffffffffffff16908060050160009054906101000a900473ffffffffffffffffffffffffffffffffffffffff16908060060154908060070160009054906101000a900460ff16905088565b600061074160066112e3565b905090565b60006007600084815260200190815260200160002090503373ffffffffffffffffffffffffffffffffffffffff168160040160009054906101000a900473ffffffffffffffffffffffffffffffffffffffff1673ffffffffffffffffffffffffffffffffffffffff16146107ef576040517f08c379a00000000000000000000000000000000000000000000000000000000081526004016107e690611c6d565b60405180910390fd5b816002811115610802576108016118e1565b5b8160070160009054906101000a900460ff166002811115610826576108256118e1565b5b03610866576040517f08c379a000000000000000000000000000000000000000000000000000000000815260040161085d90611cd9565b60405180910390fd5b600280811115610879576108786118e1565b5b8160070160009054906101000a900460ff16600281111561089d5761089c6118e1565b5b036108dd576040517f08c379a00000000000000000000000000000000000000000000000000000000081526004016108d490611d45565b60405180910390fd5b818160070160006101000a81548160ff02191690836002811115610904576109036118e1565b5b02179055507fc1e3195802cae45d0816192af3f9b877c549a8ff1b446fc13048021fd1f933b883338460405161093c93929190611d65565b60405180910390a1505050565b60058060000154905081565b61095d611418565b6002600154036109a2576040517f08c379a000000000000000000000000000000000000000000000000000000000815260040161099990611b18565b60405180910390fd5b600260018190555060006007600083815260200190815260200160002090506000821180156109da57506109d660056112e3565b8211155b610a19576040517f08c379a0000000000000000000000000000000000000000000000000000000008152600401610a1090611de8565b60405180910390fd5b8060030154341015610a60576040517f08c379a0000000000000000000000000000000000000000000000000000000008152600401610a5790611e7a565b60405180910390fd5b60016002811115610a7457610a736118e1565b5b8160070160009054906101000a900460ff166002811115610a9857610a976118e1565b5b14610ad8576040517f08c379a0000000000000000000000000000000000000000000000000000000008152600401610acf90611ee6565b60405180910390fd5b600080610ae9848460060154611462565b915091508260050160009054906101000a900473ffffffffffffffffffffffffffffffffffffffff1673ffffffffffffffffffffffffffffffffffffffff166108fc829081150290604051600060405180830381858888f19350505050158015610b57573d6000803e3d6000fd5b508260040160009054906101000a900473ffffffffffffffffffffffffffffffffffffffff1673ffffffffffffffffffffffffffffffffffffffff166108fc839081150290604051600060405180830381858888f19350505050158015610bc2573d6000803e3d6000fd5b5060028360070160006101000a81548160ff02191690836002811115610beb57610bea6118e1565b5b021790555060008360010160009054906101000a900473ffffffffffffffffffffffffffffffffffffffff1690508073ffffffffffffffffffffffffffffffffffffffff166342842e0e303387600201546040518463ffffffff1660e01b8152600401610c5a93929190611f06565b600060405180830381600087803b158015610c7457600080fd5b505af1158015610c88573d6000803e3d6000fd5b50505050610c9660066114db565b3373ffffffffffffffffffffffffffffffffffffffff168460040160009054906101000a900473ffffffffffffffffffffffffffffffffffffffff1673ffffffffffffffffffffffffffffffffffffffff168560010160009054906101000a900473ffffffffffffffffffffffffffffffffffffffff1673ffffffffffffffffffffffffffffffffffffffff167f179738be873fb5cb1076ebdeba2cd8886e3a9cf77d66790f0367dd0f694144848888600201548960030154604051610d5e93929190611f3d565b60405180910390a4505050506001808190555050565b610d7c611202565b600073ffffffffffffffffffffffffffffffffffffffff168173ffffffffffffffffffffffffffffffffffffffff1603610deb576040517f08c379a0000000000000000000000000000000000000000000000000000000008152600401610de290611fe6565b60405180910390fd5b610df4816112f1565b50565b6000610e01611418565b600260015403610e46576040517f08c379a0000000000000000000000000000000000000000000000000000000008152600401610e3d90611b18565b60405180910390fd5b60026001819055506000610e5983610644565b905034811115610e9e576040517f08c379a0000000000000000000000000000000000000000000000000000000008152600401610e9590612052565b60405180910390fd5b610ea860056114db565b6000610eb460056112e3565b90508573ffffffffffffffffffffffffffffffffffffffff166342842e0e3330886040518463ffffffff1660e01b8152600401610ef393929190611f06565b600060405180830381600087803b158015610f0d57600080fd5b505af1158015610f21573d6000803e3d6000fd5b505050506000808773ffffffffffffffffffffffffffffffffffffffff1663b561f03e886040518263ffffffff1660e01b8152600401610f61919061155b565b60408051808303816000875af1158015610f7f573d6000803e3d6000fd5b505050506040513d601f19601f82011682018060405250810190610fa3919061209c565b915091506040518061010001604052808481526020018973ffffffffffffffffffffffffffffffffffffffff1681526020018881526020018781526020013373ffffffffffffffffffffffffffffffffffffffff1681526020018373ffffffffffffffffffffffffffffffffffffffff16815260200182815260200160016002811115611033576110326118e1565b5b815250600760008581526020019081526020016000206000820151816000015560208201518160010160006101000a81548173ffffffffffffffffffffffffffffffffffffffff021916908373ffffffffffffffffffffffffffffffffffffffff160217905550604082015181600201556060820151816003015560808201518160040160006101000a81548173ffffffffffffffffffffffffffffffffffffffff021916908373ffffffffffffffffffffffffffffffffffffffff16021790555060a08201518160050160006101000a81548173ffffffffffffffffffffffffffffffffffffffff021916908373ffffffffffffffffffffffffffffffffffffffff16021790555060c0820151816006015560e08201518160070160006101000a81548160ff02191690836002811115611171576111706118e1565b5b02179055509050503373ffffffffffffffffffffffffffffffffffffffff168873ffffffffffffffffffffffffffffffffffffffff167fd87a6fff1d9137a29fab37cfdaf8519abc902ca48438125a02baf96a5d52307f858a8a876040516111dc94939291906120dc565b60405180910390a36111ee60056112e3565b945050505050600180819055509392505050565b61120a6114f1565b73ffffffffffffffffffffffffffffffffffffffff1661122861060f565b73ffffffffffffffffffffffffffffffffffffffff161461127e576040517f08c379a00000000000000000000000000000000000000000000000000000000081526004016112759061216d565b60405180910390fd5b565b6112886114f9565b6000600260006101000a81548160ff0219169083151502179055507f5db9ee0a495bf2e6ff9c91a7834c1ba4fdd244a5e8aa4e537bd38aeae4b073aa6112cc6114f1565b6040516112d991906118a5565b60405180910390a1565b600081600001549050919050565b60008060009054906101000a900473ffffffffffffffffffffffffffffffffffffffff169050816000806101000a81548173ffffffffffffffffffffffffffffffffffffffff021916908373ffffffffffffffffffffffffffffffffffffffff1602179055508173ffffffffffffffffffffffffffffffffffffffff168173ffffffffffffffffffffffffffffffffffffffff167f8be0079c531659141344cd1fd0a4f28419497f9722a3daafe3b4186f6b6457e060405160405180910390a35050565b6113bd611418565b6001600260006101000a81548160ff0219169083151502179055507f62e78cea01bee320cd4e420270b5ea74000d11b0c9f74754ebdbfc544b05a2586114016114f1565b60405161140e91906118a5565b60405180910390a1565b6114206105b0565b15611460576040517f08c379a0000000000000000000000000000000000000000000000000000000008152600401611457906121d9565b60405180910390fd5b565b600080600080600760008781526020019081526020016000206003015490506103e885826114909190611b67565b61149a9190611bf0565b92506103e8600354826114ad9190611b67565b6114b79190611bf0565b91508282826114c691906121f9565b6114d091906121f9565b935050509250929050565b6001816000016000828254019250508190555050565b600033905090565b6115016105b0565b611540576040517f08c379a000000000000000000000000000000000000000000000000000000000815260040161153790612279565b60405180910390fd5b565b6000819050919050565b61155581611542565b82525050565b6000602082019050611570600083018461154c565b92915050565b6000604051905090565b600080fd5b600080fd5b600073ffffffffffffffffffffffffffffffffffffffff82169050919050565b60006115b58261158a565b9050919050565b6115c5816115aa565b81146115d057600080fd5b50565b6000813590506115e2816115bc565b92915050565b6115f181611542565b81146115fc57600080fd5b50565b60008135905061160e816115e8565b92915050565b600080fd5b600080fd5b6000601f19601f8301169050919050565b7f4e487b7100000000000000000000000000000000000000000000000000000000600052604160045260246000fd5b6116678261161e565b810181811067ffffffffffffffff821117156116865761168561162f565b5b80604052505050565b6000611699611576565b90506116a5828261165e565b919050565b600067ffffffffffffffff8211156116c5576116c461162f565b5b6116ce8261161e565b9050602081019050919050565b82818337600083830152505050565b60006116fd6116f8846116aa565b61168f565b90508281526020810184848401111561171957611718611619565b5b6117248482856116db565b509392505050565b600082601f83011261174157611740611614565b5b81356117518482602086016116ea565b91505092915050565b6000806000806080858703121561177457611773611580565b5b6000611782878288016115d3565b9450506020611793878288016115d3565b93505060406117a4878288016115ff565b925050606085013567ffffffffffffffff8111156117c5576117c4611585565b5b6117d18782880161172c565b91505092959194509250565b60007fffffffff0000000000000000000000000000000000000000000000000000000082169050919050565b611812816117dd565b82525050565b600060208201905061182d6000830184611809565b92915050565b60008115159050919050565b61184881611833565b82525050565b6000602082019050611863600083018461183f565b92915050565b60006020828403121561187f5761187e611580565b5b600061188d848285016115ff565b91505092915050565b61189f816115aa565b82525050565b60006020820190506118ba6000830184611896565b92915050565b60006118cb8261158a565b9050919050565b6118db816118c0565b82525050565b7f4e487b7100000000000000000000000000000000000000000000000000000000600052602160045260246000fd5b60038110611921576119206118e1565b5b50565b600081905061193282611910565b919050565b600061194282611924565b9050919050565b61195281611937565b82525050565b60006101008201905061196e600083018b61154c565b61197b602083018a611896565b611988604083018961154c565b611995606083018861154c565b6119a260808301876118d2565b6119af60a08301866118d2565b6119bc60c083018561154c565b6119c960e0830184611949565b9998505050505050505050565b600381106119e357600080fd5b50565b6000813590506119f5816119d6565b92915050565b60008060408385031215611a1257611a11611580565b5b6000611a20858286016115ff565b9250506020611a31858286016119e6565b9150509250929050565b600060208284031215611a5157611a50611580565b5b6000611a5f848285016115d3565b91505092915050565b600080600060608486031215611a8157611a80611580565b5b6000611a8f868287016115d3565b9350506020611aa0868287016115ff565b9250506040611ab1868287016115ff565b9150509250925092565b600082825260208201905092915050565b7f5265656e7472616e637947756172643a207265656e7472616e742063616c6c00600082015250565b6000611b02601f83611abb565b9150611b0d82611acc565b602082019050919050565b60006020820190508181036000830152611b3181611af5565b9050919050565b7f4e487b7100000000000000000000000000000000000000000000000000000000600052601160045260246000fd5b6000611b7282611542565b9150611b7d83611542565b9250817fffffffffffffffffffffffffffffffffffffffffffffffffffffffffffffffff0483118215151615611bb657611bb5611b38565b5b828202905092915050565b7f4e487b7100000000000000000000000000000000000000000000000000000000600052601260045260246000fd5b6000611bfb82611542565b9150611c0683611542565b925082611c1657611c15611bc1565b5b828204905092915050565b7f6f6e6c792073656c6c65722063616e206368616e676520737461747573210000600082015250565b6000611c57601e83611abb565b9150611c6282611c21565b602082019050919050565b60006020820190508181036000830152611c8681611c4a565b9050919050565b7f7374617475732073686f756c64206265206e6577210000000000000000000000600082015250565b6000611cc3601583611abb565b9150611cce82611c8d565b602082019050919050565b60006020820190508181036000830152611cf281611cb6565b9050919050565b7f6974656d20616c726561647920736f6c64210000000000000000000000000000600082015250565b6000611d2f601283611abb565b9150611d3a82611cf9565b602082019050919050565b60006020820190508181036000830152611d5e81611d22565b9050919050565b6000606082019050611d7a600083018661154c565b611d876020830185611896565b611d946040830184611949565b949350505050565b7f6974656d20646f6573206e6f7420657869737400000000000000000000000000600082015250565b6000611dd2601383611abb565b9150611ddd82611d9c565b602082019050919050565b60006020820190508181036000830152611e0181611dc5565b9050919050565b7f6e6f7420656e6f75676820657468657220746f20636f766572206974656d207060008201527f7269636520616e64206d61726b65742066656500000000000000000000000000602082015250565b6000611e64603383611abb565b9150611e6f82611e08565b604082019050919050565b60006020820190508181036000830152611e9381611e57565b9050919050565b7f6974656d2073686f756c64206265206c69737465640000000000000000000000600082015250565b6000611ed0601583611abb565b9150611edb82611e9a565b602082019050919050565b60006020820190508181036000830152611eff81611ec3565b9050919050565b6000606082019050611f1b6000830186611896565b611f286020830185611896565b611f35604083018461154c565b949350505050565b6000606082019050611f52600083018661154c565b611f5f602083018561154c565b611f6c604083018461154c565b949350505050565b7f4f776e61626c653a206e6577206f776e657220697320746865207a65726f206160008201527f6464726573730000000000000000000000000000000000000000000000000000602082015250565b6000611fd0602683611abb565b9150611fdb82611f74565b604082019050919050565b60006020820190508181036000830152611fff81611fc3565b9050919050565b7f53686f756c6420706179206c697374696e672066656573210000000000000000600082015250565b600061203c601883611abb565b915061204782612006565b602082019050919050565b6000602082019050818103600083015261206b8161202f565b9050919050565b600081519050612081816115bc565b92915050565b600081519050612096816115e8565b92915050565b600080604083850312156120b3576120b2611580565b5b60006120c185828601612072565b92505060206120d285828601612087565b9150509250929050565b60006080820190506120f1600083018761154c565b6120fe602083018661154c565b61210b604083018561154c565b6121186060830184611896565b95945050505050565b7f4f776e61626c653a2063616c6c6572206973206e6f7420746865206f776e6572600082015250565b6000612157602083611abb565b915061216282612121565b602082019050919050565b600060208201905081810360008301526121868161214a565b9050919050565b7f5061757361626c653a2070617573656400000000000000000000000000000000600082015250565b60006121c3601083611abb565b91506121ce8261218d565b602082019050919050565b600060208201905081810360008301526121f2816121b6565b9050919050565b600061220482611542565b915061220f83611542565b925082820390508181111561222757612226611b38565b5b92915050565b7f5061757361626c653a206e6f7420706175736564000000000000000000000000600082015250565b6000612263601483611abb565b915061226e8261222d565b602082019050919050565b6000602082019050818103600083015261229281612256565b905091905056fea26469706673582212203d8497f394408408f5c54e1f61c6ca22a08c4bbccb6e38596cfce28cc4d830f964736f6c63430008100033",
  "linkReferences": {},
  "deployedLinkReferences": {}
}