{
  "_format": "hh-sol-artifact-1",
  "contractName": "JupApesNFT",
  "sourceName": "contracts/JupApesNFT.sol",
  "abi": [
    {
      "inputs": [
        {
          "internalType": "string",
          "name": "_nameNFT",
          "type": "string"
        },
        {
          "internalType": "string",
          "name": "_symbolNFT",
          "type": "string"
        }
      ],
      "stateMutability": "nonpayable",
      "type": "constructor"
    },
    {
      "anonymous": false,
      "inputs": [
        {
          "indexed": true,
          "internalType": "address",
          "name": "owner",
          "type": "address"
        },
        {
          "indexed": true,
          "internalType": "address",
          "name": "approved",
          "type": "address"
        },
        {
          "indexed": true,
          "internalType": "uint256",
          "name": "tokenId",
          "type": "uint256"
        }
      ],
      "name": "Approval",
      "type": "event"
    },
    {
      "anonymous": false,
      "inputs": [
        {
          "indexed": true,
          "internalType": "address",
          "name": "owner",
          "type": "address"
        },
        {
          "indexed": true,
          "internalType": "address",
          "name": "operator",
          "type": "address"
        },
        {
          "indexed": false,
          "internalType": "bool",
          "name": "approved",
          "type": "bool"
        }
      ],
      "name": "ApprovalForAll",
      "type": "event"
    },
    {
      "anonymous": false,
      "inputs": [
        {
          "indexed": false,
          "internalType": "uint256",
          "name": "_nftId",
          "type": "uint256"
        },
        {
          "indexed": false,
          "internalType": "address",
          "name": "_sender",
          "type": "address"
        },
        {
          "indexed": false,
          "internalType": "address",
          "name": "_owner",
          "type": "address"
        },
        {
          "indexed": false,
          "internalType": "string",
          "name": "_nftURI",
          "type": "string"
        },
        {
          "indexed": false,
          "internalType": "uint256",
          "name": "_royaltiesPercentage",
          "type": "uint256"
        },
        {
          "indexed": false,
          "internalType": "uint256",
          "name": "_stakingRewardsPercentage",
          "type": "uint256"
        }
      ],
      "name": "LogNFTMinted",
      "type": "event"
    },
    {
      "anonymous": false,
      "inputs": [
        {
          "indexed": true,
          "internalType": "address",
          "name": "previousOwner",
          "type": "address"
        },
        {
          "indexed": true,
          "internalType": "address",
          "name": "newOwner",
          "type": "address"
        }
      ],
      "name": "OwnershipTransferred",
      "type": "event"
    },
    {
      "anonymous": false,
      "inputs": [
        {
          "indexed": false,
          "internalType": "address",
          "name": "account",
          "type": "address"
        }
      ],
      "name": "Paused",
      "type": "event"
    },
    {
      "anonymous": false,
      "inputs": [
        {
          "indexed": true,
          "internalType": "address",
          "name": "from",
          "type": "address"
        },
        {
          "indexed": true,
          "internalType": "address",
          "name": "to",
          "type": "address"
        },
        {
          "indexed": true,
          "internalType": "uint256",
          "name": "tokenId",
          "type": "uint256"
        }
      ],
      "name": "Transfer",
      "type": "event"
    },
    {
      "anonymous": false,
      "inputs": [
        {
          "indexed": false,
          "internalType": "address",
          "name": "account",
          "type": "address"
        }
      ],
      "name": "Unpaused",
      "type": "event"
    },
    {
      "inputs": [],
      "name": "CAP_VALUE",
      "outputs": [
        {
          "internalType": "uint256",
          "name": "",
          "type": "uint256"
        }
      ],
      "stateMutability": "view",
      "type": "function"
    },
    {
      "inputs": [],
      "name": "MAX_ROYALTIES_PERCENTAGE",
      "outputs": [
        {
          "internalType": "uint256",
          "name": "",
          "type": "uint256"
        }
      ],
      "stateMutability": "view",
      "type": "function"
    },
    {
      "inputs": [
        {
          "internalType": "address",
          "name": "to",
          "type": "address"
        },
        {
          "internalType": "uint256",
          "name": "tokenId",
          "type": "uint256"
        }
      ],
      "name": "approve",
      "outputs": [],
      "stateMutability": "nonpayable",
      "type": "function"
    },
    {
      "inputs": [
        {
          "internalType": "address",
          "name": "owner",
          "type": "address"
        }
      ],
      "name": "balanceOf",
      "outputs": [
        {
          "internalType": "uint256",
          "name": "",
          "type": "uint256"
        }
      ],
      "stateMutability": "view",
      "type": "function"
    },
    {
      "inputs": [
        {
          "internalType": "uint256",
          "name": "tokenId",
          "type": "uint256"
        }
      ],
      "name": "burn",
      "outputs": [],
      "stateMutability": "nonpayable",
      "type": "function"
    },
    {
      "inputs": [
        {
          "internalType": "uint256",
          "name": "tokenId",
          "type": "uint256"
        }
      ],
      "name": "getApproved",
      "outputs": [
        {
          "internalType": "address",
          "name": "",
          "type": "address"
        }
      ],
      "stateMutability": "view",
      "type": "function"
    },
    {
      "inputs": [],
      "name": "getChainID",
      "outputs": [
        {
          "internalType": "uint256",
          "name": "",
          "type": "uint256"
        }
      ],
      "stateMutability": "view",
      "type": "function"
    },
    {
      "inputs": [],
      "name": "getContractBalance",
      "outputs": [
        {
          "internalType": "uint256",
          "name": "",
          "type": "uint256"
        }
      ],
      "stateMutability": "view",
      "type": "function"
    },
    {
      "inputs": [
        {
          "internalType": "address",
          "name": "owner",
          "type": "address"
        },
        {
          "internalType": "address",
          "name": "operator",
          "type": "address"
        }
      ],
      "name": "isApprovedForAll",
      "outputs": [
        {
          "internalType": "bool",
          "name": "",
          "type": "bool"
        }
      ],
      "stateMutability": "view",
      "type": "function"
    },
    {
      "inputs": [
        {
          "internalType": "address",
          "name": "_to",
          "type": "address"
        },
        {
          "internalType": "string",
          "name": "_tokenURI",
          "type": "string"
        },
        {
          "internalType": "uint96",
          "name": "_royaltiesPercentage",
          "type": "uint96"
        },
        {
          "internalType": "uint256",
          "name": "_stakingRewardsPercentage",
          "type": "uint256"
        },
        {
          "internalType": "uint256",
          "name": "_tokenId",
          "type": "uint256"
        }
      ],
      "name": "mint",
      "outputs": [
        {
          "internalType": "uint256",
          "name": "",
          "type": "uint256"
        }
      ],
      "stateMutability": "nonpayable",
      "type": "function"
    },
    {
      "inputs": [],
      "name": "name",
      "outputs": [
        {
          "internalType": "string",
          "name": "",
          "type": "string"
        }
      ],
      "stateMutability": "view",
      "type": "function"
    },
    {
      "inputs": [],
      "name": "owner",
      "outputs": [
        {
          "internalType": "address",
          "name": "",
          "type": "address"
        }
      ],
      "stateMutability": "view",
      "type": "function"
    },
    {
      "inputs": [
        {
          "internalType": "uint256",
          "name": "tokenId",
          "type": "uint256"
        }
      ],
      "name": "ownerOf",
      "outputs": [
        {
          "internalType": "address",
          "name": "",
          "type": "address"
        }
      ],
      "stateMutability": "view",
      "type": "function"
    },
    {
      "inputs": [],
      "name": "pause",
      "outputs": [],
      "stateMutability": "nonpayable",
      "type": "function"
    },
    {
      "inputs": [],
      "name": "paused",
      "outputs": [
        {
          "internalType": "bool",
          "name": "",
          "type": "bool"
        }
      ],
      "stateMutability": "view",
      "type": "function"
    },
    {
      "inputs": [
        {
          "internalType": "address",
          "name": "redeemer",
          "type": "address"
        },
        {
          "components": [
            {
              "internalType": "uint256",
              "name": "tokenId",
              "type": "uint256"
            },
            {
              "internalType": "uint256",
              "name": "minPrice",
              "type": "uint256"
            },
            {
              "internalType": "string",
              "name": "uri",
              "type": "string"
            },
            {
              "internalType": "uint256",
              "name": "royalties",
              "type": "uint256"
            },
            {
              "internalType": "uint256",
              "name": "stakingRewards",
              "type": "uint256"
            },
            {
              "internalType": "bytes",
              "name": "signature",
              "type": "bytes"
            }
          ],
          "internalType": "struct JupApesVoucher.NFTVoucher",
          "name": "voucher",
          "type": "tuple"
        }
      ],
      "name": "redeem",
      "outputs": [
        {
          "internalType": "uint256",
          "name": "",
          "type": "uint256"
        }
      ],
      "stateMutability": "payable",
      "type": "function"
    },
    {
      "inputs": [],
      "name": "renounceOwnership",
      "outputs": [],
      "stateMutability": "nonpayable",
      "type": "function"
    },
    {
      "inputs": [
        {
          "internalType": "uint256",
          "name": "_tokenId",
          "type": "uint256"
        },
        {
          "internalType": "uint256",
          "name": "_salePrice",
          "type": "uint256"
        }
      ],
      "name": "royaltyInfo",
      "outputs": [
        {
          "internalType": "address",
          "name": "",
          "type": "address"
        },
        {
          "internalType": "uint256",
          "name": "",
          "type": "uint256"
        }
      ],
      "stateMutability": "view",
      "type": "function"
    },
    {
      "inputs": [
        {
          "internalType": "address",
          "name": "from",
          "type": "address"
        },
        {
          "internalType": "address",
          "name": "to",
          "type": "address"
        },
        {
          "internalType": "uint256",
          "name": "tokenId",
          "type": "uint256"
        }
      ],
      "name": "safeTransferFrom",
      "outputs": [],
      "stateMutability": "nonpayable",
      "type": "function"
    },
    {
      "inputs": [
        {
          "internalType": "address",
          "name": "from",
          "type": "address"
        },
        {
          "internalType": "address",
          "name": "to",
          "type": "address"
        },
        {
          "internalType": "uint256",
          "name": "tokenId",
          "type": "uint256"
        },
        {
          "internalType": "bytes",
          "name": "data",
          "type": "bytes"
        }
      ],
      "name": "safeTransferFrom",
      "outputs": [],
      "stateMutability": "nonpayable",
      "type": "function"
    },
    {
      "inputs": [
        {
          "internalType": "address",
          "name": "operator",
          "type": "address"
        },
        {
          "internalType": "bool",
          "name": "approved",
          "type": "bool"
        }
      ],
      "name": "setApprovalForAll",
      "outputs": [],
      "stateMutability": "nonpayable",
      "type": "function"
    },
    {
      "inputs": [
        {
          "internalType": "uint256",
          "name": "",
          "type": "uint256"
        }
      ],
      "name": "stakingRewardsPercentage",
      "outputs": [
        {
          "internalType": "uint256",
          "name": "",
          "type": "uint256"
        }
      ],
      "stateMutability": "view",
      "type": "function"
    },
    {
      "inputs": [
        {
          "internalType": "bytes4",
          "name": "interfaceId",
          "type": "bytes4"
        }
      ],
      "name": "supportsInterface",
      "outputs": [
        {
          "internalType": "bool",
          "name": "",
          "type": "bool"
        }
      ],
      "stateMutability": "view",
      "type": "function"
    },
    {
      "inputs": [],
      "name": "symbol",
      "outputs": [
        {
          "internalType": "string",
          "name": "",
          "type": "string"
        }
      ],
      "stateMutability": "view",
      "type": "function"
    },
    {
      "inputs": [],
      "name": "tokenCount",
      "outputs": [
        {
          "internalType": "uint256",
          "name": "",
          "type": "uint256"
        }
      ],
      "stateMutability": "view",
      "type": "function"
    },
    {
      "inputs": [
        {
          "internalType": "uint256",
          "name": "tokenId",
          "type": "uint256"
        }
      ],
      "name": "tokenURI",
      "outputs": [
        {
          "internalType": "string",
          "name": "",
          "type": "string"
        }
      ],
      "stateMutability": "view",
      "type": "function"
    },
    {
      "inputs": [
        {
          "internalType": "address",
          "name": "from",
          "type": "address"
        },
        {
          "internalType": "address",
          "name": "to",
          "type": "address"
        },
        {
          "internalType": "uint256",
          "name": "tokenId",
          "type": "uint256"
        }
      ],
      "name": "transferFrom",
      "outputs": [],
      "stateMutability": "nonpayable",
      "type": "function"
    },
    {
      "inputs": [
        {
          "internalType": "address",
          "name": "newOwner",
          "type": "address"
        }
      ],
      "name": "transferOwnership",
      "outputs": [],
      "stateMutability": "nonpayable",
      "type": "function"
    },
    {
      "inputs": [],
      "name": "unpause",
      "outputs": [],
      "stateMutability": "nonpayable",
      "type": "function"
    },
    {
      "inputs": [],
      "name": "withdraw",
      "outputs": [],
      "stateMutability": "nonpayable",
      "type": "function"
    }
  ],
  "bytecode": "0x6101406040523480156200001257600080fd5b5060405162005b5c38038062005b5c833981810160405281019062000038919062000466565b6040518060400160405280600f81526020017f4c617a794e46542d566f756368657200000000000000000000000000000000008152506040518060400160405280600181526020017f310000000000000000000000000000000000000000000000000000000000000081525083838160009081620000b7919062000736565b508060019081620000c9919062000736565b50505060008280519060200120905060008280519060200120905060007f8b73c3c69bb8fe3d512ecc4cf759cc79239f7b179b0ffacaa9a75d522b39400f90508260e081815250508161010081815250504660a0818152505062000135818484620001c960201b60201c565b608081815250503073ffffffffffffffffffffffffffffffffffffffff1660c08173ffffffffffffffffffffffffffffffffffffffff1681525050806101208181525050505050505060016008819055506000600a60006101000a81548160ff021916908315150217905550620001c1620001b56200020560201b60201c565b6200020d60201b60201c565b5050620008eb565b60008383834630604051602001620001e69594939291906200088e565b6040516020818303038152906040528051906020012090509392505050565b600033905090565b6000600a60019054906101000a900473ffffffffffffffffffffffffffffffffffffffff16905081600a60016101000a81548173ffffffffffffffffffffffffffffffffffffffff021916908373ffffffffffffffffffffffffffffffffffffffff1602179055508173ffffffffffffffffffffffffffffffffffffffff168173ffffffffffffffffffffffffffffffffffffffff167f8be0079c531659141344cd1fd0a4f28419497f9722a3daafe3b4186f6b6457e060405160405180910390a35050565b6000604051905090565b600080fd5b600080fd5b600080fd5b600080fd5b6000601f19601f8301169050919050565b7f4e487b7100000000000000000000000000000000000000000000000000000000600052604160045260246000fd5b6200033c82620002f1565b810181811067ffffffffffffffff821117156200035e576200035d62000302565b5b80604052505050565b600062000373620002d3565b905062000381828262000331565b919050565b600067ffffffffffffffff821115620003a457620003a362000302565b5b620003af82620002f1565b9050602081019050919050565b60005b83811015620003dc578082015181840152602081019050620003bf565b60008484015250505050565b6000620003ff620003f98462000386565b62000367565b9050828152602081018484840111156200041e576200041d620002ec565b5b6200042b848285620003bc565b509392505050565b600082601f8301126200044b576200044a620002e7565b5b81516200045d848260208601620003e8565b91505092915050565b6000806040838503121562000480576200047f620002dd565b5b600083015167ffffffffffffffff811115620004a157620004a0620002e2565b5b620004af8582860162000433565b925050602083015167ffffffffffffffff811115620004d357620004d2620002e2565b5b620004e18582860162000433565b9150509250929050565b600081519050919050565b7f4e487b7100000000000000000000000000000000000000000000000000000000600052602260045260246000fd5b600060028204905060018216806200053e57607f821691505b602082108103620005545762000553620004f6565b5b50919050565b60008190508160005260206000209050919050565b60006020601f8301049050919050565b600082821b905092915050565b600060088302620005be7fffffffffffffffffffffffffffffffffffffffffffffffffffffffffffffffff826200057f565b620005ca86836200057f565b95508019841693508086168417925050509392505050565b6000819050919050565b6000819050919050565b600062000617620006116200060b84620005e2565b620005ec565b620005e2565b9050919050565b6000819050919050565b6200063383620005f6565b6200064b62000642826200061e565b8484546200058c565b825550505050565b600090565b6200066262000653565b6200066f81848462000628565b505050565b5b8181101562000697576200068b60008262000658565b60018101905062000675565b5050565b601f821115620006e657620006b0816200055a565b620006bb846200056f565b81016020851015620006cb578190505b620006e3620006da856200056f565b83018262000674565b50505b505050565b600082821c905092915050565b60006200070b60001984600802620006eb565b1980831691505092915050565b6000620007268383620006f8565b9150826002028217905092915050565b6200074182620004eb565b67ffffffffffffffff8111156200075d576200075c62000302565b5b62000769825462000525565b620007768282856200069b565b600060209050601f831160018114620007ae576000841562000799578287015190505b620007a5858262000718565b86555062000815565b601f198416620007be866200055a565b60005b82811015620007e857848901518255600182019150602085019450602081019050620007c1565b8683101562000808578489015162000804601f891682620006f8565b8355505b6001600288020188555050505b505050505050565b6000819050919050565b62000832816200081d565b82525050565b6200084381620005e2565b82525050565b600073ffffffffffffffffffffffffffffffffffffffff82169050919050565b6000620008768262000849565b9050919050565b620008888162000869565b82525050565b600060a082019050620008a5600083018862000827565b620008b4602083018762000827565b620008c3604083018662000827565b620008d2606083018562000838565b620008e160808301846200087d565b9695505050505050565b60805160a05160c05160e05161010051610120516152216200093b6000396000612f4201526000612f8401526000612f6301526000612e9801526000612eee01526000612f1701526152216000f3fe6080604052600436106101cd5760003560e01c80636071dfb6116100f75780638da5cb5b11610095578063b88d4fde11610064578063b88d4fde1461065a578063c87b56dd14610683578063e985e9c5146106c0578063f2fde38b146106fd576101cd565b80638da5cb5b146105b057806395d89b41146105db5780639f181b5e14610606578063a22cb46514610631576101cd565b806370a08231116100d157806370a0823114610508578063715018a614610545578063751badbe1461055c5780638456cb5914610599576101cd565b80636071dfb6146104755780636352211e146104a05780636f9fb98a146104dd576101cd565b8063374c23f01161016f57806342966c681161013e57806342966c68146103c657806356340d0e146103ef578063564b81ef1461041f5780635c975abb1461044a576101cd565b8063374c23f0146103445780633ccfd60b1461036f5780633f4ba83a1461038657806342842e0e1461039d576101cd565b8063095ea7b3116101ab578063095ea7b3146102775780630becad52146102a057806323b872dd146102dd5780632a55205a14610306576101cd565b806301ffc9a7146101d257806306fdde031461020f578063081812fc1461023a575b600080fd5b3480156101de57600080fd5b506101f960048036038101906101f491906131f0565b610726565b6040516102069190613238565b60405180910390f35b34801561021b57600080fd5b50610224610738565b60405161023191906132e3565b60405180910390f35b34801561024657600080fd5b50610261600480360381019061025c919061333b565b6107ca565b60405161026e91906133a9565b60405180910390f35b34801561028357600080fd5b5061029e600480360381019061029991906133f0565b610810565b005b3480156102ac57600080fd5b506102c760048036038101906102c2919061333b565b610927565b6040516102d4919061343f565b60405180910390f35b3480156102e957600080fd5b5061030460048036038101906102ff919061345a565b61093f565b005b34801561031257600080fd5b5061032d600480360381019061032891906134ad565b61099f565b60405161033b9291906134ed565b60405180910390f35b34801561035057600080fd5b50610359610b89565b604051610366919061343f565b60405180910390f35b34801561037b57600080fd5b50610384610b8f565b005b34801561039257600080fd5b5061039b610c3c565b005b3480156103a957600080fd5b506103c460048036038101906103bf919061345a565b610c4e565b005b3480156103d257600080fd5b506103ed60048036038101906103e8919061333b565b610c6e565b005b6104096004803603810190610404919061353a565b610cca565b604051610416919061343f565b60405180910390f35b34801561042b57600080fd5b50610434610f8b565b604051610441919061343f565b60405180910390f35b34801561045657600080fd5b5061045f610f98565b60405161046c9190613238565b60405180910390f35b34801561048157600080fd5b5061048a610faf565b604051610497919061343f565b60405180910390f35b3480156104ac57600080fd5b506104c760048036038101906104c2919061333b565b610fb4565b6040516104d491906133a9565b60405180910390f35b3480156104e957600080fd5b506104f2611065565b6040516104ff919061343f565b60405180910390f35b34801561051457600080fd5b5061052f600480360381019061052a9190613596565b61106d565b60405161053c919061343f565b60405180910390f35b34801561055157600080fd5b5061055a611124565b005b34801561056857600080fd5b50610583600480360381019061057e919061373c565b611138565b604051610590919061343f565b60405180910390f35b3480156105a557600080fd5b506105ae611389565b005b3480156105bc57600080fd5b506105c561139b565b6040516105d291906133a9565b60405180910390f35b3480156105e757600080fd5b506105f06113c5565b6040516105fd91906132e3565b60405180910390f35b34801561061257600080fd5b5061061b611457565b604051610628919061343f565b60405180910390f35b34801561063d57600080fd5b50610658600480360381019061065391906137ff565b61145d565b005b34801561066657600080fd5b50610681600480360381019061067c91906138e0565b611473565b005b34801561068f57600080fd5b506106aa60048036038101906106a5919061333b565b6114d5565b6040516106b791906132e3565b60405180910390f35b3480156106cc57600080fd5b506106e760048036038101906106e29190613963565b6114e7565b6040516106f49190613238565b60405180910390f35b34801561070957600080fd5b50610724600480360381019061071f9190613596565b61157b565b005b6000610731826115fe565b9050919050565b606060008054610747906139d2565b80601f0160208091040260200160405190810160405280929190818152602001828054610773906139d2565b80156107c05780601f10610795576101008083540402835291602001916107c0565b820191906000526020600020905b8154815290600101906020018083116107a357829003601f168201915b5050505050905090565b60006107d582611678565b6004600083815260200190815260200160002060009054906101000a900473ffffffffffffffffffffffffffffffffffffffff169050919050565b600061081b82610fb4565b90508073ffffffffffffffffffffffffffffffffffffffff168373ffffffffffffffffffffffffffffffffffffffff160361088b576040517f08c379a000000000000000000000000000000000000000000000000000000000815260040161088290613a75565b60405180910390fd5b8073ffffffffffffffffffffffffffffffffffffffff166108aa6116c3565b73ffffffffffffffffffffffffffffffffffffffff1614806108d957506108d8816108d36116c3565b6114e7565b5b610918576040517f08c379a000000000000000000000000000000000000000000000000000000000815260040161090f90613b07565b60405180910390fd5b61092283836116cb565b505050565b600b6020528060005260406000206000915090505481565b61095061094a6116c3565b82611784565b61098f576040517f08c379a000000000000000000000000000000000000000000000000000000000815260040161098690613b99565b60405180910390fd5b61099a838383611819565b505050565b6000806000600760008681526020019081526020016000206040518060400160405290816000820160009054906101000a900473ffffffffffffffffffffffffffffffffffffffff1673ffffffffffffffffffffffffffffffffffffffff1673ffffffffffffffffffffffffffffffffffffffff1681526020016000820160149054906101000a90046bffffffffffffffffffffffff166bffffffffffffffffffffffff166bffffffffffffffffffffffff16815250509050600073ffffffffffffffffffffffffffffffffffffffff16816000015173ffffffffffffffffffffffffffffffffffffffff1603610b345760066040518060400160405290816000820160009054906101000a900473ffffffffffffffffffffffffffffffffffffffff1673ffffffffffffffffffffffffffffffffffffffff1673ffffffffffffffffffffffffffffffffffffffff1681526020016000820160149054906101000a90046bffffffffffffffffffffffff166bffffffffffffffffffffffff166bffffffffffffffffffffffff168152505090505b6000610b3e611a7f565b6bffffffffffffffffffffffff1682602001516bffffffffffffffffffffffff1686610b6a9190613be8565b610b749190613c71565b90508160000151819350935050509250929050565b61271081565b610b97611a89565b600260085403610bdc576040517f08c379a0000000000000000000000000000000000000000000000000000000008152600401610bd390613cee565b60405180910390fd5b6002600881905550610bec61139b565b73ffffffffffffffffffffffffffffffffffffffff166108fc479081150290604051600060405180830381858888f19350505050158015610c31573d6000803e3d6000fd5b506001600881905550565b610c44611a89565b610c4c611b07565b565b610c6983838360405180602001604052806000815250611473565b505050565b610c7f610c796116c3565b82611784565b610cbe576040517f08c379a0000000000000000000000000000000000000000000000000000000008152600401610cb590613b99565b60405180910390fd5b610cc781611b6a565b50565b6000600260085403610d11576040517f08c379a0000000000000000000000000000000000000000000000000000000008152600401610d0890613cee565b60405180910390fd5b600260088190555082600073ffffffffffffffffffffffffffffffffffffffff168173ffffffffffffffffffffffffffffffffffffffff1603610d89576040517f08c379a0000000000000000000000000000000000000000000000000000000008152600401610d8090613d5a565b60405180910390fd5b82606001356064811115610dd2576040517f08c379a0000000000000000000000000000000000000000000000000000000008152600401610dc990613dec565b60405180910390fd5b6000610ddd85611b76565b9050610de761139b565b73ffffffffffffffffffffffffffffffffffffffff168173ffffffffffffffffffffffffffffffffffffffff1614610e54576040517f08c379a0000000000000000000000000000000000000000000000000000000008152600401610e4b90613e7e565b60405180910390fd5b8460200135341015610e9b576040517f08c379a0000000000000000000000000000000000000000000000000000000008152600401610e9290613eea565b60405180910390fd5b600c6000815480929190610eae90613f0a565b91905055508460800135600b60008760000135815260200190815260200160002081905550610ee68560000135828760600135611be8565b610ef4818660000135611d8f565b610f548560000135868060400190610f0c9190613f61565b8080601f016020809104026020016040519081016040528093929190818152602001838380828437600081840152601f19601f82011690508083019250505050505050611dad565b610f738187876000013560405180602001604052806000815250611e1a565b84600001359350505050600160088190555092915050565b6000804690508091505090565b6000600a60009054906101000a900460ff16905090565b606481565b6000806002600084815260200190815260200160002060009054906101000a900473ffffffffffffffffffffffffffffffffffffffff169050600073ffffffffffffffffffffffffffffffffffffffff168173ffffffffffffffffffffffffffffffffffffffff160361105c576040517f08c379a000000000000000000000000000000000000000000000000000000000815260040161105390614010565b60405180910390fd5b80915050919050565b600047905090565b60008073ffffffffffffffffffffffffffffffffffffffff168273ffffffffffffffffffffffffffffffffffffffff16036110dd576040517f08c379a00000000000000000000000000000000000000000000000000000000081526004016110d4906140a2565b60405180910390fd5b600360008373ffffffffffffffffffffffffffffffffffffffff1673ffffffffffffffffffffffffffffffffffffffff168152602001908152602001600020549050919050565b61112c611a89565b6111366000611e76565b565b600060026008540361117f576040517f08c379a000000000000000000000000000000000000000000000000000000000815260040161117690613cee565b60405180910390fd5b600260088190555061118f611f3c565b611197611a89565b85600073ffffffffffffffffffffffffffffffffffffffff168173ffffffffffffffffffffffffffffffffffffffff1603611207576040517f08c379a00000000000000000000000000000000000000000000000000000000081526004016111fe90613d5a565b60405180910390fd5b846bffffffffffffffffffffffff16606481111561125a576040517f08c379a000000000000000000000000000000000000000000000000000000000815260040161125190613dec565b60405180910390fd5b612710600c54106112a0576040517f08c379a00000000000000000000000000000000000000000000000000000000081526004016112979061410e565b60405180910390fd5b600084116112e3576040517f08c379a00000000000000000000000000000000000000000000000000000000081526004016112da906141a0565b60405180910390fd5b84600b6000868152602001908152602001600020819055507fd1d720a294683bd5060a096b1e4425ebc654eb1fdd56e3cfddb8625113d114f984338a8a8a8a604051611334969594939291906141fb565b60405180910390a1600c600081548092919061134f90613f0a565b919050555061135f848988611be8565b6113698885611d8f565b6113738488611dad565b8392505050600160088190555095945050505050565b611391611a89565b611399611f86565b565b6000600a60019054906101000a900473ffffffffffffffffffffffffffffffffffffffff16905090565b6060600180546113d4906139d2565b80601f0160208091040260200160405190810160405280929190818152602001828054611400906139d2565b801561144d5780601f106114225761010080835404028352916020019161144d565b820191906000526020600020905b81548152906001019060200180831161143057829003601f168201915b5050505050905090565b600c5481565b61146f6114686116c3565b8383611fe9565b5050565b61148461147e6116c3565b83611784565b6114c3576040517f08c379a00000000000000000000000000000000000000000000000000000000081526004016114ba90613b99565b60405180910390fd5b6114cf84848484611e1a565b50505050565b60606114e082612155565b9050919050565b6000600560008473ffffffffffffffffffffffffffffffffffffffff1673ffffffffffffffffffffffffffffffffffffffff16815260200190815260200160002060008373ffffffffffffffffffffffffffffffffffffffff1673ffffffffffffffffffffffffffffffffffffffff16815260200190815260200160002060009054906101000a900460ff16905092915050565b611583611a89565b600073ffffffffffffffffffffffffffffffffffffffff168173ffffffffffffffffffffffffffffffffffffffff16036115f2576040517f08c379a00000000000000000000000000000000000000000000000000000000081526004016115e9906142d5565b60405180910390fd5b6115fb81611e76565b50565b60007f2a55205a000000000000000000000000000000000000000000000000000000007bffffffffffffffffffffffffffffffffffffffffffffffffffffffff1916827bffffffffffffffffffffffffffffffffffffffffffffffffffffffff19161480611671575061167082612267565b5b9050919050565b61168181612349565b6116c0576040517f08c379a00000000000000000000000000000000000000000000000000000000081526004016116b790614010565b60405180910390fd5b50565b600033905090565b816004600083815260200190815260200160002060006101000a81548173ffffffffffffffffffffffffffffffffffffffff021916908373ffffffffffffffffffffffffffffffffffffffff160217905550808273ffffffffffffffffffffffffffffffffffffffff1661173e83610fb4565b73ffffffffffffffffffffffffffffffffffffffff167f8c5be1e5ebec7d5bd14f71427d1e84f3dd0314c0f7b2291e5b200ac8c7c3b92560405160405180910390a45050565b60008061179083610fb4565b90508073ffffffffffffffffffffffffffffffffffffffff168473ffffffffffffffffffffffffffffffffffffffff1614806117d257506117d181856114e7565b5b8061181057508373ffffffffffffffffffffffffffffffffffffffff166117f8846107ca565b73ffffffffffffffffffffffffffffffffffffffff16145b91505092915050565b8273ffffffffffffffffffffffffffffffffffffffff1661183982610fb4565b73ffffffffffffffffffffffffffffffffffffffff161461188f576040517f08c379a000000000000000000000000000000000000000000000000000000000815260040161188690614367565b60405180910390fd5b600073ffffffffffffffffffffffffffffffffffffffff168273ffffffffffffffffffffffffffffffffffffffff16036118fe576040517f08c379a00000000000000000000000000000000000000000000000000000000081526004016118f5906143f9565b60405180910390fd5b6119098383836123b5565b6119146000826116cb565b6001600360008573ffffffffffffffffffffffffffffffffffffffff1673ffffffffffffffffffffffffffffffffffffffff16815260200190815260200160002060008282546119649190614419565b925050819055506001600360008473ffffffffffffffffffffffffffffffffffffffff1673ffffffffffffffffffffffffffffffffffffffff16815260200190815260200160002060008282546119bb919061444d565b92505081905550816002600083815260200190815260200160002060006101000a81548173ffffffffffffffffffffffffffffffffffffffff021916908373ffffffffffffffffffffffffffffffffffffffff160217905550808273ffffffffffffffffffffffffffffffffffffffff168473ffffffffffffffffffffffffffffffffffffffff167fddf252ad1be2c89b69c2b068fc378daa952ba7f163c4a11628f55a4df523b3ef60405160405180910390a4611a7a8383836123ba565b505050565b60006103e8905090565b611a916116c3565b73ffffffffffffffffffffffffffffffffffffffff16611aaf61139b565b73ffffffffffffffffffffffffffffffffffffffff1614611b05576040517f08c379a0000000000000000000000000000000000000000000000000000000008152600401611afc906144cd565b60405180910390fd5b565b611b0f6123bf565b6000600a60006101000a81548160ff0219169083151502179055507f5db9ee0a495bf2e6ff9c91a7834c1ba4fdd244a5e8aa4e537bd38aeae4b073aa611b536116c3565b604051611b6091906133a9565b60405180910390a1565b611b7381612408565b50565b600080611b828361245b565b9050611be081848060a00190611b9891906144ed565b8080601f016020809104026020016040519081016040528093929190818152602001838380828437600081840152601f19601f820116905080830192505050505050506124f2565b915050919050565b611bf0611a7f565b6bffffffffffffffffffffffff16816bffffffffffffffffffffffff161115611c4e576040517f08c379a0000000000000000000000000000000000000000000000000000000008152600401611c45906145c2565b60405180910390fd5b600073ffffffffffffffffffffffffffffffffffffffff168273ffffffffffffffffffffffffffffffffffffffff1603611cbd576040517f08c379a0000000000000000000000000000000000000000000000000000000008152600401611cb49061462e565b60405180910390fd5b60405180604001604052808373ffffffffffffffffffffffffffffffffffffffff168152602001826bffffffffffffffffffffffff168152506007600085815260200190815260200160002060008201518160000160006101000a81548173ffffffffffffffffffffffffffffffffffffffff021916908373ffffffffffffffffffffffffffffffffffffffff16021790555060208201518160000160146101000a8154816bffffffffffffffffffffffff02191690836bffffffffffffffffffffffff160217905550905050505050565b611da9828260405180602001604052806000815250612519565b5050565b611db682612349565b611df5576040517f08c379a0000000000000000000000000000000000000000000000000000000008152600401611dec906146c0565b60405180910390fd5b80600960008481526020019081526020016000209081611e159190614882565b505050565b611e25848484611819565b611e3184848484612574565b611e70576040517f08c379a0000000000000000000000000000000000000000000000000000000008152600401611e67906149c6565b60405180910390fd5b50505050565b6000600a60019054906101000a900473ffffffffffffffffffffffffffffffffffffffff16905081600a60016101000a81548173ffffffffffffffffffffffffffffffffffffffff021916908373ffffffffffffffffffffffffffffffffffffffff1602179055508173ffffffffffffffffffffffffffffffffffffffff168173ffffffffffffffffffffffffffffffffffffffff167f8be0079c531659141344cd1fd0a4f28419497f9722a3daafe3b4186f6b6457e060405160405180910390a35050565b611f44610f98565b15611f84576040517f08c379a0000000000000000000000000000000000000000000000000000000008152600401611f7b90614a32565b60405180910390fd5b565b611f8e611f3c565b6001600a60006101000a81548160ff0219169083151502179055507f62e78cea01bee320cd4e420270b5ea74000d11b0c9f74754ebdbfc544b05a258611fd26116c3565b604051611fdf91906133a9565b60405180910390a1565b8173ffffffffffffffffffffffffffffffffffffffff168373ffffffffffffffffffffffffffffffffffffffff1603612057576040517f08c379a000000000000000000000000000000000000000000000000000000000815260040161204e90614a9e565b60405180910390fd5b80600560008573ffffffffffffffffffffffffffffffffffffffff1673ffffffffffffffffffffffffffffffffffffffff16815260200190815260200160002060008473ffffffffffffffffffffffffffffffffffffffff1673ffffffffffffffffffffffffffffffffffffffff16815260200190815260200160002060006101000a81548160ff0219169083151502179055508173ffffffffffffffffffffffffffffffffffffffff168373ffffffffffffffffffffffffffffffffffffffff167f17307eab39ab6107e8899845ad3d59bd9653f200f220920489ca2b5937696c31836040516121489190613238565b60405180910390a3505050565b606061216082611678565b6000600960008481526020019081526020016000208054612180906139d2565b80601f01602080910402602001604051908101604052809291908181526020018280546121ac906139d2565b80156121f95780601f106121ce576101008083540402835291602001916121f9565b820191906000526020600020905b8154815290600101906020018083116121dc57829003601f168201915b50505050509050600061220a6126fb565b9050600081510361221f578192505050612262565b60008251111561225457808260405160200161223c929190614afa565b60405160208183030381529060405292505050612262565b61225d84612712565b925050505b919050565b60007f80ac58cd000000000000000000000000000000000000000000000000000000007bffffffffffffffffffffffffffffffffffffffffffffffffffffffff1916827bffffffffffffffffffffffffffffffffffffffffffffffffffffffff1916148061233257507f5b5e139f000000000000000000000000000000000000000000000000000000007bffffffffffffffffffffffffffffffffffffffffffffffffffffffff1916827bffffffffffffffffffffffffffffffffffffffffffffffffffffffff1916145b8061234257506123418261277a565b5b9050919050565b60008073ffffffffffffffffffffffffffffffffffffffff166002600084815260200190815260200160002060009054906101000a900473ffffffffffffffffffffffffffffffffffffffff1673ffffffffffffffffffffffffffffffffffffffff1614159050919050565b505050565b505050565b6123c7610f98565b612406576040517f08c379a00000000000000000000000000000000000000000000000000000000081526004016123fd90614b6a565b60405180910390fd5b565b612411816127e4565b6000600960008381526020019081526020016000208054612431906139d2565b905014612458576009600082815260200190815260200160002060006124579190613127565b5b50565b60006124eb7f3ea757a3c4cb3b9a5497ba100a966c1e553d003161207d7d5d32402cbb9fd6018360000135846020013585806040019061249b9190613f61565b6040516124a9929190614bba565b6040518091039020866060013587608001356040516020016124d096959493929190614bec565b60405160208183030381529060405280519060200120612901565b9050919050565b6000806000612501858561291b565b9150915061250e8161296c565b819250505092915050565b6125238383612b38565b6125306000848484612574565b61256f576040517f08c379a0000000000000000000000000000000000000000000000000000000008152600401612566906149c6565b60405180910390fd5b505050565b60006125958473ffffffffffffffffffffffffffffffffffffffff16612d11565b156126ee578373ffffffffffffffffffffffffffffffffffffffff1663150b7a026125be6116c3565b8786866040518563ffffffff1660e01b81526004016125e09493929190614ca2565b6020604051808303816000875af192505050801561261c57506040513d601f19601f820116820180604052508101906126199190614d03565b60015b61269e573d806000811461264c576040519150601f19603f3d011682016040523d82523d6000602084013e612651565b606091505b506000815103612696576040517f08c379a000000000000000000000000000000000000000000000000000000000815260040161268d906149c6565b60405180910390fd5b805181602001fd5b63150b7a0260e01b7bffffffffffffffffffffffffffffffffffffffffffffffffffffffff1916817bffffffffffffffffffffffffffffffffffffffffffffffffffffffff1916149150506126f3565b600190505b949350505050565b606060405180602001604052806000815250905090565b606061271d82611678565b60006127276126fb565b905060008151116127475760405180602001604052806000815250612772565b8061275184612d34565b604051602001612762929190614afa565b6040516020818303038152906040525b915050919050565b60007f01ffc9a7000000000000000000000000000000000000000000000000000000007bffffffffffffffffffffffffffffffffffffffffffffffffffffffff1916827bffffffffffffffffffffffffffffffffffffffffffffffffffffffff1916149050919050565b60006127ef82610fb4565b90506127fd816000846123b5565b6128086000836116cb565b6001600360008373ffffffffffffffffffffffffffffffffffffffff1673ffffffffffffffffffffffffffffffffffffffff16815260200190815260200160002060008282546128589190614419565b925050819055506002600083815260200190815260200160002060006101000a81549073ffffffffffffffffffffffffffffffffffffffff021916905581600073ffffffffffffffffffffffffffffffffffffffff168273ffffffffffffffffffffffffffffffffffffffff167fddf252ad1be2c89b69c2b068fc378daa952ba7f163c4a11628f55a4df523b3ef60405160405180910390a46128fd816000846123ba565b5050565b600061291461290e612e94565b83612fae565b9050919050565b600080604183510361295c5760008060006020860151925060408601519150606086015160001a905061295087828585612fe1565b94509450505050612965565b60006002915091505b9250929050565b600060048111156129805761297f614d30565b5b81600481111561299357612992614d30565b5b0315612b3557600160048111156129ad576129ac614d30565b5b8160048111156129c0576129bf614d30565b5b03612a00576040517f08c379a00000000000000000000000000000000000000000000000000000000081526004016129f790614dab565b60405180910390fd5b60026004811115612a1457612a13614d30565b5b816004811115612a2757612a26614d30565b5b03612a67576040517f08c379a0000000000000000000000000000000000000000000000000000000008152600401612a5e90614e17565b60405180910390fd5b60036004811115612a7b57612a7a614d30565b5b816004811115612a8e57612a8d614d30565b5b03612ace576040517f08c379a0000000000000000000000000000000000000000000000000000000008152600401612ac590614ea9565b60405180910390fd5b600480811115612ae157612ae0614d30565b5b816004811115612af457612af3614d30565b5b03612b34576040517f08c379a0000000000000000000000000000000000000000000000000000000008152600401612b2b90614f3b565b60405180910390fd5b5b50565b600073ffffffffffffffffffffffffffffffffffffffff168273ffffffffffffffffffffffffffffffffffffffff1603612ba7576040517f08c379a0000000000000000000000000000000000000000000000000000000008152600401612b9e90614fa7565b60405180910390fd5b612bb081612349565b15612bf0576040517f08c379a0000000000000000000000000000000000000000000000000000000008152600401612be790615013565b60405180910390fd5b612bfc600083836123b5565b6001600360008473ffffffffffffffffffffffffffffffffffffffff1673ffffffffffffffffffffffffffffffffffffffff1681526020019081526020016000206000828254612c4c919061444d565b92505081905550816002600083815260200190815260200160002060006101000a81548173ffffffffffffffffffffffffffffffffffffffff021916908373ffffffffffffffffffffffffffffffffffffffff160217905550808273ffffffffffffffffffffffffffffffffffffffff16600073ffffffffffffffffffffffffffffffffffffffff167fddf252ad1be2c89b69c2b068fc378daa952ba7f163c4a11628f55a4df523b3ef60405160405180910390a4612d0d600083836123ba565b5050565b6000808273ffffffffffffffffffffffffffffffffffffffff163b119050919050565b606060008203612d7b576040518060400160405280600181526020017f30000000000000000000000000000000000000000000000000000000000000008152509050612e8f565b600082905060005b60008214612dad578080612d9690613f0a565b915050600a82612da69190613c71565b9150612d83565b60008167ffffffffffffffff811115612dc957612dc86135cd565b5b6040519080825280601f01601f191660200182016040528015612dfb5781602001600182028036833780820191505090505b5090505b60008514612e8857600182612e149190614419565b9150600a85612e239190615033565b6030612e2f919061444d565b60f81b818381518110612e4557612e44615064565b5b60200101907effffffffffffffffffffffffffffffffffffffffffffffffffffffffffffff1916908160001a905350600a85612e819190613c71565b9450612dff565b8093505050505b919050565b60007f000000000000000000000000000000000000000000000000000000000000000073ffffffffffffffffffffffffffffffffffffffff163073ffffffffffffffffffffffffffffffffffffffff16148015612f1057507f000000000000000000000000000000000000000000000000000000000000000046145b15612f3d577f00000000000000000000000000000000000000000000000000000000000000009050612fab565b612fa87f00000000000000000000000000000000000000000000000000000000000000007f00000000000000000000000000000000000000000000000000000000000000007f00000000000000000000000000000000000000000000000000000000000000006130ed565b90505b90565b60008282604051602001612fc3929190615100565b60405160208183030381529060405280519060200120905092915050565b6000807f7fffffffffffffffffffffffffffffff5d576e7357a4501ddfe92f46681b20a08360001c111561301c5760006003915091506130e4565b601b8560ff16141580156130345750601c8560ff1614155b156130465760006004915091506130e4565b60006001878787876040516000815260200160405260405161306b9493929190615153565b6020604051602081039080840390855afa15801561308d573d6000803e3d6000fd5b505050602060405103519050600073ffffffffffffffffffffffffffffffffffffffff168173ffffffffffffffffffffffffffffffffffffffff16036130db576000600192509250506130e4565b80600092509250505b94509492505050565b60008383834630604051602001613108959493929190615198565b6040516020818303038152906040528051906020012090509392505050565b508054613133906139d2565b6000825580601f106131455750613164565b601f0160209004906000526020600020908101906131639190613167565b5b50565b5b80821115613180576000816000905550600101613168565b5090565b6000604051905090565b600080fd5b600080fd5b60007fffffffff0000000000000000000000000000000000000000000000000000000082169050919050565b6131cd81613198565b81146131d857600080fd5b50565b6000813590506131ea816131c4565b92915050565b6000602082840312156132065761320561318e565b5b6000613214848285016131db565b91505092915050565b60008115159050919050565b6132328161321d565b82525050565b600060208201905061324d6000830184613229565b92915050565b600081519050919050565b600082825260208201905092915050565b60005b8381101561328d578082015181840152602081019050613272565b60008484015250505050565b6000601f19601f8301169050919050565b60006132b582613253565b6132bf818561325e565b93506132cf81856020860161326f565b6132d881613299565b840191505092915050565b600060208201905081810360008301526132fd81846132aa565b905092915050565b6000819050919050565b61331881613305565b811461332357600080fd5b50565b6000813590506133358161330f565b92915050565b6000602082840312156133515761335061318e565b5b600061335f84828501613326565b91505092915050565b600073ffffffffffffffffffffffffffffffffffffffff82169050919050565b600061339382613368565b9050919050565b6133a381613388565b82525050565b60006020820190506133be600083018461339a565b92915050565b6133cd81613388565b81146133d857600080fd5b50565b6000813590506133ea816133c4565b92915050565b600080604083850312156134075761340661318e565b5b6000613415858286016133db565b925050602061342685828601613326565b9150509250929050565b61343981613305565b82525050565b60006020820190506134546000830184613430565b92915050565b6000806000606084860312156134735761347261318e565b5b6000613481868287016133db565b9350506020613492868287016133db565b92505060406134a386828701613326565b9150509250925092565b600080604083850312156134c4576134c361318e565b5b60006134d285828601613326565b92505060206134e385828601613326565b9150509250929050565b6000604082019050613502600083018561339a565b61350f6020830184613430565b9392505050565b600080fd5b600060c0828403121561353157613530613516565b5b81905092915050565b600080604083850312156135515761355061318e565b5b600061355f858286016133db565b925050602083013567ffffffffffffffff8111156135805761357f613193565b5b61358c8582860161351b565b9150509250929050565b6000602082840312156135ac576135ab61318e565b5b60006135ba848285016133db565b91505092915050565b600080fd5b600080fd5b7f4e487b7100000000000000000000000000000000000000000000000000000000600052604160045260246000fd5b61360582613299565b810181811067ffffffffffffffff82111715613624576136236135cd565b5b80604052505050565b6000613637613184565b905061364382826135fc565b919050565b600067ffffffffffffffff821115613663576136626135cd565b5b61366c82613299565b9050602081019050919050565b82818337600083830152505050565b600061369b61369684613648565b61362d565b9050828152602081018484840111156136b7576136b66135c8565b5b6136c2848285613679565b509392505050565b600082601f8301126136df576136de6135c3565b5b81356136ef848260208601613688565b91505092915050565b60006bffffffffffffffffffffffff82169050919050565b613719816136f8565b811461372457600080fd5b50565b60008135905061373681613710565b92915050565b600080600080600060a086880312156137585761375761318e565b5b6000613766888289016133db565b955050602086013567ffffffffffffffff81111561378757613786613193565b5b613793888289016136ca565b94505060406137a488828901613727565b93505060606137b588828901613326565b92505060806137c688828901613326565b9150509295509295909350565b6137dc8161321d565b81146137e757600080fd5b50565b6000813590506137f9816137d3565b92915050565b600080604083850312156138165761381561318e565b5b6000613824858286016133db565b9250506020613835858286016137ea565b9150509250929050565b600067ffffffffffffffff82111561385a576138596135cd565b5b61386382613299565b9050602081019050919050565b600061388361387e8461383f565b61362d565b90508281526020810184848401111561389f5761389e6135c8565b5b6138aa848285613679565b509392505050565b600082601f8301126138c7576138c66135c3565b5b81356138d7848260208601613870565b91505092915050565b600080600080608085870312156138fa576138f961318e565b5b6000613908878288016133db565b9450506020613919878288016133db565b935050604061392a87828801613326565b925050606085013567ffffffffffffffff81111561394b5761394a613193565b5b613957878288016138b2565b91505092959194509250565b6000806040838503121561397a5761397961318e565b5b6000613988858286016133db565b9250506020613999858286016133db565b9150509250929050565b7f4e487b7100000000000000000000000000000000000000000000000000000000600052602260045260246000fd5b600060028204905060018216806139ea57607f821691505b6020821081036139fd576139fc6139a3565b5b50919050565b7f4552433732313a20617070726f76616c20746f2063757272656e74206f776e6560008201527f7200000000000000000000000000000000000000000000000000000000000000602082015250565b6000613a5f60218361325e565b9150613a6a82613a03565b604082019050919050565b60006020820190508181036000830152613a8e81613a52565b9050919050565b7f4552433732313a20617070726f76652063616c6c6572206973206e6f7420746f60008201527f6b656e206f776e6572206e6f7220617070726f76656420666f7220616c6c0000602082015250565b6000613af1603e8361325e565b9150613afc82613a95565b604082019050919050565b60006020820190508181036000830152613b2081613ae4565b9050919050565b7f4552433732313a2063616c6c6572206973206e6f7420746f6b656e206f776e6560008201527f72206e6f7220617070726f766564000000000000000000000000000000000000602082015250565b6000613b83602e8361325e565b9150613b8e82613b27565b604082019050919050565b60006020820190508181036000830152613bb281613b76565b9050919050565b7f4e487b7100000000000000000000000000000000000000000000000000000000600052601160045260246000fd5b6000613bf382613305565b9150613bfe83613305565b9250817fffffffffffffffffffffffffffffffffffffffffffffffffffffffffffffffff0483118215151615613c3757613c36613bb9565b5b828202905092915050565b7f4e487b7100000000000000000000000000000000000000000000000000000000600052601260045260246000fd5b6000613c7c82613305565b9150613c8783613305565b925082613c9757613c96613c42565b5b828204905092915050565b7f5265656e7472616e637947756172643a207265656e7472616e742063616c6c00600082015250565b6000613cd8601f8361325e565b9150613ce382613ca2565b602082019050919050565b60006020820190508181036000830152613d0781613ccb565b9050919050565b7f526563656976657220697320746865207a65726f206164647265737300000000600082015250565b6000613d44601c8361325e565b9150613d4f82613d0e565b602082019050919050565b60006020820190508181036000830152613d7381613d37565b9050919050565b7f526f79616c746965732070657263656e746167652073686f756c64206265206560008201527f7175616c206f72206c65737373207468616e2031302500000000000000000000602082015250565b6000613dd660368361325e565b9150613de182613d7a565b604082019050919050565b60006020820190508181036000830152613e0581613dc9565b9050919050565b7f5369676e617475726520696e76616c6964206f7220756e617574686f72697a6560008201527f6400000000000000000000000000000000000000000000000000000000000000602082015250565b6000613e6860218361325e565b9150613e7382613e0c565b604082019050919050565b60006020820190508181036000830152613e9781613e5b565b9050919050565b7f496e73756666696369656e742066756e647320746f2072656465656d00000000600082015250565b6000613ed4601c8361325e565b9150613edf82613e9e565b602082019050919050565b60006020820190508181036000830152613f0381613ec7565b9050919050565b6000613f1582613305565b91507fffffffffffffffffffffffffffffffffffffffffffffffffffffffffffffffff8203613f4757613f46613bb9565b5b600182019050919050565b600080fd5b600080fd5b600080fd5b60008083356001602003843603038112613f7e57613f7d613f52565b5b80840192508235915067ffffffffffffffff821115613fa057613f9f613f57565b5b602083019250600182023603831315613fbc57613fbb613f5c565b5b509250929050565b7f4552433732313a20696e76616c696420746f6b656e2049440000000000000000600082015250565b6000613ffa60188361325e565b915061400582613fc4565b602082019050919050565b6000602082019050818103600083015261402981613fed565b9050919050565b7f4552433732313a2061646472657373207a65726f206973206e6f74206120766160008201527f6c6964206f776e65720000000000000000000000000000000000000000000000602082015250565b600061408c60298361325e565b915061409782614030565b604082019050919050565b600060208201905081810360008301526140bb8161407f565b9050919050565b7f4e465473206172652063617070656420746f2031302c30303021000000000000600082015250565b60006140f8601a8361325e565b9150614103826140c2565b602082019050919050565b60006020820190508181036000830152614127816140eb565b9050919050565b7f746f6b656e49642073686f756c642062652067726561746572207468616e207a60008201527f65726f2100000000000000000000000000000000000000000000000000000000602082015250565b600061418a60248361325e565b91506141958261412e565b604082019050919050565b600060208201905081810360008301526141b98161417d565b9050919050565b6000819050919050565b60006141e56141e06141db846136f8565b6141c0565b613305565b9050919050565b6141f5816141ca565b82525050565b600060c0820190506142106000830189613430565b61421d602083018861339a565b61422a604083018761339a565b818103606083015261423c81866132aa565b905061424b60808301856141ec565b61425860a0830184613430565b979650505050505050565b7f4f776e61626c653a206e6577206f776e657220697320746865207a65726f206160008201527f6464726573730000000000000000000000000000000000000000000000000000602082015250565b60006142bf60268361325e565b91506142ca82614263565b604082019050919050565b600060208201905081810360008301526142ee816142b2565b9050919050565b7f4552433732313a207472616e736665722066726f6d20696e636f72726563742060008201527f6f776e6572000000000000000000000000000000000000000000000000000000602082015250565b600061435160258361325e565b915061435c826142f5565b604082019050919050565b6000602082019050818103600083015261438081614344565b9050919050565b7f4552433732313a207472616e7366657220746f20746865207a65726f2061646460008201527f7265737300000000000000000000000000000000000000000000000000000000602082015250565b60006143e360248361325e565b91506143ee82614387565b604082019050919050565b60006020820190508181036000830152614412816143d6565b9050919050565b600061442482613305565b915061442f83613305565b925082820390508181111561444757614446613bb9565b5b92915050565b600061445882613305565b915061446383613305565b925082820190508082111561447b5761447a613bb9565b5b92915050565b7f4f776e61626c653a2063616c6c6572206973206e6f7420746865206f776e6572600082015250565b60006144b760208361325e565b91506144c282614481565b602082019050919050565b600060208201905081810360008301526144e6816144aa565b9050919050565b6000808335600160200384360303811261450a57614509613f52565b5b80840192508235915067ffffffffffffffff82111561452c5761452b613f57565b5b60208301925060018202360383131561454857614547613f5c565b5b509250929050565b7f455243323938313a20726f79616c7479206665652077696c6c2065786365656460008201527f2073616c65507269636500000000000000000000000000000000000000000000602082015250565b60006145ac602a8361325e565b91506145b782614550565b604082019050919050565b600060208201905081810360008301526145db8161459f565b9050919050565b7f455243323938313a20496e76616c696420706172616d65746572730000000000600082015250565b6000614618601b8361325e565b9150614623826145e2565b602082019050919050565b600060208201905081810360008301526146478161460b565b9050919050565b7f45524337323155524953746f726167653a2055524920736574206f66206e6f6e60008201527f6578697374656e7420746f6b656e000000000000000000000000000000000000602082015250565b60006146aa602e8361325e565b91506146b58261464e565b604082019050919050565b600060208201905081810360008301526146d98161469d565b9050919050565b60008190508160005260206000209050919050565b60006020601f8301049050919050565b600082821b905092915050565b6000600883026147427fffffffffffffffffffffffffffffffffffffffffffffffffffffffffffffffff82614705565b61474c8683614705565b95508019841693508086168417925050509392505050565b600061477f61477a61477584613305565b6141c0565b613305565b9050919050565b6000819050919050565b61479983614764565b6147ad6147a582614786565b848454614712565b825550505050565b600090565b6147c26147b5565b6147cd818484614790565b505050565b5b818110156147f1576147e66000826147ba565b6001810190506147d3565b5050565b601f82111561483657614807816146e0565b614810846146f5565b8101602085101561481f578190505b61483361482b856146f5565b8301826147d2565b50505b505050565b600082821c905092915050565b60006148596000198460080261483b565b1980831691505092915050565b60006148728383614848565b9150826002028217905092915050565b61488b82613253565b67ffffffffffffffff8111156148a4576148a36135cd565b5b6148ae82546139d2565b6148b98282856147f5565b600060209050601f8311600181146148ec57600084156148da578287015190505b6148e48582614866565b86555061494c565b601f1984166148fa866146e0565b60005b82811015614922578489015182556001820191506020850194506020810190506148fd565b8683101561493f578489015161493b601f891682614848565b8355505b6001600288020188555050505b505050505050565b7f4552433732313a207472616e7366657220746f206e6f6e20455243373231526560008201527f63656976657220696d706c656d656e7465720000000000000000000000000000602082015250565b60006149b060328361325e565b91506149bb82614954565b604082019050919050565b600060208201905081810360008301526149df816149a3565b9050919050565b7f5061757361626c653a2070617573656400000000000000000000000000000000600082015250565b6000614a1c60108361325e565b9150614a27826149e6565b602082019050919050565b60006020820190508181036000830152614a4b81614a0f565b9050919050565b7f4552433732313a20617070726f766520746f2063616c6c657200000000000000600082015250565b6000614a8860198361325e565b9150614a9382614a52565b602082019050919050565b60006020820190508181036000830152614ab781614a7b565b9050919050565b600081905092915050565b6000614ad482613253565b614ade8185614abe565b9350614aee81856020860161326f565b80840191505092915050565b6000614b068285614ac9565b9150614b128284614ac9565b91508190509392505050565b7f5061757361626c653a206e6f7420706175736564000000000000000000000000600082015250565b6000614b5460148361325e565b9150614b5f82614b1e565b602082019050919050565b60006020820190508181036000830152614b8381614b47565b9050919050565b600081905092915050565b6000614ba18385614b8a565b9350614bae838584613679565b82840190509392505050565b6000614bc7828486614b95565b91508190509392505050565b6000819050919050565b614be681614bd3565b82525050565b600060c082019050614c016000830189614bdd565b614c0e6020830188613430565b614c1b6040830187613430565b614c286060830186614bdd565b614c356080830185613430565b614c4260a0830184613430565b979650505050505050565b600081519050919050565b600082825260208201905092915050565b6000614c7482614c4d565b614c7e8185614c58565b9350614c8e81856020860161326f565b614c9781613299565b840191505092915050565b6000608082019050614cb7600083018761339a565b614cc4602083018661339a565b614cd16040830185613430565b8181036060830152614ce38184614c69565b905095945050505050565b600081519050614cfd816131c4565b92915050565b600060208284031215614d1957614d1861318e565b5b6000614d2784828501614cee565b91505092915050565b7f4e487b7100000000000000000000000000000000000000000000000000000000600052602160045260246000fd5b7f45434453413a20696e76616c6964207369676e61747572650000000000000000600082015250565b6000614d9560188361325e565b9150614da082614d5f565b602082019050919050565b60006020820190508181036000830152614dc481614d88565b9050919050565b7f45434453413a20696e76616c6964207369676e6174757265206c656e67746800600082015250565b6000614e01601f8361325e565b9150614e0c82614dcb565b602082019050919050565b60006020820190508181036000830152614e3081614df4565b9050919050565b7f45434453413a20696e76616c6964207369676e6174757265202773272076616c60008201527f7565000000000000000000000000000000000000000000000000000000000000602082015250565b6000614e9360228361325e565b9150614e9e82614e37565b604082019050919050565b60006020820190508181036000830152614ec281614e86565b9050919050565b7f45434453413a20696e76616c6964207369676e6174757265202776272076616c60008201527f7565000000000000000000000000000000000000000000000000000000000000602082015250565b6000614f2560228361325e565b9150614f3082614ec9565b604082019050919050565b60006020820190508181036000830152614f5481614f18565b9050919050565b7f4552433732313a206d696e7420746f20746865207a65726f2061646472657373600082015250565b6000614f9160208361325e565b9150614f9c82614f5b565b602082019050919050565b60006020820190508181036000830152614fc081614f84565b9050919050565b7f4552433732313a20746f6b656e20616c7265616479206d696e74656400000000600082015250565b6000614ffd601c8361325e565b915061500882614fc7565b602082019050919050565b6000602082019050818103600083015261502c81614ff0565b9050919050565b600061503e82613305565b915061504983613305565b92508261505957615058613c42565b5b828206905092915050565b7f4e487b7100000000000000000000000000000000000000000000000000000000600052603260045260246000fd5b7f1901000000000000000000000000000000000000000000000000000000000000600082015250565b60006150c9600283614abe565b91506150d482615093565b600282019050919050565b6000819050919050565b6150fa6150f582614bd3565b6150df565b82525050565b600061510b826150bc565b915061511782856150e9565b60208201915061512782846150e9565b6020820191508190509392505050565b600060ff82169050919050565b61514d81615137565b82525050565b60006080820190506151686000830187614bdd565b6151756020830186615144565b6151826040830185614bdd565b61518f6060830184614bdd565b95945050505050565b600060a0820190506151ad6000830188614bdd565b6151ba6020830187614bdd565b6151c76040830186614bdd565b6151d46060830185613430565b6151e1608083018461339a565b969550505050505056fea2646970667358221220cdcb6b124e98b397cd904d035e707410c582eef508627fd7b7dbe5c941597f4764736f6c63430008100033",
  "linkReferences": {},
  "deployedLinkReferences": {}
}