{
  "_format": "hh-sol-artifact-1",
  "contractName": "LedaNFT",
  "sourceName": "contracts/LedaNFT.sol",
  "abi": [
    {
      "inputs": [
        {
          "internalType": "string",
          "name": "name",
          "type": "string"
        },
        {
          "internalType": "string",
          "name": "symbol",
          "type": "string"
        }
      ],
      "stateMutability": "nonpayable",
      "type": "constructor"
    },
    {
      "anonymous": false,
      "inputs": [
        {
          "indexed": true,
          "internalType": "address",
          "name": "owner",
          "type": "address"
        },
        {
          "indexed": true,
          "internalType": "address",
          "name": "approved",
          "type": "address"
        },
        {
          "indexed": true,
          "internalType": "uint256",
          "name": "tokenId",
          "type": "uint256"
        }
      ],
      "name": "Approval",
      "type": "event"
    },
    {
      "anonymous": false,
      "inputs": [
        {
          "indexed": true,
          "internalType": "address",
          "name": "owner",
          "type": "address"
        },
        {
          "indexed": true,
          "internalType": "address",
          "name": "operator",
          "type": "address"
        },
        {
          "indexed": false,
          "internalType": "bool",
          "name": "approved",
          "type": "bool"
        }
      ],
      "name": "ApprovalForAll",
      "type": "event"
    },
    {
      "anonymous": false,
      "inputs": [
        {
          "indexed": false,
          "internalType": "uint256",
          "name": "_idNFT",
          "type": "uint256"
        },
        {
          "indexed": false,
          "internalType": "address",
          "name": "_owner",
          "type": "address"
        },
        {
          "indexed": false,
          "internalType": "uint256",
          "name": "royalties",
          "type": "uint256"
        }
      ],
      "name": "LogGetCreator",
      "type": "event"
    },
    {
      "anonymous": false,
      "inputs": [
        {
          "indexed": false,
          "internalType": "uint256",
          "name": "_nftId",
          "type": "uint256"
        },
        {
          "indexed": false,
          "internalType": "address",
          "name": "_owner",
          "type": "address"
        },
        {
          "indexed": false,
          "internalType": "string",
          "name": "_nftURI",
          "type": "string"
        },
        {
          "indexed": false,
          "internalType": "uint256",
          "name": "_royalties",
          "type": "uint256"
        }
      ],
      "name": "LogNFTMinted",
      "type": "event"
    },
    {
      "anonymous": false,
      "inputs": [
        {
          "indexed": true,
          "internalType": "address",
          "name": "previousOwner",
          "type": "address"
        },
        {
          "indexed": true,
          "internalType": "address",
          "name": "newOwner",
          "type": "address"
        }
      ],
      "name": "OwnershipTransferred",
      "type": "event"
    },
    {
      "anonymous": false,
      "inputs": [
        {
          "indexed": false,
          "internalType": "address",
          "name": "account",
          "type": "address"
        }
      ],
      "name": "Paused",
      "type": "event"
    },
    {
      "anonymous": false,
      "inputs": [
        {
          "indexed": true,
          "internalType": "address",
          "name": "from",
          "type": "address"
        },
        {
          "indexed": true,
          "internalType": "address",
          "name": "to",
          "type": "address"
        },
        {
          "indexed": true,
          "internalType": "uint256",
          "name": "tokenId",
          "type": "uint256"
        }
      ],
      "name": "Transfer",
      "type": "event"
    },
    {
      "anonymous": false,
      "inputs": [
        {
          "indexed": false,
          "internalType": "address",
          "name": "account",
          "type": "address"
        }
      ],
      "name": "Unpaused",
      "type": "event"
    },
    {
      "inputs": [
        {
          "internalType": "address",
          "name": "to",
          "type": "address"
        },
        {
          "internalType": "uint256",
          "name": "tokenId",
          "type": "uint256"
        }
      ],
      "name": "approve",
      "outputs": [],
      "stateMutability": "nonpayable",
      "type": "function"
    },
    {
      "inputs": [
        {
          "internalType": "address",
          "name": "owner",
          "type": "address"
        }
      ],
      "name": "balanceOf",
      "outputs": [
        {
          "internalType": "uint256",
          "name": "",
          "type": "uint256"
        }
      ],
      "stateMutability": "view",
      "type": "function"
    },
    {
      "inputs": [
        {
          "internalType": "uint256",
          "name": "tokenId",
          "type": "uint256"
        }
      ],
      "name": "getApproved",
      "outputs": [
        {
          "internalType": "address",
          "name": "",
          "type": "address"
        }
      ],
      "stateMutability": "view",
      "type": "function"
    },
    {
      "inputs": [
        {
          "internalType": "address",
          "name": "owner",
          "type": "address"
        },
        {
          "internalType": "address",
          "name": "operator",
          "type": "address"
        }
      ],
      "name": "isApprovedForAll",
      "outputs": [
        {
          "internalType": "bool",
          "name": "",
          "type": "bool"
        }
      ],
      "stateMutability": "view",
      "type": "function"
    },
    {
      "inputs": [],
      "name": "maxCreatorRoyalties",
      "outputs": [
        {
          "internalType": "uint256",
          "name": "",
          "type": "uint256"
        }
      ],
      "stateMutability": "view",
      "type": "function"
    },
    {
      "inputs": [
        {
          "internalType": "string",
          "name": "_tokenURI",
          "type": "string"
        },
        {
          "internalType": "uint96",
          "name": "_royaltiesPercentage",
          "type": "uint96"
        }
      ],
      "name": "mint",
      "outputs": [
        {
          "internalType": "uint256",
          "name": "",
          "type": "uint256"
        }
      ],
      "stateMutability": "nonpayable",
      "type": "function"
    },
    {
      "inputs": [],
      "name": "name",
      "outputs": [
        {
          "internalType": "string",
          "name": "",
          "type": "string"
        }
      ],
      "stateMutability": "view",
      "type": "function"
    },
    {
      "inputs": [],
      "name": "owner",
      "outputs": [
        {
          "internalType": "address",
          "name": "",
          "type": "address"
        }
      ],
      "stateMutability": "view",
      "type": "function"
    },
    {
      "inputs": [
        {
          "internalType": "uint256",
          "name": "tokenId",
          "type": "uint256"
        }
      ],
      "name": "ownerOf",
      "outputs": [
        {
          "internalType": "address",
          "name": "",
          "type": "address"
        }
      ],
      "stateMutability": "view",
      "type": "function"
    },
    {
      "inputs": [],
      "name": "pause",
      "outputs": [],
      "stateMutability": "nonpayable",
      "type": "function"
    },
    {
      "inputs": [],
      "name": "paused",
      "outputs": [
        {
          "internalType": "bool",
          "name": "",
          "type": "bool"
        }
      ],
      "stateMutability": "view",
      "type": "function"
    },
    {
      "inputs": [],
      "name": "renounceOwnership",
      "outputs": [],
      "stateMutability": "nonpayable",
      "type": "function"
    },
    {
      "inputs": [
        {
          "internalType": "uint256",
          "name": "_tokenId",
          "type": "uint256"
        },
        {
          "internalType": "uint256",
          "name": "_salePrice",
          "type": "uint256"
        }
      ],
      "name": "royaltyInfo",
      "outputs": [
        {
          "internalType": "address",
          "name": "",
          "type": "address"
        },
        {
          "internalType": "uint256",
          "name": "",
          "type": "uint256"
        }
      ],
      "stateMutability": "view",
      "type": "function"
    },
    {
      "inputs": [
        {
          "internalType": "address",
          "name": "from",
          "type": "address"
        },
        {
          "internalType": "address",
          "name": "to",
          "type": "address"
        },
        {
          "internalType": "uint256",
          "name": "tokenId",
          "type": "uint256"
        }
      ],
      "name": "safeTransferFrom",
      "outputs": [],
      "stateMutability": "nonpayable",
      "type": "function"
    },
    {
      "inputs": [
        {
          "internalType": "address",
          "name": "from",
          "type": "address"
        },
        {
          "internalType": "address",
          "name": "to",
          "type": "address"
        },
        {
          "internalType": "uint256",
          "name": "tokenId",
          "type": "uint256"
        },
        {
          "internalType": "bytes",
          "name": "data",
          "type": "bytes"
        }
      ],
      "name": "safeTransferFrom",
      "outputs": [],
      "stateMutability": "nonpayable",
      "type": "function"
    },
    {
      "inputs": [
        {
          "internalType": "address",
          "name": "operator",
          "type": "address"
        },
        {
          "internalType": "bool",
          "name": "approved",
          "type": "bool"
        }
      ],
      "name": "setApprovalForAll",
      "outputs": [],
      "stateMutability": "nonpayable",
      "type": "function"
    },
    {
      "inputs": [
        {
          "internalType": "uint256",
          "name": "_maxCreatorRoyalties",
          "type": "uint256"
        }
      ],
      "name": "setMaxCreatorRoyalties",
      "outputs": [],
      "stateMutability": "nonpayable",
      "type": "function"
    },
    {
      "inputs": [
        {
          "internalType": "bytes4",
          "name": "interfaceId",
          "type": "bytes4"
        }
      ],
      "name": "supportsInterface",
      "outputs": [
        {
          "internalType": "bool",
          "name": "",
          "type": "bool"
        }
      ],
      "stateMutability": "view",
      "type": "function"
    },
    {
      "inputs": [],
      "name": "symbol",
      "outputs": [
        {
          "internalType": "string",
          "name": "",
          "type": "string"
        }
      ],
      "stateMutability": "view",
      "type": "function"
    },
    {
      "inputs": [
        {
          "internalType": "uint256",
          "name": "index",
          "type": "uint256"
        }
      ],
      "name": "tokenByIndex",
      "outputs": [
        {
          "internalType": "uint256",
          "name": "",
          "type": "uint256"
        }
      ],
      "stateMutability": "view",
      "type": "function"
    },
    {
      "inputs": [],
      "name": "tokenCount",
      "outputs": [
        {
          "internalType": "uint256",
          "name": "_value",
          "type": "uint256"
        }
      ],
      "stateMutability": "view",
      "type": "function"
    },
    {
      "inputs": [
        {
          "internalType": "address",
          "name": "owner",
          "type": "address"
        },
        {
          "internalType": "uint256",
          "name": "index",
          "type": "uint256"
        }
      ],
      "name": "tokenOfOwnerByIndex",
      "outputs": [
        {
          "internalType": "uint256",
          "name": "",
          "type": "uint256"
        }
      ],
      "stateMutability": "view",
      "type": "function"
    },
    {
      "inputs": [
        {
          "internalType": "uint256",
          "name": "tokenId",
          "type": "uint256"
        }
      ],
      "name": "tokenURI",
      "outputs": [
        {
          "internalType": "string",
          "name": "",
          "type": "string"
        }
      ],
      "stateMutability": "view",
      "type": "function"
    },
    {
      "inputs": [],
      "name": "totalSupply",
      "outputs": [
        {
          "internalType": "uint256",
          "name": "",
          "type": "uint256"
        }
      ],
      "stateMutability": "view",
      "type": "function"
    },
    {
      "inputs": [
        {
          "internalType": "address",
          "name": "from",
          "type": "address"
        },
        {
          "internalType": "address",
          "name": "to",
          "type": "address"
        },
        {
          "internalType": "uint256",
          "name": "tokenId",
          "type": "uint256"
        }
      ],
      "name": "transferFrom",
      "outputs": [],
      "stateMutability": "nonpayable",
      "type": "function"
    },
    {
      "inputs": [
        {
          "internalType": "address",
          "name": "newOwner",
          "type": "address"
        }
      ],
      "name": "transferOwnership",
      "outputs": [],
      "stateMutability": "nonpayable",
      "type": "function"
    },
    {
      "inputs": [],
      "name": "unpause",
      "outputs": [],
      "stateMutability": "nonpayable",
      "type": "function"
    }
  ],
  "bytecode": "0x60806040523480156200001157600080fd5b506040516200492a3803806200492a833981810160405281019062000037919062000313565b818181600090816200004a9190620005e3565b5080600190816200005c9190620005e3565b50505060016008819055506000600e60006101000a81548160ff021916908315150217905550620000a262000096620000b260201b60201c565b620000ba60201b60201c565b60646010819055505050620006ca565b600033905090565b6000600e60019054906101000a900473ffffffffffffffffffffffffffffffffffffffff16905081600e60016101000a81548173ffffffffffffffffffffffffffffffffffffffff021916908373ffffffffffffffffffffffffffffffffffffffff1602179055508173ffffffffffffffffffffffffffffffffffffffff168173ffffffffffffffffffffffffffffffffffffffff167f8be0079c531659141344cd1fd0a4f28419497f9722a3daafe3b4186f6b6457e060405160405180910390a35050565b6000604051905090565b600080fd5b600080fd5b600080fd5b600080fd5b6000601f19601f8301169050919050565b7f4e487b7100000000000000000000000000000000000000000000000000000000600052604160045260246000fd5b620001e9826200019e565b810181811067ffffffffffffffff821117156200020b576200020a620001af565b5b80604052505050565b60006200022062000180565b90506200022e8282620001de565b919050565b600067ffffffffffffffff821115620002515762000250620001af565b5b6200025c826200019e565b9050602081019050919050565b60005b83811015620002895780820151818401526020810190506200026c565b60008484015250505050565b6000620002ac620002a68462000233565b62000214565b905082815260208101848484011115620002cb57620002ca62000199565b5b620002d884828562000269565b509392505050565b600082601f830112620002f857620002f762000194565b5b81516200030a84826020860162000295565b91505092915050565b600080604083850312156200032d576200032c6200018a565b5b600083015167ffffffffffffffff8111156200034e576200034d6200018f565b5b6200035c85828601620002e0565b925050602083015167ffffffffffffffff81111562000380576200037f6200018f565b5b6200038e85828601620002e0565b9150509250929050565b600081519050919050565b7f4e487b7100000000000000000000000000000000000000000000000000000000600052602260045260246000fd5b60006002820490506001821680620003eb57607f821691505b602082108103620004015762000400620003a3565b5b50919050565b60008190508160005260206000209050919050565b60006020601f8301049050919050565b600082821b905092915050565b6000600883026200046b7fffffffffffffffffffffffffffffffffffffffffffffffffffffffffffffffff826200042c565b6200047786836200042c565b95508019841693508086168417925050509392505050565b6000819050919050565b6000819050919050565b6000620004c4620004be620004b8846200048f565b62000499565b6200048f565b9050919050565b6000819050919050565b620004e083620004a3565b620004f8620004ef82620004cb565b84845462000439565b825550505050565b600090565b6200050f62000500565b6200051c818484620004d5565b505050565b5b8181101562000544576200053860008262000505565b60018101905062000522565b5050565b601f82111562000593576200055d8162000407565b62000568846200041c565b8101602085101562000578578190505b6200059062000587856200041c565b83018262000521565b50505b505050565b600082821c905092915050565b6000620005b86000198460080262000598565b1980831691505092915050565b6000620005d38383620005a5565b9150826002028217905092915050565b620005ee8262000398565b67ffffffffffffffff8111156200060a5762000609620001af565b5b620006168254620003d2565b6200062382828562000548565b600060209050601f8311600181146200065b576000841562000646578287015190505b620006528582620005c5565b865550620006c2565b601f1984166200066b8662000407565b60005b8281101562000695578489015182556001820191506020850194506020810190506200066e565b86831015620006b55784890151620006b1601f891682620005a5565b8355505b6001600288020188555050505b505050505050565b61425080620006da6000396000f3fe608060405234801561001057600080fd5b50600436106101a95760003560e01c80636352211e116100f95780639f181b5e11610097578063c87b56dd11610071578063c87b56dd14610497578063cbbb20a4146104c7578063e985e9c5146104f7578063f2fde38b14610527576101a9565b80639f181b5e14610441578063a22cb4651461045f578063b88d4fde1461047b576101a9565b80637e554ba0116100d35780637e554ba0146103df5780638456cb59146103fb5780638da5cb5b1461040557806395d89b4114610423576101a9565b80636352211e1461037557806370a08231146103a5578063715018a6146103d5576101a9565b80632a55205a116101665780633fb4b693116101405780633fb4b693146102ed57806342842e0e1461030b5780634f6ccce7146103275780635c975abb14610357576101a9565b80632a55205a146102825780632f745c59146102b35780633f4ba83a146102e3576101a9565b806301ffc9a7146101ae57806306fdde03146101de578063081812fc146101fc578063095ea7b31461022c57806318160ddd1461024857806323b872dd14610266575b600080fd5b6101c860048036038101906101c39190612926565b610543565b6040516101d5919061296e565b60405180910390f35b6101e6610555565b6040516101f39190612a19565b60405180910390f35b61021660048036038101906102119190612a71565b6105e7565b6040516102239190612adf565b60405180910390f35b61024660048036038101906102419190612b26565b61062d565b005b610250610744565b60405161025d9190612b75565b60405180910390f35b610280600480360381019061027b9190612b90565b610751565b005b61029c60048036038101906102979190612be3565b6107b1565b6040516102aa929190612c23565b60405180910390f35b6102cd60048036038101906102c89190612b26565b61099b565b6040516102da9190612b75565b60405180910390f35b6102eb610a40565b005b6102f5610a52565b6040516103029190612b75565b60405180910390f35b61032560048036038101906103209190612b90565b610a58565b005b610341600480360381019061033c9190612a71565b610a78565b60405161034e9190612b75565b60405180910390f35b61035f610ae9565b60405161036c919061296e565b60405180910390f35b61038f600480360381019061038a9190612a71565b610b00565b60405161039c9190612adf565b60405180910390f35b6103bf60048036038101906103ba9190612c4c565b610bb1565b6040516103cc9190612b75565b60405180910390f35b6103dd610c68565b005b6103f960048036038101906103f49190612a71565b610c7c565b005b610403610c8e565b005b61040d610ca0565b60405161041a9190612adf565b60405180910390f35b61042b610cca565b6040516104389190612a19565b60405180910390f35b610449610d5c565b6040516104569190612b75565b60405180910390f35b61047960048036038101906104749190612ca5565b610d68565b005b61049560048036038101906104909190612e1a565b610d7e565b005b6104b160048036038101906104ac9190612a71565b610de0565b6040516104be9190612a19565b60405180910390f35b6104e160048036038101906104dc9190612f82565b610df2565b6040516104ee9190612b75565b60405180910390f35b610511600480360381019061050c9190612fde565b610f22565b60405161051e919061296e565b60405180910390f35b610541600480360381019061053c9190612c4c565b610fb6565b005b600061054e82611039565b9050919050565b6060600080546105649061304d565b80601f01602080910402602001604051908101604052809291908181526020018280546105909061304d565b80156105dd5780601f106105b2576101008083540402835291602001916105dd565b820191906000526020600020905b8154815290600101906020018083116105c057829003601f168201915b5050505050905090565b60006105f2826110b3565b6004600083815260200190815260200160002060009054906101000a900473ffffffffffffffffffffffffffffffffffffffff169050919050565b600061063882610b00565b90508073ffffffffffffffffffffffffffffffffffffffff168373ffffffffffffffffffffffffffffffffffffffff16036106a8576040517f08c379a000000000000000000000000000000000000000000000000000000000815260040161069f906130f0565b60405180910390fd5b8073ffffffffffffffffffffffffffffffffffffffff166106c76110fe565b73ffffffffffffffffffffffffffffffffffffffff1614806106f657506106f5816106f06110fe565b610f22565b5b610735576040517f08c379a000000000000000000000000000000000000000000000000000000000815260040161072c90613182565b60405180910390fd5b61073f8383611106565b505050565b6000600b80549050905090565b61076261075c6110fe565b826111bf565b6107a1576040517f08c379a000000000000000000000000000000000000000000000000000000000815260040161079890613214565b60405180910390fd5b6107ac838383611254565b505050565b6000806000600760008681526020019081526020016000206040518060400160405290816000820160009054906101000a900473ffffffffffffffffffffffffffffffffffffffff1673ffffffffffffffffffffffffffffffffffffffff1673ffffffffffffffffffffffffffffffffffffffff1681526020016000820160149054906101000a90046bffffffffffffffffffffffff166bffffffffffffffffffffffff166bffffffffffffffffffffffff16815250509050600073ffffffffffffffffffffffffffffffffffffffff16816000015173ffffffffffffffffffffffffffffffffffffffff16036109465760066040518060400160405290816000820160009054906101000a900473ffffffffffffffffffffffffffffffffffffffff1673ffffffffffffffffffffffffffffffffffffffff1673ffffffffffffffffffffffffffffffffffffffff1681526020016000820160149054906101000a90046bffffffffffffffffffffffff166bffffffffffffffffffffffff166bffffffffffffffffffffffff168152505090505b60006109506114ba565b6bffffffffffffffffffffffff1682602001516bffffffffffffffffffffffff168661097c9190613263565b61098691906132ec565b90508160000151819350935050509250929050565b60006109a683610bb1565b82106109e7576040517f08c379a00000000000000000000000000000000000000000000000000000000081526004016109de9061338f565b60405180910390fd5b600960008473ffffffffffffffffffffffffffffffffffffffff1673ffffffffffffffffffffffffffffffffffffffff168152602001908152602001600020600083815260200190815260200160002054905092915050565b610a486114c4565b610a50611542565b565b60105481565b610a7383838360405180602001604052806000815250610d7e565b505050565b6000610a82610744565b8210610ac3576040517f08c379a0000000000000000000000000000000000000000000000000000000008152600401610aba90613421565b60405180910390fd5b600b8281548110610ad757610ad6613441565b5b90600052602060002001549050919050565b6000600e60009054906101000a900460ff16905090565b6000806002600084815260200190815260200160002060009054906101000a900473ffffffffffffffffffffffffffffffffffffffff169050600073ffffffffffffffffffffffffffffffffffffffff168173ffffffffffffffffffffffffffffffffffffffff1603610ba8576040517f08c379a0000000000000000000000000000000000000000000000000000000008152600401610b9f906134bc565b60405180910390fd5b80915050919050565b60008073ffffffffffffffffffffffffffffffffffffffff168273ffffffffffffffffffffffffffffffffffffffff1603610c21576040517f08c379a0000000000000000000000000000000000000000000000000000000008152600401610c189061354e565b60405180910390fd5b600360008373ffffffffffffffffffffffffffffffffffffffff1673ffffffffffffffffffffffffffffffffffffffff168152602001908152602001600020549050919050565b610c706114c4565b610c7a60006115a5565b565b610c846114c4565b8060108190555050565b610c966114c4565b610c9e61166b565b565b6000600e60019054906101000a900473ffffffffffffffffffffffffffffffffffffffff16905090565b606060018054610cd99061304d565b80601f0160208091040260200160405190810160405280929190818152602001828054610d059061304d565b8015610d525780601f10610d2757610100808354040283529160200191610d52565b820191906000526020600020905b815481529060010190602001808311610d3557829003601f168201915b5050505050905090565b600f8060000154905081565b610d7a610d736110fe565b83836116ce565b5050565b610d8f610d896110fe565b836111bf565b610dce576040517f08c379a0000000000000000000000000000000000000000000000000000000008152600401610dc590613214565b60405180910390fd5b610dda8484848461183a565b50505050565b6060610deb82611896565b9050919050565b6000610dfc6119a8565b600260085403610e41576040517f08c379a0000000000000000000000000000000000000000000000000000000008152600401610e38906135ba565b60405180910390fd5b6002600881905550601054826bffffffffffffffffffffffff161115610e9c576040517f08c379a0000000000000000000000000000000000000000000000000000000008152600401610e939061364c565b60405180910390fd5b610ea6600f6119f2565b6000610eb2600f611a08565b9050610ebf813385611a16565b610ec93382611bbd565b610ed38185611bdb565b7f0a87c421f7b51fcf9008064b31bb04f137ea9ec7c7a7d2dca02ae6380ef2a91481338686604051610f0894939291906136a7565b60405180910390a180915050600160088190555092915050565b6000600560008473ffffffffffffffffffffffffffffffffffffffff1673ffffffffffffffffffffffffffffffffffffffff16815260200190815260200160002060008373ffffffffffffffffffffffffffffffffffffffff1673ffffffffffffffffffffffffffffffffffffffff16815260200190815260200160002060009054906101000a900460ff16905092915050565b610fbe6114c4565b600073ffffffffffffffffffffffffffffffffffffffff168173ffffffffffffffffffffffffffffffffffffffff160361102d576040517f08c379a000000000000000000000000000000000000000000000000000000000815260040161102490613765565b60405180910390fd5b611036816115a5565b50565b60007f780e9d63000000000000000000000000000000000000000000000000000000007bffffffffffffffffffffffffffffffffffffffffffffffffffffffff1916827bffffffffffffffffffffffffffffffffffffffffffffffffffffffff191614806110ac57506110ab82611c48565b5b9050919050565b6110bc81611cc2565b6110fb576040517f08c379a00000000000000000000000000000000000000000000000000000000081526004016110f2906134bc565b60405180910390fd5b50565b600033905090565b816004600083815260200190815260200160002060006101000a81548173ffffffffffffffffffffffffffffffffffffffff021916908373ffffffffffffffffffffffffffffffffffffffff160217905550808273ffffffffffffffffffffffffffffffffffffffff1661117983610b00565b73ffffffffffffffffffffffffffffffffffffffff167f8c5be1e5ebec7d5bd14f71427d1e84f3dd0314c0f7b2291e5b200ac8c7c3b92560405160405180910390a45050565b6000806111cb83610b00565b90508073ffffffffffffffffffffffffffffffffffffffff168473ffffffffffffffffffffffffffffffffffffffff16148061120d575061120c8185610f22565b5b8061124b57508373ffffffffffffffffffffffffffffffffffffffff16611233846105e7565b73ffffffffffffffffffffffffffffffffffffffff16145b91505092915050565b8273ffffffffffffffffffffffffffffffffffffffff1661127482610b00565b73ffffffffffffffffffffffffffffffffffffffff16146112ca576040517f08c379a00000000000000000000000000000000000000000000000000000000081526004016112c1906137f7565b60405180910390fd5b600073ffffffffffffffffffffffffffffffffffffffff168273ffffffffffffffffffffffffffffffffffffffff1603611339576040517f08c379a000000000000000000000000000000000000000000000000000000000815260040161133090613889565b60405180910390fd5b611344838383611d2e565b61134f600082611106565b6001600360008573ffffffffffffffffffffffffffffffffffffffff1673ffffffffffffffffffffffffffffffffffffffff168152602001908152602001600020600082825461139f91906138a9565b925050819055506001600360008473ffffffffffffffffffffffffffffffffffffffff1673ffffffffffffffffffffffffffffffffffffffff16815260200190815260200160002060008282546113f691906138dd565b92505081905550816002600083815260200190815260200160002060006101000a81548173ffffffffffffffffffffffffffffffffffffffff021916908373ffffffffffffffffffffffffffffffffffffffff160217905550808273ffffffffffffffffffffffffffffffffffffffff168473ffffffffffffffffffffffffffffffffffffffff167fddf252ad1be2c89b69c2b068fc378daa952ba7f163c4a11628f55a4df523b3ef60405160405180910390a46114b5838383611d46565b505050565b60006103e8905090565b6114cc6110fe565b73ffffffffffffffffffffffffffffffffffffffff166114ea610ca0565b73ffffffffffffffffffffffffffffffffffffffff1614611540576040517f08c379a00000000000000000000000000000000000000000000000000000000081526004016115379061395d565b60405180910390fd5b565b61154a611d4b565b6000600e60006101000a81548160ff0219169083151502179055507f5db9ee0a495bf2e6ff9c91a7834c1ba4fdd244a5e8aa4e537bd38aeae4b073aa61158e6110fe565b60405161159b9190612adf565b60405180910390a1565b6000600e60019054906101000a900473ffffffffffffffffffffffffffffffffffffffff16905081600e60016101000a81548173ffffffffffffffffffffffffffffffffffffffff021916908373ffffffffffffffffffffffffffffffffffffffff1602179055508173ffffffffffffffffffffffffffffffffffffffff168173ffffffffffffffffffffffffffffffffffffffff167f8be0079c531659141344cd1fd0a4f28419497f9722a3daafe3b4186f6b6457e060405160405180910390a35050565b6116736119a8565b6001600e60006101000a81548160ff0219169083151502179055507f62e78cea01bee320cd4e420270b5ea74000d11b0c9f74754ebdbfc544b05a2586116b76110fe565b6040516116c49190612adf565b60405180910390a1565b8173ffffffffffffffffffffffffffffffffffffffff168373ffffffffffffffffffffffffffffffffffffffff160361173c576040517f08c379a0000000000000000000000000000000000000000000000000000000008152600401611733906139c9565b60405180910390fd5b80600560008573ffffffffffffffffffffffffffffffffffffffff1673ffffffffffffffffffffffffffffffffffffffff16815260200190815260200160002060008473ffffffffffffffffffffffffffffffffffffffff1673ffffffffffffffffffffffffffffffffffffffff16815260200190815260200160002060006101000a81548160ff0219169083151502179055508173ffffffffffffffffffffffffffffffffffffffff168373ffffffffffffffffffffffffffffffffffffffff167f17307eab39ab6107e8899845ad3d59bd9653f200f220920489ca2b5937696c318360405161182d919061296e565b60405180910390a3505050565b611845848484611254565b61185184848484611d94565b611890576040517f08c379a000000000000000000000000000000000000000000000000000000000815260040161188790613a5b565b60405180910390fd5b50505050565b60606118a1826110b3565b6000600d600084815260200190815260200160002080546118c19061304d565b80601f01602080910402602001604051908101604052809291908181526020018280546118ed9061304d565b801561193a5780601f1061190f5761010080835404028352916020019161193a565b820191906000526020600020905b81548152906001019060200180831161191d57829003601f168201915b50505050509050600061194b611f1b565b905060008151036119605781925050506119a3565b60008251111561199557808260405160200161197d929190613ab7565b604051602081830303815290604052925050506119a3565b61199e84611f32565b925050505b919050565b6119b0610ae9565b156119f0576040517f08c379a00000000000000000000000000000000000000000000000000000000081526004016119e790613b27565b60405180910390fd5b565b6001816000016000828254019250508190555050565b600081600001549050919050565b611a1e6114ba565b6bffffffffffffffffffffffff16816bffffffffffffffffffffffff161115611a7c576040517f08c379a0000000000000000000000000000000000000000000000000000000008152600401611a7390613bb9565b60405180910390fd5b600073ffffffffffffffffffffffffffffffffffffffff168273ffffffffffffffffffffffffffffffffffffffff1603611aeb576040517f08c379a0000000000000000000000000000000000000000000000000000000008152600401611ae290613c25565b60405180910390fd5b60405180604001604052808373ffffffffffffffffffffffffffffffffffffffff168152602001826bffffffffffffffffffffffff168152506007600085815260200190815260200160002060008201518160000160006101000a81548173ffffffffffffffffffffffffffffffffffffffff021916908373ffffffffffffffffffffffffffffffffffffffff16021790555060208201518160000160146101000a8154816bffffffffffffffffffffffff02191690836bffffffffffffffffffffffff160217905550905050505050565b611bd7828260405180602001604052806000815250611f9a565b5050565b611be482611cc2565b611c23576040517f08c379a0000000000000000000000000000000000000000000000000000000008152600401611c1a90613cb7565b60405180910390fd5b80600d60008481526020019081526020016000209081611c439190613e79565b505050565b60007f2a55205a000000000000000000000000000000000000000000000000000000007bffffffffffffffffffffffffffffffffffffffffffffffffffffffff1916827bffffffffffffffffffffffffffffffffffffffffffffffffffffffff19161480611cbb5750611cba82611ff5565b5b9050919050565b60008073ffffffffffffffffffffffffffffffffffffffff166002600084815260200190815260200160002060009054906101000a900473ffffffffffffffffffffffffffffffffffffffff1673ffffffffffffffffffffffffffffffffffffffff1614159050919050565b611d366119a8565b611d418383836120d7565b505050565b505050565b611d53610ae9565b611d92576040517f08c379a0000000000000000000000000000000000000000000000000000000008152600401611d8990613f97565b60405180910390fd5b565b6000611db58473ffffffffffffffffffffffffffffffffffffffff166121e9565b15611f0e578373ffffffffffffffffffffffffffffffffffffffff1663150b7a02611dde6110fe565b8786866040518563ffffffff1660e01b8152600401611e00949392919061400c565b6020604051808303816000875af1925050508015611e3c57506040513d601f19601f82011682018060405250810190611e39919061406d565b60015b611ebe573d8060008114611e6c576040519150601f19603f3d011682016040523d82523d6000602084013e611e71565b606091505b506000815103611eb6576040517f08c379a0000000000000000000000000000000000000000000000000000000008152600401611ead90613a5b565b60405180910390fd5b805181602001fd5b63150b7a0260e01b7bffffffffffffffffffffffffffffffffffffffffffffffffffffffff1916817bffffffffffffffffffffffffffffffffffffffffffffffffffffffff191614915050611f13565b600190505b949350505050565b606060405180602001604052806000815250905090565b6060611f3d826110b3565b6000611f47611f1b565b90506000815111611f675760405180602001604052806000815250611f92565b80611f718461220c565b604051602001611f82929190613ab7565b6040516020818303038152906040525b915050919050565b611fa4838361236c565b611fb16000848484611d94565b611ff0576040517f08c379a0000000000000000000000000000000000000000000000000000000008152600401611fe790613a5b565b60405180910390fd5b505050565b60007f80ac58cd000000000000000000000000000000000000000000000000000000007bffffffffffffffffffffffffffffffffffffffffffffffffffffffff1916827bffffffffffffffffffffffffffffffffffffffffffffffffffffffff191614806120c057507f5b5e139f000000000000000000000000000000000000000000000000000000007bffffffffffffffffffffffffffffffffffffffffffffffffffffffff1916827bffffffffffffffffffffffffffffffffffffffffffffffffffffffff1916145b806120d057506120cf82612545565b5b9050919050565b6120e28383836125af565b600073ffffffffffffffffffffffffffffffffffffffff168373ffffffffffffffffffffffffffffffffffffffff16036121245761211f816125b4565b612163565b8173ffffffffffffffffffffffffffffffffffffffff168373ffffffffffffffffffffffffffffffffffffffff16146121625761216183826125fd565b5b5b600073ffffffffffffffffffffffffffffffffffffffff168273ffffffffffffffffffffffffffffffffffffffff16036121a5576121a08161276a565b6121e4565b8273ffffffffffffffffffffffffffffffffffffffff168273ffffffffffffffffffffffffffffffffffffffff16146121e3576121e2828261283b565b5b5b505050565b6000808273ffffffffffffffffffffffffffffffffffffffff163b119050919050565b606060008203612253576040518060400160405280600181526020017f30000000000000000000000000000000000000000000000000000000000000008152509050612367565b600082905060005b6000821461228557808061226e9061409a565b915050600a8261227e91906132ec565b915061225b565b60008167ffffffffffffffff8111156122a1576122a0612cef565b5b6040519080825280601f01601f1916602001820160405280156122d35781602001600182028036833780820191505090505b5090505b60008514612360576001826122ec91906138a9565b9150600a856122fb91906140e2565b603061230791906138dd565b60f81b81838151811061231d5761231c613441565b5b60200101907effffffffffffffffffffffffffffffffffffffffffffffffffffffffffffff1916908160001a905350600a8561235991906132ec565b94506122d7565b8093505050505b919050565b600073ffffffffffffffffffffffffffffffffffffffff168273ffffffffffffffffffffffffffffffffffffffff16036123db576040517f08c379a00000000000000000000000000000000000000000000000000000000081526004016123d29061415f565b60405180910390fd5b6123e481611cc2565b15612424576040517f08c379a000000000000000000000000000000000000000000000000000000000815260040161241b906141cb565b60405180910390fd5b61243060008383611d2e565b6001600360008473ffffffffffffffffffffffffffffffffffffffff1673ffffffffffffffffffffffffffffffffffffffff168152602001908152602001600020600082825461248091906138dd565b92505081905550816002600083815260200190815260200160002060006101000a81548173ffffffffffffffffffffffffffffffffffffffff021916908373ffffffffffffffffffffffffffffffffffffffff160217905550808273ffffffffffffffffffffffffffffffffffffffff16600073ffffffffffffffffffffffffffffffffffffffff167fddf252ad1be2c89b69c2b068fc378daa952ba7f163c4a11628f55a4df523b3ef60405160405180910390a461254160008383611d46565b5050565b60007f01ffc9a7000000000000000000000000000000000000000000000000000000007bffffffffffffffffffffffffffffffffffffffffffffffffffffffff1916827bffffffffffffffffffffffffffffffffffffffffffffffffffffffff1916149050919050565b505050565b600b80549050600c600083815260200190815260200160002081905550600b81908060018154018082558091505060019003906000526020600020016000909190919091505550565b6000600161260a84610bb1565b61261491906138a9565b90506000600a60008481526020019081526020016000205490508181146126f9576000600960008673ffffffffffffffffffffffffffffffffffffffff1673ffffffffffffffffffffffffffffffffffffffff168152602001908152602001600020600084815260200190815260200160002054905080600960008773ffffffffffffffffffffffffffffffffffffffff1673ffffffffffffffffffffffffffffffffffffffff16815260200190815260200160002060008481526020019081526020016000208190555081600a600083815260200190815260200160002081905550505b600a600084815260200190815260200160002060009055600960008573ffffffffffffffffffffffffffffffffffffffff1673ffffffffffffffffffffffffffffffffffffffff16815260200190815260200160002060008381526020019081526020016000206000905550505050565b60006001600b8054905061277e91906138a9565b90506000600c60008481526020019081526020016000205490506000600b83815481106127ae576127ad613441565b5b9060005260206000200154905080600b83815481106127d0576127cf613441565b5b906000526020600020018190555081600c600083815260200190815260200160002081905550600c600085815260200190815260200160002060009055600b80548061281f5761281e6141eb565b5b6001900381819060005260206000200160009055905550505050565b600061284683610bb1565b905081600960008573ffffffffffffffffffffffffffffffffffffffff1673ffffffffffffffffffffffffffffffffffffffff16815260200190815260200160002060008381526020019081526020016000208190555080600a600084815260200190815260200160002081905550505050565b6000604051905090565b600080fd5b600080fd5b60007fffffffff0000000000000000000000000000000000000000000000000000000082169050919050565b612903816128ce565b811461290e57600080fd5b50565b600081359050612920816128fa565b92915050565b60006020828403121561293c5761293b6128c4565b5b600061294a84828501612911565b91505092915050565b60008115159050919050565b61296881612953565b82525050565b6000602082019050612983600083018461295f565b92915050565b600081519050919050565b600082825260208201905092915050565b60005b838110156129c35780820151818401526020810190506129a8565b60008484015250505050565b6000601f19601f8301169050919050565b60006129eb82612989565b6129f58185612994565b9350612a058185602086016129a5565b612a0e816129cf565b840191505092915050565b60006020820190508181036000830152612a3381846129e0565b905092915050565b6000819050919050565b612a4e81612a3b565b8114612a5957600080fd5b50565b600081359050612a6b81612a45565b92915050565b600060208284031215612a8757612a866128c4565b5b6000612a9584828501612a5c565b91505092915050565b600073ffffffffffffffffffffffffffffffffffffffff82169050919050565b6000612ac982612a9e565b9050919050565b612ad981612abe565b82525050565b6000602082019050612af46000830184612ad0565b92915050565b612b0381612abe565b8114612b0e57600080fd5b50565b600081359050612b2081612afa565b92915050565b60008060408385031215612b3d57612b3c6128c4565b5b6000612b4b85828601612b11565b9250506020612b5c85828601612a5c565b9150509250929050565b612b6f81612a3b565b82525050565b6000602082019050612b8a6000830184612b66565b92915050565b600080600060608486031215612ba957612ba86128c4565b5b6000612bb786828701612b11565b9350506020612bc886828701612b11565b9250506040612bd986828701612a5c565b9150509250925092565b60008060408385031215612bfa57612bf96128c4565b5b6000612c0885828601612a5c565b9250506020612c1985828601612a5c565b9150509250929050565b6000604082019050612c386000830185612ad0565b612c456020830184612b66565b9392505050565b600060208284031215612c6257612c616128c4565b5b6000612c7084828501612b11565b91505092915050565b612c8281612953565b8114612c8d57600080fd5b50565b600081359050612c9f81612c79565b92915050565b60008060408385031215612cbc57612cbb6128c4565b5b6000612cca85828601612b11565b9250506020612cdb85828601612c90565b9150509250929050565b600080fd5b600080fd5b7f4e487b7100000000000000000000000000000000000000000000000000000000600052604160045260246000fd5b612d27826129cf565b810181811067ffffffffffffffff82111715612d4657612d45612cef565b5b80604052505050565b6000612d596128ba565b9050612d658282612d1e565b919050565b600067ffffffffffffffff821115612d8557612d84612cef565b5b612d8e826129cf565b9050602081019050919050565b82818337600083830152505050565b6000612dbd612db884612d6a565b612d4f565b905082815260208101848484011115612dd957612dd8612cea565b5b612de4848285612d9b565b509392505050565b600082601f830112612e0157612e00612ce5565b5b8135612e11848260208601612daa565b91505092915050565b60008060008060808587031215612e3457612e336128c4565b5b6000612e4287828801612b11565b9450506020612e5387828801612b11565b9350506040612e6487828801612a5c565b925050606085013567ffffffffffffffff811115612e8557612e846128c9565b5b612e9187828801612dec565b91505092959194509250565b600067ffffffffffffffff821115612eb857612eb7612cef565b5b612ec1826129cf565b9050602081019050919050565b6000612ee1612edc84612e9d565b612d4f565b905082815260208101848484011115612efd57612efc612cea565b5b612f08848285612d9b565b509392505050565b600082601f830112612f2557612f24612ce5565b5b8135612f35848260208601612ece565b91505092915050565b60006bffffffffffffffffffffffff82169050919050565b612f5f81612f3e565b8114612f6a57600080fd5b50565b600081359050612f7c81612f56565b92915050565b60008060408385031215612f9957612f986128c4565b5b600083013567ffffffffffffffff811115612fb757612fb66128c9565b5b612fc385828601612f10565b9250506020612fd485828601612f6d565b9150509250929050565b60008060408385031215612ff557612ff46128c4565b5b600061300385828601612b11565b925050602061301485828601612b11565b9150509250929050565b7f4e487b7100000000000000000000000000000000000000000000000000000000600052602260045260246000fd5b6000600282049050600182168061306557607f821691505b6020821081036130785761307761301e565b5b50919050565b7f4552433732313a20617070726f76616c20746f2063757272656e74206f776e6560008201527f7200000000000000000000000000000000000000000000000000000000000000602082015250565b60006130da602183612994565b91506130e58261307e565b604082019050919050565b60006020820190508181036000830152613109816130cd565b9050919050565b7f4552433732313a20617070726f76652063616c6c6572206973206e6f7420746f60008201527f6b656e206f776e6572206e6f7220617070726f76656420666f7220616c6c0000602082015250565b600061316c603e83612994565b915061317782613110565b604082019050919050565b6000602082019050818103600083015261319b8161315f565b9050919050565b7f4552433732313a2063616c6c6572206973206e6f7420746f6b656e206f776e6560008201527f72206e6f7220617070726f766564000000000000000000000000000000000000602082015250565b60006131fe602e83612994565b9150613209826131a2565b604082019050919050565b6000602082019050818103600083015261322d816131f1565b9050919050565b7f4e487b7100000000000000000000000000000000000000000000000000000000600052601160045260246000fd5b600061326e82612a3b565b915061327983612a3b565b9250817fffffffffffffffffffffffffffffffffffffffffffffffffffffffffffffffff04831182151516156132b2576132b1613234565b5b828202905092915050565b7f4e487b7100000000000000000000000000000000000000000000000000000000600052601260045260246000fd5b60006132f782612a3b565b915061330283612a3b565b925082613312576133116132bd565b5b828204905092915050565b7f455243373231456e756d657261626c653a206f776e657220696e646578206f7560008201527f74206f6620626f756e6473000000000000000000000000000000000000000000602082015250565b6000613379602b83612994565b91506133848261331d565b604082019050919050565b600060208201905081810360008301526133a88161336c565b9050919050565b7f455243373231456e756d657261626c653a20676c6f62616c20696e646578206f60008201527f7574206f6620626f756e64730000000000000000000000000000000000000000602082015250565b600061340b602c83612994565b9150613416826133af565b604082019050919050565b6000602082019050818103600083015261343a816133fe565b9050919050565b7f4e487b7100000000000000000000000000000000000000000000000000000000600052603260045260246000fd5b7f4552433732313a20696e76616c696420746f6b656e2049440000000000000000600082015250565b60006134a6601883612994565b91506134b182613470565b602082019050919050565b600060208201905081810360008301526134d581613499565b9050919050565b7f4552433732313a2061646472657373207a65726f206973206e6f74206120766160008201527f6c6964206f776e65720000000000000000000000000000000000000000000000602082015250565b6000613538602983612994565b9150613543826134dc565b604082019050919050565b600060208201905081810360008301526135678161352b565b9050919050565b7f5265656e7472616e637947756172643a207265656e7472616e742063616c6c00600082015250565b60006135a4601f83612994565b91506135af8261356e565b602082019050919050565b600060208201905081810360008301526135d381613597565b9050919050565b7f526f79616c746965732070657263656e7461676520657863656564732074686560008201527f206d6178696d756d2076616c7565210000000000000000000000000000000000602082015250565b6000613636602f83612994565b9150613641826135da565b604082019050919050565b6000602082019050818103600083015261366581613629565b9050919050565b6000819050919050565b600061369161368c61368784612f3e565b61366c565b612a3b565b9050919050565b6136a181613676565b82525050565b60006080820190506136bc6000830187612b66565b6136c96020830186612ad0565b81810360408301526136db81856129e0565b90506136ea6060830184613698565b95945050505050565b7f4f776e61626c653a206e6577206f776e657220697320746865207a65726f206160008201527f6464726573730000000000000000000000000000000000000000000000000000602082015250565b600061374f602683612994565b915061375a826136f3565b604082019050919050565b6000602082019050818103600083015261377e81613742565b9050919050565b7f4552433732313a207472616e736665722066726f6d20696e636f72726563742060008201527f6f776e6572000000000000000000000000000000000000000000000000000000602082015250565b60006137e1602583612994565b91506137ec82613785565b604082019050919050565b60006020820190508181036000830152613810816137d4565b9050919050565b7f4552433732313a207472616e7366657220746f20746865207a65726f2061646460008201527f7265737300000000000000000000000000000000000000000000000000000000602082015250565b6000613873602483612994565b915061387e82613817565b604082019050919050565b600060208201905081810360008301526138a281613866565b9050919050565b60006138b482612a3b565b91506138bf83612a3b565b92508282039050818111156138d7576138d6613234565b5b92915050565b60006138e882612a3b565b91506138f383612a3b565b925082820190508082111561390b5761390a613234565b5b92915050565b7f4f776e61626c653a2063616c6c6572206973206e6f7420746865206f776e6572600082015250565b6000613947602083612994565b915061395282613911565b602082019050919050565b600060208201905081810360008301526139768161393a565b9050919050565b7f4552433732313a20617070726f766520746f2063616c6c657200000000000000600082015250565b60006139b3601983612994565b91506139be8261397d565b602082019050919050565b600060208201905081810360008301526139e2816139a6565b9050919050565b7f4552433732313a207472616e7366657220746f206e6f6e20455243373231526560008201527f63656976657220696d706c656d656e7465720000000000000000000000000000602082015250565b6000613a45603283612994565b9150613a50826139e9565b604082019050919050565b60006020820190508181036000830152613a7481613a38565b9050919050565b600081905092915050565b6000613a9182612989565b613a9b8185613a7b565b9350613aab8185602086016129a5565b80840191505092915050565b6000613ac38285613a86565b9150613acf8284613a86565b91508190509392505050565b7f5061757361626c653a2070617573656400000000000000000000000000000000600082015250565b6000613b11601083612994565b9150613b1c82613adb565b602082019050919050565b60006020820190508181036000830152613b4081613b04565b9050919050565b7f455243323938313a20726f79616c7479206665652077696c6c2065786365656460008201527f2073616c65507269636500000000000000000000000000000000000000000000602082015250565b6000613ba3602a83612994565b9150613bae82613b47565b604082019050919050565b60006020820190508181036000830152613bd281613b96565b9050919050565b7f455243323938313a20496e76616c696420706172616d65746572730000000000600082015250565b6000613c0f601b83612994565b9150613c1a82613bd9565b602082019050919050565b60006020820190508181036000830152613c3e81613c02565b9050919050565b7f45524337323155524953746f726167653a2055524920736574206f66206e6f6e60008201527f6578697374656e7420746f6b656e000000000000000000000000000000000000602082015250565b6000613ca1602e83612994565b9150613cac82613c45565b604082019050919050565b60006020820190508181036000830152613cd081613c94565b9050919050565b60008190508160005260206000209050919050565b60006020601f8301049050919050565b600082821b905092915050565b600060088302613d397fffffffffffffffffffffffffffffffffffffffffffffffffffffffffffffffff82613cfc565b613d438683613cfc565b95508019841693508086168417925050509392505050565b6000613d76613d71613d6c84612a3b565b61366c565b612a3b565b9050919050565b6000819050919050565b613d9083613d5b565b613da4613d9c82613d7d565b848454613d09565b825550505050565b600090565b613db9613dac565b613dc4818484613d87565b505050565b5b81811015613de857613ddd600082613db1565b600181019050613dca565b5050565b601f821115613e2d57613dfe81613cd7565b613e0784613cec565b81016020851015613e16578190505b613e2a613e2285613cec565b830182613dc9565b50505b505050565b600082821c905092915050565b6000613e5060001984600802613e32565b1980831691505092915050565b6000613e698383613e3f565b9150826002028217905092915050565b613e8282612989565b67ffffffffffffffff811115613e9b57613e9a612cef565b5b613ea5825461304d565b613eb0828285613dec565b600060209050601f831160018114613ee35760008415613ed1578287015190505b613edb8582613e5d565b865550613f43565b601f198416613ef186613cd7565b60005b82811015613f1957848901518255600182019150602085019450602081019050613ef4565b86831015613f365784890151613f32601f891682613e3f565b8355505b6001600288020188555050505b505050505050565b7f5061757361626c653a206e6f7420706175736564000000000000000000000000600082015250565b6000613f81601483612994565b9150613f8c82613f4b565b602082019050919050565b60006020820190508181036000830152613fb081613f74565b9050919050565b600081519050919050565b600082825260208201905092915050565b6000613fde82613fb7565b613fe88185613fc2565b9350613ff88185602086016129a5565b614001816129cf565b840191505092915050565b60006080820190506140216000830187612ad0565b61402e6020830186612ad0565b61403b6040830185612b66565b818103606083015261404d8184613fd3565b905095945050505050565b600081519050614067816128fa565b92915050565b600060208284031215614083576140826128c4565b5b600061409184828501614058565b91505092915050565b60006140a582612a3b565b91507fffffffffffffffffffffffffffffffffffffffffffffffffffffffffffffffff82036140d7576140d6613234565b5b600182019050919050565b60006140ed82612a3b565b91506140f883612a3b565b925082614108576141076132bd565b5b828206905092915050565b7f4552433732313a206d696e7420746f20746865207a65726f2061646472657373600082015250565b6000614149602083612994565b915061415482614113565b602082019050919050565b600060208201905081810360008301526141788161413c565b9050919050565b7f4552433732313a20746f6b656e20616c7265616479206d696e74656400000000600082015250565b60006141b5601c83612994565b91506141c08261417f565b602082019050919050565b600060208201905081810360008301526141e4816141a8565b9050919050565b7f4e487b7100000000000000000000000000000000000000000000000000000000600052603160045260246000fdfea2646970667358221220b7ec3a4ffc0f6926100c5de29dc0adf1804187ce7c3ccc86eeba5f71d64ccb8f64736f6c63430008100033",
  "linkReferences": {},
  "deployedLinkReferences": {}
}