{
  "_format": "hh-sol-artifact-1",
  "contractName": "Marketplace",
  "sourceName": "contracts/Marketplace.sol",
  "abi": [
    {
      "anonymous": false,
      "inputs": [
        {
          "indexed": false,
          "internalType": "address",
          "name": "previousAdmin",
          "type": "address"
        },
        {
          "indexed": false,
          "internalType": "address",
          "name": "newAdmin",
          "type": "address"
        }
      ],
      "name": "AdminChanged",
      "type": "event"
    },
    {
      "anonymous": false,
      "inputs": [
        {
          "indexed": true,
          "internalType": "address",
          "name": "beacon",
          "type": "address"
        }
      ],
      "name": "BeaconUpgraded",
      "type": "event"
    },
    {
      "anonymous": false,
      "inputs": [
        {
          "indexed": false,
          "internalType": "uint8",
          "name": "version",
          "type": "uint8"
        }
      ],
      "name": "Initialized",
      "type": "event"
    },
    {
      "anonymous": false,
      "inputs": [
        {
          "indexed": false,
          "internalType": "uint256",
          "name": "_itemId",
          "type": "uint256"
        },
        {
          "indexed": true,
          "internalType": "address",
          "name": "_nft",
          "type": "address"
        },
        {
          "indexed": false,
          "internalType": "uint256",
          "name": "_tokenId",
          "type": "uint256"
        },
        {
          "indexed": false,
          "internalType": "uint256",
          "name": "_price",
          "type": "uint256"
        },
        {
          "indexed": true,
          "internalType": "address",
          "name": "_seller",
          "type": "address"
        },
        {
          "indexed": true,
          "internalType": "address",
          "name": "_buyer",
          "type": "address"
        }
      ],
      "name": "LogBuyItem",
      "type": "event"
    },
    {
      "anonymous": false,
      "inputs": [
        {
          "indexed": false,
          "internalType": "uint256",
          "name": "_itemId",
          "type": "uint256"
        },
        {
          "indexed": false,
          "internalType": "address",
          "name": "_sender",
          "type": "address"
        },
        {
          "indexed": false,
          "internalType": "uint256",
          "name": "_newPrice",
          "type": "uint256"
        }
      ],
      "name": "LogChangePrice",
      "type": "event"
    },
    {
      "anonymous": false,
      "inputs": [
        {
          "indexed": false,
          "internalType": "uint256",
          "name": "_itemID",
          "type": "uint256"
        },
        {
          "indexed": false,
          "internalType": "address",
          "name": "_seller",
          "type": "address"
        },
        {
          "indexed": false,
          "internalType": "enum Marketplace.item_status",
          "name": "_newStatus",
          "type": "uint8"
        }
      ],
      "name": "LogChangeStatus",
      "type": "event"
    },
    {
      "anonymous": false,
      "inputs": [
        {
          "indexed": false,
          "internalType": "uint256",
          "name": "_itemId",
          "type": "uint256"
        },
        {
          "indexed": true,
          "internalType": "address",
          "name": "_nft",
          "type": "address"
        },
        {
          "indexed": false,
          "internalType": "uint256",
          "name": "_tokenId",
          "type": "uint256"
        },
        {
          "indexed": false,
          "internalType": "uint256",
          "name": "_price",
          "type": "uint256"
        },
        {
          "indexed": true,
          "internalType": "address",
          "name": "_seller",
          "type": "address"
        },
        {
          "indexed": false,
          "internalType": "address",
          "name": "_creator",
          "type": "address"
        }
      ],
      "name": "LogCreateItem",
      "type": "event"
    },
    {
      "anonymous": false,
      "inputs": [
        {
          "indexed": true,
          "internalType": "address",
          "name": "previousOwner",
          "type": "address"
        },
        {
          "indexed": true,
          "internalType": "address",
          "name": "newOwner",
          "type": "address"
        }
      ],
      "name": "OwnershipTransferred",
      "type": "event"
    },
    {
      "anonymous": false,
      "inputs": [
        {
          "indexed": false,
          "internalType": "address",
          "name": "account",
          "type": "address"
        }
      ],
      "name": "Paused",
      "type": "event"
    },
    {
      "anonymous": false,
      "inputs": [
        {
          "indexed": false,
          "internalType": "address",
          "name": "account",
          "type": "address"
        }
      ],
      "name": "Unpaused",
      "type": "event"
    },
    {
      "anonymous": false,
      "inputs": [
        {
          "indexed": true,
          "internalType": "address",
          "name": "implementation",
          "type": "address"
        }
      ],
      "name": "Upgraded",
      "type": "event"
    },
    {
      "inputs": [
        {
          "internalType": "uint256",
          "name": "_itemId",
          "type": "uint256"
        }
      ],
      "name": "buyItem",
      "outputs": [],
      "stateMutability": "payable",
      "type": "function"
    },
    {
      "inputs": [
        {
          "internalType": "uint256",
          "name": "_itemId",
          "type": "uint256"
        },
        {
          "internalType": "uint256",
          "name": "_newPrice",
          "type": "uint256"
        }
      ],
      "name": "changeItemPrice",
      "outputs": [],
      "stateMutability": "nonpayable",
      "type": "function"
    },
    {
      "inputs": [
        {
          "internalType": "uint256",
          "name": "_itemId",
          "type": "uint256"
        },
        {
          "internalType": "enum Marketplace.item_status",
          "name": "_newStatus",
          "type": "uint8"
        }
      ],
      "name": "changeItemStatus",
      "outputs": [],
      "stateMutability": "nonpayable",
      "type": "function"
    },
    {
      "inputs": [],
      "name": "feePercentage",
      "outputs": [
        {
          "internalType": "uint256",
          "name": "",
          "type": "uint256"
        }
      ],
      "stateMutability": "view",
      "type": "function"
    },
    {
      "inputs": [],
      "name": "getContractBalance",
      "outputs": [
        {
          "internalType": "uint256",
          "name": "",
          "type": "uint256"
        }
      ],
      "stateMutability": "view",
      "type": "function"
    },
    {
      "inputs": [],
      "name": "getItemsCount",
      "outputs": [
        {
          "internalType": "uint256",
          "name": "",
          "type": "uint256"
        }
      ],
      "stateMutability": "view",
      "type": "function"
    },
    {
      "inputs": [],
      "name": "getItemsSold",
      "outputs": [
        {
          "internalType": "uint256",
          "name": "",
          "type": "uint256"
        }
      ],
      "stateMutability": "view",
      "type": "function"
    },
    {
      "inputs": [
        {
          "internalType": "uint256",
          "name": "_price",
          "type": "uint256"
        }
      ],
      "name": "getListingFees",
      "outputs": [
        {
          "internalType": "uint256",
          "name": "",
          "type": "uint256"
        }
      ],
      "stateMutability": "view",
      "type": "function"
    },
    {
      "inputs": [
        {
          "internalType": "uint256",
          "name": "_feePercentage",
          "type": "uint256"
        }
      ],
      "name": "initialize",
      "outputs": [],
      "stateMutability": "nonpayable",
      "type": "function"
    },
    {
      "inputs": [
        {
          "internalType": "uint256",
          "name": "",
          "type": "uint256"
        }
      ],
      "name": "items",
      "outputs": [
        {
          "internalType": "uint256",
          "name": "itemId",
          "type": "uint256"
        },
        {
          "internalType": "address",
          "name": "nftAddress",
          "type": "address"
        },
        {
          "internalType": "uint256",
          "name": "tokenId",
          "type": "uint256"
        },
        {
          "internalType": "uint256",
          "name": "price",
          "type": "uint256"
        },
        {
          "internalType": "address payable",
          "name": "seller",
          "type": "address"
        },
        {
          "internalType": "address payable",
          "name": "creator",
          "type": "address"
        },
        {
          "internalType": "uint256",
          "name": "creatorRoyaltiesPercentage",
          "type": "uint256"
        },
        {
          "internalType": "enum Marketplace.item_status",
          "name": "status",
          "type": "uint8"
        }
      ],
      "stateMutability": "view",
      "type": "function"
    },
    {
      "inputs": [],
      "name": "listingFeePercentage",
      "outputs": [
        {
          "internalType": "uint256",
          "name": "",
          "type": "uint256"
        }
      ],
      "stateMutability": "view",
      "type": "function"
    },
    {
      "inputs": [
        {
          "internalType": "address",
          "name": "_nft",
          "type": "address"
        },
        {
          "internalType": "uint256",
          "name": "_tokenId",
          "type": "uint256"
        },
        {
          "internalType": "uint256",
          "name": "_price",
          "type": "uint256"
        }
      ],
      "name": "makeItem",
      "outputs": [
        {
          "internalType": "uint256",
          "name": "",
          "type": "uint256"
        }
      ],
      "stateMutability": "payable",
      "type": "function"
    },
    {
      "inputs": [
        {
          "internalType": "address",
          "name": "",
          "type": "address"
        },
        {
          "internalType": "address",
          "name": "",
          "type": "address"
        },
        {
          "internalType": "uint256",
          "name": "",
          "type": "uint256"
        },
        {
          "internalType": "bytes",
          "name": "",
          "type": "bytes"
        }
      ],
      "name": "onERC721Received",
      "outputs": [
        {
          "internalType": "bytes4",
          "name": "",
          "type": "bytes4"
        }
      ],
      "stateMutability": "nonpayable",
      "type": "function"
    },
    {
      "inputs": [],
      "name": "owner",
      "outputs": [
        {
          "internalType": "address",
          "name": "",
          "type": "address"
        }
      ],
      "stateMutability": "view",
      "type": "function"
    },
    {
      "inputs": [],
      "name": "pause",
      "outputs": [],
      "stateMutability": "nonpayable",
      "type": "function"
    },
    {
      "inputs": [],
      "name": "paused",
      "outputs": [
        {
          "internalType": "bool",
          "name": "",
          "type": "bool"
        }
      ],
      "stateMutability": "view",
      "type": "function"
    },
    {
      "inputs": [],
      "name": "proxiableUUID",
      "outputs": [
        {
          "internalType": "bytes32",
          "name": "",
          "type": "bytes32"
        }
      ],
      "stateMutability": "view",
      "type": "function"
    },
    {
      "inputs": [],
      "name": "renounceOwnership",
      "outputs": [],
      "stateMutability": "nonpayable",
      "type": "function"
    },
    {
      "inputs": [
        {
          "internalType": "uint256",
          "name": "_feePercentage",
          "type": "uint256"
        }
      ],
      "name": "setFeePercentage",
      "outputs": [],
      "stateMutability": "nonpayable",
      "type": "function"
    },
    {
      "inputs": [
        {
          "internalType": "uint256",
          "name": "_listingFeePercentage",
          "type": "uint256"
        }
      ],
      "name": "setListingFeesPercentage",
      "outputs": [],
      "stateMutability": "nonpayable",
      "type": "function"
    },
    {
      "inputs": [
        {
          "internalType": "address",
          "name": "newOwner",
          "type": "address"
        }
      ],
      "name": "transferOwnership",
      "outputs": [],
      "stateMutability": "nonpayable",
      "type": "function"
    },
    {
      "inputs": [],
      "name": "unpause",
      "outputs": [],
      "stateMutability": "nonpayable",
      "type": "function"
    },
    {
      "inputs": [
        {
          "internalType": "address",
          "name": "newImplementation",
          "type": "address"
        }
      ],
      "name": "upgradeTo",
      "outputs": [],
      "stateMutability": "nonpayable",
      "type": "function"
    },
    {
      "inputs": [
        {
          "internalType": "address",
          "name": "newImplementation",
          "type": "address"
        },
        {
          "internalType": "bytes",
          "name": "data",
          "type": "bytes"
        }
      ],
      "name": "upgradeToAndCall",
      "outputs": [],
      "stateMutability": "payable",
      "type": "function"
    },
    {
      "inputs": [],
      "name": "withdraw",
      "outputs": [],
      "stateMutability": "nonpayable",
      "type": "function"
    }
  ],
  "bytecode": "0x60a06040523073ffffffffffffffffffffffffffffffffffffffff1660809073ffffffffffffffffffffffffffffffffffffffff1681525034801561004357600080fd5b506080516138e261007b600039600081816105810152818161060f015281816107c801528181610856015261091801526138e26000f3fe6080604052600436106101665760003560e01c80638456cb59116100d1578063bfb231d21161008a578063e7fb74c711610064578063e7fb74c7146104c6578063f2fde38b146104e2578063fa00afc71461050b578063fe4b84df1461053b57610166565b8063bfb231d21461042e578063c4b1514114610472578063c528183c1461049d57610166565b80638456cb59146103325780638da5cb5b146103495780639df844b914610374578063a001ecdd146103b1578063a7b19424146103dc578063ae06c1b71461040557610166565b8063512dd02011610123578063512dd0201461024657806352d1902d146102715780635c975abb1461029c5780636f9fb98a146102c7578063715018a6146102f257806378abd6ae1461030957610166565b80630888de391461016b578063150b7a02146101965780633659cfe6146101d35780633ccfd60b146101fc5780633f4ba83a146102135780634f1ef2861461022a575b600080fd5b34801561017757600080fd5b50610180610564565b60405161018d919061236a565b60405180910390f35b3480156101a257600080fd5b506101bd60048036038101906101b89190612569565b61056b565b6040516101ca9190612627565b60405180910390f35b3480156101df57600080fd5b506101fa60048036038101906101f59190612642565b61057f565b005b34801561020857600080fd5b50610211610707565b005b34801561021f57600080fd5b506102286107b4565b005b610244600480360381019061023f919061266f565b6107c6565b005b34801561025257600080fd5b5061025b610902565b604051610268919061236a565b60405180910390f35b34801561027d57600080fd5b50610286610914565b60405161029391906126e4565b60405180910390f35b3480156102a857600080fd5b506102b16109cd565b6040516102be919061271a565b60405180910390f35b3480156102d357600080fd5b506102dc6109e5565b6040516102e9919061236a565b60405180910390f35b3480156102fe57600080fd5b506103076109f5565b005b34801561031557600080fd5b50610330600480360381019061032b9190612735565b610a09565b005b34801561033e57600080fd5b50610347610a1c565b005b34801561035557600080fd5b5061035e610a2e565b60405161036b9190612771565b60405180910390f35b34801561038057600080fd5b5061039b60048036038101906103969190612735565b610a58565b6040516103a8919061236a565b60405180910390f35b3480156103bd57600080fd5b506103c6610a7d565b6040516103d3919061236a565b60405180910390f35b3480156103e857600080fd5b5061040360048036038101906103fe919061278c565b610a84565b005b34801561041157600080fd5b5061042c60048036038101906104279190612735565b610c66565b005b34801561043a57600080fd5b5061045560048036038101906104509190612735565b610c79565b604051610469989796959493929190612864565b60405180910390f35b34801561047e57600080fd5b50610487610d2f565b604051610494919061236a565b60405180910390f35b3480156104a957600080fd5b506104c460048036038101906104bf9190612907565b610d41565b005b6104e060048036038101906104db9190612735565b610f45565b005b3480156104ee57600080fd5b5061050960048036038101906105049190612642565b611368565b005b61052560048036038101906105209190612947565b6113eb565b604051610532919061236a565b60405180910390f35b34801561054757600080fd5b50610562600480360381019061055d9190612735565b6117fb565b005b6101625481565b600063150b7a0260e01b9050949350505050565b7f000000000000000000000000000000000000000000000000000000000000000073ffffffffffffffffffffffffffffffffffffffff163073ffffffffffffffffffffffffffffffffffffffff160361060d576040517f08c379a000000000000000000000000000000000000000000000000000000000815260040161060490612a1d565b60405180910390fd5b7f000000000000000000000000000000000000000000000000000000000000000073ffffffffffffffffffffffffffffffffffffffff1661064c611963565b73ffffffffffffffffffffffffffffffffffffffff16146106a2576040517f08c379a000000000000000000000000000000000000000000000000000000000815260040161069990612aaf565b60405180910390fd5b6106ab816119ba565b61070481600067ffffffffffffffff8111156106ca576106c961243e565b5b6040519080825280601f01601f1916602001820160405280156106fc5781602001600182028036833780820191505090505b5060006119c5565b50565b61070f611b33565b600260fb5403610754576040517f08c379a000000000000000000000000000000000000000000000000000000000815260040161074b90612b1b565b60405180910390fd5b600260fb81905550610764610a2e565b73ffffffffffffffffffffffffffffffffffffffff166108fc479081150290604051600060405180830381858888f193505050501580156107a9573d6000803e3d6000fd5b50600160fb81905550565b6107bc611b33565b6107c4611bb1565b565b7f000000000000000000000000000000000000000000000000000000000000000073ffffffffffffffffffffffffffffffffffffffff163073ffffffffffffffffffffffffffffffffffffffff1603610854576040517f08c379a000000000000000000000000000000000000000000000000000000000815260040161084b90612a1d565b60405180910390fd5b7f000000000000000000000000000000000000000000000000000000000000000073ffffffffffffffffffffffffffffffffffffffff16610893611963565b73ffffffffffffffffffffffffffffffffffffffff16146108e9576040517f08c379a00000000000000000000000000000000000000000000000000000000081526004016108e090612aaf565b60405180910390fd5b6108f2826119ba565b6108fe828260016119c5565b5050565b600061090f61015f611c15565b905090565b60007f000000000000000000000000000000000000000000000000000000000000000073ffffffffffffffffffffffffffffffffffffffff163073ffffffffffffffffffffffffffffffffffffffff16146109a4576040517f08c379a000000000000000000000000000000000000000000000000000000000815260040161099b90612bad565b60405180910390fd5b7f360894a13ba1a3210667c828492db98dca3e2076cc3735a920a3ca505d382bbc60001b905090565b600061012d60009054906101000a900460ff16905090565b60006109ef611b33565b47905090565b6109fd611b33565b610a076000611c23565b565b610a11611b33565b806101628190555050565b610a24611b33565b610a2c611ce9565b565b6000609760009054906101000a900473ffffffffffffffffffffffffffffffffffffffff16905090565b60006103e86101625483610a6c9190612bfc565b610a769190612c85565b9050919050565b6101615481565b6000610163600084815260200190815260200160002090503373ffffffffffffffffffffffffffffffffffffffff168160040160009054906101000a900473ffffffffffffffffffffffffffffffffffffffff1673ffffffffffffffffffffffffffffffffffffffff1614610b2e576040517f08c379a0000000000000000000000000000000000000000000000000000000008152600401610b2590612d02565b60405180910390fd5b600280811115610b4157610b406127ed565b5b8160070160009054906101000a900460ff166002811115610b6557610b646127ed565b5b03610ba5576040517f08c379a0000000000000000000000000000000000000000000000000000000008152600401610b9c90612d6e565b60405180910390fd5b60006002811115610bb957610bb86127ed565b5b8160070160009054906101000a900460ff166002811115610bdd57610bdc6127ed565b5b14610c1d576040517f08c379a0000000000000000000000000000000000000000000000000000000008152600401610c1490612dda565b60405180910390fd5b8181600301819055507f6dcfb5ae8812d5ad1c251689041fb4e36cb7183b13472c2ffdc1e1eb42bf4186833384604051610c5993929190612dfa565b60405180910390a1505050565b610c6e611b33565b806101618190555050565b6101636020528060005260406000206000915090508060000154908060010160009054906101000a900473ffffffffffffffffffffffffffffffffffffffff16908060020154908060030154908060040160009054906101000a900473ffffffffffffffffffffffffffffffffffffffff16908060050160009054906101000a900473ffffffffffffffffffffffffffffffffffffffff16908060060154908060070160009054906101000a900460ff16905088565b6000610d3c610160611c15565b905090565b6000610163600084815260200190815260200160002090503373ffffffffffffffffffffffffffffffffffffffff168160040160009054906101000a900473ffffffffffffffffffffffffffffffffffffffff1673ffffffffffffffffffffffffffffffffffffffff1614610deb576040517f08c379a0000000000000000000000000000000000000000000000000000000008152600401610de290612d02565b60405180910390fd5b816002811115610dfe57610dfd6127ed565b5b8160070160009054906101000a900460ff166002811115610e2257610e216127ed565b5b03610e62576040517f08c379a0000000000000000000000000000000000000000000000000000000008152600401610e5990612e7d565b60405180910390fd5b600280811115610e7557610e746127ed565b5b8160070160009054906101000a900460ff166002811115610e9957610e986127ed565b5b03610ed9576040517f08c379a0000000000000000000000000000000000000000000000000000000008152600401610ed090612d6e565b60405180910390fd5b818160070160006101000a81548160ff02191690836002811115610f0057610eff6127ed565b5b02179055507fc1e3195802cae45d0816192af3f9b877c549a8ff1b446fc13048021fd1f933b8833384604051610f3893929190612e9d565b60405180910390a1505050565b610f4d611d4d565b600260fb5403610f92576040517f08c379a0000000000000000000000000000000000000000000000000000000008152600401610f8990612b1b565b60405180910390fd5b600260fb81905550600061016360008381526020019081526020016000209050600082118015610fcc5750610fc861015f611c15565b8211155b61100b576040517f08c379a000000000000000000000000000000000000000000000000000000000815260040161100290612f20565b60405180910390fd5b8060030154341015611052576040517f08c379a000000000000000000000000000000000000000000000000000000000815260040161104990612fb2565b60405180910390fd5b60016002811115611066576110656127ed565b5b8160070160009054906101000a900460ff16600281111561108a576110896127ed565b5b146110ca576040517f08c379a00000000000000000000000000000000000000000000000000000000081526004016110c190612dda565b60405180910390fd5b6000806110db848460060154611d97565b915091508260050160009054906101000a900473ffffffffffffffffffffffffffffffffffffffff1673ffffffffffffffffffffffffffffffffffffffff166108fc829081150290604051600060405180830381858888f19350505050158015611149573d6000803e3d6000fd5b508260040160009054906101000a900473ffffffffffffffffffffffffffffffffffffffff1673ffffffffffffffffffffffffffffffffffffffff166108fc839081150290604051600060405180830381858888f193505050501580156111b4573d6000803e3d6000fd5b5060028360070160006101000a81548160ff021916908360028111156111dd576111dc6127ed565b5b02179055506111ed610160611e12565b3373ffffffffffffffffffffffffffffffffffffffff168360040160009054906101000a900473ffffffffffffffffffffffffffffffffffffffff1673ffffffffffffffffffffffffffffffffffffffff168460010160009054906101000a900473ffffffffffffffffffffffffffffffffffffffff1673ffffffffffffffffffffffffffffffffffffffff167f179738be873fb5cb1076ebdeba2cd8886e3a9cf77d66790f0367dd0f6941448487876002015488600301546040516112b593929190612fd2565b60405180910390a460008360010160009054906101000a900473ffffffffffffffffffffffffffffffffffffffff1690508073ffffffffffffffffffffffffffffffffffffffff166342842e0e303387600201546040518463ffffffff1660e01b815260040161132793929190613009565b600060405180830381600087803b15801561134157600080fd5b505af1158015611355573d6000803e3d6000fd5b5050505050505050600160fb8190555050565b611370611b33565b600073ffffffffffffffffffffffffffffffffffffffff168173ffffffffffffffffffffffffffffffffffffffff16036113df576040517f08c379a00000000000000000000000000000000000000000000000000000000081526004016113d6906130b2565b60405180910390fd5b6113e881611c23565b50565b60006113f5611d4d565b600260fb540361143a576040517f08c379a000000000000000000000000000000000000000000000000000000000815260040161143190612b1b565b60405180910390fd5b600260fb81905550600061144d83610a58565b905034811115611492576040517f08c379a00000000000000000000000000000000000000000000000000000000081526004016114899061311e565b60405180910390fd5b61149d61015f611e12565b60006114aa61015f611c15565b90506000808773ffffffffffffffffffffffffffffffffffffffff1663b561f03e886040518263ffffffff1660e01b81526004016114e8919061236a565b60408051808303816000875af1158015611506573d6000803e3d6000fd5b505050506040513d601f19601f8201168201806040525081019061152a9190613168565b915091506040518061010001604052808481526020018973ffffffffffffffffffffffffffffffffffffffff1681526020018881526020018781526020013373ffffffffffffffffffffffffffffffffffffffff1681526020018373ffffffffffffffffffffffffffffffffffffffff168152602001828152602001600160028111156115ba576115b96127ed565b5b81525061016360008581526020019081526020016000206000820151816000015560208201518160010160006101000a81548173ffffffffffffffffffffffffffffffffffffffff021916908373ffffffffffffffffffffffffffffffffffffffff160217905550604082015181600201556060820151816003015560808201518160040160006101000a81548173ffffffffffffffffffffffffffffffffffffffff021916908373ffffffffffffffffffffffffffffffffffffffff16021790555060a08201518160050160006101000a81548173ffffffffffffffffffffffffffffffffffffffff021916908373ffffffffffffffffffffffffffffffffffffffff16021790555060c0820151816006015560e08201518160070160006101000a81548160ff021916908360028111156116f9576116f86127ed565b5b02179055509050503373ffffffffffffffffffffffffffffffffffffffff168873ffffffffffffffffffffffffffffffffffffffff167fd87a6fff1d9137a29fab37cfdaf8519abc902ca48438125a02baf96a5d52307f858a8a8760405161176494939291906131a8565b60405180910390a38773ffffffffffffffffffffffffffffffffffffffff166342842e0e33308a6040518463ffffffff1660e01b81526004016117a993929190613009565b600060405180830381600087803b1580156117c357600080fd5b505af11580156117d7573d6000803e3d6000fd5b505050506117e661015f611c15565b945050505050600160fb819055509392505050565b60008060019054906101000a900460ff1615905080801561182c5750600160008054906101000a900460ff1660ff16105b80611859575061183b30611e28565b1580156118585750600160008054906101000a900460ff1660ff16145b5b611898576040517f08c379a000000000000000000000000000000000000000000000000000000000815260040161188f9061325f565b60405180910390fd5b60016000806101000a81548160ff021916908360ff16021790555080156118d5576001600060016101000a81548160ff0219169083151502179055505b6118dd611e4b565b6118e5611e9c565b6118ed611ef5565b6118f5611f4e565b8161016181905550600061016281905550801561195f5760008060016101000a81548160ff0219169083151502179055507f7f26b83ff96e1f2b6a682f133852f6798a09c465da95921460cefb3847402498600160405161195691906132d1565b60405180910390a15b5050565b60006119917f360894a13ba1a3210667c828492db98dca3e2076cc3735a920a3ca505d382bbc60001b611f9f565b60000160009054906101000a900473ffffffffffffffffffffffffffffffffffffffff16905090565b6119c2611b33565b50565b6119f17f4910fdfa16fed3260ed0e7147f7cc6da11a60208b5b9406d12a635614ffd914360001b611fa9565b60000160009054906101000a900460ff1615611a1557611a1083611fb3565b611b2e565b8273ffffffffffffffffffffffffffffffffffffffff166352d1902d6040518163ffffffff1660e01b8152600401602060405180830381865afa925050508015611a7d57506040513d601f19601f82011682018060405250810190611a7a9190613318565b60015b611abc576040517f08c379a0000000000000000000000000000000000000000000000000000000008152600401611ab3906133b7565b60405180910390fd5b7f360894a13ba1a3210667c828492db98dca3e2076cc3735a920a3ca505d382bbc60001b8114611b21576040517f08c379a0000000000000000000000000000000000000000000000000000000008152600401611b1890613449565b60405180910390fd5b50611b2d83838361206c565b5b505050565b611b3b612098565b73ffffffffffffffffffffffffffffffffffffffff16611b59610a2e565b73ffffffffffffffffffffffffffffffffffffffff1614611baf576040517f08c379a0000000000000000000000000000000000000000000000000000000008152600401611ba6906134b5565b60405180910390fd5b565b611bb96120a0565b600061012d60006101000a81548160ff0219169083151502179055507f5db9ee0a495bf2e6ff9c91a7834c1ba4fdd244a5e8aa4e537bd38aeae4b073aa611bfe612098565b604051611c0b9190612771565b60405180910390a1565b600081600001549050919050565b6000609760009054906101000a900473ffffffffffffffffffffffffffffffffffffffff16905081609760006101000a81548173ffffffffffffffffffffffffffffffffffffffff021916908373ffffffffffffffffffffffffffffffffffffffff1602179055508173ffffffffffffffffffffffffffffffffffffffff168173ffffffffffffffffffffffffffffffffffffffff167f8be0079c531659141344cd1fd0a4f28419497f9722a3daafe3b4186f6b6457e060405160405180910390a35050565b611cf1611d4d565b600161012d60006101000a81548160ff0219169083151502179055507f62e78cea01bee320cd4e420270b5ea74000d11b0c9f74754ebdbfc544b05a258611d36612098565b604051611d439190612771565b60405180910390a1565b611d556109cd565b15611d95576040517f08c379a0000000000000000000000000000000000000000000000000000000008152600401611d8c90613521565b60405180910390fd5b565b60008060008061016360008781526020019081526020016000206003015490506103e88582611dc69190612bfc565b611dd09190612c85565b92506103e86101615482611de49190612bfc565b611dee9190612c85565b9150828282611dfd9190613541565b611e079190613541565b935050509250929050565b6001816000016000828254019250508190555050565b6000808273ffffffffffffffffffffffffffffffffffffffff163b119050919050565b600060019054906101000a900460ff16611e9a576040517f08c379a0000000000000000000000000000000000000000000000000000000008152600401611e91906135e7565b60405180910390fd5b565b600060019054906101000a900460ff16611eeb576040517f08c379a0000000000000000000000000000000000000000000000000000000008152600401611ee2906135e7565b60405180910390fd5b611ef36120e9565b565b600060019054906101000a900460ff16611f44576040517f08c379a0000000000000000000000000000000000000000000000000000000008152600401611f3b906135e7565b60405180910390fd5b611f4c61214a565b565b600060019054906101000a900460ff16611f9d576040517f08c379a0000000000000000000000000000000000000000000000000000000008152600401611f94906135e7565b60405180910390fd5b565b6000819050919050565b6000819050919050565b611fbc81611e28565b611ffb576040517f08c379a0000000000000000000000000000000000000000000000000000000008152600401611ff290613679565b60405180910390fd5b806120287f360894a13ba1a3210667c828492db98dca3e2076cc3735a920a3ca505d382bbc60001b611f9f565b60000160006101000a81548173ffffffffffffffffffffffffffffffffffffffff021916908373ffffffffffffffffffffffffffffffffffffffff16021790555050565b612075836121b7565b6000825111806120825750805b15612093576120918383612206565b505b505050565b600033905090565b6120a86109cd565b6120e7576040517f08c379a00000000000000000000000000000000000000000000000000000000081526004016120de906136e5565b60405180910390fd5b565b600060019054906101000a900460ff16612138576040517f08c379a000000000000000000000000000000000000000000000000000000000815260040161212f906135e7565b60405180910390fd5b612148612143612098565b611c23565b565b600060019054906101000a900460ff16612199576040517f08c379a0000000000000000000000000000000000000000000000000000000008152600401612190906135e7565b60405180910390fd5b600061012d60006101000a81548160ff021916908315150217905550565b6121c081611fb3565b8073ffffffffffffffffffffffffffffffffffffffff167fbc7cd75a20ee27fd9adebab32041f755214dbc6bffa90cc0225b39da2e5c2d3b60405160405180910390a250565b606061221183611e28565b612250576040517f08c379a000000000000000000000000000000000000000000000000000000000815260040161224790613777565b60405180910390fd5b6000808473ffffffffffffffffffffffffffffffffffffffff16846040516122789190613808565b600060405180830381855af49150503d80600081146122b3576040519150601f19603f3d011682016040523d82523d6000602084013e6122b8565b606091505b50915091506122e08282604051806060016040528060278152602001613886602791396122ea565b9250505092915050565b606083156122fa5782905061234a565b60008351111561230d5782518084602001fd5b816040517f08c379a00000000000000000000000000000000000000000000000000000000081526004016123419190613863565b60405180910390fd5b9392505050565b6000819050919050565b61236481612351565b82525050565b600060208201905061237f600083018461235b565b92915050565b6000604051905090565b600080fd5b600080fd5b600073ffffffffffffffffffffffffffffffffffffffff82169050919050565b60006123c482612399565b9050919050565b6123d4816123b9565b81146123df57600080fd5b50565b6000813590506123f1816123cb565b92915050565b61240081612351565b811461240b57600080fd5b50565b60008135905061241d816123f7565b92915050565b600080fd5b600080fd5b6000601f19601f8301169050919050565b7f4e487b7100000000000000000000000000000000000000000000000000000000600052604160045260246000fd5b6124768261242d565b810181811067ffffffffffffffff821117156124955761249461243e565b5b80604052505050565b60006124a8612385565b90506124b4828261246d565b919050565b600067ffffffffffffffff8211156124d4576124d361243e565b5b6124dd8261242d565b9050602081019050919050565b82818337600083830152505050565b600061250c612507846124b9565b61249e565b90508281526020810184848401111561252857612527612428565b5b6125338482856124ea565b509392505050565b600082601f8301126125505761254f612423565b5b81356125608482602086016124f9565b91505092915050565b600080600080608085870312156125835761258261238f565b5b6000612591878288016123e2565b94505060206125a2878288016123e2565b93505060406125b38782880161240e565b925050606085013567ffffffffffffffff8111156125d4576125d3612394565b5b6125e08782880161253b565b91505092959194509250565b60007fffffffff0000000000000000000000000000000000000000000000000000000082169050919050565b612621816125ec565b82525050565b600060208201905061263c6000830184612618565b92915050565b6000602082840312156126585761265761238f565b5b6000612666848285016123e2565b91505092915050565b600080604083850312156126865761268561238f565b5b6000612694858286016123e2565b925050602083013567ffffffffffffffff8111156126b5576126b4612394565b5b6126c18582860161253b565b9150509250929050565b6000819050919050565b6126de816126cb565b82525050565b60006020820190506126f960008301846126d5565b92915050565b60008115159050919050565b612714816126ff565b82525050565b600060208201905061272f600083018461270b565b92915050565b60006020828403121561274b5761274a61238f565b5b60006127598482850161240e565b91505092915050565b61276b816123b9565b82525050565b60006020820190506127866000830184612762565b92915050565b600080604083850312156127a3576127a261238f565b5b60006127b18582860161240e565b92505060206127c28582860161240e565b9150509250929050565b60006127d782612399565b9050919050565b6127e7816127cc565b82525050565b7f4e487b7100000000000000000000000000000000000000000000000000000000600052602160045260246000fd5b6003811061282d5761282c6127ed565b5b50565b600081905061283e8261281c565b919050565b600061284e82612830565b9050919050565b61285e81612843565b82525050565b60006101008201905061287a600083018b61235b565b612887602083018a612762565b612894604083018961235b565b6128a1606083018861235b565b6128ae60808301876127de565b6128bb60a08301866127de565b6128c860c083018561235b565b6128d560e0830184612855565b9998505050505050505050565b600381106128ef57600080fd5b50565b600081359050612901816128e2565b92915050565b6000806040838503121561291e5761291d61238f565b5b600061292c8582860161240e565b925050602061293d858286016128f2565b9150509250929050565b6000806000606084860312156129605761295f61238f565b5b600061296e868287016123e2565b935050602061297f8682870161240e565b92505060406129908682870161240e565b9150509250925092565b600082825260208201905092915050565b7f46756e6374696f6e206d7573742062652063616c6c6564207468726f7567682060008201527f64656c656761746563616c6c0000000000000000000000000000000000000000602082015250565b6000612a07602c8361299a565b9150612a12826129ab565b604082019050919050565b60006020820190508181036000830152612a36816129fa565b9050919050565b7f46756e6374696f6e206d7573742062652063616c6c6564207468726f7567682060008201527f6163746976652070726f78790000000000000000000000000000000000000000602082015250565b6000612a99602c8361299a565b9150612aa482612a3d565b604082019050919050565b60006020820190508181036000830152612ac881612a8c565b9050919050565b7f5265656e7472616e637947756172643a207265656e7472616e742063616c6c00600082015250565b6000612b05601f8361299a565b9150612b1082612acf565b602082019050919050565b60006020820190508181036000830152612b3481612af8565b9050919050565b7f555550535570677261646561626c653a206d757374206e6f742062652063616c60008201527f6c6564207468726f7567682064656c656761746563616c6c0000000000000000602082015250565b6000612b9760388361299a565b9150612ba282612b3b565b604082019050919050565b60006020820190508181036000830152612bc681612b8a565b9050919050565b7f4e487b7100000000000000000000000000000000000000000000000000000000600052601160045260246000fd5b6000612c0782612351565b9150612c1283612351565b9250817fffffffffffffffffffffffffffffffffffffffffffffffffffffffffffffffff0483118215151615612c4b57612c4a612bcd565b5b828202905092915050565b7f4e487b7100000000000000000000000000000000000000000000000000000000600052601260045260246000fd5b6000612c9082612351565b9150612c9b83612351565b925082612cab57612caa612c56565b5b828204905092915050565b7f6f6e6c792073656c6c65722063616e206368616e676520737461747573210000600082015250565b6000612cec601e8361299a565b9150612cf782612cb6565b602082019050919050565b60006020820190508181036000830152612d1b81612cdf565b9050919050565b7f6974656d20616c726561647920736f6c64210000000000000000000000000000600082015250565b6000612d5860128361299a565b9150612d6382612d22565b602082019050919050565b60006020820190508181036000830152612d8781612d4b565b9050919050565b7f6974656d2073686f756c64206265206c69737465640000000000000000000000600082015250565b6000612dc460158361299a565b9150612dcf82612d8e565b602082019050919050565b60006020820190508181036000830152612df381612db7565b9050919050565b6000606082019050612e0f600083018661235b565b612e1c6020830185612762565b612e29604083018461235b565b949350505050565b7f7374617475732073686f756c64206265206e6577210000000000000000000000600082015250565b6000612e6760158361299a565b9150612e7282612e31565b602082019050919050565b60006020820190508181036000830152612e9681612e5a565b9050919050565b6000606082019050612eb2600083018661235b565b612ebf6020830185612762565b612ecc6040830184612855565b949350505050565b7f6974656d20646f6573206e6f7420657869737400000000000000000000000000600082015250565b6000612f0a60138361299a565b9150612f1582612ed4565b602082019050919050565b60006020820190508181036000830152612f3981612efd565b9050919050565b7f6e6f7420656e6f75676820657468657220746f20636f766572206974656d207060008201527f7269636520616e64206d61726b65742066656500000000000000000000000000602082015250565b6000612f9c60338361299a565b9150612fa782612f40565b604082019050919050565b60006020820190508181036000830152612fcb81612f8f565b9050919050565b6000606082019050612fe7600083018661235b565b612ff4602083018561235b565b613001604083018461235b565b949350505050565b600060608201905061301e6000830186612762565b61302b6020830185612762565b613038604083018461235b565b949350505050565b7f4f776e61626c653a206e6577206f776e657220697320746865207a65726f206160008201527f6464726573730000000000000000000000000000000000000000000000000000602082015250565b600061309c60268361299a565b91506130a782613040565b604082019050919050565b600060208201905081810360008301526130cb8161308f565b9050919050565b7f53686f756c6420706179206c697374696e672066656573210000000000000000600082015250565b600061310860188361299a565b9150613113826130d2565b602082019050919050565b60006020820190508181036000830152613137816130fb565b9050919050565b60008151905061314d816123cb565b92915050565b600081519050613162816123f7565b92915050565b6000806040838503121561317f5761317e61238f565b5b600061318d8582860161313e565b925050602061319e85828601613153565b9150509250929050565b60006080820190506131bd600083018761235b565b6131ca602083018661235b565b6131d7604083018561235b565b6131e46060830184612762565b95945050505050565b7f496e697469616c697a61626c653a20636f6e747261637420697320616c72656160008201527f647920696e697469616c697a6564000000000000000000000000000000000000602082015250565b6000613249602e8361299a565b9150613254826131ed565b604082019050919050565b600060208201905081810360008301526132788161323c565b9050919050565b6000819050919050565b600060ff82169050919050565b6000819050919050565b60006132bb6132b66132b18461327f565b613296565b613289565b9050919050565b6132cb816132a0565b82525050565b60006020820190506132e660008301846132c2565b92915050565b6132f5816126cb565b811461330057600080fd5b50565b600081519050613312816132ec565b92915050565b60006020828403121561332e5761332d61238f565b5b600061333c84828501613303565b91505092915050565b7f45524331393637557067726164653a206e657720696d706c656d656e7461746960008201527f6f6e206973206e6f742055555053000000000000000000000000000000000000602082015250565b60006133a1602e8361299a565b91506133ac82613345565b604082019050919050565b600060208201905081810360008301526133d081613394565b9050919050565b7f45524331393637557067726164653a20756e737570706f727465642070726f7860008201527f6961626c65555549440000000000000000000000000000000000000000000000602082015250565b600061343360298361299a565b915061343e826133d7565b604082019050919050565b6000602082019050818103600083015261346281613426565b9050919050565b7f4f776e61626c653a2063616c6c6572206973206e6f7420746865206f776e6572600082015250565b600061349f60208361299a565b91506134aa82613469565b602082019050919050565b600060208201905081810360008301526134ce81613492565b9050919050565b7f5061757361626c653a2070617573656400000000000000000000000000000000600082015250565b600061350b60108361299a565b9150613516826134d5565b602082019050919050565b6000602082019050818103600083015261353a816134fe565b9050919050565b600061354c82612351565b915061355783612351565b925082820390508181111561356f5761356e612bcd565b5b92915050565b7f496e697469616c697a61626c653a20636f6e7472616374206973206e6f74206960008201527f6e697469616c697a696e67000000000000000000000000000000000000000000602082015250565b60006135d1602b8361299a565b91506135dc82613575565b604082019050919050565b60006020820190508181036000830152613600816135c4565b9050919050565b7f455243313936373a206e657720696d706c656d656e746174696f6e206973206e60008201527f6f74206120636f6e747261637400000000000000000000000000000000000000602082015250565b6000613663602d8361299a565b915061366e82613607565b604082019050919050565b6000602082019050818103600083015261369281613656565b9050919050565b7f5061757361626c653a206e6f7420706175736564000000000000000000000000600082015250565b60006136cf60148361299a565b91506136da82613699565b602082019050919050565b600060208201905081810360008301526136fe816136c2565b9050919050565b7f416464726573733a2064656c65676174652063616c6c20746f206e6f6e2d636f60008201527f6e74726163740000000000000000000000000000000000000000000000000000602082015250565b600061376160268361299a565b915061376c82613705565b604082019050919050565b6000602082019050818103600083015261379081613754565b9050919050565b600081519050919050565b600081905092915050565b60005b838110156137cb5780820151818401526020810190506137b0565b60008484015250505050565b60006137e282613797565b6137ec81856137a2565b93506137fc8185602086016137ad565b80840191505092915050565b600061381482846137d7565b915081905092915050565b600081519050919050565b60006138358261381f565b61383f818561299a565b935061384f8185602086016137ad565b6138588161242d565b840191505092915050565b6000602082019050818103600083015261387d818461382a565b90509291505056fe416464726573733a206c6f772d6c6576656c2064656c65676174652063616c6c206661696c6564a264697066735822122037ba334967f2ae3482a20ed02f4656384803b816c6cd1b5195ea08d1ba4f575564736f6c63430008100033",
  "linkReferences": {},
  "deployedLinkReferences": {}
}