{
  "_format": "hh-sol-artifact-1",
  "contractName": "Marketplace",
  "sourceName": "contracts/Marketplace.sol",
  "abi": [
    {
      "anonymous": false,
      "inputs": [
        {
          "indexed": false,
          "internalType": "address",
          "name": "previousAdmin",
          "type": "address"
        },
        {
          "indexed": false,
          "internalType": "address",
          "name": "newAdmin",
          "type": "address"
        }
      ],
      "name": "AdminChanged",
      "type": "event"
    },
    {
      "anonymous": false,
      "inputs": [
        {
          "indexed": true,
          "internalType": "address",
          "name": "beacon",
          "type": "address"
        }
      ],
      "name": "BeaconUpgraded",
      "type": "event"
    },
    {
      "anonymous": false,
      "inputs": [
        {
          "indexed": false,
          "internalType": "uint8",
          "name": "version",
          "type": "uint8"
        }
      ],
      "name": "Initialized",
      "type": "event"
    },
    {
      "anonymous": false,
      "inputs": [
        {
          "indexed": false,
          "internalType": "uint256",
          "name": "_itemId",
          "type": "uint256"
        },
        {
          "indexed": true,
          "internalType": "address",
          "name": "_nft",
          "type": "address"
        },
        {
          "indexed": false,
          "internalType": "uint256",
          "name": "_tokenId",
          "type": "uint256"
        },
        {
          "indexed": false,
          "internalType": "uint256",
          "name": "_price",
          "type": "uint256"
        },
        {
          "indexed": true,
          "internalType": "address",
          "name": "_seller",
          "type": "address"
        },
        {
          "indexed": true,
          "internalType": "address",
          "name": "_buyer",
          "type": "address"
        }
      ],
      "name": "LogBuyItem",
      "type": "event"
    },
    {
      "anonymous": false,
      "inputs": [
        {
          "indexed": false,
          "internalType": "uint256",
          "name": "_itemId",
          "type": "uint256"
        },
        {
          "indexed": false,
          "internalType": "address",
          "name": "_sender",
          "type": "address"
        },
        {
          "indexed": false,
          "internalType": "uint256",
          "name": "_newPrice",
          "type": "uint256"
        }
      ],
      "name": "LogChangePrice",
      "type": "event"
    },
    {
      "anonymous": false,
      "inputs": [
        {
          "indexed": false,
          "internalType": "uint256",
          "name": "_itemID",
          "type": "uint256"
        },
        {
          "indexed": false,
          "internalType": "address",
          "name": "_seller",
          "type": "address"
        },
        {
          "indexed": false,
          "internalType": "enum Marketplace.item_status",
          "name": "_newStatus",
          "type": "uint8"
        }
      ],
      "name": "LogChangeStatus",
      "type": "event"
    },
    {
      "anonymous": false,
      "inputs": [
        {
          "indexed": false,
          "internalType": "uint256",
          "name": "_itemId",
          "type": "uint256"
        },
        {
          "indexed": true,
          "internalType": "address",
          "name": "_nft",
          "type": "address"
        },
        {
          "indexed": false,
          "internalType": "uint256",
          "name": "_tokenId",
          "type": "uint256"
        },
        {
          "indexed": false,
          "internalType": "uint256",
          "name": "_price",
          "type": "uint256"
        },
        {
          "indexed": true,
          "internalType": "address",
          "name": "_seller",
          "type": "address"
        },
        {
          "indexed": false,
          "internalType": "address",
          "name": "_creator",
          "type": "address"
        }
      ],
      "name": "LogCreateItem",
      "type": "event"
    },
    {
      "anonymous": false,
      "inputs": [
        {
          "indexed": false,
          "internalType": "uint256",
          "name": "_feePercentage",
          "type": "uint256"
        }
      ],
      "name": "LogSetFeePercentage",
      "type": "event"
    },
    {
      "anonymous": false,
      "inputs": [
        {
          "indexed": false,
          "internalType": "uint256",
          "name": "_listingFeePercentage",
          "type": "uint256"
        }
      ],
      "name": "LogSettListingFeesPercentage",
      "type": "event"
    },
    {
      "anonymous": false,
      "inputs": [
        {
          "indexed": true,
          "internalType": "address",
          "name": "previousOwner",
          "type": "address"
        },
        {
          "indexed": true,
          "internalType": "address",
          "name": "newOwner",
          "type": "address"
        }
      ],
      "name": "OwnershipTransferred",
      "type": "event"
    },
    {
      "anonymous": false,
      "inputs": [
        {
          "indexed": false,
          "internalType": "address",
          "name": "account",
          "type": "address"
        }
      ],
      "name": "Paused",
      "type": "event"
    },
    {
      "anonymous": false,
      "inputs": [
        {
          "indexed": false,
          "internalType": "address",
          "name": "account",
          "type": "address"
        }
      ],
      "name": "Unpaused",
      "type": "event"
    },
    {
      "anonymous": false,
      "inputs": [
        {
          "indexed": true,
          "internalType": "address",
          "name": "implementation",
          "type": "address"
        }
      ],
      "name": "Upgraded",
      "type": "event"
    },
    {
      "inputs": [
        {
          "internalType": "uint256",
          "name": "_itemId",
          "type": "uint256"
        }
      ],
      "name": "buyItem",
      "outputs": [],
      "stateMutability": "payable",
      "type": "function"
    },
    {
      "inputs": [
        {
          "internalType": "uint256",
          "name": "_itemId",
          "type": "uint256"
        },
        {
          "internalType": "enum Marketplace.item_status",
          "name": "_newStatus",
          "type": "uint8"
        }
      ],
      "name": "changeItemStatus",
      "outputs": [
        {
          "internalType": "bool",
          "name": "",
          "type": "bool"
        }
      ],
      "stateMutability": "nonpayable",
      "type": "function"
    },
    {
      "inputs": [],
      "name": "feePercentage",
      "outputs": [
        {
          "internalType": "uint256",
          "name": "",
          "type": "uint256"
        }
      ],
      "stateMutability": "view",
      "type": "function"
    },
    {
      "inputs": [],
      "name": "getContractBalance",
      "outputs": [
        {
          "internalType": "uint256",
          "name": "",
          "type": "uint256"
        }
      ],
      "stateMutability": "view",
      "type": "function"
    },
    {
      "inputs": [],
      "name": "getItemsCount",
      "outputs": [
        {
          "internalType": "uint256",
          "name": "",
          "type": "uint256"
        }
      ],
      "stateMutability": "view",
      "type": "function"
    },
    {
      "inputs": [],
      "name": "getItemsSold",
      "outputs": [
        {
          "internalType": "uint256",
          "name": "",
          "type": "uint256"
        }
      ],
      "stateMutability": "view",
      "type": "function"
    },
    {
      "inputs": [
        {
          "internalType": "uint256",
          "name": "_itemId",
          "type": "uint256"
        },
        {
          "internalType": "uint256",
          "name": "_newPrice",
          "type": "uint256"
        }
      ],
      "name": "getListedAgain",
      "outputs": [],
      "stateMutability": "nonpayable",
      "type": "function"
    },
    {
      "inputs": [
        {
          "internalType": "uint256",
          "name": "_price",
          "type": "uint256"
        }
      ],
      "name": "getListingFees",
      "outputs": [
        {
          "internalType": "uint256",
          "name": "",
          "type": "uint256"
        }
      ],
      "stateMutability": "view",
      "type": "function"
    },
    {
      "inputs": [
        {
          "internalType": "uint256",
          "name": "_feePercentage",
          "type": "uint256"
        }
      ],
      "name": "initialize",
      "outputs": [],
      "stateMutability": "nonpayable",
      "type": "function"
    },
    {
      "inputs": [
        {
          "internalType": "uint256",
          "name": "",
          "type": "uint256"
        }
      ],
      "name": "items",
      "outputs": [
        {
          "internalType": "uint256",
          "name": "itemId",
          "type": "uint256"
        },
        {
          "internalType": "address",
          "name": "nftAddress",
          "type": "address"
        },
        {
          "internalType": "uint256",
          "name": "tokenId",
          "type": "uint256"
        },
        {
          "internalType": "uint256",
          "name": "price",
          "type": "uint256"
        },
        {
          "internalType": "address payable",
          "name": "seller",
          "type": "address"
        },
        {
          "internalType": "address payable",
          "name": "creator",
          "type": "address"
        },
        {
          "internalType": "uint256",
          "name": "creatorRoyalties",
          "type": "uint256"
        },
        {
          "internalType": "enum Marketplace.item_status",
          "name": "status",
          "type": "uint8"
        }
      ],
      "stateMutability": "view",
      "type": "function"
    },
    {
      "inputs": [],
      "name": "listingFeePercentage",
      "outputs": [
        {
          "internalType": "uint256",
          "name": "",
          "type": "uint256"
        }
      ],
      "stateMutability": "view",
      "type": "function"
    },
    {
      "inputs": [
        {
          "internalType": "address",
          "name": "_nft",
          "type": "address"
        },
        {
          "internalType": "uint256",
          "name": "_tokenId",
          "type": "uint256"
        },
        {
          "internalType": "uint256",
          "name": "_price",
          "type": "uint256"
        }
      ],
      "name": "makeItem",
      "outputs": [
        {
          "internalType": "uint256",
          "name": "",
          "type": "uint256"
        }
      ],
      "stateMutability": "payable",
      "type": "function"
    },
    {
      "inputs": [
        {
          "internalType": "address",
          "name": "",
          "type": "address"
        },
        {
          "internalType": "address",
          "name": "",
          "type": "address"
        },
        {
          "internalType": "uint256",
          "name": "",
          "type": "uint256"
        },
        {
          "internalType": "bytes",
          "name": "",
          "type": "bytes"
        }
      ],
      "name": "onERC721Received",
      "outputs": [
        {
          "internalType": "bytes4",
          "name": "",
          "type": "bytes4"
        }
      ],
      "stateMutability": "nonpayable",
      "type": "function"
    },
    {
      "inputs": [],
      "name": "owner",
      "outputs": [
        {
          "internalType": "address",
          "name": "",
          "type": "address"
        }
      ],
      "stateMutability": "view",
      "type": "function"
    },
    {
      "inputs": [],
      "name": "pause",
      "outputs": [],
      "stateMutability": "nonpayable",
      "type": "function"
    },
    {
      "inputs": [],
      "name": "paused",
      "outputs": [
        {
          "internalType": "bool",
          "name": "",
          "type": "bool"
        }
      ],
      "stateMutability": "view",
      "type": "function"
    },
    {
      "inputs": [],
      "name": "proxiableUUID",
      "outputs": [
        {
          "internalType": "bytes32",
          "name": "",
          "type": "bytes32"
        }
      ],
      "stateMutability": "view",
      "type": "function"
    },
    {
      "inputs": [],
      "name": "renounceOwnership",
      "outputs": [],
      "stateMutability": "nonpayable",
      "type": "function"
    },
    {
      "inputs": [
        {
          "internalType": "uint256",
          "name": "_feePercentage",
          "type": "uint256"
        }
      ],
      "name": "setFeePercentage",
      "outputs": [],
      "stateMutability": "nonpayable",
      "type": "function"
    },
    {
      "inputs": [
        {
          "internalType": "uint256",
          "name": "_listingFeePercentage",
          "type": "uint256"
        }
      ],
      "name": "setListingFeesPercentage",
      "outputs": [],
      "stateMutability": "nonpayable",
      "type": "function"
    },
    {
      "inputs": [
        {
          "internalType": "address",
          "name": "newOwner",
          "type": "address"
        }
      ],
      "name": "transferOwnership",
      "outputs": [],
      "stateMutability": "nonpayable",
      "type": "function"
    },
    {
      "inputs": [],
      "name": "unpause",
      "outputs": [],
      "stateMutability": "nonpayable",
      "type": "function"
    },
    {
      "inputs": [
        {
          "internalType": "address",
          "name": "newImplementation",
          "type": "address"
        }
      ],
      "name": "upgradeTo",
      "outputs": [],
      "stateMutability": "nonpayable",
      "type": "function"
    },
    {
      "inputs": [
        {
          "internalType": "address",
          "name": "newImplementation",
          "type": "address"
        },
        {
          "internalType": "bytes",
          "name": "data",
          "type": "bytes"
        }
      ],
      "name": "upgradeToAndCall",
      "outputs": [],
      "stateMutability": "payable",
      "type": "function"
    },
    {
      "inputs": [],
      "name": "withdraw",
      "outputs": [],
      "stateMutability": "nonpayable",
      "type": "function"
    }
  ],
  "bytecode": "0x60a06040523073ffffffffffffffffffffffffffffffffffffffff1660809073ffffffffffffffffffffffffffffffffffffffff1681525034801561004357600080fd5b50608051613fc361007b6000396000818161059501528181610623015281816107df0152818161086d015261092f0152613fc36000f3fe6080604052600436106101665760003560e01c80638456cb59116100d1578063c4b151411161008a578063e7fb74c711610064578063e7fb74c7146104da578063f2fde38b146104f6578063fa00afc71461051f578063fe4b84df1461054f57610166565b8063c4b1514114610449578063c528183c14610474578063e75e0ba7146104b157610166565b80638456cb59146103325780638da5cb5b146103495780639df844b914610374578063a001ecdd146103b1578063ae06c1b7146103dc578063bfb231d21461040557610166565b8063512dd02011610123578063512dd0201461024657806352d1902d146102715780635c975abb1461029c5780636f9fb98a146102c7578063715018a6146102f257806378abd6ae1461030957610166565b80630888de391461016b578063150b7a02146101965780633659cfe6146101d35780633ccfd60b146101fc5780633f4ba83a146102135780634f1ef2861461022a575b600080fd5b34801561017757600080fd5b50610180610578565b60405161018d91906126ba565b60405180910390f35b3480156101a257600080fd5b506101bd60048036038101906101b891906128b9565b61057f565b6040516101ca9190612977565b60405180910390f35b3480156101df57600080fd5b506101fa60048036038101906101f59190612992565b610593565b005b34801561020857600080fd5b5061021161071b565b005b34801561021f57600080fd5b506102286107cb565b005b610244600480360381019061023f91906129bf565b6107dd565b005b34801561025257600080fd5b5061025b610919565b60405161026891906126ba565b60405180910390f35b34801561027d57600080fd5b5061028661092b565b6040516102939190612a34565b60405180910390f35b3480156102a857600080fd5b506102b16109e4565b6040516102be9190612a6a565b60405180910390f35b3480156102d357600080fd5b506102dc6109fb565b6040516102e991906126ba565b60405180910390f35b3480156102fe57600080fd5b50610307610a0b565b005b34801561031557600080fd5b50610330600480360381019061032b9190612a85565b610a1f565b005b34801561033e57600080fd5b50610347610a69565b005b34801561035557600080fd5b5061035e610a7b565b60405161036b9190612ac1565b60405180910390f35b34801561038057600080fd5b5061039b60048036038101906103969190612a85565b610aa5565b6040516103a891906126ba565b60405180910390f35b3480156103bd57600080fd5b506103c6610aca565b6040516103d391906126ba565b60405180910390f35b3480156103e857600080fd5b5061040360048036038101906103fe9190612a85565b610ad1565b005b34801561041157600080fd5b5061042c60048036038101906104279190612a85565b610b1b565b604051610440989796959493929190612b74565b60405180910390f35b34801561045557600080fd5b5061045e610bd1565b60405161046b91906126ba565b60405180910390f35b34801561048057600080fd5b5061049b60048036038101906104969190612c17565b610be3565b6040516104a89190612a6a565b60405180910390f35b3480156104bd57600080fd5b506104d860048036038101906104d39190612c57565b610dee565b005b6104f460048036038101906104ef9190612a85565b610e85565b005b34801561050257600080fd5b5061051d60048036038101906105189190612992565b6112ab565b005b61053960048036038101906105349190612c97565b61132e565b60405161054691906126ba565b60405180910390f35b34801561055b57600080fd5b5061057660048036038101906105719190612a85565b6118f3565b005b6101625481565b600063150b7a0260e01b9050949350505050565b7f000000000000000000000000000000000000000000000000000000000000000073ffffffffffffffffffffffffffffffffffffffff163073ffffffffffffffffffffffffffffffffffffffff1603610621576040517f08c379a000000000000000000000000000000000000000000000000000000000815260040161061890612d6d565b60405180910390fd5b7f000000000000000000000000000000000000000000000000000000000000000073ffffffffffffffffffffffffffffffffffffffff16610660611a5b565b73ffffffffffffffffffffffffffffffffffffffff16146106b6576040517f08c379a00000000000000000000000000000000000000000000000000000000081526004016106ad90612dff565b60405180910390fd5b6106bf81611ab2565b61071881600067ffffffffffffffff8111156106de576106dd61278e565b5b6040519080825280601f01601f1916602001820160405280156107105781602001600182028036833780820191505090505b506000611abd565b50565b610723611c2b565b600261012d5403610769576040517f08c379a000000000000000000000000000000000000000000000000000000000815260040161076090612e6b565b60405180910390fd5b600261012d8190555061077a610a7b565b73ffffffffffffffffffffffffffffffffffffffff166108fc479081150290604051600060405180830381858888f193505050501580156107bf573d6000803e3d6000fd5b50600161012d81905550565b6107d3611c2b565b6107db611ca9565b565b7f000000000000000000000000000000000000000000000000000000000000000073ffffffffffffffffffffffffffffffffffffffff163073ffffffffffffffffffffffffffffffffffffffff160361086b576040517f08c379a000000000000000000000000000000000000000000000000000000000815260040161086290612d6d565b60405180910390fd5b7f000000000000000000000000000000000000000000000000000000000000000073ffffffffffffffffffffffffffffffffffffffff166108aa611a5b565b73ffffffffffffffffffffffffffffffffffffffff1614610900576040517f08c379a00000000000000000000000000000000000000000000000000000000081526004016108f790612dff565b60405180910390fd5b61090982611ab2565b61091582826001611abd565b5050565b600061092661015f611d0c565b905090565b60007f000000000000000000000000000000000000000000000000000000000000000073ffffffffffffffffffffffffffffffffffffffff163073ffffffffffffffffffffffffffffffffffffffff16146109bb576040517f08c379a00000000000000000000000000000000000000000000000000000000081526004016109b290612efd565b60405180910390fd5b7f360894a13ba1a3210667c828492db98dca3e2076cc3735a920a3ca505d382bbc60001b905090565b600060c960009054906101000a900460ff16905090565b6000610a05611c2b565b47905090565b610a13611c2b565b610a1d6000611d1a565b565b610a27611c2b565b80610162819055507ff4708f5477c5761ced4a90a84f1b43c94e1474e88179e2cbaef898ad8427365481604051610a5e91906126ba565b60405180910390a150565b610a71611c2b565b610a79611de0565b565b6000609760009054906101000a900473ffffffffffffffffffffffffffffffffffffffff16905090565b60006103e86101625483610ab99190612f4c565b610ac39190612fd5565b9050919050565b6101615481565b610ad9611c2b565b80610161819055507f3d03775d53d1fc3c9907ff0f9965de49744fbf933aa7ce8e129e2d1ea18caff181604051610b1091906126ba565b60405180910390a150565b6101636020528060005260406000206000915090508060000154908060010160009054906101000a900473ffffffffffffffffffffffffffffffffffffffff16908060020154908060030154908060040160009054906101000a900473ffffffffffffffffffffffffffffffffffffffff16908060050160009054906101000a900473ffffffffffffffffffffffffffffffffffffffff16908060060154908060070160009054906101000a900460ff16905088565b6000610bde610160611d0c565b905090565b600080610163600085815260200190815260200160002090503373ffffffffffffffffffffffffffffffffffffffff168160040160009054906101000a900473ffffffffffffffffffffffffffffffffffffffff1673ffffffffffffffffffffffffffffffffffffffff1614610c8e576040517f08c379a0000000000000000000000000000000000000000000000000000000008152600401610c8590613052565b60405180910390fd5b826002811115610ca157610ca0612afd565b5b8160070160009054906101000a900460ff166002811115610cc557610cc4612afd565b5b03610d05576040517f08c379a0000000000000000000000000000000000000000000000000000000008152600401610cfc906130be565b60405180910390fd5b600280811115610d1857610d17612afd565b5b8160070160009054906101000a900460ff166002811115610d3c57610d3b612afd565b5b03610d7c576040517f08c379a0000000000000000000000000000000000000000000000000000000008152600401610d739061312a565b60405180910390fd5b828160070160006101000a81548160ff02191690836002811115610da357610da2612afd565b5b02179055507fc1e3195802cae45d0816192af3f9b877c549a8ff1b446fc13048021fd1f933b8843385604051610ddb9392919061314a565b60405180910390a1600191505092915050565b610df88282611e43565b610e37576040517f08c379a0000000000000000000000000000000000000000000000000000000008152600401610e2e906131cd565b60405180910390fd5b610e42826001610be3565b610e81576040517f08c379a0000000000000000000000000000000000000000000000000000000008152600401610e7890613239565b60405180910390fd5b5050565b600261012d5403610ecb576040517f08c379a0000000000000000000000000000000000000000000000000000000008152600401610ec290612e6b565b60405180910390fd5b600261012d81905550610edc61202c565b600061016360008381526020019081526020016000209050600082118015610f0e5750610f0a61015f611d0c565b8211155b610f4d576040517f08c379a0000000000000000000000000000000000000000000000000000000008152600401610f44906132a5565b60405180910390fd5b8060030154341015610f94576040517f08c379a0000000000000000000000000000000000000000000000000000000008152600401610f8b90613337565b60405180910390fd5b60016002811115610fa857610fa7612afd565b5b8160070160009054906101000a900460ff166002811115610fcc57610fcb612afd565b5b1461100c576040517f08c379a0000000000000000000000000000000000000000000000000000000008152600401611003906133a3565b60405180910390fd5b600061101c838360060154612076565b90508160050160009054906101000a900473ffffffffffffffffffffffffffffffffffffffff1673ffffffffffffffffffffffffffffffffffffffff166108fc83600601549081150290604051600060405180830381858888f1935050505015801561108c573d6000803e3d6000fd5b508160040160009054906101000a900473ffffffffffffffffffffffffffffffffffffffff1673ffffffffffffffffffffffffffffffffffffffff166108fc829081150290604051600060405180830381858888f193505050501580156110f7573d6000803e3d6000fd5b5060028260070160006101000a81548160ff021916908360028111156111205761111f612afd565b5b02179055506111306101606120d4565b3373ffffffffffffffffffffffffffffffffffffffff168260040160009054906101000a900473ffffffffffffffffffffffffffffffffffffffff1673ffffffffffffffffffffffffffffffffffffffff168360010160009054906101000a900473ffffffffffffffffffffffffffffffffffffffff1673ffffffffffffffffffffffffffffffffffffffff167f179738be873fb5cb1076ebdeba2cd8886e3a9cf77d66790f0367dd0f6941448486866002015487600301546040516111f8939291906133c3565b60405180910390a460008260010160009054906101000a900473ffffffffffffffffffffffffffffffffffffffff1690508073ffffffffffffffffffffffffffffffffffffffff166342842e0e303386600201546040518463ffffffff1660e01b815260040161126a939291906133fa565b600060405180830381600087803b15801561128457600080fd5b505af1158015611298573d6000803e3d6000fd5b50505050505050600161012d8190555050565b6112b3611c2b565b600073ffffffffffffffffffffffffffffffffffffffff168173ffffffffffffffffffffffffffffffffffffffff1603611322576040517f08c379a0000000000000000000000000000000000000000000000000000000008152600401611319906134a3565b60405180910390fd5b61132b81611d1a565b50565b600061133861202c565b600261012d540361137e576040517f08c379a000000000000000000000000000000000000000000000000000000000815260040161137590612e6b565b60405180910390fd5b600261012d81905550600073ffffffffffffffffffffffffffffffffffffffff168473ffffffffffffffffffffffffffffffffffffffff16036113f6576040517f08c379a00000000000000000000000000000000000000000000000000000000081526004016113ed9061350f565b60405180910390fd5b60008311611439576040517f08c379a0000000000000000000000000000000000000000000000000000000008152600401611430906135a1565b60405180910390fd5b3373ffffffffffffffffffffffffffffffffffffffff168473ffffffffffffffffffffffffffffffffffffffff16636352211e856040518263ffffffff1660e01b815260040161148991906126ba565b602060405180830381865afa1580156114a6573d6000803e3d6000fd5b505050506040513d601f19601f820116820180604052508101906114ca91906135d6565b73ffffffffffffffffffffffffffffffffffffffff1614611520576040517f08c379a00000000000000000000000000000000000000000000000000000000081526004016115179061364f565b60405180910390fd5b3461152a83610aa5565b111561156b576040517f08c379a0000000000000000000000000000000000000000000000000000000008152600401611562906136bb565b60405180910390fd5b61157661015f6120d4565b600061158361015f611d0c565b905060008060009050611595876120ea565b15611622578673ffffffffffffffffffffffffffffffffffffffff16632a55205a87876040518363ffffffff1660e01b81526004016115d59291906136db565b6040805180830381865afa1580156115f1573d6000803e3d6000fd5b505050506040513d601f19601f820116820180604052508101906116159190613719565b8092508193505050611626565b3391505b6040518061010001604052808481526020018873ffffffffffffffffffffffffffffffffffffffff1681526020018781526020018681526020013373ffffffffffffffffffffffffffffffffffffffff1681526020018373ffffffffffffffffffffffffffffffffffffffff168152602001828152602001600160028111156116b2576116b1612afd565b5b81525061016360008581526020019081526020016000206000820151816000015560208201518160010160006101000a81548173ffffffffffffffffffffffffffffffffffffffff021916908373ffffffffffffffffffffffffffffffffffffffff160217905550604082015181600201556060820151816003015560808201518160040160006101000a81548173ffffffffffffffffffffffffffffffffffffffff021916908373ffffffffffffffffffffffffffffffffffffffff16021790555060a08201518160050160006101000a81548173ffffffffffffffffffffffffffffffffffffffff021916908373ffffffffffffffffffffffffffffffffffffffff16021790555060c0820151816006015560e08201518160070160006101000a81548160ff021916908360028111156117f1576117f0612afd565b5b02179055509050503373ffffffffffffffffffffffffffffffffffffffff168773ffffffffffffffffffffffffffffffffffffffff167fd87a6fff1d9137a29fab37cfdaf8519abc902ca48438125a02baf96a5d52307f8589898760405161185c9493929190613759565b60405180910390a38673ffffffffffffffffffffffffffffffffffffffff166342842e0e3330896040518463ffffffff1660e01b81526004016118a1939291906133fa565b600060405180830381600087803b1580156118bb57600080fd5b505af11580156118cf573d6000803e3d6000fd5b505050506118de61015f611d0c565b9350505050600161012d819055509392505050565b60008060019054906101000a900460ff161590508080156119245750600160008054906101000a900460ff1660ff16105b80611951575061193330612179565b1580156119505750600160008054906101000a900460ff1660ff16145b5b611990576040517f08c379a000000000000000000000000000000000000000000000000000000000815260040161198790613810565b60405180910390fd5b60016000806101000a81548160ff021916908360ff16021790555080156119cd576001600060016101000a81548160ff0219169083151502179055505b6119d561219c565b6119dd6121ed565b6119e5612246565b6119ed61229f565b81610161819055506000610162819055508015611a575760008060016101000a81548160ff0219169083151502179055507f7f26b83ff96e1f2b6a682f133852f6798a09c465da95921460cefb38474024986001604051611a4e9190613882565b60405180910390a15b5050565b6000611a897f360894a13ba1a3210667c828492db98dca3e2076cc3735a920a3ca505d382bbc60001b6122f0565b60000160009054906101000a900473ffffffffffffffffffffffffffffffffffffffff16905090565b611aba611c2b565b50565b611ae97f4910fdfa16fed3260ed0e7147f7cc6da11a60208b5b9406d12a635614ffd914360001b6122fa565b60000160009054906101000a900460ff1615611b0d57611b0883612304565b611c26565b8273ffffffffffffffffffffffffffffffffffffffff166352d1902d6040518163ffffffff1660e01b8152600401602060405180830381865afa925050508015611b7557506040513d601f19601f82011682018060405250810190611b7291906138c9565b60015b611bb4576040517f08c379a0000000000000000000000000000000000000000000000000000000008152600401611bab90613968565b60405180910390fd5b7f360894a13ba1a3210667c828492db98dca3e2076cc3735a920a3ca505d382bbc60001b8114611c19576040517f08c379a0000000000000000000000000000000000000000000000000000000008152600401611c10906139fa565b60405180910390fd5b50611c258383836123bd565b5b505050565b611c336123e9565b73ffffffffffffffffffffffffffffffffffffffff16611c51610a7b565b73ffffffffffffffffffffffffffffffffffffffff1614611ca7576040517f08c379a0000000000000000000000000000000000000000000000000000000008152600401611c9e90613a66565b60405180910390fd5b565b611cb16123f1565b600060c960006101000a81548160ff0219169083151502179055507f5db9ee0a495bf2e6ff9c91a7834c1ba4fdd244a5e8aa4e537bd38aeae4b073aa611cf56123e9565b604051611d029190612ac1565b60405180910390a1565b600081600001549050919050565b6000609760009054906101000a900473ffffffffffffffffffffffffffffffffffffffff16905081609760006101000a81548173ffffffffffffffffffffffffffffffffffffffff021916908373ffffffffffffffffffffffffffffffffffffffff1602179055508173ffffffffffffffffffffffffffffffffffffffff168173ffffffffffffffffffffffffffffffffffffffff167f8be0079c531659141344cd1fd0a4f28419497f9722a3daafe3b4186f6b6457e060405160405180910390a35050565b611de861202c565b600160c960006101000a81548160ff0219169083151502179055507f62e78cea01bee320cd4e420270b5ea74000d11b0c9f74754ebdbfc544b05a258611e2c6123e9565b604051611e399190612ac1565b60405180910390a1565b600080610163600085815260200190815260200160002090503373ffffffffffffffffffffffffffffffffffffffff168160040160009054906101000a900473ffffffffffffffffffffffffffffffffffffffff1673ffffffffffffffffffffffffffffffffffffffff1614611eee576040517f08c379a0000000000000000000000000000000000000000000000000000000008152600401611ee590613052565b60405180910390fd5b600280811115611f0157611f00612afd565b5b8160070160009054906101000a900460ff166002811115611f2557611f24612afd565b5b03611f65576040517f08c379a0000000000000000000000000000000000000000000000000000000008152600401611f5c9061312a565b60405180910390fd5b60006002811115611f7957611f78612afd565b5b8160070160009054906101000a900460ff166002811115611f9d57611f9c612afd565b5b14611fdd576040517f08c379a0000000000000000000000000000000000000000000000000000000008152600401611fd490613ad2565b60405180910390fd5b8281600301819055507f6dcfb5ae8812d5ad1c251689041fb4e36cb7183b13472c2ffdc1e1eb42bf418684338560405161201993929190613af2565b60405180910390a1600191505092915050565b6120346109e4565b15612074576040517f08c379a000000000000000000000000000000000000000000000000000000000815260040161206b90613b75565b60405180910390fd5b565b600080600061016360008681526020019081526020016000206003015490506103e861016154826120a79190612f4c565b6120b19190612fd5565b915083826120bf9190613b95565b816120ca9190613bc9565b9250505092915050565b6001816000016000828254019250508190555050565b6000808273ffffffffffffffffffffffffffffffffffffffff166301ffc9a7632a55205a60e01b6040518263ffffffff1660e01b815260040161212d9190612977565b602060405180830381865afa15801561214a573d6000803e3d6000fd5b505050506040513d601f19601f8201168201806040525081019061216e9190613c29565b905080915050919050565b6000808273ffffffffffffffffffffffffffffffffffffffff163b119050919050565b600060019054906101000a900460ff166121eb576040517f08c379a00000000000000000000000000000000000000000000000000000000081526004016121e290613cc8565b60405180910390fd5b565b600060019054906101000a900460ff1661223c576040517f08c379a000000000000000000000000000000000000000000000000000000000815260040161223390613cc8565b60405180910390fd5b61224461243a565b565b600060019054906101000a900460ff16612295576040517f08c379a000000000000000000000000000000000000000000000000000000000815260040161228c90613cc8565b60405180910390fd5b61229d61249b565b565b600060019054906101000a900460ff166122ee576040517f08c379a00000000000000000000000000000000000000000000000000000000081526004016122e590613cc8565b60405180910390fd5b565b6000819050919050565b6000819050919050565b61230d81612179565b61234c576040517f08c379a000000000000000000000000000000000000000000000000000000000815260040161234390613d5a565b60405180910390fd5b806123797f360894a13ba1a3210667c828492db98dca3e2076cc3735a920a3ca505d382bbc60001b6122f0565b60000160006101000a81548173ffffffffffffffffffffffffffffffffffffffff021916908373ffffffffffffffffffffffffffffffffffffffff16021790555050565b6123c683612507565b6000825111806123d35750805b156123e4576123e28383612556565b505b505050565b600033905090565b6123f96109e4565b612438576040517f08c379a000000000000000000000000000000000000000000000000000000000815260040161242f90613dc6565b60405180910390fd5b565b600060019054906101000a900460ff16612489576040517f08c379a000000000000000000000000000000000000000000000000000000000815260040161248090613cc8565b60405180910390fd5b6124996124946123e9565b611d1a565b565b600060019054906101000a900460ff166124ea576040517f08c379a00000000000000000000000000000000000000000000000000000000081526004016124e190613cc8565b60405180910390fd5b600060c960006101000a81548160ff021916908315150217905550565b61251081612304565b8073ffffffffffffffffffffffffffffffffffffffff167fbc7cd75a20ee27fd9adebab32041f755214dbc6bffa90cc0225b39da2e5c2d3b60405160405180910390a250565b606061256183612179565b6125a0576040517f08c379a000000000000000000000000000000000000000000000000000000000815260040161259790613e58565b60405180910390fd5b6000808473ffffffffffffffffffffffffffffffffffffffff16846040516125c89190613ee9565b600060405180830381855af49150503d8060008114612603576040519150601f19603f3d011682016040523d82523d6000602084013e612608565b606091505b50915091506126308282604051806060016040528060278152602001613f676027913961263a565b9250505092915050565b6060831561264a5782905061269a565b60008351111561265d5782518084602001fd5b816040517f08c379a00000000000000000000000000000000000000000000000000000000081526004016126919190613f44565b60405180910390fd5b9392505050565b6000819050919050565b6126b4816126a1565b82525050565b60006020820190506126cf60008301846126ab565b92915050565b6000604051905090565b600080fd5b600080fd5b600073ffffffffffffffffffffffffffffffffffffffff82169050919050565b6000612714826126e9565b9050919050565b61272481612709565b811461272f57600080fd5b50565b6000813590506127418161271b565b92915050565b612750816126a1565b811461275b57600080fd5b50565b60008135905061276d81612747565b92915050565b600080fd5b600080fd5b6000601f19601f8301169050919050565b7f4e487b7100000000000000000000000000000000000000000000000000000000600052604160045260246000fd5b6127c68261277d565b810181811067ffffffffffffffff821117156127e5576127e461278e565b5b80604052505050565b60006127f86126d5565b905061280482826127bd565b919050565b600067ffffffffffffffff8211156128245761282361278e565b5b61282d8261277d565b9050602081019050919050565b82818337600083830152505050565b600061285c61285784612809565b6127ee565b90508281526020810184848401111561287857612877612778565b5b61288384828561283a565b509392505050565b600082601f8301126128a05761289f612773565b5b81356128b0848260208601612849565b91505092915050565b600080600080608085870312156128d3576128d26126df565b5b60006128e187828801612732565b94505060206128f287828801612732565b93505060406129038782880161275e565b925050606085013567ffffffffffffffff811115612924576129236126e4565b5b6129308782880161288b565b91505092959194509250565b60007fffffffff0000000000000000000000000000000000000000000000000000000082169050919050565b6129718161293c565b82525050565b600060208201905061298c6000830184612968565b92915050565b6000602082840312156129a8576129a76126df565b5b60006129b684828501612732565b91505092915050565b600080604083850312156129d6576129d56126df565b5b60006129e485828601612732565b925050602083013567ffffffffffffffff811115612a0557612a046126e4565b5b612a118582860161288b565b9150509250929050565b6000819050919050565b612a2e81612a1b565b82525050565b6000602082019050612a496000830184612a25565b92915050565b60008115159050919050565b612a6481612a4f565b82525050565b6000602082019050612a7f6000830184612a5b565b92915050565b600060208284031215612a9b57612a9a6126df565b5b6000612aa98482850161275e565b91505092915050565b612abb81612709565b82525050565b6000602082019050612ad66000830184612ab2565b92915050565b6000612ae7826126e9565b9050919050565b612af781612adc565b82525050565b7f4e487b7100000000000000000000000000000000000000000000000000000000600052602160045260246000fd5b60038110612b3d57612b3c612afd565b5b50565b6000819050612b4e82612b2c565b919050565b6000612b5e82612b40565b9050919050565b612b6e81612b53565b82525050565b600061010082019050612b8a600083018b6126ab565b612b97602083018a612ab2565b612ba460408301896126ab565b612bb160608301886126ab565b612bbe6080830187612aee565b612bcb60a0830186612aee565b612bd860c08301856126ab565b612be560e0830184612b65565b9998505050505050505050565b60038110612bff57600080fd5b50565b600081359050612c1181612bf2565b92915050565b60008060408385031215612c2e57612c2d6126df565b5b6000612c3c8582860161275e565b9250506020612c4d85828601612c02565b9150509250929050565b60008060408385031215612c6e57612c6d6126df565b5b6000612c7c8582860161275e565b9250506020612c8d8582860161275e565b9150509250929050565b600080600060608486031215612cb057612caf6126df565b5b6000612cbe86828701612732565b9350506020612ccf8682870161275e565b9250506040612ce08682870161275e565b9150509250925092565b600082825260208201905092915050565b7f46756e6374696f6e206d7573742062652063616c6c6564207468726f7567682060008201527f64656c656761746563616c6c0000000000000000000000000000000000000000602082015250565b6000612d57602c83612cea565b9150612d6282612cfb565b604082019050919050565b60006020820190508181036000830152612d8681612d4a565b9050919050565b7f46756e6374696f6e206d7573742062652063616c6c6564207468726f7567682060008201527f6163746976652070726f78790000000000000000000000000000000000000000602082015250565b6000612de9602c83612cea565b9150612df482612d8d565b604082019050919050565b60006020820190508181036000830152612e1881612ddc565b9050919050565b7f5265656e7472616e637947756172643a207265656e7472616e742063616c6c00600082015250565b6000612e55601f83612cea565b9150612e6082612e1f565b602082019050919050565b60006020820190508181036000830152612e8481612e48565b9050919050565b7f555550535570677261646561626c653a206d757374206e6f742062652063616c60008201527f6c6564207468726f7567682064656c656761746563616c6c0000000000000000602082015250565b6000612ee7603883612cea565b9150612ef282612e8b565b604082019050919050565b60006020820190508181036000830152612f1681612eda565b9050919050565b7f4e487b7100000000000000000000000000000000000000000000000000000000600052601160045260246000fd5b6000612f57826126a1565b9150612f62836126a1565b9250817fffffffffffffffffffffffffffffffffffffffffffffffffffffffffffffffff0483118215151615612f9b57612f9a612f1d565b5b828202905092915050565b7f4e487b7100000000000000000000000000000000000000000000000000000000600052601260045260246000fd5b6000612fe0826126a1565b9150612feb836126a1565b925082612ffb57612ffa612fa6565b5b828204905092915050565b7f6f6e6c792073656c6c65722063616e206368616e676520737461747573210000600082015250565b600061303c601e83612cea565b915061304782613006565b602082019050919050565b6000602082019050818103600083015261306b8161302f565b9050919050565b7f7374617475732073686f756c64206265206e6577210000000000000000000000600082015250565b60006130a8601583612cea565b91506130b382613072565b602082019050919050565b600060208201905081810360008301526130d78161309b565b9050919050565b7f6974656d20616c726561647920736f6c64210000000000000000000000000000600082015250565b6000613114601283612cea565b915061311f826130de565b602082019050919050565b6000602082019050818103600083015261314381613107565b9050919050565b600060608201905061315f60008301866126ab565b61316c6020830185612ab2565b6131796040830184612b65565b949350505050565b7f536574206e6577207072696365206661696c6564210000000000000000000000600082015250565b60006131b7601583612cea565b91506131c282613181565b602082019050919050565b600060208201905081810360008301526131e6816131aa565b9050919050565b7f536574206e6577206974656d20737461747573206661696c6564210000000000600082015250565b6000613223601b83612cea565b915061322e826131ed565b602082019050919050565b6000602082019050818103600083015261325281613216565b9050919050565b7f6974656d20646f6573206e6f7420657869737400000000000000000000000000600082015250565b600061328f601383612cea565b915061329a82613259565b602082019050919050565b600060208201905081810360008301526132be81613282565b9050919050565b7f6e6f7420656e6f75676820657468657220746f20636f766572206974656d207060008201527f7269636520616e64206d61726b65742066656500000000000000000000000000602082015250565b6000613321603383612cea565b915061332c826132c5565b604082019050919050565b6000602082019050818103600083015261335081613314565b9050919050565b7f6974656d2073686f756c64206265206c69737465640000000000000000000000600082015250565b600061338d601583612cea565b915061339882613357565b602082019050919050565b600060208201905081810360008301526133bc81613380565b9050919050565b60006060820190506133d860008301866126ab565b6133e560208301856126ab565b6133f260408301846126ab565b949350505050565b600060608201905061340f6000830186612ab2565b61341c6020830185612ab2565b61342960408301846126ab565b949350505050565b7f4f776e61626c653a206e6577206f776e657220697320746865207a65726f206160008201527f6464726573730000000000000000000000000000000000000000000000000000602082015250565b600061348d602683612cea565b915061349882613431565b604082019050919050565b600060208201905081810360008301526134bc81613480565b9050919050565b7f5a65726f2061646472657373206973206e6f7420616c6c6f7765642100000000600082015250565b60006134f9601c83612cea565b9150613504826134c3565b602082019050919050565b60006020820190508181036000830152613528816134ec565b9050919050565b7f546f6b656e2069642073686f756c642062652067726561746572207468616e2060008201527f7a65726f21000000000000000000000000000000000000000000000000000000602082015250565b600061358b602583612cea565b91506135968261352f565b604082019050919050565b600060208201905081810360008301526135ba8161357e565b9050919050565b6000815190506135d08161271b565b92915050565b6000602082840312156135ec576135eb6126df565b5b60006135fa848285016135c1565b91505092915050565b7f4f6e6c79206f776e65722063616e206c69737420697473204e46542100000000600082015250565b6000613639601c83612cea565b915061364482613603565b602082019050919050565b600060208201905081810360008301526136688161362c565b9050919050565b7f53686f756c6420706179206c697374696e672066656573210000000000000000600082015250565b60006136a5601883612cea565b91506136b08261366f565b602082019050919050565b600060208201905081810360008301526136d481613698565b9050919050565b60006040820190506136f060008301856126ab565b6136fd60208301846126ab565b9392505050565b60008151905061371381612747565b92915050565b600080604083850312156137305761372f6126df565b5b600061373e858286016135c1565b925050602061374f85828601613704565b9150509250929050565b600060808201905061376e60008301876126ab565b61377b60208301866126ab565b61378860408301856126ab565b6137956060830184612ab2565b95945050505050565b7f496e697469616c697a61626c653a20636f6e747261637420697320616c72656160008201527f647920696e697469616c697a6564000000000000000000000000000000000000602082015250565b60006137fa602e83612cea565b91506138058261379e565b604082019050919050565b60006020820190508181036000830152613829816137ed565b9050919050565b6000819050919050565b600060ff82169050919050565b6000819050919050565b600061386c61386761386284613830565b613847565b61383a565b9050919050565b61387c81613851565b82525050565b60006020820190506138976000830184613873565b92915050565b6138a681612a1b565b81146138b157600080fd5b50565b6000815190506138c38161389d565b92915050565b6000602082840312156138df576138de6126df565b5b60006138ed848285016138b4565b91505092915050565b7f45524331393637557067726164653a206e657720696d706c656d656e7461746960008201527f6f6e206973206e6f742055555053000000000000000000000000000000000000602082015250565b6000613952602e83612cea565b915061395d826138f6565b604082019050919050565b6000602082019050818103600083015261398181613945565b9050919050565b7f45524331393637557067726164653a20756e737570706f727465642070726f7860008201527f6961626c65555549440000000000000000000000000000000000000000000000602082015250565b60006139e4602983612cea565b91506139ef82613988565b604082019050919050565b60006020820190508181036000830152613a13816139d7565b9050919050565b7f4f776e61626c653a2063616c6c6572206973206e6f7420746865206f776e6572600082015250565b6000613a50602083612cea565b9150613a5b82613a1a565b602082019050919050565b60006020820190508181036000830152613a7f81613a43565b9050919050565b7f6974656d2073686f756c64206e6f74206265206c697374656400000000000000600082015250565b6000613abc601983612cea565b9150613ac782613a86565b602082019050919050565b60006020820190508181036000830152613aeb81613aaf565b9050919050565b6000606082019050613b0760008301866126ab565b613b146020830185612ab2565b613b2160408301846126ab565b949350505050565b7f5061757361626c653a2070617573656400000000000000000000000000000000600082015250565b6000613b5f601083612cea565b9150613b6a82613b29565b602082019050919050565b60006020820190508181036000830152613b8e81613b52565b9050919050565b6000613ba0826126a1565b9150613bab836126a1565b9250828201905080821115613bc357613bc2612f1d565b5b92915050565b6000613bd4826126a1565b9150613bdf836126a1565b9250828203905081811115613bf757613bf6612f1d565b5b92915050565b613c0681612a4f565b8114613c1157600080fd5b50565b600081519050613c2381613bfd565b92915050565b600060208284031215613c3f57613c3e6126df565b5b6000613c4d84828501613c14565b91505092915050565b7f496e697469616c697a61626c653a20636f6e7472616374206973206e6f74206960008201527f6e697469616c697a696e67000000000000000000000000000000000000000000602082015250565b6000613cb2602b83612cea565b9150613cbd82613c56565b604082019050919050565b60006020820190508181036000830152613ce181613ca5565b9050919050565b7f455243313936373a206e657720696d706c656d656e746174696f6e206973206e60008201527f6f74206120636f6e747261637400000000000000000000000000000000000000602082015250565b6000613d44602d83612cea565b9150613d4f82613ce8565b604082019050919050565b60006020820190508181036000830152613d7381613d37565b9050919050565b7f5061757361626c653a206e6f7420706175736564000000000000000000000000600082015250565b6000613db0601483612cea565b9150613dbb82613d7a565b602082019050919050565b60006020820190508181036000830152613ddf81613da3565b9050919050565b7f416464726573733a2064656c65676174652063616c6c20746f206e6f6e2d636f60008201527f6e74726163740000000000000000000000000000000000000000000000000000602082015250565b6000613e42602683612cea565b9150613e4d82613de6565b604082019050919050565b60006020820190508181036000830152613e7181613e35565b9050919050565b600081519050919050565b600081905092915050565b60005b83811015613eac578082015181840152602081019050613e91565b60008484015250505050565b6000613ec382613e78565b613ecd8185613e83565b9350613edd818560208601613e8e565b80840191505092915050565b6000613ef58284613eb8565b915081905092915050565b600081519050919050565b6000613f1682613f00565b613f208185612cea565b9350613f30818560208601613e8e565b613f398161277d565b840191505092915050565b60006020820190508181036000830152613f5e8184613f0b565b90509291505056fe416464726573733a206c6f772d6c6576656c2064656c65676174652063616c6c206661696c6564a2646970667358221220e7fd90e8d6cce0d2fd6ab622892e615fb799e35354f5212d4ac08139614746af64736f6c63430008100033",
  "linkReferences": {},
  "deployedLinkReferences": {}
}